{
  "contractName": "CDaiDelegate",
  "abi": [
    {
      "anonymous": false,
      "inputs": [
        {
          "indexed": false,
          "internalType": "uint256",
          "name": "cashPrior",
          "type": "uint256"
        },
        {
          "indexed": false,
          "internalType": "uint256",
          "name": "interestAccumulated",
          "type": "uint256"
        },
        {
          "indexed": false,
          "internalType": "uint256",
          "name": "borrowIndex",
          "type": "uint256"
        },
        {
          "indexed": false,
          "internalType": "uint256",
          "name": "totalBorrows",
          "type": "uint256"
        }
      ],
      "name": "AccrueInterest",
      "type": "event"
    },
    {
      "anonymous": false,
      "inputs": [
        {
          "indexed": true,
          "internalType": "address",
          "name": "owner",
          "type": "address"
        },
        {
          "indexed": true,
          "internalType": "address",
          "name": "spender",
          "type": "address"
        },
        {
          "indexed": false,
          "internalType": "uint256",
          "name": "amount",
          "type": "uint256"
        }
      ],
      "name": "Approval",
      "type": "event"
    },
    {
      "anonymous": false,
      "inputs": [
        {
          "indexed": false,
          "internalType": "address",
          "name": "borrower",
          "type": "address"
        },
        {
          "indexed": false,
          "internalType": "uint256",
          "name": "borrowAmount",
          "type": "uint256"
        },
        {
          "indexed": false,
          "internalType": "uint256",
          "name": "accountBorrows",
          "type": "uint256"
        },
        {
          "indexed": false,
          "internalType": "uint256",
          "name": "totalBorrows",
          "type": "uint256"
        }
      ],
      "name": "Borrow",
      "type": "event"
    },
    {
      "anonymous": false,
      "inputs": [
        {
          "indexed": false,
          "internalType": "uint256",
          "name": "error",
          "type": "uint256"
        },
        {
          "indexed": false,
          "internalType": "uint256",
          "name": "info",
          "type": "uint256"
        },
        {
          "indexed": false,
          "internalType": "uint256",
          "name": "detail",
          "type": "uint256"
        }
      ],
      "name": "Failure",
      "type": "event"
    },
    {
      "anonymous": false,
      "inputs": [
        {
          "indexed": false,
          "internalType": "address",
          "name": "liquidator",
          "type": "address"
        },
        {
          "indexed": false,
          "internalType": "address",
          "name": "borrower",
          "type": "address"
        },
        {
          "indexed": false,
          "internalType": "uint256",
          "name": "repayAmount",
          "type": "uint256"
        },
        {
          "indexed": false,
          "internalType": "address",
          "name": "cTokenCollateral",
          "type": "address"
        },
        {
          "indexed": false,
          "internalType": "uint256",
          "name": "seizeTokens",
          "type": "uint256"
        }
      ],
      "name": "LiquidateBorrow",
      "type": "event"
    },
    {
      "anonymous": false,
      "inputs": [
        {
          "indexed": false,
          "internalType": "address",
          "name": "minter",
          "type": "address"
        },
        {
          "indexed": false,
          "internalType": "uint256",
          "name": "mintAmount",
          "type": "uint256"
        },
        {
          "indexed": false,
          "internalType": "uint256",
          "name": "mintTokens",
          "type": "uint256"
        }
      ],
      "name": "Mint",
      "type": "event"
    },
    {
      "anonymous": false,
      "inputs": [
        {
          "indexed": false,
          "internalType": "address",
          "name": "oldAdmin",
          "type": "address"
        },
        {
          "indexed": false,
          "internalType": "address",
          "name": "newAdmin",
          "type": "address"
        }
      ],
      "name": "NewAdmin",
      "type": "event"
    },
    {
      "anonymous": false,
      "inputs": [
        {
          "indexed": false,
          "internalType": "contract ComptrollerInterface",
          "name": "oldComptroller",
          "type": "address"
        },
        {
          "indexed": false,
          "internalType": "contract ComptrollerInterface",
          "name": "newComptroller",
          "type": "address"
        }
      ],
      "name": "NewComptroller",
      "type": "event"
    },
    {
      "anonymous": false,
      "inputs": [
        {
          "indexed": false,
          "internalType": "contract InterestRateModel",
          "name": "oldInterestRateModel",
          "type": "address"
        },
        {
          "indexed": false,
          "internalType": "contract InterestRateModel",
          "name": "newInterestRateModel",
          "type": "address"
        }
      ],
      "name": "NewMarketInterestRateModel",
      "type": "event"
    },
    {
      "anonymous": false,
      "inputs": [
        {
          "indexed": false,
          "internalType": "address",
          "name": "oldPendingAdmin",
          "type": "address"
        },
        {
          "indexed": false,
          "internalType": "address",
          "name": "newPendingAdmin",
          "type": "address"
        }
      ],
      "name": "NewPendingAdmin",
      "type": "event"
    },
    {
      "anonymous": false,
      "inputs": [
        {
          "indexed": false,
          "internalType": "uint256",
          "name": "oldReserveFactorMantissa",
          "type": "uint256"
        },
        {
          "indexed": false,
          "internalType": "uint256",
          "name": "newReserveFactorMantissa",
          "type": "uint256"
        }
      ],
      "name": "NewReserveFactor",
      "type": "event"
    },
    {
      "anonymous": false,
      "inputs": [
        {
          "indexed": false,
          "internalType": "address",
          "name": "redeemer",
          "type": "address"
        },
        {
          "indexed": false,
          "internalType": "uint256",
          "name": "redeemAmount",
          "type": "uint256"
        },
        {
          "indexed": false,
          "internalType": "uint256",
          "name": "redeemTokens",
          "type": "uint256"
        }
      ],
      "name": "Redeem",
      "type": "event"
    },
    {
      "anonymous": false,
      "inputs": [
        {
          "indexed": false,
          "internalType": "address",
          "name": "payer",
          "type": "address"
        },
        {
          "indexed": false,
          "internalType": "address",
          "name": "borrower",
          "type": "address"
        },
        {
          "indexed": false,
          "internalType": "uint256",
          "name": "repayAmount",
          "type": "uint256"
        },
        {
          "indexed": false,
          "internalType": "uint256",
          "name": "accountBorrows",
          "type": "uint256"
        },
        {
          "indexed": false,
          "internalType": "uint256",
          "name": "totalBorrows",
          "type": "uint256"
        }
      ],
      "name": "RepayBorrow",
      "type": "event"
    },
    {
      "anonymous": false,
      "inputs": [
        {
          "indexed": false,
          "internalType": "address",
          "name": "benefactor",
          "type": "address"
        },
        {
          "indexed": false,
          "internalType": "uint256",
          "name": "addAmount",
          "type": "uint256"
        },
        {
          "indexed": false,
          "internalType": "uint256",
          "name": "newTotalReserves",
          "type": "uint256"
        }
      ],
      "name": "ReservesAdded",
      "type": "event"
    },
    {
      "anonymous": false,
      "inputs": [
        {
          "indexed": false,
          "internalType": "address",
          "name": "admin",
          "type": "address"
        },
        {
          "indexed": false,
          "internalType": "uint256",
          "name": "reduceAmount",
          "type": "uint256"
        },
        {
          "indexed": false,
          "internalType": "uint256",
          "name": "newTotalReserves",
          "type": "uint256"
        }
      ],
      "name": "ReservesReduced",
      "type": "event"
    },
    {
      "anonymous": false,
      "inputs": [
        {
          "indexed": true,
          "internalType": "address",
          "name": "from",
          "type": "address"
        },
        {
          "indexed": true,
          "internalType": "address",
          "name": "to",
          "type": "address"
        },
        {
          "indexed": false,
          "internalType": "uint256",
          "name": "amount",
          "type": "uint256"
        }
      ],
      "name": "Transfer",
      "type": "event"
    },
    {
      "constant": false,
      "inputs": [],
      "name": "_acceptAdmin",
      "outputs": [
        {
          "internalType": "uint256",
          "name": "",
          "type": "uint256"
        }
      ],
      "payable": false,
      "stateMutability": "nonpayable",
      "type": "function"
    },
    {
      "constant": false,
      "inputs": [
        {
          "internalType": "uint256",
          "name": "addAmount",
          "type": "uint256"
        }
      ],
      "name": "_addReserves",
      "outputs": [
        {
          "internalType": "uint256",
          "name": "",
          "type": "uint256"
        }
      ],
      "payable": false,
      "stateMutability": "nonpayable",
      "type": "function"
    },
    {
      "constant": false,
      "inputs": [
        {
          "internalType": "uint256",
          "name": "reduceAmount",
          "type": "uint256"
        }
      ],
      "name": "_reduceReserves",
      "outputs": [
        {
          "internalType": "uint256",
          "name": "",
          "type": "uint256"
        }
      ],
      "payable": false,
      "stateMutability": "nonpayable",
      "type": "function"
    },
    {
      "constant": false,
      "inputs": [
        {
          "internalType": "contract ComptrollerInterface",
          "name": "newComptroller",
          "type": "address"
        }
      ],
      "name": "_setComptroller",
      "outputs": [
        {
          "internalType": "uint256",
          "name": "",
          "type": "uint256"
        }
      ],
      "payable": false,
      "stateMutability": "nonpayable",
      "type": "function"
    },
    {
      "constant": false,
      "inputs": [
        {
          "internalType": "contract InterestRateModel",
          "name": "newInterestRateModel",
          "type": "address"
        }
      ],
      "name": "_setInterestRateModel",
      "outputs": [
        {
          "internalType": "uint256",
          "name": "",
          "type": "uint256"
        }
      ],
      "payable": false,
      "stateMutability": "nonpayable",
      "type": "function"
    },
    {
      "constant": false,
      "inputs": [
        {
          "internalType": "address payable",
          "name": "newPendingAdmin",
          "type": "address"
        }
      ],
      "name": "_setPendingAdmin",
      "outputs": [
        {
          "internalType": "uint256",
          "name": "",
          "type": "uint256"
        }
      ],
      "payable": false,
      "stateMutability": "nonpayable",
      "type": "function"
    },
    {
      "constant": false,
      "inputs": [
        {
          "internalType": "uint256",
          "name": "newReserveFactorMantissa",
          "type": "uint256"
        }
      ],
      "name": "_setReserveFactor",
      "outputs": [
        {
          "internalType": "uint256",
          "name": "",
          "type": "uint256"
        }
      ],
      "payable": false,
      "stateMutability": "nonpayable",
      "type": "function"
    },
    {
      "constant": true,
      "inputs": [],
      "name": "accrualBlockNumber",
      "outputs": [
        {
          "internalType": "uint256",
          "name": "",
          "type": "uint256"
        }
      ],
      "payable": false,
      "stateMutability": "view",
      "type": "function"
    },
    {
      "constant": true,
      "inputs": [],
      "name": "admin",
      "outputs": [
        {
          "internalType": "address payable",
          "name": "",
          "type": "address"
        }
      ],
      "payable": false,
      "stateMutability": "view",
      "type": "function"
    },
    {
      "constant": true,
      "inputs": [
        {
          "internalType": "address",
          "name": "owner",
          "type": "address"
        },
        {
          "internalType": "address",
          "name": "spender",
          "type": "address"
        }
      ],
      "name": "allowance",
      "outputs": [
        {
          "internalType": "uint256",
          "name": "",
          "type": "uint256"
        }
      ],
      "payable": false,
      "stateMutability": "view",
      "type": "function"
    },
    {
      "constant": false,
      "inputs": [
        {
          "internalType": "address",
          "name": "spender",
          "type": "address"
        },
        {
          "internalType": "uint256",
          "name": "amount",
          "type": "uint256"
        }
      ],
      "name": "approve",
      "outputs": [
        {
          "internalType": "bool",
          "name": "",
          "type": "bool"
        }
      ],
      "payable": false,
      "stateMutability": "nonpayable",
      "type": "function"
    },
    {
      "constant": true,
      "inputs": [
        {
          "internalType": "address",
          "name": "owner",
          "type": "address"
        }
      ],
      "name": "balanceOf",
      "outputs": [
        {
          "internalType": "uint256",
          "name": "",
          "type": "uint256"
        }
      ],
      "payable": false,
      "stateMutability": "view",
      "type": "function"
    },
    {
      "constant": false,
      "inputs": [
        {
          "internalType": "address",
          "name": "owner",
          "type": "address"
        }
      ],
      "name": "balanceOfUnderlying",
      "outputs": [
        {
          "internalType": "uint256",
          "name": "",
          "type": "uint256"
        }
      ],
      "payable": false,
      "stateMutability": "nonpayable",
      "type": "function"
    },
    {
      "constant": false,
      "inputs": [
        {
          "internalType": "uint256",
          "name": "borrowAmount",
          "type": "uint256"
        }
      ],
      "name": "borrow",
      "outputs": [
        {
          "internalType": "uint256",
          "name": "",
          "type": "uint256"
        }
      ],
      "payable": false,
      "stateMutability": "nonpayable",
      "type": "function"
    },
    {
      "constant": false,
      "inputs": [
        {
          "internalType": "address",
          "name": "account",
          "type": "address"
        }
      ],
      "name": "borrowBalanceCurrent",
      "outputs": [
        {
          "internalType": "uint256",
          "name": "",
          "type": "uint256"
        }
      ],
      "payable": false,
      "stateMutability": "nonpayable",
      "type": "function"
    },
    {
      "constant": true,
      "inputs": [
        {
          "internalType": "address",
          "name": "account",
          "type": "address"
        }
      ],
      "name": "borrowBalanceStored",
      "outputs": [
        {
          "internalType": "uint256",
          "name": "",
          "type": "uint256"
        }
      ],
      "payable": false,
      "stateMutability": "view",
      "type": "function"
    },
    {
      "constant": true,
      "inputs": [],
      "name": "borrowIndex",
      "outputs": [
        {
          "internalType": "uint256",
          "name": "",
          "type": "uint256"
        }
      ],
      "payable": false,
      "stateMutability": "view",
      "type": "function"
    },
    {
      "constant": true,
      "inputs": [],
      "name": "borrowRatePerBlock",
      "outputs": [
        {
          "internalType": "uint256",
          "name": "",
          "type": "uint256"
        }
      ],
      "payable": false,
      "stateMutability": "view",
      "type": "function"
    },
    {
      "constant": true,
      "inputs": [],
      "name": "comptroller",
      "outputs": [
        {
          "internalType": "contract ComptrollerInterface",
          "name": "",
          "type": "address"
        }
      ],
      "payable": false,
      "stateMutability": "view",
      "type": "function"
    },
    {
      "constant": true,
      "inputs": [],
      "name": "daiJoinAddress",
      "outputs": [
        {
          "internalType": "address",
          "name": "",
          "type": "address"
        }
      ],
      "payable": false,
      "stateMutability": "view",
      "type": "function"
    },
    {
      "constant": true,
      "inputs": [],
      "name": "decimals",
      "outputs": [
        {
          "internalType": "uint8",
          "name": "",
          "type": "uint8"
        }
      ],
      "payable": false,
      "stateMutability": "view",
      "type": "function"
    },
    {
      "constant": false,
      "inputs": [],
      "name": "exchangeRateCurrent",
      "outputs": [
        {
          "internalType": "uint256",
          "name": "",
          "type": "uint256"
        }
      ],
      "payable": false,
      "stateMutability": "nonpayable",
      "type": "function"
    },
    {
      "constant": true,
      "inputs": [],
      "name": "exchangeRateStored",
      "outputs": [
        {
          "internalType": "uint256",
          "name": "",
          "type": "uint256"
        }
      ],
      "payable": false,
      "stateMutability": "view",
      "type": "function"
    },
    {
      "constant": true,
      "inputs": [
        {
          "internalType": "address",
          "name": "token",
          "type": "address"
        },
        {
          "internalType": "uint256",
          "name": "amount",
          "type": "uint256"
        }
      ],
      "name": "flashFee",
      "outputs": [
        {
          "internalType": "uint256",
          "name": "",
          "type": "uint256"
        }
      ],
      "payable": false,
      "stateMutability": "view",
      "type": "function"
    },
    {
      "constant": false,
      "inputs": [
        {
          "internalType": "contract IERC3156FlashBorrower",
          "name": "receiver",
          "type": "address"
        },
        {
          "internalType": "address",
          "name": "token",
          "type": "address"
        },
        {
          "internalType": "uint256",
          "name": "amount",
          "type": "uint256"
        },
        {
          "internalType": "bytes",
          "name": "data",
          "type": "bytes"
        }
      ],
      "name": "flashLoan",
      "outputs": [
        {
          "internalType": "bool",
          "name": "",
          "type": "bool"
        }
      ],
      "payable": false,
      "stateMutability": "nonpayable",
      "type": "function"
    },
    {
      "constant": true,
      "inputs": [
        {
          "internalType": "address",
          "name": "account",
          "type": "address"
        }
      ],
      "name": "getAccountSnapshot",
      "outputs": [
        {
          "internalType": "uint256",
          "name": "",
          "type": "uint256"
        },
        {
          "internalType": "uint256",
          "name": "",
          "type": "uint256"
        },
        {
          "internalType": "uint256",
          "name": "",
          "type": "uint256"
        },
        {
          "internalType": "uint256",
          "name": "",
          "type": "uint256"
        }
      ],
      "payable": false,
      "stateMutability": "view",
      "type": "function"
    },
    {
      "constant": true,
      "inputs": [],
      "name": "getCash",
      "outputs": [
        {
          "internalType": "uint256",
          "name": "",
          "type": "uint256"
        }
      ],
      "payable": false,
      "stateMutability": "view",
      "type": "function"
    },
    {
      "constant": true,
      "inputs": [],
      "name": "implementation",
      "outputs": [
        {
          "internalType": "address",
          "name": "",
          "type": "address"
        }
      ],
      "payable": false,
      "stateMutability": "view",
      "type": "function"
    },
    {
      "constant": false,
      "inputs": [
        {
          "internalType": "address",
          "name": "underlying_",
          "type": "address"
        },
        {
          "internalType": "contract ComptrollerInterface",
          "name": "comptroller_",
          "type": "address"
        },
        {
          "internalType": "contract InterestRateModel",
          "name": "interestRateModel_",
          "type": "address"
        },
        {
          "internalType": "uint256",
          "name": "initialExchangeRateMantissa_",
          "type": "uint256"
        },
        {
          "internalType": "string",
          "name": "name_",
          "type": "string"
        },
        {
          "internalType": "string",
          "name": "symbol_",
          "type": "string"
        },
        {
          "internalType": "uint8",
          "name": "decimals_",
          "type": "uint8"
        }
      ],
      "name": "initialize",
      "outputs": [],
      "payable": false,
      "stateMutability": "nonpayable",
      "type": "function"
    },
    {
      "constant": false,
      "inputs": [
        {
          "internalType": "contract ComptrollerInterface",
          "name": "comptroller_",
          "type": "address"
        },
        {
          "internalType": "contract InterestRateModel",
          "name": "interestRateModel_",
          "type": "address"
        },
        {
          "internalType": "uint256",
          "name": "initialExchangeRateMantissa_",
          "type": "uint256"
        },
        {
          "internalType": "string",
          "name": "name_",
          "type": "string"
        },
        {
          "internalType": "string",
          "name": "symbol_",
          "type": "string"
        },
        {
          "internalType": "uint8",
          "name": "decimals_",
          "type": "uint8"
        }
      ],
      "name": "initialize",
      "outputs": [],
      "payable": false,
      "stateMutability": "nonpayable",
      "type": "function"
    },
    {
      "constant": true,
      "inputs": [],
      "name": "interestRateModel",
      "outputs": [
        {
          "internalType": "contract InterestRateModel",
          "name": "",
          "type": "address"
        }
      ],
      "payable": false,
      "stateMutability": "view",
      "type": "function"
    },
    {
      "constant": true,
      "inputs": [],
      "name": "isCToken",
      "outputs": [
        {
          "internalType": "bool",
          "name": "",
          "type": "bool"
        }
      ],
      "payable": false,
      "stateMutability": "view",
      "type": "function"
    },
    {
      "constant": true,
      "inputs": [],
      "name": "isNativeToken",
      "outputs": [
        {
          "internalType": "bool",
          "name": "",
          "type": "bool"
        }
      ],
      "payable": false,
      "stateMutability": "pure",
      "type": "function"
    },
    {
      "constant": false,
      "inputs": [
        {
          "internalType": "address",
          "name": "borrower",
          "type": "address"
        },
        {
          "internalType": "uint256",
          "name": "repayAmount",
          "type": "uint256"
        },
        {
          "internalType": "contract CTokenInterface",
          "name": "cTokenCollateral",
          "type": "address"
        }
      ],
      "name": "liquidateBorrow",
      "outputs": [
        {
          "internalType": "uint256",
          "name": "",
          "type": "uint256"
        }
      ],
      "payable": false,
      "stateMutability": "nonpayable",
      "type": "function"
    },
    {
      "constant": true,
      "inputs": [
        {
          "internalType": "address",
          "name": "token",
          "type": "address"
        }
      ],
      "name": "maxFlashLoan",
      "outputs": [
        {
          "internalType": "uint256",
          "name": "",
          "type": "uint256"
        }
      ],
      "payable": false,
      "stateMutability": "view",
      "type": "function"
    },
    {
      "constant": false,
      "inputs": [
        {
          "internalType": "uint256",
          "name": "mintAmount",
          "type": "uint256"
        }
      ],
      "name": "mint",
      "outputs": [
        {
          "internalType": "uint256",
          "name": "",
          "type": "uint256"
        }
      ],
      "payable": false,
      "stateMutability": "nonpayable",
      "type": "function"
    },
    {
      "constant": true,
      "inputs": [],
      "name": "name",
      "outputs": [
        {
          "internalType": "string",
          "name": "",
          "type": "string"
        }
      ],
      "payable": false,
      "stateMutability": "view",
      "type": "function"
    },
    {
      "constant": true,
      "inputs": [],
      "name": "pendingAdmin",
      "outputs": [
        {
          "internalType": "address payable",
          "name": "",
          "type": "address"
        }
      ],
      "payable": false,
      "stateMutability": "view",
      "type": "function"
    },
    {
      "constant": true,
      "inputs": [],
      "name": "potAddress",
      "outputs": [
        {
          "internalType": "address",
          "name": "",
          "type": "address"
        }
      ],
      "payable": false,
      "stateMutability": "view",
      "type": "function"
    },
    {
      "constant": false,
      "inputs": [
        {
          "internalType": "uint256",
          "name": "redeemTokens",
          "type": "uint256"
        }
      ],
      "name": "redeem",
      "outputs": [
        {
          "internalType": "uint256",
          "name": "",
          "type": "uint256"
        }
      ],
      "payable": false,
      "stateMutability": "nonpayable",
      "type": "function"
    },
    {
      "constant": false,
      "inputs": [
        {
          "internalType": "uint256",
          "name": "redeemAmount",
          "type": "uint256"
        }
      ],
      "name": "redeemUnderlying",
      "outputs": [
        {
          "internalType": "uint256",
          "name": "",
          "type": "uint256"
        }
      ],
      "payable": false,
      "stateMutability": "nonpayable",
      "type": "function"
    },
    {
      "constant": false,
      "inputs": [
        {
          "internalType": "uint256",
          "name": "repayAmount",
          "type": "uint256"
        }
      ],
      "name": "repayBorrow",
      "outputs": [
        {
          "internalType": "uint256",
          "name": "",
          "type": "uint256"
        }
      ],
      "payable": false,
      "stateMutability": "nonpayable",
      "type": "function"
    },
    {
      "constant": false,
      "inputs": [
        {
          "internalType": "address",
          "name": "borrower",
          "type": "address"
        },
        {
          "internalType": "uint256",
          "name": "repayAmount",
          "type": "uint256"
        }
      ],
      "name": "repayBorrowBehalf",
      "outputs": [
        {
          "internalType": "uint256",
          "name": "",
          "type": "uint256"
        }
      ],
      "payable": false,
      "stateMutability": "nonpayable",
      "type": "function"
    },
    {
      "constant": true,
      "inputs": [],
      "name": "reserveFactorMantissa",
      "outputs": [
        {
          "internalType": "uint256",
          "name": "",
          "type": "uint256"
        }
      ],
      "payable": false,
      "stateMutability": "view",
      "type": "function"
    },
    {
      "constant": false,
      "inputs": [
        {
          "internalType": "address",
          "name": "liquidator",
          "type": "address"
        },
        {
          "internalType": "address",
          "name": "borrower",
          "type": "address"
        },
        {
          "internalType": "uint256",
          "name": "seizeTokens",
          "type": "uint256"
        }
      ],
      "name": "seize",
      "outputs": [
        {
          "internalType": "uint256",
          "name": "",
          "type": "uint256"
        }
      ],
      "payable": false,
      "stateMutability": "nonpayable",
      "type": "function"
    },
    {
      "constant": true,
      "inputs": [],
      "name": "supplyRatePerBlock",
      "outputs": [
        {
          "internalType": "uint256",
          "name": "",
          "type": "uint256"
        }
      ],
      "payable": false,
      "stateMutability": "view",
      "type": "function"
    },
    {
      "constant": true,
      "inputs": [],
      "name": "symbol",
      "outputs": [
        {
          "internalType": "string",
          "name": "",
          "type": "string"
        }
      ],
      "payable": false,
      "stateMutability": "view",
      "type": "function"
    },
    {
      "constant": true,
      "inputs": [],
      "name": "totalBorrows",
      "outputs": [
        {
          "internalType": "uint256",
          "name": "",
          "type": "uint256"
        }
      ],
      "payable": false,
      "stateMutability": "view",
      "type": "function"
    },
    {
      "constant": false,
      "inputs": [],
      "name": "totalBorrowsCurrent",
      "outputs": [
        {
          "internalType": "uint256",
          "name": "",
          "type": "uint256"
        }
      ],
      "payable": false,
      "stateMutability": "nonpayable",
      "type": "function"
    },
    {
      "constant": true,
      "inputs": [],
      "name": "totalReserves",
      "outputs": [
        {
          "internalType": "uint256",
          "name": "",
          "type": "uint256"
        }
      ],
      "payable": false,
      "stateMutability": "view",
      "type": "function"
    },
    {
      "constant": true,
      "inputs": [],
      "name": "totalSupply",
      "outputs": [
        {
          "internalType": "uint256",
          "name": "",
          "type": "uint256"
        }
      ],
      "payable": false,
      "stateMutability": "view",
      "type": "function"
    },
    {
      "constant": false,
      "inputs": [
        {
          "internalType": "address",
          "name": "dst",
          "type": "address"
        },
        {
          "internalType": "uint256",
          "name": "amount",
          "type": "uint256"
        }
      ],
      "name": "transfer",
      "outputs": [
        {
          "internalType": "bool",
          "name": "",
          "type": "bool"
        }
      ],
      "payable": false,
      "stateMutability": "nonpayable",
      "type": "function"
    },
    {
      "constant": false,
      "inputs": [
        {
          "internalType": "address",
          "name": "src",
          "type": "address"
        },
        {
          "internalType": "address",
          "name": "dst",
          "type": "address"
        },
        {
          "internalType": "uint256",
          "name": "amount",
          "type": "uint256"
        }
      ],
      "name": "transferFrom",
      "outputs": [
        {
          "internalType": "bool",
          "name": "",
          "type": "bool"
        }
      ],
      "payable": false,
      "stateMutability": "nonpayable",
      "type": "function"
    },
    {
      "constant": true,
      "inputs": [],
      "name": "underlying",
      "outputs": [
        {
          "internalType": "address",
          "name": "",
          "type": "address"
        }
      ],
      "payable": false,
      "stateMutability": "view",
      "type": "function"
    },
    {
      "constant": true,
      "inputs": [],
      "name": "vatAddress",
      "outputs": [
        {
          "internalType": "address",
          "name": "",
          "type": "address"
        }
      ],
      "payable": false,
      "stateMutability": "view",
      "type": "function"
    },
    {
      "constant": false,
      "inputs": [
        {
          "internalType": "bytes",
          "name": "data",
          "type": "bytes"
        }
      ],
      "name": "_becomeImplementation",
      "outputs": [],
      "payable": false,
      "stateMutability": "nonpayable",
      "type": "function"
    },
    {
      "constant": false,
      "inputs": [],
      "name": "_resignImplementation",
      "outputs": [],
      "payable": false,
      "stateMutability": "nonpayable",
      "type": "function"
    },
    {
      "constant": false,
      "inputs": [],
      "name": "accrueInterest",
      "outputs": [
        {
          "internalType": "uint256",
          "name": "",
          "type": "uint256"
        }
      ],
      "payable": false,
      "stateMutability": "nonpayable",
      "type": "function"
    }
  ],
  "bytecode": "0x608060405261643f806100136000396000f3fe608060405234801561001057600080fd5b50600436106102ae5760003560e01c8063852a12e31161016e578063852a12e3146108255780638a8df2e6146108425780638d925ccd1461084a5780638f840ddd1461085257806395d89b411461085a57806395dd91931461086257806399d8c1b4146108885780639af4ee7e146109d6578063a0712d68146109de578063a6afed95146109fb578063a9059cbb14610a03578063aa5af0fd14610a2f578063ae9d70b014610a37578063b2a02ff114610a3f578063b71d1a0c14610a75578063bd6d894d14610a9b578063c37f68e214610aa3578063c5ebeaec14610aef578063d9d98ce414610b0c578063db006a7514610b38578063dd62ed3e14610b55578063e9c714f214610b83578063f2b3abbd14610b8b578063f3fdb15a14610bb1578063f5e3c46214610bb9578063f851a44014610bef578063f8f9da2814610bf7578063fca7820b14610bff578063fe9c44ae14610c1c576102ae565b806306fdde03146102b3578063095ea7b3146103305780630e75270214610370578063153ab5051461039f578063173b9904146103a957806317bfdfbc146103b157806318160ddd146103d7578063182df0f5146103df5780631a31d465146103e757806323b872dd1461053d5780632608f81814610573578063267822471461059f578063313ce567146105c35780633af9e669146105e15780633b1d21a2146106075780633e9410101461060f5780634576b5db1461062c57806347bd37181461065257806356e677281461065a5780635c60da1b146106fe5780635cffe9de146107065780635fe3b56714610794578063601a0bf11461079c578063613255ab146107b957806366ced602146107df5780636c540baf146107e75780636f307dc3146107ef57806370a08231146107f757806373acee981461081d575b600080fd5b6102bb610c24565b6040805160208082528351818301528351919283929083019185019080838360005b838110156102f55781810151838201526020016102dd565b50505050905090810190601f1680156103225780820380516001836020036101000a031916815260200191505b509250505060405180910390f35b61035c6004803603604081101561034657600080fd5b506001600160a01b038135169060200135610cb1565b604080519115158252519081900360200190f35b61038d6004803603602081101561038657600080fd5b5035610d1e565b60408051918252519081900360200190f35b6103a7610d34565b005b61038d610fd1565b61038d600480360360208110156103c757600080fd5b50356001600160a01b0316610fd7565b61038d611097565b61038d61109d565b6103a7600480360360e08110156103fd57600080fd5b6001600160a01b03823581169260208101358216926040820135909216916060820135919081019060a081016080820135600160201b81111561043f57600080fd5b82018360208201111561045157600080fd5b803590602001918460018302840111600160201b8311171561047257600080fd5b91908080601f0160208091040260200160405190810160405280939291908181526020018383808284376000920191909152509295949360208101935035915050600160201b8111156104c457600080fd5b8201836020820111156104d657600080fd5b803590602001918460018302840111600160201b831117156104f757600080fd5b91908080601f0160208091040260200160405190810160405280939291908181526020018383808284376000920191909152509295505050903560ff1691506111009050565b61035c6004803603606081101561055357600080fd5b506001600160a01b03813581169160208101359091169060400135611194565b61038d6004803603604081101561058957600080fd5b506001600160a01b038135169060200135611206565b6105a761121c565b604080516001600160a01b039092168252519081900360200190f35b6105cb61122b565b6040805160ff9092168252519081900360200190f35b61038d600480360360208110156105f757600080fd5b50356001600160a01b0316611234565b61038d6112ea565b61038d6004803603602081101561062557600080fd5b50356112f9565b61038d6004803603602081101561064257600080fd5b50356001600160a01b0316611304565b61038d611458565b6103a76004803603602081101561067057600080fd5b810190602081018135600160201b81111561068a57600080fd5b82018360208201111561069c57600080fd5b803590602001918460018302840111600160201b831117156106bd57600080fd5b91908080601f01602080910402602001604051908101604052809392919081815260200183838082843760009201919091525092955061145e945050505050565b6105a76114e1565b61035c6004803603608081101561071c57600080fd5b6001600160a01b03823581169260208101359091169160408201359190810190608081016060820135600160201b81111561075657600080fd5b82018360208201111561076857600080fd5b803590602001918460018302840111600160201b8311171561078957600080fd5b5090925090506114f0565b6105a761178c565b61038d600480360360208110156107b257600080fd5b503561179b565b61038d600480360360208110156107cf57600080fd5b50356001600160a01b0316611836565b6105a76118b3565b61038d6118c2565b6105a76118c8565b61038d6004803603602081101561080d57600080fd5b50356001600160a01b03166118d7565b61038d6118f2565b61038d6004803603602081101561083b57600080fd5b50356119a8565b6105a76119b3565b6105a76119c2565b61038d6119d1565b6102bb6119d7565b61038d6004803603602081101561087857600080fd5b50356001600160a01b0316611a2f565b6103a7600480360360c081101561089e57600080fd5b6001600160a01b03823581169260208101359091169160408201359190810190608081016060820135600160201b8111156108d857600080fd5b8201836020820111156108ea57600080fd5b803590602001918460018302840111600160201b8311171561090b57600080fd5b91908080601f0160208091040260200160405190810160405280939291908181526020018383808284376000920191909152509295949360208101935035915050600160201b81111561095d57600080fd5b82018360208201111561096f57600080fd5b803590602001918460018302840111600160201b8311171561099057600080fd5b91908080601f0160208091040260200160405190810160405280939291908181526020018383808284376000920191909152509295505050903560ff169150611a8c9050565b61035c611c70565b61038d600480360360208110156109f457600080fd5b5035611c75565b61038d611c81565b61035c60048036036040811015610a1957600080fd5b506001600160a01b038135169060200135611cfc565b61038d611d6d565b61038d611d73565b61038d60048036036060811015610a5557600080fd5b506001600160a01b03813581169160208101359091169060400135611e12565b61038d60048036036020811015610a8b57600080fd5b50356001600160a01b0316611e83565b61038d611f0f565b610ac960048036036020811015610ab957600080fd5b50356001600160a01b0316611fcb565b604080519485526020850193909352838301919091526060830152519081900360800190f35b61038d60048036036020811015610b0557600080fd5b5035612060565b61038d60048036036040811015610b2257600080fd5b506001600160a01b03813516906020013561206b565b61038d60048036036020811015610b4e57600080fd5b5035612077565b61038d60048036036040811015610b6b57600080fd5b506001600160a01b0381358116916020013516612082565b61038d6120ad565b61038d60048036036020811015610ba157600080fd5b50356001600160a01b03166121b0565b6105a76121ea565b61038d60048036036060811015610bcf57600080fd5b506001600160a01b038135811691602081013591604090910135166121f9565b6105a7612211565b61038d612225565b61038d60048036036020811015610c1557600080fd5b5035612289565b61035c612307565b60018054604080516020600284861615610100026000190190941693909304601f81018490048402820184019092528181529291830182828015610ca95780601f10610c7e57610100808354040283529160200191610ca9565b820191906000526020600020905b815481529060010190602001808311610c8c57829003601f168201915b505050505081565b336000818152600f602090815260408083206001600160a01b03871680855290835281842086905581518681529151939493909284927f8c5be1e5ebec7d5bd14f71427d1e84f3dd0314c0f7b2291e5b200ac8c7c3b925929081900390910190a360019150505b92915050565b600080610d2a8361230c565b509150505b919050565b60035461010090046001600160a01b03163314610d825760405162461bcd60e51b815260040180806020018281038252602d8152602001806161c3602d913960400191505060405180910390fd5b60135460145460155460408051634fb3c66560e11b815290516001600160a01b039485169493841693909216918391639f678cca9160048083019260209291908290030181600087803b158015610dd857600080fd5b505af1158015610dec573d6000803e3d6000fd5b505050506040513d6020811015610e0257600080fd5b5050604080516305f5d64360e11b815230600482015290516000916001600160a01b03851691630bebac8691602480820192602092909190829003018186803b158015610e4e57600080fd5b505afa158015610e62573d6000803e3d6000fd5b505050506040513d6020811015610e7857600080fd5b505160408051637f8661a160e01b81526004810183905290519192506001600160a01b03851691637f8661a19160248082019260009290919082900301818387803b158015610ec657600080fd5b505af1158015610eda573d6000803e3d6000fd5b505060408051633612d9a360e11b81523060048201529051600093506001600160a01b0386169250636c25b34691602480820192602092909190829003018186803b158015610f2857600080fd5b505afa158015610f3c573d6000803e3d6000fd5b505050506040513d6020811015610f5257600080fd5b50516040805163ef693bed60e01b8152306004820152676765c793fa10079d601b1b8304602482015290519192506001600160a01b0387169163ef693bed9160448082019260009290919082900301818387803b158015610fb257600080fd5b505af1158015610fc6573d6000803e3d6000fd5b505050505050505050565b60085481565b6000805460ff1661101c576040805162461bcd60e51b815260206004820152600a6024820152691c994b595b9d195c995960b21b604482015290519081900360640190fd5b6000805460ff1916815561102e611c81565b14611079576040805162461bcd60e51b81526020600482015260166024820152751858d8dc9d59481a5b9d195c995cdd0819985a5b195960521b604482015290519081900360640190fd5b61108282611a2f565b90505b6000805460ff19166001179055919050565b600d5481565b60008060006110aa6123b5565b909250905060008260038111156110bd57fe5b146110f95760405162461bcd60e51b81526004018080602001828103825260358152602001806163566035913960400191505060405180910390fd5b9150505b90565b61110e868686868686611a8c565b601180546001600160a01b0319166001600160a01b038981169190911791829055604080516318160ddd60e01b8152905192909116916318160ddd91600480820192602092909190829003018186803b15801561116a57600080fd5b505afa15801561117e573d6000803e3d6000fd5b505050506040513d6020811015610fc657600080fd5b6000805460ff166111d9576040805162461bcd60e51b815260206004820152600a6024820152691c994b595b9d195c995960b21b604482015290519081900360640190fd5b6000805460ff191681556111ef33868686612464565b1490506000805460ff191660011790559392505050565b6000806112138484612772565b50949350505050565b6004546001600160a01b031681565b60035460ff1681565b600061123e615f79565b6040518060200160405280611251611f0f565b90526001600160a01b0384166000908152600e602052604081205491925090819061127d90849061281d565b9092509050600082600381111561129057fe5b146112e2576040805162461bcd60e51b815260206004820152601f60248201527f62616c616e636520636f756c64206e6f742062652063616c63756c6174656400604482015290519081900360640190fd5b949350505050565b60006112f4612871565b905090565b6000610d1882612982565b60035460009061010090046001600160a01b031633146113315761132a6001603f612a16565b9050610d2f565b60055460408051623f1ee960e11b815290516001600160a01b0392831692851691627e3dd2916004808301926020929190829003018186803b15801561137657600080fd5b505afa15801561138a573d6000803e3d6000fd5b505050506040513d60208110156113a057600080fd5b50516113f2576040805162461bcd60e51b815260206004820152601c60248201527b6d61726b6572206d6574686f642072657475726e65642066616c736560201b604482015290519081900360640190fd5b600580546001600160a01b0319166001600160a01b03858116918217909255604080519284168352602083019190915280517f7ac369dbd14fa5ea3f473ed67cc9d598964a77501540ba6751eb0b3decf5870d9281900390910190a160005b9392505050565b600b5481565b60035461010090046001600160a01b031633146114ac5760405162461bcd60e51b81526004018080602001828103825260308152602001806161196030913960400191505060405180910390fd5b6000808280602001905160408110156114c457600080fd5b50805160209091015190925090506114dc8282612a7c565b505050565b6012546001600160a01b031681565b6000806114fb611c81565b14611546576040805162461bcd60e51b81526020600482015260166024820152751058d8dc9d59481a5b9d195c995cdd0819985a5b195960521b604482015290519081900360640190fd5b6000611550612871565b9050848110156115a0576040805162461bcd60e51b8152602060048201526016602482015275496e73756666696369656e74206c697175696469747960501b604482015290519081900360640190fd5b60006115ac8787612d97565b90506115b88887612e92565b6115c4600b5487612ff6565b600b556040516323e30c8b60e01b815233600482018181526001600160a01b038a81166024850152604484018a90526064840185905260a06084850190815260a48501899052908c16936323e30c8b93928c928c9288928d928d9260c401848480828437600081840152601f19601f820116905080830192505050975050505050505050602060405180830381600087803b15801561166257600080fd5b505af1158015611676573d6000803e3d6000fd5b505050506040513d602081101561168c57600080fd5b5060009050611699612871565b90506116a58383612ff6565b8110156116f0576040805162461bcd60e51b8152602060048201526014602482015273496e636f6e73697374656e742062616c616e636560601b604482015290519081900360640190fd5b60008061170d60405180602001604052806008548152508561281d565b9092509050600082600381111561172057fe5b1461175c5760405162461bcd60e51b81526004018080602001828103825260288152602001806161796028913960400191505060405180910390fd5b611768600c5482612ff6565b600c55600b54611778908a61302c565b600b555060019a9950505050505050505050565b6005546001600160a01b031681565b6000805460ff166117e0576040805162461bcd60e51b815260206004820152600a6024820152691c994b595b9d195c995960b21b604482015290519081900360640190fd5b6000805460ff191681556117f2611c81565b905080156118185761181081601081111561180957fe5b6030612a16565b915050611085565b61182183613066565b9150506000805460ff19166001179055919050565b6005546040805163e0fbf09d60e01b815230600482015290516000926001600160a01b03169163e0fbf09d916024808301926020929190829003018186803b15801561188157600080fd5b505afa158015611895573d6000803e3d6000fd5b505050506040513d60208110156118ab57600080fd5b505192915050565b6014546001600160a01b031681565b60095481565b6011546001600160a01b031681565b6001600160a01b03166000908152600e602052604090205490565b6000805460ff16611937576040805162461bcd60e51b815260206004820152600a6024820152691c994b595b9d195c995960b21b604482015290519081900360640190fd5b6000805460ff19168155611949611c81565b14611994576040805162461bcd60e51b81526020600482015260166024820152751858d8dc9d59481a5b9d195c995cdd0819985a5b195960521b604482015290519081900360640190fd5b50600b546000805460ff1916600117905590565b6000610d1882613199565b6013546001600160a01b031681565b6015546001600160a01b031681565b600c5481565b6002805460408051602060018416156101000260001901909316849004601f81018490048402820184019092528181529291830182828015610ca95780601f10610c7e57610100808354040283529160200191610ca9565b6000806000611a3d8461321a565b90925090506000826003811115611a5057fe5b146114515760405162461bcd60e51b815260040180806020018281038252603781526020018061621b6037913960400191505060405180910390fd5b60035461010090046001600160a01b03163314611ada5760405162461bcd60e51b81526004018080602001828103825260248152602001806160d26024913960400191505060405180910390fd5b600954158015611aea5750600a54155b611b255760405162461bcd60e51b81526004018080602001828103825260238152602001806160f66023913960400191505060405180910390fd5b600784905583611b665760405162461bcd60e51b81526004018080602001828103825260308152602001806161496030913960400191505060405180910390fd5b6000611b7187611304565b90508015611bc3576040805162461bcd60e51b815260206004820152601a6024820152791cd95d1d1a5b99c818dbdb5c1d1c9bdb1b195c8819985a5b195960321b604482015290519081900360640190fd5b611bcb6132ce565b600955670de0b6b3a7640000600a55611be3866132d2565b90508015611c225760405162461bcd60e51b81526004018080602001828103825260228152602001806161a16022913960400191505060405180910390fd5b8351611c35906001906020870190615f8c565b508251611c49906002906020860190615f8c565b50506003805460ff90921660ff199283161790556000805490911660011790555050505050565b600090565b600080610d2a83613446565b60145460408051634fb3c66560e11b815290516000926001600160a01b031691639f678cca91600480830192602092919082900301818787803b158015611cc757600080fd5b505af1158015611cdb573d6000803e3d6000fd5b505050506040513d6020811015611cf157600080fd5b506112f490506134c7565b6000805460ff16611d41576040805162461bcd60e51b815260206004820152600a6024820152691c994b595b9d195c995960b21b604482015290519081900360640190fd5b6000805460ff19168155611d5733338686612464565b1490506000805460ff1916600117905592915050565b600a5481565b6006546000906001600160a01b031663b8168816611d8f612871565b600b54600c546008546040518563ffffffff1660e01b81526004018085815260200184815260200183815260200182815260200194505050505060206040518083038186803b158015611de157600080fd5b505afa158015611df5573d6000803e3d6000fd5b505050506040513d6020811015611e0b57600080fd5b5051905090565b6000805460ff16611e57576040805162461bcd60e51b815260206004820152600a6024820152691c994b595b9d195c995960b21b604482015290519081900360640190fd5b6000805460ff19169055611e6d3385858561381e565b90506000805460ff191660011790559392505050565b60035460009061010090046001600160a01b03163314611ea95761132a60016045612a16565b600480546001600160a01b038481166001600160a01b0319831681179093556040805191909216808252602082019390935281517fca4f2f25d0898edd99413412fb94012f9e54ec8142f9b093e7720646a95b16a9929181900390910190a16000611451565b6000805460ff16611f54576040805162461bcd60e51b815260206004820152600a6024820152691c994b595b9d195c995960b21b604482015290519081900360640190fd5b6000805460ff19168155611f66611c81565b14611fb1576040805162461bcd60e51b81526020600482015260166024820152751858d8dc9d59481a5b9d195c995cdd0819985a5b195960521b604482015290519081900360640190fd5b611fb961109d565b90506000805460ff1916600117905590565b6001600160a01b0381166000908152600e6020526040812054819081908190818080611ff68961321a565b93509050600081600381111561200857fe5b146120265760095b9750600096508695508594506120599350505050565b61202e6123b5565b92509050600081600381111561204057fe5b1461204c576009612010565b5060009650919450925090505b9193509193565b6000610d1882613e29565b60006114518383612d97565b6000610d1882613ea8565b6001600160a01b039182166000908152600f6020908152604080832093909416825291909152205490565b6004546000906001600160a01b0316331415806120c8575033155b156120e0576120d960016000612a16565b90506110fd565b60038054600480546001600160a01b03818116610100818102610100600160a81b0319871617968790556001600160a01b031990931690935560408051948390048216808652929095041660208401528351909391927ff9ffabca9c8276e99321725bcb43fb076a6c66a54b7f21c4e8146d8519b417dc92908290030190a1600454604080516001600160a01b038085168252909216602083015280517fca4f2f25d0898edd99413412fb94012f9e54ec8142f9b093e7720646a95b16a99281900390910190a160009250505090565b6000806121bb611c81565b905080156121e1576121d98160108111156121d257fe5b6040612a16565b915050610d2f565b611451836132d2565b6006546001600160a01b031681565b600080612207858585613f22565b5095945050505050565b60035461010090046001600160a01b031681565b6006546000906001600160a01b03166315f24053612241612871565b600b54600c546040518463ffffffff1660e01b815260040180848152602001838152602001828152602001935050505060206040518083038186803b158015611de157600080fd5b6000805460ff166122ce576040805162461bcd60e51b815260206004820152600a6024820152691c994b595b9d195c995960b21b604482015290519081900360640190fd5b6000805460ff191681556122e0611c81565b905080156122fe576118108160108111156122f757fe5b6046612a16565b61182183614054565b600181565b60008054819060ff16612353576040805162461bcd60e51b815260206004820152600a6024820152691c994b595b9d195c995960b21b604482015290519081900360640190fd5b6000805460ff19168155612365611c81565b905080156123905761238381601081111561237c57fe5b6036612a16565b9250600091506123a19050565b61239b3333866140fc565b92509250505b6000805460ff191660011790559092909150565b600d546000908190806123d057505060075460009150612460565b60006123da612871565b905060006123e6615f79565b60006123f784600b54600c546144e2565b93509050600081600381111561240957fe5b1461241e579550600094506124609350505050565b612428838661452e565b92509050600081600381111561243a57fe5b1461244f579550600094506124609350505050565b505160009550935061246092505050565b9091565b600554604080516317b9b84b60e31b81523060048201526001600160a01b03868116602483015285811660448301526064820185905291516000938493169163bdcdc25891608480830192602092919082900301818787803b1580156124c957600080fd5b505af11580156124dd573d6000803e3d6000fd5b505050506040513d60208110156124f357600080fd5b5051905080156125125761250a6003604a836145de565b9150506112e2565b836001600160a01b0316856001600160a01b031614156125385761250a6002604b612a16565b60006001600160a01b038781169087161415612557575060001961257f565b506001600160a01b038086166000908152600f60209081526040808320938a16835292905220545b60008060008061258f8589614644565b909450925060008460038111156125a257fe5b146125c0576125b36009604b612a16565b96505050505050506112e2565b6001600160a01b038a166000908152600e60205260409020546125e39089614644565b909450915060008460038111156125f657fe5b14612607576125b36009604c612a16565b6001600160a01b0389166000908152600e602052604090205461262a9089614667565b9094509050600084600381111561263d57fe5b1461264e576125b36009604d612a16565b6001600160a01b03808b166000908152600e6020526040808220859055918b1681522081905560001985146126a6576001600160a01b03808b166000908152600f60209081526040808320938f168352929052208390555b886001600160a01b03168a6001600160a01b03166000805160206162ae8339815191528a6040518082815260200191505060405180910390a36005546040805163352b4a3f60e11b81523060048201526001600160a01b038d811660248301528c81166044830152606482018c905291519190921691636a56947e91608480830192600092919082900301818387803b15801561274257600080fd5b505af1158015612756573d6000803e3d6000fd5b5060009250612763915050565b9b9a5050505050505050505050565b60008054819060ff166127b9576040805162461bcd60e51b815260206004820152600a6024820152691c994b595b9d195c995960b21b604482015290519081900360640190fd5b6000805460ff191681556127cb611c81565b905080156127f6576127e98160108111156127e257fe5b6035612a16565b9250600091506128079050565b6128013386866140fc565b92509250505b6000805460ff1916600117905590939092509050565b600080600061282a615f79565b612834868661468d565b9092509050600082600381111561284757fe5b14612858575091506000905061286a565b6000612863826146f5565b9350935050505b9250929050565b601454604080516305f5d64360e11b815230600482015290516000926001600160a01b03169183918391630bebac86916024808301926020929190829003018186803b1580156128c057600080fd5b505afa1580156128d4573d6000803e3d6000fd5b505050506040513d60208110156128ea57600080fd5b50516040805163324abb3160e21b81529051919250676765c793fa10079d601b1b91612973916001600160a01b0386169163c92aecc491600480820192602092909190829003018186803b15801561294157600080fd5b505afa158015612955573d6000803e3d6000fd5b505050506040513d602081101561296b57600080fd5b505183614704565b8161297a57fe5b049250505090565b6000805460ff166129c7576040805162461bcd60e51b815260206004820152600a6024820152691c994b595b9d195c995960b21b604482015290519081900360640190fd5b6000805460ff191681556129d9611c81565b905080156129f7576118108160108111156129f057fe5b604e612a16565b612a008361475f565b509150506000805460ff19166001179055919050565b60007f45b96fe442630264581b197e84bbada861235052c5a1aadfff9ea4e40a969aa0836010811115612a4557fe5b836050811115612a5157fe5b604080519283526020830191909152600082820152519081900360600190a182601081111561145157fe5b600082905060008290506000826001600160a01b031663f4b9fa756040518163ffffffff1660e01b8152600401602060405180830381600087803b158015612ac357600080fd5b505af1158015612ad7573d6000803e3d6000fd5b505050506040513d6020811015612aed57600080fd5b5051604080516336569e7760e01b815290519192506000916001600160a01b038616916336569e7791600480830192602092919082900301818787803b158015612b3657600080fd5b505af1158015612b4a573d6000803e3d6000fd5b505050506040513d6020811015612b6057600080fd5b50516011549091506001600160a01b03838116911614612bb15760405162461bcd60e51b81526004018080602001828103825260228152602001806162526022913960400191505060405180910390fd5b601380546001600160a01b038089166001600160a01b0319928316179283905560148054898316908416179055601580548583169316929092179091556040805163095ea7b360e01b815292821660048401526000196024840152519084169163095ea7b391604480830192600092919082900301818387803b158015612c3757600080fd5b505af1158015612c4b573d6000803e3d6000fd5b5050601454604080516328ec8bf160e21b81526001600160a01b0392831660048201529051918516935063a3b22fc4925060248082019260009290919082900301818387803b158015612c9d57600080fd5b505af1158015612cb1573d6000803e3d6000fd5b5050601354604080516328ec8bf160e21b81526001600160a01b0392831660048201529051918516935063a3b22fc4925060248082019260009290919082900301818387803b158015612d0357600080fd5b505af1158015612d17573d6000803e3d6000fd5b50505050826001600160a01b0316639f678cca6040518163ffffffff1660e01b8152600401602060405180830381600087803b158015612d5657600080fd5b505af1158015612d6a573d6000803e3d6000fd5b505050506040513d6020811015612d8057600080fd5b50612d8e9050306000614847565b50505050505050565b600554604080516306995d7d60e41b815290516000926001600160a01b031691636995d7d0916004808301926020929190829003018186803b158015612ddc57600080fd5b505afa158015612df0573d6000803e3d6000fd5b505050506040513d6020811015612e0657600080fd5b50516040805163638d09e360e11b81523360048201526001600160a01b038681166024830152604482018690529151919092169163c71a13c6916064808301926020929190829003018186803b158015612e5f57600080fd5b505afa158015612e73573d6000803e3d6000fd5b505050506040513d6020811015612e8957600080fd5b50519392505050565b6013546014546040805163324abb3160e21b815290516001600160a01b039384169390921691600091612f3691849163c92aecc4916004808301926020929190829003018186803b158015612ee657600080fd5b505afa158015612efa573d6000803e3d6000fd5b505050506040513d6020811015612f1057600080fd5b5051612f2786676765c793fa10079d601b1b614704565b81612f2e57fe5b046001614b6c565b9050816001600160a01b0316637f8661a1826040518263ffffffff1660e01b815260040180828152602001915050600060405180830381600087803b158015612f7e57600080fd5b505af1158015612f92573d6000803e3d6000fd5b50505050826001600160a01b031663ef693bed86866040518363ffffffff1660e01b815260040180836001600160a01b03166001600160a01b0316815260200182815260200192505050600060405180830381600087803b158015610fb257600080fd5b60006114518383604051806040016040528060118152602001706164646974696f6e206f766572666c6f7760781b815250614bb3565b60006114518383604051806040016040528060158152602001747375627472616374696f6e20756e646572666c6f7760581b815250614c45565b600354600090819061010090046001600160a01b0316331461308e576121d960016031612a16565b6130966132ce565b600954146130aa576121d9600a6033612a16565b826130b3612871565b10156130c5576121d9600e6032612a16565b600c548311156130db576121d960026034612a16565b50600c54828103908111156131215760405162461bcd60e51b81526004018080602001828103825260248152602001806163e76024913960400191505060405180910390fd5b600c8190556003546131419061010090046001600160a01b031684612e92565b600354604080516101009092046001600160a01b0316825260208201859052818101839052517f3bad0c59cf2f06e7314077049f48a93578cd16f5ef92329f1dab1420a99c177e916060908290030190a16000611451565b6000805460ff166131de576040805162461bcd60e51b815260206004820152600a6024820152691c994b595b9d195c995960b21b604482015290519081900360640190fd5b6000805460ff191681556131f0611c81565b9050801561320e5761181081601081111561320757fe5b6027612a16565b61182133600085614c9f565b6001600160a01b0381166000908152601060205260408120805482918291829182916132515750600094508493506132c992505050565b6132618160000154600a54615166565b9094509250600084600381111561327457fe5b146132895750919350600092506132c9915050565b6132978382600101546151a5565b909450915060008460038111156132aa57fe5b146132bf5750919350600092506132c9915050565b5060009450925050505b915091565b4390565b600354600090819061010090046001600160a01b031633146132fa576121d960016042612a16565b6133026132ce565b60095414613316576121d9600a6041612a16565b600660009054906101000a90046001600160a01b03169050826001600160a01b0316632191f92a6040518163ffffffff1660e01b815260040160206040518083038186803b15801561336757600080fd5b505afa15801561337b573d6000803e3d6000fd5b505050506040513d602081101561339157600080fd5b50516133e3576040805162461bcd60e51b815260206004820152601c60248201527b6d61726b6572206d6574686f642072657475726e65642066616c736560201b604482015290519081900360640190fd5b600680546001600160a01b0319166001600160a01b03858116918217909255604080519284168352602083019190915280517fedffc32e068c7c95dfd4bdfd5c4d939a084d6b11c4199eac8436ed234d72f9269281900390910190a16000611451565b60008054819060ff1661348d576040805162461bcd60e51b815260206004820152600a6024820152691c994b595b9d195c995960b21b604482015290519081900360640190fd5b6000805460ff1916815561349f611c81565b905080156134bd576123838160108111156134b657fe5b601e612a16565b61239b33856151d0565b6000806134d26132ce565b600954909150808214156134eb576000925050506110fd565b60006134f5612871565b600b54600c54600a54600654604080516315f2405360e01b815260048101879052602481018690526044810185905290519596509394929391926000926001600160a01b03909216916315f24053916064808301926020929190829003018186803b15801561356357600080fd5b505afa158015613577573d6000803e3d6000fd5b505050506040513d602081101561358d57600080fd5b5051905065048c273950008111156135eb576040805162461bcd60e51b815260206004820152601c60248201527b0c4dee4e4deee40e4c2e8ca40d2e640c2c4e6eae4c8d8f240d0d2ced60231b604482015290519081900360640190fd5b6000806135f88989614644565b9092509050600082600381111561360b57fe5b1461365d576040805162461bcd60e51b815260206004820152601f60248201527f636f756c64206e6f742063616c63756c61746520626c6f636b2064656c746100604482015290519081900360640190fd5b613665615f79565b60008060008061368360405180602001604052808a8152508761468d565b9097509450600087600381111561369657fe5b146136c8576136b3600960068960038111156136ae57fe5b6145de565b9e5050505050505050505050505050506110fd565b6136d2858c61281d565b909750935060008760038111156136e557fe5b146136fd576136b3600960018960038111156136ae57fe5b613707848c614667565b9097509250600087600381111561371a57fe5b14613732576136b3600960048960038111156136ae57fe5b61374d6040518060200160405280600854815250858c61562f565b9097509150600087600381111561376057fe5b14613778576136b3600960058960038111156136ae57fe5b613783858a8b61562f565b9097509050600087600381111561379657fe5b146137ae576136b3600960038960038111156136ae57fe5b60098e9055600a819055600b839055600c829055604080518d8152602081018690528082018390526060810185905290517f4dec04e750ca11537cabcd8a9eab06494de08da3735bc8871cd41250e190bc049181900360800190a160009e50505050505050505050505050505090565b6005546040805163d02f735160e01b81523060048201526001600160a01b038781166024830152868116604483015285811660648301526084820185905291516000938493169163d02f73519160a480830192602092919082900301818787803b15801561388b57600080fd5b505af115801561389f573d6000803e3d6000fd5b505050506040513d60208110156138b557600080fd5b5051905080156138cc5761250a6003601b836145de565b846001600160a01b0316846001600160a01b031614156138f25761250a6006601c612a16565b600080600080600080600560009054906101000a90046001600160a01b03166001600160a01b0316636995d7d06040518163ffffffff1660e01b815260040160206040518083038186803b15801561394957600080fd5b505afa15801561395d573d6000803e3d6000fd5b505050506040513d602081101561397357600080fd5b505160055460408051634ada90af60e01b815290516001600160a01b0393841693630cab477a938e93911691634ada90af91600480820192602092909190829003018186803b1580156139c557600080fd5b505afa1580156139d9573d6000803e3d6000fd5b505050506040513d60208110156139ef57600080fd5b5051604080516001600160e01b031960e086901b168152600481019390935260248301919091528051604480840193829003018186803b158015613a3257600080fd5b505afa158015613a46573d6000803e3d6000fd5b505050506040513d6040811015613a5c57600080fd5b508051602091820151600554604080516306995d7d60e41b815290519296509294506000936001600160a01b0390911692636995d7d09260048083019392829003018186803b158015613aae57600080fd5b505afa158015613ac2573d6000803e3d6000fd5b505050506040513d6020811015613ad857600080fd5b50516040805163ee9e819960e01b815290516001600160a01b039092169163ee9e819991600480820192602092909190829003018186803b158015613b1c57600080fd5b505afa158015613b30573d6000803e3d6000fd5b505050506040513d6020811015613b4657600080fd5b50516001600160a01b038c166000908152600e6020526040902054909150613b6e908b614644565b90975095506000876003811115613b8157fe5b14613ba857613b996009601a8960038111156136ae57fe5b985050505050505050506112e2565b6001600160a01b038c166000908152600e6020526040902054613bcb9083614667565b90975094506000876003811115613bde57fe5b14613bf657613b99600960198960038111156136ae57fe5b6001600160a01b0381166000908152600e6020526040902054613c199084614667565b90975093506000876003811115613c2c57fe5b14613c4457613b99600960198960038111156136ae57fe5b85600e60008d6001600160a01b03166001600160a01b031681526020019081526020016000208190555084600e60008e6001600160a01b03166001600160a01b031681526020019081526020016000208190555083600e6000836001600160a01b03166001600160a01b03168152602001908152602001600020819055508b6001600160a01b03168b6001600160a01b03166000805160206162ae833981519152846040518082815260200191505060405180910390a3806001600160a01b03168b6001600160a01b03166000805160206162ae833981519152856040518082815260200191505060405180910390a3600560009054906101000a90046001600160a01b03166001600160a01b0316636d35bf91308f8f8f8f6040518663ffffffff1660e01b815260040180866001600160a01b03166001600160a01b03168152602001856001600160a01b03166001600160a01b03168152602001846001600160a01b03166001600160a01b03168152602001836001600160a01b03166001600160a01b0316815260200182815260200195505050505050600060405180830381600087803b158015613df757600080fd5b505af1158015613e0b573d6000803e3d6000fd5b5060009250613e18915050565b9d9c50505050505050505050505050565b6000805460ff16613e6e576040805162461bcd60e51b815260206004820152600a6024820152691c994b595b9d195c995960b21b604482015290519081900360640190fd5b6000805460ff19168155613e80611c81565b90508015613e9e57611810816010811115613e9757fe5b6008612a16565b611821338461567c565b6000805460ff16613eed576040805162461bcd60e51b815260206004820152600a6024820152691c994b595b9d195c995960b21b604482015290519081900360640190fd5b6000805460ff19168155613eff611c81565b90508015613f165761181081601081111561320757fe5b61182133846000614c9f565b60008054819060ff16613f69576040805162461bcd60e51b815260206004820152600a6024820152691c994b595b9d195c995960b21b604482015290519081900360640190fd5b6000805460ff19168155613f7b611c81565b90508015613fa657613f99816010811115613f9257fe5b600f612a16565b92506000915061403d9050565b836001600160a01b031663a6afed956040518163ffffffff1660e01b8152600401602060405180830381600087803b158015613fe157600080fd5b505af1158015613ff5573d6000803e3d6000fd5b505050506040513d602081101561400b57600080fd5b50519050801561402b57613f9981601081111561402457fe5b6010612a16565b6140373387878761598a565b92509250505b6000805460ff191660011790559094909350915050565b60035460009061010090046001600160a01b0316331461407a5761132a60016047612a16565b6140826132ce565b600954146140965761132a600a6048612a16565b670de0b6b3a76400008211156140b25761132a60026049612a16565b6008805490839055604080518281526020810185905281517faaa68312e2ea9d50e16af5068410ab56e1a1fd06037b1a35664812c30f821460929181900390910190a16000611451565b60055460408051631200453160e11b81523060048201526001600160a01b0386811660248301528581166044830152606482018590529151600093849384939116916324008a629160848082019260209290919082900301818787803b15801561416557600080fd5b505af1158015614179573d6000803e3d6000fd5b505050506040513d602081101561418f57600080fd5b5051905080156141b3576141a660036038836145de565b9250600091506144da9050565b6141bb6132ce565b600954146141cf576141a6600a6039612a16565b6141d761600a565b6001600160a01b03861660009081526010602052604090206001015460608201526142018661321a565b608083018190526020830182600381111561421857fe5b600381111561422357fe5b905250600090508160200151600381111561423a57fe5b146142645761425660096037836020015160038111156136ae57fe5b9350600092506144da915050565b60001985141561427d5760808101516040820152614285565b604081018590525b614293878260400151614847565b60e0820181905260808201516142a891614644565b60a08301819052602083018260038111156142bf57fe5b60038111156142ca57fe5b90525060009050816020015160038111156142e157fe5b1461431d5760405162461bcd60e51b815260040180806020018281038252603a815260200180616274603a913960400191505060405180910390fd5b61432d600b548260e00151614644565b60c083018190526020830182600381111561434457fe5b600381111561434f57fe5b905250600090508160200151600381111561436657fe5b146143a25760405162461bcd60e51b81526004018080602001828103825260318152602001806162ce6031913960400191505060405180910390fd5b60a080820180516001600160a01b03808a16600081815260106020908152604091829020948555600a5460019095019490945560c0870151600b81905560e088015195518251948f16855294840192909252828101949094526060820192909252608081019190915290517f1a2a22cb034d26d1854bdc6666a5b91fe25efbbb5dcad3b0355478d6f5c362a1929181900390910190a160055460e0820151606083015160408051631ededc9160e01b81523060048201526001600160a01b038c811660248301528b8116604483015260648201949094526084810192909252519190921691631ededc919160a480830192600092919082900301818387803b1580156144ad57600080fd5b505af11580156144c1573d6000803e3d6000fd5b50600092506144ce915050565b8160e001519350935050505b935093915050565b6000806000806144f28787614667565b9092509050600082600381111561450557fe5b1461451657509150600090506144da565b6145208186614644565b935093505050935093915050565b6000614538615f79565b60008061454d86670de0b6b3a7640000615166565b9092509050600082600381111561456057fe5b1461457f5750604080516020810190915260008152909250905061286a565b60008061458c83886151a5565b9092509050600082600381111561459f57fe5b146145c15750604080516020810190915260008152909450925061286a915050565b604080516020810190915290815260009890975095505050505050565b60007f45b96fe442630264581b197e84bbada861235052c5a1aadfff9ea4e40a969aa084601081111561460d57fe5b84605081111561461957fe5b604080519283526020830191909152818101859052519081900360600190a18360108111156112e257fe5b60008083831161465b57506000905081830361286a565b5060039050600061286a565b60008083830184811061467f5760009250905061286a565b50600291506000905061286a565b6000614697615f79565b6000806146a8866000015186615166565b909250905060008260038111156146bb57fe5b146146da5750604080516020810190915260008152909250905061286a565b60408051602081019091529081526000969095509350505050565b51670de0b6b3a7640000900490565b600081158061471f5750508082028282828161471c57fe5b04145b610d18576040805162461bcd60e51b815260206004820152600c60248201526b6d756c2d6f766572666c6f7760a01b604482015290519081900360640190fd5b60008060008061476d6132ce565b6009541461478c57614781600a604f612a16565b935091506132c99050565b6147963386614847565b905080600c54019150600c548210156147f6576040805162461bcd60e51b815260206004820181905260248201527f61646420726573657276657320756e6578706563746564206f766572666c6f77604482015290519081900360640190fd5b600c829055604080513381526020810183905280820184905290517fa91e67c5ea634cd43a12c5a482724b03de01e85ca68702a53d0c2f45cb7c1dc59181900360600190a160009350915050915091565b601154604080516323b872dd60e01b81526001600160a01b038581166004830152306024830152604482018590529151600093929092169182916323b872dd91606480830192602092919082900301818887803b1580156148a757600080fd5b505af11580156148bb573d6000803e3d6000fd5b505050506040513d60208110156148d157600080fd5b505161490e5760405162461bcd60e51b81526004018080602001828103825260248152602001806163326024913960400191505060405180910390fd5b601354601154601454601554604080516370a0823160e01b8152306004820181905291516001600160a01b03968716969586169594851694909316928692633b4da69f92909187916370a08231916024808301926020929190829003018186803b15801561497b57600080fd5b505afa15801561498f573d6000803e3d6000fd5b505050506040513d60208110156149a557600080fd5b5051604080516001600160e01b031960e086901b1681526001600160a01b039093166004840152602483019190915251604480830192600092919082900301818387803b1580156149f557600080fd5b505af1158015614a09573d6000803e3d6000fd5b505060408051633612d9a360e11b81523060048201529051600093506001600160a01b0385169250636c25b34691602480820192602092909190829003018186803b158015614a5757600080fd5b505afa158015614a6b573d6000803e3d6000fd5b505050506040513d6020811015614a8157600080fd5b50516040805163324abb3160e21b815290519192506000916001600160a01b0386169163c92aecc4916004808301926020929190829003018186803b158015614ac957600080fd5b505afa158015614add573d6000803e3d6000fd5b505050506040513d6020811015614af357600080fd5b50518281614afd57fe5b049050836001600160a01b031663049878f3826040518263ffffffff1660e01b815260040180828152602001915050600060405180830381600087803b158015614b4657600080fd5b505af1158015614b5a573d6000803e3d6000fd5b509a9c9b505050505050505050505050565b80820182811015610d18576040805162461bcd60e51b815260206004820152600c60248201526b6164642d6f766572666c6f7760a01b604482015290519081900360640190fd5b600083830182858210156112135760405162461bcd60e51b81526004018080602001828103825283818151815260200191508051906020019080838360005b83811015614c0a578181015183820152602001614bf2565b50505050905090810190601f168015614c375780820380516001836020036101000a031916815260200191505b509250505060405180910390fd5b60008184841115614c975760405162461bcd60e51b8152602060048201818152835160248401528351909283926044909101919085019080838360008315614c0a578181015183820152602001614bf2565b505050900390565b6000821580614cac575081155b614ce75760405162461bcd60e51b81526004018080602001828103825260348152602001806163b36034913960400191505060405180910390fd5b614cef616050565b614cf76123b5565b6040830181905260208301826003811115614d0e57fe5b6003811115614d1957fe5b9052506000905081602001516003811115614d3057fe5b14614d5457614d4c6009602b836020015160038111156136ae57fe5b915050611451565b8315614dd5576060810184905260408051602081018252908201518152614d7b908561281d565b6080830181905260208301826003811115614d9257fe5b6003811115614d9d57fe5b9052506000905081602001516003811115614db457fe5b14614dd057614d4c60096029836020015160038111156136ae57fe5b614e4e565b614df18360405180602001604052808460400151815250615f08565b6060830181905260208301826003811115614e0857fe5b6003811115614e1357fe5b9052506000905081602001516003811115614e2a57fe5b14614e4657614d4c6009602a836020015160038111156136ae57fe5b608081018390525b60055460608201516040805163eabe7d9160e01b81523060048201526001600160a01b03898116602483015260448201939093529051600093929092169163eabe7d919160648082019260209290919082900301818787803b158015614eb357600080fd5b505af1158015614ec7573d6000803e3d6000fd5b505050506040513d6020811015614edd57600080fd5b505190508015614efd57614ef460036028836145de565b92505050611451565b614f056132ce565b60095414614f1957614ef4600a602c612a16565b614f29600d548360600151614644565b60a0840181905260208401826003811115614f4057fe5b6003811115614f4b57fe5b9052506000905082602001516003811115614f6257fe5b14614f7e57614ef46009602e846020015160038111156136ae57fe5b6001600160a01b0386166000908152600e60205260409020546060830151614fa69190614644565b60c0840181905260208401826003811115614fbd57fe5b6003811115614fc857fe5b9052506000905082602001516003811115614fdf57fe5b14614ffb57614ef46009602d846020015160038111156136ae57fe5b8160800151615008612871565b101561501a57614ef4600e602f612a16565b615028868360800151612e92565b60a0820151600d5560c08201516001600160a01b0387166000818152600e60209081526040918290209390935560608501518151908152905130936000805160206162ae833981519152928290030190a36080820151606080840151604080516001600160a01b038b168152602081019490945283810191909152517fe5b754fb1abb7f01b499791d0b820ae3b6af3424ac1c59768edb53f4ec31a9299281900390910190a160055460808301516060840151604080516351dff98960e01b81523060048201526001600160a01b038b81166024830152604482019490945260648101929092525191909216916351dff98991608480830192600092919082900301818387803b15801561513b57600080fd5b505af115801561514f573d6000803e3d6000fd5b506000925061515c915050565b9695505050505050565b600080836151795750600090508061286a565b8383028385828161518657fe5b041461519a5750600291506000905061286a565b60009250905061286a565b600080826151b9575060019050600061286a565b60008385816151c457fe5b04915091509250929050565b60055460408051634ef4c3e160e01b81523060048201526001600160a01b03858116602483015260448201859052915160009384938493911691634ef4c3e19160648082019260209290919082900301818787803b15801561523157600080fd5b505af1158015615245573d6000803e3d6000fd5b505050506040513d602081101561525b57600080fd5b50519050801561527f576152726003601f836145de565b92506000915061286a9050565b6152876132ce565b6009541461529b57615272600a6022612a16565b6152a3616050565b6152ab6123b5565b60408301819052602083018260038111156152c257fe5b60038111156152cd57fe5b90525060009050816020015160038111156152e457fe5b1461530e5761530060096021836020015160038111156136ae57fe5b93506000925061286a915050565b6153188686614847565b60c08201819052604080516020810182529083015181526153399190615f08565b606083018190526020830182600381111561535057fe5b600381111561535b57fe5b905250600090508160200151600381111561537257fe5b146153c4576040805162461bcd60e51b815260206004820181905260248201527f4d494e545f45584348414e47455f43414c43554c4154494f4e5f4641494c4544604482015290519081900360640190fd5b6153d4600d548260600151614667565b60808301819052602083018260038111156153eb57fe5b60038111156153f657fe5b905250600090508160200151600381111561540d57fe5b146154495760405162461bcd60e51b815260040180806020018281038252602881526020018061638b6028913960400191505060405180910390fd5b6001600160a01b0386166000908152600e602052604090205460608201516154719190614667565b60a083018190526020830182600381111561548857fe5b600381111561549357fe5b90525060009050816020015160038111156154aa57fe5b146154e65760405162461bcd60e51b815260040180806020018281038252602b8152602001806161f0602b913960400191505060405180910390fd5b6080810151600d5560a08101516001600160a01b0387166000818152600e60209081526040918290209390935560c084015160608086015183519485529484019190915282820193909352517f4c209b5fc8ad50758f13e2e1088ba56a560dff690a1c6fef26394f4c03821c4f929181900390910190a1606081015160408051918252516001600160a01b0388169130916000805160206162ae8339815191529181900360200190a360055460c08201516060830151604080516341c728b960e01b81523060048201526001600160a01b038b81166024830152604482019490945260648101929092525191909216916341c728b991608480830192600092919082900301818387803b1580156155fc57600080fd5b505af1158015615610573d6000803e3d6000fd5b506000925061561d915050565b8160c001519350935050509250929050565b600080600061563c615f79565b615646878761468d565b9092509050600082600381111561565957fe5b1461566a57509150600090506144da565b614520615676826146f5565b86614667565b6005546040805163368f515360e21b81523060048201526001600160a01b0385811660248301526044820185905291516000938493169163da3d454c91606480830192602092919082900301818787803b1580156156d957600080fd5b505af11580156156ed573d6000803e3d6000fd5b505050506040513d602081101561570357600080fd5b5051905080156157225761571a6003600e836145de565b915050610d18565b61572a6132ce565b6009541461573d5761571a600a80612a16565b82615746612871565b10156157585761571a600e6009612a16565b61576061608e565b6157698561321a565b602083018190528282600381111561577d57fe5b600381111561578857fe5b905250600090508151600381111561579c57fe5b146157c1576157b860096007836000015160038111156136ae57fe5b92505050610d18565b6157cf816020015185614667565b60408301819052828260038111156157e357fe5b60038111156157ee57fe5b905250600090508151600381111561580257fe5b1461581e576157b86009600c836000015160038111156136ae57fe5b61582a600b5485614667565b606083018190528282600381111561583e57fe5b600381111561584957fe5b905250600090508151600381111561585d57fe5b14615879576157b86009600b836000015160038111156136ae57fe5b6158838585612e92565b604080820180516001600160a01b03881660008181526010602090815290859020928355600a54600190930192909255606080860151600b81905593518551928352928201899052818501929092529081019190915290517f13ed6866d4e1ee6da46f845c46d7e54120883d75c5ea9a2dacc1c4ca8984ab809181900360800190a160055460408051635c77860560e01b81523060048201526001600160a01b0388811660248301526044820188905291519190921691635c77860591606480830192600092919082900301818387803b15801561596057600080fd5b505af1158015615974573d6000803e3d6000fd5b5060009250615981915050565b95945050505050565b60055460408051632fe3f38f60e11b81523060048201526001600160a01b0384811660248301528781166044830152868116606483015260848201869052915160009384938493911691635fc7e71e9160a48082019260209290919082900301818787803b1580156159fb57600080fd5b505af1158015615a0f573d6000803e3d6000fd5b505050506040513d6020811015615a2557600080fd5b505190508015615a4957615a3c60036012836145de565b925060009150615eff9050565b615a516132ce565b60095414615a6557615a3c600a6016612a16565b615a6d6132ce565b846001600160a01b0316636c540baf6040518163ffffffff1660e01b815260040160206040518083038186803b158015615aa657600080fd5b505afa158015615aba573d6000803e3d6000fd5b505050506040513d6020811015615ad057600080fd5b505114615ae357615a3c600a6011612a16565b866001600160a01b0316866001600160a01b03161415615b0957615a3c60066017612a16565b84615b1a57615a3c60076015612a16565b600019851415615b3057615a3c60076014612a16565b600080615b3e8989896140fc565b90925090508115615b6e57615b5f826010811115615b5857fe5b6018612a16565b945060009350615eff92505050565b6005546040805163c488847b60e01b81523060048201526001600160a01b038981166024830152604482018590528251600094859492169263c488847b926064808301939192829003018186803b158015615bc857600080fd5b505afa158015615bdc573d6000803e3d6000fd5b505050506040513d6040811015615bf257600080fd5b50805160209091015190925090508115615c3d5760405162461bcd60e51b81526004018080602001828103825260338152602001806162ff6033913960400191505060405180910390fd5b80886001600160a01b03166370a082318c6040518263ffffffff1660e01b815260040180826001600160a01b03166001600160a01b0316815260200191505060206040518083038186803b158015615c9457600080fd5b505afa158015615ca8573d6000803e3d6000fd5b505050506040513d6020811015615cbe57600080fd5b50511015615d0e576040805162461bcd60e51b815260206004820152601860248201527709892a2aa928882a88abea68a92b48abea89e9ebe9aaa86960431b604482015290519081900360640190fd5b60006001600160a01b038916301415615d3457615d2d308d8d8561381e565b9050615dbe565b6040805163b2a02ff160e01b81526001600160a01b038e811660048301528d81166024830152604482018590529151918b169163b2a02ff1916064808201926020929091908290030181600087803b158015615d8f57600080fd5b505af1158015615da3573d6000803e3d6000fd5b505050506040513d6020811015615db957600080fd5b505190505b8015615e08576040805162461bcd60e51b81526020600482015260146024820152731d1bdad95b881cd95a5e9d5c994819985a5b195960621b604482015290519081900360640190fd5b604080516001600160a01b03808f168252808e1660208301528183018790528b1660608201526080810184905290517f298637f684da70674f26509b10f07ec2fbc77a335ab1e7d6215a4b2484d8bb529181900360a00190a1600554604080516347ef3b3b60e01b81523060048201526001600160a01b038c811660248301528f811660448301528e811660648301526084820188905260a48201869052915191909216916347ef3b3b9160c480830192600092919082900301818387803b158015615ed357600080fd5b505af1158015615ee7573d6000803e3d6000fd5b5060009250615ef4915050565b975092955050505050505b94509492505050565b6000806000615f15615f79565b61283486866000615f24615f79565b600080615f39670de0b6b3a764000087615166565b90925090506000826003811115615f4c57fe5b14615f6b5750604080516020810190915260008152909250905061286a565b61286381866000015161452e565b6040518060200160405280600081525090565b828054600181600116156101000203166002900490600052602060002090601f016020900481019282601f10615fcd57805160ff1916838001178555615ffa565b82800160010185558215615ffa579182015b82811115615ffa578251825591602001919060010190615fdf565b506160069291506160b7565b5090565b6040805161010081019091528060008152602001600081526020016000815260200160008152602001600081526020016000815260200160008152602001600081525090565b6040805160e0810190915280600081526020016000815260200160008152602001600081526020016000815260200160008152602001600081525090565b604080516080810190915280600081526020016000815260200160008152602001600081525090565b6110fd91905b8082111561600657600081556001016160bd56fe6f6e6c792061646d696e206d617920696e697469616c697a6520746865206d61726b65746d61726b6574206d6179206f6e6c7920626520696e697469616c697a6564206f6e63656f6e6c79207468652061646d696e206d617920696e697469616c697a652074686520696d706c656d656e746174696f6e696e697469616c2065786368616e67652072617465206d7573742062652067726561746572207468616e207a65726f2e4572726f7220746f2063616c63756c61746520666c6173686c6f616e20726573657276652066656573657474696e6720696e7465726573742072617465206d6f64656c206661696c65646f6e6c79207468652061646d696e206d6179206162616e646f6e2074686520696d706c656d656e746174696f6e4d494e545f4e45575f4143434f554e545f42414c414e43455f43414c43554c4154494f4e5f4641494c4544626f72726f7742616c616e636553746f7265643a20626f72726f7742616c616e636553746f726564496e7465726e616c206661696c6564444149206d757374206265207468652073616d6520617320756e6465726c79696e6752455041595f424f52524f575f4e45575f4143434f554e545f424f52524f575f42414c414e43455f43414c43554c4154494f4e5f4641494c4544ddf252ad1be2c89b69c2b068fc378daa952ba7f163c4a11628f55a4df523b3ef52455041595f424f52524f575f4e45575f544f54414c5f42414c414e43455f43414c43554c4154494f4e5f4641494c45444c49515549444154455f434f4d5054524f4c4c45525f43414c43554c4154455f414d4f554e545f5345495a455f4641494c4544756e6578706563746564204549502d3230207472616e7366657220696e2072657475726e65786368616e67655261746553746f7265643a2065786368616e67655261746553746f726564496e7465726e616c206661696c65644d494e545f4e45575f544f54414c5f535550504c595f43414c43554c4154494f4e5f4641494c45446f6e65206f662072656465656d546f6b656e73496e206f722072656465656d416d6f756e74496e206d757374206265207a65726f72656475636520726573657276657320756e657870656374656420756e646572666c6f77a265627a7a723158203e26994e10a5962723381eadd1169f1f7eb4bd4941339a14dcae6edd29c0787a64736f6c63430005100032",
  "source": "pragma solidity ^0.5.16;\n\nimport \"./CErc20Delegate.sol\";\n\n/**\n * @title Compound's CDai Contract\n * @notice CToken which wraps Multi-Collateral DAI\n * @author Compound\n */\ncontract CDaiDelegate is CErc20Delegate {\n    /**\n     * @notice DAI adapter address\n     */\n    address public daiJoinAddress;\n\n    /**\n     * @notice DAI Savings Rate (DSR) pot address\n     */\n    address public potAddress;\n\n    /**\n     * @notice DAI vat address\n     */\n    address public vatAddress;\n\n    /**\n     * @notice Delegate interface to become the implementation\n     * @param data The encoded arguments for becoming\n     */\n    function _becomeImplementation(bytes memory data) public {\n        require(msg.sender == admin, \"only the admin may initialize the implementation\");\n\n        (address daiJoinAddress_, address potAddress_) = abi.decode(data, (address, address));\n        return _becomeImplementation(daiJoinAddress_, potAddress_);\n    }\n\n    /**\n     * @notice Explicit interface to become the implementation\n     * @param daiJoinAddress_ DAI adapter address\n     * @param potAddress_ DAI Savings Rate (DSR) pot address\n     */\n    function _becomeImplementation(address daiJoinAddress_, address potAddress_) internal {\n        // Get dai and vat and sanity check the underlying\n        DaiJoinLike daiJoin = DaiJoinLike(daiJoinAddress_);\n        PotLike pot = PotLike(potAddress_);\n        GemLike dai = daiJoin.dai();\n        VatLike vat = daiJoin.vat();\n        require(address(dai) == underlying, \"DAI must be the same as underlying\");\n\n        // Remember the relevant addresses\n        daiJoinAddress = daiJoinAddress_;\n        potAddress = potAddress_;\n        vatAddress = address(vat);\n\n        // Approve moving our DAI into the vat through daiJoin\n        dai.approve(daiJoinAddress, uint(-1));\n\n        // Approve the pot to transfer our funds within the vat\n        vat.hope(potAddress);\n        vat.hope(daiJoinAddress);\n\n        // Accumulate DSR interest -- must do this in order to doTransferIn\n        pot.drip();\n\n        // Transfer all cash in (doTransferIn does this regardless of amount)\n        doTransferIn(address(this), 0);\n    }\n\n    /**\n     * @notice Delegate interface to resign the implementation\n     */\n    function _resignImplementation() public {\n        require(msg.sender == admin, \"only the admin may abandon the implementation\");\n\n        // Transfer all cash out of the DSR - note that this relies on self-transfer\n        DaiJoinLike daiJoin = DaiJoinLike(daiJoinAddress);\n        PotLike pot = PotLike(potAddress);\n        VatLike vat = VatLike(vatAddress);\n\n        // Accumulate interest\n        pot.drip();\n\n        // Calculate the total amount in the pot, and move it out\n        uint pie = pot.pie(address(this));\n        pot.exit(pie);\n\n        // Checks the actual balance of DAI in the vat after the pot exit\n        uint bal = vat.dai(address(this));\n\n        // Remove our whole balance\n        daiJoin.exit(address(this), bal / RAY);\n    }\n\n    /*** CToken Overrides ***/\n\n    /**\n      * @notice Accrues DSR then applies accrued interest to total borrows and reserves\n      * @dev This calculates interest accrued from the last checkpointed block\n      *      up to the current block and writes new checkpoint to storage.\n      */\n    function accrueInterest() public returns (uint) {\n        // Accumulate DSR interest\n        PotLike(potAddress).drip();\n\n        // Accumulate CToken interest\n        return super.accrueInterest();\n    }\n\n    /*** Safe Token ***/\n\n    /**\n     * @notice Gets balance of this contract in terms of the underlying\n     * @dev This excludes the value of the current message, if any\n     * @return The quantity of underlying tokens owned by this contract\n     */\n    function getCashPrior() internal view returns (uint) {\n        PotLike pot = PotLike(potAddress);\n        uint pie = pot.pie(address(this));\n        return mul(pot.chi(), pie) / RAY;\n    }\n\n    /**\n     * @notice Transfer the underlying to this contract and sweep into DSR pot\n     * @param from Address to transfer funds from\n     * @param amount Amount of underlying to transfer\n     * @return The actual amount that is transferred\n     */\n    function doTransferIn(address from, uint amount) internal returns (uint) {\n        // Perform the EIP-20 transfer in\n        EIP20Interface token = EIP20Interface(underlying);\n        require(token.transferFrom(from, address(this), amount), \"unexpected EIP-20 transfer in return\");\n\n        DaiJoinLike daiJoin = DaiJoinLike(daiJoinAddress);\n        GemLike dai = GemLike(underlying);\n        PotLike pot = PotLike(potAddress);\n        VatLike vat = VatLike(vatAddress);\n\n        // Convert all our DAI to internal DAI in the vat\n        daiJoin.join(address(this), dai.balanceOf(address(this)));\n\n        // Checks the actual balance of DAI in the vat after the join\n        uint bal = vat.dai(address(this));\n\n        // Calculate the percentage increase to th pot for the entire vat, and move it in\n        // Note: We may leave a tiny bit of DAI in the vat...but we do the whole thing every time\n        uint pie = bal / pot.chi();\n        pot.join(pie);\n\n        return amount;\n    }\n\n    /**\n     * @notice Transfer the underlying from this contract, after sweeping out of DSR pot\n     * @param to Address to transfer funds to\n     * @param amount Amount of underlying to transfer\n     */\n    function doTransferOut(address payable to, uint amount) internal {\n        DaiJoinLike daiJoin = DaiJoinLike(daiJoinAddress);\n        PotLike pot = PotLike(potAddress);\n\n        // Calculate the percentage decrease from the pot, and move that much out\n        // Note: Use a slightly larger pie size to ensure that we get at least amount in the vat\n        uint pie = add(mul(amount, RAY) / pot.chi(), 1);\n        pot.exit(pie);\n\n        daiJoin.exit(to, amount);\n    }\n\n    /*** Maker Internals ***/\n\n    uint256 constant RAY = 10 ** 27;\n\n    function add(uint x, uint y) internal pure returns (uint z) {\n        require((z = x + y) >= x, \"add-overflow\");\n    }\n\n    function mul(uint x, uint y) internal pure returns (uint z) {\n        require(y == 0 || (z = x * y) / y == x, \"mul-overflow\");\n    }\n}\n\n/*** Maker Interfaces ***/\n\ninterface PotLike {\n    function chi() external view returns (uint);\n    function pie(address) external view returns (uint);\n    function drip() external returns (uint);\n    function join(uint) external;\n    function exit(uint) external;\n}\n\ninterface GemLike {\n    function approve(address, uint) external;\n    function balanceOf(address) external view returns (uint);\n    function transferFrom(address, address, uint) external returns (bool);\n}\n\ninterface VatLike {\n    function dai(address) external view returns (uint);\n    function hope(address) external;\n}\n\ninterface DaiJoinLike {\n    function vat() external returns (VatLike);\n    function dai() external returns (GemLike);\n    function join(address, uint) external payable;\n    function exit(address, uint) external;\n}\n",
  "sourcePath": "/Users/ashton/repo/blockchain/eth/smartcontracts/quicksilver-protocol/contracts/compound/CDaiDelegate.sol",
  "compiler": {
    "name": "solc",
    "version": "0.5.16+commit.9c3226ce.Emscripten.clang"
  },
  "schemaVersion": "3.4.1",
  "updatedAt": "2021-08-05T05:29:25.103Z",
  "devdoc": {
    "author": "Compound",
    "methods": {
      "_acceptAdmin()": {
        "details": "Admin function for pending admin to accept role and update admin",
        "return": "uint 0=success, otherwise a failure (see ErrorReporter.sol for details)"
      },
      "_addReserves(uint256)": {
        "params": {
          "addAmount": "The amount fo underlying token to add as reserves"
        },
        "return": "uint 0=success, otherwise a failure (see ErrorReporter.sol for details)"
      },
      "_becomeImplementation(bytes)": {
        "params": {
          "data": "The encoded arguments for becoming"
        }
      },
      "_reduceReserves(uint256)": {
        "params": {
          "reduceAmount": "Amount of reduction to reserves"
        },
        "return": "uint 0=success, otherwise a failure (see ErrorReporter.sol for details)"
      },
      "_setComptroller(address)": {
        "details": "Admin function to set a new comptroller",
        "return": "uint 0=success, otherwise a failure (see ErrorReporter.sol for details)"
      },
      "_setInterestRateModel(address)": {
        "details": "Admin function to accrue interest and update the interest rate model",
        "params": {
          "newInterestRateModel": "the new interest rate model to use"
        },
        "return": "uint 0=success, otherwise a failure (see ErrorReporter.sol for details)"
      },
      "_setPendingAdmin(address)": {
        "details": "Admin function to begin change of admin. The newPendingAdmin must call `_acceptAdmin` to finalize the transfer.",
        "params": {
          "newPendingAdmin": "New pending admin."
        },
        "return": "uint 0=success, otherwise a failure (see ErrorReporter.sol for details)"
      },
      "_setReserveFactor(uint256)": {
        "details": "Admin function to accrue interest and set a new reserve factor",
        "return": "uint 0=success, otherwise a failure (see ErrorReporter.sol for details)"
      },
      "accrueInterest()": {
        "details": "This calculates interest accrued from the last checkpointed block     up to the current block and writes new checkpoint to storage."
      },
      "allowance(address,address)": {
        "params": {
          "owner": "The address of the account which owns the tokens to be spent",
          "spender": "The address of the account which may transfer tokens"
        },
        "return": "The number of tokens allowed to be spent (-1 means infinite)"
      },
      "approve(address,uint256)": {
        "details": "This will overwrite the approval amount for `spender` and is subject to issues noted [here](https://eips.ethereum.org/EIPS/eip-20#approve)",
        "params": {
          "amount": "The number of tokens that are approved (-1 means infinite)",
          "spender": "The address of the account which may transfer tokens"
        },
        "return": "Whether or not the approval succeeded"
      },
      "balanceOf(address)": {
        "params": {
          "owner": "The address of the account to query"
        },
        "return": "The number of tokens owned by `owner`"
      },
      "balanceOfUnderlying(address)": {
        "details": "This also accrues interest in a transaction",
        "params": {
          "owner": "The address of the account to query"
        },
        "return": "The amount of underlying owned by `owner`"
      },
      "borrow(uint256)": {
        "params": {
          "borrowAmount": "The amount of the underlying asset to borrow"
        },
        "return": "uint 0=success, otherwise a failure (see ErrorReporter.sol for details)"
      },
      "borrowBalanceCurrent(address)": {
        "params": {
          "account": "The address whose balance should be calculated after updating borrowIndex"
        },
        "return": "The calculated balance"
      },
      "borrowBalanceStored(address)": {
        "params": {
          "account": "The address whose balance should be calculated"
        },
        "return": "The calculated balance"
      },
      "borrowRatePerBlock()": {
        "return": "The borrow interest rate per block, scaled by 1e18"
      },
      "exchangeRateCurrent()": {
        "return": "Calculated exchange rate scaled by 1e18"
      },
      "exchangeRateStored()": {
        "details": "This function does not accrue interest before calculating the exchange rate",
        "return": "Calculated exchange rate scaled by 1e18"
      },
      "flashFee(address,uint256)": {
        "details": "The fee to be charged for a given loan.",
        "params": {
          "amount": "The amount of tokens lent.",
          "token": "The loan currency."
        },
        "return": "The amount of `token` to be charged for the loan, on top of the returned principal."
      },
      "flashLoan(address,address,uint256,bytes)": {
        "details": "Initiate a flash loan.",
        "params": {
          "amount": "The amount of tokens lent.",
          "data": "Arbitrary data structure, intended to contain user-defined parameters.",
          "receiver": "The receiver of the tokens in the loan, and the receiver of the callback.",
          "token": "The loan currency."
        }
      },
      "getAccountSnapshot(address)": {
        "details": "This is used by comptroller to more efficiently perform liquidity checks.",
        "params": {
          "account": "Address of the account to snapshot"
        },
        "return": "(possible error, token balance, borrow balance, exchange rate mantissa)"
      },
      "getCash()": {
        "return": "The quantity of underlying asset owned by this contract"
      },
      "initialize(address,address,address,uint256,string,string,uint8)": {
        "params": {
          "comptroller_": "The address of the Comptroller",
          "decimals_": "ERC-20 decimal precision of this token",
          "initialExchangeRateMantissa_": "The initial exchange rate, scaled by 1e18",
          "interestRateModel_": "The address of the interest rate model",
          "name_": "ERC-20 name of this token",
          "symbol_": "ERC-20 symbol of this token",
          "underlying_": "The address of the underlying asset"
        }
      },
      "initialize(address,address,uint256,string,string,uint8)": {
        "params": {
          "comptroller_": "The address of the Comptroller",
          "decimals_": "EIP-20 decimal precision of this token",
          "initialExchangeRateMantissa_": "The initial exchange rate, scaled by 1e18",
          "interestRateModel_": "The address of the interest rate model",
          "name_": "EIP-20 name of this token",
          "symbol_": "EIP-20 symbol of this token"
        }
      },
      "liquidateBorrow(address,uint256,address)": {
        "params": {
          "borrower": "The borrower of this cToken to be liquidated",
          "cTokenCollateral": "The market in which to seize collateral from the borrower",
          "repayAmount": "The amount of the underlying borrowed asset to repay"
        },
        "return": "uint 0=success, otherwise a failure (see ErrorReporter.sol for details)"
      },
      "maxFlashLoan(address)": {
        "details": "The amount of currency available to be lent.",
        "params": {
          "token": "The loan currency."
        },
        "return": "The amount of `token` that can be borrowed."
      },
      "mint(uint256)": {
        "details": "Accrues interest whether or not the operation succeeds, unless reverted",
        "params": {
          "mintAmount": "The amount of the underlying asset to supply"
        },
        "return": "uint 0=success, otherwise a failure (see ErrorReporter.sol for details)"
      },
      "redeem(uint256)": {
        "details": "Accrues interest whether or not the operation succeeds, unless reverted",
        "params": {
          "redeemTokens": "The number of cTokens to redeem into underlying"
        },
        "return": "uint 0=success, otherwise a failure (see ErrorReporter.sol for details)"
      },
      "redeemUnderlying(uint256)": {
        "details": "Accrues interest whether or not the operation succeeds, unless reverted",
        "params": {
          "redeemAmount": "The amount of underlying to redeem"
        },
        "return": "uint 0=success, otherwise a failure (see ErrorReporter.sol for details)"
      },
      "repayBorrow(uint256)": {
        "params": {
          "repayAmount": "The amount to repay"
        },
        "return": "uint 0=success, otherwise a failure (see ErrorReporter.sol for details)"
      },
      "repayBorrowBehalf(address,uint256)": {
        "params": {
          "borrower": "the account with the debt being payed off",
          "repayAmount": "The amount to repay"
        },
        "return": "uint 0=success, otherwise a failure (see ErrorReporter.sol for details)"
      },
      "seize(address,address,uint256)": {
        "details": "Will fail unless called by another cToken during the process of liquidation. Its absolutely critical to use msg.sender as the borrowed cToken and not a parameter.",
        "params": {
          "borrower": "The account having collateral seized",
          "liquidator": "The account receiving seized collateral",
          "seizeTokens": "The number of cTokens to seize"
        },
        "return": "uint 0=success, otherwise a failure (see ErrorReporter.sol for details)"
      },
      "supplyRatePerBlock()": {
        "return": "The supply interest rate per block, scaled by 1e18"
      },
      "totalBorrowsCurrent()": {
        "return": "The total borrows with interest"
      },
      "transfer(address,uint256)": {
        "params": {
          "amount": "The number of tokens to transfer",
          "dst": "The address of the destination account"
        },
        "return": "Whether or not the transfer succeeded"
      },
      "transferFrom(address,address,uint256)": {
        "params": {
          "amount": "The number of tokens to transfer",
          "dst": "The address of the destination account",
          "src": "The address of the source account"
        },
        "return": "Whether or not the transfer succeeded"
      }
    },
    "title": "Compound's CDai Contract"
  },
  "userdoc": {
    "methods": {
      "_acceptAdmin()": {
        "notice": "Accepts transfer of admin rights. msg.sender must be pendingAdmin"
      },
      "_addReserves(uint256)": {
        "notice": "The sender adds to reserves."
      },
      "_becomeImplementation(bytes)": {
        "notice": "Delegate interface to become the implementation"
      },
      "_reduceReserves(uint256)": {
        "notice": "Accrues interest and reduces reserves by transferring to admin"
      },
      "_resignImplementation()": {
        "notice": "Delegate interface to resign the implementation"
      },
      "_setComptroller(address)": {
        "notice": "Sets a new comptroller for the market"
      },
      "_setInterestRateModel(address)": {
        "notice": "accrues interest and updates the interest rate model using _setInterestRateModelFresh"
      },
      "_setPendingAdmin(address)": {
        "notice": "Begins transfer of admin rights. The newPendingAdmin must call `_acceptAdmin` to finalize the transfer."
      },
      "_setReserveFactor(uint256)": {
        "notice": "accrues interest and sets a new reserve factor for the protocol using _setReserveFactorFresh"
      },
      "accrueInterest()": {
        "notice": "Accrues DSR then applies accrued interest to total borrows and reserves"
      },
      "allowance(address,address)": {
        "notice": "Get the current allowance from `owner` for `spender`"
      },
      "approve(address,uint256)": {
        "notice": "Approve `spender` to transfer up to `amount` from `src`"
      },
      "balanceOf(address)": {
        "notice": "Get the token balance of the `owner`"
      },
      "balanceOfUnderlying(address)": {
        "notice": "Get the underlying balance of the `owner`"
      },
      "borrow(uint256)": {
        "notice": "Sender borrows assets from the protocol to their own address"
      },
      "borrowBalanceCurrent(address)": {
        "notice": "Accrue interest to updated borrowIndex and then calculate account's borrow balance using the updated borrowIndex"
      },
      "borrowBalanceStored(address)": {
        "notice": "Return the borrow balance of account based on stored data"
      },
      "borrowRatePerBlock()": {
        "notice": "Returns the current per-block borrow interest rate for this cToken"
      },
      "exchangeRateCurrent()": {
        "notice": "Accrue interest then return the up-to-date exchange rate"
      },
      "exchangeRateStored()": {
        "notice": "Calculates the exchange rate from the underlying to the CToken"
      },
      "getAccountSnapshot(address)": {
        "notice": "Get a snapshot of the account's balances, and the cached exchange rate"
      },
      "getCash()": {
        "notice": "Get cash balance of this cToken in the underlying asset"
      },
      "initialize(address,address,address,uint256,string,string,uint8)": {
        "notice": "Initialize the new money market"
      },
      "initialize(address,address,uint256,string,string,uint8)": {
        "notice": "Initialize the money market"
      },
      "liquidateBorrow(address,uint256,address)": {
        "notice": "The sender liquidates the borrowers collateral. The collateral seized is transferred to the liquidator."
      },
      "mint(uint256)": {
        "notice": "Sender supplies assets into the market and receives cTokens in exchange"
      },
      "redeem(uint256)": {
        "notice": "Sender redeems cTokens in exchange for the underlying asset"
      },
      "redeemUnderlying(uint256)": {
        "notice": "Sender redeems cTokens in exchange for a specified amount of underlying asset"
      },
      "repayBorrow(uint256)": {
        "notice": "Sender repays their own borrow"
      },
      "repayBorrowBehalf(address,uint256)": {
        "notice": "Sender repays a borrow belonging to borrower"
      },
      "seize(address,address,uint256)": {
        "notice": "Transfers collateral tokens (this market) to the liquidator."
      },
      "supplyRatePerBlock()": {
        "notice": "Returns the current per-block supply interest rate for this cToken"
      },
      "totalBorrowsCurrent()": {
        "notice": "Returns the current total borrows plus accrued interest"
      },
      "transfer(address,uint256)": {
        "notice": "Transfer `amount` tokens from `msg.sender` to `dst`"
      },
      "transferFrom(address,address,uint256)": {
        "notice": "Transfer `amount` tokens from `src` to `dst`"
      }
    },
    "notice": "CToken which wraps Multi-Collateral DAI"
  }
}