{
  "contractName": "CDaiDelegate",
  "abi": [
    {
      "anonymous": false,
      "inputs": [
        {
          "indexed": false,
          "internalType": "uint256",
          "name": "cashPrior",
          "type": "uint256"
        },
        {
          "indexed": false,
          "internalType": "uint256",
          "name": "interestAccumulated",
          "type": "uint256"
        },
        {
          "indexed": false,
          "internalType": "uint256",
          "name": "borrowIndex",
          "type": "uint256"
        },
        {
          "indexed": false,
          "internalType": "uint256",
          "name": "totalBorrows",
          "type": "uint256"
        }
      ],
      "name": "AccrueInterest",
      "type": "event"
    },
    {
      "anonymous": false,
      "inputs": [
        {
          "indexed": true,
          "internalType": "address",
          "name": "owner",
          "type": "address"
        },
        {
          "indexed": true,
          "internalType": "address",
          "name": "spender",
          "type": "address"
        },
        {
          "indexed": false,
          "internalType": "uint256",
          "name": "amount",
          "type": "uint256"
        }
      ],
      "name": "Approval",
      "type": "event"
    },
    {
      "anonymous": false,
      "inputs": [
        {
          "indexed": false,
          "internalType": "address",
          "name": "borrower",
          "type": "address"
        },
        {
          "indexed": false,
          "internalType": "uint256",
          "name": "borrowAmount",
          "type": "uint256"
        },
        {
          "indexed": false,
          "internalType": "uint256",
          "name": "accountBorrows",
          "type": "uint256"
        },
        {
          "indexed": false,
          "internalType": "uint256",
          "name": "totalBorrows",
          "type": "uint256"
        }
      ],
      "name": "Borrow",
      "type": "event"
    },
    {
      "anonymous": false,
      "inputs": [
        {
          "indexed": false,
          "internalType": "uint256",
          "name": "error",
          "type": "uint256"
        },
        {
          "indexed": false,
          "internalType": "uint256",
          "name": "info",
          "type": "uint256"
        },
        {
          "indexed": false,
          "internalType": "uint256",
          "name": "detail",
          "type": "uint256"
        }
      ],
      "name": "Failure",
      "type": "event"
    },
    {
      "anonymous": false,
      "inputs": [
        {
          "indexed": false,
          "internalType": "address",
          "name": "liquidator",
          "type": "address"
        },
        {
          "indexed": false,
          "internalType": "address",
          "name": "borrower",
          "type": "address"
        },
        {
          "indexed": false,
          "internalType": "uint256",
          "name": "repayAmount",
          "type": "uint256"
        },
        {
          "indexed": false,
          "internalType": "address",
          "name": "cTokenCollateral",
          "type": "address"
        },
        {
          "indexed": false,
          "internalType": "uint256",
          "name": "seizeTokens",
          "type": "uint256"
        }
      ],
      "name": "LiquidateBorrow",
      "type": "event"
    },
    {
      "anonymous": false,
      "inputs": [
        {
          "indexed": false,
          "internalType": "address",
          "name": "minter",
          "type": "address"
        },
        {
          "indexed": false,
          "internalType": "uint256",
          "name": "mintAmount",
          "type": "uint256"
        },
        {
          "indexed": false,
          "internalType": "uint256",
          "name": "mintTokens",
          "type": "uint256"
        }
      ],
      "name": "Mint",
      "type": "event"
    },
    {
      "anonymous": false,
      "inputs": [
        {
          "indexed": false,
          "internalType": "address",
          "name": "oldAdmin",
          "type": "address"
        },
        {
          "indexed": false,
          "internalType": "address",
          "name": "newAdmin",
          "type": "address"
        }
      ],
      "name": "NewAdmin",
      "type": "event"
    },
    {
      "anonymous": false,
      "inputs": [
        {
          "indexed": false,
          "internalType": "contract ComptrollerInterface",
          "name": "oldComptroller",
          "type": "address"
        },
        {
          "indexed": false,
          "internalType": "contract ComptrollerInterface",
          "name": "newComptroller",
          "type": "address"
        }
      ],
      "name": "NewComptroller",
      "type": "event"
    },
    {
      "anonymous": false,
      "inputs": [
        {
          "indexed": false,
          "internalType": "contract InterestRateModel",
          "name": "oldInterestRateModel",
          "type": "address"
        },
        {
          "indexed": false,
          "internalType": "contract InterestRateModel",
          "name": "newInterestRateModel",
          "type": "address"
        }
      ],
      "name": "NewMarketInterestRateModel",
      "type": "event"
    },
    {
      "anonymous": false,
      "inputs": [
        {
          "indexed": false,
          "internalType": "address",
          "name": "oldPendingAdmin",
          "type": "address"
        },
        {
          "indexed": false,
          "internalType": "address",
          "name": "newPendingAdmin",
          "type": "address"
        }
      ],
      "name": "NewPendingAdmin",
      "type": "event"
    },
    {
      "anonymous": false,
      "inputs": [
        {
          "indexed": false,
          "internalType": "uint256",
          "name": "oldReserveFactorMantissa",
          "type": "uint256"
        },
        {
          "indexed": false,
          "internalType": "uint256",
          "name": "newReserveFactorMantissa",
          "type": "uint256"
        }
      ],
      "name": "NewReserveFactor",
      "type": "event"
    },
    {
      "anonymous": false,
      "inputs": [
        {
          "indexed": false,
          "internalType": "address",
          "name": "redeemer",
          "type": "address"
        },
        {
          "indexed": false,
          "internalType": "uint256",
          "name": "redeemAmount",
          "type": "uint256"
        },
        {
          "indexed": false,
          "internalType": "uint256",
          "name": "redeemTokens",
          "type": "uint256"
        }
      ],
      "name": "Redeem",
      "type": "event"
    },
    {
      "anonymous": false,
      "inputs": [
        {
          "indexed": false,
          "internalType": "address",
          "name": "payer",
          "type": "address"
        },
        {
          "indexed": false,
          "internalType": "address",
          "name": "borrower",
          "type": "address"
        },
        {
          "indexed": false,
          "internalType": "uint256",
          "name": "repayAmount",
          "type": "uint256"
        },
        {
          "indexed": false,
          "internalType": "uint256",
          "name": "accountBorrows",
          "type": "uint256"
        },
        {
          "indexed": false,
          "internalType": "uint256",
          "name": "totalBorrows",
          "type": "uint256"
        }
      ],
      "name": "RepayBorrow",
      "type": "event"
    },
    {
      "anonymous": false,
      "inputs": [
        {
          "indexed": false,
          "internalType": "address",
          "name": "benefactor",
          "type": "address"
        },
        {
          "indexed": false,
          "internalType": "uint256",
          "name": "addAmount",
          "type": "uint256"
        },
        {
          "indexed": false,
          "internalType": "uint256",
          "name": "newTotalReserves",
          "type": "uint256"
        }
      ],
      "name": "ReservesAdded",
      "type": "event"
    },
    {
      "anonymous": false,
      "inputs": [
        {
          "indexed": false,
          "internalType": "address",
          "name": "admin",
          "type": "address"
        },
        {
          "indexed": false,
          "internalType": "uint256",
          "name": "reduceAmount",
          "type": "uint256"
        },
        {
          "indexed": false,
          "internalType": "uint256",
          "name": "newTotalReserves",
          "type": "uint256"
        }
      ],
      "name": "ReservesReduced",
      "type": "event"
    },
    {
      "anonymous": false,
      "inputs": [
        {
          "indexed": true,
          "internalType": "address",
          "name": "from",
          "type": "address"
        },
        {
          "indexed": true,
          "internalType": "address",
          "name": "to",
          "type": "address"
        },
        {
          "indexed": false,
          "internalType": "uint256",
          "name": "amount",
          "type": "uint256"
        }
      ],
      "name": "Transfer",
      "type": "event"
    },
    {
      "constant": false,
      "inputs": [],
      "name": "_acceptAdmin",
      "outputs": [
        {
          "internalType": "uint256",
          "name": "",
          "type": "uint256"
        }
      ],
      "payable": false,
      "stateMutability": "nonpayable",
      "type": "function"
    },
    {
      "constant": false,
      "inputs": [
        {
          "internalType": "uint256",
          "name": "addAmount",
          "type": "uint256"
        }
      ],
      "name": "_addReserves",
      "outputs": [
        {
          "internalType": "uint256",
          "name": "",
          "type": "uint256"
        }
      ],
      "payable": false,
      "stateMutability": "nonpayable",
      "type": "function"
    },
    {
      "constant": false,
      "inputs": [
        {
          "internalType": "uint256",
          "name": "reduceAmount",
          "type": "uint256"
        }
      ],
      "name": "_reduceReserves",
      "outputs": [
        {
          "internalType": "uint256",
          "name": "",
          "type": "uint256"
        }
      ],
      "payable": false,
      "stateMutability": "nonpayable",
      "type": "function"
    },
    {
      "constant": false,
      "inputs": [
        {
          "internalType": "contract ComptrollerInterface",
          "name": "newComptroller",
          "type": "address"
        }
      ],
      "name": "_setComptroller",
      "outputs": [
        {
          "internalType": "uint256",
          "name": "",
          "type": "uint256"
        }
      ],
      "payable": false,
      "stateMutability": "nonpayable",
      "type": "function"
    },
    {
      "constant": false,
      "inputs": [
        {
          "internalType": "contract InterestRateModel",
          "name": "newInterestRateModel",
          "type": "address"
        }
      ],
      "name": "_setInterestRateModel",
      "outputs": [
        {
          "internalType": "uint256",
          "name": "",
          "type": "uint256"
        }
      ],
      "payable": false,
      "stateMutability": "nonpayable",
      "type": "function"
    },
    {
      "constant": false,
      "inputs": [
        {
          "internalType": "address payable",
          "name": "newPendingAdmin",
          "type": "address"
        }
      ],
      "name": "_setPendingAdmin",
      "outputs": [
        {
          "internalType": "uint256",
          "name": "",
          "type": "uint256"
        }
      ],
      "payable": false,
      "stateMutability": "nonpayable",
      "type": "function"
    },
    {
      "constant": false,
      "inputs": [
        {
          "internalType": "uint256",
          "name": "newReserveFactorMantissa",
          "type": "uint256"
        }
      ],
      "name": "_setReserveFactor",
      "outputs": [
        {
          "internalType": "uint256",
          "name": "",
          "type": "uint256"
        }
      ],
      "payable": false,
      "stateMutability": "nonpayable",
      "type": "function"
    },
    {
      "constant": true,
      "inputs": [],
      "name": "accrualBlockNumber",
      "outputs": [
        {
          "internalType": "uint256",
          "name": "",
          "type": "uint256"
        }
      ],
      "payable": false,
      "stateMutability": "view",
      "type": "function"
    },
    {
      "constant": true,
      "inputs": [],
      "name": "admin",
      "outputs": [
        {
          "internalType": "address payable",
          "name": "",
          "type": "address"
        }
      ],
      "payable": false,
      "stateMutability": "view",
      "type": "function"
    },
    {
      "constant": true,
      "inputs": [
        {
          "internalType": "address",
          "name": "owner",
          "type": "address"
        },
        {
          "internalType": "address",
          "name": "spender",
          "type": "address"
        }
      ],
      "name": "allowance",
      "outputs": [
        {
          "internalType": "uint256",
          "name": "",
          "type": "uint256"
        }
      ],
      "payable": false,
      "stateMutability": "view",
      "type": "function"
    },
    {
      "constant": false,
      "inputs": [
        {
          "internalType": "address",
          "name": "spender",
          "type": "address"
        },
        {
          "internalType": "uint256",
          "name": "amount",
          "type": "uint256"
        }
      ],
      "name": "approve",
      "outputs": [
        {
          "internalType": "bool",
          "name": "",
          "type": "bool"
        }
      ],
      "payable": false,
      "stateMutability": "nonpayable",
      "type": "function"
    },
    {
      "constant": true,
      "inputs": [
        {
          "internalType": "address",
          "name": "owner",
          "type": "address"
        }
      ],
      "name": "balanceOf",
      "outputs": [
        {
          "internalType": "uint256",
          "name": "",
          "type": "uint256"
        }
      ],
      "payable": false,
      "stateMutability": "view",
      "type": "function"
    },
    {
      "constant": false,
      "inputs": [
        {
          "internalType": "address",
          "name": "owner",
          "type": "address"
        }
      ],
      "name": "balanceOfUnderlying",
      "outputs": [
        {
          "internalType": "uint256",
          "name": "",
          "type": "uint256"
        }
      ],
      "payable": false,
      "stateMutability": "nonpayable",
      "type": "function"
    },
    {
      "constant": false,
      "inputs": [
        {
          "internalType": "uint256",
          "name": "borrowAmount",
          "type": "uint256"
        }
      ],
      "name": "borrow",
      "outputs": [
        {
          "internalType": "uint256",
          "name": "",
          "type": "uint256"
        }
      ],
      "payable": false,
      "stateMutability": "nonpayable",
      "type": "function"
    },
    {
      "constant": false,
      "inputs": [
        {
          "internalType": "address",
          "name": "account",
          "type": "address"
        }
      ],
      "name": "borrowBalanceCurrent",
      "outputs": [
        {
          "internalType": "uint256",
          "name": "",
          "type": "uint256"
        }
      ],
      "payable": false,
      "stateMutability": "nonpayable",
      "type": "function"
    },
    {
      "constant": true,
      "inputs": [
        {
          "internalType": "address",
          "name": "account",
          "type": "address"
        }
      ],
      "name": "borrowBalanceStored",
      "outputs": [
        {
          "internalType": "uint256",
          "name": "",
          "type": "uint256"
        }
      ],
      "payable": false,
      "stateMutability": "view",
      "type": "function"
    },
    {
      "constant": true,
      "inputs": [],
      "name": "borrowIndex",
      "outputs": [
        {
          "internalType": "uint256",
          "name": "",
          "type": "uint256"
        }
      ],
      "payable": false,
      "stateMutability": "view",
      "type": "function"
    },
    {
      "constant": true,
      "inputs": [],
      "name": "borrowRatePerBlock",
      "outputs": [
        {
          "internalType": "uint256",
          "name": "",
          "type": "uint256"
        }
      ],
      "payable": false,
      "stateMutability": "view",
      "type": "function"
    },
    {
      "constant": true,
      "inputs": [],
      "name": "comptroller",
      "outputs": [
        {
          "internalType": "contract ComptrollerInterface",
          "name": "",
          "type": "address"
        }
      ],
      "payable": false,
      "stateMutability": "view",
      "type": "function"
    },
    {
      "constant": true,
      "inputs": [],
      "name": "daiJoinAddress",
      "outputs": [
        {
          "internalType": "address",
          "name": "",
          "type": "address"
        }
      ],
      "payable": false,
      "stateMutability": "view",
      "type": "function"
    },
    {
      "constant": true,
      "inputs": [],
      "name": "decimals",
      "outputs": [
        {
          "internalType": "uint8",
          "name": "",
          "type": "uint8"
        }
      ],
      "payable": false,
      "stateMutability": "view",
      "type": "function"
    },
    {
      "constant": false,
      "inputs": [],
      "name": "exchangeRateCurrent",
      "outputs": [
        {
          "internalType": "uint256",
          "name": "",
          "type": "uint256"
        }
      ],
      "payable": false,
      "stateMutability": "nonpayable",
      "type": "function"
    },
    {
      "constant": true,
      "inputs": [],
      "name": "exchangeRateStored",
      "outputs": [
        {
          "internalType": "uint256",
          "name": "",
          "type": "uint256"
        }
      ],
      "payable": false,
      "stateMutability": "view",
      "type": "function"
    },
    {
      "constant": true,
      "inputs": [
        {
          "internalType": "address",
          "name": "token",
          "type": "address"
        },
        {
          "internalType": "uint256",
          "name": "amount",
          "type": "uint256"
        }
      ],
      "name": "flashFee",
      "outputs": [
        {
          "internalType": "uint256",
          "name": "",
          "type": "uint256"
        }
      ],
      "payable": false,
      "stateMutability": "view",
      "type": "function"
    },
    {
      "constant": false,
      "inputs": [
        {
          "internalType": "contract IERC3156FlashBorrower",
          "name": "receiver",
          "type": "address"
        },
        {
          "internalType": "address",
          "name": "token",
          "type": "address"
        },
        {
          "internalType": "uint256",
          "name": "amount",
          "type": "uint256"
        },
        {
          "internalType": "bytes",
          "name": "data",
          "type": "bytes"
        }
      ],
      "name": "flashLoan",
      "outputs": [
        {
          "internalType": "bool",
          "name": "",
          "type": "bool"
        }
      ],
      "payable": false,
      "stateMutability": "nonpayable",
      "type": "function"
    },
    {
      "constant": true,
      "inputs": [
        {
          "internalType": "address",
          "name": "account",
          "type": "address"
        }
      ],
      "name": "getAccountSnapshot",
      "outputs": [
        {
          "internalType": "uint256",
          "name": "",
          "type": "uint256"
        },
        {
          "internalType": "uint256",
          "name": "",
          "type": "uint256"
        },
        {
          "internalType": "uint256",
          "name": "",
          "type": "uint256"
        },
        {
          "internalType": "uint256",
          "name": "",
          "type": "uint256"
        }
      ],
      "payable": false,
      "stateMutability": "view",
      "type": "function"
    },
    {
      "constant": true,
      "inputs": [],
      "name": "getCash",
      "outputs": [
        {
          "internalType": "uint256",
          "name": "",
          "type": "uint256"
        }
      ],
      "payable": false,
      "stateMutability": "view",
      "type": "function"
    },
    {
      "constant": true,
      "inputs": [],
      "name": "implementation",
      "outputs": [
        {
          "internalType": "address",
          "name": "",
          "type": "address"
        }
      ],
      "payable": false,
      "stateMutability": "view",
      "type": "function"
    },
    {
      "constant": false,
      "inputs": [
        {
          "internalType": "address",
          "name": "underlying_",
          "type": "address"
        },
        {
          "internalType": "contract ComptrollerInterface",
          "name": "comptroller_",
          "type": "address"
        },
        {
          "internalType": "contract InterestRateModel",
          "name": "interestRateModel_",
          "type": "address"
        },
        {
          "internalType": "uint256",
          "name": "initialExchangeRateMantissa_",
          "type": "uint256"
        },
        {
          "internalType": "string",
          "name": "name_",
          "type": "string"
        },
        {
          "internalType": "string",
          "name": "symbol_",
          "type": "string"
        },
        {
          "internalType": "uint8",
          "name": "decimals_",
          "type": "uint8"
        }
      ],
      "name": "initialize",
      "outputs": [],
      "payable": false,
      "stateMutability": "nonpayable",
      "type": "function"
    },
    {
      "constant": false,
      "inputs": [
        {
          "internalType": "contract ComptrollerInterface",
          "name": "comptroller_",
          "type": "address"
        },
        {
          "internalType": "contract InterestRateModel",
          "name": "interestRateModel_",
          "type": "address"
        },
        {
          "internalType": "uint256",
          "name": "initialExchangeRateMantissa_",
          "type": "uint256"
        },
        {
          "internalType": "string",
          "name": "name_",
          "type": "string"
        },
        {
          "internalType": "string",
          "name": "symbol_",
          "type": "string"
        },
        {
          "internalType": "uint8",
          "name": "decimals_",
          "type": "uint8"
        }
      ],
      "name": "initialize",
      "outputs": [],
      "payable": false,
      "stateMutability": "nonpayable",
      "type": "function"
    },
    {
      "constant": true,
      "inputs": [],
      "name": "interestRateModel",
      "outputs": [
        {
          "internalType": "contract InterestRateModel",
          "name": "",
          "type": "address"
        }
      ],
      "payable": false,
      "stateMutability": "view",
      "type": "function"
    },
    {
      "constant": true,
      "inputs": [],
      "name": "isCToken",
      "outputs": [
        {
          "internalType": "bool",
          "name": "",
          "type": "bool"
        }
      ],
      "payable": false,
      "stateMutability": "view",
      "type": "function"
    },
    {
      "constant": true,
      "inputs": [],
      "name": "isNativeToken",
      "outputs": [
        {
          "internalType": "bool",
          "name": "",
          "type": "bool"
        }
      ],
      "payable": false,
      "stateMutability": "pure",
      "type": "function"
    },
    {
      "constant": false,
      "inputs": [
        {
          "internalType": "address",
          "name": "borrower",
          "type": "address"
        },
        {
          "internalType": "uint256",
          "name": "repayAmount",
          "type": "uint256"
        },
        {
          "internalType": "contract CTokenInterface",
          "name": "cTokenCollateral",
          "type": "address"
        }
      ],
      "name": "liquidateBorrow",
      "outputs": [
        {
          "internalType": "uint256",
          "name": "",
          "type": "uint256"
        }
      ],
      "payable": false,
      "stateMutability": "nonpayable",
      "type": "function"
    },
    {
      "constant": true,
      "inputs": [
        {
          "internalType": "address",
          "name": "token",
          "type": "address"
        }
      ],
      "name": "maxFlashLoan",
      "outputs": [
        {
          "internalType": "uint256",
          "name": "",
          "type": "uint256"
        }
      ],
      "payable": false,
      "stateMutability": "view",
      "type": "function"
    },
    {
      "constant": false,
      "inputs": [
        {
          "internalType": "uint256",
          "name": "mintAmount",
          "type": "uint256"
        }
      ],
      "name": "mint",
      "outputs": [
        {
          "internalType": "uint256",
          "name": "",
          "type": "uint256"
        }
      ],
      "payable": false,
      "stateMutability": "nonpayable",
      "type": "function"
    },
    {
      "constant": true,
      "inputs": [],
      "name": "name",
      "outputs": [
        {
          "internalType": "string",
          "name": "",
          "type": "string"
        }
      ],
      "payable": false,
      "stateMutability": "view",
      "type": "function"
    },
    {
      "constant": true,
      "inputs": [],
      "name": "pendingAdmin",
      "outputs": [
        {
          "internalType": "address payable",
          "name": "",
          "type": "address"
        }
      ],
      "payable": false,
      "stateMutability": "view",
      "type": "function"
    },
    {
      "constant": true,
      "inputs": [],
      "name": "potAddress",
      "outputs": [
        {
          "internalType": "address",
          "name": "",
          "type": "address"
        }
      ],
      "payable": false,
      "stateMutability": "view",
      "type": "function"
    },
    {
      "constant": false,
      "inputs": [
        {
          "internalType": "uint256",
          "name": "redeemTokens",
          "type": "uint256"
        }
      ],
      "name": "redeem",
      "outputs": [
        {
          "internalType": "uint256",
          "name": "",
          "type": "uint256"
        }
      ],
      "payable": false,
      "stateMutability": "nonpayable",
      "type": "function"
    },
    {
      "constant": false,
      "inputs": [
        {
          "internalType": "uint256",
          "name": "redeemAmount",
          "type": "uint256"
        }
      ],
      "name": "redeemUnderlying",
      "outputs": [
        {
          "internalType": "uint256",
          "name": "",
          "type": "uint256"
        }
      ],
      "payable": false,
      "stateMutability": "nonpayable",
      "type": "function"
    },
    {
      "constant": false,
      "inputs": [
        {
          "internalType": "uint256",
          "name": "repayAmount",
          "type": "uint256"
        }
      ],
      "name": "repayBorrow",
      "outputs": [
        {
          "internalType": "uint256",
          "name": "",
          "type": "uint256"
        }
      ],
      "payable": false,
      "stateMutability": "nonpayable",
      "type": "function"
    },
    {
      "constant": false,
      "inputs": [
        {
          "internalType": "address",
          "name": "borrower",
          "type": "address"
        },
        {
          "internalType": "uint256",
          "name": "repayAmount",
          "type": "uint256"
        }
      ],
      "name": "repayBorrowBehalf",
      "outputs": [
        {
          "internalType": "uint256",
          "name": "",
          "type": "uint256"
        }
      ],
      "payable": false,
      "stateMutability": "nonpayable",
      "type": "function"
    },
    {
      "constant": true,
      "inputs": [],
      "name": "reserveFactorMantissa",
      "outputs": [
        {
          "internalType": "uint256",
          "name": "",
          "type": "uint256"
        }
      ],
      "payable": false,
      "stateMutability": "view",
      "type": "function"
    },
    {
      "constant": false,
      "inputs": [
        {
          "internalType": "address",
          "name": "liquidator",
          "type": "address"
        },
        {
          "internalType": "address",
          "name": "borrower",
          "type": "address"
        },
        {
          "internalType": "uint256",
          "name": "seizeTokens",
          "type": "uint256"
        }
      ],
      "name": "seize",
      "outputs": [
        {
          "internalType": "uint256",
          "name": "",
          "type": "uint256"
        }
      ],
      "payable": false,
      "stateMutability": "nonpayable",
      "type": "function"
    },
    {
      "constant": true,
      "inputs": [],
      "name": "supplyRatePerBlock",
      "outputs": [
        {
          "internalType": "uint256",
          "name": "",
          "type": "uint256"
        }
      ],
      "payable": false,
      "stateMutability": "view",
      "type": "function"
    },
    {
      "constant": true,
      "inputs": [],
      "name": "symbol",
      "outputs": [
        {
          "internalType": "string",
          "name": "",
          "type": "string"
        }
      ],
      "payable": false,
      "stateMutability": "view",
      "type": "function"
    },
    {
      "constant": true,
      "inputs": [],
      "name": "totalBorrows",
      "outputs": [
        {
          "internalType": "uint256",
          "name": "",
          "type": "uint256"
        }
      ],
      "payable": false,
      "stateMutability": "view",
      "type": "function"
    },
    {
      "constant": false,
      "inputs": [],
      "name": "totalBorrowsCurrent",
      "outputs": [
        {
          "internalType": "uint256",
          "name": "",
          "type": "uint256"
        }
      ],
      "payable": false,
      "stateMutability": "nonpayable",
      "type": "function"
    },
    {
      "constant": true,
      "inputs": [],
      "name": "totalReserves",
      "outputs": [
        {
          "internalType": "uint256",
          "name": "",
          "type": "uint256"
        }
      ],
      "payable": false,
      "stateMutability": "view",
      "type": "function"
    },
    {
      "constant": true,
      "inputs": [],
      "name": "totalSupply",
      "outputs": [
        {
          "internalType": "uint256",
          "name": "",
          "type": "uint256"
        }
      ],
      "payable": false,
      "stateMutability": "view",
      "type": "function"
    },
    {
      "constant": false,
      "inputs": [
        {
          "internalType": "address",
          "name": "dst",
          "type": "address"
        },
        {
          "internalType": "uint256",
          "name": "amount",
          "type": "uint256"
        }
      ],
      "name": "transfer",
      "outputs": [
        {
          "internalType": "bool",
          "name": "",
          "type": "bool"
        }
      ],
      "payable": false,
      "stateMutability": "nonpayable",
      "type": "function"
    },
    {
      "constant": false,
      "inputs": [
        {
          "internalType": "address",
          "name": "src",
          "type": "address"
        },
        {
          "internalType": "address",
          "name": "dst",
          "type": "address"
        },
        {
          "internalType": "uint256",
          "name": "amount",
          "type": "uint256"
        }
      ],
      "name": "transferFrom",
      "outputs": [
        {
          "internalType": "bool",
          "name": "",
          "type": "bool"
        }
      ],
      "payable": false,
      "stateMutability": "nonpayable",
      "type": "function"
    },
    {
      "constant": true,
      "inputs": [],
      "name": "underlying",
      "outputs": [
        {
          "internalType": "address",
          "name": "",
          "type": "address"
        }
      ],
      "payable": false,
      "stateMutability": "view",
      "type": "function"
    },
    {
      "constant": true,
      "inputs": [],
      "name": "vatAddress",
      "outputs": [
        {
          "internalType": "address",
          "name": "",
          "type": "address"
        }
      ],
      "payable": false,
      "stateMutability": "view",
      "type": "function"
    },
    {
      "constant": false,
      "inputs": [
        {
          "internalType": "bytes",
          "name": "data",
          "type": "bytes"
        }
      ],
      "name": "_becomeImplementation",
      "outputs": [],
      "payable": false,
      "stateMutability": "nonpayable",
      "type": "function"
    },
    {
      "constant": false,
      "inputs": [],
      "name": "_resignImplementation",
      "outputs": [],
      "payable": false,
      "stateMutability": "nonpayable",
      "type": "function"
    },
    {
      "constant": false,
      "inputs": [],
      "name": "accrueInterest",
      "outputs": [
        {
          "internalType": "uint256",
          "name": "",
          "type": "uint256"
        }
      ],
      "payable": false,
      "stateMutability": "nonpayable",
      "type": "function"
    }
  ],
  "bytecode": "0x6080604052616029806100136000396000f3fe608060405234801561001057600080fd5b50600436106102ae5760003560e01c8063852a12e31161016e578063852a12e3146108255780638a8df2e6146108425780638d925ccd1461084a5780638f840ddd1461085257806395d89b411461085a57806395dd91931461086257806399d8c1b4146108885780639af4ee7e146109d6578063a0712d68146109de578063a6afed95146109fb578063a9059cbb14610a03578063aa5af0fd14610a2f578063ae9d70b014610a37578063b2a02ff114610a3f578063b71d1a0c14610a75578063bd6d894d14610a9b578063c37f68e214610aa3578063c5ebeaec14610aef578063d9d98ce414610b0c578063db006a7514610b38578063dd62ed3e14610b55578063e9c714f214610b83578063f2b3abbd14610b8b578063f3fdb15a14610bb1578063f5e3c46214610bb9578063f851a44014610bef578063f8f9da2814610bf7578063fca7820b14610bff578063fe9c44ae14610c1c576102ae565b806306fdde03146102b3578063095ea7b3146103305780630e75270214610370578063153ab5051461039f578063173b9904146103a957806317bfdfbc146103b157806318160ddd146103d7578063182df0f5146103df5780631a31d465146103e757806323b872dd1461053d5780632608f81814610573578063267822471461059f578063313ce567146105c35780633af9e669146105e15780633b1d21a2146106075780633e9410101461060f5780634576b5db1461062c57806347bd37181461065257806356e677281461065a5780635c60da1b146106fe5780635cffe9de146107065780635fe3b56714610794578063601a0bf11461079c578063613255ab146107b957806366ced602146107df5780636c540baf146107e75780636f307dc3146107ef57806370a08231146107f757806373acee981461081d575b600080fd5b6102bb610c24565b6040805160208082528351818301528351919283929083019185019080838360005b838110156102f55781810151838201526020016102dd565b50505050905090810190601f1680156103225780820380516001836020036101000a031916815260200191505b509250505060405180910390f35b61035c6004803603604081101561034657600080fd5b506001600160a01b038135169060200135610cb1565b604080519115158252519081900360200190f35b61038d6004803603602081101561038657600080fd5b5035610d1e565b60408051918252519081900360200190f35b6103a7610d34565b005b61038d610fd1565b61038d600480360360208110156103c757600080fd5b50356001600160a01b0316610fd7565b61038d611097565b61038d61109d565b6103a7600480360360e08110156103fd57600080fd5b6001600160a01b03823581169260208101358216926040820135909216916060820135919081019060a081016080820135600160201b81111561043f57600080fd5b82018360208201111561045157600080fd5b803590602001918460018302840111600160201b8311171561047257600080fd5b91908080601f0160208091040260200160405190810160405280939291908181526020018383808284376000920191909152509295949360208101935035915050600160201b8111156104c457600080fd5b8201836020820111156104d657600080fd5b803590602001918460018302840111600160201b831117156104f757600080fd5b91908080601f0160208091040260200160405190810160405280939291908181526020018383808284376000920191909152509295505050903560ff1691506111009050565b61035c6004803603606081101561055357600080fd5b506001600160a01b03813581169160208101359091169060400135611194565b61038d6004803603604081101561058957600080fd5b506001600160a01b038135169060200135611206565b6105a761121c565b604080516001600160a01b039092168252519081900360200190f35b6105cb61122b565b6040805160ff9092168252519081900360200190f35b61038d600480360360208110156105f757600080fd5b50356001600160a01b0316611234565b61038d6112ea565b61038d6004803603602081101561062557600080fd5b50356112f9565b61038d6004803603602081101561064257600080fd5b50356001600160a01b0316611304565b61038d611458565b6103a76004803603602081101561067057600080fd5b810190602081018135600160201b81111561068a57600080fd5b82018360208201111561069c57600080fd5b803590602001918460018302840111600160201b831117156106bd57600080fd5b91908080601f01602080910402602001604051908101604052809392919081815260200183838082843760009201919091525092955061145e945050505050565b6105a76114e1565b61035c6004803603608081101561071c57600080fd5b6001600160a01b03823581169260208101359091169160408201359190810190608081016060820135600160201b81111561075657600080fd5b82018360208201111561076857600080fd5b803590602001918460018302840111600160201b8311171561078957600080fd5b5090925090506114f0565b6105a761178c565b61038d600480360360208110156107b257600080fd5b503561179b565b61038d600480360360208110156107cf57600080fd5b50356001600160a01b0316611836565b6105a76118b3565b61038d6118c2565b6105a76118c8565b61038d6004803603602081101561080d57600080fd5b50356001600160a01b03166118d7565b61038d6118f2565b61038d6004803603602081101561083b57600080fd5b50356119a8565b6105a76119b3565b6105a76119c2565b61038d6119d1565b6102bb6119d7565b61038d6004803603602081101561087857600080fd5b50356001600160a01b0316611a2f565b6103a7600480360360c081101561089e57600080fd5b6001600160a01b03823581169260208101359091169160408201359190810190608081016060820135600160201b8111156108d857600080fd5b8201836020820111156108ea57600080fd5b803590602001918460018302840111600160201b8311171561090b57600080fd5b91908080601f0160208091040260200160405190810160405280939291908181526020018383808284376000920191909152509295949360208101935035915050600160201b81111561095d57600080fd5b82018360208201111561096f57600080fd5b803590602001918460018302840111600160201b8311171561099057600080fd5b91908080601f0160208091040260200160405190810160405280939291908181526020018383808284376000920191909152509295505050903560ff169150611a8c9050565b61035c611c70565b61038d600480360360208110156109f457600080fd5b5035611c75565b61038d611c81565b61035c60048036036040811015610a1957600080fd5b506001600160a01b038135169060200135611cfc565b61038d611d6d565b61038d611d73565b61038d60048036036060811015610a5557600080fd5b506001600160a01b03813581169160208101359091169060400135611e12565b61038d60048036036020811015610a8b57600080fd5b50356001600160a01b0316611e83565b61038d611f0f565b610ac960048036036020811015610ab957600080fd5b50356001600160a01b0316611fcb565b604080519485526020850193909352838301919091526060830152519081900360800190f35b61038d60048036036020811015610b0557600080fd5b5035612060565b61038d60048036036040811015610b2257600080fd5b506001600160a01b03813516906020013561206b565b61038d60048036036020811015610b4e57600080fd5b5035612077565b61038d60048036036040811015610b6b57600080fd5b506001600160a01b0381358116916020013516612082565b61038d6120ad565b61038d60048036036020811015610ba157600080fd5b50356001600160a01b03166121b0565b6105a76121ea565b61038d60048036036060811015610bcf57600080fd5b506001600160a01b038135811691602081013591604090910135166121f9565b6105a7612211565b61038d612225565b61038d60048036036020811015610c1557600080fd5b5035612289565b61035c612307565b60018054604080516020600284861615610100026000190190941693909304601f81018490048402820184019092528181529291830182828015610ca95780601f10610c7e57610100808354040283529160200191610ca9565b820191906000526020600020905b815481529060010190602001808311610c8c57829003601f168201915b505050505081565b336000818152600f602090815260408083206001600160a01b03871680855290835281842086905581518681529151939493909284927f8c5be1e5ebec7d5bd14f71427d1e84f3dd0314c0f7b2291e5b200ac8c7c3b925929081900390910190a360019150505b92915050565b600080610d2a8361230c565b509150505b919050565b60035461010090046001600160a01b03163314610d825760405162461bcd60e51b815260040180806020018281038252602d815260200180615dad602d913960400191505060405180910390fd5b60135460145460155460408051634fb3c66560e11b815290516001600160a01b039485169493841693909216918391639f678cca9160048083019260209291908290030181600087803b158015610dd857600080fd5b505af1158015610dec573d6000803e3d6000fd5b505050506040513d6020811015610e0257600080fd5b5050604080516305f5d64360e11b815230600482015290516000916001600160a01b03851691630bebac8691602480820192602092909190829003018186803b158015610e4e57600080fd5b505afa158015610e62573d6000803e3d6000fd5b505050506040513d6020811015610e7857600080fd5b505160408051637f8661a160e01b81526004810183905290519192506001600160a01b03851691637f8661a19160248082019260009290919082900301818387803b158015610ec657600080fd5b505af1158015610eda573d6000803e3d6000fd5b505060408051633612d9a360e11b81523060048201529051600093506001600160a01b0386169250636c25b34691602480820192602092909190829003018186803b158015610f2857600080fd5b505afa158015610f3c573d6000803e3d6000fd5b505050506040513d6020811015610f5257600080fd5b50516040805163ef693bed60e01b8152306004820152676765c793fa10079d601b1b8304602482015290519192506001600160a01b0387169163ef693bed9160448082019260009290919082900301818387803b158015610fb257600080fd5b505af1158015610fc6573d6000803e3d6000fd5b505050505050505050565b60085481565b6000805460ff1661101c576040805162461bcd60e51b815260206004820152600a6024820152691c994b595b9d195c995960b21b604482015290519081900360640190fd5b6000805460ff1916815561102e611c81565b14611079576040805162461bcd60e51b81526020600482015260166024820152751858d8dc9d59481a5b9d195c995cdd0819985a5b195960521b604482015290519081900360640190fd5b61108282611a2f565b90505b6000805460ff19166001179055919050565b600d5481565b60008060006110aa6123b5565b909250905060008260038111156110bd57fe5b146110f95760405162461bcd60e51b8152600401808060200182810382526035815260200180615f406035913960400191505060405180910390fd5b9150505b90565b61110e868686868686611a8c565b601180546001600160a01b0319166001600160a01b038981169190911791829055604080516318160ddd60e01b8152905192909116916318160ddd91600480820192602092909190829003018186803b15801561116a57600080fd5b505afa15801561117e573d6000803e3d6000fd5b505050506040513d6020811015610fc657600080fd5b6000805460ff166111d9576040805162461bcd60e51b815260206004820152600a6024820152691c994b595b9d195c995960b21b604482015290519081900360640190fd5b6000805460ff191681556111ef33868686612464565b1490506000805460ff191660011790559392505050565b60008061121384846126f1565b50949350505050565b6004546001600160a01b031681565b60035460ff1681565b600061123e615b34565b6040518060200160405280611251611f0f565b90526001600160a01b0384166000908152600e602052604081205491925090819061127d90849061279c565b9092509050600082600381111561129057fe5b146112e2576040805162461bcd60e51b815260206004820152601f60248201527f62616c616e636520636f756c64206e6f742062652063616c63756c6174656400604482015290519081900360640190fd5b949350505050565b60006112f46127f0565b905090565b6000610d1882612901565b60035460009061010090046001600160a01b031633146113315761132a6001603f612995565b9050610d2f565b60055460408051623f1ee960e11b815290516001600160a01b0392831692851691627e3dd2916004808301926020929190829003018186803b15801561137657600080fd5b505afa15801561138a573d6000803e3d6000fd5b505050506040513d60208110156113a057600080fd5b50516113f2576040805162461bcd60e51b815260206004820152601c60248201527b6d61726b6572206d6574686f642072657475726e65642066616c736560201b604482015290519081900360640190fd5b600580546001600160a01b0319166001600160a01b03858116918217909255604080519284168352602083019190915280517f7ac369dbd14fa5ea3f473ed67cc9d598964a77501540ba6751eb0b3decf5870d9281900390910190a160005b9392505050565b600b5481565b60035461010090046001600160a01b031633146114ac5760405162461bcd60e51b8152600401808060200182810382526030815260200180615d036030913960400191505060405180910390fd5b6000808280602001905160408110156114c457600080fd5b50805160209091015190925090506114dc82826129fb565b505050565b6012546001600160a01b031681565b6000806114fb611c81565b14611546576040805162461bcd60e51b81526020600482015260166024820152751058d8dc9d59481a5b9d195c995cdd0819985a5b195960521b604482015290519081900360640190fd5b60006115506127f0565b9050848110156115a0576040805162461bcd60e51b8152602060048201526016602482015275496e73756666696369656e74206c697175696469747960501b604482015290519081900360640190fd5b60006115ac8787612d16565b90506115b88887612e11565b6115c4600b5487612f75565b600b556040516323e30c8b60e01b815233600482018181526001600160a01b038a81166024850152604484018a90526064840185905260a06084850190815260a48501899052908c16936323e30c8b93928c928c9288928d928d9260c401848480828437600081840152601f19601f820116905080830192505050975050505050505050602060405180830381600087803b15801561166257600080fd5b505af1158015611676573d6000803e3d6000fd5b505050506040513d602081101561168c57600080fd5b50600090506116996127f0565b90506116a58383612f75565b8110156116f0576040805162461bcd60e51b8152602060048201526014602482015273496e636f6e73697374656e742062616c616e636560601b604482015290519081900360640190fd5b60008061170d60405180602001604052806008548152508561279c565b9092509050600082600381111561172057fe5b1461175c5760405162461bcd60e51b8152600401808060200182810382526028815260200180615d636028913960400191505060405180910390fd5b611768600c5482612f75565b600c55600b54611778908a612fab565b600b555060019a9950505050505050505050565b6005546001600160a01b031681565b6000805460ff166117e0576040805162461bcd60e51b815260206004820152600a6024820152691c994b595b9d195c995960b21b604482015290519081900360640190fd5b6000805460ff191681556117f2611c81565b905080156118185761181081601081111561180957fe5b6030612995565b915050611085565b61182183612fe5565b9150506000805460ff19166001179055919050565b6005546040805163e0fbf09d60e01b815230600482015290516000926001600160a01b03169163e0fbf09d916024808301926020929190829003018186803b15801561188157600080fd5b505afa158015611895573d6000803e3d6000fd5b505050506040513d60208110156118ab57600080fd5b505192915050565b6014546001600160a01b031681565b60095481565b6011546001600160a01b031681565b6001600160a01b03166000908152600e602052604090205490565b6000805460ff16611937576040805162461bcd60e51b815260206004820152600a6024820152691c994b595b9d195c995960b21b604482015290519081900360640190fd5b6000805460ff19168155611949611c81565b14611994576040805162461bcd60e51b81526020600482015260166024820152751858d8dc9d59481a5b9d195c995cdd0819985a5b195960521b604482015290519081900360640190fd5b50600b546000805460ff1916600117905590565b6000610d1882613118565b6013546001600160a01b031681565b6015546001600160a01b031681565b600c5481565b6002805460408051602060018416156101000260001901909316849004601f81018490048402820184019092528181529291830182828015610ca95780601f10610c7e57610100808354040283529160200191610ca9565b6000806000611a3d84613199565b90925090506000826003811115611a5057fe5b146114515760405162461bcd60e51b8152600401808060200182810382526037815260200180615e056037913960400191505060405180910390fd5b60035461010090046001600160a01b03163314611ada5760405162461bcd60e51b8152600401808060200182810382526024815260200180615cbc6024913960400191505060405180910390fd5b600954158015611aea5750600a54155b611b255760405162461bcd60e51b8152600401808060200182810382526023815260200180615ce06023913960400191505060405180910390fd5b600784905583611b665760405162461bcd60e51b8152600401808060200182810382526030815260200180615d336030913960400191505060405180910390fd5b6000611b7187611304565b90508015611bc3576040805162461bcd60e51b815260206004820152601a6024820152791cd95d1d1a5b99c818dbdb5c1d1c9bdb1b195c8819985a5b195960321b604482015290519081900360640190fd5b611bcb61324d565b600955670de0b6b3a7640000600a55611be386613251565b90508015611c225760405162461bcd60e51b8152600401808060200182810382526022815260200180615d8b6022913960400191505060405180910390fd5b8351611c35906001906020870190615b47565b508251611c49906002906020860190615b47565b50506003805460ff90921660ff199283161790556000805490911660011790555050505050565b600090565b600080610d2a836133c5565b60145460408051634fb3c66560e11b815290516000926001600160a01b031691639f678cca91600480830192602092919082900301818787803b158015611cc757600080fd5b505af1158015611cdb573d6000803e3d6000fd5b505050506040513d6020811015611cf157600080fd5b506112f49050613446565b6000805460ff16611d41576040805162461bcd60e51b815260206004820152600a6024820152691c994b595b9d195c995960b21b604482015290519081900360640190fd5b6000805460ff19168155611d5733338686612464565b1490506000805460ff1916600117905592915050565b600a5481565b6006546000906001600160a01b031663b8168816611d8f6127f0565b600b54600c546008546040518563ffffffff1660e01b81526004018085815260200184815260200183815260200182815260200194505050505060206040518083038186803b158015611de157600080fd5b505afa158015611df5573d6000803e3d6000fd5b505050506040513d6020811015611e0b57600080fd5b5051905090565b6000805460ff16611e57576040805162461bcd60e51b815260206004820152600a6024820152691c994b595b9d195c995960b21b604482015290519081900360640190fd5b6000805460ff19169055611e6d3385858561379d565b90506000805460ff191660011790559392505050565b60035460009061010090046001600160a01b03163314611ea95761132a60016045612995565b600480546001600160a01b038481166001600160a01b0319831681179093556040805191909216808252602082019390935281517fca4f2f25d0898edd99413412fb94012f9e54ec8142f9b093e7720646a95b16a9929181900390910190a16000611451565b6000805460ff16611f54576040805162461bcd60e51b815260206004820152600a6024820152691c994b595b9d195c995960b21b604482015290519081900360640190fd5b6000805460ff19168155611f66611c81565b14611fb1576040805162461bcd60e51b81526020600482015260166024820152751858d8dc9d59481a5b9d195c995cdd0819985a5b195960521b604482015290519081900360640190fd5b611fb961109d565b90506000805460ff1916600117905590565b6001600160a01b0381166000908152600e6020526040812054819081908190818080611ff689613199565b93509050600081600381111561200857fe5b146120265760095b9750600096508695508594506120599350505050565b61202e6123b5565b92509050600081600381111561204057fe5b1461204c576009612010565b5060009650919450925090505b9193509193565b6000610d1882613c14565b60006114518383612d16565b6000610d1882613c93565b6001600160a01b039182166000908152600f6020908152604080832093909416825291909152205490565b6004546000906001600160a01b0316331415806120c8575033155b156120e0576120d960016000612995565b90506110fd565b60038054600480546001600160a01b03818116610100818102610100600160a81b0319871617968790556001600160a01b031990931690935560408051948390048216808652929095041660208401528351909391927ff9ffabca9c8276e99321725bcb43fb076a6c66a54b7f21c4e8146d8519b417dc92908290030190a1600454604080516001600160a01b038085168252909216602083015280517fca4f2f25d0898edd99413412fb94012f9e54ec8142f9b093e7720646a95b16a99281900390910190a160009250505090565b6000806121bb611c81565b905080156121e1576121d98160108111156121d257fe5b6040612995565b915050610d2f565b61145183613251565b6006546001600160a01b031681565b600080612207858585613d0d565b5095945050505050565b60035461010090046001600160a01b031681565b6006546000906001600160a01b03166315f240536122416127f0565b600b54600c546040518463ffffffff1660e01b815260040180848152602001838152602001828152602001935050505060206040518083038186803b158015611de157600080fd5b6000805460ff166122ce576040805162461bcd60e51b815260206004820152600a6024820152691c994b595b9d195c995960b21b604482015290519081900360640190fd5b6000805460ff191681556122e0611c81565b905080156122fe576118108160108111156122f757fe5b6046612995565b61182183613e3f565b600181565b60008054819060ff16612353576040805162461bcd60e51b815260206004820152600a6024820152691c994b595b9d195c995960b21b604482015290519081900360640190fd5b6000805460ff19168155612365611c81565b905080156123905761238381601081111561237c57fe5b6036612995565b9250600091506123a19050565b61239b333386613ee7565b92509250505b6000805460ff191660011790559092909150565b600d546000908190806123d057505060075460009150612460565b60006123da6127f0565b905060006123e6615b34565b60006123f784600b54600c54614237565b93509050600081600381111561240957fe5b1461241e579550600094506124609350505050565b6124288386614283565b92509050600081600381111561243a57fe5b1461244f579550600094506124609350505050565b505160009550935061246092505050565b9091565b600554604080516317b9b84b60e31b81523060048201526001600160a01b03868116602483015285811660448301526064820185905291516000938493169163bdcdc25891608480830192602092919082900301818787803b1580156124c957600080fd5b505af11580156124dd573d6000803e3d6000fd5b505050506040513d60208110156124f357600080fd5b5051905080156125125761250a6003604a83614333565b9150506112e2565b836001600160a01b0316856001600160a01b031614156125385761250a6002604b612995565b60006001600160a01b038781169087161415612557575060001961257f565b506001600160a01b038086166000908152600f60209081526040808320938a16835292905220545b60008060008061258f8589614399565b909450925060008460038111156125a257fe5b146125c0576125b36009604b612995565b96505050505050506112e2565b6001600160a01b038a166000908152600e60205260409020546125e39089614399565b909450915060008460038111156125f657fe5b14612607576125b36009604c612995565b6001600160a01b0389166000908152600e602052604090205461262a90896143bc565b9094509050600084600381111561263d57fe5b1461264e576125b36009604d612995565b6001600160a01b03808b166000908152600e6020526040808220859055918b1681522081905560001985146126a6576001600160a01b03808b166000908152600f60209081526040808320938f168352929052208390555b886001600160a01b03168a6001600160a01b0316600080516020615e988339815191528a6040518082815260200191505060405180910390a360005b9b9a5050505050505050505050565b60008054819060ff16612738576040805162461bcd60e51b815260206004820152600a6024820152691c994b595b9d195c995960b21b604482015290519081900360640190fd5b6000805460ff1916815561274a611c81565b905080156127755761276881601081111561276157fe5b6035612995565b9250600091506127869050565b612780338686613ee7565b92509250505b6000805460ff1916600117905590939092509050565b60008060006127a9615b34565b6127b386866143e2565b909250905060008260038111156127c657fe5b146127d757509150600090506127e9565b60006127e28261444a565b9350935050505b9250929050565b601454604080516305f5d64360e11b815230600482015290516000926001600160a01b03169183918391630bebac86916024808301926020929190829003018186803b15801561283f57600080fd5b505afa158015612853573d6000803e3d6000fd5b505050506040513d602081101561286957600080fd5b50516040805163324abb3160e21b81529051919250676765c793fa10079d601b1b916128f2916001600160a01b0386169163c92aecc491600480820192602092909190829003018186803b1580156128c057600080fd5b505afa1580156128d4573d6000803e3d6000fd5b505050506040513d60208110156128ea57600080fd5b505183614459565b816128f957fe5b049250505090565b6000805460ff16612946576040805162461bcd60e51b815260206004820152600a6024820152691c994b595b9d195c995960b21b604482015290519081900360640190fd5b6000805460ff19168155612958611c81565b905080156129765761181081601081111561296f57fe5b604e612995565b61297f836144b4565b509150506000805460ff19166001179055919050565b60007f45b96fe442630264581b197e84bbada861235052c5a1aadfff9ea4e40a969aa08360108111156129c457fe5b8360508111156129d057fe5b604080519283526020830191909152600082820152519081900360600190a182601081111561145157fe5b600082905060008290506000826001600160a01b031663f4b9fa756040518163ffffffff1660e01b8152600401602060405180830381600087803b158015612a4257600080fd5b505af1158015612a56573d6000803e3d6000fd5b505050506040513d6020811015612a6c57600080fd5b5051604080516336569e7760e01b815290519192506000916001600160a01b038616916336569e7791600480830192602092919082900301818787803b158015612ab557600080fd5b505af1158015612ac9573d6000803e3d6000fd5b505050506040513d6020811015612adf57600080fd5b50516011549091506001600160a01b03838116911614612b305760405162461bcd60e51b8152600401808060200182810382526022815260200180615e3c6022913960400191505060405180910390fd5b601380546001600160a01b038089166001600160a01b0319928316179283905560148054898316908416179055601580548583169316929092179091556040805163095ea7b360e01b815292821660048401526000196024840152519084169163095ea7b391604480830192600092919082900301818387803b158015612bb657600080fd5b505af1158015612bca573d6000803e3d6000fd5b5050601454604080516328ec8bf160e21b81526001600160a01b0392831660048201529051918516935063a3b22fc4925060248082019260009290919082900301818387803b158015612c1c57600080fd5b505af1158015612c30573d6000803e3d6000fd5b5050601354604080516328ec8bf160e21b81526001600160a01b0392831660048201529051918516935063a3b22fc4925060248082019260009290919082900301818387803b158015612c8257600080fd5b505af1158015612c96573d6000803e3d6000fd5b50505050826001600160a01b0316639f678cca6040518163ffffffff1660e01b8152600401602060405180830381600087803b158015612cd557600080fd5b505af1158015612ce9573d6000803e3d6000fd5b505050506040513d6020811015612cff57600080fd5b50612d0d905030600061459c565b50505050505050565b600554604080516306995d7d60e41b815290516000926001600160a01b031691636995d7d0916004808301926020929190829003018186803b158015612d5b57600080fd5b505afa158015612d6f573d6000803e3d6000fd5b505050506040513d6020811015612d8557600080fd5b50516040805163638d09e360e11b81523360048201526001600160a01b038681166024830152604482018690529151919092169163c71a13c6916064808301926020929190829003018186803b158015612dde57600080fd5b505afa158015612df2573d6000803e3d6000fd5b505050506040513d6020811015612e0857600080fd5b50519392505050565b6013546014546040805163324abb3160e21b815290516001600160a01b039384169390921691600091612eb591849163c92aecc4916004808301926020929190829003018186803b158015612e6557600080fd5b505afa158015612e79573d6000803e3d6000fd5b505050506040513d6020811015612e8f57600080fd5b5051612ea686676765c793fa10079d601b1b614459565b81612ead57fe5b0460016148c1565b9050816001600160a01b0316637f8661a1826040518263ffffffff1660e01b815260040180828152602001915050600060405180830381600087803b158015612efd57600080fd5b505af1158015612f11573d6000803e3d6000fd5b50505050826001600160a01b031663ef693bed86866040518363ffffffff1660e01b815260040180836001600160a01b03166001600160a01b0316815260200182815260200192505050600060405180830381600087803b158015610fb257600080fd5b60006114518383604051806040016040528060118152602001706164646974696f6e206f766572666c6f7760781b815250614908565b60006114518383604051806040016040528060158152602001747375627472616374696f6e20756e646572666c6f7760581b81525061499a565b600354600090819061010090046001600160a01b0316331461300d576121d960016031612995565b61301561324d565b60095414613029576121d9600a6033612995565b826130326127f0565b1015613044576121d9600e6032612995565b600c5483111561305a576121d960026034612995565b50600c54828103908111156130a05760405162461bcd60e51b8152600401808060200182810382526024815260200180615fd16024913960400191505060405180910390fd5b600c8190556003546130c09061010090046001600160a01b031684612e11565b600354604080516101009092046001600160a01b0316825260208201859052818101839052517f3bad0c59cf2f06e7314077049f48a93578cd16f5ef92329f1dab1420a99c177e916060908290030190a16000611451565b6000805460ff1661315d576040805162461bcd60e51b815260206004820152600a6024820152691c994b595b9d195c995960b21b604482015290519081900360640190fd5b6000805460ff1916815561316f611c81565b9050801561318d5761181081601081111561318657fe5b6027612995565b611821336000856149f4565b6001600160a01b0381166000908152601060205260408120805482918291829182916131d057506000945084935061324892505050565b6131e08160000154600a54614ebb565b909450925060008460038111156131f357fe5b14613208575091935060009250613248915050565b613216838260010154614efa565b9094509150600084600381111561322957fe5b1461323e575091935060009250613248915050565b5060009450925050505b915091565b4390565b600354600090819061010090046001600160a01b03163314613279576121d960016042612995565b61328161324d565b60095414613295576121d9600a6041612995565b600660009054906101000a90046001600160a01b03169050826001600160a01b0316632191f92a6040518163ffffffff1660e01b815260040160206040518083038186803b1580156132e657600080fd5b505afa1580156132fa573d6000803e3d6000fd5b505050506040513d602081101561331057600080fd5b5051613362576040805162461bcd60e51b815260206004820152601c60248201527b6d61726b6572206d6574686f642072657475726e65642066616c736560201b604482015290519081900360640190fd5b600680546001600160a01b0319166001600160a01b03858116918217909255604080519284168352602083019190915280517fedffc32e068c7c95dfd4bdfd5c4d939a084d6b11c4199eac8436ed234d72f9269281900390910190a16000611451565b60008054819060ff1661340c576040805162461bcd60e51b815260206004820152600a6024820152691c994b595b9d195c995960b21b604482015290519081900360640190fd5b6000805460ff1916815561341e611c81565b9050801561343c5761238381601081111561343557fe5b601e612995565b61239b3385614f25565b60008061345161324d565b6009549091508082141561346a576000925050506110fd565b60006134746127f0565b600b54600c54600a54600654604080516315f2405360e01b815260048101879052602481018690526044810185905290519596509394929391926000926001600160a01b03909216916315f24053916064808301926020929190829003018186803b1580156134e257600080fd5b505afa1580156134f6573d6000803e3d6000fd5b505050506040513d602081101561350c57600080fd5b5051905065048c2739500081111561356a576040805162461bcd60e51b815260206004820152601c60248201527b0c4dee4e4deee40e4c2e8ca40d2e640c2c4e6eae4c8d8f240d0d2ced60231b604482015290519081900360640190fd5b6000806135778989614399565b9092509050600082600381111561358a57fe5b146135dc576040805162461bcd60e51b815260206004820152601f60248201527f636f756c64206e6f742063616c63756c61746520626c6f636b2064656c746100604482015290519081900360640190fd5b6135e4615b34565b60008060008061360260405180602001604052808a815250876143e2565b9097509450600087600381111561361557fe5b14613647576136326009600689600381111561362d57fe5b614333565b9e5050505050505050505050505050506110fd565b613651858c61279c565b9097509350600087600381111561366457fe5b1461367c576136326009600189600381111561362d57fe5b613686848c6143bc565b9097509250600087600381111561369957fe5b146136b1576136326009600489600381111561362d57fe5b6136cc6040518060200160405280600854815250858c6152f5565b909750915060008760038111156136df57fe5b146136f7576136326009600589600381111561362d57fe5b613702858a8b6152f5565b9097509050600087600381111561371557fe5b1461372d576136326009600389600381111561362d57fe5b60098e9055600a819055600b839055600c829055604080518d8152602081018690528082018390526060810185905290517f4dec04e750ca11537cabcd8a9eab06494de08da3735bc8871cd41250e190bc049181900360800190a160009e50505050505050505050505050505090565b6005546040805163d02f735160e01b81523060048201526001600160a01b038781166024830152868116604483015285811660648301526084820185905291516000938493169163d02f73519160a480830192602092919082900301818787803b15801561380a57600080fd5b505af115801561381e573d6000803e3d6000fd5b505050506040513d602081101561383457600080fd5b50519050801561384b5761250a6003601b83614333565b846001600160a01b0316846001600160a01b031614156138715761250a6006601c612995565b613879615bc5565b600080600560009054906101000a90046001600160a01b03166001600160a01b0316636995d7d06040518163ffffffff1660e01b815260040160206040518083038186803b1580156138ca57600080fd5b505afa1580156138de573d6000803e3d6000fd5b505050506040513d60208110156138f457600080fd5b505160055460408051636b4374f760e11b81526001600160a01b038d811660048301529151939450600093919092169163d686e9ee916024808301926020929190829003018186803b15801561394957600080fd5b505afa15801561395d573d6000803e3d6000fd5b505050506040513d602081101561397357600080fd5b505160408051630655a3bd60e11b8152600481018a90526024810183905281519293506001600160a01b03851692630cab477a92604480840193919291829003018186803b1580156139c457600080fd5b505afa1580156139d8573d6000803e3d6000fd5b505050506040513d60408110156139ee57600080fd5b508051602091820151606087015260808601526040805163ee9e819960e01b815290516000926001600160a01b0386169263ee9e81999260048083019392829003018186803b158015613a4057600080fd5b505afa158015613a54573d6000803e3d6000fd5b505050506040513d6020811015613a6a57600080fd5b50516001600160a01b038a166000908152600e6020526040902054909150613a929089614399565b865293506000846003811115613aa457fe5b14613abc576125b36009601a86600381111561362d57fe5b6001600160a01b038a166000908152600e60205260409020546080860151613ae491906143bc565b602087015293506000846003811115613af957fe5b14613b11576125b36009601986600381111561362d57fe5b6001600160a01b0381166000908152600e60205260409020546060860151613b3991906143bc565b604087015293506000846003811115613b4e57fe5b14613b66576125b36009601986600381111561362d57fe5b84516001600160a01b03808b166000818152600e6020908152604080832095909555808a01518f851680845286842091909155858b01519487168352918590209390935560808901518451908152935190939192600080516020615e98833981519152928290030190a3806001600160a01b0316896001600160a01b0316600080516020615e9883398151915287606001516040518082815260200191505060405180910390a360006126e2565b6000805460ff16613c59576040805162461bcd60e51b815260206004820152600a6024820152691c994b595b9d195c995960b21b604482015290519081900360640190fd5b6000805460ff19168155613c6b611c81565b90508015613c8957611810816010811115613c8257fe5b6008612995565b6118213384615342565b6000805460ff16613cd8576040805162461bcd60e51b815260206004820152600a6024820152691c994b595b9d195c995960b21b604482015290519081900360640190fd5b6000805460ff19168155613cea611c81565b90508015613d015761181081601081111561318657fe5b611821338460006149f4565b60008054819060ff16613d54576040805162461bcd60e51b815260206004820152600a6024820152691c994b595b9d195c995960b21b604482015290519081900360640190fd5b6000805460ff19168155613d66611c81565b90508015613d9157613d84816010811115613d7d57fe5b600f612995565b925060009150613e289050565b836001600160a01b031663a6afed956040518163ffffffff1660e01b8152600401602060405180830381600087803b158015613dcc57600080fd5b505af1158015613de0573d6000803e3d6000fd5b505050506040513d6020811015613df657600080fd5b505190508015613e1657613d84816010811115613e0f57fe5b6010612995565b613e22338787876155d6565b92509250505b6000805460ff191660011790559094909350915050565b60035460009061010090046001600160a01b03163314613e655761132a60016047612995565b613e6d61324d565b60095414613e815761132a600a6048612995565b670de0b6b3a7640000821115613e9d5761132a60026049612995565b6008805490839055604080518281526020810185905281517faaa68312e2ea9d50e16af5068410ab56e1a1fd06037b1a35664812c30f821460929181900390910190a16000611451565b60055460408051631200453160e11b81523060048201526001600160a01b0386811660248301528581166044830152606482018590529151600093849384939116916324008a629160848082019260209290919082900301818787803b158015613f5057600080fd5b505af1158015613f64573d6000803e3d6000fd5b505050506040513d6020811015613f7a57600080fd5b505190508015613f9e57613f916003603883614333565b92506000915061422f9050565b613fa661324d565b60095414613fba57613f91600a6039612995565b613fc2615bf4565b6001600160a01b0386166000908152601060205260409020600101546060820152613fec86613199565b608083018190526020830182600381111561400357fe5b600381111561400e57fe5b905250600090508160200151600381111561402557fe5b1461404f57614041600960378360200151600381111561362d57fe5b93506000925061422f915050565b6000198514156140685760808101516040820152614070565b604081018590525b61407e87826040015161459c565b60e08201819052608082015161409391614399565b60a08301819052602083018260038111156140aa57fe5b60038111156140b557fe5b90525060009050816020015160038111156140cc57fe5b146141085760405162461bcd60e51b815260040180806020018281038252603a815260200180615e5e603a913960400191505060405180910390fd5b614118600b548260e00151614399565b60c083018190526020830182600381111561412f57fe5b600381111561413a57fe5b905250600090508160200151600381111561415157fe5b1461418d5760405162461bcd60e51b8152600401808060200182810382526031815260200180615eb86031913960400191505060405180910390fd5b60a080820180516001600160a01b03808a16600081815260106020908152604091829020948555600a5460019095019490945560c0870151600b81905560e088015195518251948f16855294840192909252828101949094526060820192909252608081019190915290517f1a2a22cb034d26d1854bdc6666a5b91fe25efbbb5dcad3b0355478d6f5c362a1929181900390910190a160e00151600093509150505b935093915050565b60008060008061424787876143bc565b9092509050600082600381111561425a57fe5b1461426b575091506000905061422f565b6142758186614399565b935093505050935093915050565b600061428d615b34565b6000806142a286670de0b6b3a7640000614ebb565b909250905060008260038111156142b557fe5b146142d4575060408051602081019091526000815290925090506127e9565b6000806142e18388614efa565b909250905060008260038111156142f457fe5b14614316575060408051602081019091526000815290945092506127e9915050565b604080516020810190915290815260009890975095505050505050565b60007f45b96fe442630264581b197e84bbada861235052c5a1aadfff9ea4e40a969aa084601081111561436257fe5b84605081111561436e57fe5b604080519283526020830191909152818101859052519081900360600190a18360108111156112e257fe5b6000808383116143b05750600090508183036127e9565b506003905060006127e9565b6000808383018481106143d4576000925090506127e9565b5060029150600090506127e9565b60006143ec615b34565b6000806143fd866000015186614ebb565b9092509050600082600381111561441057fe5b1461442f575060408051602081019091526000815290925090506127e9565b60408051602081019091529081526000969095509350505050565b51670de0b6b3a7640000900490565b60008115806144745750508082028282828161447157fe5b04145b610d18576040805162461bcd60e51b815260206004820152600c60248201526b6d756c2d6f766572666c6f7760a01b604482015290519081900360640190fd5b6000806000806144c261324d565b600954146144e1576144d6600a604f612995565b935091506132489050565b6144eb338661459c565b905080600c54019150600c5482101561454b576040805162461bcd60e51b815260206004820181905260248201527f61646420726573657276657320756e6578706563746564206f766572666c6f77604482015290519081900360640190fd5b600c829055604080513381526020810183905280820184905290517fa91e67c5ea634cd43a12c5a482724b03de01e85ca68702a53d0c2f45cb7c1dc59181900360600190a160009350915050915091565b601154604080516323b872dd60e01b81526001600160a01b038581166004830152306024830152604482018590529151600093929092169182916323b872dd91606480830192602092919082900301818887803b1580156145fc57600080fd5b505af1158015614610573d6000803e3d6000fd5b505050506040513d602081101561462657600080fd5b50516146635760405162461bcd60e51b8152600401808060200182810382526024815260200180615f1c6024913960400191505060405180910390fd5b601354601154601454601554604080516370a0823160e01b8152306004820181905291516001600160a01b03968716969586169594851694909316928692633b4da69f92909187916370a08231916024808301926020929190829003018186803b1580156146d057600080fd5b505afa1580156146e4573d6000803e3d6000fd5b505050506040513d60208110156146fa57600080fd5b5051604080516001600160e01b031960e086901b1681526001600160a01b039093166004840152602483019190915251604480830192600092919082900301818387803b15801561474a57600080fd5b505af115801561475e573d6000803e3d6000fd5b505060408051633612d9a360e11b81523060048201529051600093506001600160a01b0385169250636c25b34691602480820192602092909190829003018186803b1580156147ac57600080fd5b505afa1580156147c0573d6000803e3d6000fd5b505050506040513d60208110156147d657600080fd5b50516040805163324abb3160e21b815290519192506000916001600160a01b0386169163c92aecc4916004808301926020929190829003018186803b15801561481e57600080fd5b505afa158015614832573d6000803e3d6000fd5b505050506040513d602081101561484857600080fd5b5051828161485257fe5b049050836001600160a01b031663049878f3826040518263ffffffff1660e01b815260040180828152602001915050600060405180830381600087803b15801561489b57600080fd5b505af11580156148af573d6000803e3d6000fd5b509a9c9b505050505050505050505050565b80820182811015610d18576040805162461bcd60e51b815260206004820152600c60248201526b6164642d6f766572666c6f7760a01b604482015290519081900360640190fd5b600083830182858210156112135760405162461bcd60e51b81526004018080602001828103825283818151815260200191508051906020019080838360005b8381101561495f578181015183820152602001614947565b50505050905090810190601f16801561498c5780820380516001836020036101000a031916815260200191505b509250505060405180910390fd5b600081848411156149ec5760405162461bcd60e51b815260206004820181815283516024840152835190928392604490910191908501908083836000831561495f578181015183820152602001614947565b505050900390565b6000821580614a01575081155b614a3c5760405162461bcd60e51b8152600401808060200182810382526034815260200180615f9d6034913960400191505060405180910390fd5b614a44615c3a565b614a4c6123b5565b6040830181905260208301826003811115614a6357fe5b6003811115614a6e57fe5b9052506000905081602001516003811115614a8557fe5b14614aa957614aa16009602b8360200151600381111561362d57fe5b915050611451565b8315614b2a576060810184905260408051602081018252908201518152614ad0908561279c565b6080830181905260208301826003811115614ae757fe5b6003811115614af257fe5b9052506000905081602001516003811115614b0957fe5b14614b2557614aa1600960298360200151600381111561362d57fe5b614ba3565b614b468360405180602001604052808460400151815250615ac3565b6060830181905260208301826003811115614b5d57fe5b6003811115614b6857fe5b9052506000905081602001516003811115614b7f57fe5b14614b9b57614aa16009602a8360200151600381111561362d57fe5b608081018390525b60055460608201516040805163eabe7d9160e01b81523060048201526001600160a01b03898116602483015260448201939093529051600093929092169163eabe7d919160648082019260209290919082900301818787803b158015614c0857600080fd5b505af1158015614c1c573d6000803e3d6000fd5b505050506040513d6020811015614c3257600080fd5b505190508015614c5257614c496003602883614333565b92505050611451565b614c5a61324d565b60095414614c6e57614c49600a602c612995565b614c7e600d548360600151614399565b60a0840181905260208401826003811115614c9557fe5b6003811115614ca057fe5b9052506000905082602001516003811115614cb757fe5b14614cd357614c496009602e8460200151600381111561362d57fe5b6001600160a01b0386166000908152600e60205260409020546060830151614cfb9190614399565b60c0840181905260208401826003811115614d1257fe5b6003811115614d1d57fe5b9052506000905082602001516003811115614d3457fe5b14614d5057614c496009602d8460200151600381111561362d57fe5b8160800151614d5d6127f0565b1015614d6f57614c49600e602f612995565b614d7d868360800151612e11565b60a0820151600d5560c08201516001600160a01b0387166000818152600e6020908152604091829020939093556060850151815190815290513093600080516020615e98833981519152928290030190a36080820151606080840151604080516001600160a01b038b168152602081019490945283810191909152517fe5b754fb1abb7f01b499791d0b820ae3b6af3424ac1c59768edb53f4ec31a9299281900390910190a160055460808301516060840151604080516351dff98960e01b81523060048201526001600160a01b038b81166024830152604482019490945260648101929092525191909216916351dff98991608480830192600092919082900301818387803b158015614e9057600080fd5b505af1158015614ea4573d6000803e3d6000fd5b5060009250614eb1915050565b9695505050505050565b60008083614ece575060009050806127e9565b83830283858281614edb57fe5b0414614eef575060029150600090506127e9565b6000925090506127e9565b60008082614f0e57506001905060006127e9565b6000838581614f1957fe5b04915091509250929050565b60055460408051634ef4c3e160e01b81523060048201526001600160a01b03858116602483015260448201859052915160009384938493911691634ef4c3e19160648082019260209290919082900301818787803b158015614f8657600080fd5b505af1158015614f9a573d6000803e3d6000fd5b505050506040513d6020811015614fb057600080fd5b505190508015614fd457614fc76003601f83614333565b9250600091506127e99050565b614fdc61324d565b60095414614ff057614fc7600a6022612995565b614ff8615c3a565b6150006123b5565b604083018190526020830182600381111561501757fe5b600381111561502257fe5b905250600090508160200151600381111561503957fe5b1461506357615055600960218360200151600381111561362d57fe5b9350600092506127e9915050565b61506d868661459c565b60c082018190526040805160208101825290830151815261508e9190615ac3565b60608301819052602083018260038111156150a557fe5b60038111156150b057fe5b90525060009050816020015160038111156150c757fe5b14615119576040805162461bcd60e51b815260206004820181905260248201527f4d494e545f45584348414e47455f43414c43554c4154494f4e5f4641494c4544604482015290519081900360640190fd5b615129600d5482606001516143bc565b608083018190526020830182600381111561514057fe5b600381111561514b57fe5b905250600090508160200151600381111561516257fe5b1461519e5760405162461bcd60e51b8152600401808060200182810382526028815260200180615f756028913960400191505060405180910390fd5b6001600160a01b0386166000908152600e602052604090205460608201516151c691906143bc565b60a08301819052602083018260038111156151dd57fe5b60038111156151e857fe5b90525060009050816020015160038111156151ff57fe5b1461523b5760405162461bcd60e51b815260040180806020018281038252602b815260200180615dda602b913960400191505060405180910390fd5b6080810151600d5560a08101516001600160a01b0387166000818152600e60209081526040918290209390935560c084015160608086015183519485529484019190915282820193909352517f4c209b5fc8ad50758f13e2e1088ba56a560dff690a1c6fef26394f4c03821c4f929181900390910190a1606081015160408051918252516001600160a01b038816913091600080516020615e988339815191529181900360200190a360c001516000969095509350505050565b6000806000615302615b34565b61530c87876143e2565b9092509050600082600381111561531f57fe5b14615330575091506000905061422f565b61427561533c8261444a565b866143bc565b6005546040805163368f515360e21b81523060048201526001600160a01b0385811660248301526044820185905291516000938493169163da3d454c91606480830192602092919082900301818787803b15801561539f57600080fd5b505af11580156153b3573d6000803e3d6000fd5b505050506040513d60208110156153c957600080fd5b5051905080156153e8576153e06003600e83614333565b915050610d18565b6153f061324d565b60095414615403576153e0600a80612995565b8261540c6127f0565b101561541e576153e0600e6009612995565b615426615c78565b61542f85613199565b602083018190528282600381111561544357fe5b600381111561544e57fe5b905250600090508151600381111561546257fe5b146154875761547e600960078360000151600381111561362d57fe5b92505050610d18565b6154958160200151856143bc565b60408301819052828260038111156154a957fe5b60038111156154b457fe5b90525060009050815160038111156154c857fe5b146154e45761547e6009600c8360000151600381111561362d57fe5b6154f0600b54856143bc565b606083018190528282600381111561550457fe5b600381111561550f57fe5b905250600090508151600381111561552357fe5b1461553f5761547e6009600b8360000151600381111561362d57fe5b6155498585612e11565b604080820180516001600160a01b03881660008181526010602090815290859020928355600a54600190930192909255606080860151600b81905593518551928352928201899052818501929092529081019190915290517f13ed6866d4e1ee6da46f845c46d7e54120883d75c5ea9a2dacc1c4ca8984ab809181900360800190a1600095945050505050565b60055460408051632fe3f38f60e11b81523060048201526001600160a01b0384811660248301528781166044830152868116606483015260848201869052915160009384938493911691635fc7e71e9160a48082019260209290919082900301818787803b15801561564757600080fd5b505af115801561565b573d6000803e3d6000fd5b505050506040513d602081101561567157600080fd5b505190508015615695576156886003601283614333565b925060009150615aba9050565b61569d61324d565b600954146156b157615688600a6016612995565b6156b961324d565b846001600160a01b0316636c540baf6040518163ffffffff1660e01b815260040160206040518083038186803b1580156156f257600080fd5b505afa158015615706573d6000803e3d6000fd5b505050506040513d602081101561571c57600080fd5b50511461572f57615688600a6011612995565b866001600160a01b0316866001600160a01b031614156157555761568860066017612995565b846157665761568860076015612995565b60001985141561577c5761568860076014612995565b60008061578a898989613ee7565b909250905081156157ba576157ab8260108111156157a457fe5b6018612995565b945060009350615aba92505050565b6005546040805163c488847b60e01b81523060048201526001600160a01b038981166024830152604482018590528251600094859492169263c488847b926064808301939192829003018186803b15801561581457600080fd5b505afa158015615828573d6000803e3d6000fd5b505050506040513d604081101561583e57600080fd5b508051602090910151909250905081156158895760405162461bcd60e51b8152600401808060200182810382526033815260200180615ee96033913960400191505060405180910390fd5b80886001600160a01b03166370a082318c6040518263ffffffff1660e01b815260040180826001600160a01b03166001600160a01b0316815260200191505060206040518083038186803b1580156158e057600080fd5b505afa1580156158f4573d6000803e3d6000fd5b505050506040513d602081101561590a57600080fd5b5051101561595a576040805162461bcd60e51b815260206004820152601860248201527709892a2aa928882a88abea68a92b48abea89e9ebe9aaa86960431b604482015290519081900360640190fd5b60006001600160a01b03891630141561598057615979308d8d8561379d565b9050615a0a565b6040805163b2a02ff160e01b81526001600160a01b038e811660048301528d81166024830152604482018590529151918b169163b2a02ff1916064808201926020929091908290030181600087803b1580156159db57600080fd5b505af11580156159ef573d6000803e3d6000fd5b505050506040513d6020811015615a0557600080fd5b505190505b8015615a54576040805162461bcd60e51b81526020600482015260146024820152731d1bdad95b881cd95a5e9d5c994819985a5b195960621b604482015290519081900360640190fd5b604080516001600160a01b03808f168252808e1660208301528183018790528b1660608201526080810184905290517f298637f684da70674f26509b10f07ec2fbc77a335ab1e7d6215a4b2484d8bb529181900360a00190a16000975092955050505050505b94509492505050565b6000806000615ad0615b34565b6127b386866000615adf615b34565b600080615af4670de0b6b3a764000087614ebb565b90925090506000826003811115615b0757fe5b14615b26575060408051602081019091526000815290925090506127e9565b6127e2818660000151614283565b6040518060200160405280600081525090565b828054600181600116156101000203166002900490600052602060002090601f016020900481019282601f10615b8857805160ff1916838001178555615bb5565b82800160010185558215615bb5579182015b82811115615bb5578251825591602001919060010190615b9a565b50615bc1929150615ca1565b5090565b6040518060a0016040528060008152602001600081526020016000815260200160008152602001600081525090565b6040805161010081019091528060008152602001600081526020016000815260200160008152602001600081526020016000815260200160008152602001600081525090565b6040805160e0810190915280600081526020016000815260200160008152602001600081526020016000815260200160008152602001600081525090565b604080516080810190915280600081526020016000815260200160008152602001600081525090565b6110fd91905b80821115615bc15760008155600101615ca756fe6f6e6c792061646d696e206d617920696e697469616c697a6520746865206d61726b65746d61726b6574206d6179206f6e6c7920626520696e697469616c697a6564206f6e63656f6e6c79207468652061646d696e206d617920696e697469616c697a652074686520696d706c656d656e746174696f6e696e697469616c2065786368616e67652072617465206d7573742062652067726561746572207468616e207a65726f2e4572726f7220746f2063616c63756c61746520666c6173686c6f616e20726573657276652066656573657474696e6720696e7465726573742072617465206d6f64656c206661696c65646f6e6c79207468652061646d696e206d6179206162616e646f6e2074686520696d706c656d656e746174696f6e4d494e545f4e45575f4143434f554e545f42414c414e43455f43414c43554c4154494f4e5f4641494c4544626f72726f7742616c616e636553746f7265643a20626f72726f7742616c616e636553746f726564496e7465726e616c206661696c6564444149206d757374206265207468652073616d6520617320756e6465726c79696e6752455041595f424f52524f575f4e45575f4143434f554e545f424f52524f575f42414c414e43455f43414c43554c4154494f4e5f4641494c4544ddf252ad1be2c89b69c2b068fc378daa952ba7f163c4a11628f55a4df523b3ef52455041595f424f52524f575f4e45575f544f54414c5f42414c414e43455f43414c43554c4154494f4e5f4641494c45444c49515549444154455f434f4d5054524f4c4c45525f43414c43554c4154455f414d4f554e545f5345495a455f4641494c4544756e6578706563746564204549502d3230207472616e7366657220696e2072657475726e65786368616e67655261746553746f7265643a2065786368616e67655261746553746f726564496e7465726e616c206661696c65644d494e545f4e45575f544f54414c5f535550504c595f43414c43554c4154494f4e5f4641494c45446f6e65206f662072656465656d546f6b656e73496e206f722072656465656d416d6f756e74496e206d757374206265207a65726f72656475636520726573657276657320756e657870656374656420756e646572666c6f77a265627a7a723158208de56cf961c66649c6b85ad7e3a3fc4988d3599892e598f81062229ea2e950d864736f6c63430005100032",
  "source": "pragma solidity ^0.5.16;\n\nimport \"./CErc20Delegate.sol\";\n\n/**\n * @title Compound's CDai Contract\n * @notice CToken which wraps Multi-Collateral DAI\n * @author Compound\n */\ncontract CDaiDelegate is CErc20Delegate {\n    /**\n     * @notice DAI adapter address\n     */\n    address public daiJoinAddress;\n\n    /**\n     * @notice DAI Savings Rate (DSR) pot address\n     */\n    address public potAddress;\n\n    /**\n     * @notice DAI vat address\n     */\n    address public vatAddress;\n\n    /**\n     * @notice Delegate interface to become the implementation\n     * @param data The encoded arguments for becoming\n     */\n    function _becomeImplementation(bytes memory data) public {\n        require(msg.sender == admin, \"only the admin may initialize the implementation\");\n\n        (address daiJoinAddress_, address potAddress_) = abi.decode(data, (address, address));\n        return _becomeImplementation(daiJoinAddress_, potAddress_);\n    }\n\n    /**\n     * @notice Explicit interface to become the implementation\n     * @param daiJoinAddress_ DAI adapter address\n     * @param potAddress_ DAI Savings Rate (DSR) pot address\n     */\n    function _becomeImplementation(address daiJoinAddress_, address potAddress_) internal {\n        // Get dai and vat and sanity check the underlying\n        DaiJoinLike daiJoin = DaiJoinLike(daiJoinAddress_);\n        PotLike pot = PotLike(potAddress_);\n        GemLike dai = daiJoin.dai();\n        VatLike vat = daiJoin.vat();\n        require(address(dai) == underlying, \"DAI must be the same as underlying\");\n\n        // Remember the relevant addresses\n        daiJoinAddress = daiJoinAddress_;\n        potAddress = potAddress_;\n        vatAddress = address(vat);\n\n        // Approve moving our DAI into the vat through daiJoin\n        dai.approve(daiJoinAddress, uint(-1));\n\n        // Approve the pot to transfer our funds within the vat\n        vat.hope(potAddress);\n        vat.hope(daiJoinAddress);\n\n        // Accumulate DSR interest -- must do this in order to doTransferIn\n        pot.drip();\n\n        // Transfer all cash in (doTransferIn does this regardless of amount)\n        doTransferIn(address(this), 0);\n    }\n\n    /**\n     * @notice Delegate interface to resign the implementation\n     */\n    function _resignImplementation() public {\n        require(msg.sender == admin, \"only the admin may abandon the implementation\");\n\n        // Transfer all cash out of the DSR - note that this relies on self-transfer\n        DaiJoinLike daiJoin = DaiJoinLike(daiJoinAddress);\n        PotLike pot = PotLike(potAddress);\n        VatLike vat = VatLike(vatAddress);\n\n        // Accumulate interest\n        pot.drip();\n\n        // Calculate the total amount in the pot, and move it out\n        uint pie = pot.pie(address(this));\n        pot.exit(pie);\n\n        // Checks the actual balance of DAI in the vat after the pot exit\n        uint bal = vat.dai(address(this));\n\n        // Remove our whole balance\n        daiJoin.exit(address(this), bal / RAY);\n    }\n\n    /*** CToken Overrides ***/\n\n    /**\n      * @notice Accrues DSR then applies accrued interest to total borrows and reserves\n      * @dev This calculates interest accrued from the last checkpointed block\n      *      up to the current block and writes new checkpoint to storage.\n      */\n    function accrueInterest() public returns (uint) {\n        // Accumulate DSR interest\n        PotLike(potAddress).drip();\n\n        // Accumulate CToken interest\n        return super.accrueInterest();\n    }\n\n    /*** Safe Token ***/\n\n    /**\n     * @notice Gets balance of this contract in terms of the underlying\n     * @dev This excludes the value of the current message, if any\n     * @return The quantity of underlying tokens owned by this contract\n     */\n    function getCashPrior() internal view returns (uint) {\n        PotLike pot = PotLike(potAddress);\n        uint pie = pot.pie(address(this));\n        return mul(pot.chi(), pie) / RAY;\n    }\n\n    /**\n     * @notice Transfer the underlying to this contract and sweep into DSR pot\n     * @param from Address to transfer funds from\n     * @param amount Amount of underlying to transfer\n     * @return The actual amount that is transferred\n     */\n    function doTransferIn(address from, uint amount) internal returns (uint) {\n        // Perform the EIP-20 transfer in\n        EIP20Interface token = EIP20Interface(underlying);\n        require(token.transferFrom(from, address(this), amount), \"unexpected EIP-20 transfer in return\");\n\n        DaiJoinLike daiJoin = DaiJoinLike(daiJoinAddress);\n        GemLike dai = GemLike(underlying);\n        PotLike pot = PotLike(potAddress);\n        VatLike vat = VatLike(vatAddress);\n\n        // Convert all our DAI to internal DAI in the vat\n        daiJoin.join(address(this), dai.balanceOf(address(this)));\n\n        // Checks the actual balance of DAI in the vat after the join\n        uint bal = vat.dai(address(this));\n\n        // Calculate the percentage increase to th pot for the entire vat, and move it in\n        // Note: We may leave a tiny bit of DAI in the vat...but we do the whole thing every time\n        uint pie = bal / pot.chi();\n        pot.join(pie);\n\n        return amount;\n    }\n\n    /**\n     * @notice Transfer the underlying from this contract, after sweeping out of DSR pot\n     * @param to Address to transfer funds to\n     * @param amount Amount of underlying to transfer\n     */\n    function doTransferOut(address payable to, uint amount) internal {\n        DaiJoinLike daiJoin = DaiJoinLike(daiJoinAddress);\n        PotLike pot = PotLike(potAddress);\n\n        // Calculate the percentage decrease from the pot, and move that much out\n        // Note: Use a slightly larger pie size to ensure that we get at least amount in the vat\n        uint pie = add(mul(amount, RAY) / pot.chi(), 1);\n        pot.exit(pie);\n\n        daiJoin.exit(to, amount);\n    }\n\n    /*** Maker Internals ***/\n\n    uint256 constant RAY = 10 ** 27;\n\n    function add(uint x, uint y) internal pure returns (uint z) {\n        require((z = x + y) >= x, \"add-overflow\");\n    }\n\n    function mul(uint x, uint y) internal pure returns (uint z) {\n        require(y == 0 || (z = x * y) / y == x, \"mul-overflow\");\n    }\n}\n\n/*** Maker Interfaces ***/\n\ninterface PotLike {\n    function chi() external view returns (uint);\n    function pie(address) external view returns (uint);\n    function drip() external returns (uint);\n    function join(uint) external;\n    function exit(uint) external;\n}\n\ninterface GemLike {\n    function approve(address, uint) external;\n    function balanceOf(address) external view returns (uint);\n    function transferFrom(address, address, uint) external returns (bool);\n}\n\ninterface VatLike {\n    function dai(address) external view returns (uint);\n    function hope(address) external;\n}\n\ninterface DaiJoinLike {\n    function vat() external returns (VatLike);\n    function dai() external returns (GemLike);\n    function join(address, uint) external payable;\n    function exit(address, uint) external;\n}\n",
  "sourcePath": "/Users/ashton/repo/blockchain/eth/smartcontracts/quicksilver-protocol/contracts/compound/CDaiDelegate.sol",
  "compiler": {
    "name": "solc",
    "version": "0.5.16+commit.9c3226ce.Emscripten.clang"
  },
  "schemaVersion": "3.4.1",
  "updatedAt": "2021-08-16T22:55:24.112Z",
  "devdoc": {
    "author": "Compound",
    "methods": {
      "_acceptAdmin()": {
        "details": "Admin function for pending admin to accept role and update admin",
        "return": "uint 0=success, otherwise a failure (see ErrorReporter.sol for details)"
      },
      "_addReserves(uint256)": {
        "params": {
          "addAmount": "The amount fo underlying token to add as reserves"
        },
        "return": "uint 0=success, otherwise a failure (see ErrorReporter.sol for details)"
      },
      "_becomeImplementation(bytes)": {
        "params": {
          "data": "The encoded arguments for becoming"
        }
      },
      "_reduceReserves(uint256)": {
        "params": {
          "reduceAmount": "Amount of reduction to reserves"
        },
        "return": "uint 0=success, otherwise a failure (see ErrorReporter.sol for details)"
      },
      "_setComptroller(address)": {
        "details": "Admin function to set a new comptroller",
        "return": "uint 0=success, otherwise a failure (see ErrorReporter.sol for details)"
      },
      "_setInterestRateModel(address)": {
        "details": "Admin function to accrue interest and update the interest rate model",
        "params": {
          "newInterestRateModel": "the new interest rate model to use"
        },
        "return": "uint 0=success, otherwise a failure (see ErrorReporter.sol for details)"
      },
      "_setPendingAdmin(address)": {
        "details": "Admin function to begin change of admin. The newPendingAdmin must call `_acceptAdmin` to finalize the transfer.",
        "params": {
          "newPendingAdmin": "New pending admin."
        },
        "return": "uint 0=success, otherwise a failure (see ErrorReporter.sol for details)"
      },
      "_setReserveFactor(uint256)": {
        "details": "Admin function to accrue interest and set a new reserve factor",
        "return": "uint 0=success, otherwise a failure (see ErrorReporter.sol for details)"
      },
      "accrueInterest()": {
        "details": "This calculates interest accrued from the last checkpointed block     up to the current block and writes new checkpoint to storage."
      },
      "allowance(address,address)": {
        "params": {
          "owner": "The address of the account which owns the tokens to be spent",
          "spender": "The address of the account which may transfer tokens"
        },
        "return": "The number of tokens allowed to be spent (-1 means infinite)"
      },
      "approve(address,uint256)": {
        "details": "This will overwrite the approval amount for `spender` and is subject to issues noted [here](https://eips.ethereum.org/EIPS/eip-20#approve)",
        "params": {
          "amount": "The number of tokens that are approved (-1 means infinite)",
          "spender": "The address of the account which may transfer tokens"
        },
        "return": "Whether or not the approval succeeded"
      },
      "balanceOf(address)": {
        "params": {
          "owner": "The address of the account to query"
        },
        "return": "The number of tokens owned by `owner`"
      },
      "balanceOfUnderlying(address)": {
        "details": "This also accrues interest in a transaction",
        "params": {
          "owner": "The address of the account to query"
        },
        "return": "The amount of underlying owned by `owner`"
      },
      "borrow(uint256)": {
        "params": {
          "borrowAmount": "The amount of the underlying asset to borrow"
        },
        "return": "uint 0=success, otherwise a failure (see ErrorReporter.sol for details)"
      },
      "borrowBalanceCurrent(address)": {
        "params": {
          "account": "The address whose balance should be calculated after updating borrowIndex"
        },
        "return": "The calculated balance"
      },
      "borrowBalanceStored(address)": {
        "params": {
          "account": "The address whose balance should be calculated"
        },
        "return": "The calculated balance"
      },
      "borrowRatePerBlock()": {
        "return": "The borrow interest rate per block, scaled by 1e18"
      },
      "exchangeRateCurrent()": {
        "return": "Calculated exchange rate scaled by 1e18"
      },
      "exchangeRateStored()": {
        "details": "This function does not accrue interest before calculating the exchange rate",
        "return": "Calculated exchange rate scaled by 1e18"
      },
      "flashFee(address,uint256)": {
        "details": "The fee to be charged for a given loan.",
        "params": {
          "amount": "The amount of tokens lent.",
          "token": "The loan currency."
        },
        "return": "The amount of `token` to be charged for the loan, on top of the returned principal."
      },
      "flashLoan(address,address,uint256,bytes)": {
        "details": "Initiate a flash loan.",
        "params": {
          "amount": "The amount of tokens lent.",
          "data": "Arbitrary data structure, intended to contain user-defined parameters.",
          "receiver": "The receiver of the tokens in the loan, and the receiver of the callback.",
          "token": "The loan currency."
        }
      },
      "getAccountSnapshot(address)": {
        "details": "This is used by comptroller to more efficiently perform liquidity checks.",
        "params": {
          "account": "Address of the account to snapshot"
        },
        "return": "(possible error, token balance, borrow balance, exchange rate mantissa)"
      },
      "getCash()": {
        "return": "The quantity of underlying asset owned by this contract"
      },
      "initialize(address,address,address,uint256,string,string,uint8)": {
        "params": {
          "comptroller_": "The address of the Comptroller",
          "decimals_": "ERC-20 decimal precision of this token",
          "initialExchangeRateMantissa_": "The initial exchange rate, scaled by 1e18",
          "interestRateModel_": "The address of the interest rate model",
          "name_": "ERC-20 name of this token",
          "symbol_": "ERC-20 symbol of this token",
          "underlying_": "The address of the underlying asset"
        }
      },
      "initialize(address,address,uint256,string,string,uint8)": {
        "params": {
          "comptroller_": "The address of the Comptroller",
          "decimals_": "EIP-20 decimal precision of this token",
          "initialExchangeRateMantissa_": "The initial exchange rate, scaled by 1e18",
          "interestRateModel_": "The address of the interest rate model",
          "name_": "EIP-20 name of this token",
          "symbol_": "EIP-20 symbol of this token"
        }
      },
      "liquidateBorrow(address,uint256,address)": {
        "params": {
          "borrower": "The borrower of this cToken to be liquidated",
          "cTokenCollateral": "The market in which to seize collateral from the borrower",
          "repayAmount": "The amount of the underlying borrowed asset to repay"
        },
        "return": "uint 0=success, otherwise a failure (see ErrorReporter.sol for details)"
      },
      "maxFlashLoan(address)": {
        "details": "The amount of currency available to be lent.",
        "params": {
          "token": "The loan currency."
        },
        "return": "The amount of `token` that can be borrowed."
      },
      "mint(uint256)": {
        "details": "Accrues interest whether or not the operation succeeds, unless reverted",
        "params": {
          "mintAmount": "The amount of the underlying asset to supply"
        },
        "return": "uint 0=success, otherwise a failure (see ErrorReporter.sol for details)"
      },
      "redeem(uint256)": {
        "details": "Accrues interest whether or not the operation succeeds, unless reverted",
        "params": {
          "redeemTokens": "The number of cTokens to redeem into underlying"
        },
        "return": "uint 0=success, otherwise a failure (see ErrorReporter.sol for details)"
      },
      "redeemUnderlying(uint256)": {
        "details": "Accrues interest whether or not the operation succeeds, unless reverted",
        "params": {
          "redeemAmount": "The amount of underlying to redeem"
        },
        "return": "uint 0=success, otherwise a failure (see ErrorReporter.sol for details)"
      },
      "repayBorrow(uint256)": {
        "params": {
          "repayAmount": "The amount to repay"
        },
        "return": "uint 0=success, otherwise a failure (see ErrorReporter.sol for details)"
      },
      "repayBorrowBehalf(address,uint256)": {
        "params": {
          "borrower": "the account with the debt being payed off",
          "repayAmount": "The amount to repay"
        },
        "return": "uint 0=success, otherwise a failure (see ErrorReporter.sol for details)"
      },
      "seize(address,address,uint256)": {
        "details": "Will fail unless called by another cToken during the process of liquidation. Its absolutely critical to use msg.sender as the borrowed cToken and not a parameter.",
        "params": {
          "borrower": "The account having collateral seized",
          "liquidator": "The account receiving seized collateral",
          "seizeTokens": "The number of cTokens to seize"
        },
        "return": "uint 0=success, otherwise a failure (see ErrorReporter.sol for details)"
      },
      "supplyRatePerBlock()": {
        "return": "The supply interest rate per block, scaled by 1e18"
      },
      "totalBorrowsCurrent()": {
        "return": "The total borrows with interest"
      },
      "transfer(address,uint256)": {
        "params": {
          "amount": "The number of tokens to transfer",
          "dst": "The address of the destination account"
        },
        "return": "Whether or not the transfer succeeded"
      },
      "transferFrom(address,address,uint256)": {
        "params": {
          "amount": "The number of tokens to transfer",
          "dst": "The address of the destination account",
          "src": "The address of the source account"
        },
        "return": "Whether or not the transfer succeeded"
      }
    },
    "title": "Compound's CDai Contract"
  },
  "userdoc": {
    "methods": {
      "_acceptAdmin()": {
        "notice": "Accepts transfer of admin rights. msg.sender must be pendingAdmin"
      },
      "_addReserves(uint256)": {
        "notice": "The sender adds to reserves."
      },
      "_becomeImplementation(bytes)": {
        "notice": "Delegate interface to become the implementation"
      },
      "_reduceReserves(uint256)": {
        "notice": "Accrues interest and reduces reserves by transferring to admin"
      },
      "_resignImplementation()": {
        "notice": "Delegate interface to resign the implementation"
      },
      "_setComptroller(address)": {
        "notice": "Sets a new comptroller for the market"
      },
      "_setInterestRateModel(address)": {
        "notice": "accrues interest and updates the interest rate model using _setInterestRateModelFresh"
      },
      "_setPendingAdmin(address)": {
        "notice": "Begins transfer of admin rights. The newPendingAdmin must call `_acceptAdmin` to finalize the transfer."
      },
      "_setReserveFactor(uint256)": {
        "notice": "accrues interest and sets a new reserve factor for the protocol using _setReserveFactorFresh"
      },
      "accrueInterest()": {
        "notice": "Accrues DSR then applies accrued interest to total borrows and reserves"
      },
      "allowance(address,address)": {
        "notice": "Get the current allowance from `owner` for `spender`"
      },
      "approve(address,uint256)": {
        "notice": "Approve `spender` to transfer up to `amount` from `src`"
      },
      "balanceOf(address)": {
        "notice": "Get the token balance of the `owner`"
      },
      "balanceOfUnderlying(address)": {
        "notice": "Get the underlying balance of the `owner`"
      },
      "borrow(uint256)": {
        "notice": "Sender borrows assets from the protocol to their own address"
      },
      "borrowBalanceCurrent(address)": {
        "notice": "Accrue interest to updated borrowIndex and then calculate account's borrow balance using the updated borrowIndex"
      },
      "borrowBalanceStored(address)": {
        "notice": "Return the borrow balance of account based on stored data"
      },
      "borrowRatePerBlock()": {
        "notice": "Returns the current per-block borrow interest rate for this cToken"
      },
      "exchangeRateCurrent()": {
        "notice": "Accrue interest then return the up-to-date exchange rate"
      },
      "exchangeRateStored()": {
        "notice": "Calculates the exchange rate from the underlying to the CToken"
      },
      "getAccountSnapshot(address)": {
        "notice": "Get a snapshot of the account's balances, and the cached exchange rate"
      },
      "getCash()": {
        "notice": "Get cash balance of this cToken in the underlying asset"
      },
      "initialize(address,address,address,uint256,string,string,uint8)": {
        "notice": "Initialize the new money market"
      },
      "initialize(address,address,uint256,string,string,uint8)": {
        "notice": "Initialize the money market"
      },
      "liquidateBorrow(address,uint256,address)": {
        "notice": "The sender liquidates the borrowers collateral. The collateral seized is transferred to the liquidator."
      },
      "mint(uint256)": {
        "notice": "Sender supplies assets into the market and receives cTokens in exchange"
      },
      "redeem(uint256)": {
        "notice": "Sender redeems cTokens in exchange for the underlying asset"
      },
      "redeemUnderlying(uint256)": {
        "notice": "Sender redeems cTokens in exchange for a specified amount of underlying asset"
      },
      "repayBorrow(uint256)": {
        "notice": "Sender repays their own borrow"
      },
      "repayBorrowBehalf(address,uint256)": {
        "notice": "Sender repays a borrow belonging to borrower"
      },
      "seize(address,address,uint256)": {
        "notice": "Transfers collateral tokens (this market) to the liquidator."
      },
      "supplyRatePerBlock()": {
        "notice": "Returns the current per-block supply interest rate for this cToken"
      },
      "totalBorrowsCurrent()": {
        "notice": "Returns the current total borrows plus accrued interest"
      },
      "transfer(address,uint256)": {
        "notice": "Transfer `amount` tokens from `msg.sender` to `dst`"
      },
      "transferFrom(address,address,uint256)": {
        "notice": "Transfer `amount` tokens from `src` to `dst`"
      }
    },
    "notice": "CToken which wraps Multi-Collateral DAI"
  }
}