{
  "contractName": "CErc20Immutable",
  "abi": [
    {
      "inputs": [
        {
          "internalType": "address",
          "name": "underlying_",
          "type": "address"
        },
        {
          "internalType": "contract ComptrollerInterface",
          "name": "comptroller_",
          "type": "address"
        },
        {
          "internalType": "contract InterestRateModel",
          "name": "interestRateModel_",
          "type": "address"
        },
        {
          "internalType": "uint256",
          "name": "initialExchangeRateMantissa_",
          "type": "uint256"
        },
        {
          "internalType": "string",
          "name": "name_",
          "type": "string"
        },
        {
          "internalType": "string",
          "name": "symbol_",
          "type": "string"
        },
        {
          "internalType": "uint8",
          "name": "decimals_",
          "type": "uint8"
        },
        {
          "internalType": "address payable",
          "name": "admin_",
          "type": "address"
        }
      ],
      "payable": false,
      "stateMutability": "nonpayable",
      "type": "constructor"
    },
    {
      "anonymous": false,
      "inputs": [
        {
          "indexed": false,
          "internalType": "uint256",
          "name": "cashPrior",
          "type": "uint256"
        },
        {
          "indexed": false,
          "internalType": "uint256",
          "name": "interestAccumulated",
          "type": "uint256"
        },
        {
          "indexed": false,
          "internalType": "uint256",
          "name": "borrowIndex",
          "type": "uint256"
        },
        {
          "indexed": false,
          "internalType": "uint256",
          "name": "totalBorrows",
          "type": "uint256"
        }
      ],
      "name": "AccrueInterest",
      "type": "event"
    },
    {
      "anonymous": false,
      "inputs": [
        {
          "indexed": true,
          "internalType": "address",
          "name": "owner",
          "type": "address"
        },
        {
          "indexed": true,
          "internalType": "address",
          "name": "spender",
          "type": "address"
        },
        {
          "indexed": false,
          "internalType": "uint256",
          "name": "amount",
          "type": "uint256"
        }
      ],
      "name": "Approval",
      "type": "event"
    },
    {
      "anonymous": false,
      "inputs": [
        {
          "indexed": false,
          "internalType": "address",
          "name": "borrower",
          "type": "address"
        },
        {
          "indexed": false,
          "internalType": "uint256",
          "name": "borrowAmount",
          "type": "uint256"
        },
        {
          "indexed": false,
          "internalType": "uint256",
          "name": "accountBorrows",
          "type": "uint256"
        },
        {
          "indexed": false,
          "internalType": "uint256",
          "name": "totalBorrows",
          "type": "uint256"
        }
      ],
      "name": "Borrow",
      "type": "event"
    },
    {
      "anonymous": false,
      "inputs": [
        {
          "indexed": false,
          "internalType": "uint256",
          "name": "error",
          "type": "uint256"
        },
        {
          "indexed": false,
          "internalType": "uint256",
          "name": "info",
          "type": "uint256"
        },
        {
          "indexed": false,
          "internalType": "uint256",
          "name": "detail",
          "type": "uint256"
        }
      ],
      "name": "Failure",
      "type": "event"
    },
    {
      "anonymous": false,
      "inputs": [
        {
          "indexed": false,
          "internalType": "address",
          "name": "liquidator",
          "type": "address"
        },
        {
          "indexed": false,
          "internalType": "address",
          "name": "borrower",
          "type": "address"
        },
        {
          "indexed": false,
          "internalType": "uint256",
          "name": "repayAmount",
          "type": "uint256"
        },
        {
          "indexed": false,
          "internalType": "address",
          "name": "cTokenCollateral",
          "type": "address"
        },
        {
          "indexed": false,
          "internalType": "uint256",
          "name": "seizeTokens",
          "type": "uint256"
        }
      ],
      "name": "LiquidateBorrow",
      "type": "event"
    },
    {
      "anonymous": false,
      "inputs": [
        {
          "indexed": false,
          "internalType": "address",
          "name": "minter",
          "type": "address"
        },
        {
          "indexed": false,
          "internalType": "uint256",
          "name": "mintAmount",
          "type": "uint256"
        },
        {
          "indexed": false,
          "internalType": "uint256",
          "name": "mintTokens",
          "type": "uint256"
        }
      ],
      "name": "Mint",
      "type": "event"
    },
    {
      "anonymous": false,
      "inputs": [
        {
          "indexed": false,
          "internalType": "address",
          "name": "oldAdmin",
          "type": "address"
        },
        {
          "indexed": false,
          "internalType": "address",
          "name": "newAdmin",
          "type": "address"
        }
      ],
      "name": "NewAdmin",
      "type": "event"
    },
    {
      "anonymous": false,
      "inputs": [
        {
          "indexed": false,
          "internalType": "contract ComptrollerInterface",
          "name": "oldComptroller",
          "type": "address"
        },
        {
          "indexed": false,
          "internalType": "contract ComptrollerInterface",
          "name": "newComptroller",
          "type": "address"
        }
      ],
      "name": "NewComptroller",
      "type": "event"
    },
    {
      "anonymous": false,
      "inputs": [
        {
          "indexed": false,
          "internalType": "contract InterestRateModel",
          "name": "oldInterestRateModel",
          "type": "address"
        },
        {
          "indexed": false,
          "internalType": "contract InterestRateModel",
          "name": "newInterestRateModel",
          "type": "address"
        }
      ],
      "name": "NewMarketInterestRateModel",
      "type": "event"
    },
    {
      "anonymous": false,
      "inputs": [
        {
          "indexed": false,
          "internalType": "address",
          "name": "oldPendingAdmin",
          "type": "address"
        },
        {
          "indexed": false,
          "internalType": "address",
          "name": "newPendingAdmin",
          "type": "address"
        }
      ],
      "name": "NewPendingAdmin",
      "type": "event"
    },
    {
      "anonymous": false,
      "inputs": [
        {
          "indexed": false,
          "internalType": "uint256",
          "name": "oldReserveFactorMantissa",
          "type": "uint256"
        },
        {
          "indexed": false,
          "internalType": "uint256",
          "name": "newReserveFactorMantissa",
          "type": "uint256"
        }
      ],
      "name": "NewReserveFactor",
      "type": "event"
    },
    {
      "anonymous": false,
      "inputs": [
        {
          "indexed": false,
          "internalType": "address",
          "name": "redeemer",
          "type": "address"
        },
        {
          "indexed": false,
          "internalType": "uint256",
          "name": "redeemAmount",
          "type": "uint256"
        },
        {
          "indexed": false,
          "internalType": "uint256",
          "name": "redeemTokens",
          "type": "uint256"
        }
      ],
      "name": "Redeem",
      "type": "event"
    },
    {
      "anonymous": false,
      "inputs": [
        {
          "indexed": false,
          "internalType": "address",
          "name": "payer",
          "type": "address"
        },
        {
          "indexed": false,
          "internalType": "address",
          "name": "borrower",
          "type": "address"
        },
        {
          "indexed": false,
          "internalType": "uint256",
          "name": "repayAmount",
          "type": "uint256"
        },
        {
          "indexed": false,
          "internalType": "uint256",
          "name": "accountBorrows",
          "type": "uint256"
        },
        {
          "indexed": false,
          "internalType": "uint256",
          "name": "totalBorrows",
          "type": "uint256"
        }
      ],
      "name": "RepayBorrow",
      "type": "event"
    },
    {
      "anonymous": false,
      "inputs": [
        {
          "indexed": false,
          "internalType": "address",
          "name": "benefactor",
          "type": "address"
        },
        {
          "indexed": false,
          "internalType": "uint256",
          "name": "addAmount",
          "type": "uint256"
        },
        {
          "indexed": false,
          "internalType": "uint256",
          "name": "newTotalReserves",
          "type": "uint256"
        }
      ],
      "name": "ReservesAdded",
      "type": "event"
    },
    {
      "anonymous": false,
      "inputs": [
        {
          "indexed": false,
          "internalType": "address",
          "name": "admin",
          "type": "address"
        },
        {
          "indexed": false,
          "internalType": "uint256",
          "name": "reduceAmount",
          "type": "uint256"
        },
        {
          "indexed": false,
          "internalType": "uint256",
          "name": "newTotalReserves",
          "type": "uint256"
        }
      ],
      "name": "ReservesReduced",
      "type": "event"
    },
    {
      "anonymous": false,
      "inputs": [
        {
          "indexed": true,
          "internalType": "address",
          "name": "from",
          "type": "address"
        },
        {
          "indexed": true,
          "internalType": "address",
          "name": "to",
          "type": "address"
        },
        {
          "indexed": false,
          "internalType": "uint256",
          "name": "amount",
          "type": "uint256"
        }
      ],
      "name": "Transfer",
      "type": "event"
    },
    {
      "constant": false,
      "inputs": [],
      "name": "_acceptAdmin",
      "outputs": [
        {
          "internalType": "uint256",
          "name": "",
          "type": "uint256"
        }
      ],
      "payable": false,
      "stateMutability": "nonpayable",
      "type": "function"
    },
    {
      "constant": false,
      "inputs": [
        {
          "internalType": "uint256",
          "name": "addAmount",
          "type": "uint256"
        }
      ],
      "name": "_addReserves",
      "outputs": [
        {
          "internalType": "uint256",
          "name": "",
          "type": "uint256"
        }
      ],
      "payable": false,
      "stateMutability": "nonpayable",
      "type": "function"
    },
    {
      "constant": false,
      "inputs": [
        {
          "internalType": "uint256",
          "name": "reduceAmount",
          "type": "uint256"
        }
      ],
      "name": "_reduceReserves",
      "outputs": [
        {
          "internalType": "uint256",
          "name": "",
          "type": "uint256"
        }
      ],
      "payable": false,
      "stateMutability": "nonpayable",
      "type": "function"
    },
    {
      "constant": false,
      "inputs": [
        {
          "internalType": "contract ComptrollerInterface",
          "name": "newComptroller",
          "type": "address"
        }
      ],
      "name": "_setComptroller",
      "outputs": [
        {
          "internalType": "uint256",
          "name": "",
          "type": "uint256"
        }
      ],
      "payable": false,
      "stateMutability": "nonpayable",
      "type": "function"
    },
    {
      "constant": false,
      "inputs": [
        {
          "internalType": "contract InterestRateModel",
          "name": "newInterestRateModel",
          "type": "address"
        }
      ],
      "name": "_setInterestRateModel",
      "outputs": [
        {
          "internalType": "uint256",
          "name": "",
          "type": "uint256"
        }
      ],
      "payable": false,
      "stateMutability": "nonpayable",
      "type": "function"
    },
    {
      "constant": false,
      "inputs": [
        {
          "internalType": "address payable",
          "name": "newPendingAdmin",
          "type": "address"
        }
      ],
      "name": "_setPendingAdmin",
      "outputs": [
        {
          "internalType": "uint256",
          "name": "",
          "type": "uint256"
        }
      ],
      "payable": false,
      "stateMutability": "nonpayable",
      "type": "function"
    },
    {
      "constant": false,
      "inputs": [
        {
          "internalType": "uint256",
          "name": "newReserveFactorMantissa",
          "type": "uint256"
        }
      ],
      "name": "_setReserveFactor",
      "outputs": [
        {
          "internalType": "uint256",
          "name": "",
          "type": "uint256"
        }
      ],
      "payable": false,
      "stateMutability": "nonpayable",
      "type": "function"
    },
    {
      "constant": true,
      "inputs": [],
      "name": "accrualBlockNumber",
      "outputs": [
        {
          "internalType": "uint256",
          "name": "",
          "type": "uint256"
        }
      ],
      "payable": false,
      "stateMutability": "view",
      "type": "function"
    },
    {
      "constant": false,
      "inputs": [],
      "name": "accrueInterest",
      "outputs": [
        {
          "internalType": "uint256",
          "name": "",
          "type": "uint256"
        }
      ],
      "payable": false,
      "stateMutability": "nonpayable",
      "type": "function"
    },
    {
      "constant": true,
      "inputs": [],
      "name": "admin",
      "outputs": [
        {
          "internalType": "address payable",
          "name": "",
          "type": "address"
        }
      ],
      "payable": false,
      "stateMutability": "view",
      "type": "function"
    },
    {
      "constant": true,
      "inputs": [
        {
          "internalType": "address",
          "name": "owner",
          "type": "address"
        },
        {
          "internalType": "address",
          "name": "spender",
          "type": "address"
        }
      ],
      "name": "allowance",
      "outputs": [
        {
          "internalType": "uint256",
          "name": "",
          "type": "uint256"
        }
      ],
      "payable": false,
      "stateMutability": "view",
      "type": "function"
    },
    {
      "constant": false,
      "inputs": [
        {
          "internalType": "address",
          "name": "spender",
          "type": "address"
        },
        {
          "internalType": "uint256",
          "name": "amount",
          "type": "uint256"
        }
      ],
      "name": "approve",
      "outputs": [
        {
          "internalType": "bool",
          "name": "",
          "type": "bool"
        }
      ],
      "payable": false,
      "stateMutability": "nonpayable",
      "type": "function"
    },
    {
      "constant": true,
      "inputs": [
        {
          "internalType": "address",
          "name": "owner",
          "type": "address"
        }
      ],
      "name": "balanceOf",
      "outputs": [
        {
          "internalType": "uint256",
          "name": "",
          "type": "uint256"
        }
      ],
      "payable": false,
      "stateMutability": "view",
      "type": "function"
    },
    {
      "constant": false,
      "inputs": [
        {
          "internalType": "address",
          "name": "owner",
          "type": "address"
        }
      ],
      "name": "balanceOfUnderlying",
      "outputs": [
        {
          "internalType": "uint256",
          "name": "",
          "type": "uint256"
        }
      ],
      "payable": false,
      "stateMutability": "nonpayable",
      "type": "function"
    },
    {
      "constant": false,
      "inputs": [
        {
          "internalType": "uint256",
          "name": "borrowAmount",
          "type": "uint256"
        }
      ],
      "name": "borrow",
      "outputs": [
        {
          "internalType": "uint256",
          "name": "",
          "type": "uint256"
        }
      ],
      "payable": false,
      "stateMutability": "nonpayable",
      "type": "function"
    },
    {
      "constant": false,
      "inputs": [
        {
          "internalType": "address",
          "name": "account",
          "type": "address"
        }
      ],
      "name": "borrowBalanceCurrent",
      "outputs": [
        {
          "internalType": "uint256",
          "name": "",
          "type": "uint256"
        }
      ],
      "payable": false,
      "stateMutability": "nonpayable",
      "type": "function"
    },
    {
      "constant": true,
      "inputs": [
        {
          "internalType": "address",
          "name": "account",
          "type": "address"
        }
      ],
      "name": "borrowBalanceStored",
      "outputs": [
        {
          "internalType": "uint256",
          "name": "",
          "type": "uint256"
        }
      ],
      "payable": false,
      "stateMutability": "view",
      "type": "function"
    },
    {
      "constant": true,
      "inputs": [],
      "name": "borrowIndex",
      "outputs": [
        {
          "internalType": "uint256",
          "name": "",
          "type": "uint256"
        }
      ],
      "payable": false,
      "stateMutability": "view",
      "type": "function"
    },
    {
      "constant": true,
      "inputs": [],
      "name": "borrowRatePerBlock",
      "outputs": [
        {
          "internalType": "uint256",
          "name": "",
          "type": "uint256"
        }
      ],
      "payable": false,
      "stateMutability": "view",
      "type": "function"
    },
    {
      "constant": true,
      "inputs": [],
      "name": "comptroller",
      "outputs": [
        {
          "internalType": "contract ComptrollerInterface",
          "name": "",
          "type": "address"
        }
      ],
      "payable": false,
      "stateMutability": "view",
      "type": "function"
    },
    {
      "constant": true,
      "inputs": [],
      "name": "decimals",
      "outputs": [
        {
          "internalType": "uint8",
          "name": "",
          "type": "uint8"
        }
      ],
      "payable": false,
      "stateMutability": "view",
      "type": "function"
    },
    {
      "constant": false,
      "inputs": [],
      "name": "exchangeRateCurrent",
      "outputs": [
        {
          "internalType": "uint256",
          "name": "",
          "type": "uint256"
        }
      ],
      "payable": false,
      "stateMutability": "nonpayable",
      "type": "function"
    },
    {
      "constant": true,
      "inputs": [],
      "name": "exchangeRateStored",
      "outputs": [
        {
          "internalType": "uint256",
          "name": "",
          "type": "uint256"
        }
      ],
      "payable": false,
      "stateMutability": "view",
      "type": "function"
    },
    {
      "constant": true,
      "inputs": [
        {
          "internalType": "address",
          "name": "account",
          "type": "address"
        }
      ],
      "name": "getAccountSnapshot",
      "outputs": [
        {
          "internalType": "uint256",
          "name": "",
          "type": "uint256"
        },
        {
          "internalType": "uint256",
          "name": "",
          "type": "uint256"
        },
        {
          "internalType": "uint256",
          "name": "",
          "type": "uint256"
        },
        {
          "internalType": "uint256",
          "name": "",
          "type": "uint256"
        }
      ],
      "payable": false,
      "stateMutability": "view",
      "type": "function"
    },
    {
      "constant": true,
      "inputs": [],
      "name": "getCash",
      "outputs": [
        {
          "internalType": "uint256",
          "name": "",
          "type": "uint256"
        }
      ],
      "payable": false,
      "stateMutability": "view",
      "type": "function"
    },
    {
      "constant": false,
      "inputs": [
        {
          "internalType": "address",
          "name": "underlying_",
          "type": "address"
        },
        {
          "internalType": "contract ComptrollerInterface",
          "name": "comptroller_",
          "type": "address"
        },
        {
          "internalType": "contract InterestRateModel",
          "name": "interestRateModel_",
          "type": "address"
        },
        {
          "internalType": "uint256",
          "name": "initialExchangeRateMantissa_",
          "type": "uint256"
        },
        {
          "internalType": "string",
          "name": "name_",
          "type": "string"
        },
        {
          "internalType": "string",
          "name": "symbol_",
          "type": "string"
        },
        {
          "internalType": "uint8",
          "name": "decimals_",
          "type": "uint8"
        }
      ],
      "name": "initialize",
      "outputs": [],
      "payable": false,
      "stateMutability": "nonpayable",
      "type": "function"
    },
    {
      "constant": false,
      "inputs": [
        {
          "internalType": "contract ComptrollerInterface",
          "name": "comptroller_",
          "type": "address"
        },
        {
          "internalType": "contract InterestRateModel",
          "name": "interestRateModel_",
          "type": "address"
        },
        {
          "internalType": "uint256",
          "name": "initialExchangeRateMantissa_",
          "type": "uint256"
        },
        {
          "internalType": "string",
          "name": "name_",
          "type": "string"
        },
        {
          "internalType": "string",
          "name": "symbol_",
          "type": "string"
        },
        {
          "internalType": "uint8",
          "name": "decimals_",
          "type": "uint8"
        }
      ],
      "name": "initialize",
      "outputs": [],
      "payable": false,
      "stateMutability": "nonpayable",
      "type": "function"
    },
    {
      "constant": true,
      "inputs": [],
      "name": "interestRateModel",
      "outputs": [
        {
          "internalType": "contract InterestRateModel",
          "name": "",
          "type": "address"
        }
      ],
      "payable": false,
      "stateMutability": "view",
      "type": "function"
    },
    {
      "constant": true,
      "inputs": [],
      "name": "isCToken",
      "outputs": [
        {
          "internalType": "bool",
          "name": "",
          "type": "bool"
        }
      ],
      "payable": false,
      "stateMutability": "view",
      "type": "function"
    },
    {
      "constant": true,
      "inputs": [],
      "name": "isNativeToken",
      "outputs": [
        {
          "internalType": "bool",
          "name": "",
          "type": "bool"
        }
      ],
      "payable": false,
      "stateMutability": "pure",
      "type": "function"
    },
    {
      "constant": false,
      "inputs": [
        {
          "internalType": "address",
          "name": "borrower",
          "type": "address"
        },
        {
          "internalType": "uint256",
          "name": "repayAmount",
          "type": "uint256"
        },
        {
          "internalType": "contract CTokenInterface",
          "name": "cTokenCollateral",
          "type": "address"
        }
      ],
      "name": "liquidateBorrow",
      "outputs": [
        {
          "internalType": "uint256",
          "name": "",
          "type": "uint256"
        }
      ],
      "payable": false,
      "stateMutability": "nonpayable",
      "type": "function"
    },
    {
      "constant": false,
      "inputs": [
        {
          "internalType": "uint256",
          "name": "mintAmount",
          "type": "uint256"
        }
      ],
      "name": "mint",
      "outputs": [
        {
          "internalType": "uint256",
          "name": "",
          "type": "uint256"
        }
      ],
      "payable": false,
      "stateMutability": "nonpayable",
      "type": "function"
    },
    {
      "constant": true,
      "inputs": [],
      "name": "name",
      "outputs": [
        {
          "internalType": "string",
          "name": "",
          "type": "string"
        }
      ],
      "payable": false,
      "stateMutability": "view",
      "type": "function"
    },
    {
      "constant": true,
      "inputs": [],
      "name": "pendingAdmin",
      "outputs": [
        {
          "internalType": "address payable",
          "name": "",
          "type": "address"
        }
      ],
      "payable": false,
      "stateMutability": "view",
      "type": "function"
    },
    {
      "constant": false,
      "inputs": [
        {
          "internalType": "uint256",
          "name": "redeemTokens",
          "type": "uint256"
        }
      ],
      "name": "redeem",
      "outputs": [
        {
          "internalType": "uint256",
          "name": "",
          "type": "uint256"
        }
      ],
      "payable": false,
      "stateMutability": "nonpayable",
      "type": "function"
    },
    {
      "constant": false,
      "inputs": [
        {
          "internalType": "uint256",
          "name": "redeemAmount",
          "type": "uint256"
        }
      ],
      "name": "redeemUnderlying",
      "outputs": [
        {
          "internalType": "uint256",
          "name": "",
          "type": "uint256"
        }
      ],
      "payable": false,
      "stateMutability": "nonpayable",
      "type": "function"
    },
    {
      "constant": false,
      "inputs": [
        {
          "internalType": "uint256",
          "name": "repayAmount",
          "type": "uint256"
        }
      ],
      "name": "repayBorrow",
      "outputs": [
        {
          "internalType": "uint256",
          "name": "",
          "type": "uint256"
        }
      ],
      "payable": false,
      "stateMutability": "nonpayable",
      "type": "function"
    },
    {
      "constant": false,
      "inputs": [
        {
          "internalType": "address",
          "name": "borrower",
          "type": "address"
        },
        {
          "internalType": "uint256",
          "name": "repayAmount",
          "type": "uint256"
        }
      ],
      "name": "repayBorrowBehalf",
      "outputs": [
        {
          "internalType": "uint256",
          "name": "",
          "type": "uint256"
        }
      ],
      "payable": false,
      "stateMutability": "nonpayable",
      "type": "function"
    },
    {
      "constant": true,
      "inputs": [],
      "name": "reserveFactorMantissa",
      "outputs": [
        {
          "internalType": "uint256",
          "name": "",
          "type": "uint256"
        }
      ],
      "payable": false,
      "stateMutability": "view",
      "type": "function"
    },
    {
      "constant": false,
      "inputs": [
        {
          "internalType": "address",
          "name": "liquidator",
          "type": "address"
        },
        {
          "internalType": "address",
          "name": "borrower",
          "type": "address"
        },
        {
          "internalType": "uint256",
          "name": "seizeTokens",
          "type": "uint256"
        }
      ],
      "name": "seize",
      "outputs": [
        {
          "internalType": "uint256",
          "name": "",
          "type": "uint256"
        }
      ],
      "payable": false,
      "stateMutability": "nonpayable",
      "type": "function"
    },
    {
      "constant": true,
      "inputs": [],
      "name": "supplyRatePerBlock",
      "outputs": [
        {
          "internalType": "uint256",
          "name": "",
          "type": "uint256"
        }
      ],
      "payable": false,
      "stateMutability": "view",
      "type": "function"
    },
    {
      "constant": true,
      "inputs": [],
      "name": "symbol",
      "outputs": [
        {
          "internalType": "string",
          "name": "",
          "type": "string"
        }
      ],
      "payable": false,
      "stateMutability": "view",
      "type": "function"
    },
    {
      "constant": true,
      "inputs": [],
      "name": "totalBorrows",
      "outputs": [
        {
          "internalType": "uint256",
          "name": "",
          "type": "uint256"
        }
      ],
      "payable": false,
      "stateMutability": "view",
      "type": "function"
    },
    {
      "constant": false,
      "inputs": [],
      "name": "totalBorrowsCurrent",
      "outputs": [
        {
          "internalType": "uint256",
          "name": "",
          "type": "uint256"
        }
      ],
      "payable": false,
      "stateMutability": "nonpayable",
      "type": "function"
    },
    {
      "constant": true,
      "inputs": [],
      "name": "totalReserves",
      "outputs": [
        {
          "internalType": "uint256",
          "name": "",
          "type": "uint256"
        }
      ],
      "payable": false,
      "stateMutability": "view",
      "type": "function"
    },
    {
      "constant": true,
      "inputs": [],
      "name": "totalSupply",
      "outputs": [
        {
          "internalType": "uint256",
          "name": "",
          "type": "uint256"
        }
      ],
      "payable": false,
      "stateMutability": "view",
      "type": "function"
    },
    {
      "constant": false,
      "inputs": [
        {
          "internalType": "address",
          "name": "dst",
          "type": "address"
        },
        {
          "internalType": "uint256",
          "name": "amount",
          "type": "uint256"
        }
      ],
      "name": "transfer",
      "outputs": [
        {
          "internalType": "bool",
          "name": "",
          "type": "bool"
        }
      ],
      "payable": false,
      "stateMutability": "nonpayable",
      "type": "function"
    },
    {
      "constant": false,
      "inputs": [
        {
          "internalType": "address",
          "name": "src",
          "type": "address"
        },
        {
          "internalType": "address",
          "name": "dst",
          "type": "address"
        },
        {
          "internalType": "uint256",
          "name": "amount",
          "type": "uint256"
        }
      ],
      "name": "transferFrom",
      "outputs": [
        {
          "internalType": "bool",
          "name": "",
          "type": "bool"
        }
      ],
      "payable": false,
      "stateMutability": "nonpayable",
      "type": "function"
    },
    {
      "constant": true,
      "inputs": [],
      "name": "underlying",
      "outputs": [
        {
          "internalType": "address",
          "name": "",
          "type": "address"
        }
      ],
      "payable": false,
      "stateMutability": "view",
      "type": "function"
    }
  ],
  "bytecode": "0x60806040523480156200001157600080fd5b5060405162005c3138038062005c3183398181016040526101008110156200003857600080fd5b81516020830151604080850151606086015160808701805193519597949692959194919392820192846401000000008211156200007457600080fd5b9083019060208201858111156200008a57600080fd5b8251640100000000811182820188101715620000a557600080fd5b82525081516020918201929091019080838360005b83811015620000d4578181015183820152602001620000ba565b50505050905090810190601f168015620001025780820380516001836020036101000a031916815260200191505b50604052602001805160405193929190846401000000008211156200012657600080fd5b9083019060208201858111156200013c57600080fd5b82516401000000008111828201881017156200015757600080fd5b82525081516020918201929091019080838360005b83811015620001865781810151838201526020016200016c565b50505050905090810190601f168015620001b45780820380516001836020036101000a031916815260200191505b506040908152602082015191015160038054610100600160a81b03191633610100021790559092509050620001ef8888888888888862000223565b600380546001600160a01b0390921661010002610100600160a81b0319909216919091179055506200090d95505050505050565b6200023e868686868686620002d260201b620012131760201c565b601180546001600160a01b0319166001600160a01b038981169190911791829055604080516318160ddd60e01b8152905192909116916318160ddd91600480820192602092909190829003018186803b1580156200029b57600080fd5b505afa158015620002b0573d6000803e3d6000fd5b505050506040513d6020811015620002c757600080fd5b505050505050505050565b60035461010090046001600160a01b03163314620003225760405162461bcd60e51b815260040180806020018281038252602481526020018062005b986024913960400191505060405180910390fd5b600954158015620003335750600a54155b620003705760405162461bcd60e51b815260040180806020018281038252602381526020018062005bbc6023913960400191505060405180910390fd5b600784905583620003b35760405162461bcd60e51b815260040180806020018281038252603081526020018062005bdf6030913960400191505060405180910390fd5b6000620003c9876001600160e01b03620004e816565b905080156200041f576040805162461bcd60e51b815260206004820152601a60248201527f73657474696e6720636f6d7074726f6c6c6572206661696c6564000000000000604482015290519081900360640190fd5b620004326001600160e01b036200065016565b600955670de0b6b3a7640000600a5562000455866001600160e01b036200065516565b90508015620004965760405162461bcd60e51b815260040180806020018281038252602281526020018062005c0f6022913960400191505060405180910390fd5b8351620004ab9060019060208701906200086b565b508251620004c19060029060208601906200086b565b50506003805460ff90921660ff199283161790556000805490911660011790555050505050565b60035460009061010090046001600160a01b0316331462000522576200051a6001603f6001600160e01b03620007fb16565b90506200064b565b60055460408051623f1ee960e11b815290516001600160a01b0392831692851691627e3dd2916004808301926020929190829003018186803b1580156200056857600080fd5b505afa1580156200057d573d6000803e3d6000fd5b505050506040513d60208110156200059457600080fd5b5051620005e8576040805162461bcd60e51b815260206004820152601c60248201527f6d61726b6572206d6574686f642072657475726e65642066616c736500000000604482015290519081900360640190fd5b600580546001600160a01b0319166001600160a01b03858116918217909255604080519284168352602083019190915280517f7ac369dbd14fa5ea3f473ed67cc9d598964a77501540ba6751eb0b3decf5870d9281900390910190a160005b9150505b919050565b435b90565b600354600090819061010090046001600160a01b03163314620006925762000689600160426001600160e01b03620007fb16565b9150506200064b565b620006a56001600160e01b036200065016565b60095414620006c55762000689600a60416001600160e01b03620007fb16565b600660009054906101000a90046001600160a01b03169050826001600160a01b0316632191f92a6040518163ffffffff1660e01b815260040160206040518083038186803b1580156200071757600080fd5b505afa1580156200072c573d6000803e3d6000fd5b505050506040513d60208110156200074357600080fd5b505162000797576040805162461bcd60e51b815260206004820152601c60248201527f6d61726b6572206d6574686f642072657475726e65642066616c736500000000604482015290519081900360640190fd5b600680546001600160a01b0319166001600160a01b03858116918217909255604080519284168352602083019190915280517fedffc32e068c7c95dfd4bdfd5c4d939a084d6b11c4199eac8436ed234d72f9269281900390910190a1600062000647565b60007f45b96fe442630264581b197e84bbada861235052c5a1aadfff9ea4e40a969aa08360108111156200082b57fe5b8360508111156200083857fe5b604080519283526020830191909152600082820152519081900360600190a18260108111156200086457fe5b9392505050565b828054600181600116156101000203166002900490600052602060002090601f016020900481019282601f10620008ae57805160ff1916838001178555620008de565b82800160010185558215620008de579182015b82811115620008de578251825591602001919060010190620008c1565b50620008ec929150620008f0565b5090565b6200065291905b80821115620008ec5760008155600101620008f7565b61527b806200091d6000396000f3fe608060405234801561001057600080fd5b506004361061024b5760003560e01c80638f840ddd116101425780638f840ddd1461066f57806395d89b411461067757806395dd91931461067f57806399d8c1b4146106a55780639af4ee7e146107f3578063a0712d68146107fb578063a6afed9514610818578063a9059cbb14610820578063aa5af0fd1461084c578063ae9d70b014610854578063b2a02ff11461085c578063b71d1a0c14610892578063bd6d894d146108b8578063c37f68e2146108c0578063c5ebeaec1461090c578063db006a7514610929578063dd62ed3e14610946578063e9c714f214610974578063f2b3abbd1461097c578063f3fdb15a146109a2578063f5e3c462146109aa578063f851a440146109e0578063f8f9da28146109e8578063fca7820b146109f0578063fe9c44ae14610a0d5761024b565b806306fdde0314610250578063095ea7b3146102cd5780630e7527021461030d578063173b99041461033c57806317bfdfbc1461034457806318160ddd1461036a578063182df0f5146103725780631a31d4651461037a57806323b872dd146104d25780632608f818146105085780632678224714610534578063313ce567146105585780633af9e669146105765780633b1d21a21461059c5780633e941010146105a45780634576b5db146105c157806347bd3718146105e75780635fe3b567146105ef578063601a0bf1146105f75780636c540baf146106145780636f307dc31461061c57806370a082311461062457806373acee981461064a578063852a12e314610652575b600080fd5b610258610a15565b6040805160208082528351818301528351919283929083019185019080838360005b8381101561029257818101518382015260200161027a565b50505050905090810190601f1680156102bf5780820380516001836020036101000a031916815260200191505b509250505060405180910390f35b6102f9600480360360408110156102e357600080fd5b506001600160a01b038135169060200135610aa2565b604080519115158252519081900360200190f35b61032a6004803603602081101561032357600080fd5b5035610b0f565b60408051918252519081900360200190f35b61032a610b25565b61032a6004803603602081101561035a57600080fd5b50356001600160a01b0316610b2b565b61032a610beb565b61032a610bf1565b6104d0600480360360e081101561039057600080fd5b6001600160a01b03823581169260208101358216926040820135909216916060820135919081019060a081016080820135600160201b8111156103d257600080fd5b8201836020820111156103e457600080fd5b803590602001918460018302840111600160201b8311171561040557600080fd5b91908080601f0160208091040260200160405190810160405280939291908181526020018383808284376000920191909152509295949360208101935035915050600160201b81111561045757600080fd5b82018360208201111561046957600080fd5b803590602001918460018302840111600160201b8311171561048a57600080fd5b91908080601f0160208091040260200160405190810160405280939291908181526020018383808284376000920191909152509295505050903560ff169150610c549050565b005b6102f9600480360360608110156104e857600080fd5b506001600160a01b03813581169160208101359091169060400135610cf3565b61032a6004803603604081101561051e57600080fd5b506001600160a01b038135169060200135610d65565b61053c610d7b565b604080516001600160a01b039092168252519081900360200190f35b610560610d8a565b6040805160ff9092168252519081900360200190f35b61032a6004803603602081101561058c57600080fd5b50356001600160a01b0316610d93565b61032a610e49565b61032a600480360360208110156105ba57600080fd5b5035610e58565b61032a600480360360208110156105d757600080fd5b50356001600160a01b0316610e63565b61032a610fb7565b61053c610fbd565b61032a6004803603602081101561060d57600080fd5b5035610fcc565b61032a611067565b61053c61106d565b61032a6004803603602081101561063a57600080fd5b50356001600160a01b031661107c565b61032a611097565b61032a6004803603602081101561066857600080fd5b503561114d565b61032a611158565b61025861115e565b61032a6004803603602081101561069557600080fd5b50356001600160a01b03166111b6565b6104d0600480360360c08110156106bb57600080fd5b6001600160a01b03823581169260208101359091169160408201359190810190608081016060820135600160201b8111156106f557600080fd5b82018360208201111561070757600080fd5b803590602001918460018302840111600160201b8311171561072857600080fd5b91908080601f0160208091040260200160405190810160405280939291908181526020018383808284376000920191909152509295949360208101935035915050600160201b81111561077a57600080fd5b82018360208201111561078c57600080fd5b803590602001918460018302840111600160201b831117156107ad57600080fd5b91908080601f0160208091040260200160405190810160405280939291908181526020018383808284376000920191909152509295505050903560ff1691506112139050565b6102f96113f7565b61032a6004803603602081101561081157600080fd5b50356113fc565b61032a611408565b6102f96004803603604081101561083657600080fd5b506001600160a01b03813516906020013561175f565b61032a6117d0565b61032a6117d6565b61032a6004803603606081101561087257600080fd5b506001600160a01b03813581169160208101359091169060400135611875565b61032a600480360360208110156108a857600080fd5b50356001600160a01b03166118e6565b61032a611972565b6108e6600480360360208110156108d657600080fd5b50356001600160a01b0316611a2e565b604080519485526020850193909352838301919091526060830152519081900360800190f35b61032a6004803603602081101561092257600080fd5b5035611ac3565b61032a6004803603602081101561093f57600080fd5b5035611ace565b61032a6004803603604081101561095c57600080fd5b506001600160a01b0381358116916020013516611ad9565b61032a611b04565b61032a6004803603602081101561099257600080fd5b50356001600160a01b0316611c07565b61053c611c41565b61032a600480360360608110156109c057600080fd5b506001600160a01b03813581169160208101359160409091013516611c50565b61053c611c68565b61032a611c7c565b61032a60048036036020811015610a0657600080fd5b5035611ce0565b6102f9611d5e565b60018054604080516020600284861615610100026000190190941693909304601f81018490048402820184019092528181529291830182828015610a9a5780601f10610a6f57610100808354040283529160200191610a9a565b820191906000526020600020905b815481529060010190602001808311610a7d57829003601f168201915b505050505081565b336000818152600f602090815260408083206001600160a01b03871680855290835281842086905581518681529151939493909284927f8c5be1e5ebec7d5bd14f71427d1e84f3dd0314c0f7b2291e5b200ac8c7c3b925929081900390910190a360019150505b92915050565b600080610b1b83611d63565b509150505b919050565b60085481565b6000805460ff16610b70576040805162461bcd60e51b815260206004820152600a6024820152691c994b595b9d195c995960b21b604482015290519081900360640190fd5b6000805460ff19168155610b82611408565b14610bcd576040805162461bcd60e51b81526020600482015260166024820152751858d8dc9d59481a5b9d195c995cdd0819985a5b195960521b604482015290519081900360640190fd5b610bd6826111b6565b90505b6000805460ff19166001179055919050565b600d5481565b6000806000610bfe611e0c565b90925090506000826003811115610c1157fe5b14610c4d5760405162461bcd60e51b81526004018080602001828103825260358152602001806151926035913960400191505060405180910390fd5b9150505b90565b610c62868686868686611213565b601180546001600160a01b0319166001600160a01b038981169190911791829055604080516318160ddd60e01b8152905192909116916318160ddd91600480820192602092909190829003018186803b158015610cbe57600080fd5b505afa158015610cd2573d6000803e3d6000fd5b505050506040513d6020811015610ce857600080fd5b505050505050505050565b6000805460ff16610d38576040805162461bcd60e51b815260206004820152600a6024820152691c994b595b9d195c995960b21b604482015290519081900360640190fd5b6000805460ff19168155610d4e33868686611ebb565b1490506000805460ff191660011790559392505050565b600080610d7284846121c9565b50949350505050565b6004546001600160a01b031681565b60035460ff1681565b6000610d9d614e80565b6040518060200160405280610db0611972565b90526001600160a01b0384166000908152600e6020526040812054919250908190610ddc908490612274565b90925090506000826003811115610def57fe5b14610e41576040805162461bcd60e51b815260206004820152601f60248201527f62616c616e636520636f756c64206e6f742062652063616c63756c6174656400604482015290519081900360640190fd5b949350505050565b6000610e536122c8565b905090565b6000610b0982612348565b60035460009061010090046001600160a01b03163314610e9057610e896001603f6123dc565b9050610b20565b60055460408051623f1ee960e11b815290516001600160a01b0392831692851691627e3dd2916004808301926020929190829003018186803b158015610ed557600080fd5b505afa158015610ee9573d6000803e3d6000fd5b505050506040513d6020811015610eff57600080fd5b5051610f51576040805162461bcd60e51b815260206004820152601c60248201527b6d61726b6572206d6574686f642072657475726e65642066616c736560201b604482015290519081900360640190fd5b600580546001600160a01b0319166001600160a01b03858116918217909255604080519284168352602083019190915280517f7ac369dbd14fa5ea3f473ed67cc9d598964a77501540ba6751eb0b3decf5870d9281900390910190a160005b9392505050565b600b5481565b6005546001600160a01b031681565b6000805460ff16611011576040805162461bcd60e51b815260206004820152600a6024820152691c994b595b9d195c995960b21b604482015290519081900360640190fd5b6000805460ff19168155611023611408565b905080156110495761104181601081111561103a57fe5b60306123dc565b915050610bd9565b61105283612442565b9150506000805460ff19166001179055919050565b60095481565b6011546001600160a01b031681565b6001600160a01b03166000908152600e602052604090205490565b6000805460ff166110dc576040805162461bcd60e51b815260206004820152600a6024820152691c994b595b9d195c995960b21b604482015290519081900360640190fd5b6000805460ff191681556110ee611408565b14611139576040805162461bcd60e51b81526020600482015260166024820152751858d8dc9d59481a5b9d195c995cdd0819985a5b195960521b604482015290519081900360640190fd5b50600b546000805460ff1916600117905590565b6000610b0982612575565b600c5481565b6002805460408051602060018416156101000260001901909316849004601f81018490048402820184019092528181529291830182828015610a9a5780601f10610a6f57610100808354040283529160200191610a9a565b60008060006111c4846125f6565b909250905060008260038111156111d757fe5b14610fb05760405162461bcd60e51b815260040180806020018281038252603781526020018061509d6037913960400191505060405180910390fd5b60035461010090046001600160a01b031633146112615760405162461bcd60e51b8152600401808060200182810382526024815260200180614fd96024913960400191505060405180910390fd5b6009541580156112715750600a54155b6112ac5760405162461bcd60e51b8152600401808060200182810382526023815260200180614ffd6023913960400191505060405180910390fd5b6007849055836112ed5760405162461bcd60e51b81526004018080602001828103825260308152602001806150206030913960400191505060405180910390fd5b60006112f887610e63565b9050801561134a576040805162461bcd60e51b815260206004820152601a6024820152791cd95d1d1a5b99c818dbdb5c1d1c9bdb1b195c8819985a5b195960321b604482015290519081900360640190fd5b6113526126aa565b600955670de0b6b3a7640000600a5561136a866126ae565b905080156113a95760405162461bcd60e51b81526004018080602001828103825260228152602001806150506022913960400191505060405180910390fd5b83516113bc906001906020870190614e93565b5082516113d0906002906020860190614e93565b50506003805460ff90921660ff199283161790556000805490911660011790555050505050565b600090565b600080610b1b83612822565b6000806114136126aa565b6009549091508082141561142c57600092505050610c51565b60006114366122c8565b600b54600c54600a54600654604080516315f2405360e01b815260048101879052602481018690526044810185905290519596509394929391926000926001600160a01b03909216916315f24053916064808301926020929190829003018186803b1580156114a457600080fd5b505afa1580156114b8573d6000803e3d6000fd5b505050506040513d60208110156114ce57600080fd5b5051905065048c2739500081111561152c576040805162461bcd60e51b815260206004820152601c60248201527b0c4dee4e4deee40e4c2e8ca40d2e640c2c4e6eae4c8d8f240d0d2ced60231b604482015290519081900360640190fd5b60008061153989896128a3565b9092509050600082600381111561154c57fe5b1461159e576040805162461bcd60e51b815260206004820152601f60248201527f636f756c64206e6f742063616c63756c61746520626c6f636b2064656c746100604482015290519081900360640190fd5b6115a6614e80565b6000806000806115c460405180602001604052808a815250876128c6565b909750945060008760038111156115d757fe5b14611609576115f4600960068960038111156115ef57fe5b61292e565b9e505050505050505050505050505050610c51565b611613858c612274565b9097509350600087600381111561162657fe5b1461163e576115f4600960018960038111156115ef57fe5b611648848c612994565b9097509250600087600381111561165b57fe5b14611673576115f4600960048960038111156115ef57fe5b61168e6040518060200160405280600854815250858c6129ba565b909750915060008760038111156116a157fe5b146116b9576115f4600960058960038111156115ef57fe5b6116c4858a8b6129ba565b909750905060008760038111156116d757fe5b146116ef576115f4600960038960038111156115ef57fe5b60098e9055600a819055600b839055600c829055604080518d8152602081018690528082018390526060810185905290517f4dec04e750ca11537cabcd8a9eab06494de08da3735bc8871cd41250e190bc049181900360800190a160009e50505050505050505050505050505090565b6000805460ff166117a4576040805162461bcd60e51b815260206004820152600a6024820152691c994b595b9d195c995960b21b604482015290519081900360640190fd5b6000805460ff191681556117ba33338686611ebb565b1490506000805460ff1916600117905592915050565b600a5481565b6006546000906001600160a01b031663b81688166117f26122c8565b600b54600c546008546040518563ffffffff1660e01b81526004018085815260200184815260200183815260200182815260200194505050505060206040518083038186803b15801561184457600080fd5b505afa158015611858573d6000803e3d6000fd5b505050506040513d602081101561186e57600080fd5b5051905090565b6000805460ff166118ba576040805162461bcd60e51b815260206004820152600a6024820152691c994b595b9d195c995960b21b604482015290519081900360640190fd5b6000805460ff191690556118d033858585612a16565b90506000805460ff191660011790559392505050565b60035460009061010090046001600160a01b0316331461190c57610e89600160456123dc565b600480546001600160a01b038481166001600160a01b0319831681179093556040805191909216808252602082019390935281517fca4f2f25d0898edd99413412fb94012f9e54ec8142f9b093e7720646a95b16a9929181900390910190a16000610fb0565b6000805460ff166119b7576040805162461bcd60e51b815260206004820152600a6024820152691c994b595b9d195c995960b21b604482015290519081900360640190fd5b6000805460ff191681556119c9611408565b14611a14576040805162461bcd60e51b81526020600482015260166024820152751858d8dc9d59481a5b9d195c995cdd0819985a5b195960521b604482015290519081900360640190fd5b611a1c610bf1565b90506000805460ff1916600117905590565b6001600160a01b0381166000908152600e6020526040812054819081908190818080611a59896125f6565b935090506000816003811115611a6b57fe5b14611a895760095b975060009650869550859450611abc9350505050565b611a91611e0c565b925090506000816003811115611aa357fe5b14611aaf576009611a73565b5060009650919450925090505b9193509193565b6000610b0982613021565b6000610b09826130a0565b6001600160a01b039182166000908152600f6020908152604080832093909416825291909152205490565b6004546000906001600160a01b031633141580611b1f575033155b15611b3757611b30600160006123dc565b9050610c51565b60038054600480546001600160a01b03818116610100818102610100600160a81b0319871617968790556001600160a01b031990931690935560408051948390048216808652929095041660208401528351909391927ff9ffabca9c8276e99321725bcb43fb076a6c66a54b7f21c4e8146d8519b417dc92908290030190a1600454604080516001600160a01b038085168252909216602083015280517fca4f2f25d0898edd99413412fb94012f9e54ec8142f9b093e7720646a95b16a99281900390910190a160009250505090565b600080611c12611408565b90508015611c3857611c30816010811115611c2957fe5b60406123dc565b915050610b20565b610fb0836126ae565b6006546001600160a01b031681565b600080611c5e85858561311a565b5095945050505050565b60035461010090046001600160a01b031681565b6006546000906001600160a01b03166315f24053611c986122c8565b600b54600c546040518463ffffffff1660e01b815260040180848152602001838152602001828152602001935050505060206040518083038186803b15801561184457600080fd5b6000805460ff16611d25576040805162461bcd60e51b815260206004820152600a6024820152691c994b595b9d195c995960b21b604482015290519081900360640190fd5b6000805460ff19168155611d37611408565b90508015611d5557611041816010811115611d4e57fe5b60466123dc565b6110528361324c565b600181565b60008054819060ff16611daa576040805162461bcd60e51b815260206004820152600a6024820152691c994b595b9d195c995960b21b604482015290519081900360640190fd5b6000805460ff19168155611dbc611408565b90508015611de757611dda816010811115611dd357fe5b60366123dc565b925060009150611df89050565b611df23333866132f4565b92509250505b6000805460ff191660011790559092909150565b600d54600090819080611e2757505060075460009150611eb7565b6000611e316122c8565b90506000611e3d614e80565b6000611e4e84600b54600c546136d9565b935090506000816003811115611e6057fe5b14611e7557955060009450611eb79350505050565b611e7f8386613717565b925090506000816003811115611e9157fe5b14611ea657955060009450611eb79350505050565b5051600095509350611eb792505050565b9091565b600554604080516317b9b84b60e31b81523060048201526001600160a01b03868116602483015285811660448301526064820185905291516000938493169163bdcdc25891608480830192602092919082900301818787803b158015611f2057600080fd5b505af1158015611f34573d6000803e3d6000fd5b505050506040513d6020811015611f4a57600080fd5b505190508015611f6957611f616003604a8361292e565b915050610e41565b836001600160a01b0316856001600160a01b03161415611f8f57611f616002604b6123dc565b60006001600160a01b038781169087161415611fae5750600019611fd6565b506001600160a01b038086166000908152600f60209081526040808320938a16835292905220545b600080600080611fe685896128a3565b90945092506000846003811115611ff957fe5b146120175761200a6009604b6123dc565b9650505050505050610e41565b6001600160a01b038a166000908152600e602052604090205461203a90896128a3565b9094509150600084600381111561204d57fe5b1461205e5761200a6009604c6123dc565b6001600160a01b0389166000908152600e60205260409020546120819089612994565b9094509050600084600381111561209457fe5b146120a55761200a6009604d6123dc565b6001600160a01b03808b166000908152600e6020526040808220859055918b1681522081905560001985146120fd576001600160a01b03808b166000908152600f60209081526040808320938f168352929052208390555b886001600160a01b03168a6001600160a01b031660008051602061510e8339815191528a6040518082815260200191505060405180910390a36005546040805163352b4a3f60e11b81523060048201526001600160a01b038d811660248301528c81166044830152606482018c905291519190921691636a56947e91608480830192600092919082900301818387803b15801561219957600080fd5b505af11580156121ad573d6000803e3d6000fd5b50600092506121ba915050565b9b9a5050505050505050505050565b60008054819060ff16612210576040805162461bcd60e51b815260206004820152600a6024820152691c994b595b9d195c995960b21b604482015290519081900360640190fd5b6000805460ff19168155612222611408565b9050801561224d5761224081601081111561223957fe5b60356123dc565b92506000915061225e9050565b6122583386866132f4565b92509250505b6000805460ff1916600117905590939092509050565b6000806000612281614e80565b61228b86866128c6565b9092509050600082600381111561229e57fe5b146122af57509150600090506122c1565b60006122ba826137c7565b9350935050505b9250929050565b601154604080516370a0823160e01b815230600482015290516000926001600160a01b03169182916370a0823191602480820192602092909190829003018186803b15801561231657600080fd5b505afa15801561232a573d6000803e3d6000fd5b505050506040513d602081101561234057600080fd5b505191505090565b6000805460ff1661238d576040805162461bcd60e51b815260206004820152600a6024820152691c994b595b9d195c995960b21b604482015290519081900360640190fd5b6000805460ff1916815561239f611408565b905080156123bd576110418160108111156123b657fe5b604e6123dc565b6123c6836137d6565b509150506000805460ff19166001179055919050565b60007f45b96fe442630264581b197e84bbada861235052c5a1aadfff9ea4e40a969aa083601081111561240b57fe5b83605081111561241757fe5b604080519283526020830191909152600082820152519081900360600190a1826010811115610fb057fe5b600354600090819061010090046001600160a01b0316331461246a57611c30600160316123dc565b6124726126aa565b6009541461248657611c30600a60336123dc565b8261248f6122c8565b10156124a157611c30600e60326123dc565b600c548311156124b757611c30600260346123dc565b50600c54828103908111156124fd5760405162461bcd60e51b81526004018080602001828103825260248152602001806152236024913960400191505060405180910390fd5b600c81905560035461251d9061010090046001600160a01b0316846138be565b600354604080516101009092046001600160a01b0316825260208201859052818101839052517f3bad0c59cf2f06e7314077049f48a93578cd16f5ef92329f1dab1420a99c177e916060908290030190a16000610fb0565b6000805460ff166125ba576040805162461bcd60e51b815260206004820152600a6024820152691c994b595b9d195c995960b21b604482015290519081900360640190fd5b6000805460ff191681556125cc611408565b905080156125ea576110418160108111156125e357fe5b60276123dc565b611052336000856139b1565b6001600160a01b03811660009081526010602052604081208054829182918291829161262d5750600094508493506126a592505050565b61263d8160000154600a54613e78565b9094509250600084600381111561265057fe5b146126655750919350600092506126a5915050565b612673838260010154613eb7565b9094509150600084600381111561268657fe5b1461269b5750919350600092506126a5915050565b5060009450925050505b915091565b4390565b600354600090819061010090046001600160a01b031633146126d657611c30600160426123dc565b6126de6126aa565b600954146126f257611c30600a60416123dc565b600660009054906101000a90046001600160a01b03169050826001600160a01b0316632191f92a6040518163ffffffff1660e01b815260040160206040518083038186803b15801561274357600080fd5b505afa158015612757573d6000803e3d6000fd5b505050506040513d602081101561276d57600080fd5b50516127bf576040805162461bcd60e51b815260206004820152601c60248201527b6d61726b6572206d6574686f642072657475726e65642066616c736560201b604482015290519081900360640190fd5b600680546001600160a01b0319166001600160a01b03858116918217909255604080519284168352602083019190915280517fedffc32e068c7c95dfd4bdfd5c4d939a084d6b11c4199eac8436ed234d72f9269281900390910190a16000610fb0565b60008054819060ff16612869576040805162461bcd60e51b815260206004820152600a6024820152691c994b595b9d195c995960b21b604482015290519081900360640190fd5b6000805460ff1916815561287b611408565b9050801561289957611dda81601081111561289257fe5b601e6123dc565b611df23385613ee2565b6000808383116128ba5750600090508183036122c1565b506003905060006122c1565b60006128d0614e80565b6000806128e1866000015186613e78565b909250905060008260038111156128f457fe5b14612913575060408051602081019091526000815290925090506122c1565b60408051602081019091529081526000969095509350505050565b60007f45b96fe442630264581b197e84bbada861235052c5a1aadfff9ea4e40a969aa084601081111561295d57fe5b84605081111561296957fe5b604080519283526020830191909152818101859052519081900360600190a1836010811115610e4157fe5b6000808383018481106129ac576000925090506122c1565b5060029150600090506122c1565b60008060006129c7614e80565b6129d187876128c6565b909250905060008260038111156129e457fe5b146129f55750915060009050612a0e565b612a07612a01826137c7565b86612994565b9350935050505b935093915050565b6005546040805163d02f735160e01b81523060048201526001600160a01b038781166024830152868116604483015285811660648301526084820185905291516000938493169163d02f73519160a480830192602092919082900301818787803b158015612a8357600080fd5b505af1158015612a97573d6000803e3d6000fd5b505050506040513d6020811015612aad57600080fd5b505190508015612ac457611f616003601b8361292e565b846001600160a01b0316846001600160a01b03161415612aea57611f616006601c6123dc565b600080600080600080600560009054906101000a90046001600160a01b03166001600160a01b0316636995d7d06040518163ffffffff1660e01b815260040160206040518083038186803b158015612b4157600080fd5b505afa158015612b55573d6000803e3d6000fd5b505050506040513d6020811015612b6b57600080fd5b505160055460408051634ada90af60e01b815290516001600160a01b0393841693630cab477a938e93911691634ada90af91600480820192602092909190829003018186803b158015612bbd57600080fd5b505afa158015612bd1573d6000803e3d6000fd5b505050506040513d6020811015612be757600080fd5b5051604080516001600160e01b031960e086901b168152600481019390935260248301919091528051604480840193829003018186803b158015612c2a57600080fd5b505afa158015612c3e573d6000803e3d6000fd5b505050506040513d6040811015612c5457600080fd5b508051602091820151600554604080516306995d7d60e41b815290519296509294506000936001600160a01b0390911692636995d7d09260048083019392829003018186803b158015612ca657600080fd5b505afa158015612cba573d6000803e3d6000fd5b505050506040513d6020811015612cd057600080fd5b50516040805163ee9e819960e01b815290516001600160a01b039092169163ee9e819991600480820192602092909190829003018186803b158015612d1457600080fd5b505afa158015612d28573d6000803e3d6000fd5b505050506040513d6020811015612d3e57600080fd5b50516001600160a01b038c166000908152600e6020526040902054909150612d66908b6128a3565b90975095506000876003811115612d7957fe5b14612da057612d916009601a8960038111156115ef57fe5b98505050505050505050610e41565b6001600160a01b038c166000908152600e6020526040902054612dc39083612994565b90975094506000876003811115612dd657fe5b14612dee57612d91600960198960038111156115ef57fe5b6001600160a01b0381166000908152600e6020526040902054612e119084612994565b90975093506000876003811115612e2457fe5b14612e3c57612d91600960198960038111156115ef57fe5b85600e60008d6001600160a01b03166001600160a01b031681526020019081526020016000208190555084600e60008e6001600160a01b03166001600160a01b031681526020019081526020016000208190555083600e6000836001600160a01b03166001600160a01b03168152602001908152602001600020819055508b6001600160a01b03168b6001600160a01b031660008051602061510e833981519152846040518082815260200191505060405180910390a3806001600160a01b03168b6001600160a01b031660008051602061510e833981519152856040518082815260200191505060405180910390a3600560009054906101000a90046001600160a01b03166001600160a01b0316636d35bf91308f8f8f8f6040518663ffffffff1660e01b815260040180866001600160a01b03166001600160a01b03168152602001856001600160a01b03166001600160a01b03168152602001846001600160a01b03166001600160a01b03168152602001836001600160a01b03166001600160a01b0316815260200182815260200195505050505050600060405180830381600087803b158015612fef57600080fd5b505af1158015613003573d6000803e3d6000fd5b5060009250613010915050565b9d9c50505050505050505050505050565b6000805460ff16613066576040805162461bcd60e51b815260206004820152600a6024820152691c994b595b9d195c995960b21b604482015290519081900360640190fd5b6000805460ff19168155613078611408565b905080156130965761104181601081111561308f57fe5b60086123dc565b6110523384614341565b6000805460ff166130e5576040805162461bcd60e51b815260206004820152600a6024820152691c994b595b9d195c995960b21b604482015290519081900360640190fd5b6000805460ff191681556130f7611408565b9050801561310e576110418160108111156125e357fe5b611052338460006139b1565b60008054819060ff16613161576040805162461bcd60e51b815260206004820152600a6024820152691c994b595b9d195c995960b21b604482015290519081900360640190fd5b6000805460ff19168155613173611408565b9050801561319e5761319181601081111561318a57fe5b600f6123dc565b9250600091506132359050565b836001600160a01b031663a6afed956040518163ffffffff1660e01b8152600401602060405180830381600087803b1580156131d957600080fd5b505af11580156131ed573d6000803e3d6000fd5b505050506040513d602081101561320357600080fd5b5051905080156132235761319181601081111561321c57fe5b60106123dc565b61322f3387878761464f565b92509250505b6000805460ff191660011790559094909350915050565b60035460009061010090046001600160a01b0316331461327257610e89600160476123dc565b61327a6126aa565b6009541461328e57610e89600a60486123dc565b670de0b6b3a76400008211156132aa57610e89600260496123dc565b6008805490839055604080518281526020810185905281517faaa68312e2ea9d50e16af5068410ab56e1a1fd06037b1a35664812c30f821460929181900390910190a16000610fb0565b60055460408051631200453160e11b81523060048201526001600160a01b0386811660248301528581166044830152606482018590529151600093849384939116916324008a629160848082019260209290919082900301818787803b15801561335d57600080fd5b505af1158015613371573d6000803e3d6000fd5b505050506040513d602081101561338757600080fd5b5051905080156133ab5761339e600360388361292e565b925060009150612a0e9050565b6133b36126aa565b600954146133c75761339e600a60396123dc565b6133cf614f11565b6001600160a01b03861660009081526010602052604090206001015460608201526133f9866125f6565b608083018190526020830182600381111561341057fe5b600381111561341b57fe5b905250600090508160200151600381111561343257fe5b1461345c5761344e60096037836020015160038111156115ef57fe5b935060009250612a0e915050565b600019851415613475576080810151604082015261347d565b604081018590525b61348b878260400151614bcd565b60e0820181905260808201516134a0916128a3565b60a08301819052602083018260038111156134b757fe5b60038111156134c257fe5b90525060009050816020015160038111156134d957fe5b146135155760405162461bcd60e51b815260040180806020018281038252603a8152602001806150d4603a913960400191505060405180910390fd5b613525600b548260e001516128a3565b60c083018190526020830182600381111561353c57fe5b600381111561354757fe5b905250600090508160200151600381111561355e57fe5b1461359a5760405162461bcd60e51b815260040180806020018281038252603181526020018061512e6031913960400191505060405180910390fd5b60a080820180516001600160a01b03808a16600081815260106020908152604091829020948555600a5460019095019490945560c0870151600b81905560e088015195518251948f16855294840192909252828101949094526060820192909252608081019190915290517f1a2a22cb034d26d1854bdc6666a5b91fe25efbbb5dcad3b0355478d6f5c362a1929181900390910190a160055460e0820151606083015160408051631ededc9160e01b81523060048201526001600160a01b038c811660248301528b8116604483015260648201949094526084810192909252519190921691631ededc919160a480830192600092919082900301818387803b1580156136a557600080fd5b505af11580156136b9573d6000803e3d6000fd5b50600092506136c6915050565b8160e00151935093505050935093915050565b6000806000806136e98787612994565b909250905060008260038111156136fc57fe5b1461370d5750915060009050612a0e565b612a0781866128a3565b6000613721614e80565b60008061373686670de0b6b3a7640000613e78565b9092509050600082600381111561374957fe5b14613768575060408051602081019091526000815290925090506122c1565b6000806137758388613eb7565b9092509050600082600381111561378857fe5b146137aa575060408051602081019091526000815290945092506122c1915050565b604080516020810190915290815260009890975095505050505050565b51670de0b6b3a7640000900490565b6000806000806137e46126aa565b60095414613803576137f8600a604f6123dc565b935091506126a59050565b61380d3386614bcd565b905080600c54019150600c5482101561386d576040805162461bcd60e51b815260206004820181905260248201527f61646420726573657276657320756e6578706563746564206f766572666c6f77604482015290519081900360640190fd5b600c829055604080513381526020810183905280820184905290517fa91e67c5ea634cd43a12c5a482724b03de01e85ca68702a53d0c2f45cb7c1dc59181900360600190a160009350915050915091565b6011546040805163a9059cbb60e01b81526001600160a01b0385811660048301526024820185905291519190921691829163a9059cbb9160448082019260009290919082900301818387803b15801561391657600080fd5b505af115801561392a573d6000803e3d6000fd5b5050505060003d60008114613946576020811461395057600080fd5b600019915061395c565b60206000803e60005191505b50806139ab576040805162461bcd60e51b81526020600482015260196024820152781513d2d15397d514905394d1915497d3d55517d19052531151603a1b604482015290519081900360640190fd5b50505050565b60008215806139be575081155b6139f95760405162461bcd60e51b81526004018080602001828103825260348152602001806151ef6034913960400191505060405180910390fd5b613a01614f57565b613a09611e0c565b6040830181905260208301826003811115613a2057fe5b6003811115613a2b57fe5b9052506000905081602001516003811115613a4257fe5b14613a6657613a5e6009602b836020015160038111156115ef57fe5b915050610fb0565b8315613ae7576060810184905260408051602081018252908201518152613a8d9085612274565b6080830181905260208301826003811115613aa457fe5b6003811115613aaf57fe5b9052506000905081602001516003811115613ac657fe5b14613ae257613a5e60096029836020015160038111156115ef57fe5b613b60565b613b038360405180602001604052808460400151815250614e0f565b6060830181905260208301826003811115613b1a57fe5b6003811115613b2557fe5b9052506000905081602001516003811115613b3c57fe5b14613b5857613a5e6009602a836020015160038111156115ef57fe5b608081018390525b60055460608201516040805163eabe7d9160e01b81523060048201526001600160a01b03898116602483015260448201939093529051600093929092169163eabe7d919160648082019260209290919082900301818787803b158015613bc557600080fd5b505af1158015613bd9573d6000803e3d6000fd5b505050506040513d6020811015613bef57600080fd5b505190508015613c0f57613c06600360288361292e565b92505050610fb0565b613c176126aa565b60095414613c2b57613c06600a602c6123dc565b613c3b600d5483606001516128a3565b60a0840181905260208401826003811115613c5257fe5b6003811115613c5d57fe5b9052506000905082602001516003811115613c7457fe5b14613c9057613c066009602e846020015160038111156115ef57fe5b6001600160a01b0386166000908152600e60205260409020546060830151613cb891906128a3565b60c0840181905260208401826003811115613ccf57fe5b6003811115613cda57fe5b9052506000905082602001516003811115613cf157fe5b14613d0d57613c066009602d846020015160038111156115ef57fe5b8160800151613d1a6122c8565b1015613d2c57613c06600e602f6123dc565b613d3a8683608001516138be565b60a0820151600d5560c08201516001600160a01b0387166000818152600e602090815260409182902093909355606085015181519081529051309360008051602061510e833981519152928290030190a36080820151606080840151604080516001600160a01b038b168152602081019490945283810191909152517fe5b754fb1abb7f01b499791d0b820ae3b6af3424ac1c59768edb53f4ec31a9299281900390910190a160055460808301516060840151604080516351dff98960e01b81523060048201526001600160a01b038b81166024830152604482019490945260648101929092525191909216916351dff98991608480830192600092919082900301818387803b158015613e4d57600080fd5b505af1158015613e61573d6000803e3d6000fd5b5060009250613e6e915050565b9695505050505050565b60008083613e8b575060009050806122c1565b83830283858281613e9857fe5b0414613eac575060029150600090506122c1565b6000925090506122c1565b60008082613ecb57506001905060006122c1565b6000838581613ed657fe5b04915091509250929050565b60055460408051634ef4c3e160e01b81523060048201526001600160a01b03858116602483015260448201859052915160009384938493911691634ef4c3e19160648082019260209290919082900301818787803b158015613f4357600080fd5b505af1158015613f57573d6000803e3d6000fd5b505050506040513d6020811015613f6d57600080fd5b505190508015613f9157613f846003601f8361292e565b9250600091506122c19050565b613f996126aa565b60095414613fad57613f84600a60226123dc565b613fb5614f57565b613fbd611e0c565b6040830181905260208301826003811115613fd457fe5b6003811115613fdf57fe5b9052506000905081602001516003811115613ff657fe5b146140205761401260096021836020015160038111156115ef57fe5b9350600092506122c1915050565b61402a8686614bcd565b60c082018190526040805160208101825290830151815261404b9190614e0f565b606083018190526020830182600381111561406257fe5b600381111561406d57fe5b905250600090508160200151600381111561408457fe5b146140d6576040805162461bcd60e51b815260206004820181905260248201527f4d494e545f45584348414e47455f43414c43554c4154494f4e5f4641494c4544604482015290519081900360640190fd5b6140e6600d548260600151612994565b60808301819052602083018260038111156140fd57fe5b600381111561410857fe5b905250600090508160200151600381111561411f57fe5b1461415b5760405162461bcd60e51b81526004018080602001828103825260288152602001806151c76028913960400191505060405180910390fd5b6001600160a01b0386166000908152600e602052604090205460608201516141839190612994565b60a083018190526020830182600381111561419a57fe5b60038111156141a557fe5b90525060009050816020015160038111156141bc57fe5b146141f85760405162461bcd60e51b815260040180806020018281038252602b815260200180615072602b913960400191505060405180910390fd5b6080810151600d5560a08101516001600160a01b0387166000818152600e60209081526040918290209390935560c084015160608086015183519485529484019190915282820193909352517f4c209b5fc8ad50758f13e2e1088ba56a560dff690a1c6fef26394f4c03821c4f929181900390910190a1606081015160408051918252516001600160a01b03881691309160008051602061510e8339815191529181900360200190a360055460c08201516060830151604080516341c728b960e01b81523060048201526001600160a01b038b81166024830152604482019490945260648101929092525191909216916341c728b991608480830192600092919082900301818387803b15801561430e57600080fd5b505af1158015614322573d6000803e3d6000fd5b506000925061432f915050565b8160c001519350935050509250929050565b6005546040805163368f515360e21b81523060048201526001600160a01b0385811660248301526044820185905291516000938493169163da3d454c91606480830192602092919082900301818787803b15801561439e57600080fd5b505af11580156143b2573d6000803e3d6000fd5b505050506040513d60208110156143c857600080fd5b5051905080156143e7576143df6003600e8361292e565b915050610b09565b6143ef6126aa565b60095414614402576143df600a806123dc565b8261440b6122c8565b101561441d576143df600e60096123dc565b614425614f95565b61442e856125f6565b602083018190528282600381111561444257fe5b600381111561444d57fe5b905250600090508151600381111561446157fe5b146144865761447d60096007836000015160038111156115ef57fe5b92505050610b09565b614494816020015185612994565b60408301819052828260038111156144a857fe5b60038111156144b357fe5b90525060009050815160038111156144c757fe5b146144e35761447d6009600c836000015160038111156115ef57fe5b6144ef600b5485612994565b606083018190528282600381111561450357fe5b600381111561450e57fe5b905250600090508151600381111561452257fe5b1461453e5761447d6009600b836000015160038111156115ef57fe5b61454885856138be565b604080820180516001600160a01b03881660008181526010602090815290859020928355600a54600190930192909255606080860151600b81905593518551928352928201899052818501929092529081019190915290517f13ed6866d4e1ee6da46f845c46d7e54120883d75c5ea9a2dacc1c4ca8984ab809181900360800190a160055460408051635c77860560e01b81523060048201526001600160a01b0388811660248301526044820188905291519190921691635c77860591606480830192600092919082900301818387803b15801561462557600080fd5b505af1158015614639573d6000803e3d6000fd5b5060009250614646915050565b95945050505050565b60055460408051632fe3f38f60e11b81523060048201526001600160a01b0384811660248301528781166044830152868116606483015260848201869052915160009384938493911691635fc7e71e9160a48082019260209290919082900301818787803b1580156146c057600080fd5b505af11580156146d4573d6000803e3d6000fd5b505050506040513d60208110156146ea57600080fd5b50519050801561470e57614701600360128361292e565b925060009150614bc49050565b6147166126aa565b6009541461472a57614701600a60166123dc565b6147326126aa565b846001600160a01b0316636c540baf6040518163ffffffff1660e01b815260040160206040518083038186803b15801561476b57600080fd5b505afa15801561477f573d6000803e3d6000fd5b505050506040513d602081101561479557600080fd5b5051146147a857614701600a60116123dc565b866001600160a01b0316866001600160a01b031614156147ce57614701600660176123dc565b846147df57614701600760156123dc565b6000198514156147f557614701600760146123dc565b6000806148038989896132f4565b909250905081156148335761482482601081111561481d57fe5b60186123dc565b945060009350614bc492505050565b6005546040805163c488847b60e01b81523060048201526001600160a01b038981166024830152604482018590528251600094859492169263c488847b926064808301939192829003018186803b15801561488d57600080fd5b505afa1580156148a1573d6000803e3d6000fd5b505050506040513d60408110156148b757600080fd5b508051602090910151909250905081156149025760405162461bcd60e51b815260040180806020018281038252603381526020018061515f6033913960400191505060405180910390fd5b80886001600160a01b03166370a082318c6040518263ffffffff1660e01b815260040180826001600160a01b03166001600160a01b0316815260200191505060206040518083038186803b15801561495957600080fd5b505afa15801561496d573d6000803e3d6000fd5b505050506040513d602081101561498357600080fd5b505110156149d3576040805162461bcd60e51b815260206004820152601860248201527709892a2aa928882a88abea68a92b48abea89e9ebe9aaa86960431b604482015290519081900360640190fd5b60006001600160a01b0389163014156149f9576149f2308d8d85612a16565b9050614a83565b6040805163b2a02ff160e01b81526001600160a01b038e811660048301528d81166024830152604482018590529151918b169163b2a02ff1916064808201926020929091908290030181600087803b158015614a5457600080fd5b505af1158015614a68573d6000803e3d6000fd5b505050506040513d6020811015614a7e57600080fd5b505190505b8015614acd576040805162461bcd60e51b81526020600482015260146024820152731d1bdad95b881cd95a5e9d5c994819985a5b195960621b604482015290519081900360640190fd5b604080516001600160a01b03808f168252808e1660208301528183018790528b1660608201526080810184905290517f298637f684da70674f26509b10f07ec2fbc77a335ab1e7d6215a4b2484d8bb529181900360a00190a1600554604080516347ef3b3b60e01b81523060048201526001600160a01b038c811660248301528f811660448301528e811660648301526084820188905260a48201869052915191909216916347ef3b3b9160c480830192600092919082900301818387803b158015614b9857600080fd5b505af1158015614bac573d6000803e3d6000fd5b5060009250614bb9915050565b975092955050505050505b94509492505050565b601154604080516370a0823160e01b815230600482015290516000926001600160a01b031691839183916370a08231916024808301926020929190829003018186803b158015614c1c57600080fd5b505afa158015614c30573d6000803e3d6000fd5b505050506040513d6020811015614c4657600080fd5b5051604080516323b872dd60e01b81526001600160a01b038881166004830152306024830152604482018890529151929350908416916323b872dd9160648082019260009290919082900301818387803b158015614ca357600080fd5b505af1158015614cb7573d6000803e3d6000fd5b5050505060003d60008114614cd35760208114614cdd57600080fd5b6000199150614ce9565b60206000803e60005191505b5080614d37576040805162461bcd60e51b81526020600482015260186024820152771513d2d15397d514905394d1915497d25397d1905253115160421b604482015290519081900360640190fd5b601154604080516370a0823160e01b815230600482015290516000926001600160a01b0316916370a08231916024808301926020929190829003018186803b158015614d8257600080fd5b505afa158015614d96573d6000803e3d6000fd5b505050506040513d6020811015614dac57600080fd5b5051905082811015614e02576040805162461bcd60e51b815260206004820152601a602482015279544f4b454e5f5452414e534645525f494e5f4f564552464c4f5760301b604482015290519081900360640190fd5b9190910395945050505050565b6000806000614e1c614e80565b61228b86866000614e2b614e80565b600080614e40670de0b6b3a764000087613e78565b90925090506000826003811115614e5357fe5b14614e72575060408051602081019091526000815290925090506122c1565b6122ba818660000151613717565b6040518060200160405280600081525090565b828054600181600116156101000203166002900490600052602060002090601f016020900481019282601f10614ed457805160ff1916838001178555614f01565b82800160010185558215614f01579182015b82811115614f01578251825591602001919060010190614ee6565b50614f0d929150614fbe565b5090565b6040805161010081019091528060008152602001600081526020016000815260200160008152602001600081526020016000815260200160008152602001600081525090565b6040805160e0810190915280600081526020016000815260200160008152602001600081526020016000815260200160008152602001600081525090565b604080516080810190915280600081526020016000815260200160008152602001600081525090565b610c5191905b80821115614f0d5760008155600101614fc456fe6f6e6c792061646d696e206d617920696e697469616c697a6520746865206d61726b65746d61726b6574206d6179206f6e6c7920626520696e697469616c697a6564206f6e6365696e697469616c2065786368616e67652072617465206d7573742062652067726561746572207468616e207a65726f2e73657474696e6720696e7465726573742072617465206d6f64656c206661696c65644d494e545f4e45575f4143434f554e545f42414c414e43455f43414c43554c4154494f4e5f4641494c4544626f72726f7742616c616e636553746f7265643a20626f72726f7742616c616e636553746f726564496e7465726e616c206661696c656452455041595f424f52524f575f4e45575f4143434f554e545f424f52524f575f42414c414e43455f43414c43554c4154494f4e5f4641494c4544ddf252ad1be2c89b69c2b068fc378daa952ba7f163c4a11628f55a4df523b3ef52455041595f424f52524f575f4e45575f544f54414c5f42414c414e43455f43414c43554c4154494f4e5f4641494c45444c49515549444154455f434f4d5054524f4c4c45525f43414c43554c4154455f414d4f554e545f5345495a455f4641494c454465786368616e67655261746553746f7265643a2065786368616e67655261746553746f726564496e7465726e616c206661696c65644d494e545f4e45575f544f54414c5f535550504c595f43414c43554c4154494f4e5f4641494c45446f6e65206f662072656465656d546f6b656e73496e206f722072656465656d416d6f756e74496e206d757374206265207a65726f72656475636520726573657276657320756e657870656374656420756e646572666c6f77a265627a7a7231582014f71e61bbcac221a61ab8b3ba49f96730f0b559a622e3e3d9a739545934836864736f6c634300051000326f6e6c792061646d696e206d617920696e697469616c697a6520746865206d61726b65746d61726b6574206d6179206f6e6c7920626520696e697469616c697a6564206f6e6365696e697469616c2065786368616e67652072617465206d7573742062652067726561746572207468616e207a65726f2e73657474696e6720696e7465726573742072617465206d6f64656c206661696c6564",
  "source": "pragma solidity ^0.5.16;\n\nimport \"./CErc20.sol\";\n\n/**\n * @title Compound's CErc20Immutable Contract\n * @notice CTokens which wrap an EIP-20 underlying and are immutable\n * @author Compound\n */\ncontract CErc20Immutable is CErc20 {\n    /**\n     * @notice Construct a new money market\n     * @param underlying_ The address of the underlying asset\n     * @param comptroller_ The address of the Comptroller\n     * @param interestRateModel_ The address of the interest rate model\n     * @param initialExchangeRateMantissa_ The initial exchange rate, scaled by 1e18\n     * @param name_ ERC-20 name of this token\n     * @param symbol_ ERC-20 symbol of this token\n     * @param decimals_ ERC-20 decimal precision of this token\n     * @param admin_ Address of the administrator of this token\n     */\n    constructor(address underlying_,\n                ComptrollerInterface comptroller_,\n                InterestRateModel interestRateModel_,\n                uint initialExchangeRateMantissa_,\n                string memory name_,\n                string memory symbol_,\n                uint8 decimals_,\n                address payable admin_) public {\n        // Creator of the contract is admin during initialization\n        admin = msg.sender;\n\n        // Initialize the market\n        initialize(underlying_, comptroller_, interestRateModel_, initialExchangeRateMantissa_, name_, symbol_, decimals_);\n\n        // Set the proper admin now that initialization is done\n        admin = admin_;\n    }\n}\n",
  "sourcePath": "/Users/ashton/repo/blockchain/eth/smartcontracts/quicksilver-protocol/contracts/compound/CErc20Immutable.sol",
  "compiler": {
    "name": "solc",
    "version": "0.5.16+commit.9c3226ce.Emscripten.clang"
  },
  "schemaVersion": "3.2.0",
  "updatedAt": "2021-03-18T10:38:39.175Z",
  "devdoc": {
    "author": "Compound",
    "methods": {
      "_acceptAdmin()": {
        "details": "Admin function for pending admin to accept role and update admin",
        "return": "uint 0=success, otherwise a failure (see ErrorReporter.sol for details)"
      },
      "_addReserves(uint256)": {
        "params": {
          "addAmount": "The amount fo underlying token to add as reserves"
        },
        "return": "uint 0=success, otherwise a failure (see ErrorReporter.sol for details)"
      },
      "_reduceReserves(uint256)": {
        "params": {
          "reduceAmount": "Amount of reduction to reserves"
        },
        "return": "uint 0=success, otherwise a failure (see ErrorReporter.sol for details)"
      },
      "_setComptroller(address)": {
        "details": "Admin function to set a new comptroller",
        "return": "uint 0=success, otherwise a failure (see ErrorReporter.sol for details)"
      },
      "_setInterestRateModel(address)": {
        "details": "Admin function to accrue interest and update the interest rate model",
        "params": {
          "newInterestRateModel": "the new interest rate model to use"
        },
        "return": "uint 0=success, otherwise a failure (see ErrorReporter.sol for details)"
      },
      "_setPendingAdmin(address)": {
        "details": "Admin function to begin change of admin. The newPendingAdmin must call `_acceptAdmin` to finalize the transfer.",
        "params": {
          "newPendingAdmin": "New pending admin."
        },
        "return": "uint 0=success, otherwise a failure (see ErrorReporter.sol for details)"
      },
      "_setReserveFactor(uint256)": {
        "details": "Admin function to accrue interest and set a new reserve factor",
        "return": "uint 0=success, otherwise a failure (see ErrorReporter.sol for details)"
      },
      "accrueInterest()": {
        "details": "This calculates interest accrued from the last checkpointed block  up to the current block and writes new checkpoint to storage."
      },
      "allowance(address,address)": {
        "params": {
          "owner": "The address of the account which owns the tokens to be spent",
          "spender": "The address of the account which may transfer tokens"
        },
        "return": "The number of tokens allowed to be spent (-1 means infinite)"
      },
      "approve(address,uint256)": {
        "details": "This will overwrite the approval amount for `spender` and is subject to issues noted [here](https://eips.ethereum.org/EIPS/eip-20#approve)",
        "params": {
          "amount": "The number of tokens that are approved (-1 means infinite)",
          "spender": "The address of the account which may transfer tokens"
        },
        "return": "Whether or not the approval succeeded"
      },
      "balanceOf(address)": {
        "params": {
          "owner": "The address of the account to query"
        },
        "return": "The number of tokens owned by `owner`"
      },
      "balanceOfUnderlying(address)": {
        "details": "This also accrues interest in a transaction",
        "params": {
          "owner": "The address of the account to query"
        },
        "return": "The amount of underlying owned by `owner`"
      },
      "borrow(uint256)": {
        "params": {
          "borrowAmount": "The amount of the underlying asset to borrow"
        },
        "return": "uint 0=success, otherwise a failure (see ErrorReporter.sol for details)"
      },
      "borrowBalanceCurrent(address)": {
        "params": {
          "account": "The address whose balance should be calculated after updating borrowIndex"
        },
        "return": "The calculated balance"
      },
      "borrowBalanceStored(address)": {
        "params": {
          "account": "The address whose balance should be calculated"
        },
        "return": "The calculated balance"
      },
      "borrowRatePerBlock()": {
        "return": "The borrow interest rate per block, scaled by 1e18"
      },
      "constructor": {
        "params": {
          "admin_": "Address of the administrator of this token",
          "comptroller_": "The address of the Comptroller",
          "decimals_": "ERC-20 decimal precision of this token",
          "initialExchangeRateMantissa_": "The initial exchange rate, scaled by 1e18",
          "interestRateModel_": "The address of the interest rate model",
          "name_": "ERC-20 name of this token",
          "symbol_": "ERC-20 symbol of this token",
          "underlying_": "The address of the underlying asset"
        }
      },
      "exchangeRateCurrent()": {
        "return": "Calculated exchange rate scaled by 1e18"
      },
      "exchangeRateStored()": {
        "details": "This function does not accrue interest before calculating the exchange rate",
        "return": "Calculated exchange rate scaled by 1e18"
      },
      "getAccountSnapshot(address)": {
        "details": "This is used by comptroller to more efficiently perform liquidity checks.",
        "params": {
          "account": "Address of the account to snapshot"
        },
        "return": "(possible error, token balance, borrow balance, exchange rate mantissa)"
      },
      "getCash()": {
        "return": "The quantity of underlying asset owned by this contract"
      },
      "initialize(address,address,address,uint256,string,string,uint8)": {
        "params": {
          "comptroller_": "The address of the Comptroller",
          "decimals_": "ERC-20 decimal precision of this token",
          "initialExchangeRateMantissa_": "The initial exchange rate, scaled by 1e18",
          "interestRateModel_": "The address of the interest rate model",
          "name_": "ERC-20 name of this token",
          "symbol_": "ERC-20 symbol of this token",
          "underlying_": "The address of the underlying asset"
        }
      },
      "initialize(address,address,uint256,string,string,uint8)": {
        "params": {
          "comptroller_": "The address of the Comptroller",
          "decimals_": "EIP-20 decimal precision of this token",
          "initialExchangeRateMantissa_": "The initial exchange rate, scaled by 1e18",
          "interestRateModel_": "The address of the interest rate model",
          "name_": "EIP-20 name of this token",
          "symbol_": "EIP-20 symbol of this token"
        }
      },
      "liquidateBorrow(address,uint256,address)": {
        "params": {
          "borrower": "The borrower of this cToken to be liquidated",
          "cTokenCollateral": "The market in which to seize collateral from the borrower",
          "repayAmount": "The amount of the underlying borrowed asset to repay"
        },
        "return": "uint 0=success, otherwise a failure (see ErrorReporter.sol for details)"
      },
      "mint(uint256)": {
        "details": "Accrues interest whether or not the operation succeeds, unless reverted",
        "params": {
          "mintAmount": "The amount of the underlying asset to supply"
        },
        "return": "uint 0=success, otherwise a failure (see ErrorReporter.sol for details)"
      },
      "redeem(uint256)": {
        "details": "Accrues interest whether or not the operation succeeds, unless reverted",
        "params": {
          "redeemTokens": "The number of cTokens to redeem into underlying"
        },
        "return": "uint 0=success, otherwise a failure (see ErrorReporter.sol for details)"
      },
      "redeemUnderlying(uint256)": {
        "details": "Accrues interest whether or not the operation succeeds, unless reverted",
        "params": {
          "redeemAmount": "The amount of underlying to redeem"
        },
        "return": "uint 0=success, otherwise a failure (see ErrorReporter.sol for details)"
      },
      "repayBorrow(uint256)": {
        "params": {
          "repayAmount": "The amount to repay"
        },
        "return": "uint 0=success, otherwise a failure (see ErrorReporter.sol for details)"
      },
      "repayBorrowBehalf(address,uint256)": {
        "params": {
          "borrower": "the account with the debt being payed off",
          "repayAmount": "The amount to repay"
        },
        "return": "uint 0=success, otherwise a failure (see ErrorReporter.sol for details)"
      },
      "seize(address,address,uint256)": {
        "details": "Will fail unless called by another cToken during the process of liquidation. Its absolutely critical to use msg.sender as the borrowed cToken and not a parameter.",
        "params": {
          "borrower": "The account having collateral seized",
          "liquidator": "The account receiving seized collateral",
          "seizeTokens": "The number of cTokens to seize"
        },
        "return": "uint 0=success, otherwise a failure (see ErrorReporter.sol for details)"
      },
      "supplyRatePerBlock()": {
        "return": "The supply interest rate per block, scaled by 1e18"
      },
      "totalBorrowsCurrent()": {
        "return": "The total borrows with interest"
      },
      "transfer(address,uint256)": {
        "params": {
          "amount": "The number of tokens to transfer",
          "dst": "The address of the destination account"
        },
        "return": "Whether or not the transfer succeeded"
      },
      "transferFrom(address,address,uint256)": {
        "params": {
          "amount": "The number of tokens to transfer",
          "dst": "The address of the destination account",
          "src": "The address of the source account"
        },
        "return": "Whether or not the transfer succeeded"
      }
    },
    "title": "Compound's CErc20Immutable Contract"
  },
  "userdoc": {
    "methods": {
      "_acceptAdmin()": {
        "notice": "Accepts transfer of admin rights. msg.sender must be pendingAdmin"
      },
      "_addReserves(uint256)": {
        "notice": "The sender adds to reserves."
      },
      "_reduceReserves(uint256)": {
        "notice": "Accrues interest and reduces reserves by transferring to admin"
      },
      "_setComptroller(address)": {
        "notice": "Sets a new comptroller for the market"
      },
      "_setInterestRateModel(address)": {
        "notice": "accrues interest and updates the interest rate model using _setInterestRateModelFresh"
      },
      "_setPendingAdmin(address)": {
        "notice": "Begins transfer of admin rights. The newPendingAdmin must call `_acceptAdmin` to finalize the transfer."
      },
      "_setReserveFactor(uint256)": {
        "notice": "accrues interest and sets a new reserve factor for the protocol using _setReserveFactorFresh"
      },
      "accrueInterest()": {
        "notice": "Applies accrued interest to total borrows and reserves"
      },
      "allowance(address,address)": {
        "notice": "Get the current allowance from `owner` for `spender`"
      },
      "approve(address,uint256)": {
        "notice": "Approve `spender` to transfer up to `amount` from `src`"
      },
      "balanceOf(address)": {
        "notice": "Get the token balance of the `owner`"
      },
      "balanceOfUnderlying(address)": {
        "notice": "Get the underlying balance of the `owner`"
      },
      "borrow(uint256)": {
        "notice": "Sender borrows assets from the protocol to their own address"
      },
      "borrowBalanceCurrent(address)": {
        "notice": "Accrue interest to updated borrowIndex and then calculate account's borrow balance using the updated borrowIndex"
      },
      "borrowBalanceStored(address)": {
        "notice": "Return the borrow balance of account based on stored data"
      },
      "borrowRatePerBlock()": {
        "notice": "Returns the current per-block borrow interest rate for this cToken"
      },
      "constructor": "Construct a new money market",
      "exchangeRateCurrent()": {
        "notice": "Accrue interest then return the up-to-date exchange rate"
      },
      "exchangeRateStored()": {
        "notice": "Calculates the exchange rate from the underlying to the CToken"
      },
      "getAccountSnapshot(address)": {
        "notice": "Get a snapshot of the account's balances, and the cached exchange rate"
      },
      "getCash()": {
        "notice": "Get cash balance of this cToken in the underlying asset"
      },
      "initialize(address,address,address,uint256,string,string,uint8)": {
        "notice": "Initialize the new money market"
      },
      "initialize(address,address,uint256,string,string,uint8)": {
        "notice": "Initialize the money market"
      },
      "liquidateBorrow(address,uint256,address)": {
        "notice": "The sender liquidates the borrowers collateral. The collateral seized is transferred to the liquidator."
      },
      "mint(uint256)": {
        "notice": "Sender supplies assets into the market and receives cTokens in exchange"
      },
      "redeem(uint256)": {
        "notice": "Sender redeems cTokens in exchange for the underlying asset"
      },
      "redeemUnderlying(uint256)": {
        "notice": "Sender redeems cTokens in exchange for a specified amount of underlying asset"
      },
      "repayBorrow(uint256)": {
        "notice": "Sender repays their own borrow"
      },
      "repayBorrowBehalf(address,uint256)": {
        "notice": "Sender repays a borrow belonging to borrower"
      },
      "seize(address,address,uint256)": {
        "notice": "Transfers collateral tokens (this market) to the liquidator."
      },
      "supplyRatePerBlock()": {
        "notice": "Returns the current per-block supply interest rate for this cToken"
      },
      "totalBorrowsCurrent()": {
        "notice": "Returns the current total borrows plus accrued interest"
      },
      "transfer(address,uint256)": {
        "notice": "Transfer `amount` tokens from `msg.sender` to `dst`"
      },
      "transferFrom(address,address,uint256)": {
        "notice": "Transfer `amount` tokens from `src` to `dst`"
      }
    },
    "notice": "CTokens which wrap an EIP-20 underlying and are immutable"
  }
}