{
  "contractName": "CErc20Delegate",
  "abi": [
    {
      "inputs": [],
      "payable": false,
      "stateMutability": "nonpayable",
      "type": "constructor"
    },
    {
      "anonymous": false,
      "inputs": [
        {
          "indexed": false,
          "internalType": "uint256",
          "name": "cashPrior",
          "type": "uint256"
        },
        {
          "indexed": false,
          "internalType": "uint256",
          "name": "interestAccumulated",
          "type": "uint256"
        },
        {
          "indexed": false,
          "internalType": "uint256",
          "name": "borrowIndex",
          "type": "uint256"
        },
        {
          "indexed": false,
          "internalType": "uint256",
          "name": "totalBorrows",
          "type": "uint256"
        }
      ],
      "name": "AccrueInterest",
      "type": "event"
    },
    {
      "anonymous": false,
      "inputs": [
        {
          "indexed": true,
          "internalType": "address",
          "name": "owner",
          "type": "address"
        },
        {
          "indexed": true,
          "internalType": "address",
          "name": "spender",
          "type": "address"
        },
        {
          "indexed": false,
          "internalType": "uint256",
          "name": "amount",
          "type": "uint256"
        }
      ],
      "name": "Approval",
      "type": "event"
    },
    {
      "anonymous": false,
      "inputs": [
        {
          "indexed": false,
          "internalType": "address",
          "name": "borrower",
          "type": "address"
        },
        {
          "indexed": false,
          "internalType": "uint256",
          "name": "borrowAmount",
          "type": "uint256"
        },
        {
          "indexed": false,
          "internalType": "uint256",
          "name": "accountBorrows",
          "type": "uint256"
        },
        {
          "indexed": false,
          "internalType": "uint256",
          "name": "totalBorrows",
          "type": "uint256"
        }
      ],
      "name": "Borrow",
      "type": "event"
    },
    {
      "anonymous": false,
      "inputs": [
        {
          "indexed": false,
          "internalType": "uint256",
          "name": "error",
          "type": "uint256"
        },
        {
          "indexed": false,
          "internalType": "uint256",
          "name": "info",
          "type": "uint256"
        },
        {
          "indexed": false,
          "internalType": "uint256",
          "name": "detail",
          "type": "uint256"
        }
      ],
      "name": "Failure",
      "type": "event"
    },
    {
      "anonymous": false,
      "inputs": [
        {
          "indexed": false,
          "internalType": "address",
          "name": "liquidator",
          "type": "address"
        },
        {
          "indexed": false,
          "internalType": "address",
          "name": "borrower",
          "type": "address"
        },
        {
          "indexed": false,
          "internalType": "uint256",
          "name": "repayAmount",
          "type": "uint256"
        },
        {
          "indexed": false,
          "internalType": "address",
          "name": "cTokenCollateral",
          "type": "address"
        },
        {
          "indexed": false,
          "internalType": "uint256",
          "name": "seizeTokens",
          "type": "uint256"
        }
      ],
      "name": "LiquidateBorrow",
      "type": "event"
    },
    {
      "anonymous": false,
      "inputs": [
        {
          "indexed": false,
          "internalType": "address",
          "name": "minter",
          "type": "address"
        },
        {
          "indexed": false,
          "internalType": "uint256",
          "name": "mintAmount",
          "type": "uint256"
        },
        {
          "indexed": false,
          "internalType": "uint256",
          "name": "mintTokens",
          "type": "uint256"
        }
      ],
      "name": "Mint",
      "type": "event"
    },
    {
      "anonymous": false,
      "inputs": [
        {
          "indexed": false,
          "internalType": "address",
          "name": "oldAdmin",
          "type": "address"
        },
        {
          "indexed": false,
          "internalType": "address",
          "name": "newAdmin",
          "type": "address"
        }
      ],
      "name": "NewAdmin",
      "type": "event"
    },
    {
      "anonymous": false,
      "inputs": [
        {
          "indexed": false,
          "internalType": "contract ComptrollerInterface",
          "name": "oldComptroller",
          "type": "address"
        },
        {
          "indexed": false,
          "internalType": "contract ComptrollerInterface",
          "name": "newComptroller",
          "type": "address"
        }
      ],
      "name": "NewComptroller",
      "type": "event"
    },
    {
      "anonymous": false,
      "inputs": [
        {
          "indexed": false,
          "internalType": "contract InterestRateModel",
          "name": "oldInterestRateModel",
          "type": "address"
        },
        {
          "indexed": false,
          "internalType": "contract InterestRateModel",
          "name": "newInterestRateModel",
          "type": "address"
        }
      ],
      "name": "NewMarketInterestRateModel",
      "type": "event"
    },
    {
      "anonymous": false,
      "inputs": [
        {
          "indexed": false,
          "internalType": "address",
          "name": "oldPendingAdmin",
          "type": "address"
        },
        {
          "indexed": false,
          "internalType": "address",
          "name": "newPendingAdmin",
          "type": "address"
        }
      ],
      "name": "NewPendingAdmin",
      "type": "event"
    },
    {
      "anonymous": false,
      "inputs": [
        {
          "indexed": false,
          "internalType": "uint256",
          "name": "oldReserveFactorMantissa",
          "type": "uint256"
        },
        {
          "indexed": false,
          "internalType": "uint256",
          "name": "newReserveFactorMantissa",
          "type": "uint256"
        }
      ],
      "name": "NewReserveFactor",
      "type": "event"
    },
    {
      "anonymous": false,
      "inputs": [
        {
          "indexed": false,
          "internalType": "address",
          "name": "redeemer",
          "type": "address"
        },
        {
          "indexed": false,
          "internalType": "uint256",
          "name": "redeemAmount",
          "type": "uint256"
        },
        {
          "indexed": false,
          "internalType": "uint256",
          "name": "redeemTokens",
          "type": "uint256"
        }
      ],
      "name": "Redeem",
      "type": "event"
    },
    {
      "anonymous": false,
      "inputs": [
        {
          "indexed": false,
          "internalType": "address",
          "name": "payer",
          "type": "address"
        },
        {
          "indexed": false,
          "internalType": "address",
          "name": "borrower",
          "type": "address"
        },
        {
          "indexed": false,
          "internalType": "uint256",
          "name": "repayAmount",
          "type": "uint256"
        },
        {
          "indexed": false,
          "internalType": "uint256",
          "name": "accountBorrows",
          "type": "uint256"
        },
        {
          "indexed": false,
          "internalType": "uint256",
          "name": "totalBorrows",
          "type": "uint256"
        }
      ],
      "name": "RepayBorrow",
      "type": "event"
    },
    {
      "anonymous": false,
      "inputs": [
        {
          "indexed": false,
          "internalType": "address",
          "name": "benefactor",
          "type": "address"
        },
        {
          "indexed": false,
          "internalType": "uint256",
          "name": "addAmount",
          "type": "uint256"
        },
        {
          "indexed": false,
          "internalType": "uint256",
          "name": "newTotalReserves",
          "type": "uint256"
        }
      ],
      "name": "ReservesAdded",
      "type": "event"
    },
    {
      "anonymous": false,
      "inputs": [
        {
          "indexed": false,
          "internalType": "address",
          "name": "admin",
          "type": "address"
        },
        {
          "indexed": false,
          "internalType": "uint256",
          "name": "reduceAmount",
          "type": "uint256"
        },
        {
          "indexed": false,
          "internalType": "uint256",
          "name": "newTotalReserves",
          "type": "uint256"
        }
      ],
      "name": "ReservesReduced",
      "type": "event"
    },
    {
      "anonymous": false,
      "inputs": [
        {
          "indexed": true,
          "internalType": "address",
          "name": "from",
          "type": "address"
        },
        {
          "indexed": true,
          "internalType": "address",
          "name": "to",
          "type": "address"
        },
        {
          "indexed": false,
          "internalType": "uint256",
          "name": "amount",
          "type": "uint256"
        }
      ],
      "name": "Transfer",
      "type": "event"
    },
    {
      "constant": false,
      "inputs": [],
      "name": "_acceptAdmin",
      "outputs": [
        {
          "internalType": "uint256",
          "name": "",
          "type": "uint256"
        }
      ],
      "payable": false,
      "stateMutability": "nonpayable",
      "type": "function"
    },
    {
      "constant": false,
      "inputs": [
        {
          "internalType": "uint256",
          "name": "addAmount",
          "type": "uint256"
        }
      ],
      "name": "_addReserves",
      "outputs": [
        {
          "internalType": "uint256",
          "name": "",
          "type": "uint256"
        }
      ],
      "payable": false,
      "stateMutability": "nonpayable",
      "type": "function"
    },
    {
      "constant": false,
      "inputs": [
        {
          "internalType": "uint256",
          "name": "reduceAmount",
          "type": "uint256"
        }
      ],
      "name": "_reduceReserves",
      "outputs": [
        {
          "internalType": "uint256",
          "name": "",
          "type": "uint256"
        }
      ],
      "payable": false,
      "stateMutability": "nonpayable",
      "type": "function"
    },
    {
      "constant": false,
      "inputs": [
        {
          "internalType": "contract ComptrollerInterface",
          "name": "newComptroller",
          "type": "address"
        }
      ],
      "name": "_setComptroller",
      "outputs": [
        {
          "internalType": "uint256",
          "name": "",
          "type": "uint256"
        }
      ],
      "payable": false,
      "stateMutability": "nonpayable",
      "type": "function"
    },
    {
      "constant": false,
      "inputs": [
        {
          "internalType": "contract InterestRateModel",
          "name": "newInterestRateModel",
          "type": "address"
        }
      ],
      "name": "_setInterestRateModel",
      "outputs": [
        {
          "internalType": "uint256",
          "name": "",
          "type": "uint256"
        }
      ],
      "payable": false,
      "stateMutability": "nonpayable",
      "type": "function"
    },
    {
      "constant": false,
      "inputs": [
        {
          "internalType": "address payable",
          "name": "newPendingAdmin",
          "type": "address"
        }
      ],
      "name": "_setPendingAdmin",
      "outputs": [
        {
          "internalType": "uint256",
          "name": "",
          "type": "uint256"
        }
      ],
      "payable": false,
      "stateMutability": "nonpayable",
      "type": "function"
    },
    {
      "constant": false,
      "inputs": [
        {
          "internalType": "uint256",
          "name": "newReserveFactorMantissa",
          "type": "uint256"
        }
      ],
      "name": "_setReserveFactor",
      "outputs": [
        {
          "internalType": "uint256",
          "name": "",
          "type": "uint256"
        }
      ],
      "payable": false,
      "stateMutability": "nonpayable",
      "type": "function"
    },
    {
      "constant": true,
      "inputs": [],
      "name": "accrualBlockNumber",
      "outputs": [
        {
          "internalType": "uint256",
          "name": "",
          "type": "uint256"
        }
      ],
      "payable": false,
      "stateMutability": "view",
      "type": "function"
    },
    {
      "constant": false,
      "inputs": [],
      "name": "accrueInterest",
      "outputs": [
        {
          "internalType": "uint256",
          "name": "",
          "type": "uint256"
        }
      ],
      "payable": false,
      "stateMutability": "nonpayable",
      "type": "function"
    },
    {
      "constant": true,
      "inputs": [],
      "name": "admin",
      "outputs": [
        {
          "internalType": "address payable",
          "name": "",
          "type": "address"
        }
      ],
      "payable": false,
      "stateMutability": "view",
      "type": "function"
    },
    {
      "constant": true,
      "inputs": [
        {
          "internalType": "address",
          "name": "owner",
          "type": "address"
        },
        {
          "internalType": "address",
          "name": "spender",
          "type": "address"
        }
      ],
      "name": "allowance",
      "outputs": [
        {
          "internalType": "uint256",
          "name": "",
          "type": "uint256"
        }
      ],
      "payable": false,
      "stateMutability": "view",
      "type": "function"
    },
    {
      "constant": false,
      "inputs": [
        {
          "internalType": "address",
          "name": "spender",
          "type": "address"
        },
        {
          "internalType": "uint256",
          "name": "amount",
          "type": "uint256"
        }
      ],
      "name": "approve",
      "outputs": [
        {
          "internalType": "bool",
          "name": "",
          "type": "bool"
        }
      ],
      "payable": false,
      "stateMutability": "nonpayable",
      "type": "function"
    },
    {
      "constant": true,
      "inputs": [
        {
          "internalType": "address",
          "name": "owner",
          "type": "address"
        }
      ],
      "name": "balanceOf",
      "outputs": [
        {
          "internalType": "uint256",
          "name": "",
          "type": "uint256"
        }
      ],
      "payable": false,
      "stateMutability": "view",
      "type": "function"
    },
    {
      "constant": false,
      "inputs": [
        {
          "internalType": "address",
          "name": "owner",
          "type": "address"
        }
      ],
      "name": "balanceOfUnderlying",
      "outputs": [
        {
          "internalType": "uint256",
          "name": "",
          "type": "uint256"
        }
      ],
      "payable": false,
      "stateMutability": "nonpayable",
      "type": "function"
    },
    {
      "constant": false,
      "inputs": [
        {
          "internalType": "uint256",
          "name": "borrowAmount",
          "type": "uint256"
        }
      ],
      "name": "borrow",
      "outputs": [
        {
          "internalType": "uint256",
          "name": "",
          "type": "uint256"
        }
      ],
      "payable": false,
      "stateMutability": "nonpayable",
      "type": "function"
    },
    {
      "constant": false,
      "inputs": [
        {
          "internalType": "address",
          "name": "account",
          "type": "address"
        }
      ],
      "name": "borrowBalanceCurrent",
      "outputs": [
        {
          "internalType": "uint256",
          "name": "",
          "type": "uint256"
        }
      ],
      "payable": false,
      "stateMutability": "nonpayable",
      "type": "function"
    },
    {
      "constant": true,
      "inputs": [
        {
          "internalType": "address",
          "name": "account",
          "type": "address"
        }
      ],
      "name": "borrowBalanceStored",
      "outputs": [
        {
          "internalType": "uint256",
          "name": "",
          "type": "uint256"
        }
      ],
      "payable": false,
      "stateMutability": "view",
      "type": "function"
    },
    {
      "constant": true,
      "inputs": [],
      "name": "borrowIndex",
      "outputs": [
        {
          "internalType": "uint256",
          "name": "",
          "type": "uint256"
        }
      ],
      "payable": false,
      "stateMutability": "view",
      "type": "function"
    },
    {
      "constant": true,
      "inputs": [],
      "name": "borrowRatePerBlock",
      "outputs": [
        {
          "internalType": "uint256",
          "name": "",
          "type": "uint256"
        }
      ],
      "payable": false,
      "stateMutability": "view",
      "type": "function"
    },
    {
      "constant": true,
      "inputs": [],
      "name": "comptroller",
      "outputs": [
        {
          "internalType": "contract ComptrollerInterface",
          "name": "",
          "type": "address"
        }
      ],
      "payable": false,
      "stateMutability": "view",
      "type": "function"
    },
    {
      "constant": true,
      "inputs": [],
      "name": "decimals",
      "outputs": [
        {
          "internalType": "uint8",
          "name": "",
          "type": "uint8"
        }
      ],
      "payable": false,
      "stateMutability": "view",
      "type": "function"
    },
    {
      "constant": false,
      "inputs": [],
      "name": "exchangeRateCurrent",
      "outputs": [
        {
          "internalType": "uint256",
          "name": "",
          "type": "uint256"
        }
      ],
      "payable": false,
      "stateMutability": "nonpayable",
      "type": "function"
    },
    {
      "constant": true,
      "inputs": [],
      "name": "exchangeRateStored",
      "outputs": [
        {
          "internalType": "uint256",
          "name": "",
          "type": "uint256"
        }
      ],
      "payable": false,
      "stateMutability": "view",
      "type": "function"
    },
    {
      "constant": true,
      "inputs": [
        {
          "internalType": "address",
          "name": "token",
          "type": "address"
        },
        {
          "internalType": "uint256",
          "name": "amount",
          "type": "uint256"
        }
      ],
      "name": "flashFee",
      "outputs": [
        {
          "internalType": "uint256",
          "name": "",
          "type": "uint256"
        }
      ],
      "payable": false,
      "stateMutability": "view",
      "type": "function"
    },
    {
      "constant": false,
      "inputs": [
        {
          "internalType": "contract IERC3156FlashBorrower",
          "name": "receiver",
          "type": "address"
        },
        {
          "internalType": "address",
          "name": "token",
          "type": "address"
        },
        {
          "internalType": "uint256",
          "name": "amount",
          "type": "uint256"
        },
        {
          "internalType": "bytes",
          "name": "data",
          "type": "bytes"
        }
      ],
      "name": "flashLoan",
      "outputs": [
        {
          "internalType": "bool",
          "name": "",
          "type": "bool"
        }
      ],
      "payable": false,
      "stateMutability": "nonpayable",
      "type": "function"
    },
    {
      "constant": true,
      "inputs": [
        {
          "internalType": "address",
          "name": "account",
          "type": "address"
        }
      ],
      "name": "getAccountSnapshot",
      "outputs": [
        {
          "internalType": "uint256",
          "name": "",
          "type": "uint256"
        },
        {
          "internalType": "uint256",
          "name": "",
          "type": "uint256"
        },
        {
          "internalType": "uint256",
          "name": "",
          "type": "uint256"
        },
        {
          "internalType": "uint256",
          "name": "",
          "type": "uint256"
        }
      ],
      "payable": false,
      "stateMutability": "view",
      "type": "function"
    },
    {
      "constant": true,
      "inputs": [],
      "name": "getCash",
      "outputs": [
        {
          "internalType": "uint256",
          "name": "",
          "type": "uint256"
        }
      ],
      "payable": false,
      "stateMutability": "view",
      "type": "function"
    },
    {
      "constant": true,
      "inputs": [],
      "name": "implementation",
      "outputs": [
        {
          "internalType": "address",
          "name": "",
          "type": "address"
        }
      ],
      "payable": false,
      "stateMutability": "view",
      "type": "function"
    },
    {
      "constant": false,
      "inputs": [
        {
          "internalType": "address",
          "name": "underlying_",
          "type": "address"
        },
        {
          "internalType": "contract ComptrollerInterface",
          "name": "comptroller_",
          "type": "address"
        },
        {
          "internalType": "contract InterestRateModel",
          "name": "interestRateModel_",
          "type": "address"
        },
        {
          "internalType": "uint256",
          "name": "initialExchangeRateMantissa_",
          "type": "uint256"
        },
        {
          "internalType": "string",
          "name": "name_",
          "type": "string"
        },
        {
          "internalType": "string",
          "name": "symbol_",
          "type": "string"
        },
        {
          "internalType": "uint8",
          "name": "decimals_",
          "type": "uint8"
        }
      ],
      "name": "initialize",
      "outputs": [],
      "payable": false,
      "stateMutability": "nonpayable",
      "type": "function"
    },
    {
      "constant": false,
      "inputs": [
        {
          "internalType": "contract ComptrollerInterface",
          "name": "comptroller_",
          "type": "address"
        },
        {
          "internalType": "contract InterestRateModel",
          "name": "interestRateModel_",
          "type": "address"
        },
        {
          "internalType": "uint256",
          "name": "initialExchangeRateMantissa_",
          "type": "uint256"
        },
        {
          "internalType": "string",
          "name": "name_",
          "type": "string"
        },
        {
          "internalType": "string",
          "name": "symbol_",
          "type": "string"
        },
        {
          "internalType": "uint8",
          "name": "decimals_",
          "type": "uint8"
        }
      ],
      "name": "initialize",
      "outputs": [],
      "payable": false,
      "stateMutability": "nonpayable",
      "type": "function"
    },
    {
      "constant": true,
      "inputs": [],
      "name": "interestRateModel",
      "outputs": [
        {
          "internalType": "contract InterestRateModel",
          "name": "",
          "type": "address"
        }
      ],
      "payable": false,
      "stateMutability": "view",
      "type": "function"
    },
    {
      "constant": true,
      "inputs": [],
      "name": "isCToken",
      "outputs": [
        {
          "internalType": "bool",
          "name": "",
          "type": "bool"
        }
      ],
      "payable": false,
      "stateMutability": "view",
      "type": "function"
    },
    {
      "constant": true,
      "inputs": [],
      "name": "isNativeToken",
      "outputs": [
        {
          "internalType": "bool",
          "name": "",
          "type": "bool"
        }
      ],
      "payable": false,
      "stateMutability": "pure",
      "type": "function"
    },
    {
      "constant": false,
      "inputs": [
        {
          "internalType": "address",
          "name": "borrower",
          "type": "address"
        },
        {
          "internalType": "uint256",
          "name": "repayAmount",
          "type": "uint256"
        },
        {
          "internalType": "contract CTokenInterface",
          "name": "cTokenCollateral",
          "type": "address"
        }
      ],
      "name": "liquidateBorrow",
      "outputs": [
        {
          "internalType": "uint256",
          "name": "",
          "type": "uint256"
        }
      ],
      "payable": false,
      "stateMutability": "nonpayable",
      "type": "function"
    },
    {
      "constant": true,
      "inputs": [
        {
          "internalType": "address",
          "name": "token",
          "type": "address"
        }
      ],
      "name": "maxFlashLoan",
      "outputs": [
        {
          "internalType": "uint256",
          "name": "",
          "type": "uint256"
        }
      ],
      "payable": false,
      "stateMutability": "view",
      "type": "function"
    },
    {
      "constant": false,
      "inputs": [
        {
          "internalType": "uint256",
          "name": "mintAmount",
          "type": "uint256"
        }
      ],
      "name": "mint",
      "outputs": [
        {
          "internalType": "uint256",
          "name": "",
          "type": "uint256"
        }
      ],
      "payable": false,
      "stateMutability": "nonpayable",
      "type": "function"
    },
    {
      "constant": true,
      "inputs": [],
      "name": "name",
      "outputs": [
        {
          "internalType": "string",
          "name": "",
          "type": "string"
        }
      ],
      "payable": false,
      "stateMutability": "view",
      "type": "function"
    },
    {
      "constant": true,
      "inputs": [],
      "name": "pendingAdmin",
      "outputs": [
        {
          "internalType": "address payable",
          "name": "",
          "type": "address"
        }
      ],
      "payable": false,
      "stateMutability": "view",
      "type": "function"
    },
    {
      "constant": false,
      "inputs": [
        {
          "internalType": "uint256",
          "name": "redeemTokens",
          "type": "uint256"
        }
      ],
      "name": "redeem",
      "outputs": [
        {
          "internalType": "uint256",
          "name": "",
          "type": "uint256"
        }
      ],
      "payable": false,
      "stateMutability": "nonpayable",
      "type": "function"
    },
    {
      "constant": false,
      "inputs": [
        {
          "internalType": "uint256",
          "name": "redeemAmount",
          "type": "uint256"
        }
      ],
      "name": "redeemUnderlying",
      "outputs": [
        {
          "internalType": "uint256",
          "name": "",
          "type": "uint256"
        }
      ],
      "payable": false,
      "stateMutability": "nonpayable",
      "type": "function"
    },
    {
      "constant": false,
      "inputs": [
        {
          "internalType": "uint256",
          "name": "repayAmount",
          "type": "uint256"
        }
      ],
      "name": "repayBorrow",
      "outputs": [
        {
          "internalType": "uint256",
          "name": "",
          "type": "uint256"
        }
      ],
      "payable": false,
      "stateMutability": "nonpayable",
      "type": "function"
    },
    {
      "constant": false,
      "inputs": [
        {
          "internalType": "address",
          "name": "borrower",
          "type": "address"
        },
        {
          "internalType": "uint256",
          "name": "repayAmount",
          "type": "uint256"
        }
      ],
      "name": "repayBorrowBehalf",
      "outputs": [
        {
          "internalType": "uint256",
          "name": "",
          "type": "uint256"
        }
      ],
      "payable": false,
      "stateMutability": "nonpayable",
      "type": "function"
    },
    {
      "constant": true,
      "inputs": [],
      "name": "reserveFactorMantissa",
      "outputs": [
        {
          "internalType": "uint256",
          "name": "",
          "type": "uint256"
        }
      ],
      "payable": false,
      "stateMutability": "view",
      "type": "function"
    },
    {
      "constant": false,
      "inputs": [
        {
          "internalType": "address",
          "name": "liquidator",
          "type": "address"
        },
        {
          "internalType": "address",
          "name": "borrower",
          "type": "address"
        },
        {
          "internalType": "uint256",
          "name": "seizeTokens",
          "type": "uint256"
        }
      ],
      "name": "seize",
      "outputs": [
        {
          "internalType": "uint256",
          "name": "",
          "type": "uint256"
        }
      ],
      "payable": false,
      "stateMutability": "nonpayable",
      "type": "function"
    },
    {
      "constant": true,
      "inputs": [],
      "name": "supplyRatePerBlock",
      "outputs": [
        {
          "internalType": "uint256",
          "name": "",
          "type": "uint256"
        }
      ],
      "payable": false,
      "stateMutability": "view",
      "type": "function"
    },
    {
      "constant": true,
      "inputs": [],
      "name": "symbol",
      "outputs": [
        {
          "internalType": "string",
          "name": "",
          "type": "string"
        }
      ],
      "payable": false,
      "stateMutability": "view",
      "type": "function"
    },
    {
      "constant": true,
      "inputs": [],
      "name": "totalBorrows",
      "outputs": [
        {
          "internalType": "uint256",
          "name": "",
          "type": "uint256"
        }
      ],
      "payable": false,
      "stateMutability": "view",
      "type": "function"
    },
    {
      "constant": false,
      "inputs": [],
      "name": "totalBorrowsCurrent",
      "outputs": [
        {
          "internalType": "uint256",
          "name": "",
          "type": "uint256"
        }
      ],
      "payable": false,
      "stateMutability": "nonpayable",
      "type": "function"
    },
    {
      "constant": true,
      "inputs": [],
      "name": "totalReserves",
      "outputs": [
        {
          "internalType": "uint256",
          "name": "",
          "type": "uint256"
        }
      ],
      "payable": false,
      "stateMutability": "view",
      "type": "function"
    },
    {
      "constant": true,
      "inputs": [],
      "name": "totalSupply",
      "outputs": [
        {
          "internalType": "uint256",
          "name": "",
          "type": "uint256"
        }
      ],
      "payable": false,
      "stateMutability": "view",
      "type": "function"
    },
    {
      "constant": false,
      "inputs": [
        {
          "internalType": "address",
          "name": "dst",
          "type": "address"
        },
        {
          "internalType": "uint256",
          "name": "amount",
          "type": "uint256"
        }
      ],
      "name": "transfer",
      "outputs": [
        {
          "internalType": "bool",
          "name": "",
          "type": "bool"
        }
      ],
      "payable": false,
      "stateMutability": "nonpayable",
      "type": "function"
    },
    {
      "constant": false,
      "inputs": [
        {
          "internalType": "address",
          "name": "src",
          "type": "address"
        },
        {
          "internalType": "address",
          "name": "dst",
          "type": "address"
        },
        {
          "internalType": "uint256",
          "name": "amount",
          "type": "uint256"
        }
      ],
      "name": "transferFrom",
      "outputs": [
        {
          "internalType": "bool",
          "name": "",
          "type": "bool"
        }
      ],
      "payable": false,
      "stateMutability": "nonpayable",
      "type": "function"
    },
    {
      "constant": true,
      "inputs": [],
      "name": "underlying",
      "outputs": [
        {
          "internalType": "address",
          "name": "",
          "type": "address"
        }
      ],
      "payable": false,
      "stateMutability": "view",
      "type": "function"
    },
    {
      "constant": false,
      "inputs": [
        {
          "internalType": "bytes",
          "name": "data",
          "type": "bytes"
        }
      ],
      "name": "_becomeImplementation",
      "outputs": [],
      "payable": false,
      "stateMutability": "nonpayable",
      "type": "function"
    },
    {
      "constant": false,
      "inputs": [],
      "name": "_resignImplementation",
      "outputs": [],
      "payable": false,
      "stateMutability": "nonpayable",
      "type": "function"
    }
  ],
  "bytecode": "0x608060405234801561001057600080fd5b50615aff80620000216000396000f3fe608060405234801561001057600080fd5b506004361061028d5760003560e01c806373acee981161016357806373acee98146107f4578063852a12e3146107fc5780638f840ddd1461081957806395d89b411461082157806395dd91931461082957806399d8c1b41461084f5780639af4ee7e1461099d578063a0712d68146109a5578063a6afed95146109c2578063a9059cbb146109ca578063aa5af0fd146109f6578063ae9d70b0146109fe578063b2a02ff114610a06578063b71d1a0c14610a3c578063bd6d894d14610a62578063c37f68e214610a6a578063c5ebeaec14610ab6578063d9d98ce414610ad3578063db006a7514610aff578063dd62ed3e14610b1c578063e9c714f214610b4a578063f2b3abbd14610b52578063f3fdb15a14610b78578063f5e3c46214610b80578063f851a44014610bb6578063f8f9da2814610bbe578063fca7820b14610bc6578063fe9c44ae14610be35761028d565b806306fdde0314610292578063095ea7b31461030f5780630e7527021461034f578063153ab5051461037e578063173b99041461038857806317bfdfbc1461039057806318160ddd146103b6578063182df0f5146103be5780631a31d465146103c657806323b872dd1461051c5780632608f81814610552578063267822471461057e578063313ce567146105a25780633af9e669146105c05780633b1d21a2146105e65780633e941010146105ee5780634576b5db1461060b57806347bd37181461063157806356e67728146106395780635c60da1b146106dd5780635cffe9de146106e55780635fe3b56714610773578063601a0bf11461077b578063613255ab146107985780636c540baf146107be5780636f307dc3146107c657806370a08231146107ce575b600080fd5b61029a610beb565b6040805160208082528351818301528351919283929083019185019080838360005b838110156102d45781810151838201526020016102bc565b50505050905090810190601f1680156103015780820380516001836020036101000a031916815260200191505b509250505060405180910390f35b61033b6004803603604081101561032557600080fd5b506001600160a01b038135169060200135610c78565b604080519115158252519081900360200190f35b61036c6004803603602081101561036557600080fd5b5035610ce5565b60408051918252519081900360200190f35b610386610cfb565b005b61036c610d4b565b61036c600480360360208110156103a657600080fd5b50356001600160a01b0316610d51565b61036c610e11565b61036c610e17565b610386600480360360e08110156103dc57600080fd5b6001600160a01b03823581169260208101358216926040820135909216916060820135919081019060a081016080820135600160201b81111561041e57600080fd5b82018360208201111561043057600080fd5b803590602001918460018302840111600160201b8311171561045157600080fd5b91908080601f0160208091040260200160405190810160405280939291908181526020018383808284376000920191909152509295949360208101935035915050600160201b8111156104a357600080fd5b8201836020820111156104b557600080fd5b803590602001918460018302840111600160201b831117156104d657600080fd5b91908080601f0160208091040260200160405190810160405280939291908181526020018383808284376000920191909152509295505050903560ff169150610e7a9050565b61033b6004803603606081101561053257600080fd5b506001600160a01b03813581169160208101359091169060400135610f19565b61036c6004803603604081101561056857600080fd5b506001600160a01b038135169060200135610f8b565b610586610fa1565b604080516001600160a01b039092168252519081900360200190f35b6105aa610fb0565b6040805160ff9092168252519081900360200190f35b61036c600480360360208110156105d657600080fd5b50356001600160a01b0316610fb9565b61036c61106f565b61036c6004803603602081101561060457600080fd5b503561107e565b61036c6004803603602081101561062157600080fd5b50356001600160a01b0316611089565b61036c6111dd565b6103866004803603602081101561064f57600080fd5b810190602081018135600160201b81111561066957600080fd5b82018360208201111561067b57600080fd5b803590602001918460018302840111600160201b8311171561069c57600080fd5b91908080601f0160208091040260200160405190810160405280939291908181526020018383808284376000920191909152509295506111e3945050505050565b610586611234565b61033b600480360360808110156106fb57600080fd5b6001600160a01b03823581169260208101359091169160408201359190810190608081016060820135600160201b81111561073557600080fd5b82018360208201111561074757600080fd5b803590602001918460018302840111600160201b8311171561076857600080fd5b509092509050611243565b6105866114df565b61036c6004803603602081101561079157600080fd5b50356114ee565b61036c600480360360208110156107ae57600080fd5b50356001600160a01b0316611589565b61036c611606565b61058661160c565b61036c600480360360208110156107e457600080fd5b50356001600160a01b031661161b565b61036c611636565b61036c6004803603602081101561081257600080fd5b50356116ec565b61036c6116f7565b61029a6116fd565b61036c6004803603602081101561083f57600080fd5b50356001600160a01b0316611755565b610386600480360360c081101561086557600080fd5b6001600160a01b03823581169260208101359091169160408201359190810190608081016060820135600160201b81111561089f57600080fd5b8201836020820111156108b157600080fd5b803590602001918460018302840111600160201b831117156108d257600080fd5b91908080601f0160208091040260200160405190810160405280939291908181526020018383808284376000920191909152509295949360208101935035915050600160201b81111561092457600080fd5b82018360208201111561093657600080fd5b803590602001918460018302840111600160201b8311171561095757600080fd5b91908080601f0160208091040260200160405190810160405280939291908181526020018383808284376000920191909152509295505050903560ff1691506117b29050565b61033b611996565b61036c600480360360208110156109bb57600080fd5b503561199b565b61036c6119a7565b61033b600480360360408110156109e057600080fd5b506001600160a01b038135169060200135611cfe565b61036c611d6f565b61036c611d75565b61036c60048036036060811015610a1c57600080fd5b506001600160a01b03813581169160208101359091169060400135611e14565b61036c60048036036020811015610a5257600080fd5b50356001600160a01b0316611e85565b61036c611f11565b610a9060048036036020811015610a8057600080fd5b50356001600160a01b0316611fcd565b604080519485526020850193909352838301919091526060830152519081900360800190f35b61036c60048036036020811015610acc57600080fd5b5035612062565b61036c60048036036040811015610ae957600080fd5b506001600160a01b03813516906020013561206d565b61036c60048036036020811015610b1557600080fd5b5035612079565b61036c60048036036040811015610b3257600080fd5b506001600160a01b0381358116916020013516612084565b61036c6120af565b61036c60048036036020811015610b6857600080fd5b50356001600160a01b03166121b2565b6105866121ec565b61036c60048036036060811015610b9657600080fd5b506001600160a01b038135811691602081013591604090910135166121fb565b610586612213565b61036c612227565b61036c60048036036020811015610bdc57600080fd5b503561228b565b61033b612309565b60018054604080516020600284861615610100026000190190941693909304601f81018490048402820184019092528181529291830182828015610c705780601f10610c4557610100808354040283529160200191610c70565b820191906000526020600020905b815481529060010190602001808311610c5357829003601f168201915b505050505081565b336000818152600f602090815260408083206001600160a01b03871680855290835281842086905581518681529151939493909284927f8c5be1e5ebec7d5bd14f71427d1e84f3dd0314c0f7b2291e5b200ac8c7c3b925929081900390910190a360019150505b92915050565b600080610cf18361230e565b509150505b919050565b60035461010090046001600160a01b03163314610d495760405162461bcd60e51b815260040180806020018281038252602d81526020018061589c602d913960400191505060405180910390fd5b565b60085481565b6000805460ff16610d96576040805162461bcd60e51b815260206004820152600a6024820152691c994b595b9d195c995960b21b604482015290519081900360640190fd5b6000805460ff19168155610da86119a7565b14610df3576040805162461bcd60e51b81526020600482015260166024820152751858d8dc9d59481a5b9d195c995cdd0819985a5b195960521b604482015290519081900360640190fd5b610dfc82611755565b90505b6000805460ff19166001179055919050565b600d5481565b6000806000610e246123b7565b90925090506000826003811115610e3757fe5b14610e735760405162461bcd60e51b81526004018080602001828103825260358152602001806159e96035913960400191505060405180910390fd5b9150505b90565b610e888686868686866117b2565b601180546001600160a01b0319166001600160a01b038981169190911791829055604080516318160ddd60e01b8152905192909116916318160ddd91600480820192602092909190829003018186803b158015610ee457600080fd5b505afa158015610ef8573d6000803e3d6000fd5b505050506040513d6020811015610f0e57600080fd5b505050505050505050565b6000805460ff16610f5e576040805162461bcd60e51b815260206004820152600a6024820152691c994b595b9d195c995960b21b604482015290519081900360640190fd5b6000805460ff19168155610f7433868686612466565b1490506000805460ff191660011790559392505050565b600080610f988484612774565b50949350505050565b6004546001600160a01b031681565b60035460ff1681565b6000610fc3615682565b6040518060200160405280610fd6611f11565b90526001600160a01b0384166000908152600e602052604081205491925090819061100290849061281f565b9092509050600082600381111561101557fe5b14611067576040805162461bcd60e51b815260206004820152601f60248201527f62616c616e636520636f756c64206e6f742062652063616c63756c6174656400604482015290519081900360640190fd5b949350505050565b6000611079612873565b905090565b6000610cdf826128f3565b60035460009061010090046001600160a01b031633146110b6576110af6001603f612987565b9050610cf6565b60055460408051623f1ee960e11b815290516001600160a01b0392831692851691627e3dd2916004808301926020929190829003018186803b1580156110fb57600080fd5b505afa15801561110f573d6000803e3d6000fd5b505050506040513d602081101561112557600080fd5b5051611177576040805162461bcd60e51b815260206004820152601c60248201527b6d61726b6572206d6574686f642072657475726e65642066616c736560201b604482015290519081900360640190fd5b600580546001600160a01b0319166001600160a01b03858116918217909255604080519284168352602083019190915280517f7ac369dbd14fa5ea3f473ed67cc9d598964a77501540ba6751eb0b3decf5870d9281900390910190a160005b9392505050565b600b5481565b60035461010090046001600160a01b031633146112315760405162461bcd60e51b815260040180806020018281038252602d815260200180615a9e602d913960400191505060405180910390fd5b50565b6012546001600160a01b031681565b60008061124e6119a7565b14611299576040805162461bcd60e51b81526020600482015260166024820152751058d8dc9d59481a5b9d195c995cdd0819985a5b195960521b604482015290519081900360640190fd5b60006112a3612873565b9050848110156112f3576040805162461bcd60e51b8152602060048201526016602482015275496e73756666696369656e74206c697175696469747960501b604482015290519081900360640190fd5b60006112ff87876129ed565b905061130b8887612ae8565b611317600b5487612bdb565b600b556040516323e30c8b60e01b815233600482018181526001600160a01b038a81166024850152604484018a90526064840185905260a06084850190815260a48501899052908c16936323e30c8b93928c928c9288928d928d9260c401848480828437600081840152601f19601f820116905080830192505050975050505050505050602060405180830381600087803b1580156113b557600080fd5b505af11580156113c9573d6000803e3d6000fd5b505050506040513d60208110156113df57600080fd5b50600090506113ec612873565b90506113f88383612bdb565b811015611443576040805162461bcd60e51b8152602060048201526014602482015273496e636f6e73697374656e742062616c616e636560601b604482015290519081900360640190fd5b60008061146060405180602001604052806008548152508561281f565b9092509050600082600381111561147357fe5b146114af5760405162461bcd60e51b81526004018080602001828103825260288152602001806158526028913960400191505060405180910390fd5b6114bb600c5482612bdb565b600c55600b546114cb908a612c11565b600b555060019a9950505050505050505050565b6005546001600160a01b031681565b6000805460ff16611533576040805162461bcd60e51b815260206004820152600a6024820152691c994b595b9d195c995960b21b604482015290519081900360640190fd5b6000805460ff191681556115456119a7565b9050801561156b5761156381601081111561155c57fe5b6030612987565b915050610dff565b61157483612c4b565b9150506000805460ff19166001179055919050565b6005546040805163e0fbf09d60e01b815230600482015290516000926001600160a01b03169163e0fbf09d916024808301926020929190829003018186803b1580156115d457600080fd5b505afa1580156115e8573d6000803e3d6000fd5b505050506040513d60208110156115fe57600080fd5b505192915050565b60095481565b6011546001600160a01b031681565b6001600160a01b03166000908152600e602052604090205490565b6000805460ff1661167b576040805162461bcd60e51b815260206004820152600a6024820152691c994b595b9d195c995960b21b604482015290519081900360640190fd5b6000805460ff1916815561168d6119a7565b146116d8576040805162461bcd60e51b81526020600482015260166024820152751858d8dc9d59481a5b9d195c995cdd0819985a5b195960521b604482015290519081900360640190fd5b50600b546000805460ff1916600117905590565b6000610cdf82612d7e565b600c5481565b6002805460408051602060018416156101000260001901909316849004601f81018490048402820184019092528181529291830182828015610c705780601f10610c4557610100808354040283529160200191610c70565b600080600061176384612dff565b9092509050600082600381111561177657fe5b146111d65760405162461bcd60e51b81526004018080602001828103825260378152602001806158f46037913960400191505060405180910390fd5b60035461010090046001600160a01b031633146118005760405162461bcd60e51b81526004018080602001828103825260248152602001806157db6024913960400191505060405180910390fd5b6009541580156118105750600a54155b61184b5760405162461bcd60e51b81526004018080602001828103825260238152602001806157ff6023913960400191505060405180910390fd5b60078490558361188c5760405162461bcd60e51b81526004018080602001828103825260308152602001806158226030913960400191505060405180910390fd5b600061189787611089565b905080156118e9576040805162461bcd60e51b815260206004820152601a6024820152791cd95d1d1a5b99c818dbdb5c1d1c9bdb1b195c8819985a5b195960321b604482015290519081900360640190fd5b6118f1612eb3565b600955670de0b6b3a7640000600a5561190986612eb7565b905080156119485760405162461bcd60e51b815260040180806020018281038252602281526020018061587a6022913960400191505060405180910390fd5b835161195b906001906020870190615695565b50825161196f906002906020860190615695565b50506003805460ff90921660ff199283161790556000805490911660011790555050505050565b600090565b600080610cf18361302b565b6000806119b2612eb3565b600954909150808214156119cb57600092505050610e77565b60006119d5612873565b600b54600c54600a54600654604080516315f2405360e01b815260048101879052602481018690526044810185905290519596509394929391926000926001600160a01b03909216916315f24053916064808301926020929190829003018186803b158015611a4357600080fd5b505afa158015611a57573d6000803e3d6000fd5b505050506040513d6020811015611a6d57600080fd5b5051905065048c27395000811115611acb576040805162461bcd60e51b815260206004820152601c60248201527b0c4dee4e4deee40e4c2e8ca40d2e640c2c4e6eae4c8d8f240d0d2ced60231b604482015290519081900360640190fd5b600080611ad889896130ac565b90925090506000826003811115611aeb57fe5b14611b3d576040805162461bcd60e51b815260206004820152601f60248201527f636f756c64206e6f742063616c63756c61746520626c6f636b2064656c746100604482015290519081900360640190fd5b611b45615682565b600080600080611b6360405180602001604052808a815250876130cf565b90975094506000876003811115611b7657fe5b14611ba857611b9360096006896003811115611b8e57fe5b613137565b9e505050505050505050505050505050610e77565b611bb2858c61281f565b90975093506000876003811115611bc557fe5b14611bdd57611b9360096001896003811115611b8e57fe5b611be7848c61319d565b90975092506000876003811115611bfa57fe5b14611c1257611b9360096004896003811115611b8e57fe5b611c2d6040518060200160405280600854815250858c6131c3565b90975091506000876003811115611c4057fe5b14611c5857611b9360096005896003811115611b8e57fe5b611c63858a8b6131c3565b90975090506000876003811115611c7657fe5b14611c8e57611b9360096003896003811115611b8e57fe5b60098e9055600a819055600b839055600c829055604080518d8152602081018690528082018390526060810185905290517f4dec04e750ca11537cabcd8a9eab06494de08da3735bc8871cd41250e190bc049181900360800190a160009e50505050505050505050505050505090565b6000805460ff16611d43576040805162461bcd60e51b815260206004820152600a6024820152691c994b595b9d195c995960b21b604482015290519081900360640190fd5b6000805460ff19168155611d5933338686612466565b1490506000805460ff1916600117905592915050565b600a5481565b6006546000906001600160a01b031663b8168816611d91612873565b600b54600c546008546040518563ffffffff1660e01b81526004018085815260200184815260200183815260200182815260200194505050505060206040518083038186803b158015611de357600080fd5b505afa158015611df7573d6000803e3d6000fd5b505050506040513d6020811015611e0d57600080fd5b5051905090565b6000805460ff16611e59576040805162461bcd60e51b815260206004820152600a6024820152691c994b595b9d195c995960b21b604482015290519081900360640190fd5b6000805460ff19169055611e6f3385858561321f565b90506000805460ff191660011790559392505050565b60035460009061010090046001600160a01b03163314611eab576110af60016045612987565b600480546001600160a01b038481166001600160a01b0319831681179093556040805191909216808252602082019390935281517fca4f2f25d0898edd99413412fb94012f9e54ec8142f9b093e7720646a95b16a9929181900390910190a160006111d6565b6000805460ff16611f56576040805162461bcd60e51b815260206004820152600a6024820152691c994b595b9d195c995960b21b604482015290519081900360640190fd5b6000805460ff19168155611f686119a7565b14611fb3576040805162461bcd60e51b81526020600482015260166024820152751858d8dc9d59481a5b9d195c995cdd0819985a5b195960521b604482015290519081900360640190fd5b611fbb610e17565b90506000805460ff1916600117905590565b6001600160a01b0381166000908152600e6020526040812054819081908190818080611ff889612dff565b93509050600081600381111561200a57fe5b146120285760095b97506000965086955085945061205b9350505050565b6120306123b7565b92509050600081600381111561204257fe5b1461204e576009612012565b5060009650919450925090505b9193509193565b6000610cdf8261382a565b60006111d683836129ed565b6000610cdf826138a9565b6001600160a01b039182166000908152600f6020908152604080832093909416825291909152205490565b6004546000906001600160a01b0316331415806120ca575033155b156120e2576120db60016000612987565b9050610e77565b60038054600480546001600160a01b03818116610100818102610100600160a81b0319871617968790556001600160a01b031990931690935560408051948390048216808652929095041660208401528351909391927ff9ffabca9c8276e99321725bcb43fb076a6c66a54b7f21c4e8146d8519b417dc92908290030190a1600454604080516001600160a01b038085168252909216602083015280517fca4f2f25d0898edd99413412fb94012f9e54ec8142f9b093e7720646a95b16a99281900390910190a160009250505090565b6000806121bd6119a7565b905080156121e3576121db8160108111156121d457fe5b6040612987565b915050610cf6565b6111d683612eb7565b6006546001600160a01b031681565b600080612209858585613923565b5095945050505050565b60035461010090046001600160a01b031681565b6006546000906001600160a01b03166315f24053612243612873565b600b54600c546040518463ffffffff1660e01b815260040180848152602001838152602001828152602001935050505060206040518083038186803b158015611de357600080fd5b6000805460ff166122d0576040805162461bcd60e51b815260206004820152600a6024820152691c994b595b9d195c995960b21b604482015290519081900360640190fd5b6000805460ff191681556122e26119a7565b90508015612300576115638160108111156122f957fe5b6046612987565b61157483613a55565b600181565b60008054819060ff16612355576040805162461bcd60e51b815260206004820152600a6024820152691c994b595b9d195c995960b21b604482015290519081900360640190fd5b6000805460ff191681556123676119a7565b905080156123925761238581601081111561237e57fe5b6036612987565b9250600091506123a39050565b61239d333386613afd565b92509250505b6000805460ff191660011790559092909150565b600d546000908190806123d257505060075460009150612462565b60006123dc612873565b905060006123e8615682565b60006123f984600b54600c54613ee2565b93509050600081600381111561240b57fe5b14612420579550600094506124629350505050565b61242a8386613f20565b92509050600081600381111561243c57fe5b14612451579550600094506124629350505050565b505160009550935061246292505050565b9091565b600554604080516317b9b84b60e31b81523060048201526001600160a01b03868116602483015285811660448301526064820185905291516000938493169163bdcdc25891608480830192602092919082900301818787803b1580156124cb57600080fd5b505af11580156124df573d6000803e3d6000fd5b505050506040513d60208110156124f557600080fd5b5051905080156125145761250c6003604a83613137565b915050611067565b836001600160a01b0316856001600160a01b0316141561253a5761250c6002604b612987565b60006001600160a01b0387811690871614156125595750600019612581565b506001600160a01b038086166000908152600f60209081526040808320938a16835292905220545b60008060008061259185896130ac565b909450925060008460038111156125a457fe5b146125c2576125b56009604b612987565b9650505050505050611067565b6001600160a01b038a166000908152600e60205260409020546125e590896130ac565b909450915060008460038111156125f857fe5b14612609576125b56009604c612987565b6001600160a01b0389166000908152600e602052604090205461262c908961319d565b9094509050600084600381111561263f57fe5b14612650576125b56009604d612987565b6001600160a01b03808b166000908152600e6020526040808220859055918b1681522081905560001985146126a8576001600160a01b03808b166000908152600f60209081526040808320938f168352929052208390555b886001600160a01b03168a6001600160a01b03166000805160206159658339815191528a6040518082815260200191505060405180910390a36005546040805163352b4a3f60e11b81523060048201526001600160a01b038d811660248301528c81166044830152606482018c905291519190921691636a56947e91608480830192600092919082900301818387803b15801561274457600080fd5b505af1158015612758573d6000803e3d6000fd5b5060009250612765915050565b9b9a5050505050505050505050565b60008054819060ff166127bb576040805162461bcd60e51b815260206004820152600a6024820152691c994b595b9d195c995960b21b604482015290519081900360640190fd5b6000805460ff191681556127cd6119a7565b905080156127f8576127eb8160108111156127e457fe5b6035612987565b9250600091506128099050565b612803338686613afd565b92509250505b6000805460ff1916600117905590939092509050565b600080600061282c615682565b61283686866130cf565b9092509050600082600381111561284957fe5b1461285a575091506000905061286c565b600061286582613fd0565b9350935050505b9250929050565b601154604080516370a0823160e01b815230600482015290516000926001600160a01b03169182916370a0823191602480820192602092909190829003018186803b1580156128c157600080fd5b505afa1580156128d5573d6000803e3d6000fd5b505050506040513d60208110156128eb57600080fd5b505191505090565b6000805460ff16612938576040805162461bcd60e51b815260206004820152600a6024820152691c994b595b9d195c995960b21b604482015290519081900360640190fd5b6000805460ff1916815561294a6119a7565b905080156129685761156381601081111561296157fe5b604e612987565b61297183613fdf565b509150506000805460ff19166001179055919050565b60007f45b96fe442630264581b197e84bbada861235052c5a1aadfff9ea4e40a969aa08360108111156129b657fe5b8360508111156129c257fe5b604080519283526020830191909152600082820152519081900360600190a18260108111156111d657fe5b600554604080516306995d7d60e41b815290516000926001600160a01b031691636995d7d0916004808301926020929190829003018186803b158015612a3257600080fd5b505afa158015612a46573d6000803e3d6000fd5b505050506040513d6020811015612a5c57600080fd5b50516040805163638d09e360e11b81523360048201526001600160a01b038681166024830152604482018690529151919092169163c71a13c6916064808301926020929190829003018186803b158015612ab557600080fd5b505afa158015612ac9573d6000803e3d6000fd5b505050506040513d6020811015612adf57600080fd5b50519392505050565b6011546040805163a9059cbb60e01b81526001600160a01b0385811660048301526024820185905291519190921691829163a9059cbb9160448082019260009290919082900301818387803b158015612b4057600080fd5b505af1158015612b54573d6000803e3d6000fd5b5050505060003d60008114612b705760208114612b7a57600080fd5b6000199150612b86565b60206000803e60005191505b5080612bd5576040805162461bcd60e51b81526020600482015260196024820152781513d2d15397d514905394d1915497d3d55517d19052531151603a1b604482015290519081900360640190fd5b50505050565b60006111d68383604051806040016040528060118152602001706164646974696f6e206f766572666c6f7760781b8152506140c7565b60006111d68383604051806040016040528060158152602001747375627472616374696f6e20756e646572666c6f7760581b815250614159565b600354600090819061010090046001600160a01b03163314612c73576121db60016031612987565b612c7b612eb3565b60095414612c8f576121db600a6033612987565b82612c98612873565b1015612caa576121db600e6032612987565b600c54831115612cc0576121db60026034612987565b50600c5482810390811115612d065760405162461bcd60e51b8152600401808060200182810382526024815260200180615a7a6024913960400191505060405180910390fd5b600c819055600354612d269061010090046001600160a01b031684612ae8565b600354604080516101009092046001600160a01b0316825260208201859052818101839052517f3bad0c59cf2f06e7314077049f48a93578cd16f5ef92329f1dab1420a99c177e916060908290030190a160006111d6565b6000805460ff16612dc3576040805162461bcd60e51b815260206004820152600a6024820152691c994b595b9d195c995960b21b604482015290519081900360640190fd5b6000805460ff19168155612dd56119a7565b90508015612df357611563816010811115612dec57fe5b6027612987565b611574336000856141b3565b6001600160a01b038116600090815260106020526040812080548291829182918291612e36575060009450849350612eae92505050565b612e468160000154600a5461467a565b90945092506000846003811115612e5957fe5b14612e6e575091935060009250612eae915050565b612e7c8382600101546146b9565b90945091506000846003811115612e8f57fe5b14612ea4575091935060009250612eae915050565b5060009450925050505b915091565b4390565b600354600090819061010090046001600160a01b03163314612edf576121db60016042612987565b612ee7612eb3565b60095414612efb576121db600a6041612987565b600660009054906101000a90046001600160a01b03169050826001600160a01b0316632191f92a6040518163ffffffff1660e01b815260040160206040518083038186803b158015612f4c57600080fd5b505afa158015612f60573d6000803e3d6000fd5b505050506040513d6020811015612f7657600080fd5b5051612fc8576040805162461bcd60e51b815260206004820152601c60248201527b6d61726b6572206d6574686f642072657475726e65642066616c736560201b604482015290519081900360640190fd5b600680546001600160a01b0319166001600160a01b03858116918217909255604080519284168352602083019190915280517fedffc32e068c7c95dfd4bdfd5c4d939a084d6b11c4199eac8436ed234d72f9269281900390910190a160006111d6565b60008054819060ff16613072576040805162461bcd60e51b815260206004820152600a6024820152691c994b595b9d195c995960b21b604482015290519081900360640190fd5b6000805460ff191681556130846119a7565b905080156130a25761238581601081111561309b57fe5b601e612987565b61239d33856146e4565b6000808383116130c357506000905081830361286c565b5060039050600061286c565b60006130d9615682565b6000806130ea86600001518661467a565b909250905060008260038111156130fd57fe5b1461311c5750604080516020810190915260008152909250905061286c565b60408051602081019091529081526000969095509350505050565b60007f45b96fe442630264581b197e84bbada861235052c5a1aadfff9ea4e40a969aa084601081111561316657fe5b84605081111561317257fe5b604080519283526020830191909152818101859052519081900360600190a183601081111561106757fe5b6000808383018481106131b55760009250905061286c565b50600291506000905061286c565b60008060006131d0615682565b6131da87876130cf565b909250905060008260038111156131ed57fe5b146131fe5750915060009050613217565b61321061320a82613fd0565b8661319d565b9350935050505b935093915050565b6005546040805163d02f735160e01b81523060048201526001600160a01b038781166024830152868116604483015285811660648301526084820185905291516000938493169163d02f73519160a480830192602092919082900301818787803b15801561328c57600080fd5b505af11580156132a0573d6000803e3d6000fd5b505050506040513d60208110156132b657600080fd5b5051905080156132cd5761250c6003601b83613137565b846001600160a01b0316846001600160a01b031614156132f35761250c6006601c612987565b600080600080600080600560009054906101000a90046001600160a01b03166001600160a01b0316636995d7d06040518163ffffffff1660e01b815260040160206040518083038186803b15801561334a57600080fd5b505afa15801561335e573d6000803e3d6000fd5b505050506040513d602081101561337457600080fd5b505160055460408051634ada90af60e01b815290516001600160a01b0393841693630cab477a938e93911691634ada90af91600480820192602092909190829003018186803b1580156133c657600080fd5b505afa1580156133da573d6000803e3d6000fd5b505050506040513d60208110156133f057600080fd5b5051604080516001600160e01b031960e086901b168152600481019390935260248301919091528051604480840193829003018186803b15801561343357600080fd5b505afa158015613447573d6000803e3d6000fd5b505050506040513d604081101561345d57600080fd5b508051602091820151600554604080516306995d7d60e41b815290519296509294506000936001600160a01b0390911692636995d7d09260048083019392829003018186803b1580156134af57600080fd5b505afa1580156134c3573d6000803e3d6000fd5b505050506040513d60208110156134d957600080fd5b50516040805163ee9e819960e01b815290516001600160a01b039092169163ee9e819991600480820192602092909190829003018186803b15801561351d57600080fd5b505afa158015613531573d6000803e3d6000fd5b505050506040513d602081101561354757600080fd5b50516001600160a01b038c166000908152600e602052604090205490915061356f908b6130ac565b9097509550600087600381111561358257fe5b146135a95761359a6009601a896003811115611b8e57fe5b98505050505050505050611067565b6001600160a01b038c166000908152600e60205260409020546135cc908361319d565b909750945060008760038111156135df57fe5b146135f75761359a60096019896003811115611b8e57fe5b6001600160a01b0381166000908152600e602052604090205461361a908461319d565b9097509350600087600381111561362d57fe5b146136455761359a60096019896003811115611b8e57fe5b85600e60008d6001600160a01b03166001600160a01b031681526020019081526020016000208190555084600e60008e6001600160a01b03166001600160a01b031681526020019081526020016000208190555083600e6000836001600160a01b03166001600160a01b03168152602001908152602001600020819055508b6001600160a01b03168b6001600160a01b0316600080516020615965833981519152846040518082815260200191505060405180910390a3806001600160a01b03168b6001600160a01b0316600080516020615965833981519152856040518082815260200191505060405180910390a3600560009054906101000a90046001600160a01b03166001600160a01b0316636d35bf91308f8f8f8f6040518663ffffffff1660e01b815260040180866001600160a01b03166001600160a01b03168152602001856001600160a01b03166001600160a01b03168152602001846001600160a01b03166001600160a01b03168152602001836001600160a01b03166001600160a01b0316815260200182815260200195505050505050600060405180830381600087803b1580156137f857600080fd5b505af115801561380c573d6000803e3d6000fd5b5060009250613819915050565b9d9c50505050505050505050505050565b6000805460ff1661386f576040805162461bcd60e51b815260206004820152600a6024820152691c994b595b9d195c995960b21b604482015290519081900360640190fd5b6000805460ff191681556138816119a7565b9050801561389f5761156381601081111561389857fe5b6008612987565b6115743384614b43565b6000805460ff166138ee576040805162461bcd60e51b815260206004820152600a6024820152691c994b595b9d195c995960b21b604482015290519081900360640190fd5b6000805460ff191681556139006119a7565b9050801561391757611563816010811115612dec57fe5b611574338460006141b3565b60008054819060ff1661396a576040805162461bcd60e51b815260206004820152600a6024820152691c994b595b9d195c995960b21b604482015290519081900360640190fd5b6000805460ff1916815561397c6119a7565b905080156139a75761399a81601081111561399357fe5b600f612987565b925060009150613a3e9050565b836001600160a01b031663a6afed956040518163ffffffff1660e01b8152600401602060405180830381600087803b1580156139e257600080fd5b505af11580156139f6573d6000803e3d6000fd5b505050506040513d6020811015613a0c57600080fd5b505190508015613a2c5761399a816010811115613a2557fe5b6010612987565b613a3833878787614e51565b92509250505b6000805460ff191660011790559094909350915050565b60035460009061010090046001600160a01b03163314613a7b576110af60016047612987565b613a83612eb3565b60095414613a97576110af600a6048612987565b670de0b6b3a7640000821115613ab3576110af60026049612987565b6008805490839055604080518281526020810185905281517faaa68312e2ea9d50e16af5068410ab56e1a1fd06037b1a35664812c30f821460929181900390910190a160006111d6565b60055460408051631200453160e11b81523060048201526001600160a01b0386811660248301528581166044830152606482018590529151600093849384939116916324008a629160848082019260209290919082900301818787803b158015613b6657600080fd5b505af1158015613b7a573d6000803e3d6000fd5b505050506040513d6020811015613b9057600080fd5b505190508015613bb457613ba76003603883613137565b9250600091506132179050565b613bbc612eb3565b60095414613bd057613ba7600a6039612987565b613bd8615713565b6001600160a01b0386166000908152601060205260409020600101546060820152613c0286612dff565b6080830181905260208301826003811115613c1957fe5b6003811115613c2457fe5b9052506000905081602001516003811115613c3b57fe5b14613c6557613c576009603783602001516003811115611b8e57fe5b935060009250613217915050565b600019851415613c7e5760808101516040820152613c86565b604081018590525b613c948782604001516153cf565b60e082018190526080820151613ca9916130ac565b60a0830181905260208301826003811115613cc057fe5b6003811115613ccb57fe5b9052506000905081602001516003811115613ce257fe5b14613d1e5760405162461bcd60e51b815260040180806020018281038252603a81526020018061592b603a913960400191505060405180910390fd5b613d2e600b548260e001516130ac565b60c0830181905260208301826003811115613d4557fe5b6003811115613d5057fe5b9052506000905081602001516003811115613d6757fe5b14613da35760405162461bcd60e51b81526004018080602001828103825260318152602001806159856031913960400191505060405180910390fd5b60a080820180516001600160a01b03808a16600081815260106020908152604091829020948555600a5460019095019490945560c0870151600b81905560e088015195518251948f16855294840192909252828101949094526060820192909252608081019190915290517f1a2a22cb034d26d1854bdc6666a5b91fe25efbbb5dcad3b0355478d6f5c362a1929181900390910190a160055460e0820151606083015160408051631ededc9160e01b81523060048201526001600160a01b038c811660248301528b8116604483015260648201949094526084810192909252519190921691631ededc919160a480830192600092919082900301818387803b158015613eae57600080fd5b505af1158015613ec2573d6000803e3d6000fd5b5060009250613ecf915050565b8160e00151935093505050935093915050565b600080600080613ef2878761319d565b90925090506000826003811115613f0557fe5b14613f165750915060009050613217565b61321081866130ac565b6000613f2a615682565b600080613f3f86670de0b6b3a764000061467a565b90925090506000826003811115613f5257fe5b14613f715750604080516020810190915260008152909250905061286c565b600080613f7e83886146b9565b90925090506000826003811115613f9157fe5b14613fb35750604080516020810190915260008152909450925061286c915050565b604080516020810190915290815260009890975095505050505050565b51670de0b6b3a7640000900490565b600080600080613fed612eb3565b6009541461400c57614001600a604f612987565b93509150612eae9050565b61401633866153cf565b905080600c54019150600c54821015614076576040805162461bcd60e51b815260206004820181905260248201527f61646420726573657276657320756e6578706563746564206f766572666c6f77604482015290519081900360640190fd5b600c829055604080513381526020810183905280820184905290517fa91e67c5ea634cd43a12c5a482724b03de01e85ca68702a53d0c2f45cb7c1dc59181900360600190a160009350915050915091565b60008383018285821015610f985760405162461bcd60e51b81526004018080602001828103825283818151815260200191508051906020019080838360005b8381101561411e578181015183820152602001614106565b50505050905090810190601f16801561414b5780820380516001836020036101000a031916815260200191505b509250505060405180910390fd5b600081848411156141ab5760405162461bcd60e51b815260206004820181815283516024840152835190928392604490910191908501908083836000831561411e578181015183820152602001614106565b505050900390565b60008215806141c0575081155b6141fb5760405162461bcd60e51b8152600401808060200182810382526034815260200180615a466034913960400191505060405180910390fd5b614203615759565b61420b6123b7565b604083018190526020830182600381111561422257fe5b600381111561422d57fe5b905250600090508160200151600381111561424457fe5b14614268576142606009602b83602001516003811115611b8e57fe5b9150506111d6565b83156142e957606081018490526040805160208101825290820151815261428f908561281f565b60808301819052602083018260038111156142a657fe5b60038111156142b157fe5b90525060009050816020015160038111156142c857fe5b146142e4576142606009602983602001516003811115611b8e57fe5b614362565b6143058360405180602001604052808460400151815250615611565b606083018190526020830182600381111561431c57fe5b600381111561432757fe5b905250600090508160200151600381111561433e57fe5b1461435a576142606009602a83602001516003811115611b8e57fe5b608081018390525b60055460608201516040805163eabe7d9160e01b81523060048201526001600160a01b03898116602483015260448201939093529051600093929092169163eabe7d919160648082019260209290919082900301818787803b1580156143c757600080fd5b505af11580156143db573d6000803e3d6000fd5b505050506040513d60208110156143f157600080fd5b505190508015614411576144086003602883613137565b925050506111d6565b614419612eb3565b6009541461442d57614408600a602c612987565b61443d600d5483606001516130ac565b60a084018190526020840182600381111561445457fe5b600381111561445f57fe5b905250600090508260200151600381111561447657fe5b14614492576144086009602e84602001516003811115611b8e57fe5b6001600160a01b0386166000908152600e602052604090205460608301516144ba91906130ac565b60c08401819052602084018260038111156144d157fe5b60038111156144dc57fe5b90525060009050826020015160038111156144f357fe5b1461450f576144086009602d84602001516003811115611b8e57fe5b816080015161451c612873565b101561452e57614408600e602f612987565b61453c868360800151612ae8565b60a0820151600d5560c08201516001600160a01b0387166000818152600e6020908152604091829020939093556060850151815190815290513093600080516020615965833981519152928290030190a36080820151606080840151604080516001600160a01b038b168152602081019490945283810191909152517fe5b754fb1abb7f01b499791d0b820ae3b6af3424ac1c59768edb53f4ec31a9299281900390910190a160055460808301516060840151604080516351dff98960e01b81523060048201526001600160a01b038b81166024830152604482019490945260648101929092525191909216916351dff98991608480830192600092919082900301818387803b15801561464f57600080fd5b505af1158015614663573d6000803e3d6000fd5b5060009250614670915050565b9695505050505050565b6000808361468d5750600090508061286c565b8383028385828161469a57fe5b04146146ae5750600291506000905061286c565b60009250905061286c565b600080826146cd575060019050600061286c565b60008385816146d857fe5b04915091509250929050565b60055460408051634ef4c3e160e01b81523060048201526001600160a01b03858116602483015260448201859052915160009384938493911691634ef4c3e19160648082019260209290919082900301818787803b15801561474557600080fd5b505af1158015614759573d6000803e3d6000fd5b505050506040513d602081101561476f57600080fd5b505190508015614793576147866003601f83613137565b92506000915061286c9050565b61479b612eb3565b600954146147af57614786600a6022612987565b6147b7615759565b6147bf6123b7565b60408301819052602083018260038111156147d657fe5b60038111156147e157fe5b90525060009050816020015160038111156147f857fe5b14614822576148146009602183602001516003811115611b8e57fe5b93506000925061286c915050565b61482c86866153cf565b60c082018190526040805160208101825290830151815261484d9190615611565b606083018190526020830182600381111561486457fe5b600381111561486f57fe5b905250600090508160200151600381111561488657fe5b146148d8576040805162461bcd60e51b815260206004820181905260248201527f4d494e545f45584348414e47455f43414c43554c4154494f4e5f4641494c4544604482015290519081900360640190fd5b6148e8600d54826060015161319d565b60808301819052602083018260038111156148ff57fe5b600381111561490a57fe5b905250600090508160200151600381111561492157fe5b1461495d5760405162461bcd60e51b8152600401808060200182810382526028815260200180615a1e6028913960400191505060405180910390fd5b6001600160a01b0386166000908152600e60205260409020546060820151614985919061319d565b60a083018190526020830182600381111561499c57fe5b60038111156149a757fe5b90525060009050816020015160038111156149be57fe5b146149fa5760405162461bcd60e51b815260040180806020018281038252602b8152602001806158c9602b913960400191505060405180910390fd5b6080810151600d5560a08101516001600160a01b0387166000818152600e60209081526040918290209390935560c084015160608086015183519485529484019190915282820193909352517f4c209b5fc8ad50758f13e2e1088ba56a560dff690a1c6fef26394f4c03821c4f929181900390910190a1606081015160408051918252516001600160a01b0388169130916000805160206159658339815191529181900360200190a360055460c08201516060830151604080516341c728b960e01b81523060048201526001600160a01b038b81166024830152604482019490945260648101929092525191909216916341c728b991608480830192600092919082900301818387803b158015614b1057600080fd5b505af1158015614b24573d6000803e3d6000fd5b5060009250614b31915050565b8160c001519350935050509250929050565b6005546040805163368f515360e21b81523060048201526001600160a01b0385811660248301526044820185905291516000938493169163da3d454c91606480830192602092919082900301818787803b158015614ba057600080fd5b505af1158015614bb4573d6000803e3d6000fd5b505050506040513d6020811015614bca57600080fd5b505190508015614be957614be16003600e83613137565b915050610cdf565b614bf1612eb3565b60095414614c0457614be1600a80612987565b82614c0d612873565b1015614c1f57614be1600e6009612987565b614c27615797565b614c3085612dff565b6020830181905282826003811115614c4457fe5b6003811115614c4f57fe5b9052506000905081516003811115614c6357fe5b14614c8857614c7f6009600783600001516003811115611b8e57fe5b92505050610cdf565b614c9681602001518561319d565b6040830181905282826003811115614caa57fe5b6003811115614cb557fe5b9052506000905081516003811115614cc957fe5b14614ce557614c7f6009600c83600001516003811115611b8e57fe5b614cf1600b548561319d565b6060830181905282826003811115614d0557fe5b6003811115614d1057fe5b9052506000905081516003811115614d2457fe5b14614d4057614c7f6009600b83600001516003811115611b8e57fe5b614d4a8585612ae8565b604080820180516001600160a01b03881660008181526010602090815290859020928355600a54600190930192909255606080860151600b81905593518551928352928201899052818501929092529081019190915290517f13ed6866d4e1ee6da46f845c46d7e54120883d75c5ea9a2dacc1c4ca8984ab809181900360800190a160055460408051635c77860560e01b81523060048201526001600160a01b0388811660248301526044820188905291519190921691635c77860591606480830192600092919082900301818387803b158015614e2757600080fd5b505af1158015614e3b573d6000803e3d6000fd5b5060009250614e48915050565b95945050505050565b60055460408051632fe3f38f60e11b81523060048201526001600160a01b0384811660248301528781166044830152868116606483015260848201869052915160009384938493911691635fc7e71e9160a48082019260209290919082900301818787803b158015614ec257600080fd5b505af1158015614ed6573d6000803e3d6000fd5b505050506040513d6020811015614eec57600080fd5b505190508015614f1057614f036003601283613137565b9250600091506153c69050565b614f18612eb3565b60095414614f2c57614f03600a6016612987565b614f34612eb3565b846001600160a01b0316636c540baf6040518163ffffffff1660e01b815260040160206040518083038186803b158015614f6d57600080fd5b505afa158015614f81573d6000803e3d6000fd5b505050506040513d6020811015614f9757600080fd5b505114614faa57614f03600a6011612987565b866001600160a01b0316866001600160a01b03161415614fd057614f0360066017612987565b84614fe157614f0360076015612987565b600019851415614ff757614f0360076014612987565b600080615005898989613afd565b909250905081156150355761502682601081111561501f57fe5b6018612987565b9450600093506153c692505050565b6005546040805163c488847b60e01b81523060048201526001600160a01b038981166024830152604482018590528251600094859492169263c488847b926064808301939192829003018186803b15801561508f57600080fd5b505afa1580156150a3573d6000803e3d6000fd5b505050506040513d60408110156150b957600080fd5b508051602090910151909250905081156151045760405162461bcd60e51b81526004018080602001828103825260338152602001806159b66033913960400191505060405180910390fd5b80886001600160a01b03166370a082318c6040518263ffffffff1660e01b815260040180826001600160a01b03166001600160a01b0316815260200191505060206040518083038186803b15801561515b57600080fd5b505afa15801561516f573d6000803e3d6000fd5b505050506040513d602081101561518557600080fd5b505110156151d5576040805162461bcd60e51b815260206004820152601860248201527709892a2aa928882a88abea68a92b48abea89e9ebe9aaa86960431b604482015290519081900360640190fd5b60006001600160a01b0389163014156151fb576151f4308d8d8561321f565b9050615285565b6040805163b2a02ff160e01b81526001600160a01b038e811660048301528d81166024830152604482018590529151918b169163b2a02ff1916064808201926020929091908290030181600087803b15801561525657600080fd5b505af115801561526a573d6000803e3d6000fd5b505050506040513d602081101561528057600080fd5b505190505b80156152cf576040805162461bcd60e51b81526020600482015260146024820152731d1bdad95b881cd95a5e9d5c994819985a5b195960621b604482015290519081900360640190fd5b604080516001600160a01b03808f168252808e1660208301528183018790528b1660608201526080810184905290517f298637f684da70674f26509b10f07ec2fbc77a335ab1e7d6215a4b2484d8bb529181900360a00190a1600554604080516347ef3b3b60e01b81523060048201526001600160a01b038c811660248301528f811660448301528e811660648301526084820188905260a48201869052915191909216916347ef3b3b9160c480830192600092919082900301818387803b15801561539a57600080fd5b505af11580156153ae573d6000803e3d6000fd5b50600092506153bb915050565b975092955050505050505b94509492505050565b601154604080516370a0823160e01b815230600482015290516000926001600160a01b031691839183916370a08231916024808301926020929190829003018186803b15801561541e57600080fd5b505afa158015615432573d6000803e3d6000fd5b505050506040513d602081101561544857600080fd5b5051604080516323b872dd60e01b81526001600160a01b038881166004830152306024830152604482018890529151929350908416916323b872dd9160648082019260009290919082900301818387803b1580156154a557600080fd5b505af11580156154b9573d6000803e3d6000fd5b5050505060003d600081146154d557602081146154df57600080fd5b60001991506154eb565b60206000803e60005191505b5080615539576040805162461bcd60e51b81526020600482015260186024820152771513d2d15397d514905394d1915497d25397d1905253115160421b604482015290519081900360640190fd5b601154604080516370a0823160e01b815230600482015290516000926001600160a01b0316916370a08231916024808301926020929190829003018186803b15801561558457600080fd5b505afa158015615598573d6000803e3d6000fd5b505050506040513d60208110156155ae57600080fd5b5051905082811015615604576040805162461bcd60e51b815260206004820152601a602482015279544f4b454e5f5452414e534645525f494e5f4f564552464c4f5760301b604482015290519081900360640190fd5b9190910395945050505050565b600080600061561e615682565b6128368686600061562d615682565b600080615642670de0b6b3a76400008761467a565b9092509050600082600381111561565557fe5b146156745750604080516020810190915260008152909250905061286c565b612865818660000151613f20565b6040518060200160405280600081525090565b828054600181600116156101000203166002900490600052602060002090601f016020900481019282601f106156d657805160ff1916838001178555615703565b82800160010185558215615703579182015b828111156157035782518255916020019190600101906156e8565b5061570f9291506157c0565b5090565b6040805161010081019091528060008152602001600081526020016000815260200160008152602001600081526020016000815260200160008152602001600081525090565b6040805160e0810190915280600081526020016000815260200160008152602001600081526020016000815260200160008152602001600081525090565b604080516080810190915280600081526020016000815260200160008152602001600081525090565b610e7791905b8082111561570f57600081556001016157c656fe6f6e6c792061646d696e206d617920696e697469616c697a6520746865206d61726b65746d61726b6574206d6179206f6e6c7920626520696e697469616c697a6564206f6e6365696e697469616c2065786368616e67652072617465206d7573742062652067726561746572207468616e207a65726f2e4572726f7220746f2063616c63756c61746520666c6173686c6f616e20726573657276652066656573657474696e6720696e7465726573742072617465206d6f64656c206661696c65646f6e6c79207468652061646d696e206d61792063616c6c205f72657369676e496d706c656d656e746174696f6e4d494e545f4e45575f4143434f554e545f42414c414e43455f43414c43554c4154494f4e5f4641494c4544626f72726f7742616c616e636553746f7265643a20626f72726f7742616c616e636553746f726564496e7465726e616c206661696c656452455041595f424f52524f575f4e45575f4143434f554e545f424f52524f575f42414c414e43455f43414c43554c4154494f4e5f4641494c4544ddf252ad1be2c89b69c2b068fc378daa952ba7f163c4a11628f55a4df523b3ef52455041595f424f52524f575f4e45575f544f54414c5f42414c414e43455f43414c43554c4154494f4e5f4641494c45444c49515549444154455f434f4d5054524f4c4c45525f43414c43554c4154455f414d4f554e545f5345495a455f4641494c454465786368616e67655261746553746f7265643a2065786368616e67655261746553746f726564496e7465726e616c206661696c65644d494e545f4e45575f544f54414c5f535550504c595f43414c43554c4154494f4e5f4641494c45446f6e65206f662072656465656d546f6b656e73496e206f722072656465656d416d6f756e74496e206d757374206265207a65726f72656475636520726573657276657320756e657870656374656420756e646572666c6f776f6e6c79207468652061646d696e206d61792063616c6c205f6265636f6d65496d706c656d656e746174696f6ea265627a7a72315820c85e5bac14682bfb675145defd3ba05ebc6b4a40b1d63361e84e610aaa99d10d64736f6c63430005100032",
  "source": "pragma solidity ^0.5.16;\n\nimport \"./CErc20.sol\";\n\n/**\n * @title Compound's CErc20Delegate Contract\n * @notice CTokens which wrap an EIP-20 underlying and are delegated to\n * @author Compound\n */\ncontract CErc20Delegate is CErc20, CDelegateInterface {\n    /**\n     * @notice Construct an empty delegate\n     */\n    constructor() public {}\n\n    /**\n     * @notice Called by the delegator on a delegate to initialize it for duty\n     * @param data The encoded bytes data for any initialization\n     */\n    function _becomeImplementation(bytes memory data) public {\n        // Shh -- currently unused\n        data;\n\n        // Shh -- we don't ever want this hook to be marked pure\n        if (false) {\n            implementation = address(0);\n        }\n\n        require(msg.sender == admin, \"only the admin may call _becomeImplementation\");\n    }\n\n    /**\n     * @notice Called by the delegator on a delegate to forfeit its responsibility\n     */\n    function _resignImplementation() public {\n        // Shh -- we don't ever want this hook to be marked pure\n        if (false) {\n            implementation = address(0);\n        }\n\n        require(msg.sender == admin, \"only the admin may call _resignImplementation\");\n    }\n}\n",
  "sourcePath": "/Users/ashton/repo/blockchain/eth/smartcontracts/quicksilver-protocol/contracts/compound/CErc20Delegate.sol",
  "compiler": {
    "name": "solc",
    "version": "0.5.16+commit.9c3226ce.Emscripten.clang"
  },
  "schemaVersion": "3.4.1",
  "updatedAt": "2021-08-05T05:29:25.144Z",
  "devdoc": {
    "author": "Compound",
    "methods": {
      "_acceptAdmin()": {
        "details": "Admin function for pending admin to accept role and update admin",
        "return": "uint 0=success, otherwise a failure (see ErrorReporter.sol for details)"
      },
      "_addReserves(uint256)": {
        "params": {
          "addAmount": "The amount fo underlying token to add as reserves"
        },
        "return": "uint 0=success, otherwise a failure (see ErrorReporter.sol for details)"
      },
      "_becomeImplementation(bytes)": {
        "params": {
          "data": "The encoded bytes data for any initialization"
        }
      },
      "_reduceReserves(uint256)": {
        "params": {
          "reduceAmount": "Amount of reduction to reserves"
        },
        "return": "uint 0=success, otherwise a failure (see ErrorReporter.sol for details)"
      },
      "_setComptroller(address)": {
        "details": "Admin function to set a new comptroller",
        "return": "uint 0=success, otherwise a failure (see ErrorReporter.sol for details)"
      },
      "_setInterestRateModel(address)": {
        "details": "Admin function to accrue interest and update the interest rate model",
        "params": {
          "newInterestRateModel": "the new interest rate model to use"
        },
        "return": "uint 0=success, otherwise a failure (see ErrorReporter.sol for details)"
      },
      "_setPendingAdmin(address)": {
        "details": "Admin function to begin change of admin. The newPendingAdmin must call `_acceptAdmin` to finalize the transfer.",
        "params": {
          "newPendingAdmin": "New pending admin."
        },
        "return": "uint 0=success, otherwise a failure (see ErrorReporter.sol for details)"
      },
      "_setReserveFactor(uint256)": {
        "details": "Admin function to accrue interest and set a new reserve factor",
        "return": "uint 0=success, otherwise a failure (see ErrorReporter.sol for details)"
      },
      "accrueInterest()": {
        "details": "This calculates interest accrued from the last checkpointed block  up to the current block and writes new checkpoint to storage."
      },
      "allowance(address,address)": {
        "params": {
          "owner": "The address of the account which owns the tokens to be spent",
          "spender": "The address of the account which may transfer tokens"
        },
        "return": "The number of tokens allowed to be spent (-1 means infinite)"
      },
      "approve(address,uint256)": {
        "details": "This will overwrite the approval amount for `spender` and is subject to issues noted [here](https://eips.ethereum.org/EIPS/eip-20#approve)",
        "params": {
          "amount": "The number of tokens that are approved (-1 means infinite)",
          "spender": "The address of the account which may transfer tokens"
        },
        "return": "Whether or not the approval succeeded"
      },
      "balanceOf(address)": {
        "params": {
          "owner": "The address of the account to query"
        },
        "return": "The number of tokens owned by `owner`"
      },
      "balanceOfUnderlying(address)": {
        "details": "This also accrues interest in a transaction",
        "params": {
          "owner": "The address of the account to query"
        },
        "return": "The amount of underlying owned by `owner`"
      },
      "borrow(uint256)": {
        "params": {
          "borrowAmount": "The amount of the underlying asset to borrow"
        },
        "return": "uint 0=success, otherwise a failure (see ErrorReporter.sol for details)"
      },
      "borrowBalanceCurrent(address)": {
        "params": {
          "account": "The address whose balance should be calculated after updating borrowIndex"
        },
        "return": "The calculated balance"
      },
      "borrowBalanceStored(address)": {
        "params": {
          "account": "The address whose balance should be calculated"
        },
        "return": "The calculated balance"
      },
      "borrowRatePerBlock()": {
        "return": "The borrow interest rate per block, scaled by 1e18"
      },
      "exchangeRateCurrent()": {
        "return": "Calculated exchange rate scaled by 1e18"
      },
      "exchangeRateStored()": {
        "details": "This function does not accrue interest before calculating the exchange rate",
        "return": "Calculated exchange rate scaled by 1e18"
      },
      "flashFee(address,uint256)": {
        "details": "The fee to be charged for a given loan.",
        "params": {
          "amount": "The amount of tokens lent.",
          "token": "The loan currency."
        },
        "return": "The amount of `token` to be charged for the loan, on top of the returned principal."
      },
      "flashLoan(address,address,uint256,bytes)": {
        "details": "Initiate a flash loan.",
        "params": {
          "amount": "The amount of tokens lent.",
          "data": "Arbitrary data structure, intended to contain user-defined parameters.",
          "receiver": "The receiver of the tokens in the loan, and the receiver of the callback.",
          "token": "The loan currency."
        }
      },
      "getAccountSnapshot(address)": {
        "details": "This is used by comptroller to more efficiently perform liquidity checks.",
        "params": {
          "account": "Address of the account to snapshot"
        },
        "return": "(possible error, token balance, borrow balance, exchange rate mantissa)"
      },
      "getCash()": {
        "return": "The quantity of underlying asset owned by this contract"
      },
      "initialize(address,address,address,uint256,string,string,uint8)": {
        "params": {
          "comptroller_": "The address of the Comptroller",
          "decimals_": "ERC-20 decimal precision of this token",
          "initialExchangeRateMantissa_": "The initial exchange rate, scaled by 1e18",
          "interestRateModel_": "The address of the interest rate model",
          "name_": "ERC-20 name of this token",
          "symbol_": "ERC-20 symbol of this token",
          "underlying_": "The address of the underlying asset"
        }
      },
      "initialize(address,address,uint256,string,string,uint8)": {
        "params": {
          "comptroller_": "The address of the Comptroller",
          "decimals_": "EIP-20 decimal precision of this token",
          "initialExchangeRateMantissa_": "The initial exchange rate, scaled by 1e18",
          "interestRateModel_": "The address of the interest rate model",
          "name_": "EIP-20 name of this token",
          "symbol_": "EIP-20 symbol of this token"
        }
      },
      "liquidateBorrow(address,uint256,address)": {
        "params": {
          "borrower": "The borrower of this cToken to be liquidated",
          "cTokenCollateral": "The market in which to seize collateral from the borrower",
          "repayAmount": "The amount of the underlying borrowed asset to repay"
        },
        "return": "uint 0=success, otherwise a failure (see ErrorReporter.sol for details)"
      },
      "maxFlashLoan(address)": {
        "details": "The amount of currency available to be lent.",
        "params": {
          "token": "The loan currency."
        },
        "return": "The amount of `token` that can be borrowed."
      },
      "mint(uint256)": {
        "details": "Accrues interest whether or not the operation succeeds, unless reverted",
        "params": {
          "mintAmount": "The amount of the underlying asset to supply"
        },
        "return": "uint 0=success, otherwise a failure (see ErrorReporter.sol for details)"
      },
      "redeem(uint256)": {
        "details": "Accrues interest whether or not the operation succeeds, unless reverted",
        "params": {
          "redeemTokens": "The number of cTokens to redeem into underlying"
        },
        "return": "uint 0=success, otherwise a failure (see ErrorReporter.sol for details)"
      },
      "redeemUnderlying(uint256)": {
        "details": "Accrues interest whether or not the operation succeeds, unless reverted",
        "params": {
          "redeemAmount": "The amount of underlying to redeem"
        },
        "return": "uint 0=success, otherwise a failure (see ErrorReporter.sol for details)"
      },
      "repayBorrow(uint256)": {
        "params": {
          "repayAmount": "The amount to repay"
        },
        "return": "uint 0=success, otherwise a failure (see ErrorReporter.sol for details)"
      },
      "repayBorrowBehalf(address,uint256)": {
        "params": {
          "borrower": "the account with the debt being payed off",
          "repayAmount": "The amount to repay"
        },
        "return": "uint 0=success, otherwise a failure (see ErrorReporter.sol for details)"
      },
      "seize(address,address,uint256)": {
        "details": "Will fail unless called by another cToken during the process of liquidation. Its absolutely critical to use msg.sender as the borrowed cToken and not a parameter.",
        "params": {
          "borrower": "The account having collateral seized",
          "liquidator": "The account receiving seized collateral",
          "seizeTokens": "The number of cTokens to seize"
        },
        "return": "uint 0=success, otherwise a failure (see ErrorReporter.sol for details)"
      },
      "supplyRatePerBlock()": {
        "return": "The supply interest rate per block, scaled by 1e18"
      },
      "totalBorrowsCurrent()": {
        "return": "The total borrows with interest"
      },
      "transfer(address,uint256)": {
        "params": {
          "amount": "The number of tokens to transfer",
          "dst": "The address of the destination account"
        },
        "return": "Whether or not the transfer succeeded"
      },
      "transferFrom(address,address,uint256)": {
        "params": {
          "amount": "The number of tokens to transfer",
          "dst": "The address of the destination account",
          "src": "The address of the source account"
        },
        "return": "Whether or not the transfer succeeded"
      }
    },
    "title": "Compound's CErc20Delegate Contract"
  },
  "userdoc": {
    "methods": {
      "_acceptAdmin()": {
        "notice": "Accepts transfer of admin rights. msg.sender must be pendingAdmin"
      },
      "_addReserves(uint256)": {
        "notice": "The sender adds to reserves."
      },
      "_becomeImplementation(bytes)": {
        "notice": "Called by the delegator on a delegate to initialize it for duty"
      },
      "_reduceReserves(uint256)": {
        "notice": "Accrues interest and reduces reserves by transferring to admin"
      },
      "_resignImplementation()": {
        "notice": "Called by the delegator on a delegate to forfeit its responsibility"
      },
      "_setComptroller(address)": {
        "notice": "Sets a new comptroller for the market"
      },
      "_setInterestRateModel(address)": {
        "notice": "accrues interest and updates the interest rate model using _setInterestRateModelFresh"
      },
      "_setPendingAdmin(address)": {
        "notice": "Begins transfer of admin rights. The newPendingAdmin must call `_acceptAdmin` to finalize the transfer."
      },
      "_setReserveFactor(uint256)": {
        "notice": "accrues interest and sets a new reserve factor for the protocol using _setReserveFactorFresh"
      },
      "accrueInterest()": {
        "notice": "Applies accrued interest to total borrows and reserves"
      },
      "allowance(address,address)": {
        "notice": "Get the current allowance from `owner` for `spender`"
      },
      "approve(address,uint256)": {
        "notice": "Approve `spender` to transfer up to `amount` from `src`"
      },
      "balanceOf(address)": {
        "notice": "Get the token balance of the `owner`"
      },
      "balanceOfUnderlying(address)": {
        "notice": "Get the underlying balance of the `owner`"
      },
      "borrow(uint256)": {
        "notice": "Sender borrows assets from the protocol to their own address"
      },
      "borrowBalanceCurrent(address)": {
        "notice": "Accrue interest to updated borrowIndex and then calculate account's borrow balance using the updated borrowIndex"
      },
      "borrowBalanceStored(address)": {
        "notice": "Return the borrow balance of account based on stored data"
      },
      "borrowRatePerBlock()": {
        "notice": "Returns the current per-block borrow interest rate for this cToken"
      },
      "constructor": "Construct an empty delegate",
      "exchangeRateCurrent()": {
        "notice": "Accrue interest then return the up-to-date exchange rate"
      },
      "exchangeRateStored()": {
        "notice": "Calculates the exchange rate from the underlying to the CToken"
      },
      "getAccountSnapshot(address)": {
        "notice": "Get a snapshot of the account's balances, and the cached exchange rate"
      },
      "getCash()": {
        "notice": "Get cash balance of this cToken in the underlying asset"
      },
      "initialize(address,address,address,uint256,string,string,uint8)": {
        "notice": "Initialize the new money market"
      },
      "initialize(address,address,uint256,string,string,uint8)": {
        "notice": "Initialize the money market"
      },
      "liquidateBorrow(address,uint256,address)": {
        "notice": "The sender liquidates the borrowers collateral. The collateral seized is transferred to the liquidator."
      },
      "mint(uint256)": {
        "notice": "Sender supplies assets into the market and receives cTokens in exchange"
      },
      "redeem(uint256)": {
        "notice": "Sender redeems cTokens in exchange for the underlying asset"
      },
      "redeemUnderlying(uint256)": {
        "notice": "Sender redeems cTokens in exchange for a specified amount of underlying asset"
      },
      "repayBorrow(uint256)": {
        "notice": "Sender repays their own borrow"
      },
      "repayBorrowBehalf(address,uint256)": {
        "notice": "Sender repays a borrow belonging to borrower"
      },
      "seize(address,address,uint256)": {
        "notice": "Transfers collateral tokens (this market) to the liquidator."
      },
      "supplyRatePerBlock()": {
        "notice": "Returns the current per-block supply interest rate for this cToken"
      },
      "totalBorrowsCurrent()": {
        "notice": "Returns the current total borrows plus accrued interest"
      },
      "transfer(address,uint256)": {
        "notice": "Transfer `amount` tokens from `msg.sender` to `dst`"
      },
      "transferFrom(address,address,uint256)": {
        "notice": "Transfer `amount` tokens from `src` to `dst`"
      }
    },
    "notice": "CTokens which wrap an EIP-20 underlying and are delegated to"
  }
}