{
  "contractName": "CErc20Delegate",
  "abi": [
    {
      "inputs": [],
      "payable": false,
      "stateMutability": "nonpayable",
      "type": "constructor"
    },
    {
      "anonymous": false,
      "inputs": [
        {
          "indexed": false,
          "internalType": "uint256",
          "name": "cashPrior",
          "type": "uint256"
        },
        {
          "indexed": false,
          "internalType": "uint256",
          "name": "interestAccumulated",
          "type": "uint256"
        },
        {
          "indexed": false,
          "internalType": "uint256",
          "name": "borrowIndex",
          "type": "uint256"
        },
        {
          "indexed": false,
          "internalType": "uint256",
          "name": "totalBorrows",
          "type": "uint256"
        }
      ],
      "name": "AccrueInterest",
      "type": "event"
    },
    {
      "anonymous": false,
      "inputs": [
        {
          "indexed": true,
          "internalType": "address",
          "name": "owner",
          "type": "address"
        },
        {
          "indexed": true,
          "internalType": "address",
          "name": "spender",
          "type": "address"
        },
        {
          "indexed": false,
          "internalType": "uint256",
          "name": "amount",
          "type": "uint256"
        }
      ],
      "name": "Approval",
      "type": "event"
    },
    {
      "anonymous": false,
      "inputs": [
        {
          "indexed": false,
          "internalType": "address",
          "name": "borrower",
          "type": "address"
        },
        {
          "indexed": false,
          "internalType": "uint256",
          "name": "borrowAmount",
          "type": "uint256"
        },
        {
          "indexed": false,
          "internalType": "uint256",
          "name": "accountBorrows",
          "type": "uint256"
        },
        {
          "indexed": false,
          "internalType": "uint256",
          "name": "totalBorrows",
          "type": "uint256"
        }
      ],
      "name": "Borrow",
      "type": "event"
    },
    {
      "anonymous": false,
      "inputs": [
        {
          "indexed": false,
          "internalType": "uint256",
          "name": "error",
          "type": "uint256"
        },
        {
          "indexed": false,
          "internalType": "uint256",
          "name": "info",
          "type": "uint256"
        },
        {
          "indexed": false,
          "internalType": "uint256",
          "name": "detail",
          "type": "uint256"
        }
      ],
      "name": "Failure",
      "type": "event"
    },
    {
      "anonymous": false,
      "inputs": [
        {
          "indexed": false,
          "internalType": "address",
          "name": "liquidator",
          "type": "address"
        },
        {
          "indexed": false,
          "internalType": "address",
          "name": "borrower",
          "type": "address"
        },
        {
          "indexed": false,
          "internalType": "uint256",
          "name": "repayAmount",
          "type": "uint256"
        },
        {
          "indexed": false,
          "internalType": "address",
          "name": "cTokenCollateral",
          "type": "address"
        },
        {
          "indexed": false,
          "internalType": "uint256",
          "name": "seizeTokens",
          "type": "uint256"
        }
      ],
      "name": "LiquidateBorrow",
      "type": "event"
    },
    {
      "anonymous": false,
      "inputs": [
        {
          "indexed": false,
          "internalType": "address",
          "name": "minter",
          "type": "address"
        },
        {
          "indexed": false,
          "internalType": "uint256",
          "name": "mintAmount",
          "type": "uint256"
        },
        {
          "indexed": false,
          "internalType": "uint256",
          "name": "mintTokens",
          "type": "uint256"
        }
      ],
      "name": "Mint",
      "type": "event"
    },
    {
      "anonymous": false,
      "inputs": [
        {
          "indexed": false,
          "internalType": "address",
          "name": "oldAdmin",
          "type": "address"
        },
        {
          "indexed": false,
          "internalType": "address",
          "name": "newAdmin",
          "type": "address"
        }
      ],
      "name": "NewAdmin",
      "type": "event"
    },
    {
      "anonymous": false,
      "inputs": [
        {
          "indexed": false,
          "internalType": "contract ComptrollerInterface",
          "name": "oldComptroller",
          "type": "address"
        },
        {
          "indexed": false,
          "internalType": "contract ComptrollerInterface",
          "name": "newComptroller",
          "type": "address"
        }
      ],
      "name": "NewComptroller",
      "type": "event"
    },
    {
      "anonymous": false,
      "inputs": [
        {
          "indexed": false,
          "internalType": "contract InterestRateModel",
          "name": "oldInterestRateModel",
          "type": "address"
        },
        {
          "indexed": false,
          "internalType": "contract InterestRateModel",
          "name": "newInterestRateModel",
          "type": "address"
        }
      ],
      "name": "NewMarketInterestRateModel",
      "type": "event"
    },
    {
      "anonymous": false,
      "inputs": [
        {
          "indexed": false,
          "internalType": "address",
          "name": "oldPendingAdmin",
          "type": "address"
        },
        {
          "indexed": false,
          "internalType": "address",
          "name": "newPendingAdmin",
          "type": "address"
        }
      ],
      "name": "NewPendingAdmin",
      "type": "event"
    },
    {
      "anonymous": false,
      "inputs": [
        {
          "indexed": false,
          "internalType": "uint256",
          "name": "oldReserveFactorMantissa",
          "type": "uint256"
        },
        {
          "indexed": false,
          "internalType": "uint256",
          "name": "newReserveFactorMantissa",
          "type": "uint256"
        }
      ],
      "name": "NewReserveFactor",
      "type": "event"
    },
    {
      "anonymous": false,
      "inputs": [
        {
          "indexed": false,
          "internalType": "address",
          "name": "redeemer",
          "type": "address"
        },
        {
          "indexed": false,
          "internalType": "uint256",
          "name": "redeemAmount",
          "type": "uint256"
        },
        {
          "indexed": false,
          "internalType": "uint256",
          "name": "redeemTokens",
          "type": "uint256"
        }
      ],
      "name": "Redeem",
      "type": "event"
    },
    {
      "anonymous": false,
      "inputs": [
        {
          "indexed": false,
          "internalType": "address",
          "name": "payer",
          "type": "address"
        },
        {
          "indexed": false,
          "internalType": "address",
          "name": "borrower",
          "type": "address"
        },
        {
          "indexed": false,
          "internalType": "uint256",
          "name": "repayAmount",
          "type": "uint256"
        },
        {
          "indexed": false,
          "internalType": "uint256",
          "name": "accountBorrows",
          "type": "uint256"
        },
        {
          "indexed": false,
          "internalType": "uint256",
          "name": "totalBorrows",
          "type": "uint256"
        }
      ],
      "name": "RepayBorrow",
      "type": "event"
    },
    {
      "anonymous": false,
      "inputs": [
        {
          "indexed": false,
          "internalType": "address",
          "name": "benefactor",
          "type": "address"
        },
        {
          "indexed": false,
          "internalType": "uint256",
          "name": "addAmount",
          "type": "uint256"
        },
        {
          "indexed": false,
          "internalType": "uint256",
          "name": "newTotalReserves",
          "type": "uint256"
        }
      ],
      "name": "ReservesAdded",
      "type": "event"
    },
    {
      "anonymous": false,
      "inputs": [
        {
          "indexed": false,
          "internalType": "address",
          "name": "admin",
          "type": "address"
        },
        {
          "indexed": false,
          "internalType": "uint256",
          "name": "reduceAmount",
          "type": "uint256"
        },
        {
          "indexed": false,
          "internalType": "uint256",
          "name": "newTotalReserves",
          "type": "uint256"
        }
      ],
      "name": "ReservesReduced",
      "type": "event"
    },
    {
      "anonymous": false,
      "inputs": [
        {
          "indexed": true,
          "internalType": "address",
          "name": "from",
          "type": "address"
        },
        {
          "indexed": true,
          "internalType": "address",
          "name": "to",
          "type": "address"
        },
        {
          "indexed": false,
          "internalType": "uint256",
          "name": "amount",
          "type": "uint256"
        }
      ],
      "name": "Transfer",
      "type": "event"
    },
    {
      "constant": false,
      "inputs": [],
      "name": "_acceptAdmin",
      "outputs": [
        {
          "internalType": "uint256",
          "name": "",
          "type": "uint256"
        }
      ],
      "payable": false,
      "stateMutability": "nonpayable",
      "type": "function"
    },
    {
      "constant": false,
      "inputs": [
        {
          "internalType": "uint256",
          "name": "addAmount",
          "type": "uint256"
        }
      ],
      "name": "_addReserves",
      "outputs": [
        {
          "internalType": "uint256",
          "name": "",
          "type": "uint256"
        }
      ],
      "payable": false,
      "stateMutability": "nonpayable",
      "type": "function"
    },
    {
      "constant": false,
      "inputs": [
        {
          "internalType": "uint256",
          "name": "reduceAmount",
          "type": "uint256"
        }
      ],
      "name": "_reduceReserves",
      "outputs": [
        {
          "internalType": "uint256",
          "name": "",
          "type": "uint256"
        }
      ],
      "payable": false,
      "stateMutability": "nonpayable",
      "type": "function"
    },
    {
      "constant": false,
      "inputs": [
        {
          "internalType": "contract ComptrollerInterface",
          "name": "newComptroller",
          "type": "address"
        }
      ],
      "name": "_setComptroller",
      "outputs": [
        {
          "internalType": "uint256",
          "name": "",
          "type": "uint256"
        }
      ],
      "payable": false,
      "stateMutability": "nonpayable",
      "type": "function"
    },
    {
      "constant": false,
      "inputs": [
        {
          "internalType": "contract InterestRateModel",
          "name": "newInterestRateModel",
          "type": "address"
        }
      ],
      "name": "_setInterestRateModel",
      "outputs": [
        {
          "internalType": "uint256",
          "name": "",
          "type": "uint256"
        }
      ],
      "payable": false,
      "stateMutability": "nonpayable",
      "type": "function"
    },
    {
      "constant": false,
      "inputs": [
        {
          "internalType": "address payable",
          "name": "newPendingAdmin",
          "type": "address"
        }
      ],
      "name": "_setPendingAdmin",
      "outputs": [
        {
          "internalType": "uint256",
          "name": "",
          "type": "uint256"
        }
      ],
      "payable": false,
      "stateMutability": "nonpayable",
      "type": "function"
    },
    {
      "constant": false,
      "inputs": [
        {
          "internalType": "uint256",
          "name": "newReserveFactorMantissa",
          "type": "uint256"
        }
      ],
      "name": "_setReserveFactor",
      "outputs": [
        {
          "internalType": "uint256",
          "name": "",
          "type": "uint256"
        }
      ],
      "payable": false,
      "stateMutability": "nonpayable",
      "type": "function"
    },
    {
      "constant": true,
      "inputs": [],
      "name": "accrualBlockNumber",
      "outputs": [
        {
          "internalType": "uint256",
          "name": "",
          "type": "uint256"
        }
      ],
      "payable": false,
      "stateMutability": "view",
      "type": "function"
    },
    {
      "constant": false,
      "inputs": [],
      "name": "accrueInterest",
      "outputs": [
        {
          "internalType": "uint256",
          "name": "",
          "type": "uint256"
        }
      ],
      "payable": false,
      "stateMutability": "nonpayable",
      "type": "function"
    },
    {
      "constant": true,
      "inputs": [],
      "name": "admin",
      "outputs": [
        {
          "internalType": "address payable",
          "name": "",
          "type": "address"
        }
      ],
      "payable": false,
      "stateMutability": "view",
      "type": "function"
    },
    {
      "constant": true,
      "inputs": [
        {
          "internalType": "address",
          "name": "owner",
          "type": "address"
        },
        {
          "internalType": "address",
          "name": "spender",
          "type": "address"
        }
      ],
      "name": "allowance",
      "outputs": [
        {
          "internalType": "uint256",
          "name": "",
          "type": "uint256"
        }
      ],
      "payable": false,
      "stateMutability": "view",
      "type": "function"
    },
    {
      "constant": false,
      "inputs": [
        {
          "internalType": "address",
          "name": "spender",
          "type": "address"
        },
        {
          "internalType": "uint256",
          "name": "amount",
          "type": "uint256"
        }
      ],
      "name": "approve",
      "outputs": [
        {
          "internalType": "bool",
          "name": "",
          "type": "bool"
        }
      ],
      "payable": false,
      "stateMutability": "nonpayable",
      "type": "function"
    },
    {
      "constant": true,
      "inputs": [
        {
          "internalType": "address",
          "name": "owner",
          "type": "address"
        }
      ],
      "name": "balanceOf",
      "outputs": [
        {
          "internalType": "uint256",
          "name": "",
          "type": "uint256"
        }
      ],
      "payable": false,
      "stateMutability": "view",
      "type": "function"
    },
    {
      "constant": false,
      "inputs": [
        {
          "internalType": "address",
          "name": "owner",
          "type": "address"
        }
      ],
      "name": "balanceOfUnderlying",
      "outputs": [
        {
          "internalType": "uint256",
          "name": "",
          "type": "uint256"
        }
      ],
      "payable": false,
      "stateMutability": "nonpayable",
      "type": "function"
    },
    {
      "constant": false,
      "inputs": [
        {
          "internalType": "uint256",
          "name": "borrowAmount",
          "type": "uint256"
        }
      ],
      "name": "borrow",
      "outputs": [
        {
          "internalType": "uint256",
          "name": "",
          "type": "uint256"
        }
      ],
      "payable": false,
      "stateMutability": "nonpayable",
      "type": "function"
    },
    {
      "constant": false,
      "inputs": [
        {
          "internalType": "address",
          "name": "account",
          "type": "address"
        }
      ],
      "name": "borrowBalanceCurrent",
      "outputs": [
        {
          "internalType": "uint256",
          "name": "",
          "type": "uint256"
        }
      ],
      "payable": false,
      "stateMutability": "nonpayable",
      "type": "function"
    },
    {
      "constant": true,
      "inputs": [
        {
          "internalType": "address",
          "name": "account",
          "type": "address"
        }
      ],
      "name": "borrowBalanceStored",
      "outputs": [
        {
          "internalType": "uint256",
          "name": "",
          "type": "uint256"
        }
      ],
      "payable": false,
      "stateMutability": "view",
      "type": "function"
    },
    {
      "constant": true,
      "inputs": [],
      "name": "borrowIndex",
      "outputs": [
        {
          "internalType": "uint256",
          "name": "",
          "type": "uint256"
        }
      ],
      "payable": false,
      "stateMutability": "view",
      "type": "function"
    },
    {
      "constant": true,
      "inputs": [],
      "name": "borrowRatePerBlock",
      "outputs": [
        {
          "internalType": "uint256",
          "name": "",
          "type": "uint256"
        }
      ],
      "payable": false,
      "stateMutability": "view",
      "type": "function"
    },
    {
      "constant": true,
      "inputs": [],
      "name": "comptroller",
      "outputs": [
        {
          "internalType": "contract ComptrollerInterface",
          "name": "",
          "type": "address"
        }
      ],
      "payable": false,
      "stateMutability": "view",
      "type": "function"
    },
    {
      "constant": true,
      "inputs": [],
      "name": "decimals",
      "outputs": [
        {
          "internalType": "uint8",
          "name": "",
          "type": "uint8"
        }
      ],
      "payable": false,
      "stateMutability": "view",
      "type": "function"
    },
    {
      "constant": false,
      "inputs": [],
      "name": "exchangeRateCurrent",
      "outputs": [
        {
          "internalType": "uint256",
          "name": "",
          "type": "uint256"
        }
      ],
      "payable": false,
      "stateMutability": "nonpayable",
      "type": "function"
    },
    {
      "constant": true,
      "inputs": [],
      "name": "exchangeRateStored",
      "outputs": [
        {
          "internalType": "uint256",
          "name": "",
          "type": "uint256"
        }
      ],
      "payable": false,
      "stateMutability": "view",
      "type": "function"
    },
    {
      "constant": true,
      "inputs": [
        {
          "internalType": "address",
          "name": "token",
          "type": "address"
        },
        {
          "internalType": "uint256",
          "name": "amount",
          "type": "uint256"
        }
      ],
      "name": "flashFee",
      "outputs": [
        {
          "internalType": "uint256",
          "name": "",
          "type": "uint256"
        }
      ],
      "payable": false,
      "stateMutability": "view",
      "type": "function"
    },
    {
      "constant": false,
      "inputs": [
        {
          "internalType": "contract IERC3156FlashBorrower",
          "name": "receiver",
          "type": "address"
        },
        {
          "internalType": "address",
          "name": "token",
          "type": "address"
        },
        {
          "internalType": "uint256",
          "name": "amount",
          "type": "uint256"
        },
        {
          "internalType": "bytes",
          "name": "data",
          "type": "bytes"
        }
      ],
      "name": "flashLoan",
      "outputs": [
        {
          "internalType": "bool",
          "name": "",
          "type": "bool"
        }
      ],
      "payable": false,
      "stateMutability": "nonpayable",
      "type": "function"
    },
    {
      "constant": true,
      "inputs": [
        {
          "internalType": "address",
          "name": "account",
          "type": "address"
        }
      ],
      "name": "getAccountSnapshot",
      "outputs": [
        {
          "internalType": "uint256",
          "name": "",
          "type": "uint256"
        },
        {
          "internalType": "uint256",
          "name": "",
          "type": "uint256"
        },
        {
          "internalType": "uint256",
          "name": "",
          "type": "uint256"
        },
        {
          "internalType": "uint256",
          "name": "",
          "type": "uint256"
        }
      ],
      "payable": false,
      "stateMutability": "view",
      "type": "function"
    },
    {
      "constant": true,
      "inputs": [],
      "name": "getCash",
      "outputs": [
        {
          "internalType": "uint256",
          "name": "",
          "type": "uint256"
        }
      ],
      "payable": false,
      "stateMutability": "view",
      "type": "function"
    },
    {
      "constant": true,
      "inputs": [],
      "name": "implementation",
      "outputs": [
        {
          "internalType": "address",
          "name": "",
          "type": "address"
        }
      ],
      "payable": false,
      "stateMutability": "view",
      "type": "function"
    },
    {
      "constant": false,
      "inputs": [
        {
          "internalType": "address",
          "name": "underlying_",
          "type": "address"
        },
        {
          "internalType": "contract ComptrollerInterface",
          "name": "comptroller_",
          "type": "address"
        },
        {
          "internalType": "contract InterestRateModel",
          "name": "interestRateModel_",
          "type": "address"
        },
        {
          "internalType": "uint256",
          "name": "initialExchangeRateMantissa_",
          "type": "uint256"
        },
        {
          "internalType": "string",
          "name": "name_",
          "type": "string"
        },
        {
          "internalType": "string",
          "name": "symbol_",
          "type": "string"
        },
        {
          "internalType": "uint8",
          "name": "decimals_",
          "type": "uint8"
        }
      ],
      "name": "initialize",
      "outputs": [],
      "payable": false,
      "stateMutability": "nonpayable",
      "type": "function"
    },
    {
      "constant": false,
      "inputs": [
        {
          "internalType": "contract ComptrollerInterface",
          "name": "comptroller_",
          "type": "address"
        },
        {
          "internalType": "contract InterestRateModel",
          "name": "interestRateModel_",
          "type": "address"
        },
        {
          "internalType": "uint256",
          "name": "initialExchangeRateMantissa_",
          "type": "uint256"
        },
        {
          "internalType": "string",
          "name": "name_",
          "type": "string"
        },
        {
          "internalType": "string",
          "name": "symbol_",
          "type": "string"
        },
        {
          "internalType": "uint8",
          "name": "decimals_",
          "type": "uint8"
        }
      ],
      "name": "initialize",
      "outputs": [],
      "payable": false,
      "stateMutability": "nonpayable",
      "type": "function"
    },
    {
      "constant": true,
      "inputs": [],
      "name": "interestRateModel",
      "outputs": [
        {
          "internalType": "contract InterestRateModel",
          "name": "",
          "type": "address"
        }
      ],
      "payable": false,
      "stateMutability": "view",
      "type": "function"
    },
    {
      "constant": true,
      "inputs": [],
      "name": "isCToken",
      "outputs": [
        {
          "internalType": "bool",
          "name": "",
          "type": "bool"
        }
      ],
      "payable": false,
      "stateMutability": "view",
      "type": "function"
    },
    {
      "constant": true,
      "inputs": [],
      "name": "isNativeToken",
      "outputs": [
        {
          "internalType": "bool",
          "name": "",
          "type": "bool"
        }
      ],
      "payable": false,
      "stateMutability": "pure",
      "type": "function"
    },
    {
      "constant": false,
      "inputs": [
        {
          "internalType": "address",
          "name": "borrower",
          "type": "address"
        },
        {
          "internalType": "uint256",
          "name": "repayAmount",
          "type": "uint256"
        },
        {
          "internalType": "contract CTokenInterface",
          "name": "cTokenCollateral",
          "type": "address"
        }
      ],
      "name": "liquidateBorrow",
      "outputs": [
        {
          "internalType": "uint256",
          "name": "",
          "type": "uint256"
        }
      ],
      "payable": false,
      "stateMutability": "nonpayable",
      "type": "function"
    },
    {
      "constant": true,
      "inputs": [
        {
          "internalType": "address",
          "name": "token",
          "type": "address"
        }
      ],
      "name": "maxFlashLoan",
      "outputs": [
        {
          "internalType": "uint256",
          "name": "",
          "type": "uint256"
        }
      ],
      "payable": false,
      "stateMutability": "view",
      "type": "function"
    },
    {
      "constant": false,
      "inputs": [
        {
          "internalType": "uint256",
          "name": "mintAmount",
          "type": "uint256"
        }
      ],
      "name": "mint",
      "outputs": [
        {
          "internalType": "uint256",
          "name": "",
          "type": "uint256"
        }
      ],
      "payable": false,
      "stateMutability": "nonpayable",
      "type": "function"
    },
    {
      "constant": true,
      "inputs": [],
      "name": "name",
      "outputs": [
        {
          "internalType": "string",
          "name": "",
          "type": "string"
        }
      ],
      "payable": false,
      "stateMutability": "view",
      "type": "function"
    },
    {
      "constant": true,
      "inputs": [],
      "name": "pendingAdmin",
      "outputs": [
        {
          "internalType": "address payable",
          "name": "",
          "type": "address"
        }
      ],
      "payable": false,
      "stateMutability": "view",
      "type": "function"
    },
    {
      "constant": false,
      "inputs": [
        {
          "internalType": "uint256",
          "name": "redeemTokens",
          "type": "uint256"
        }
      ],
      "name": "redeem",
      "outputs": [
        {
          "internalType": "uint256",
          "name": "",
          "type": "uint256"
        }
      ],
      "payable": false,
      "stateMutability": "nonpayable",
      "type": "function"
    },
    {
      "constant": false,
      "inputs": [
        {
          "internalType": "uint256",
          "name": "redeemAmount",
          "type": "uint256"
        }
      ],
      "name": "redeemUnderlying",
      "outputs": [
        {
          "internalType": "uint256",
          "name": "",
          "type": "uint256"
        }
      ],
      "payable": false,
      "stateMutability": "nonpayable",
      "type": "function"
    },
    {
      "constant": false,
      "inputs": [
        {
          "internalType": "uint256",
          "name": "repayAmount",
          "type": "uint256"
        }
      ],
      "name": "repayBorrow",
      "outputs": [
        {
          "internalType": "uint256",
          "name": "",
          "type": "uint256"
        }
      ],
      "payable": false,
      "stateMutability": "nonpayable",
      "type": "function"
    },
    {
      "constant": false,
      "inputs": [
        {
          "internalType": "address",
          "name": "borrower",
          "type": "address"
        },
        {
          "internalType": "uint256",
          "name": "repayAmount",
          "type": "uint256"
        }
      ],
      "name": "repayBorrowBehalf",
      "outputs": [
        {
          "internalType": "uint256",
          "name": "",
          "type": "uint256"
        }
      ],
      "payable": false,
      "stateMutability": "nonpayable",
      "type": "function"
    },
    {
      "constant": true,
      "inputs": [],
      "name": "reserveFactorMantissa",
      "outputs": [
        {
          "internalType": "uint256",
          "name": "",
          "type": "uint256"
        }
      ],
      "payable": false,
      "stateMutability": "view",
      "type": "function"
    },
    {
      "constant": false,
      "inputs": [
        {
          "internalType": "address",
          "name": "liquidator",
          "type": "address"
        },
        {
          "internalType": "address",
          "name": "borrower",
          "type": "address"
        },
        {
          "internalType": "uint256",
          "name": "seizeTokens",
          "type": "uint256"
        }
      ],
      "name": "seize",
      "outputs": [
        {
          "internalType": "uint256",
          "name": "",
          "type": "uint256"
        }
      ],
      "payable": false,
      "stateMutability": "nonpayable",
      "type": "function"
    },
    {
      "constant": true,
      "inputs": [],
      "name": "supplyRatePerBlock",
      "outputs": [
        {
          "internalType": "uint256",
          "name": "",
          "type": "uint256"
        }
      ],
      "payable": false,
      "stateMutability": "view",
      "type": "function"
    },
    {
      "constant": true,
      "inputs": [],
      "name": "symbol",
      "outputs": [
        {
          "internalType": "string",
          "name": "",
          "type": "string"
        }
      ],
      "payable": false,
      "stateMutability": "view",
      "type": "function"
    },
    {
      "constant": true,
      "inputs": [],
      "name": "totalBorrows",
      "outputs": [
        {
          "internalType": "uint256",
          "name": "",
          "type": "uint256"
        }
      ],
      "payable": false,
      "stateMutability": "view",
      "type": "function"
    },
    {
      "constant": false,
      "inputs": [],
      "name": "totalBorrowsCurrent",
      "outputs": [
        {
          "internalType": "uint256",
          "name": "",
          "type": "uint256"
        }
      ],
      "payable": false,
      "stateMutability": "nonpayable",
      "type": "function"
    },
    {
      "constant": true,
      "inputs": [],
      "name": "totalReserves",
      "outputs": [
        {
          "internalType": "uint256",
          "name": "",
          "type": "uint256"
        }
      ],
      "payable": false,
      "stateMutability": "view",
      "type": "function"
    },
    {
      "constant": true,
      "inputs": [],
      "name": "totalSupply",
      "outputs": [
        {
          "internalType": "uint256",
          "name": "",
          "type": "uint256"
        }
      ],
      "payable": false,
      "stateMutability": "view",
      "type": "function"
    },
    {
      "constant": false,
      "inputs": [
        {
          "internalType": "address",
          "name": "dst",
          "type": "address"
        },
        {
          "internalType": "uint256",
          "name": "amount",
          "type": "uint256"
        }
      ],
      "name": "transfer",
      "outputs": [
        {
          "internalType": "bool",
          "name": "",
          "type": "bool"
        }
      ],
      "payable": false,
      "stateMutability": "nonpayable",
      "type": "function"
    },
    {
      "constant": false,
      "inputs": [
        {
          "internalType": "address",
          "name": "src",
          "type": "address"
        },
        {
          "internalType": "address",
          "name": "dst",
          "type": "address"
        },
        {
          "internalType": "uint256",
          "name": "amount",
          "type": "uint256"
        }
      ],
      "name": "transferFrom",
      "outputs": [
        {
          "internalType": "bool",
          "name": "",
          "type": "bool"
        }
      ],
      "payable": false,
      "stateMutability": "nonpayable",
      "type": "function"
    },
    {
      "constant": true,
      "inputs": [],
      "name": "underlying",
      "outputs": [
        {
          "internalType": "address",
          "name": "",
          "type": "address"
        }
      ],
      "payable": false,
      "stateMutability": "view",
      "type": "function"
    },
    {
      "constant": false,
      "inputs": [
        {
          "internalType": "bytes",
          "name": "data",
          "type": "bytes"
        }
      ],
      "name": "_becomeImplementation",
      "outputs": [],
      "payable": false,
      "stateMutability": "nonpayable",
      "type": "function"
    },
    {
      "constant": false,
      "inputs": [],
      "name": "_resignImplementation",
      "outputs": [],
      "payable": false,
      "stateMutability": "nonpayable",
      "type": "function"
    }
  ],
  "bytecode": "0x608060405234801561001057600080fd5b506156e8806100206000396000f3fe608060405234801561001057600080fd5b506004361061028d5760003560e01c806373acee981161016357806373acee98146107f4578063852a12e3146107fc5780638f840ddd1461081957806395d89b411461082157806395dd91931461082957806399d8c1b41461084f5780639af4ee7e1461099d578063a0712d68146109a5578063a6afed95146109c2578063a9059cbb146109ca578063aa5af0fd146109f6578063ae9d70b0146109fe578063b2a02ff114610a06578063b71d1a0c14610a3c578063bd6d894d14610a62578063c37f68e214610a6a578063c5ebeaec14610ab6578063d9d98ce414610ad3578063db006a7514610aff578063dd62ed3e14610b1c578063e9c714f214610b4a578063f2b3abbd14610b52578063f3fdb15a14610b78578063f5e3c46214610b80578063f851a44014610bb6578063f8f9da2814610bbe578063fca7820b14610bc6578063fe9c44ae14610be35761028d565b806306fdde0314610292578063095ea7b31461030f5780630e7527021461034f578063153ab5051461037e578063173b99041461038857806317bfdfbc1461039057806318160ddd146103b6578063182df0f5146103be5780631a31d465146103c657806323b872dd1461051c5780632608f81814610552578063267822471461057e578063313ce567146105a25780633af9e669146105c05780633b1d21a2146105e65780633e941010146105ee5780634576b5db1461060b57806347bd37181461063157806356e67728146106395780635c60da1b146106dd5780635cffe9de146106e55780635fe3b56714610773578063601a0bf11461077b578063613255ab146107985780636c540baf146107be5780636f307dc3146107c657806370a08231146107ce575b600080fd5b61029a610beb565b6040805160208082528351818301528351919283929083019185019080838360005b838110156102d45781810151838201526020016102bc565b50505050905090810190601f1680156103015780820380516001836020036101000a031916815260200191505b509250505060405180910390f35b61033b6004803603604081101561032557600080fd5b506001600160a01b038135169060200135610c78565b604080519115158252519081900360200190f35b61036c6004803603602081101561036557600080fd5b5035610ce5565b60408051918252519081900360200190f35b610386610cfb565b005b61036c610d4b565b61036c600480360360208110156103a657600080fd5b50356001600160a01b0316610d51565b61036c610e11565b61036c610e17565b610386600480360360e08110156103dc57600080fd5b6001600160a01b03823581169260208101358216926040820135909216916060820135919081019060a081016080820135600160201b81111561041e57600080fd5b82018360208201111561043057600080fd5b803590602001918460018302840111600160201b8311171561045157600080fd5b91908080601f0160208091040260200160405190810160405280939291908181526020018383808284376000920191909152509295949360208101935035915050600160201b8111156104a357600080fd5b8201836020820111156104b557600080fd5b803590602001918460018302840111600160201b831117156104d657600080fd5b91908080601f0160208091040260200160405190810160405280939291908181526020018383808284376000920191909152509295505050903560ff169150610e7a9050565b61033b6004803603606081101561053257600080fd5b506001600160a01b03813581169160208101359091169060400135610f19565b61036c6004803603604081101561056857600080fd5b506001600160a01b038135169060200135610f8b565b610586610fa1565b604080516001600160a01b039092168252519081900360200190f35b6105aa610fb0565b6040805160ff9092168252519081900360200190f35b61036c600480360360208110156105d657600080fd5b50356001600160a01b0316610fb9565b61036c61106f565b61036c6004803603602081101561060457600080fd5b503561107e565b61036c6004803603602081101561062157600080fd5b50356001600160a01b0316611089565b61036c6111dd565b6103866004803603602081101561064f57600080fd5b810190602081018135600160201b81111561066957600080fd5b82018360208201111561067b57600080fd5b803590602001918460018302840111600160201b8311171561069c57600080fd5b91908080601f0160208091040260200160405190810160405280939291908181526020018383808284376000920191909152509295506111e3945050505050565b610586611234565b61033b600480360360808110156106fb57600080fd5b6001600160a01b03823581169260208101359091169160408201359190810190608081016060820135600160201b81111561073557600080fd5b82018360208201111561074757600080fd5b803590602001918460018302840111600160201b8311171561076857600080fd5b509092509050611243565b6105866114df565b61036c6004803603602081101561079157600080fd5b50356114ee565b61036c600480360360208110156107ae57600080fd5b50356001600160a01b0316611589565b61036c611606565b61058661160c565b61036c600480360360208110156107e457600080fd5b50356001600160a01b031661161b565b61036c611636565b61036c6004803603602081101561081257600080fd5b50356116ec565b61036c6116f7565b61029a6116fd565b61036c6004803603602081101561083f57600080fd5b50356001600160a01b0316611755565b610386600480360360c081101561086557600080fd5b6001600160a01b03823581169260208101359091169160408201359190810190608081016060820135600160201b81111561089f57600080fd5b8201836020820111156108b157600080fd5b803590602001918460018302840111600160201b831117156108d257600080fd5b91908080601f0160208091040260200160405190810160405280939291908181526020018383808284376000920191909152509295949360208101935035915050600160201b81111561092457600080fd5b82018360208201111561093657600080fd5b803590602001918460018302840111600160201b8311171561095757600080fd5b91908080601f0160208091040260200160405190810160405280939291908181526020018383808284376000920191909152509295505050903560ff1691506117b29050565b61033b611996565b61036c600480360360208110156109bb57600080fd5b503561199b565b61036c6119a7565b61033b600480360360408110156109e057600080fd5b506001600160a01b038135169060200135611cfe565b61036c611d6f565b61036c611d75565b61036c60048036036060811015610a1c57600080fd5b506001600160a01b03813581169160208101359091169060400135611e14565b61036c60048036036020811015610a5257600080fd5b50356001600160a01b0316611e85565b61036c611f11565b610a9060048036036020811015610a8057600080fd5b50356001600160a01b0316611fcd565b604080519485526020850193909352838301919091526060830152519081900360800190f35b61036c60048036036020811015610acc57600080fd5b5035612062565b61036c60048036036040811015610ae957600080fd5b506001600160a01b03813516906020013561206d565b61036c60048036036020811015610b1557600080fd5b5035612079565b61036c60048036036040811015610b3257600080fd5b506001600160a01b0381358116916020013516612084565b61036c6120af565b61036c60048036036020811015610b6857600080fd5b50356001600160a01b03166121b2565b6105866121ec565b61036c60048036036060811015610b9657600080fd5b506001600160a01b038135811691602081013591604090910135166121fb565b610586612213565b61036c612227565b61036c60048036036020811015610bdc57600080fd5b503561228b565b61033b612309565b60018054604080516020600284861615610100026000190190941693909304601f81018490048402820184019092528181529291830182828015610c705780601f10610c4557610100808354040283529160200191610c70565b820191906000526020600020905b815481529060010190602001808311610c5357829003601f168201915b505050505081565b336000818152600f602090815260408083206001600160a01b03871680855290835281842086905581518681529151939493909284927f8c5be1e5ebec7d5bd14f71427d1e84f3dd0314c0f7b2291e5b200ac8c7c3b925929081900390910190a360019150505b92915050565b600080610cf18361230e565b509150505b919050565b60035461010090046001600160a01b03163314610d495760405162461bcd60e51b815260040180806020018281038252602d815260200180615485602d913960400191505060405180910390fd5b565b60085481565b6000805460ff16610d96576040805162461bcd60e51b815260206004820152600a6024820152691c994b595b9d195c995960b21b604482015290519081900360640190fd5b6000805460ff19168155610da86119a7565b14610df3576040805162461bcd60e51b81526020600482015260166024820152751858d8dc9d59481a5b9d195c995cdd0819985a5b195960521b604482015290519081900360640190fd5b610dfc82611755565b90505b6000805460ff19166001179055919050565b600d5481565b6000806000610e246123b7565b90925090506000826003811115610e3757fe5b14610e735760405162461bcd60e51b81526004018080602001828103825260358152602001806155d26035913960400191505060405180910390fd5b9150505b90565b610e888686868686866117b2565b601180546001600160a01b0319166001600160a01b038981169190911791829055604080516318160ddd60e01b8152905192909116916318160ddd91600480820192602092909190829003018186803b158015610ee457600080fd5b505afa158015610ef8573d6000803e3d6000fd5b505050506040513d6020811015610f0e57600080fd5b505050505050505050565b6000805460ff16610f5e576040805162461bcd60e51b815260206004820152600a6024820152691c994b595b9d195c995960b21b604482015290519081900360640190fd5b6000805460ff19168155610f7433868686612466565b1490506000805460ff191660011790559392505050565b600080610f9884846126f3565b50949350505050565b6004546001600160a01b031681565b60035460ff1681565b6000610fc361523c565b6040518060200160405280610fd6611f11565b90526001600160a01b0384166000908152600e602052604081205491925090819061100290849061279e565b9092509050600082600381111561101557fe5b14611067576040805162461bcd60e51b815260206004820152601f60248201527f62616c616e636520636f756c64206e6f742062652063616c63756c6174656400604482015290519081900360640190fd5b949350505050565b60006110796127f2565b905090565b6000610cdf82612872565b60035460009061010090046001600160a01b031633146110b6576110af6001603f612906565b9050610cf6565b60055460408051623f1ee960e11b815290516001600160a01b0392831692851691627e3dd2916004808301926020929190829003018186803b1580156110fb57600080fd5b505afa15801561110f573d6000803e3d6000fd5b505050506040513d602081101561112557600080fd5b5051611177576040805162461bcd60e51b815260206004820152601c60248201527b6d61726b6572206d6574686f642072657475726e65642066616c736560201b604482015290519081900360640190fd5b600580546001600160a01b0319166001600160a01b03858116918217909255604080519284168352602083019190915280517f7ac369dbd14fa5ea3f473ed67cc9d598964a77501540ba6751eb0b3decf5870d9281900390910190a160005b9392505050565b600b5481565b60035461010090046001600160a01b031633146112315760405162461bcd60e51b815260040180806020018281038252602d815260200180615687602d913960400191505060405180910390fd5b50565b6012546001600160a01b031681565b60008061124e6119a7565b14611299576040805162461bcd60e51b81526020600482015260166024820152751058d8dc9d59481a5b9d195c995cdd0819985a5b195960521b604482015290519081900360640190fd5b60006112a36127f2565b9050848110156112f3576040805162461bcd60e51b8152602060048201526016602482015275496e73756666696369656e74206c697175696469747960501b604482015290519081900360640190fd5b60006112ff878761296c565b905061130b8887612a67565b611317600b5487612b5a565b600b556040516323e30c8b60e01b815233600482018181526001600160a01b038a81166024850152604484018a90526064840185905260a06084850190815260a48501899052908c16936323e30c8b93928c928c9288928d928d9260c401848480828437600081840152601f19601f820116905080830192505050975050505050505050602060405180830381600087803b1580156113b557600080fd5b505af11580156113c9573d6000803e3d6000fd5b505050506040513d60208110156113df57600080fd5b50600090506113ec6127f2565b90506113f88383612b5a565b811015611443576040805162461bcd60e51b8152602060048201526014602482015273496e636f6e73697374656e742062616c616e636560601b604482015290519081900360640190fd5b60008061146060405180602001604052806008548152508561279e565b9092509050600082600381111561147357fe5b146114af5760405162461bcd60e51b815260040180806020018281038252602881526020018061543b6028913960400191505060405180910390fd5b6114bb600c5482612b5a565b600c55600b546114cb908a612b90565b600b555060019a9950505050505050505050565b6005546001600160a01b031681565b6000805460ff16611533576040805162461bcd60e51b815260206004820152600a6024820152691c994b595b9d195c995960b21b604482015290519081900360640190fd5b6000805460ff191681556115456119a7565b9050801561156b5761156381601081111561155c57fe5b6030612906565b915050610dff565b61157483612bca565b9150506000805460ff19166001179055919050565b6005546040805163e0fbf09d60e01b815230600482015290516000926001600160a01b03169163e0fbf09d916024808301926020929190829003018186803b1580156115d457600080fd5b505afa1580156115e8573d6000803e3d6000fd5b505050506040513d60208110156115fe57600080fd5b505192915050565b60095481565b6011546001600160a01b031681565b6001600160a01b03166000908152600e602052604090205490565b6000805460ff1661167b576040805162461bcd60e51b815260206004820152600a6024820152691c994b595b9d195c995960b21b604482015290519081900360640190fd5b6000805460ff1916815561168d6119a7565b146116d8576040805162461bcd60e51b81526020600482015260166024820152751858d8dc9d59481a5b9d195c995cdd0819985a5b195960521b604482015290519081900360640190fd5b50600b546000805460ff1916600117905590565b6000610cdf82612cfd565b600c5481565b6002805460408051602060018416156101000260001901909316849004601f81018490048402820184019092528181529291830182828015610c705780601f10610c4557610100808354040283529160200191610c70565b600080600061176384612d7e565b9092509050600082600381111561177657fe5b146111d65760405162461bcd60e51b81526004018080602001828103825260378152602001806154dd6037913960400191505060405180910390fd5b60035461010090046001600160a01b031633146118005760405162461bcd60e51b81526004018080602001828103825260248152602001806153c46024913960400191505060405180910390fd5b6009541580156118105750600a54155b61184b5760405162461bcd60e51b81526004018080602001828103825260238152602001806153e86023913960400191505060405180910390fd5b60078490558361188c5760405162461bcd60e51b815260040180806020018281038252603081526020018061540b6030913960400191505060405180910390fd5b600061189787611089565b905080156118e9576040805162461bcd60e51b815260206004820152601a6024820152791cd95d1d1a5b99c818dbdb5c1d1c9bdb1b195c8819985a5b195960321b604482015290519081900360640190fd5b6118f1612e32565b600955670de0b6b3a7640000600a5561190986612e36565b905080156119485760405162461bcd60e51b81526004018080602001828103825260228152602001806154636022913960400191505060405180910390fd5b835161195b90600190602087019061524f565b50825161196f90600290602086019061524f565b50506003805460ff90921660ff199283161790556000805490911660011790555050505050565b600090565b600080610cf183612faa565b6000806119b2612e32565b600954909150808214156119cb57600092505050610e77565b60006119d56127f2565b600b54600c54600a54600654604080516315f2405360e01b815260048101879052602481018690526044810185905290519596509394929391926000926001600160a01b03909216916315f24053916064808301926020929190829003018186803b158015611a4357600080fd5b505afa158015611a57573d6000803e3d6000fd5b505050506040513d6020811015611a6d57600080fd5b5051905065048c27395000811115611acb576040805162461bcd60e51b815260206004820152601c60248201527b0c4dee4e4deee40e4c2e8ca40d2e640c2c4e6eae4c8d8f240d0d2ced60231b604482015290519081900360640190fd5b600080611ad8898961302b565b90925090506000826003811115611aeb57fe5b14611b3d576040805162461bcd60e51b815260206004820152601f60248201527f636f756c64206e6f742063616c63756c61746520626c6f636b2064656c746100604482015290519081900360640190fd5b611b4561523c565b600080600080611b6360405180602001604052808a8152508761304e565b90975094506000876003811115611b7657fe5b14611ba857611b9360096006896003811115611b8e57fe5b6130b6565b9e505050505050505050505050505050610e77565b611bb2858c61279e565b90975093506000876003811115611bc557fe5b14611bdd57611b9360096001896003811115611b8e57fe5b611be7848c61311c565b90975092506000876003811115611bfa57fe5b14611c1257611b9360096004896003811115611b8e57fe5b611c2d6040518060200160405280600854815250858c613142565b90975091506000876003811115611c4057fe5b14611c5857611b9360096005896003811115611b8e57fe5b611c63858a8b613142565b90975090506000876003811115611c7657fe5b14611c8e57611b9360096003896003811115611b8e57fe5b60098e9055600a819055600b839055600c829055604080518d8152602081018690528082018390526060810185905290517f4dec04e750ca11537cabcd8a9eab06494de08da3735bc8871cd41250e190bc049181900360800190a160009e50505050505050505050505050505090565b6000805460ff16611d43576040805162461bcd60e51b815260206004820152600a6024820152691c994b595b9d195c995960b21b604482015290519081900360640190fd5b6000805460ff19168155611d5933338686612466565b1490506000805460ff1916600117905592915050565b600a5481565b6006546000906001600160a01b031663b8168816611d916127f2565b600b54600c546008546040518563ffffffff1660e01b81526004018085815260200184815260200183815260200182815260200194505050505060206040518083038186803b158015611de357600080fd5b505afa158015611df7573d6000803e3d6000fd5b505050506040513d6020811015611e0d57600080fd5b5051905090565b6000805460ff16611e59576040805162461bcd60e51b815260206004820152600a6024820152691c994b595b9d195c995960b21b604482015290519081900360640190fd5b6000805460ff19169055611e6f3385858561319e565b90506000805460ff191660011790559392505050565b60035460009061010090046001600160a01b03163314611eab576110af60016045612906565b600480546001600160a01b038481166001600160a01b0319831681179093556040805191909216808252602082019390935281517fca4f2f25d0898edd99413412fb94012f9e54ec8142f9b093e7720646a95b16a9929181900390910190a160006111d6565b6000805460ff16611f56576040805162461bcd60e51b815260206004820152600a6024820152691c994b595b9d195c995960b21b604482015290519081900360640190fd5b6000805460ff19168155611f686119a7565b14611fb3576040805162461bcd60e51b81526020600482015260166024820152751858d8dc9d59481a5b9d195c995cdd0819985a5b195960521b604482015290519081900360640190fd5b611fbb610e17565b90506000805460ff1916600117905590565b6001600160a01b0381166000908152600e6020526040812054819081908190818080611ff889612d7e565b93509050600081600381111561200a57fe5b146120285760095b97506000965086955085945061205b9350505050565b6120306123b7565b92509050600081600381111561204257fe5b1461204e576009612012565b5060009650919450925090505b9193509193565b6000610cdf82613615565b60006111d6838361296c565b6000610cdf82613694565b6001600160a01b039182166000908152600f6020908152604080832093909416825291909152205490565b6004546000906001600160a01b0316331415806120ca575033155b156120e2576120db60016000612906565b9050610e77565b60038054600480546001600160a01b03818116610100818102610100600160a81b0319871617968790556001600160a01b031990931690935560408051948390048216808652929095041660208401528351909391927ff9ffabca9c8276e99321725bcb43fb076a6c66a54b7f21c4e8146d8519b417dc92908290030190a1600454604080516001600160a01b038085168252909216602083015280517fca4f2f25d0898edd99413412fb94012f9e54ec8142f9b093e7720646a95b16a99281900390910190a160009250505090565b6000806121bd6119a7565b905080156121e3576121db8160108111156121d457fe5b6040612906565b915050610cf6565b6111d683612e36565b6006546001600160a01b031681565b60008061220985858561370e565b5095945050505050565b60035461010090046001600160a01b031681565b6006546000906001600160a01b03166315f240536122436127f2565b600b54600c546040518463ffffffff1660e01b815260040180848152602001838152602001828152602001935050505060206040518083038186803b158015611de357600080fd5b6000805460ff166122d0576040805162461bcd60e51b815260206004820152600a6024820152691c994b595b9d195c995960b21b604482015290519081900360640190fd5b6000805460ff191681556122e26119a7565b90508015612300576115638160108111156122f957fe5b6046612906565b61157483613840565b600181565b60008054819060ff16612355576040805162461bcd60e51b815260206004820152600a6024820152691c994b595b9d195c995960b21b604482015290519081900360640190fd5b6000805460ff191681556123676119a7565b905080156123925761238581601081111561237e57fe5b6036612906565b9250600091506123a39050565b61239d3333866138e8565b92509250505b6000805460ff191660011790559092909150565b600d546000908190806123d257505060075460009150612462565b60006123dc6127f2565b905060006123e861523c565b60006123f984600b54600c54613c36565b93509050600081600381111561240b57fe5b14612420579550600094506124629350505050565b61242a8386613c74565b92509050600081600381111561243c57fe5b14612451579550600094506124629350505050565b505160009550935061246292505050565b9091565b600554604080516317b9b84b60e31b81523060048201526001600160a01b03868116602483015285811660448301526064820185905291516000938493169163bdcdc25891608480830192602092919082900301818787803b1580156124cb57600080fd5b505af11580156124df573d6000803e3d6000fd5b505050506040513d60208110156124f557600080fd5b5051905080156125145761250c6003604a836130b6565b915050611067565b836001600160a01b0316856001600160a01b0316141561253a5761250c6002604b612906565b60006001600160a01b0387811690871614156125595750600019612581565b506001600160a01b038086166000908152600f60209081526040808320938a16835292905220545b600080600080612591858961302b565b909450925060008460038111156125a457fe5b146125c2576125b56009604b612906565b9650505050505050611067565b6001600160a01b038a166000908152600e60205260409020546125e5908961302b565b909450915060008460038111156125f857fe5b14612609576125b56009604c612906565b6001600160a01b0389166000908152600e602052604090205461262c908961311c565b9094509050600084600381111561263f57fe5b14612650576125b56009604d612906565b6001600160a01b03808b166000908152600e6020526040808220859055918b1681522081905560001985146126a8576001600160a01b03808b166000908152600f60209081526040808320938f168352929052208390555b886001600160a01b03168a6001600160a01b031660008051602061554e8339815191528a6040518082815260200191505060405180910390a360005b9b9a5050505050505050505050565b60008054819060ff1661273a576040805162461bcd60e51b815260206004820152600a6024820152691c994b595b9d195c995960b21b604482015290519081900360640190fd5b6000805460ff1916815561274c6119a7565b905080156127775761276a81601081111561276357fe5b6035612906565b9250600091506127889050565b6127823386866138e8565b92509250505b6000805460ff1916600117905590939092509050565b60008060006127ab61523c565b6127b5868661304e565b909250905060008260038111156127c857fe5b146127d957509150600090506127eb565b60006127e482613d24565b9350935050505b9250929050565b601154604080516370a0823160e01b815230600482015290516000926001600160a01b03169182916370a0823191602480820192602092909190829003018186803b15801561284057600080fd5b505afa158015612854573d6000803e3d6000fd5b505050506040513d602081101561286a57600080fd5b505191505090565b6000805460ff166128b7576040805162461bcd60e51b815260206004820152600a6024820152691c994b595b9d195c995960b21b604482015290519081900360640190fd5b6000805460ff191681556128c96119a7565b905080156128e7576115638160108111156128e057fe5b604e612906565b6128f083613d33565b509150506000805460ff19166001179055919050565b60007f45b96fe442630264581b197e84bbada861235052c5a1aadfff9ea4e40a969aa083601081111561293557fe5b83605081111561294157fe5b604080519283526020830191909152600082820152519081900360600190a18260108111156111d657fe5b600554604080516306995d7d60e41b815290516000926001600160a01b031691636995d7d0916004808301926020929190829003018186803b1580156129b157600080fd5b505afa1580156129c5573d6000803e3d6000fd5b505050506040513d60208110156129db57600080fd5b50516040805163638d09e360e11b81523360048201526001600160a01b038681166024830152604482018690529151919092169163c71a13c6916064808301926020929190829003018186803b158015612a3457600080fd5b505afa158015612a48573d6000803e3d6000fd5b505050506040513d6020811015612a5e57600080fd5b50519392505050565b6011546040805163a9059cbb60e01b81526001600160a01b0385811660048301526024820185905291519190921691829163a9059cbb9160448082019260009290919082900301818387803b158015612abf57600080fd5b505af1158015612ad3573d6000803e3d6000fd5b5050505060003d60008114612aef5760208114612af957600080fd5b6000199150612b05565b60206000803e60005191505b5080612b54576040805162461bcd60e51b81526020600482015260196024820152781513d2d15397d514905394d1915497d3d55517d19052531151603a1b604482015290519081900360640190fd5b50505050565b60006111d68383604051806040016040528060118152602001706164646974696f6e206f766572666c6f7760781b815250613e1b565b60006111d68383604051806040016040528060158152602001747375627472616374696f6e20756e646572666c6f7760581b815250613ead565b600354600090819061010090046001600160a01b03163314612bf2576121db60016031612906565b612bfa612e32565b60095414612c0e576121db600a6033612906565b82612c176127f2565b1015612c29576121db600e6032612906565b600c54831115612c3f576121db60026034612906565b50600c5482810390811115612c855760405162461bcd60e51b81526004018080602001828103825260248152602001806156636024913960400191505060405180910390fd5b600c819055600354612ca59061010090046001600160a01b031684612a67565b600354604080516101009092046001600160a01b0316825260208201859052818101839052517f3bad0c59cf2f06e7314077049f48a93578cd16f5ef92329f1dab1420a99c177e916060908290030190a160006111d6565b6000805460ff16612d42576040805162461bcd60e51b815260206004820152600a6024820152691c994b595b9d195c995960b21b604482015290519081900360640190fd5b6000805460ff19168155612d546119a7565b90508015612d7257611563816010811115612d6b57fe5b6027612906565b61157433600085613f07565b6001600160a01b038116600090815260106020526040812080548291829182918291612db5575060009450849350612e2d92505050565b612dc58160000154600a546143ce565b90945092506000846003811115612dd857fe5b14612ded575091935060009250612e2d915050565b612dfb83826001015461440d565b90945091506000846003811115612e0e57fe5b14612e23575091935060009250612e2d915050565b5060009450925050505b915091565b4390565b600354600090819061010090046001600160a01b03163314612e5e576121db60016042612906565b612e66612e32565b60095414612e7a576121db600a6041612906565b600660009054906101000a90046001600160a01b03169050826001600160a01b0316632191f92a6040518163ffffffff1660e01b815260040160206040518083038186803b158015612ecb57600080fd5b505afa158015612edf573d6000803e3d6000fd5b505050506040513d6020811015612ef557600080fd5b5051612f47576040805162461bcd60e51b815260206004820152601c60248201527b6d61726b6572206d6574686f642072657475726e65642066616c736560201b604482015290519081900360640190fd5b600680546001600160a01b0319166001600160a01b03858116918217909255604080519284168352602083019190915280517fedffc32e068c7c95dfd4bdfd5c4d939a084d6b11c4199eac8436ed234d72f9269281900390910190a160006111d6565b60008054819060ff16612ff1576040805162461bcd60e51b815260206004820152600a6024820152691c994b595b9d195c995960b21b604482015290519081900360640190fd5b6000805460ff191681556130036119a7565b905080156130215761238581601081111561301a57fe5b601e612906565b61239d3385614438565b6000808383116130425750600090508183036127eb565b506003905060006127eb565b600061305861523c565b6000806130698660000151866143ce565b9092509050600082600381111561307c57fe5b1461309b575060408051602081019091526000815290925090506127eb565b60408051602081019091529081526000969095509350505050565b60007f45b96fe442630264581b197e84bbada861235052c5a1aadfff9ea4e40a969aa08460108111156130e557fe5b8460508111156130f157fe5b604080519283526020830191909152818101859052519081900360600190a183601081111561106757fe5b600080838301848110613134576000925090506127eb565b5060029150600090506127eb565b600080600061314f61523c565b613159878761304e565b9092509050600082600381111561316c57fe5b1461317d5750915060009050613196565b61318f61318982613d24565b8661311c565b9350935050505b935093915050565b6005546040805163d02f735160e01b81523060048201526001600160a01b038781166024830152868116604483015285811660648301526084820185905291516000938493169163d02f73519160a480830192602092919082900301818787803b15801561320b57600080fd5b505af115801561321f573d6000803e3d6000fd5b505050506040513d602081101561323557600080fd5b50519050801561324c5761250c6003601b836130b6565b846001600160a01b0316846001600160a01b031614156132725761250c6006601c612906565b61327a6152cd565b600080600560009054906101000a90046001600160a01b03166001600160a01b0316636995d7d06040518163ffffffff1660e01b815260040160206040518083038186803b1580156132cb57600080fd5b505afa1580156132df573d6000803e3d6000fd5b505050506040513d60208110156132f557600080fd5b505160055460408051636b4374f760e11b81526001600160a01b038d811660048301529151939450600093919092169163d686e9ee916024808301926020929190829003018186803b15801561334a57600080fd5b505afa15801561335e573d6000803e3d6000fd5b505050506040513d602081101561337457600080fd5b505160408051630655a3bd60e11b8152600481018a90526024810183905281519293506001600160a01b03851692630cab477a92604480840193919291829003018186803b1580156133c557600080fd5b505afa1580156133d9573d6000803e3d6000fd5b505050506040513d60408110156133ef57600080fd5b508051602091820151606087015260808601526040805163ee9e819960e01b815290516000926001600160a01b0386169263ee9e81999260048083019392829003018186803b15801561344157600080fd5b505afa158015613455573d6000803e3d6000fd5b505050506040513d602081101561346b57600080fd5b50516001600160a01b038a166000908152600e6020526040902054909150613493908961302b565b8652935060008460038111156134a557fe5b146134bd576125b56009601a866003811115611b8e57fe5b6001600160a01b038a166000908152600e602052604090205460808601516134e5919061311c565b6020870152935060008460038111156134fa57fe5b14613512576125b560096019866003811115611b8e57fe5b6001600160a01b0381166000908152600e6020526040902054606086015161353a919061311c565b60408701529350600084600381111561354f57fe5b14613567576125b560096019866003811115611b8e57fe5b84516001600160a01b03808b166000818152600e6020908152604080832095909555808a01518f851680845286842091909155858b0151948716835291859020939093556080890151845190815293519093919260008051602061554e833981519152928290030190a3806001600160a01b0316896001600160a01b031660008051602061554e83398151915287606001516040518082815260200191505060405180910390a360006126e4565b6000805460ff1661365a576040805162461bcd60e51b815260206004820152600a6024820152691c994b595b9d195c995960b21b604482015290519081900360640190fd5b6000805460ff1916815561366c6119a7565b9050801561368a5761156381601081111561368357fe5b6008612906565b6115743384614808565b6000805460ff166136d9576040805162461bcd60e51b815260206004820152600a6024820152691c994b595b9d195c995960b21b604482015290519081900360640190fd5b6000805460ff191681556136eb6119a7565b9050801561370257611563816010811115612d6b57fe5b61157433846000613f07565b60008054819060ff16613755576040805162461bcd60e51b815260206004820152600a6024820152691c994b595b9d195c995960b21b604482015290519081900360640190fd5b6000805460ff191681556137676119a7565b905080156137925761378581601081111561377e57fe5b600f612906565b9250600091506138299050565b836001600160a01b031663a6afed956040518163ffffffff1660e01b8152600401602060405180830381600087803b1580156137cd57600080fd5b505af11580156137e1573d6000803e3d6000fd5b505050506040513d60208110156137f757600080fd5b5051905080156138175761378581601081111561381057fe5b6010612906565b61382333878787614a9c565b92509250505b6000805460ff191660011790559094909350915050565b60035460009061010090046001600160a01b03163314613866576110af60016047612906565b61386e612e32565b60095414613882576110af600a6048612906565b670de0b6b3a764000082111561389e576110af60026049612906565b6008805490839055604080518281526020810185905281517faaa68312e2ea9d50e16af5068410ab56e1a1fd06037b1a35664812c30f821460929181900390910190a160006111d6565b60055460408051631200453160e11b81523060048201526001600160a01b0386811660248301528581166044830152606482018590529151600093849384939116916324008a629160848082019260209290919082900301818787803b15801561395157600080fd5b505af1158015613965573d6000803e3d6000fd5b505050506040513d602081101561397b57600080fd5b50519050801561399f5761399260036038836130b6565b9250600091506131969050565b6139a7612e32565b600954146139bb57613992600a6039612906565b6139c36152fc565b6001600160a01b03861660009081526010602052604090206001015460608201526139ed86612d7e565b6080830181905260208301826003811115613a0457fe5b6003811115613a0f57fe5b9052506000905081602001516003811115613a2657fe5b14613a5057613a426009603783602001516003811115611b8e57fe5b935060009250613196915050565b600019851415613a695760808101516040820152613a71565b604081018590525b613a7f878260400151614f89565b60e082018190526080820151613a949161302b565b60a0830181905260208301826003811115613aab57fe5b6003811115613ab657fe5b9052506000905081602001516003811115613acd57fe5b14613b095760405162461bcd60e51b815260040180806020018281038252603a815260200180615514603a913960400191505060405180910390fd5b613b19600b548260e0015161302b565b60c0830181905260208301826003811115613b3057fe5b6003811115613b3b57fe5b9052506000905081602001516003811115613b5257fe5b14613b8e5760405162461bcd60e51b815260040180806020018281038252603181526020018061556e6031913960400191505060405180910390fd5b60a080820180516001600160a01b03808a16600081815260106020908152604091829020948555600a5460019095019490945560c0870151600b81905560e088015195518251948f16855294840192909252828101949094526060820192909252608081019190915290517f1a2a22cb034d26d1854bdc6666a5b91fe25efbbb5dcad3b0355478d6f5c362a1929181900390910190a160e00151600097909650945050505050565b600080600080613c46878761311c565b90925090506000826003811115613c5957fe5b14613c6a5750915060009050613196565b61318f818661302b565b6000613c7e61523c565b600080613c9386670de0b6b3a76400006143ce565b90925090506000826003811115613ca657fe5b14613cc5575060408051602081019091526000815290925090506127eb565b600080613cd2838861440d565b90925090506000826003811115613ce557fe5b14613d07575060408051602081019091526000815290945092506127eb915050565b604080516020810190915290815260009890975095505050505050565b51670de0b6b3a7640000900490565b600080600080613d41612e32565b60095414613d6057613d55600a604f612906565b93509150612e2d9050565b613d6a3386614f89565b905080600c54019150600c54821015613dca576040805162461bcd60e51b815260206004820181905260248201527f61646420726573657276657320756e6578706563746564206f766572666c6f77604482015290519081900360640190fd5b600c829055604080513381526020810183905280820184905290517fa91e67c5ea634cd43a12c5a482724b03de01e85ca68702a53d0c2f45cb7c1dc59181900360600190a160009350915050915091565b60008383018285821015610f985760405162461bcd60e51b81526004018080602001828103825283818151815260200191508051906020019080838360005b83811015613e72578181015183820152602001613e5a565b50505050905090810190601f168015613e9f5780820380516001836020036101000a031916815260200191505b509250505060405180910390fd5b60008184841115613eff5760405162461bcd60e51b8152602060048201818152835160248401528351909283926044909101919085019080838360008315613e72578181015183820152602001613e5a565b505050900390565b6000821580613f14575081155b613f4f5760405162461bcd60e51b815260040180806020018281038252603481526020018061562f6034913960400191505060405180910390fd5b613f57615342565b613f5f6123b7565b6040830181905260208301826003811115613f7657fe5b6003811115613f8157fe5b9052506000905081602001516003811115613f9857fe5b14613fbc57613fb46009602b83602001516003811115611b8e57fe5b9150506111d6565b831561403d576060810184905260408051602081018252908201518152613fe3908561279e565b6080830181905260208301826003811115613ffa57fe5b600381111561400557fe5b905250600090508160200151600381111561401c57fe5b1461403857613fb46009602983602001516003811115611b8e57fe5b6140b6565b61405983604051806020016040528084604001518152506151cb565b606083018190526020830182600381111561407057fe5b600381111561407b57fe5b905250600090508160200151600381111561409257fe5b146140ae57613fb46009602a83602001516003811115611b8e57fe5b608081018390525b60055460608201516040805163eabe7d9160e01b81523060048201526001600160a01b03898116602483015260448201939093529051600093929092169163eabe7d919160648082019260209290919082900301818787803b15801561411b57600080fd5b505af115801561412f573d6000803e3d6000fd5b505050506040513d602081101561414557600080fd5b5051905080156141655761415c60036028836130b6565b925050506111d6565b61416d612e32565b600954146141815761415c600a602c612906565b614191600d54836060015161302b565b60a08401819052602084018260038111156141a857fe5b60038111156141b357fe5b90525060009050826020015160038111156141ca57fe5b146141e65761415c6009602e84602001516003811115611b8e57fe5b6001600160a01b0386166000908152600e6020526040902054606083015161420e919061302b565b60c084018190526020840182600381111561422557fe5b600381111561423057fe5b905250600090508260200151600381111561424757fe5b146142635761415c6009602d84602001516003811115611b8e57fe5b81608001516142706127f2565b10156142825761415c600e602f612906565b614290868360800151612a67565b60a0820151600d5560c08201516001600160a01b0387166000818152600e602090815260409182902093909355606085015181519081529051309360008051602061554e833981519152928290030190a36080820151606080840151604080516001600160a01b038b168152602081019490945283810191909152517fe5b754fb1abb7f01b499791d0b820ae3b6af3424ac1c59768edb53f4ec31a9299281900390910190a160055460808301516060840151604080516351dff98960e01b81523060048201526001600160a01b038b81166024830152604482019490945260648101929092525191909216916351dff98991608480830192600092919082900301818387803b1580156143a357600080fd5b505af11580156143b7573d6000803e3d6000fd5b50600092506143c4915050565b9695505050505050565b600080836143e1575060009050806127eb565b838302838582816143ee57fe5b0414614402575060029150600090506127eb565b6000925090506127eb565b6000808261442157506001905060006127eb565b600083858161442c57fe5b04915091509250929050565b60055460408051634ef4c3e160e01b81523060048201526001600160a01b03858116602483015260448201859052915160009384938493911691634ef4c3e19160648082019260209290919082900301818787803b15801561449957600080fd5b505af11580156144ad573d6000803e3d6000fd5b505050506040513d60208110156144c357600080fd5b5051905080156144e7576144da6003601f836130b6565b9250600091506127eb9050565b6144ef612e32565b60095414614503576144da600a6022612906565b61450b615342565b6145136123b7565b604083018190526020830182600381111561452a57fe5b600381111561453557fe5b905250600090508160200151600381111561454c57fe5b14614576576145686009602183602001516003811115611b8e57fe5b9350600092506127eb915050565b6145808686614f89565b60c08201819052604080516020810182529083015181526145a191906151cb565b60608301819052602083018260038111156145b857fe5b60038111156145c357fe5b90525060009050816020015160038111156145da57fe5b1461462c576040805162461bcd60e51b815260206004820181905260248201527f4d494e545f45584348414e47455f43414c43554c4154494f4e5f4641494c4544604482015290519081900360640190fd5b61463c600d54826060015161311c565b608083018190526020830182600381111561465357fe5b600381111561465e57fe5b905250600090508160200151600381111561467557fe5b146146b15760405162461bcd60e51b81526004018080602001828103825260288152602001806156076028913960400191505060405180910390fd5b6001600160a01b0386166000908152600e602052604090205460608201516146d9919061311c565b60a08301819052602083018260038111156146f057fe5b60038111156146fb57fe5b905250600090508160200151600381111561471257fe5b1461474e5760405162461bcd60e51b815260040180806020018281038252602b8152602001806154b2602b913960400191505060405180910390fd5b6080810151600d5560a08101516001600160a01b0387166000818152600e60209081526040918290209390935560c084015160608086015183519485529484019190915282820193909352517f4c209b5fc8ad50758f13e2e1088ba56a560dff690a1c6fef26394f4c03821c4f929181900390910190a1606081015160408051918252516001600160a01b03881691309160008051602061554e8339815191529181900360200190a360c001516000969095509350505050565b6005546040805163368f515360e21b81523060048201526001600160a01b0385811660248301526044820185905291516000938493169163da3d454c91606480830192602092919082900301818787803b15801561486557600080fd5b505af1158015614879573d6000803e3d6000fd5b505050506040513d602081101561488f57600080fd5b5051905080156148ae576148a66003600e836130b6565b915050610cdf565b6148b6612e32565b600954146148c9576148a6600a80612906565b826148d26127f2565b10156148e4576148a6600e6009612906565b6148ec615380565b6148f585612d7e565b602083018190528282600381111561490957fe5b600381111561491457fe5b905250600090508151600381111561492857fe5b1461494d576149446009600783600001516003811115611b8e57fe5b92505050610cdf565b61495b81602001518561311c565b604083018190528282600381111561496f57fe5b600381111561497a57fe5b905250600090508151600381111561498e57fe5b146149aa576149446009600c83600001516003811115611b8e57fe5b6149b6600b548561311c565b60608301819052828260038111156149ca57fe5b60038111156149d557fe5b90525060009050815160038111156149e957fe5b14614a05576149446009600b83600001516003811115611b8e57fe5b614a0f8585612a67565b604080820180516001600160a01b03881660008181526010602090815290859020928355600a54600190930192909255606080860151600b81905593518551928352928201899052818501929092529081019190915290517f13ed6866d4e1ee6da46f845c46d7e54120883d75c5ea9a2dacc1c4ca8984ab809181900360800190a1600095945050505050565b60055460408051632fe3f38f60e11b81523060048201526001600160a01b0384811660248301528781166044830152868116606483015260848201869052915160009384938493911691635fc7e71e9160a48082019260209290919082900301818787803b158015614b0d57600080fd5b505af1158015614b21573d6000803e3d6000fd5b505050506040513d6020811015614b3757600080fd5b505190508015614b5b57614b4e60036012836130b6565b925060009150614f809050565b614b63612e32565b60095414614b7757614b4e600a6016612906565b614b7f612e32565b846001600160a01b0316636c540baf6040518163ffffffff1660e01b815260040160206040518083038186803b158015614bb857600080fd5b505afa158015614bcc573d6000803e3d6000fd5b505050506040513d6020811015614be257600080fd5b505114614bf557614b4e600a6011612906565b866001600160a01b0316866001600160a01b03161415614c1b57614b4e60066017612906565b84614c2c57614b4e60076015612906565b600019851415614c4257614b4e60076014612906565b600080614c508989896138e8565b90925090508115614c8057614c71826010811115614c6a57fe5b6018612906565b945060009350614f8092505050565b6005546040805163c488847b60e01b81523060048201526001600160a01b038981166024830152604482018590528251600094859492169263c488847b926064808301939192829003018186803b158015614cda57600080fd5b505afa158015614cee573d6000803e3d6000fd5b505050506040513d6040811015614d0457600080fd5b50805160209091015190925090508115614d4f5760405162461bcd60e51b815260040180806020018281038252603381526020018061559f6033913960400191505060405180910390fd5b80886001600160a01b03166370a082318c6040518263ffffffff1660e01b815260040180826001600160a01b03166001600160a01b0316815260200191505060206040518083038186803b158015614da657600080fd5b505afa158015614dba573d6000803e3d6000fd5b505050506040513d6020811015614dd057600080fd5b50511015614e20576040805162461bcd60e51b815260206004820152601860248201527709892a2aa928882a88abea68a92b48abea89e9ebe9aaa86960431b604482015290519081900360640190fd5b60006001600160a01b038916301415614e4657614e3f308d8d8561319e565b9050614ed0565b6040805163b2a02ff160e01b81526001600160a01b038e811660048301528d81166024830152604482018590529151918b169163b2a02ff1916064808201926020929091908290030181600087803b158015614ea157600080fd5b505af1158015614eb5573d6000803e3d6000fd5b505050506040513d6020811015614ecb57600080fd5b505190505b8015614f1a576040805162461bcd60e51b81526020600482015260146024820152731d1bdad95b881cd95a5e9d5c994819985a5b195960621b604482015290519081900360640190fd5b604080516001600160a01b03808f168252808e1660208301528183018790528b1660608201526080810184905290517f298637f684da70674f26509b10f07ec2fbc77a335ab1e7d6215a4b2484d8bb529181900360a00190a16000975092955050505050505b94509492505050565b601154604080516370a0823160e01b815230600482015290516000926001600160a01b031691839183916370a08231916024808301926020929190829003018186803b158015614fd857600080fd5b505afa158015614fec573d6000803e3d6000fd5b505050506040513d602081101561500257600080fd5b5051604080516323b872dd60e01b81526001600160a01b038881166004830152306024830152604482018890529151929350908416916323b872dd9160648082019260009290919082900301818387803b15801561505f57600080fd5b505af1158015615073573d6000803e3d6000fd5b5050505060003d6000811461508f576020811461509957600080fd5b60001991506150a5565b60206000803e60005191505b50806150f3576040805162461bcd60e51b81526020600482015260186024820152771513d2d15397d514905394d1915497d25397d1905253115160421b604482015290519081900360640190fd5b601154604080516370a0823160e01b815230600482015290516000926001600160a01b0316916370a08231916024808301926020929190829003018186803b15801561513e57600080fd5b505afa158015615152573d6000803e3d6000fd5b505050506040513d602081101561516857600080fd5b50519050828110156151be576040805162461bcd60e51b815260206004820152601a602482015279544f4b454e5f5452414e534645525f494e5f4f564552464c4f5760301b604482015290519081900360640190fd5b9190910395945050505050565b60008060006151d861523c565b6127b5868660006151e761523c565b6000806151fc670de0b6b3a7640000876143ce565b9092509050600082600381111561520f57fe5b1461522e575060408051602081019091526000815290925090506127eb565b6127e4818660000151613c74565b6040518060200160405280600081525090565b828054600181600116156101000203166002900490600052602060002090601f016020900481019282601f1061529057805160ff19168380011785556152bd565b828001600101855582156152bd579182015b828111156152bd5782518255916020019190600101906152a2565b506152c99291506153a9565b5090565b6040518060a0016040528060008152602001600081526020016000815260200160008152602001600081525090565b6040805161010081019091528060008152602001600081526020016000815260200160008152602001600081526020016000815260200160008152602001600081525090565b6040805160e0810190915280600081526020016000815260200160008152602001600081526020016000815260200160008152602001600081525090565b604080516080810190915280600081526020016000815260200160008152602001600081525090565b610e7791905b808211156152c957600081556001016153af56fe6f6e6c792061646d696e206d617920696e697469616c697a6520746865206d61726b65746d61726b6574206d6179206f6e6c7920626520696e697469616c697a6564206f6e6365696e697469616c2065786368616e67652072617465206d7573742062652067726561746572207468616e207a65726f2e4572726f7220746f2063616c63756c61746520666c6173686c6f616e20726573657276652066656573657474696e6720696e7465726573742072617465206d6f64656c206661696c65646f6e6c79207468652061646d696e206d61792063616c6c205f72657369676e496d706c656d656e746174696f6e4d494e545f4e45575f4143434f554e545f42414c414e43455f43414c43554c4154494f4e5f4641494c4544626f72726f7742616c616e636553746f7265643a20626f72726f7742616c616e636553746f726564496e7465726e616c206661696c656452455041595f424f52524f575f4e45575f4143434f554e545f424f52524f575f42414c414e43455f43414c43554c4154494f4e5f4641494c4544ddf252ad1be2c89b69c2b068fc378daa952ba7f163c4a11628f55a4df523b3ef52455041595f424f52524f575f4e45575f544f54414c5f42414c414e43455f43414c43554c4154494f4e5f4641494c45444c49515549444154455f434f4d5054524f4c4c45525f43414c43554c4154455f414d4f554e545f5345495a455f4641494c454465786368616e67655261746553746f7265643a2065786368616e67655261746553746f726564496e7465726e616c206661696c65644d494e545f4e45575f544f54414c5f535550504c595f43414c43554c4154494f4e5f4641494c45446f6e65206f662072656465656d546f6b656e73496e206f722072656465656d416d6f756e74496e206d757374206265207a65726f72656475636520726573657276657320756e657870656374656420756e646572666c6f776f6e6c79207468652061646d696e206d61792063616c6c205f6265636f6d65496d706c656d656e746174696f6ea265627a7a72315820a6ed5bda8ddf4ccadb663362b8bd7cdd453331c630e89e26635cba6618fb9d2964736f6c63430005100032",
  "source": "pragma solidity ^0.5.16;\n\nimport \"./CErc20.sol\";\n\n/**\n * @title Compound's CErc20Delegate Contract\n * @notice CTokens which wrap an EIP-20 underlying and are delegated to\n * @author Compound\n */\ncontract CErc20Delegate is CErc20, CDelegateInterface {\n    /**\n     * @notice Construct an empty delegate\n     */\n    constructor() public {}\n\n    /**\n     * @notice Called by the delegator on a delegate to initialize it for duty\n     * @param data The encoded bytes data for any initialization\n     */\n    function _becomeImplementation(bytes memory data) public {\n        // Shh -- currently unused\n        data;\n\n        // Shh -- we don't ever want this hook to be marked pure\n        if (false) {\n            implementation = address(0);\n        }\n\n        require(msg.sender == admin, \"only the admin may call _becomeImplementation\");\n    }\n\n    /**\n     * @notice Called by the delegator on a delegate to forfeit its responsibility\n     */\n    function _resignImplementation() public {\n        // Shh -- we don't ever want this hook to be marked pure\n        if (false) {\n            implementation = address(0);\n        }\n\n        require(msg.sender == admin, \"only the admin may call _resignImplementation\");\n    }\n}\n",
  "sourcePath": "/Users/ashton/repo/blockchain/eth/smartcontracts/quicksilver-protocol/contracts/compound/CErc20Delegate.sol",
  "compiler": {
    "name": "solc",
    "version": "0.5.16+commit.9c3226ce.Emscripten.clang"
  },
  "schemaVersion": "3.4.1",
  "updatedAt": "2021-08-16T22:55:24.143Z",
  "devdoc": {
    "author": "Compound",
    "methods": {
      "_acceptAdmin()": {
        "details": "Admin function for pending admin to accept role and update admin",
        "return": "uint 0=success, otherwise a failure (see ErrorReporter.sol for details)"
      },
      "_addReserves(uint256)": {
        "params": {
          "addAmount": "The amount fo underlying token to add as reserves"
        },
        "return": "uint 0=success, otherwise a failure (see ErrorReporter.sol for details)"
      },
      "_becomeImplementation(bytes)": {
        "params": {
          "data": "The encoded bytes data for any initialization"
        }
      },
      "_reduceReserves(uint256)": {
        "params": {
          "reduceAmount": "Amount of reduction to reserves"
        },
        "return": "uint 0=success, otherwise a failure (see ErrorReporter.sol for details)"
      },
      "_setComptroller(address)": {
        "details": "Admin function to set a new comptroller",
        "return": "uint 0=success, otherwise a failure (see ErrorReporter.sol for details)"
      },
      "_setInterestRateModel(address)": {
        "details": "Admin function to accrue interest and update the interest rate model",
        "params": {
          "newInterestRateModel": "the new interest rate model to use"
        },
        "return": "uint 0=success, otherwise a failure (see ErrorReporter.sol for details)"
      },
      "_setPendingAdmin(address)": {
        "details": "Admin function to begin change of admin. The newPendingAdmin must call `_acceptAdmin` to finalize the transfer.",
        "params": {
          "newPendingAdmin": "New pending admin."
        },
        "return": "uint 0=success, otherwise a failure (see ErrorReporter.sol for details)"
      },
      "_setReserveFactor(uint256)": {
        "details": "Admin function to accrue interest and set a new reserve factor",
        "return": "uint 0=success, otherwise a failure (see ErrorReporter.sol for details)"
      },
      "accrueInterest()": {
        "details": "This calculates interest accrued from the last checkpointed block  up to the current block and writes new checkpoint to storage."
      },
      "allowance(address,address)": {
        "params": {
          "owner": "The address of the account which owns the tokens to be spent",
          "spender": "The address of the account which may transfer tokens"
        },
        "return": "The number of tokens allowed to be spent (-1 means infinite)"
      },
      "approve(address,uint256)": {
        "details": "This will overwrite the approval amount for `spender` and is subject to issues noted [here](https://eips.ethereum.org/EIPS/eip-20#approve)",
        "params": {
          "amount": "The number of tokens that are approved (-1 means infinite)",
          "spender": "The address of the account which may transfer tokens"
        },
        "return": "Whether or not the approval succeeded"
      },
      "balanceOf(address)": {
        "params": {
          "owner": "The address of the account to query"
        },
        "return": "The number of tokens owned by `owner`"
      },
      "balanceOfUnderlying(address)": {
        "details": "This also accrues interest in a transaction",
        "params": {
          "owner": "The address of the account to query"
        },
        "return": "The amount of underlying owned by `owner`"
      },
      "borrow(uint256)": {
        "params": {
          "borrowAmount": "The amount of the underlying asset to borrow"
        },
        "return": "uint 0=success, otherwise a failure (see ErrorReporter.sol for details)"
      },
      "borrowBalanceCurrent(address)": {
        "params": {
          "account": "The address whose balance should be calculated after updating borrowIndex"
        },
        "return": "The calculated balance"
      },
      "borrowBalanceStored(address)": {
        "params": {
          "account": "The address whose balance should be calculated"
        },
        "return": "The calculated balance"
      },
      "borrowRatePerBlock()": {
        "return": "The borrow interest rate per block, scaled by 1e18"
      },
      "exchangeRateCurrent()": {
        "return": "Calculated exchange rate scaled by 1e18"
      },
      "exchangeRateStored()": {
        "details": "This function does not accrue interest before calculating the exchange rate",
        "return": "Calculated exchange rate scaled by 1e18"
      },
      "flashFee(address,uint256)": {
        "details": "The fee to be charged for a given loan.",
        "params": {
          "amount": "The amount of tokens lent.",
          "token": "The loan currency."
        },
        "return": "The amount of `token` to be charged for the loan, on top of the returned principal."
      },
      "flashLoan(address,address,uint256,bytes)": {
        "details": "Initiate a flash loan.",
        "params": {
          "amount": "The amount of tokens lent.",
          "data": "Arbitrary data structure, intended to contain user-defined parameters.",
          "receiver": "The receiver of the tokens in the loan, and the receiver of the callback.",
          "token": "The loan currency."
        }
      },
      "getAccountSnapshot(address)": {
        "details": "This is used by comptroller to more efficiently perform liquidity checks.",
        "params": {
          "account": "Address of the account to snapshot"
        },
        "return": "(possible error, token balance, borrow balance, exchange rate mantissa)"
      },
      "getCash()": {
        "return": "The quantity of underlying asset owned by this contract"
      },
      "initialize(address,address,address,uint256,string,string,uint8)": {
        "params": {
          "comptroller_": "The address of the Comptroller",
          "decimals_": "ERC-20 decimal precision of this token",
          "initialExchangeRateMantissa_": "The initial exchange rate, scaled by 1e18",
          "interestRateModel_": "The address of the interest rate model",
          "name_": "ERC-20 name of this token",
          "symbol_": "ERC-20 symbol of this token",
          "underlying_": "The address of the underlying asset"
        }
      },
      "initialize(address,address,uint256,string,string,uint8)": {
        "params": {
          "comptroller_": "The address of the Comptroller",
          "decimals_": "EIP-20 decimal precision of this token",
          "initialExchangeRateMantissa_": "The initial exchange rate, scaled by 1e18",
          "interestRateModel_": "The address of the interest rate model",
          "name_": "EIP-20 name of this token",
          "symbol_": "EIP-20 symbol of this token"
        }
      },
      "liquidateBorrow(address,uint256,address)": {
        "params": {
          "borrower": "The borrower of this cToken to be liquidated",
          "cTokenCollateral": "The market in which to seize collateral from the borrower",
          "repayAmount": "The amount of the underlying borrowed asset to repay"
        },
        "return": "uint 0=success, otherwise a failure (see ErrorReporter.sol for details)"
      },
      "maxFlashLoan(address)": {
        "details": "The amount of currency available to be lent.",
        "params": {
          "token": "The loan currency."
        },
        "return": "The amount of `token` that can be borrowed."
      },
      "mint(uint256)": {
        "details": "Accrues interest whether or not the operation succeeds, unless reverted",
        "params": {
          "mintAmount": "The amount of the underlying asset to supply"
        },
        "return": "uint 0=success, otherwise a failure (see ErrorReporter.sol for details)"
      },
      "redeem(uint256)": {
        "details": "Accrues interest whether or not the operation succeeds, unless reverted",
        "params": {
          "redeemTokens": "The number of cTokens to redeem into underlying"
        },
        "return": "uint 0=success, otherwise a failure (see ErrorReporter.sol for details)"
      },
      "redeemUnderlying(uint256)": {
        "details": "Accrues interest whether or not the operation succeeds, unless reverted",
        "params": {
          "redeemAmount": "The amount of underlying to redeem"
        },
        "return": "uint 0=success, otherwise a failure (see ErrorReporter.sol for details)"
      },
      "repayBorrow(uint256)": {
        "params": {
          "repayAmount": "The amount to repay"
        },
        "return": "uint 0=success, otherwise a failure (see ErrorReporter.sol for details)"
      },
      "repayBorrowBehalf(address,uint256)": {
        "params": {
          "borrower": "the account with the debt being payed off",
          "repayAmount": "The amount to repay"
        },
        "return": "uint 0=success, otherwise a failure (see ErrorReporter.sol for details)"
      },
      "seize(address,address,uint256)": {
        "details": "Will fail unless called by another cToken during the process of liquidation. Its absolutely critical to use msg.sender as the borrowed cToken and not a parameter.",
        "params": {
          "borrower": "The account having collateral seized",
          "liquidator": "The account receiving seized collateral",
          "seizeTokens": "The number of cTokens to seize"
        },
        "return": "uint 0=success, otherwise a failure (see ErrorReporter.sol for details)"
      },
      "supplyRatePerBlock()": {
        "return": "The supply interest rate per block, scaled by 1e18"
      },
      "totalBorrowsCurrent()": {
        "return": "The total borrows with interest"
      },
      "transfer(address,uint256)": {
        "params": {
          "amount": "The number of tokens to transfer",
          "dst": "The address of the destination account"
        },
        "return": "Whether or not the transfer succeeded"
      },
      "transferFrom(address,address,uint256)": {
        "params": {
          "amount": "The number of tokens to transfer",
          "dst": "The address of the destination account",
          "src": "The address of the source account"
        },
        "return": "Whether or not the transfer succeeded"
      }
    },
    "title": "Compound's CErc20Delegate Contract"
  },
  "userdoc": {
    "methods": {
      "_acceptAdmin()": {
        "notice": "Accepts transfer of admin rights. msg.sender must be pendingAdmin"
      },
      "_addReserves(uint256)": {
        "notice": "The sender adds to reserves."
      },
      "_becomeImplementation(bytes)": {
        "notice": "Called by the delegator on a delegate to initialize it for duty"
      },
      "_reduceReserves(uint256)": {
        "notice": "Accrues interest and reduces reserves by transferring to admin"
      },
      "_resignImplementation()": {
        "notice": "Called by the delegator on a delegate to forfeit its responsibility"
      },
      "_setComptroller(address)": {
        "notice": "Sets a new comptroller for the market"
      },
      "_setInterestRateModel(address)": {
        "notice": "accrues interest and updates the interest rate model using _setInterestRateModelFresh"
      },
      "_setPendingAdmin(address)": {
        "notice": "Begins transfer of admin rights. The newPendingAdmin must call `_acceptAdmin` to finalize the transfer."
      },
      "_setReserveFactor(uint256)": {
        "notice": "accrues interest and sets a new reserve factor for the protocol using _setReserveFactorFresh"
      },
      "accrueInterest()": {
        "notice": "Applies accrued interest to total borrows and reserves"
      },
      "allowance(address,address)": {
        "notice": "Get the current allowance from `owner` for `spender`"
      },
      "approve(address,uint256)": {
        "notice": "Approve `spender` to transfer up to `amount` from `src`"
      },
      "balanceOf(address)": {
        "notice": "Get the token balance of the `owner`"
      },
      "balanceOfUnderlying(address)": {
        "notice": "Get the underlying balance of the `owner`"
      },
      "borrow(uint256)": {
        "notice": "Sender borrows assets from the protocol to their own address"
      },
      "borrowBalanceCurrent(address)": {
        "notice": "Accrue interest to updated borrowIndex and then calculate account's borrow balance using the updated borrowIndex"
      },
      "borrowBalanceStored(address)": {
        "notice": "Return the borrow balance of account based on stored data"
      },
      "borrowRatePerBlock()": {
        "notice": "Returns the current per-block borrow interest rate for this cToken"
      },
      "constructor": "Construct an empty delegate",
      "exchangeRateCurrent()": {
        "notice": "Accrue interest then return the up-to-date exchange rate"
      },
      "exchangeRateStored()": {
        "notice": "Calculates the exchange rate from the underlying to the CToken"
      },
      "getAccountSnapshot(address)": {
        "notice": "Get a snapshot of the account's balances, and the cached exchange rate"
      },
      "getCash()": {
        "notice": "Get cash balance of this cToken in the underlying asset"
      },
      "initialize(address,address,address,uint256,string,string,uint8)": {
        "notice": "Initialize the new money market"
      },
      "initialize(address,address,uint256,string,string,uint8)": {
        "notice": "Initialize the money market"
      },
      "liquidateBorrow(address,uint256,address)": {
        "notice": "The sender liquidates the borrowers collateral. The collateral seized is transferred to the liquidator."
      },
      "mint(uint256)": {
        "notice": "Sender supplies assets into the market and receives cTokens in exchange"
      },
      "redeem(uint256)": {
        "notice": "Sender redeems cTokens in exchange for the underlying asset"
      },
      "redeemUnderlying(uint256)": {
        "notice": "Sender redeems cTokens in exchange for a specified amount of underlying asset"
      },
      "repayBorrow(uint256)": {
        "notice": "Sender repays their own borrow"
      },
      "repayBorrowBehalf(address,uint256)": {
        "notice": "Sender repays a borrow belonging to borrower"
      },
      "seize(address,address,uint256)": {
        "notice": "Transfers collateral tokens (this market) to the liquidator."
      },
      "supplyRatePerBlock()": {
        "notice": "Returns the current per-block supply interest rate for this cToken"
      },
      "totalBorrowsCurrent()": {
        "notice": "Returns the current total borrows plus accrued interest"
      },
      "transfer(address,uint256)": {
        "notice": "Transfer `amount` tokens from `msg.sender` to `dst`"
      },
      "transferFrom(address,address,uint256)": {
        "notice": "Transfer `amount` tokens from `src` to `dst`"
      }
    },
    "notice": "CTokens which wrap an EIP-20 underlying and are delegated to"
  }
}