{
  "contractName": "CEther",
  "abi": [
    {
      "inputs": [
        {
          "internalType": "contract ComptrollerInterface",
          "name": "comptroller_",
          "type": "address"
        },
        {
          "internalType": "contract InterestRateModel",
          "name": "interestRateModel_",
          "type": "address"
        },
        {
          "internalType": "uint256",
          "name": "initialExchangeRateMantissa_",
          "type": "uint256"
        },
        {
          "internalType": "string",
          "name": "name_",
          "type": "string"
        },
        {
          "internalType": "string",
          "name": "symbol_",
          "type": "string"
        },
        {
          "internalType": "uint8",
          "name": "decimals_",
          "type": "uint8"
        },
        {
          "internalType": "address payable",
          "name": "admin_",
          "type": "address"
        }
      ],
      "payable": false,
      "stateMutability": "nonpayable",
      "type": "constructor"
    },
    {
      "anonymous": false,
      "inputs": [
        {
          "indexed": false,
          "internalType": "uint256",
          "name": "cashPrior",
          "type": "uint256"
        },
        {
          "indexed": false,
          "internalType": "uint256",
          "name": "interestAccumulated",
          "type": "uint256"
        },
        {
          "indexed": false,
          "internalType": "uint256",
          "name": "borrowIndex",
          "type": "uint256"
        },
        {
          "indexed": false,
          "internalType": "uint256",
          "name": "totalBorrows",
          "type": "uint256"
        }
      ],
      "name": "AccrueInterest",
      "type": "event"
    },
    {
      "anonymous": false,
      "inputs": [
        {
          "indexed": true,
          "internalType": "address",
          "name": "owner",
          "type": "address"
        },
        {
          "indexed": true,
          "internalType": "address",
          "name": "spender",
          "type": "address"
        },
        {
          "indexed": false,
          "internalType": "uint256",
          "name": "amount",
          "type": "uint256"
        }
      ],
      "name": "Approval",
      "type": "event"
    },
    {
      "anonymous": false,
      "inputs": [
        {
          "indexed": false,
          "internalType": "address",
          "name": "borrower",
          "type": "address"
        },
        {
          "indexed": false,
          "internalType": "uint256",
          "name": "borrowAmount",
          "type": "uint256"
        },
        {
          "indexed": false,
          "internalType": "uint256",
          "name": "accountBorrows",
          "type": "uint256"
        },
        {
          "indexed": false,
          "internalType": "uint256",
          "name": "totalBorrows",
          "type": "uint256"
        }
      ],
      "name": "Borrow",
      "type": "event"
    },
    {
      "anonymous": false,
      "inputs": [
        {
          "indexed": false,
          "internalType": "uint256",
          "name": "error",
          "type": "uint256"
        },
        {
          "indexed": false,
          "internalType": "uint256",
          "name": "info",
          "type": "uint256"
        },
        {
          "indexed": false,
          "internalType": "uint256",
          "name": "detail",
          "type": "uint256"
        }
      ],
      "name": "Failure",
      "type": "event"
    },
    {
      "anonymous": false,
      "inputs": [
        {
          "indexed": false,
          "internalType": "address",
          "name": "liquidator",
          "type": "address"
        },
        {
          "indexed": false,
          "internalType": "address",
          "name": "borrower",
          "type": "address"
        },
        {
          "indexed": false,
          "internalType": "uint256",
          "name": "repayAmount",
          "type": "uint256"
        },
        {
          "indexed": false,
          "internalType": "address",
          "name": "cTokenCollateral",
          "type": "address"
        },
        {
          "indexed": false,
          "internalType": "uint256",
          "name": "seizeTokens",
          "type": "uint256"
        }
      ],
      "name": "LiquidateBorrow",
      "type": "event"
    },
    {
      "anonymous": false,
      "inputs": [
        {
          "indexed": false,
          "internalType": "address",
          "name": "minter",
          "type": "address"
        },
        {
          "indexed": false,
          "internalType": "uint256",
          "name": "mintAmount",
          "type": "uint256"
        },
        {
          "indexed": false,
          "internalType": "uint256",
          "name": "mintTokens",
          "type": "uint256"
        }
      ],
      "name": "Mint",
      "type": "event"
    },
    {
      "anonymous": false,
      "inputs": [
        {
          "indexed": false,
          "internalType": "address",
          "name": "oldAdmin",
          "type": "address"
        },
        {
          "indexed": false,
          "internalType": "address",
          "name": "newAdmin",
          "type": "address"
        }
      ],
      "name": "NewAdmin",
      "type": "event"
    },
    {
      "anonymous": false,
      "inputs": [
        {
          "indexed": false,
          "internalType": "contract ComptrollerInterface",
          "name": "oldComptroller",
          "type": "address"
        },
        {
          "indexed": false,
          "internalType": "contract ComptrollerInterface",
          "name": "newComptroller",
          "type": "address"
        }
      ],
      "name": "NewComptroller",
      "type": "event"
    },
    {
      "anonymous": false,
      "inputs": [
        {
          "indexed": false,
          "internalType": "contract InterestRateModel",
          "name": "oldInterestRateModel",
          "type": "address"
        },
        {
          "indexed": false,
          "internalType": "contract InterestRateModel",
          "name": "newInterestRateModel",
          "type": "address"
        }
      ],
      "name": "NewMarketInterestRateModel",
      "type": "event"
    },
    {
      "anonymous": false,
      "inputs": [
        {
          "indexed": false,
          "internalType": "address",
          "name": "oldPendingAdmin",
          "type": "address"
        },
        {
          "indexed": false,
          "internalType": "address",
          "name": "newPendingAdmin",
          "type": "address"
        }
      ],
      "name": "NewPendingAdmin",
      "type": "event"
    },
    {
      "anonymous": false,
      "inputs": [
        {
          "indexed": false,
          "internalType": "uint256",
          "name": "oldReserveFactorMantissa",
          "type": "uint256"
        },
        {
          "indexed": false,
          "internalType": "uint256",
          "name": "newReserveFactorMantissa",
          "type": "uint256"
        }
      ],
      "name": "NewReserveFactor",
      "type": "event"
    },
    {
      "anonymous": false,
      "inputs": [
        {
          "indexed": false,
          "internalType": "address",
          "name": "redeemer",
          "type": "address"
        },
        {
          "indexed": false,
          "internalType": "uint256",
          "name": "redeemAmount",
          "type": "uint256"
        },
        {
          "indexed": false,
          "internalType": "uint256",
          "name": "redeemTokens",
          "type": "uint256"
        }
      ],
      "name": "Redeem",
      "type": "event"
    },
    {
      "anonymous": false,
      "inputs": [
        {
          "indexed": false,
          "internalType": "address",
          "name": "payer",
          "type": "address"
        },
        {
          "indexed": false,
          "internalType": "address",
          "name": "borrower",
          "type": "address"
        },
        {
          "indexed": false,
          "internalType": "uint256",
          "name": "repayAmount",
          "type": "uint256"
        },
        {
          "indexed": false,
          "internalType": "uint256",
          "name": "accountBorrows",
          "type": "uint256"
        },
        {
          "indexed": false,
          "internalType": "uint256",
          "name": "totalBorrows",
          "type": "uint256"
        }
      ],
      "name": "RepayBorrow",
      "type": "event"
    },
    {
      "anonymous": false,
      "inputs": [
        {
          "indexed": false,
          "internalType": "address",
          "name": "benefactor",
          "type": "address"
        },
        {
          "indexed": false,
          "internalType": "uint256",
          "name": "addAmount",
          "type": "uint256"
        },
        {
          "indexed": false,
          "internalType": "uint256",
          "name": "newTotalReserves",
          "type": "uint256"
        }
      ],
      "name": "ReservesAdded",
      "type": "event"
    },
    {
      "anonymous": false,
      "inputs": [
        {
          "indexed": false,
          "internalType": "address",
          "name": "admin",
          "type": "address"
        },
        {
          "indexed": false,
          "internalType": "uint256",
          "name": "reduceAmount",
          "type": "uint256"
        },
        {
          "indexed": false,
          "internalType": "uint256",
          "name": "newTotalReserves",
          "type": "uint256"
        }
      ],
      "name": "ReservesReduced",
      "type": "event"
    },
    {
      "anonymous": false,
      "inputs": [
        {
          "indexed": true,
          "internalType": "address",
          "name": "from",
          "type": "address"
        },
        {
          "indexed": true,
          "internalType": "address",
          "name": "to",
          "type": "address"
        },
        {
          "indexed": false,
          "internalType": "uint256",
          "name": "amount",
          "type": "uint256"
        }
      ],
      "name": "Transfer",
      "type": "event"
    },
    {
      "payable": true,
      "stateMutability": "payable",
      "type": "fallback"
    },
    {
      "constant": false,
      "inputs": [],
      "name": "_acceptAdmin",
      "outputs": [
        {
          "internalType": "uint256",
          "name": "",
          "type": "uint256"
        }
      ],
      "payable": false,
      "stateMutability": "nonpayable",
      "type": "function"
    },
    {
      "constant": false,
      "inputs": [
        {
          "internalType": "uint256",
          "name": "reduceAmount",
          "type": "uint256"
        }
      ],
      "name": "_reduceReserves",
      "outputs": [
        {
          "internalType": "uint256",
          "name": "",
          "type": "uint256"
        }
      ],
      "payable": false,
      "stateMutability": "nonpayable",
      "type": "function"
    },
    {
      "constant": false,
      "inputs": [
        {
          "internalType": "contract ComptrollerInterface",
          "name": "newComptroller",
          "type": "address"
        }
      ],
      "name": "_setComptroller",
      "outputs": [
        {
          "internalType": "uint256",
          "name": "",
          "type": "uint256"
        }
      ],
      "payable": false,
      "stateMutability": "nonpayable",
      "type": "function"
    },
    {
      "constant": false,
      "inputs": [
        {
          "internalType": "contract InterestRateModel",
          "name": "newInterestRateModel",
          "type": "address"
        }
      ],
      "name": "_setInterestRateModel",
      "outputs": [
        {
          "internalType": "uint256",
          "name": "",
          "type": "uint256"
        }
      ],
      "payable": false,
      "stateMutability": "nonpayable",
      "type": "function"
    },
    {
      "constant": false,
      "inputs": [
        {
          "internalType": "address payable",
          "name": "newPendingAdmin",
          "type": "address"
        }
      ],
      "name": "_setPendingAdmin",
      "outputs": [
        {
          "internalType": "uint256",
          "name": "",
          "type": "uint256"
        }
      ],
      "payable": false,
      "stateMutability": "nonpayable",
      "type": "function"
    },
    {
      "constant": false,
      "inputs": [
        {
          "internalType": "uint256",
          "name": "newReserveFactorMantissa",
          "type": "uint256"
        }
      ],
      "name": "_setReserveFactor",
      "outputs": [
        {
          "internalType": "uint256",
          "name": "",
          "type": "uint256"
        }
      ],
      "payable": false,
      "stateMutability": "nonpayable",
      "type": "function"
    },
    {
      "constant": true,
      "inputs": [],
      "name": "accrualBlockNumber",
      "outputs": [
        {
          "internalType": "uint256",
          "name": "",
          "type": "uint256"
        }
      ],
      "payable": false,
      "stateMutability": "view",
      "type": "function"
    },
    {
      "constant": false,
      "inputs": [],
      "name": "accrueInterest",
      "outputs": [
        {
          "internalType": "uint256",
          "name": "",
          "type": "uint256"
        }
      ],
      "payable": false,
      "stateMutability": "nonpayable",
      "type": "function"
    },
    {
      "constant": true,
      "inputs": [],
      "name": "admin",
      "outputs": [
        {
          "internalType": "address payable",
          "name": "",
          "type": "address"
        }
      ],
      "payable": false,
      "stateMutability": "view",
      "type": "function"
    },
    {
      "constant": true,
      "inputs": [
        {
          "internalType": "address",
          "name": "owner",
          "type": "address"
        },
        {
          "internalType": "address",
          "name": "spender",
          "type": "address"
        }
      ],
      "name": "allowance",
      "outputs": [
        {
          "internalType": "uint256",
          "name": "",
          "type": "uint256"
        }
      ],
      "payable": false,
      "stateMutability": "view",
      "type": "function"
    },
    {
      "constant": false,
      "inputs": [
        {
          "internalType": "address",
          "name": "spender",
          "type": "address"
        },
        {
          "internalType": "uint256",
          "name": "amount",
          "type": "uint256"
        }
      ],
      "name": "approve",
      "outputs": [
        {
          "internalType": "bool",
          "name": "",
          "type": "bool"
        }
      ],
      "payable": false,
      "stateMutability": "nonpayable",
      "type": "function"
    },
    {
      "constant": true,
      "inputs": [
        {
          "internalType": "address",
          "name": "owner",
          "type": "address"
        }
      ],
      "name": "balanceOf",
      "outputs": [
        {
          "internalType": "uint256",
          "name": "",
          "type": "uint256"
        }
      ],
      "payable": false,
      "stateMutability": "view",
      "type": "function"
    },
    {
      "constant": false,
      "inputs": [
        {
          "internalType": "address",
          "name": "owner",
          "type": "address"
        }
      ],
      "name": "balanceOfUnderlying",
      "outputs": [
        {
          "internalType": "uint256",
          "name": "",
          "type": "uint256"
        }
      ],
      "payable": false,
      "stateMutability": "nonpayable",
      "type": "function"
    },
    {
      "constant": false,
      "inputs": [
        {
          "internalType": "address",
          "name": "account",
          "type": "address"
        }
      ],
      "name": "borrowBalanceCurrent",
      "outputs": [
        {
          "internalType": "uint256",
          "name": "",
          "type": "uint256"
        }
      ],
      "payable": false,
      "stateMutability": "nonpayable",
      "type": "function"
    },
    {
      "constant": true,
      "inputs": [
        {
          "internalType": "address",
          "name": "account",
          "type": "address"
        }
      ],
      "name": "borrowBalanceStored",
      "outputs": [
        {
          "internalType": "uint256",
          "name": "",
          "type": "uint256"
        }
      ],
      "payable": false,
      "stateMutability": "view",
      "type": "function"
    },
    {
      "constant": true,
      "inputs": [],
      "name": "borrowIndex",
      "outputs": [
        {
          "internalType": "uint256",
          "name": "",
          "type": "uint256"
        }
      ],
      "payable": false,
      "stateMutability": "view",
      "type": "function"
    },
    {
      "constant": true,
      "inputs": [],
      "name": "borrowRatePerBlock",
      "outputs": [
        {
          "internalType": "uint256",
          "name": "",
          "type": "uint256"
        }
      ],
      "payable": false,
      "stateMutability": "view",
      "type": "function"
    },
    {
      "constant": true,
      "inputs": [],
      "name": "comptroller",
      "outputs": [
        {
          "internalType": "contract ComptrollerInterface",
          "name": "",
          "type": "address"
        }
      ],
      "payable": false,
      "stateMutability": "view",
      "type": "function"
    },
    {
      "constant": true,
      "inputs": [],
      "name": "decimals",
      "outputs": [
        {
          "internalType": "uint8",
          "name": "",
          "type": "uint8"
        }
      ],
      "payable": false,
      "stateMutability": "view",
      "type": "function"
    },
    {
      "constant": false,
      "inputs": [],
      "name": "exchangeRateCurrent",
      "outputs": [
        {
          "internalType": "uint256",
          "name": "",
          "type": "uint256"
        }
      ],
      "payable": false,
      "stateMutability": "nonpayable",
      "type": "function"
    },
    {
      "constant": true,
      "inputs": [],
      "name": "exchangeRateStored",
      "outputs": [
        {
          "internalType": "uint256",
          "name": "",
          "type": "uint256"
        }
      ],
      "payable": false,
      "stateMutability": "view",
      "type": "function"
    },
    {
      "constant": true,
      "inputs": [
        {
          "internalType": "address",
          "name": "token",
          "type": "address"
        },
        {
          "internalType": "uint256",
          "name": "amount",
          "type": "uint256"
        }
      ],
      "name": "flashFee",
      "outputs": [
        {
          "internalType": "uint256",
          "name": "",
          "type": "uint256"
        }
      ],
      "payable": false,
      "stateMutability": "view",
      "type": "function"
    },
    {
      "constant": false,
      "inputs": [
        {
          "internalType": "contract IERC3156FlashBorrower",
          "name": "receiver",
          "type": "address"
        },
        {
          "internalType": "address",
          "name": "token",
          "type": "address"
        },
        {
          "internalType": "uint256",
          "name": "amount",
          "type": "uint256"
        },
        {
          "internalType": "bytes",
          "name": "data",
          "type": "bytes"
        }
      ],
      "name": "flashLoan",
      "outputs": [
        {
          "internalType": "bool",
          "name": "",
          "type": "bool"
        }
      ],
      "payable": false,
      "stateMutability": "nonpayable",
      "type": "function"
    },
    {
      "constant": true,
      "inputs": [
        {
          "internalType": "address",
          "name": "account",
          "type": "address"
        }
      ],
      "name": "getAccountSnapshot",
      "outputs": [
        {
          "internalType": "uint256",
          "name": "",
          "type": "uint256"
        },
        {
          "internalType": "uint256",
          "name": "",
          "type": "uint256"
        },
        {
          "internalType": "uint256",
          "name": "",
          "type": "uint256"
        },
        {
          "internalType": "uint256",
          "name": "",
          "type": "uint256"
        }
      ],
      "payable": false,
      "stateMutability": "view",
      "type": "function"
    },
    {
      "constant": true,
      "inputs": [],
      "name": "getCash",
      "outputs": [
        {
          "internalType": "uint256",
          "name": "",
          "type": "uint256"
        }
      ],
      "payable": false,
      "stateMutability": "view",
      "type": "function"
    },
    {
      "constant": false,
      "inputs": [
        {
          "internalType": "contract ComptrollerInterface",
          "name": "comptroller_",
          "type": "address"
        },
        {
          "internalType": "contract InterestRateModel",
          "name": "interestRateModel_",
          "type": "address"
        },
        {
          "internalType": "uint256",
          "name": "initialExchangeRateMantissa_",
          "type": "uint256"
        },
        {
          "internalType": "string",
          "name": "name_",
          "type": "string"
        },
        {
          "internalType": "string",
          "name": "symbol_",
          "type": "string"
        },
        {
          "internalType": "uint8",
          "name": "decimals_",
          "type": "uint8"
        }
      ],
      "name": "initialize",
      "outputs": [],
      "payable": false,
      "stateMutability": "nonpayable",
      "type": "function"
    },
    {
      "constant": true,
      "inputs": [],
      "name": "interestRateModel",
      "outputs": [
        {
          "internalType": "contract InterestRateModel",
          "name": "",
          "type": "address"
        }
      ],
      "payable": false,
      "stateMutability": "view",
      "type": "function"
    },
    {
      "constant": true,
      "inputs": [],
      "name": "isCToken",
      "outputs": [
        {
          "internalType": "bool",
          "name": "",
          "type": "bool"
        }
      ],
      "payable": false,
      "stateMutability": "view",
      "type": "function"
    },
    {
      "constant": true,
      "inputs": [
        {
          "internalType": "address",
          "name": "token",
          "type": "address"
        }
      ],
      "name": "maxFlashLoan",
      "outputs": [
        {
          "internalType": "uint256",
          "name": "",
          "type": "uint256"
        }
      ],
      "payable": false,
      "stateMutability": "view",
      "type": "function"
    },
    {
      "constant": true,
      "inputs": [],
      "name": "name",
      "outputs": [
        {
          "internalType": "string",
          "name": "",
          "type": "string"
        }
      ],
      "payable": false,
      "stateMutability": "view",
      "type": "function"
    },
    {
      "constant": true,
      "inputs": [],
      "name": "pendingAdmin",
      "outputs": [
        {
          "internalType": "address payable",
          "name": "",
          "type": "address"
        }
      ],
      "payable": false,
      "stateMutability": "view",
      "type": "function"
    },
    {
      "constant": true,
      "inputs": [],
      "name": "reserveFactorMantissa",
      "outputs": [
        {
          "internalType": "uint256",
          "name": "",
          "type": "uint256"
        }
      ],
      "payable": false,
      "stateMutability": "view",
      "type": "function"
    },
    {
      "constant": false,
      "inputs": [
        {
          "internalType": "address",
          "name": "liquidator",
          "type": "address"
        },
        {
          "internalType": "address",
          "name": "borrower",
          "type": "address"
        },
        {
          "internalType": "uint256",
          "name": "seizeTokens",
          "type": "uint256"
        }
      ],
      "name": "seize",
      "outputs": [
        {
          "internalType": "uint256",
          "name": "",
          "type": "uint256"
        }
      ],
      "payable": false,
      "stateMutability": "nonpayable",
      "type": "function"
    },
    {
      "constant": true,
      "inputs": [],
      "name": "supplyRatePerBlock",
      "outputs": [
        {
          "internalType": "uint256",
          "name": "",
          "type": "uint256"
        }
      ],
      "payable": false,
      "stateMutability": "view",
      "type": "function"
    },
    {
      "constant": true,
      "inputs": [],
      "name": "symbol",
      "outputs": [
        {
          "internalType": "string",
          "name": "",
          "type": "string"
        }
      ],
      "payable": false,
      "stateMutability": "view",
      "type": "function"
    },
    {
      "constant": true,
      "inputs": [],
      "name": "totalBorrows",
      "outputs": [
        {
          "internalType": "uint256",
          "name": "",
          "type": "uint256"
        }
      ],
      "payable": false,
      "stateMutability": "view",
      "type": "function"
    },
    {
      "constant": false,
      "inputs": [],
      "name": "totalBorrowsCurrent",
      "outputs": [
        {
          "internalType": "uint256",
          "name": "",
          "type": "uint256"
        }
      ],
      "payable": false,
      "stateMutability": "nonpayable",
      "type": "function"
    },
    {
      "constant": true,
      "inputs": [],
      "name": "totalReserves",
      "outputs": [
        {
          "internalType": "uint256",
          "name": "",
          "type": "uint256"
        }
      ],
      "payable": false,
      "stateMutability": "view",
      "type": "function"
    },
    {
      "constant": true,
      "inputs": [],
      "name": "totalSupply",
      "outputs": [
        {
          "internalType": "uint256",
          "name": "",
          "type": "uint256"
        }
      ],
      "payable": false,
      "stateMutability": "view",
      "type": "function"
    },
    {
      "constant": false,
      "inputs": [
        {
          "internalType": "address",
          "name": "dst",
          "type": "address"
        },
        {
          "internalType": "uint256",
          "name": "amount",
          "type": "uint256"
        }
      ],
      "name": "transfer",
      "outputs": [
        {
          "internalType": "bool",
          "name": "",
          "type": "bool"
        }
      ],
      "payable": false,
      "stateMutability": "nonpayable",
      "type": "function"
    },
    {
      "constant": false,
      "inputs": [
        {
          "internalType": "address",
          "name": "src",
          "type": "address"
        },
        {
          "internalType": "address",
          "name": "dst",
          "type": "address"
        },
        {
          "internalType": "uint256",
          "name": "amount",
          "type": "uint256"
        }
      ],
      "name": "transferFrom",
      "outputs": [
        {
          "internalType": "bool",
          "name": "",
          "type": "bool"
        }
      ],
      "payable": false,
      "stateMutability": "nonpayable",
      "type": "function"
    },
    {
      "constant": false,
      "inputs": [],
      "name": "mint",
      "outputs": [],
      "payable": true,
      "stateMutability": "payable",
      "type": "function"
    },
    {
      "constant": false,
      "inputs": [
        {
          "internalType": "uint256",
          "name": "redeemTokens",
          "type": "uint256"
        }
      ],
      "name": "redeem",
      "outputs": [
        {
          "internalType": "uint256",
          "name": "",
          "type": "uint256"
        }
      ],
      "payable": false,
      "stateMutability": "nonpayable",
      "type": "function"
    },
    {
      "constant": false,
      "inputs": [
        {
          "internalType": "uint256",
          "name": "redeemAmount",
          "type": "uint256"
        }
      ],
      "name": "redeemUnderlying",
      "outputs": [
        {
          "internalType": "uint256",
          "name": "",
          "type": "uint256"
        }
      ],
      "payable": false,
      "stateMutability": "nonpayable",
      "type": "function"
    },
    {
      "constant": false,
      "inputs": [
        {
          "internalType": "uint256",
          "name": "borrowAmount",
          "type": "uint256"
        }
      ],
      "name": "borrow",
      "outputs": [
        {
          "internalType": "uint256",
          "name": "",
          "type": "uint256"
        }
      ],
      "payable": false,
      "stateMutability": "nonpayable",
      "type": "function"
    },
    {
      "constant": false,
      "inputs": [],
      "name": "repayBorrow",
      "outputs": [],
      "payable": true,
      "stateMutability": "payable",
      "type": "function"
    },
    {
      "constant": false,
      "inputs": [
        {
          "internalType": "address",
          "name": "borrower",
          "type": "address"
        }
      ],
      "name": "repayBorrowBehalf",
      "outputs": [],
      "payable": true,
      "stateMutability": "payable",
      "type": "function"
    },
    {
      "constant": false,
      "inputs": [
        {
          "internalType": "address",
          "name": "borrower",
          "type": "address"
        },
        {
          "internalType": "contract CToken",
          "name": "cTokenCollateral",
          "type": "address"
        }
      ],
      "name": "liquidateBorrow",
      "outputs": [],
      "payable": true,
      "stateMutability": "payable",
      "type": "function"
    },
    {
      "constant": true,
      "inputs": [],
      "name": "isNativeToken",
      "outputs": [
        {
          "internalType": "bool",
          "name": "",
          "type": "bool"
        }
      ],
      "payable": false,
      "stateMutability": "pure",
      "type": "function"
    }
  ],
  "bytecode": "0x60806040523480156200001157600080fd5b5060405162005c1538038062005c15833981810160405260e08110156200003757600080fd5b8151602083015160408085015160608601805192519496939591949391820192846401000000008211156200006b57600080fd5b9083019060208201858111156200008157600080fd5b82516401000000008111828201881017156200009c57600080fd5b82525081516020918201929091019080838360005b83811015620000cb578181015183820152602001620000b1565b50505050905090810190601f168015620000f95780820380516001836020036101000a031916815260200191505b50604052602001805160405193929190846401000000008211156200011d57600080fd5b9083019060208201858111156200013357600080fd5b82516401000000008111828201881017156200014e57600080fd5b82525081516020918201929091019080838360005b838110156200017d57818101518382015260200162000163565b50505050905090810190601f168015620001ab5780820380516001836020036101000a031916815260200191505b506040908152602082015191015160038054610100600160a81b03191633610100021790559092509050620001e587878787878762000218565b600380546001600160a01b0390921661010002610100600160a81b03199092169190911790555062000853945050505050565b60035461010090046001600160a01b03163314620002685760405162461bcd60e51b815260040180806020018281038252602481526020018062005b7c6024913960400191505060405180910390fd5b600954158015620002795750600a54155b620002b65760405162461bcd60e51b815260040180806020018281038252602381526020018062005ba06023913960400191505060405180910390fd5b600784905583620002f95760405162461bcd60e51b815260040180806020018281038252603081526020018062005bc36030913960400191505060405180910390fd5b60006200030f876001600160e01b036200042e16565b9050801562000365576040805162461bcd60e51b815260206004820152601a60248201527f73657474696e6720636f6d7074726f6c6c6572206661696c6564000000000000604482015290519081900360640190fd5b620003786001600160e01b036200059616565b600955670de0b6b3a7640000600a556200039b866001600160e01b036200059b16565b90508015620003dc5760405162461bcd60e51b815260040180806020018281038252602281526020018062005bf36022913960400191505060405180910390fd5b8351620003f1906001906020870190620007b1565b50825162000407906002906020860190620007b1565b50506003805460ff90921660ff199283161790556000805490911660011790555050505050565b60035460009061010090046001600160a01b031633146200046857620004606001603f6001600160e01b036200074116565b905062000591565b60055460408051623f1ee960e11b815290516001600160a01b0392831692851691627e3dd2916004808301926020929190829003018186803b158015620004ae57600080fd5b505afa158015620004c3573d6000803e3d6000fd5b505050506040513d6020811015620004da57600080fd5b50516200052e576040805162461bcd60e51b815260206004820152601c60248201527f6d61726b6572206d6574686f642072657475726e65642066616c736500000000604482015290519081900360640190fd5b600580546001600160a01b0319166001600160a01b03858116918217909255604080519284168352602083019190915280517f7ac369dbd14fa5ea3f473ed67cc9d598964a77501540ba6751eb0b3decf5870d9281900390910190a160005b9150505b919050565b435b90565b600354600090819061010090046001600160a01b03163314620005d857620005cf600160426001600160e01b036200074116565b91505062000591565b620005eb6001600160e01b036200059616565b600954146200060b57620005cf600a60416001600160e01b036200074116565b600660009054906101000a90046001600160a01b03169050826001600160a01b0316632191f92a6040518163ffffffff1660e01b815260040160206040518083038186803b1580156200065d57600080fd5b505afa15801562000672573d6000803e3d6000fd5b505050506040513d60208110156200068957600080fd5b5051620006dd576040805162461bcd60e51b815260206004820152601c60248201527f6d61726b6572206d6574686f642072657475726e65642066616c736500000000604482015290519081900360640190fd5b600680546001600160a01b0319166001600160a01b03858116918217909255604080519284168352602083019190915280517fedffc32e068c7c95dfd4bdfd5c4d939a084d6b11c4199eac8436ed234d72f9269281900390910190a160006200058d565b60007f45b96fe442630264581b197e84bbada861235052c5a1aadfff9ea4e40a969aa08360108111156200077157fe5b8360508111156200077e57fe5b604080519283526020830191909152600082820152519081900360600190a1826010811115620007aa57fe5b9392505050565b828054600181600116156101000203166002900490600052602060002090601f016020900481019282601f10620007f457805160ff191683800117855562000824565b8280016001018555821562000824579182015b828111156200082457825182559160200191906001019062000807565b506200083292915062000836565b5090565b6200059891905b808211156200083257600081556001016200083d565b61531980620008636000396000f3fe60806040526004361061023e5760003560e01c806395d89b411161013557806395d89b411461068357806395dd91931461069857806399d8c1b4146106cb5780639af4ee7e14610826578063a6afed951461083b578063a9059cbb14610850578063aa5af0fd14610889578063aae40a2a1461089e578063ae9d70b0146108cc578063b2a02ff1146108e1578063b71d1a0c14610924578063bd6d894d14610957578063c37f68e21461096c578063c5ebeaec146109c5578063d9d98ce4146109ef578063db006a7514610a28578063dd62ed3e14610a52578063e597461914610a8d578063e9c714f214610ab3578063f2b3abbd14610ac8578063f3fdb15a14610afb578063f851a44014610b10578063f8f9da2814610b25578063fca7820b14610b3a578063fe9c44ae14610b645761023e565b806306fdde0314610240578063095ea7b3146102ca5780631249c58b14610317578063173b99041461031f57806317bfdfbc1461034657806318160ddd14610379578063182df0f51461038e57806323b872dd146103a357806326782247146103e6578063313ce567146104175780633af9e669146104425780633b1d21a2146104755780634576b5db1461048a57806347bd3718146104bd5780634e4d9fea146104d25780635cffe9de146104da5780635fe3b56714610575578063601a0bf11461058a578063613255ab146105b45780636c540baf146105e757806370a08231146105fc57806373acee981461062f578063852a12e3146106445780638f840ddd1461066e575b005b34801561024c57600080fd5b50610255610b79565b6040805160208082528351818301528351919283929083019185019080838360005b8381101561028f578181015183820152602001610277565b50505050905090810190601f1680156102bc5780820380516001836020036101000a031916815260200191505b509250505060405180910390f35b3480156102d657600080fd5b50610303600480360360408110156102ed57600080fd5b506001600160a01b038135169060200135610c06565b604080519115158252519081900360200190f35b61023e610c73565b34801561032b57600080fd5b50610334610cb1565b60408051918252519081900360200190f35b34801561035257600080fd5b506103346004803603602081101561036957600080fd5b50356001600160a01b0316610cb7565b34801561038557600080fd5b50610334610d77565b34801561039a57600080fd5b50610334610d7d565b3480156103af57600080fd5b50610303600480360360608110156103c657600080fd5b506001600160a01b03813581169160208101359091169060400135610de0565b3480156103f257600080fd5b506103fb610e52565b604080516001600160a01b039092168252519081900360200190f35b34801561042357600080fd5b5061042c610e61565b6040805160ff9092168252519081900360200190f35b34801561044e57600080fd5b506103346004803603602081101561046557600080fd5b50356001600160a01b0316610e6a565b34801561048157600080fd5b50610334610f22565b34801561049657600080fd5b50610334600480360360208110156104ad57600080fd5b50356001600160a01b0316610f31565b3480156104c957600080fd5b50610334611085565b61023e61108b565b3480156104e657600080fd5b50610303600480360360808110156104fd57600080fd5b6001600160a01b03823581169260208101359091169160408201359190810190608081016060820135600160201b81111561053757600080fd5b82018360208201111561054957600080fd5b803590602001918460018302840111600160201b8311171561056a57600080fd5b5090925090506110cd565b34801561058157600080fd5b506103fb611369565b34801561059657600080fd5b50610334600480360360208110156105ad57600080fd5b5035611378565b3480156105c057600080fd5b50610334600480360360208110156105d757600080fd5b50356001600160a01b0316611413565b3480156105f357600080fd5b50610334611490565b34801561060857600080fd5b506103346004803603602081101561061f57600080fd5b50356001600160a01b0316611496565b34801561063b57600080fd5b506103346114b1565b34801561065057600080fd5b506103346004803603602081101561066757600080fd5b5035611567565b34801561067a57600080fd5b50610334611572565b34801561068f57600080fd5b50610255611578565b3480156106a457600080fd5b50610334600480360360208110156106bb57600080fd5b50356001600160a01b03166115d0565b3480156106d757600080fd5b5061023e600480360360c08110156106ee57600080fd5b6001600160a01b03823581169260208101359091169160408201359190810190608081016060820135600160201b81111561072857600080fd5b82018360208201111561073a57600080fd5b803590602001918460018302840111600160201b8311171561075b57600080fd5b91908080601f0160208091040260200160405190810160405280939291908181526020018383808284376000920191909152509295949360208101935035915050600160201b8111156107ad57600080fd5b8201836020820111156107bf57600080fd5b803590602001918460018302840111600160201b831117156107e057600080fd5b91908080601f0160208091040260200160405190810160405280939291908181526020018383808284376000920191909152509295505050903560ff16915061162d9050565b34801561083257600080fd5b50610303611811565b34801561084757600080fd5b50610334611816565b34801561085c57600080fd5b506103036004803603604081101561087357600080fd5b506001600160a01b038135169060200135611b6d565b34801561089557600080fd5b50610334611bde565b61023e600480360360408110156108b457600080fd5b506001600160a01b0381358116916020013516611be4565b3480156108d857600080fd5b50610334611c31565b3480156108ed57600080fd5b506103346004803603606081101561090457600080fd5b506001600160a01b03813581169160208101359091169060400135611cd0565b34801561093057600080fd5b506103346004803603602081101561094757600080fd5b50356001600160a01b0316611d41565b34801561096357600080fd5b50610334611dcd565b34801561097857600080fd5b5061099f6004803603602081101561098f57600080fd5b50356001600160a01b0316611e89565b604080519485526020850193909352838301919091526060830152519081900360800190f35b3480156109d157600080fd5b50610334600480360360208110156109e857600080fd5b5035611f1e565b3480156109fb57600080fd5b5061033460048036036040811015610a1257600080fd5b506001600160a01b038135169060200135611f29565b348015610a3457600080fd5b5061033460048036036020811015610a4b57600080fd5b5035611f35565b348015610a5e57600080fd5b5061033460048036036040811015610a7557600080fd5b506001600160a01b0381358116916020013516611f40565b61023e60048036036020811015610aa357600080fd5b50356001600160a01b0316611f6b565b348015610abf57600080fd5b50610334611fb8565b348015610ad457600080fd5b5061033460048036036020811015610aeb57600080fd5b50356001600160a01b03166120bb565b348015610b0757600080fd5b506103fb6120f5565b348015610b1c57600080fd5b506103fb612104565b348015610b3157600080fd5b50610334612118565b348015610b4657600080fd5b5061033460048036036020811015610b5d57600080fd5b503561217c565b348015610b7057600080fd5b506103036121fa565b60018054604080516020600284861615610100026000190190941693909304601f81018490048402820184019092528181529291830182828015610bfe5780601f10610bd357610100808354040283529160200191610bfe565b820191906000526020600020905b815481529060010190602001808311610be157829003601f168201915b505050505081565b336000818152600f602090815260408083206001600160a01b03871680855290835281842086905581518681529151939493909284927f8c5be1e5ebec7d5bd14f71427d1e84f3dd0314c0f7b2291e5b200ac8c7c3b925929081900390910190a360019150505b92915050565b6000610c7e346121ff565b509050610cae816040518060400160405280600b81526020016a1b5a5b9d0819985a5b195960aa1b8152506122a7565b50565b60085481565b6000805460ff16610cfc576040805162461bcd60e51b815260206004820152600a6024820152691c994b595b9d195c995960b21b604482015290519081900360640190fd5b6000805460ff19168155610d0e611816565b14610d59576040805162461bcd60e51b81526020600482015260166024820152751858d8dc9d59481a5b9d195c995cdd0819985a5b195960521b604482015290519081900360640190fd5b610d62826115d0565b90505b6000805460ff19166001179055919050565b600d5481565b6000806000610d8a6124a6565b90925090506000826003811115610d9d57fe5b14610dd95760405162461bcd60e51b81526004018080602001828103825260358152602001806152306035913960400191505060405180910390fd5b9150505b90565b6000805460ff16610e25576040805162461bcd60e51b815260206004820152600a6024820152691c994b595b9d195c995960b21b604482015290519081900360640190fd5b6000805460ff19168155610e3b33868686612555565b1490506000805460ff191660011790559392505050565b6004546001600160a01b031681565b60035460ff1681565b6000610e74614ec7565b6040518060200160405280610e87611dcd565b90526001600160a01b0384166000908152600e6020526040812054919250908190610eb39084906127e4565b90925090506000826003811115610ec657fe5b14610f18576040805162461bcd60e51b815260206004820152601f60248201527f62616c616e636520636f756c64206e6f742062652063616c63756c6174656400604482015290519081900360640190fd5b925050505b919050565b6000610f2c612838565b905090565b60035460009061010090046001600160a01b03163314610f5e57610f576001603f612864565b9050610f1d565b60055460408051623f1ee960e11b815290516001600160a01b0392831692851691627e3dd2916004808301926020929190829003018186803b158015610fa357600080fd5b505afa158015610fb7573d6000803e3d6000fd5b505050506040513d6020811015610fcd57600080fd5b505161101f576040805162461bcd60e51b815260206004820152601c60248201527b6d61726b6572206d6574686f642072657475726e65642066616c736560201b604482015290519081900360640190fd5b600580546001600160a01b0319166001600160a01b03858116918217909255604080519284168352602083019190915280517f7ac369dbd14fa5ea3f473ed67cc9d598964a77501540ba6751eb0b3decf5870d9281900390910190a160005b9392505050565b600b5481565b6000611096346128ca565b509050610cae81604051806040016040528060128152602001711c995c185e509bdc9c9bddc819985a5b195960721b8152506122a7565b6000806110d8611816565b14611123576040805162461bcd60e51b81526020600482015260166024820152751058d8dc9d59481a5b9d195c995cdd0819985a5b195960521b604482015290519081900360640190fd5b600061112d612838565b90508481101561117d576040805162461bcd60e51b8152602060048201526016602482015275496e73756666696369656e74206c697175696469747960501b604482015290519081900360640190fd5b6000611189878761294c565b90506111958887612a47565b6111a1600b5487612a7d565b600b556040516323e30c8b60e01b815233600482018181526001600160a01b038a81166024850152604484018a90526064840185905260a06084850190815260a48501899052908c16936323e30c8b93928c928c9288928d928d9260c401848480828437600081840152601f19601f820116905080830192505050975050505050505050602060405180830381600087803b15801561123f57600080fd5b505af1158015611253573d6000803e3d6000fd5b505050506040513d602081101561126957600080fd5b5060009050611276612838565b90506112828383612a7d565b8110156112cd576040805162461bcd60e51b8152602060048201526014602482015273496e636f6e73697374656e742062616c616e636560601b604482015290519081900360640190fd5b6000806112ea6040518060200160405280600854815250856127e4565b909250905060008260038111156112fd57fe5b146113395760405162461bcd60e51b81526004018080602001828103825260288152602001806150c66028913960400191505060405180910390fd5b611345600c5482612a7d565b600c55600b54611355908a612ab3565b600b555060019a9950505050505050505050565b6005546001600160a01b031681565b6000805460ff166113bd576040805162461bcd60e51b815260206004820152600a6024820152691c994b595b9d195c995960b21b604482015290519081900360640190fd5b6000805460ff191681556113cf611816565b905080156113f5576113ed8160108111156113e657fe5b6030612864565b915050610d65565b6113fe83612aed565b9150506000805460ff19166001179055919050565b6005546040805163e0fbf09d60e01b815230600482015290516000926001600160a01b03169163e0fbf09d916024808301926020929190829003018186803b15801561145e57600080fd5b505afa158015611472573d6000803e3d6000fd5b505050506040513d602081101561148857600080fd5b505192915050565b60095481565b6001600160a01b03166000908152600e602052604090205490565b6000805460ff166114f6576040805162461bcd60e51b815260206004820152600a6024820152691c994b595b9d195c995960b21b604482015290519081900360640190fd5b6000805460ff19168155611508611816565b14611553576040805162461bcd60e51b81526020600482015260166024820152751858d8dc9d59481a5b9d195c995cdd0819985a5b195960521b604482015290519081900360640190fd5b50600b546000805460ff1916600117905590565b6000610c6d82612c20565b600c5481565b6002805460408051602060018416156101000260001901909316849004601f81018490048402820184019092528181529291830182828015610bfe5780601f10610bd357610100808354040283529160200191610bfe565b60008060006115de84612ca1565b909250905060008260038111156115f157fe5b1461107e5760405162461bcd60e51b815260040180806020018281038252603781526020018061513b6037913960400191505060405180910390fd5b60035461010090046001600160a01b0316331461167b5760405162461bcd60e51b815260040180806020018281038252602481526020018061504f6024913960400191505060405180910390fd5b60095415801561168b5750600a54155b6116c65760405162461bcd60e51b81526004018080602001828103825260238152602001806150736023913960400191505060405180910390fd5b6007849055836117075760405162461bcd60e51b81526004018080602001828103825260308152602001806150966030913960400191505060405180910390fd5b600061171287610f31565b90508015611764576040805162461bcd60e51b815260206004820152601a6024820152791cd95d1d1a5b99c818dbdb5c1d1c9bdb1b195c8819985a5b195960321b604482015290519081900360640190fd5b61176c612d55565b600955670de0b6b3a7640000600a5561178486612d59565b905080156117c35760405162461bcd60e51b81526004018080602001828103825260228152602001806150ee6022913960400191505060405180910390fd5b83516117d6906001906020870190614eda565b5082516117ea906002906020860190614eda565b50506003805460ff90921660ff199283161790556000805490911660011790555050505050565b600190565b600080611821612d55565b6009549091508082141561183a57600092505050610ddd565b6000611844612838565b600b54600c54600a54600654604080516315f2405360e01b815260048101879052602481018690526044810185905290519596509394929391926000926001600160a01b03909216916315f24053916064808301926020929190829003018186803b1580156118b257600080fd5b505afa1580156118c6573d6000803e3d6000fd5b505050506040513d60208110156118dc57600080fd5b5051905065048c2739500081111561193a576040805162461bcd60e51b815260206004820152601c60248201527b0c4dee4e4deee40e4c2e8ca40d2e640c2c4e6eae4c8d8f240d0d2ced60231b604482015290519081900360640190fd5b6000806119478989612ecd565b9092509050600082600381111561195a57fe5b146119ac576040805162461bcd60e51b815260206004820152601f60248201527f636f756c64206e6f742063616c63756c61746520626c6f636b2064656c746100604482015290519081900360640190fd5b6119b4614ec7565b6000806000806119d260405180602001604052808a81525087612ef0565b909750945060008760038111156119e557fe5b14611a1757611a02600960068960038111156119fd57fe5b612f58565b9e505050505050505050505050505050610ddd565b611a21858c6127e4565b90975093506000876003811115611a3457fe5b14611a4c57611a02600960018960038111156119fd57fe5b611a56848c612fbe565b90975092506000876003811115611a6957fe5b14611a8157611a02600960048960038111156119fd57fe5b611a9c6040518060200160405280600854815250858c612fe4565b90975091506000876003811115611aaf57fe5b14611ac757611a02600960058960038111156119fd57fe5b611ad2858a8b612fe4565b90975090506000876003811115611ae557fe5b14611afd57611a02600960038960038111156119fd57fe5b60098e9055600a819055600b839055600c829055604080518d8152602081018690528082018390526060810185905290517f4dec04e750ca11537cabcd8a9eab06494de08da3735bc8871cd41250e190bc049181900360800190a160009e50505050505050505050505050505090565b6000805460ff16611bb2576040805162461bcd60e51b815260206004820152600a6024820152691c994b595b9d195c995960b21b604482015290519081900360640190fd5b6000805460ff19168155611bc833338686612555565b1490506000805460ff1916600117905592915050565b600a5481565b6000611bf1833484613040565b509050611c2c81604051806040016040528060168152602001751b1a5c5d5a59185d19509bdc9c9bddc819985a5b195960521b8152506122a7565b505050565b6006546000906001600160a01b031663b8168816611c4d612838565b600b54600c546008546040518563ffffffff1660e01b81526004018085815260200184815260200183815260200182815260200194505050505060206040518083038186803b158015611c9f57600080fd5b505afa158015611cb3573d6000803e3d6000fd5b505050506040513d6020811015611cc957600080fd5b5051905090565b6000805460ff16611d15576040805162461bcd60e51b815260206004820152600a6024820152691c994b595b9d195c995960b21b604482015290519081900360640190fd5b6000805460ff19169055611d2b33858585613172565b90506000805460ff191660011790559392505050565b60035460009061010090046001600160a01b03163314611d6757610f5760016045612864565b600480546001600160a01b038481166001600160a01b0319831681179093556040805191909216808252602082019390935281517fca4f2f25d0898edd99413412fb94012f9e54ec8142f9b093e7720646a95b16a9929181900390910190a1600061107e565b6000805460ff16611e12576040805162461bcd60e51b815260206004820152600a6024820152691c994b595b9d195c995960b21b604482015290519081900360640190fd5b6000805460ff19168155611e24611816565b14611e6f576040805162461bcd60e51b81526020600482015260166024820152751858d8dc9d59481a5b9d195c995cdd0819985a5b195960521b604482015290519081900360640190fd5b611e77610d7d565b90506000805460ff1916600117905590565b6001600160a01b0381166000908152600e6020526040812054819081908190818080611eb489612ca1565b935090506000816003811115611ec657fe5b14611ee45760095b975060009650869550859450611f179350505050565b611eec6124a6565b925090506000816003811115611efe57fe5b14611f0a576009611ece565b5060009650919450925090505b9193509193565b6000610c6d826135e9565b600061107e838361294c565b6000610c6d82613668565b6001600160a01b039182166000908152600f6020908152604080832093909416825291909152205490565b6000611f7782346136e2565b509050611fb481604051806040016040528060188152602001771c995c185e509bdc9c9bddd0995a185b198819985a5b195960421b8152506122a7565b5050565b6004546000906001600160a01b031633141580611fd3575033155b15611feb57611fe460016000612864565b9050610ddd565b60038054600480546001600160a01b03818116610100818102610100600160a81b0319871617968790556001600160a01b031990931690935560408051948390048216808652929095041660208401528351909391927ff9ffabca9c8276e99321725bcb43fb076a6c66a54b7f21c4e8146d8519b417dc92908290030190a1600454604080516001600160a01b038085168252909216602083015280517fca4f2f25d0898edd99413412fb94012f9e54ec8142f9b093e7720646a95b16a99281900390910190a160009250505090565b6000806120c6611816565b905080156120ec576120e48160108111156120dd57fe5b6040612864565b915050610f1d565b61107e83612d59565b6006546001600160a01b031681565b60035461010090046001600160a01b031681565b6006546000906001600160a01b03166315f24053612134612838565b600b54600c546040518463ffffffff1660e01b815260040180848152602001838152602001828152602001935050505060206040518083038186803b158015611c9f57600080fd5b6000805460ff166121c1576040805162461bcd60e51b815260206004820152600a6024820152691c994b595b9d195c995960b21b604482015290519081900360640190fd5b6000805460ff191681556121d3611816565b905080156121f1576113ed8160108111156121ea57fe5b6046612864565b6113fe8361378d565b600181565b60008054819060ff16612246576040805162461bcd60e51b815260206004820152600a6024820152691c994b595b9d195c995960b21b604482015290519081900360640190fd5b6000805460ff19168155612258611816565b905080156122835761227681601081111561226f57fe5b601e612864565b9250600091506122939050565b61228d3385613835565b92509250505b6000805460ff191660011790559092909150565b816122b157611fb4565b606081516005016040519080825280601f01601f1916602001820160405280156122e2576020820181803883390190505b50905060005b8251811015612333578281815181106122fd57fe5b602001015160f81c60f81b82828151811061231457fe5b60200101906001600160f81b031916908160001a9053506001016122e8565b8151600160fd1b9083908390811061234757fe5b60200101906001600160f81b031916908160001a905350602860f81b82826001018151811061237257fe5b60200101906001600160f81b031916908160001a905350600a840460300160f81b8282600201815181106123a257fe5b60200101906001600160f81b031916908160001a905350600a840660300160f81b8282600301815181106123d257fe5b60200101906001600160f81b031916908160001a905350602960f81b8282600401815181106123fd57fe5b60200101906001600160f81b031916908160001a90535081841561249f5760405162461bcd60e51b81526004018080602001828103825283818151815260200191508051906020019080838360005b8381101561246457818101518382015260200161244c565b50505050905090810190601f1680156124915780820380516001836020036101000a031916815260200191505b509250505060405180910390fd5b5050505050565b600d546000908190806124c157505060075460009150612551565b60006124cb612838565b905060006124d7614ec7565b60006124e884600b54600c54613c05565b9350905060008160038111156124fa57fe5b1461250f579550600094506125519350505050565b6125198386613c43565b92509050600081600381111561252b57fe5b14612540579550600094506125519350505050565b505160009550935061255192505050565b9091565b600554604080516317b9b84b60e31b81523060048201526001600160a01b03868116602483015285811660448301526064820185905291516000938493169163bdcdc25891608480830192602092919082900301818787803b1580156125ba57600080fd5b505af11580156125ce573d6000803e3d6000fd5b505050506040513d60208110156125e457600080fd5b505190508015612603576125fb6003604a83612f58565b9150506127dc565b836001600160a01b0316856001600160a01b03161415612629576125fb6002604b612864565b60006001600160a01b0387811690871614156126485750600019612670565b506001600160a01b038086166000908152600f60209081526040808320938a16835292905220545b6000806000806126808589612ecd565b9094509250600084600381111561269357fe5b146126b1576126a46009604b612864565b96505050505050506127dc565b6001600160a01b038a166000908152600e60205260409020546126d49089612ecd565b909450915060008460038111156126e757fe5b146126f8576126a46009604c612864565b6001600160a01b0389166000908152600e602052604090205461271b9089612fbe565b9094509050600084600381111561272e57fe5b1461273f576126a46009604d612864565b6001600160a01b03808b166000908152600e6020526040808220859055918b168152208190556000198514612797576001600160a01b03808b166000908152600f60209081526040808320938f168352929052208390555b886001600160a01b03168a6001600160a01b03166000805160206151ac8339815191528a6040518082815260200191505060405180910390a360005b96505050505050505b949350505050565b60008060006127f1614ec7565b6127fb8686612ef0565b9092509050600082600381111561280e57fe5b1461281f5750915060009050612831565b600061282a82613cf3565b9350935050505b9250929050565b60008060006128474734612ecd565b9092509050600082600381111561285a57fe5b14610dd957600080fd5b60007f45b96fe442630264581b197e84bbada861235052c5a1aadfff9ea4e40a969aa083601081111561289357fe5b83605081111561289f57fe5b604080519283526020830191909152600082820152519081900360600190a182601081111561107e57fe5b60008054819060ff16612911576040805162461bcd60e51b815260206004820152600a6024820152691c994b595b9d195c995960b21b604482015290519081900360640190fd5b6000805460ff19168155612923611816565b905080156129415761227681601081111561293a57fe5b6036612864565b61228d333386613d02565b600554604080516306995d7d60e41b815290516000926001600160a01b031691636995d7d0916004808301926020929190829003018186803b15801561299157600080fd5b505afa1580156129a5573d6000803e3d6000fd5b505050506040513d60208110156129bb57600080fd5b50516040805163638d09e360e11b81523360048201526001600160a01b038681166024830152604482018690529151919092169163c71a13c6916064808301926020929190829003018186803b158015612a1457600080fd5b505afa158015612a28573d6000803e3d6000fd5b505050506040513d6020811015612a3e57600080fd5b50519392505050565b6040516001600160a01b0383169082156108fc029083906000818181858888f19350505050158015611c2c573d6000803e3d6000fd5b600061107e8383604051806040016040528060118152602001706164646974696f6e206f766572666c6f7760781b815250614050565b600061107e8383604051806040016040528060158152602001747375627472616374696f6e20756e646572666c6f7760581b8152506140ae565b600354600090819061010090046001600160a01b03163314612b15576120e460016031612864565b612b1d612d55565b60095414612b31576120e4600a6033612864565b82612b3a612838565b1015612b4c576120e4600e6032612864565b600c54831115612b62576120e460026034612864565b50600c5482810390811115612ba85760405162461bcd60e51b81526004018080602001828103825260248152602001806152c16024913960400191505060405180910390fd5b600c819055600354612bc89061010090046001600160a01b031684612a47565b600354604080516101009092046001600160a01b0316825260208201859052818101839052517f3bad0c59cf2f06e7314077049f48a93578cd16f5ef92329f1dab1420a99c177e916060908290030190a1600061107e565b6000805460ff16612c65576040805162461bcd60e51b815260206004820152600a6024820152691c994b595b9d195c995960b21b604482015290519081900360640190fd5b6000805460ff19168155612c77611816565b90508015612c95576113ed816010811115612c8e57fe5b6027612864565b6113fe33600085614108565b6001600160a01b038116600090815260106020526040812080548291829182918291612cd8575060009450849350612d5092505050565b612ce88160000154600a546145cf565b90945092506000846003811115612cfb57fe5b14612d10575091935060009250612d50915050565b612d1e83826001015461460e565b90945091506000846003811115612d3157fe5b14612d46575091935060009250612d50915050565b5060009450925050505b915091565b4390565b600354600090819061010090046001600160a01b03163314612d81576120e460016042612864565b612d89612d55565b60095414612d9d576120e4600a6041612864565b600660009054906101000a90046001600160a01b03169050826001600160a01b0316632191f92a6040518163ffffffff1660e01b815260040160206040518083038186803b158015612dee57600080fd5b505afa158015612e02573d6000803e3d6000fd5b505050506040513d6020811015612e1857600080fd5b5051612e6a576040805162461bcd60e51b815260206004820152601c60248201527b6d61726b6572206d6574686f642072657475726e65642066616c736560201b604482015290519081900360640190fd5b600680546001600160a01b0319166001600160a01b03858116918217909255604080519284168352602083019190915280517fedffc32e068c7c95dfd4bdfd5c4d939a084d6b11c4199eac8436ed234d72f9269281900390910190a1600061107e565b600080838311612ee4575060009050818303612831565b50600390506000612831565b6000612efa614ec7565b600080612f0b8660000151866145cf565b90925090506000826003811115612f1e57fe5b14612f3d57506040805160208101909152600081529092509050612831565b60408051602081019091529081526000969095509350505050565b60007f45b96fe442630264581b197e84bbada861235052c5a1aadfff9ea4e40a969aa0846010811115612f8757fe5b846050811115612f9357fe5b604080519283526020830191909152818101859052519081900360600190a18360108111156127dc57fe5b600080838301848110612fd657600092509050612831565b506002915060009050612831565b6000806000612ff1614ec7565b612ffb8787612ef0565b9092509050600082600381111561300e57fe5b1461301f5750915060009050613038565b61303161302b82613cf3565b86612fbe565b9350935050505b935093915050565b60008054819060ff16613087576040805162461bcd60e51b815260206004820152600a6024820152691c994b595b9d195c995960b21b604482015290519081900360640190fd5b6000805460ff19168155613099611816565b905080156130c4576130b78160108111156130b057fe5b600f612864565b92506000915061315b9050565b836001600160a01b031663a6afed956040518163ffffffff1660e01b8152600401602060405180830381600087803b1580156130ff57600080fd5b505af1158015613113573d6000803e3d6000fd5b505050506040513d602081101561312957600080fd5b505190508015613149576130b781601081111561314257fe5b6010612864565b61315533878787614639565b92509250505b6000805460ff191660011790559094909350915050565b6005546040805163d02f735160e01b81523060048201526001600160a01b038781166024830152868116604483015285811660648301526084820185905291516000938493169163d02f73519160a480830192602092919082900301818787803b1580156131df57600080fd5b505af11580156131f3573d6000803e3d6000fd5b505050506040513d602081101561320957600080fd5b505190508015613220576125fb6003601b83612f58565b846001600160a01b0316846001600160a01b03161415613246576125fb6006601c612864565b61324e614f58565b600080600560009054906101000a90046001600160a01b03166001600160a01b0316636995d7d06040518163ffffffff1660e01b815260040160206040518083038186803b15801561329f57600080fd5b505afa1580156132b3573d6000803e3d6000fd5b505050506040513d60208110156132c957600080fd5b505160055460408051636b4374f760e11b81526001600160a01b038d811660048301529151939450600093919092169163d686e9ee916024808301926020929190829003018186803b15801561331e57600080fd5b505afa158015613332573d6000803e3d6000fd5b505050506040513d602081101561334857600080fd5b505160408051630655a3bd60e11b8152600481018a90526024810183905281519293506001600160a01b03851692630cab477a92604480840193919291829003018186803b15801561339957600080fd5b505afa1580156133ad573d6000803e3d6000fd5b505050506040513d60408110156133c357600080fd5b508051602091820151606087015260808601526040805163ee9e819960e01b815290516000926001600160a01b0386169263ee9e81999260048083019392829003018186803b15801561341557600080fd5b505afa158015613429573d6000803e3d6000fd5b505050506040513d602081101561343f57600080fd5b50516001600160a01b038a166000908152600e60205260409020549091506134679089612ecd565b86529350600084600381111561347957fe5b14613491576126a46009601a8660038111156119fd57fe5b6001600160a01b038a166000908152600e602052604090205460808601516134b99190612fbe565b6020870152935060008460038111156134ce57fe5b146134e6576126a4600960198660038111156119fd57fe5b6001600160a01b0381166000908152600e6020526040902054606086015161350e9190612fbe565b60408701529350600084600381111561352357fe5b1461353b576126a4600960198660038111156119fd57fe5b84516001600160a01b03808b166000818152600e6020908152604080832095909555808a01518f851680845286842091909155858b015194871683529185902093909355608089015184519081529351909391926000805160206151ac833981519152928290030190a3806001600160a01b0316896001600160a01b03166000805160206151ac83398151915287606001516040518082815260200191505060405180910390a360006127d3565b6000805460ff1661362e576040805162461bcd60e51b815260206004820152600a6024820152691c994b595b9d195c995960b21b604482015290519081900360640190fd5b6000805460ff19168155613640611816565b9050801561365e576113ed81601081111561365757fe5b6008612864565b6113fe3384614b26565b6000805460ff166136ad576040805162461bcd60e51b815260206004820152600a6024820152691c994b595b9d195c995960b21b604482015290519081900360640190fd5b6000805460ff191681556136bf611816565b905080156136d6576113ed816010811115612c8e57fe5b6113fe33846000614108565b60008054819060ff16613729576040805162461bcd60e51b815260206004820152600a6024820152691c994b595b9d195c995960b21b604482015290519081900360640190fd5b6000805460ff1916815561373b611816565b905080156137665761375981601081111561375257fe5b6035612864565b9250600091506137779050565b613771338686613d02565b92509250505b6000805460ff1916600117905590939092509050565b60035460009061010090046001600160a01b031633146137b357610f5760016047612864565b6137bb612d55565b600954146137cf57610f57600a6048612864565b670de0b6b3a76400008211156137eb57610f5760026049612864565b6008805490839055604080518281526020810185905281517faaa68312e2ea9d50e16af5068410ab56e1a1fd06037b1a35664812c30f821460929181900390910190a1600061107e565b60055460408051634ef4c3e160e01b81523060048201526001600160a01b03858116602483015260448201859052915160009384938493911691634ef4c3e19160648082019260209290919082900301818787803b15801561389657600080fd5b505af11580156138aa573d6000803e3d6000fd5b505050506040513d60208110156138c057600080fd5b5051905080156138e4576138d76003601f83612f58565b9250600091506128319050565b6138ec612d55565b60095414613900576138d7600a6022612864565b613908614f87565b6139106124a6565b604083018190526020830182600381111561392757fe5b600381111561393257fe5b905250600090508160200151600381111561394957fe5b146139735761396560096021836020015160038111156119fd57fe5b935060009250612831915050565b61397d8686614dba565b60c082018190526040805160208101825290830151815261399e9190614e56565b60608301819052602083018260038111156139b557fe5b60038111156139c057fe5b90525060009050816020015160038111156139d757fe5b14613a29576040805162461bcd60e51b815260206004820181905260248201527f4d494e545f45584348414e47455f43414c43554c4154494f4e5f4641494c4544604482015290519081900360640190fd5b613a39600d548260600151612fbe565b6080830181905260208301826003811115613a5057fe5b6003811115613a5b57fe5b9052506000905081602001516003811115613a7257fe5b14613aae5760405162461bcd60e51b81526004018080602001828103825260288152602001806152656028913960400191505060405180910390fd5b6001600160a01b0386166000908152600e60205260409020546060820151613ad69190612fbe565b60a0830181905260208301826003811115613aed57fe5b6003811115613af857fe5b9052506000905081602001516003811115613b0f57fe5b14613b4b5760405162461bcd60e51b815260040180806020018281038252602b815260200180615110602b913960400191505060405180910390fd5b6080810151600d5560a08101516001600160a01b0387166000818152600e60209081526040918290209390935560c084015160608086015183519485529484019190915282820193909352517f4c209b5fc8ad50758f13e2e1088ba56a560dff690a1c6fef26394f4c03821c4f929181900390910190a1606081015160408051918252516001600160a01b0388169130916000805160206151ac8339815191529181900360200190a360c001516000969095509350505050565b600080600080613c158787612fbe565b90925090506000826003811115613c2857fe5b14613c395750915060009050613038565b6130318186612ecd565b6000613c4d614ec7565b600080613c6286670de0b6b3a76400006145cf565b90925090506000826003811115613c7557fe5b14613c9457506040805160208101909152600081529092509050612831565b600080613ca1838861460e565b90925090506000826003811115613cb457fe5b14613cd657506040805160208101909152600081529094509250612831915050565b604080516020810190915290815260009890975095505050505050565b51670de0b6b3a7640000900490565b60055460408051631200453160e11b81523060048201526001600160a01b0386811660248301528581166044830152606482018590529151600093849384939116916324008a629160848082019260209290919082900301818787803b158015613d6b57600080fd5b505af1158015613d7f573d6000803e3d6000fd5b505050506040513d6020811015613d9557600080fd5b505190508015613db957613dac6003603883612f58565b9250600091506130389050565b613dc1612d55565b60095414613dd557613dac600a6039612864565b613ddd614fc5565b6001600160a01b0386166000908152601060205260409020600101546060820152613e0786612ca1565b6080830181905260208301826003811115613e1e57fe5b6003811115613e2957fe5b9052506000905081602001516003811115613e4057fe5b14613e6a57613e5c60096037836020015160038111156119fd57fe5b935060009250613038915050565b600019851415613e835760808101516040820152613e8b565b604081018590525b613e99878260400151614dba565b60e082018190526080820151613eae91612ecd565b60a0830181905260208301826003811115613ec557fe5b6003811115613ed057fe5b9052506000905081602001516003811115613ee757fe5b14613f235760405162461bcd60e51b815260040180806020018281038252603a815260200180615172603a913960400191505060405180910390fd5b613f33600b548260e00151612ecd565b60c0830181905260208301826003811115613f4a57fe5b6003811115613f5557fe5b9052506000905081602001516003811115613f6c57fe5b14613fa85760405162461bcd60e51b81526004018080602001828103825260318152602001806151cc6031913960400191505060405180910390fd5b60a080820180516001600160a01b03808a16600081815260106020908152604091829020948555600a5460019095019490945560c0870151600b81905560e088015195518251948f16855294840192909252828101949094526060820192909252608081019190915290517f1a2a22cb034d26d1854bdc6666a5b91fe25efbbb5dcad3b0355478d6f5c362a1929181900390910190a160e00151600097909650945050505050565b600083830182858210156140a55760405162461bcd60e51b815260206004820181815283516024840152835190928392604490910191908501908083836000831561246457818101518382015260200161244c565b50949350505050565b600081848411156141005760405162461bcd60e51b815260206004820181815283516024840152835190928392604490910191908501908083836000831561246457818101518382015260200161244c565b505050900390565b6000821580614115575081155b6141505760405162461bcd60e51b815260040180806020018281038252603481526020018061528d6034913960400191505060405180910390fd5b614158614f87565b6141606124a6565b604083018190526020830182600381111561417757fe5b600381111561418257fe5b905250600090508160200151600381111561419957fe5b146141bd576141b56009602b836020015160038111156119fd57fe5b91505061107e565b831561423e5760608101849052604080516020810182529082015181526141e490856127e4565b60808301819052602083018260038111156141fb57fe5b600381111561420657fe5b905250600090508160200151600381111561421d57fe5b14614239576141b560096029836020015160038111156119fd57fe5b6142b7565b61425a8360405180602001604052808460400151815250614e56565b606083018190526020830182600381111561427157fe5b600381111561427c57fe5b905250600090508160200151600381111561429357fe5b146142af576141b56009602a836020015160038111156119fd57fe5b608081018390525b60055460608201516040805163eabe7d9160e01b81523060048201526001600160a01b03898116602483015260448201939093529051600093929092169163eabe7d919160648082019260209290919082900301818787803b15801561431c57600080fd5b505af1158015614330573d6000803e3d6000fd5b505050506040513d602081101561434657600080fd5b5051905080156143665761435d6003602883612f58565b9250505061107e565b61436e612d55565b600954146143825761435d600a602c612864565b614392600d548360600151612ecd565b60a08401819052602084018260038111156143a957fe5b60038111156143b457fe5b90525060009050826020015160038111156143cb57fe5b146143e75761435d6009602e846020015160038111156119fd57fe5b6001600160a01b0386166000908152600e6020526040902054606083015161440f9190612ecd565b60c084018190526020840182600381111561442657fe5b600381111561443157fe5b905250600090508260200151600381111561444857fe5b146144645761435d6009602d846020015160038111156119fd57fe5b8160800151614471612838565b10156144835761435d600e602f612864565b614491868360800151612a47565b60a0820151600d5560c08201516001600160a01b0387166000818152600e60209081526040918290209390935560608501518151908152905130936000805160206151ac833981519152928290030190a36080820151606080840151604080516001600160a01b038b168152602081019490945283810191909152517fe5b754fb1abb7f01b499791d0b820ae3b6af3424ac1c59768edb53f4ec31a9299281900390910190a160055460808301516060840151604080516351dff98960e01b81523060048201526001600160a01b038b81166024830152604482019490945260648101929092525191909216916351dff98991608480830192600092919082900301818387803b1580156145a457600080fd5b505af11580156145b8573d6000803e3d6000fd5b50600092506145c5915050565b9695505050505050565b600080836145e257506000905080612831565b838302838582816145ef57fe5b041461460357506002915060009050612831565b600092509050612831565b600080826146225750600190506000612831565b600083858161462d57fe5b04915091509250929050565b60055460408051632fe3f38f60e11b81523060048201526001600160a01b0384811660248301528781166044830152868116606483015260848201869052915160009384938493911691635fc7e71e9160a48082019260209290919082900301818787803b1580156146aa57600080fd5b505af11580156146be573d6000803e3d6000fd5b505050506040513d60208110156146d457600080fd5b5051905080156146f8576146eb6003601283612f58565b925060009150614b1d9050565b614700612d55565b60095414614714576146eb600a6016612864565b61471c612d55565b846001600160a01b0316636c540baf6040518163ffffffff1660e01b815260040160206040518083038186803b15801561475557600080fd5b505afa158015614769573d6000803e3d6000fd5b505050506040513d602081101561477f57600080fd5b505114614792576146eb600a6011612864565b866001600160a01b0316866001600160a01b031614156147b8576146eb60066017612864565b846147c9576146eb60076015612864565b6000198514156147df576146eb60076014612864565b6000806147ed898989613d02565b9092509050811561481d5761480e82601081111561480757fe5b6018612864565b945060009350614b1d92505050565b6005546040805163c488847b60e01b81523060048201526001600160a01b038981166024830152604482018590528251600094859492169263c488847b926064808301939192829003018186803b15801561487757600080fd5b505afa15801561488b573d6000803e3d6000fd5b505050506040513d60408110156148a157600080fd5b508051602090910151909250905081156148ec5760405162461bcd60e51b81526004018080602001828103825260338152602001806151fd6033913960400191505060405180910390fd5b80886001600160a01b03166370a082318c6040518263ffffffff1660e01b815260040180826001600160a01b03166001600160a01b0316815260200191505060206040518083038186803b15801561494357600080fd5b505afa158015614957573d6000803e3d6000fd5b505050506040513d602081101561496d57600080fd5b505110156149bd576040805162461bcd60e51b815260206004820152601860248201527709892a2aa928882a88abea68a92b48abea89e9ebe9aaa86960431b604482015290519081900360640190fd5b60006001600160a01b0389163014156149e3576149dc308d8d85613172565b9050614a6d565b6040805163b2a02ff160e01b81526001600160a01b038e811660048301528d81166024830152604482018590529151918b169163b2a02ff1916064808201926020929091908290030181600087803b158015614a3e57600080fd5b505af1158015614a52573d6000803e3d6000fd5b505050506040513d6020811015614a6857600080fd5b505190505b8015614ab7576040805162461bcd60e51b81526020600482015260146024820152731d1bdad95b881cd95a5e9d5c994819985a5b195960621b604482015290519081900360640190fd5b604080516001600160a01b03808f168252808e1660208301528183018790528b1660608201526080810184905290517f298637f684da70674f26509b10f07ec2fbc77a335ab1e7d6215a4b2484d8bb529181900360a00190a16000975092955050505050505b94509492505050565b6005546040805163368f515360e21b81523060048201526001600160a01b0385811660248301526044820185905291516000938493169163da3d454c91606480830192602092919082900301818787803b158015614b8357600080fd5b505af1158015614b97573d6000803e3d6000fd5b505050506040513d6020811015614bad57600080fd5b505190508015614bcc57614bc46003600e83612f58565b915050610c6d565b614bd4612d55565b60095414614be757614bc4600a80612864565b82614bf0612838565b1015614c0257614bc4600e6009612864565b614c0a61500b565b614c1385612ca1565b6020830181905282826003811115614c2757fe5b6003811115614c3257fe5b9052506000905081516003811115614c4657fe5b14614c6b57614c6260096007836000015160038111156119fd57fe5b92505050610c6d565b614c79816020015185612fbe565b6040830181905282826003811115614c8d57fe5b6003811115614c9857fe5b9052506000905081516003811115614cac57fe5b14614cc857614c626009600c836000015160038111156119fd57fe5b614cd4600b5485612fbe565b6060830181905282826003811115614ce857fe5b6003811115614cf357fe5b9052506000905081516003811115614d0757fe5b14614d2357614c626009600b836000015160038111156119fd57fe5b614d2d8585612a47565b604080820180516001600160a01b03881660008181526010602090815290859020928355600a54600190930192909255606080860151600b81905593518551928352928201899052818501929092529081019190915290517f13ed6866d4e1ee6da46f845c46d7e54120883d75c5ea9a2dacc1c4ca8984ab809181900360800190a1600095945050505050565b6000336001600160a01b03841614614e0b576040805162461bcd60e51b815260206004820152600f60248201526e0e6cadcc8cae440dad2e6dac2e8c6d608b1b604482015290519081900360640190fd5b813414614e50576040805162461bcd60e51b815260206004820152600e60248201526d0ecc2d8eaca40dad2e6dac2e8c6d60931b604482015290519081900360640190fd5b50919050565b6000806000614e63614ec7565b6127fb86866000614e72614ec7565b600080614e87670de0b6b3a7640000876145cf565b90925090506000826003811115614e9a57fe5b14614eb957506040805160208101909152600081529092509050612831565b61282a818660000151613c43565b6040518060200160405280600081525090565b828054600181600116156101000203166002900490600052602060002090601f016020900481019282601f10614f1b57805160ff1916838001178555614f48565b82800160010185558215614f48579182015b82811115614f48578251825591602001919060010190614f2d565b50614f54929150615034565b5090565b6040518060a0016040528060008152602001600081526020016000815260200160008152602001600081525090565b6040805160e0810190915280600081526020016000815260200160008152602001600081526020016000815260200160008152602001600081525090565b6040805161010081019091528060008152602001600081526020016000815260200160008152602001600081526020016000815260200160008152602001600081525090565b604080516080810190915280600081526020016000815260200160008152602001600081525090565b610ddd91905b80821115614f54576000815560010161503a56fe6f6e6c792061646d696e206d617920696e697469616c697a6520746865206d61726b65746d61726b6574206d6179206f6e6c7920626520696e697469616c697a6564206f6e6365696e697469616c2065786368616e67652072617465206d7573742062652067726561746572207468616e207a65726f2e4572726f7220746f2063616c63756c61746520666c6173686c6f616e20726573657276652066656573657474696e6720696e7465726573742072617465206d6f64656c206661696c65644d494e545f4e45575f4143434f554e545f42414c414e43455f43414c43554c4154494f4e5f4641494c4544626f72726f7742616c616e636553746f7265643a20626f72726f7742616c616e636553746f726564496e7465726e616c206661696c656452455041595f424f52524f575f4e45575f4143434f554e545f424f52524f575f42414c414e43455f43414c43554c4154494f4e5f4641494c4544ddf252ad1be2c89b69c2b068fc378daa952ba7f163c4a11628f55a4df523b3ef52455041595f424f52524f575f4e45575f544f54414c5f42414c414e43455f43414c43554c4154494f4e5f4641494c45444c49515549444154455f434f4d5054524f4c4c45525f43414c43554c4154455f414d4f554e545f5345495a455f4641494c454465786368616e67655261746553746f7265643a2065786368616e67655261746553746f726564496e7465726e616c206661696c65644d494e545f4e45575f544f54414c5f535550504c595f43414c43554c4154494f4e5f4641494c45446f6e65206f662072656465656d546f6b656e73496e206f722072656465656d416d6f756e74496e206d757374206265207a65726f72656475636520726573657276657320756e657870656374656420756e646572666c6f77a265627a7a72315820d09ccb26faa6aaa21e9ae610cea436b610adad224ac20822033f5146e8662c2064736f6c634300051000326f6e6c792061646d696e206d617920696e697469616c697a6520746865206d61726b65746d61726b6574206d6179206f6e6c7920626520696e697469616c697a6564206f6e6365696e697469616c2065786368616e67652072617465206d7573742062652067726561746572207468616e207a65726f2e73657474696e6720696e7465726573742072617465206d6f64656c206661696c6564",
  "source": "pragma solidity ^0.5.16;\n\nimport \"./CToken.sol\";\nimport \"../SToken.sol\";\n\n/**\n * @title Compound's CEther Contract\n * @notice CToken which wraps Ether\n * @author Compound\n */\ncontract CEther is SToken {\n    /**\n     * @notice Construct a new CEther money market\n     * @param comptroller_ The address of the Comptroller\n     * @param interestRateModel_ The address of the interest rate model\n     * @param initialExchangeRateMantissa_ The initial exchange rate, scaled by 1e18\n     * @param name_ ERC-20 name of this token\n     * @param symbol_ ERC-20 symbol of this token\n     * @param decimals_ ERC-20 decimal precision of this token\n     * @param admin_ Address of the administrator of this token\n     */\n    constructor(ComptrollerInterface comptroller_,\n                InterestRateModel interestRateModel_,\n                uint initialExchangeRateMantissa_,\n                string memory name_,\n                string memory symbol_,\n                uint8 decimals_,\n                address payable admin_) public {\n        // Creator of the contract is admin during initialization\n        admin = msg.sender;\n\n        initialize(comptroller_, interestRateModel_, initialExchangeRateMantissa_, name_, symbol_, decimals_);\n\n        // Set the proper admin now that initialization is done\n        admin = admin_;\n    }\n\n\n    /*** User Interface ***/\n\n    /**\n     * @notice Sender supplies assets into the market and receives cTokens in exchange\n     * @dev Reverts upon any failure\n     */\n    function mint() external payable {\n        (uint err,) = mintInternal(msg.value);\n        requireNoError(err, \"mint failed\");\n    }\n\n    /**\n     * @notice Sender redeems cTokens in exchange for the underlying asset\n     * @dev Accrues interest whether or not the operation succeeds, unless reverted\n     * @param redeemTokens The number of cTokens to redeem into underlying\n     * @return uint 0=success, otherwise a failure (see ErrorReporter.sol for details)\n     */\n    function redeem(uint redeemTokens) external returns (uint) {\n        return redeemInternal(redeemTokens);\n    }\n\n    /**\n     * @notice Sender redeems cTokens in exchange for a specified amount of underlying asset\n     * @dev Accrues interest whether or not the operation succeeds, unless reverted\n     * @param redeemAmount The amount of underlying to redeem\n     * @return uint 0=success, otherwise a failure (see ErrorReporter.sol for details)\n     */\n    function redeemUnderlying(uint redeemAmount) external returns (uint) {\n        return redeemUnderlyingInternal(redeemAmount);\n    }\n\n    /**\n      * @notice Sender borrows assets from the protocol to their own address\n      * @param borrowAmount The amount of the underlying asset to borrow\n      * @return uint 0=success, otherwise a failure (see ErrorReporter.sol for details)\n      */\n    function borrow(uint borrowAmount) external returns (uint) {\n        return borrowInternal(borrowAmount);\n    }\n\n    /**\n     * @notice Sender repays their own borrow\n     * @dev Reverts upon any failure\n     */\n    function repayBorrow() external payable {\n        (uint err,) = repayBorrowInternal(msg.value);\n        requireNoError(err, \"repayBorrow failed\");\n    }\n\n    /**\n     * @notice Sender repays a borrow belonging to borrower\n     * @dev Reverts upon any failure\n     * @param borrower the account with the debt being payed off\n     */\n    function repayBorrowBehalf(address borrower) external payable {\n        (uint err,) = repayBorrowBehalfInternal(borrower, msg.value);\n        requireNoError(err, \"repayBorrowBehalf failed\");\n    }\n\n    /**\n     * @notice The sender liquidates the borrowers collateral.\n     *  The collateral seized is transferred to the liquidator.\n     * @dev Reverts upon any failure\n     * @param borrower The borrower of this cToken to be liquidated\n     * @param cTokenCollateral The market in which to seize collateral from the borrower\n     */\n    function liquidateBorrow(address borrower, CToken cTokenCollateral) external payable {\n        (uint err,) = liquidateBorrowInternal(borrower, msg.value, cTokenCollateral);\n        requireNoError(err, \"liquidateBorrow failed\");\n    }\n\n    /**\n     * @notice Send Ether to CEther\n     */\n    function () external payable {\n    }\n\n    /*** Safe Token ***/\n\n    /**\n     * @notice Gets balance of this contract in terms of Ether, before this message\n     * @dev This excludes the value of the current message, if any\n     * @return The quantity of Ether owned by this contract\n     */\n    function getCashPrior() internal view returns (uint) {\n        (MathError err, uint startingBalance) = subUInt(address(this).balance, msg.value);\n        require(err == MathError.NO_ERROR);\n        return startingBalance;\n    }\n\n    /**\n     * @notice Perform the actual transfer in, which is a no-op\n     * @param from Address sending the Ether\n     * @param amount Amount of Ether being sent\n     * @return The actual amount of Ether transferred\n     */\n    function doTransferIn(address from, uint amount) internal returns (uint) {\n        // Sanity checks\n        require(msg.sender == from, \"sender mismatch\");\n        require(msg.value == amount, \"value mismatch\");\n        return amount;\n    }\n\n    function doTransferOut(address payable to, uint amount) internal {\n        /* Send the Ether, with minimal gas and revert on failure */\n        to.transfer(amount);\n    }\n\n    function requireNoError(uint errCode, string memory message) internal pure {\n        if (errCode == uint(Error.NO_ERROR)) {\n            return;\n        }\n\n        bytes memory fullMessage = new bytes(bytes(message).length + 5);\n        uint i;\n\n        for (i = 0; i < bytes(message).length; i++) {\n            fullMessage[i] = bytes(message)[i];\n        }\n\n        fullMessage[i+0] = byte(uint8(32));\n        fullMessage[i+1] = byte(uint8(40));\n        fullMessage[i+2] = byte(uint8(48 + ( errCode / 10 )));\n        fullMessage[i+3] = byte(uint8(48 + ( errCode % 10 )));\n        fullMessage[i+4] = byte(uint8(41));\n\n        require(errCode == uint(Error.NO_ERROR), string(fullMessage));\n    }\n\n    function isNativeToken() public pure returns (bool) {\n        return true;\n    }\n}\n",
  "sourcePath": "/Users/ashton/repo/blockchain/eth/smartcontracts/quicksilver-protocol/contracts/compound/CEther.sol",
  "compiler": {
    "name": "solc",
    "version": "0.5.16+commit.9c3226ce.Emscripten.clang"
  },
  "schemaVersion": "3.4.1",
  "updatedAt": "2021-08-16T22:55:24.151Z",
  "devdoc": {
    "author": "Compound",
    "methods": {
      "_acceptAdmin()": {
        "details": "Admin function for pending admin to accept role and update admin",
        "return": "uint 0=success, otherwise a failure (see ErrorReporter.sol for details)"
      },
      "_reduceReserves(uint256)": {
        "params": {
          "reduceAmount": "Amount of reduction to reserves"
        },
        "return": "uint 0=success, otherwise a failure (see ErrorReporter.sol for details)"
      },
      "_setComptroller(address)": {
        "details": "Admin function to set a new comptroller",
        "return": "uint 0=success, otherwise a failure (see ErrorReporter.sol for details)"
      },
      "_setInterestRateModel(address)": {
        "details": "Admin function to accrue interest and update the interest rate model",
        "params": {
          "newInterestRateModel": "the new interest rate model to use"
        },
        "return": "uint 0=success, otherwise a failure (see ErrorReporter.sol for details)"
      },
      "_setPendingAdmin(address)": {
        "details": "Admin function to begin change of admin. The newPendingAdmin must call `_acceptAdmin` to finalize the transfer.",
        "params": {
          "newPendingAdmin": "New pending admin."
        },
        "return": "uint 0=success, otherwise a failure (see ErrorReporter.sol for details)"
      },
      "_setReserveFactor(uint256)": {
        "details": "Admin function to accrue interest and set a new reserve factor",
        "return": "uint 0=success, otherwise a failure (see ErrorReporter.sol for details)"
      },
      "accrueInterest()": {
        "details": "This calculates interest accrued from the last checkpointed block  up to the current block and writes new checkpoint to storage."
      },
      "allowance(address,address)": {
        "params": {
          "owner": "The address of the account which owns the tokens to be spent",
          "spender": "The address of the account which may transfer tokens"
        },
        "return": "The number of tokens allowed to be spent (-1 means infinite)"
      },
      "approve(address,uint256)": {
        "details": "This will overwrite the approval amount for `spender` and is subject to issues noted [here](https://eips.ethereum.org/EIPS/eip-20#approve)",
        "params": {
          "amount": "The number of tokens that are approved (-1 means infinite)",
          "spender": "The address of the account which may transfer tokens"
        },
        "return": "Whether or not the approval succeeded"
      },
      "balanceOf(address)": {
        "params": {
          "owner": "The address of the account to query"
        },
        "return": "The number of tokens owned by `owner`"
      },
      "balanceOfUnderlying(address)": {
        "details": "This also accrues interest in a transaction",
        "params": {
          "owner": "The address of the account to query"
        },
        "return": "The amount of underlying owned by `owner`"
      },
      "borrow(uint256)": {
        "params": {
          "borrowAmount": "The amount of the underlying asset to borrow"
        },
        "return": "uint 0=success, otherwise a failure (see ErrorReporter.sol for details)"
      },
      "borrowBalanceCurrent(address)": {
        "params": {
          "account": "The address whose balance should be calculated after updating borrowIndex"
        },
        "return": "The calculated balance"
      },
      "borrowBalanceStored(address)": {
        "params": {
          "account": "The address whose balance should be calculated"
        },
        "return": "The calculated balance"
      },
      "borrowRatePerBlock()": {
        "return": "The borrow interest rate per block, scaled by 1e18"
      },
      "constructor": {
        "params": {
          "admin_": "Address of the administrator of this token",
          "comptroller_": "The address of the Comptroller",
          "decimals_": "ERC-20 decimal precision of this token",
          "initialExchangeRateMantissa_": "The initial exchange rate, scaled by 1e18",
          "interestRateModel_": "The address of the interest rate model",
          "name_": "ERC-20 name of this token",
          "symbol_": "ERC-20 symbol of this token"
        }
      },
      "exchangeRateCurrent()": {
        "return": "Calculated exchange rate scaled by 1e18"
      },
      "exchangeRateStored()": {
        "details": "This function does not accrue interest before calculating the exchange rate",
        "return": "Calculated exchange rate scaled by 1e18"
      },
      "flashFee(address,uint256)": {
        "details": "The fee to be charged for a given loan.",
        "params": {
          "amount": "The amount of tokens lent.",
          "token": "The loan currency."
        },
        "return": "The amount of `token` to be charged for the loan, on top of the returned principal."
      },
      "flashLoan(address,address,uint256,bytes)": {
        "details": "Initiate a flash loan.",
        "params": {
          "amount": "The amount of tokens lent.",
          "data": "Arbitrary data structure, intended to contain user-defined parameters.",
          "receiver": "The receiver of the tokens in the loan, and the receiver of the callback.",
          "token": "The loan currency."
        }
      },
      "getAccountSnapshot(address)": {
        "details": "This is used by comptroller to more efficiently perform liquidity checks.",
        "params": {
          "account": "Address of the account to snapshot"
        },
        "return": "(possible error, token balance, borrow balance, exchange rate mantissa)"
      },
      "getCash()": {
        "return": "The quantity of underlying asset owned by this contract"
      },
      "initialize(address,address,uint256,string,string,uint8)": {
        "params": {
          "comptroller_": "The address of the Comptroller",
          "decimals_": "EIP-20 decimal precision of this token",
          "initialExchangeRateMantissa_": "The initial exchange rate, scaled by 1e18",
          "interestRateModel_": "The address of the interest rate model",
          "name_": "EIP-20 name of this token",
          "symbol_": "EIP-20 symbol of this token"
        }
      },
      "liquidateBorrow(address,address)": {
        "details": "Reverts upon any failure",
        "params": {
          "borrower": "The borrower of this cToken to be liquidated",
          "cTokenCollateral": "The market in which to seize collateral from the borrower"
        }
      },
      "maxFlashLoan(address)": {
        "details": "The amount of currency available to be lent.",
        "params": {
          "token": "The loan currency."
        },
        "return": "The amount of `token` that can be borrowed."
      },
      "mint()": {
        "details": "Reverts upon any failure"
      },
      "redeem(uint256)": {
        "details": "Accrues interest whether or not the operation succeeds, unless reverted",
        "params": {
          "redeemTokens": "The number of cTokens to redeem into underlying"
        },
        "return": "uint 0=success, otherwise a failure (see ErrorReporter.sol for details)"
      },
      "redeemUnderlying(uint256)": {
        "details": "Accrues interest whether or not the operation succeeds, unless reverted",
        "params": {
          "redeemAmount": "The amount of underlying to redeem"
        },
        "return": "uint 0=success, otherwise a failure (see ErrorReporter.sol for details)"
      },
      "repayBorrow()": {
        "details": "Reverts upon any failure"
      },
      "repayBorrowBehalf(address)": {
        "details": "Reverts upon any failure",
        "params": {
          "borrower": "the account with the debt being payed off"
        }
      },
      "seize(address,address,uint256)": {
        "details": "Will fail unless called by another cToken during the process of liquidation. Its absolutely critical to use msg.sender as the borrowed cToken and not a parameter.",
        "params": {
          "borrower": "The account having collateral seized",
          "liquidator": "The account receiving seized collateral",
          "seizeTokens": "The number of cTokens to seize"
        },
        "return": "uint 0=success, otherwise a failure (see ErrorReporter.sol for details)"
      },
      "supplyRatePerBlock()": {
        "return": "The supply interest rate per block, scaled by 1e18"
      },
      "totalBorrowsCurrent()": {
        "return": "The total borrows with interest"
      },
      "transfer(address,uint256)": {
        "params": {
          "amount": "The number of tokens to transfer",
          "dst": "The address of the destination account"
        },
        "return": "Whether or not the transfer succeeded"
      },
      "transferFrom(address,address,uint256)": {
        "params": {
          "amount": "The number of tokens to transfer",
          "dst": "The address of the destination account",
          "src": "The address of the source account"
        },
        "return": "Whether or not the transfer succeeded"
      }
    },
    "title": "Compound's CEther Contract"
  },
  "userdoc": {
    "methods": {
      "_acceptAdmin()": {
        "notice": "Accepts transfer of admin rights. msg.sender must be pendingAdmin"
      },
      "_reduceReserves(uint256)": {
        "notice": "Accrues interest and reduces reserves by transferring to admin"
      },
      "_setComptroller(address)": {
        "notice": "Sets a new comptroller for the market"
      },
      "_setInterestRateModel(address)": {
        "notice": "accrues interest and updates the interest rate model using _setInterestRateModelFresh"
      },
      "_setPendingAdmin(address)": {
        "notice": "Begins transfer of admin rights. The newPendingAdmin must call `_acceptAdmin` to finalize the transfer."
      },
      "_setReserveFactor(uint256)": {
        "notice": "accrues interest and sets a new reserve factor for the protocol using _setReserveFactorFresh"
      },
      "accrueInterest()": {
        "notice": "Applies accrued interest to total borrows and reserves"
      },
      "allowance(address,address)": {
        "notice": "Get the current allowance from `owner` for `spender`"
      },
      "approve(address,uint256)": {
        "notice": "Approve `spender` to transfer up to `amount` from `src`"
      },
      "balanceOf(address)": {
        "notice": "Get the token balance of the `owner`"
      },
      "balanceOfUnderlying(address)": {
        "notice": "Get the underlying balance of the `owner`"
      },
      "borrow(uint256)": {
        "notice": "Sender borrows assets from the protocol to their own address"
      },
      "borrowBalanceCurrent(address)": {
        "notice": "Accrue interest to updated borrowIndex and then calculate account's borrow balance using the updated borrowIndex"
      },
      "borrowBalanceStored(address)": {
        "notice": "Return the borrow balance of account based on stored data"
      },
      "borrowRatePerBlock()": {
        "notice": "Returns the current per-block borrow interest rate for this cToken"
      },
      "constructor": "Construct a new CEther money market",
      "exchangeRateCurrent()": {
        "notice": "Accrue interest then return the up-to-date exchange rate"
      },
      "exchangeRateStored()": {
        "notice": "Calculates the exchange rate from the underlying to the CToken"
      },
      "getAccountSnapshot(address)": {
        "notice": "Get a snapshot of the account's balances, and the cached exchange rate"
      },
      "getCash()": {
        "notice": "Get cash balance of this cToken in the underlying asset"
      },
      "initialize(address,address,uint256,string,string,uint8)": {
        "notice": "Initialize the money market"
      },
      "liquidateBorrow(address,address)": {
        "notice": "The sender liquidates the borrowers collateral. The collateral seized is transferred to the liquidator."
      },
      "mint()": {
        "notice": "Sender supplies assets into the market and receives cTokens in exchange"
      },
      "redeem(uint256)": {
        "notice": "Sender redeems cTokens in exchange for the underlying asset"
      },
      "redeemUnderlying(uint256)": {
        "notice": "Sender redeems cTokens in exchange for a specified amount of underlying asset"
      },
      "repayBorrow()": {
        "notice": "Sender repays their own borrow"
      },
      "repayBorrowBehalf(address)": {
        "notice": "Sender repays a borrow belonging to borrower"
      },
      "seize(address,address,uint256)": {
        "notice": "Transfers collateral tokens (this market) to the liquidator."
      },
      "supplyRatePerBlock()": {
        "notice": "Returns the current per-block supply interest rate for this cToken"
      },
      "totalBorrowsCurrent()": {
        "notice": "Returns the current total borrows plus accrued interest"
      },
      "transfer(address,uint256)": {
        "notice": "Transfer `amount` tokens from `msg.sender` to `dst`"
      },
      "transferFrom(address,address,uint256)": {
        "notice": "Transfer `amount` tokens from `src` to `dst`"
      }
    },
    "notice": "CToken which wraps Ether"
  }
}