{
  "contractName": "Comp",
  "abi": [
    {
      "inputs": [
        {
          "internalType": "address",
          "name": "account",
          "type": "address"
        }
      ],
      "payable": false,
      "stateMutability": "nonpayable",
      "type": "constructor"
    },
    {
      "anonymous": false,
      "inputs": [
        {
          "indexed": true,
          "internalType": "address",
          "name": "owner",
          "type": "address"
        },
        {
          "indexed": true,
          "internalType": "address",
          "name": "spender",
          "type": "address"
        },
        {
          "indexed": false,
          "internalType": "uint256",
          "name": "amount",
          "type": "uint256"
        }
      ],
      "name": "Approval",
      "type": "event"
    },
    {
      "anonymous": false,
      "inputs": [
        {
          "indexed": true,
          "internalType": "address",
          "name": "delegator",
          "type": "address"
        },
        {
          "indexed": true,
          "internalType": "address",
          "name": "fromDelegate",
          "type": "address"
        },
        {
          "indexed": true,
          "internalType": "address",
          "name": "toDelegate",
          "type": "address"
        }
      ],
      "name": "DelegateChanged",
      "type": "event"
    },
    {
      "anonymous": false,
      "inputs": [
        {
          "indexed": true,
          "internalType": "address",
          "name": "delegate",
          "type": "address"
        },
        {
          "indexed": false,
          "internalType": "uint256",
          "name": "previousBalance",
          "type": "uint256"
        },
        {
          "indexed": false,
          "internalType": "uint256",
          "name": "newBalance",
          "type": "uint256"
        }
      ],
      "name": "DelegateVotesChanged",
      "type": "event"
    },
    {
      "anonymous": false,
      "inputs": [
        {
          "indexed": true,
          "internalType": "address",
          "name": "from",
          "type": "address"
        },
        {
          "indexed": true,
          "internalType": "address",
          "name": "to",
          "type": "address"
        },
        {
          "indexed": false,
          "internalType": "uint256",
          "name": "amount",
          "type": "uint256"
        }
      ],
      "name": "Transfer",
      "type": "event"
    },
    {
      "constant": true,
      "inputs": [],
      "name": "DELEGATION_TYPEHASH",
      "outputs": [
        {
          "internalType": "bytes32",
          "name": "",
          "type": "bytes32"
        }
      ],
      "payable": false,
      "stateMutability": "view",
      "type": "function"
    },
    {
      "constant": true,
      "inputs": [],
      "name": "DOMAIN_TYPEHASH",
      "outputs": [
        {
          "internalType": "bytes32",
          "name": "",
          "type": "bytes32"
        }
      ],
      "payable": false,
      "stateMutability": "view",
      "type": "function"
    },
    {
      "constant": true,
      "inputs": [
        {
          "internalType": "address",
          "name": "",
          "type": "address"
        },
        {
          "internalType": "uint32",
          "name": "",
          "type": "uint32"
        }
      ],
      "name": "checkpoints",
      "outputs": [
        {
          "internalType": "uint32",
          "name": "fromBlock",
          "type": "uint32"
        },
        {
          "internalType": "uint96",
          "name": "votes",
          "type": "uint96"
        }
      ],
      "payable": false,
      "stateMutability": "view",
      "type": "function"
    },
    {
      "constant": true,
      "inputs": [],
      "name": "decimals",
      "outputs": [
        {
          "internalType": "uint8",
          "name": "",
          "type": "uint8"
        }
      ],
      "payable": false,
      "stateMutability": "view",
      "type": "function"
    },
    {
      "constant": true,
      "inputs": [
        {
          "internalType": "address",
          "name": "",
          "type": "address"
        }
      ],
      "name": "delegates",
      "outputs": [
        {
          "internalType": "address",
          "name": "",
          "type": "address"
        }
      ],
      "payable": false,
      "stateMutability": "view",
      "type": "function"
    },
    {
      "constant": true,
      "inputs": [],
      "name": "name",
      "outputs": [
        {
          "internalType": "string",
          "name": "",
          "type": "string"
        }
      ],
      "payable": false,
      "stateMutability": "view",
      "type": "function"
    },
    {
      "constant": true,
      "inputs": [
        {
          "internalType": "address",
          "name": "",
          "type": "address"
        }
      ],
      "name": "nonces",
      "outputs": [
        {
          "internalType": "uint256",
          "name": "",
          "type": "uint256"
        }
      ],
      "payable": false,
      "stateMutability": "view",
      "type": "function"
    },
    {
      "constant": true,
      "inputs": [
        {
          "internalType": "address",
          "name": "",
          "type": "address"
        }
      ],
      "name": "numCheckpoints",
      "outputs": [
        {
          "internalType": "uint32",
          "name": "",
          "type": "uint32"
        }
      ],
      "payable": false,
      "stateMutability": "view",
      "type": "function"
    },
    {
      "constant": true,
      "inputs": [],
      "name": "symbol",
      "outputs": [
        {
          "internalType": "string",
          "name": "",
          "type": "string"
        }
      ],
      "payable": false,
      "stateMutability": "view",
      "type": "function"
    },
    {
      "constant": true,
      "inputs": [],
      "name": "totalSupply",
      "outputs": [
        {
          "internalType": "uint256",
          "name": "",
          "type": "uint256"
        }
      ],
      "payable": false,
      "stateMutability": "view",
      "type": "function"
    },
    {
      "constant": true,
      "inputs": [
        {
          "internalType": "address",
          "name": "account",
          "type": "address"
        },
        {
          "internalType": "address",
          "name": "spender",
          "type": "address"
        }
      ],
      "name": "allowance",
      "outputs": [
        {
          "internalType": "uint256",
          "name": "",
          "type": "uint256"
        }
      ],
      "payable": false,
      "stateMutability": "view",
      "type": "function"
    },
    {
      "constant": false,
      "inputs": [
        {
          "internalType": "address",
          "name": "spender",
          "type": "address"
        },
        {
          "internalType": "uint256",
          "name": "rawAmount",
          "type": "uint256"
        }
      ],
      "name": "approve",
      "outputs": [
        {
          "internalType": "bool",
          "name": "",
          "type": "bool"
        }
      ],
      "payable": false,
      "stateMutability": "nonpayable",
      "type": "function"
    },
    {
      "constant": true,
      "inputs": [
        {
          "internalType": "address",
          "name": "account",
          "type": "address"
        }
      ],
      "name": "balanceOf",
      "outputs": [
        {
          "internalType": "uint256",
          "name": "",
          "type": "uint256"
        }
      ],
      "payable": false,
      "stateMutability": "view",
      "type": "function"
    },
    {
      "constant": false,
      "inputs": [
        {
          "internalType": "address",
          "name": "dst",
          "type": "address"
        },
        {
          "internalType": "uint256",
          "name": "rawAmount",
          "type": "uint256"
        }
      ],
      "name": "transfer",
      "outputs": [
        {
          "internalType": "bool",
          "name": "",
          "type": "bool"
        }
      ],
      "payable": false,
      "stateMutability": "nonpayable",
      "type": "function"
    },
    {
      "constant": false,
      "inputs": [
        {
          "internalType": "address",
          "name": "src",
          "type": "address"
        },
        {
          "internalType": "address",
          "name": "dst",
          "type": "address"
        },
        {
          "internalType": "uint256",
          "name": "rawAmount",
          "type": "uint256"
        }
      ],
      "name": "transferFrom",
      "outputs": [
        {
          "internalType": "bool",
          "name": "",
          "type": "bool"
        }
      ],
      "payable": false,
      "stateMutability": "nonpayable",
      "type": "function"
    },
    {
      "constant": false,
      "inputs": [
        {
          "internalType": "address",
          "name": "delegatee",
          "type": "address"
        }
      ],
      "name": "delegate",
      "outputs": [],
      "payable": false,
      "stateMutability": "nonpayable",
      "type": "function"
    },
    {
      "constant": false,
      "inputs": [
        {
          "internalType": "address",
          "name": "delegatee",
          "type": "address"
        },
        {
          "internalType": "uint256",
          "name": "nonce",
          "type": "uint256"
        },
        {
          "internalType": "uint256",
          "name": "expiry",
          "type": "uint256"
        },
        {
          "internalType": "uint8",
          "name": "v",
          "type": "uint8"
        },
        {
          "internalType": "bytes32",
          "name": "r",
          "type": "bytes32"
        },
        {
          "internalType": "bytes32",
          "name": "s",
          "type": "bytes32"
        }
      ],
      "name": "delegateBySig",
      "outputs": [],
      "payable": false,
      "stateMutability": "nonpayable",
      "type": "function"
    },
    {
      "constant": true,
      "inputs": [
        {
          "internalType": "address",
          "name": "account",
          "type": "address"
        }
      ],
      "name": "getCurrentVotes",
      "outputs": [
        {
          "internalType": "uint96",
          "name": "",
          "type": "uint96"
        }
      ],
      "payable": false,
      "stateMutability": "view",
      "type": "function"
    },
    {
      "constant": true,
      "inputs": [
        {
          "internalType": "address",
          "name": "account",
          "type": "address"
        },
        {
          "internalType": "uint256",
          "name": "blockNumber",
          "type": "uint256"
        }
      ],
      "name": "getPriorVotes",
      "outputs": [
        {
          "internalType": "uint96",
          "name": "",
          "type": "uint96"
        }
      ],
      "payable": false,
      "stateMutability": "view",
      "type": "function"
    }
  ],
  "bytecode": "0x60806040523480156200001157600080fd5b5060405162001b8d38038062001b8d8339810160408190526200003491620000bc565b6001600160a01b03811660008181526001602052604080822080546001600160601b0319166a084595161401484a00000090811790915590517fddf252ad1be2c89b69c2b068fc378daa952ba7f163c4a11628f55a4df523b3ef916200009a91620000f6565b60405180910390a35062000135565b8051620000b6816200011b565b92915050565b600060208284031215620000cf57600080fd5b6000620000dd8484620000a9565b949350505050565b620000f08162000118565b82525050565b60208101620000b68284620000e5565b60006001600160a01b038216620000b6565b90565b620001268162000106565b81146200013257600080fd5b50565b611a4880620001456000396000f3fe608060405234801561001057600080fd5b50600436106100f15760003560e01c806306fdde03146100f6578063095ea7b31461011457806318160ddd1461013457806320606b701461014957806323b872dd14610151578063313ce56714610164578063587cde1e146101795780635c19a95c146101995780636fcfff45146101ae57806370a08231146101ce578063782d6fe1146101e15780637ecebe001461020157806395d89b4114610214578063a9059cbb1461021c578063b4b5ea571461022f578063c3cda52014610242578063dd62ed3e14610255578063e7a324dc14610268578063f1127ed814610270575b600080fd5b6100fe610291565b60405161010b91906116f9565b60405180910390f35b6101276101223660046111c9565b6102b5565b60405161010b919061164f565b61013c610372565b60405161010b919061165d565b61013c610381565b61012761015f36600461117c565b610398565b61016c6104dd565b60405161010b9190611793565b61018c61018736600461111c565b6104e2565b60405161010b9190611641565b6101ac6101a736600461111c565b6104fd565b005b6101c16101bc36600461111c565b61050a565b60405161010b919061176a565b61013c6101dc36600461111c565b610522565b6101f46101ef3660046111c9565b610546565b60405161010b91906117af565b61013c61020f36600461111c565b61075d565b6100fe61076f565b61012761022a3660046111c9565b61078f565b6101f461023d36600461111c565b6107cb565b6101ac6102503660046111f9565b61083b565b61013c610263366004611142565b610a25565b61013c610a57565b61028361027e366004611280565b610a63565b60405161010b929190611778565b6040518060400160405280600881526020016710dbdb5c1bdd5b9960c21b81525081565b6000806000198314156102cb57506000196102f0565b6102ed836040518060600160405280602581526020016118cb60259139610a98565b90505b336000818152602081815260408083206001600160a01b03891680855292529182902080546001600160601b0319166001600160601b03861617905590519091907f8c5be1e5ebec7d5bd14f71427d1e84f3dd0314c0f7b2291e5b200ac8c7c3b9259061035e9085906117a1565b60405180910390a360019150505b92915050565b6a084595161401484a00000081565b60405161038d9061162b565b604051809103902081565b6001600160a01b0383166000908152602081815260408083203380855290835281842054825160608101909352602580845291936001600160601b039091169285926103ee92889291906118cb90830139610a98565b9050866001600160a01b0316836001600160a01b03161415801561041b57506001600160601b0382811614155b156104c357600061044583836040518060600160405280603d81526020016119a2603d9139610ac7565b6001600160a01b03898116600081815260208181526040808320948a16808452949091529081902080546001600160601b0319166001600160601b0386161790555192935090917f8c5be1e5ebec7d5bd14f71427d1e84f3dd0314c0f7b2291e5b200ac8c7c3b925906104b99085906117a1565b60405180910390a3505b6104ce878783610b06565b600193505050505b9392505050565b601281565b6002602052600090815260409020546001600160a01b031681565b6105073382610cb1565b50565b60046020526000908152604090205463ffffffff1681565b6001600160a01b03166000908152600160205260409020546001600160601b031690565b60004382106105705760405162461bcd60e51b81526004016105679061172a565b60405180910390fd5b6001600160a01b03831660009081526004602052604090205463ffffffff168061059e57600091505061036c565b6001600160a01b038416600090815260036020908152604080832063ffffffff60001986018116855292529091205416831061061a576001600160a01b03841660009081526003602090815260408083206000199490940163ffffffff1683529290522054600160201b90046001600160601b0316905061036c565b6001600160a01b038416600090815260036020908152604080832083805290915290205463ffffffff1683101561065557600091505061036c565b600060001982015b8163ffffffff168163ffffffff16111561071857600282820363ffffffff160481036106876110d9565b506001600160a01b038716600090815260036020908152604080832063ffffffff858116855290835292819020815180830190925254928316808252600160201b9093046001600160601b031691810191909152908714156106f35760200151945061036c9350505050565b805163ffffffff1687111561070a57819350610711565b6001820392505b505061065d565b506001600160a01b038516600090815260036020908152604080832063ffffffff909416835292905220546001600160601b03600160201b9091041691505092915050565b60056020526000908152604090205481565b604051806040016040528060048152602001630436f6d760e41b81525081565b6000806107b4836040518060600160405280602681526020016118f060269139610a98565b90506107c1338583610b06565b5060019392505050565b6001600160a01b03811660009081526004602052604081205463ffffffff16806107f65760006104d6565b6001600160a01b0383166000908152600360209081526040808320600019850163ffffffff168452909152902054600160201b90046001600160601b03169392505050565b60006040516108499061162b565b60408051918290038220828201909152600882526710dbdb5c1bdd5b9960c21b6020909201919091527f561ca898cce9f021c15a441ef41899706e923541cee724530075d1a1144761c761089b610d3b565b306040516020016108af94939291906116a9565b60405160208183030381529060405280519060200120905060006040516108d590611636565b6040519081900381206108f0918a908a908a9060200161166b565b6040516020818303038152906040528051906020012090506000828260405160200161091d9291906115fa565b60405160208183030381529060405280519060200120905060006001828888886040516000815260200160405260405161095a94939291906116de565b6020604051602081039080840390855afa15801561097c573d6000803e3d6000fd5b5050604051601f1901519150506001600160a01b0381166109af5760405162461bcd60e51b81526004016105679061170a565b6001600160a01b038116600090815260056020526040902080546001810190915589146109ee5760405162461bcd60e51b81526004016105679061173a565b87421115610a0e5760405162461bcd60e51b81526004016105679061171a565b610a18818b610cb1565b505050505b505050505050565b6001600160a01b039182166000908152602081815260408083209390941682529190915220546001600160601b031690565b60405161038d90611636565b600360209081526000928352604080842090915290825290205463ffffffff811690600160201b90046001600160601b031682565b600081600160601b8410610abf5760405162461bcd60e51b815260040161056791906116f9565b509192915050565b6000836001600160601b0316836001600160601b031611158290610afe5760405162461bcd60e51b815260040161056791906116f9565b505050900390565b6001600160a01b038316610b2c5760405162461bcd60e51b81526004016105679061175a565b6001600160a01b038216610b525760405162461bcd60e51b81526004016105679061174a565b6001600160a01b038316600090815260016020908152604091829020548251606081019093526036808452610b9d936001600160601b03909216928592919061189590830139610ac7565b6001600160a01b03848116600090815260016020908152604080832080546001600160601b0319166001600160601b03968716179055928616825290829020548251606081019093526030808452610c05949190911692859290919061197290830139610d3f565b6001600160a01b038381166000818152600160205260409081902080546001600160601b0319166001600160601b0395909516949094179093559151908516907fddf252ad1be2c89b69c2b068fc378daa952ba7f163c4a11628f55a4df523b3ef90610c729085906117a1565b60405180910390a36001600160a01b03808416600090815260026020526040808220548584168352912054610cac92918216911683610d7b565b505050565b6001600160a01b03808316600081815260026020818152604080842080546001845282862054949093528787166001600160a01b031984168117909155905191909516946001600160601b039092169391928592917f3134e8a2e6d97e929a7e54011ea5485d7d196dd5f0ba4d4ef95803e8e3fc257f9190a4610d35828483610d7b565b50505050565b4690565b6000838301826001600160601b038087169083161015610d725760405162461bcd60e51b815260040161056791906116f9565b50949350505050565b816001600160a01b0316836001600160a01b031614158015610da657506000816001600160601b0316115b15610cac576001600160a01b03831615610e5e576001600160a01b03831660009081526004602052604081205463ffffffff169081610de6576000610e25565b6001600160a01b0385166000908152600360209081526040808320600019860163ffffffff168452909152902054600160201b90046001600160601b03165b90506000610e4c828560405180606001604052806028815260200161194a60289139610ac7565b9050610e5a86848484610f09565b5050505b6001600160a01b03821615610cac576001600160a01b03821660009081526004602052604081205463ffffffff169081610e99576000610ed8565b6001600160a01b0384166000908152600360209081526040808320600019860163ffffffff168452909152902054600160201b90046001600160601b03165b90506000610eff82856040518060600160405280602781526020016119df60279139610d3f565b9050610a1d858484845b6000610f2d43604051806060016040528060348152602001611916603491396110b2565b905060008463ffffffff16118015610f7657506001600160a01b038516600090815260036020908152604080832063ffffffff6000198901811685529252909120548282169116145b15610fcf576001600160a01b0385166000908152600360209081526040808320600019880163ffffffff16845290915290208054600160201b600160801b031916600160201b6001600160601b03851602179055611068565b60408051808201825263ffffffff80841682526001600160601b0380861660208085019182526001600160a01b038b166000818152600383528781208c871682528352878120965187549451909516600160201b02600160201b600160801b031995871663ffffffff19958616179590951694909417909555938252600490935292909220805460018801909316929091169190911790555b846001600160a01b03167fdec2bacdd2f05b59de34da9b523dff8be42e5e38e818c82fdb0bae774387a72484846040516110a39291906117bd565b60405180910390a25050505050565b600081600160201b8410610abf5760405162461bcd60e51b815260040161056791906116f9565b604080518082019091526000808252602082015290565b803561036c81611865565b803561036c81611879565b803561036c81611882565b803561036c8161188b565b60006020828403121561112e57600080fd5b600061113a84846110f0565b949350505050565b6000806040838503121561115557600080fd5b600061116185856110f0565b9250506020611172858286016110f0565b9150509250929050565b60008060006060848603121561119157600080fd5b600061119d86866110f0565b93505060206111ae868287016110f0565b92505060406111bf868287016110fb565b9150509250925092565b600080604083850312156111dc57600080fd5b60006111e885856110f0565b9250506020611172858286016110fb565b60008060008060008060c0878903121561121257600080fd5b600061121e89896110f0565b965050602061122f89828a016110fb565b955050604061124089828a016110fb565b945050606061125189828a01611111565b935050608061126289828a016110fb565b92505060a061127389828a016110fb565b9150509295509295509295565b6000806040838503121561129357600080fd5b600061129f85856110f0565b925050602061117285828601611106565b6112b9816117ea565b82525050565b6112b9816117f5565b6112b9816117fa565b6112b96112dd826117fa565b6117fa565b60006112ed826117d8565b6112f781856117dc565b935061130781856020860161182f565b6113108161185b565b9093019392505050565b60006113276026836117dc565b7f436f6d703a3a64656c656761746542795369673a20696e76616c6964207369678152656e617475726560d01b602082015260400192915050565b600061136f6026836117dc565b7f436f6d703a3a64656c656761746542795369673a207369676e617475726520658152651e1c1a5c995960d21b602082015260400192915050565b60006113b76002836117e5565b61190160f01b815260020192915050565b60006113d56027836117dc565b7f436f6d703a3a6765745072696f72566f7465733a206e6f742079657420646574815266195c9b5a5b995960ca1b602082015260400192915050565b600061141e6022836117dc565b7f436f6d703a3a64656c656761746542795369673a20696e76616c6964206e6f6e815261636560f01b602082015260400192915050565b6000611462603a836117dc565b7f436f6d703a3a5f7472616e73666572546f6b656e733a2063616e6e6f74207472815279616e7366657220746f20746865207a65726f206164647265737360301b602082015260400192915050565b60006114be6043836117e5565b7f454950373132446f6d61696e28737472696e67206e616d652c75696e7432353681527f20636861696e49642c6164647265737320766572696679696e67436f6e74726160208201526263742960e81b604082015260430192915050565b6000611529603c836117dc565b7f436f6d703a3a5f7472616e73666572546f6b656e733a2063616e6e6f7420747281527b616e736665722066726f6d20746865207a65726f206164647265737360201b602082015260400192915050565b6000611587603a836117e5565b7f44656c65676174696f6e28616464726573732064656c6567617465652c75696e81527974323536206e6f6e63652c75696e74323536206578706972792960301b6020820152603a0192915050565b6112b981611809565b6112b981611812565b6112b981611824565b6112b981611818565b6000611605826113aa565b915061161182856112d1565b60208201915061162182846112d1565b5060200192915050565b600061036c826114b1565b600061036c8261157a565b6020810161036c82846112b0565b6020810161036c82846112bf565b6020810161036c82846112c8565b6080810161167982876112c8565b61168660208301866112b0565b61169360408301856112c8565b6116a060608301846112c8565b95945050505050565b608081016116b782876112c8565b6116c460208301866112c8565b6116d160408301856112c8565b6116a060608301846112b0565b608081016116ec82876112c8565b61168660208301866115df565b602080825281016104d681846112e2565b6020808252810161036c8161131a565b6020808252810161036c81611362565b6020808252810161036c816113c8565b6020808252810161036c81611411565b6020808252810161036c81611455565b6020808252810161036c8161151c565b6020810161036c82846115d6565b6040810161178682856115d6565b6104d660208301846115f1565b6020810161036c82846115df565b6020810161036c82846115e8565b6020810161036c82846115f1565b604081016117cb82856115e8565b6104d660208301846115e8565b5190565b90815260200190565b919050565b600061036c826117fd565b151590565b90565b6001600160a01b031690565b63ffffffff1690565b60ff1690565b6001600160601b031690565b600061036c82611818565b60005b8381101561184a578181015183820152602001611832565b83811115610d355750506000910152565b601f01601f191690565b61186e816117ea565b811461050757600080fd5b61186e816117fa565b61186e81611809565b61186e8161181256fe436f6d703a3a5f7472616e73666572546f6b656e733a207472616e7366657220616d6f756e7420657863656564732062616c616e6365436f6d703a3a617070726f76653a20616d6f756e7420657863656564732039362062697473436f6d703a3a7472616e736665723a20616d6f756e7420657863656564732039362062697473436f6d703a3a5f7772697465436865636b706f696e743a20626c6f636b206e756d62657220657863656564732033322062697473436f6d703a3a5f6d6f7665566f7465733a20766f746520616d6f756e7420756e646572666c6f7773436f6d703a3a5f7472616e73666572546f6b656e733a207472616e7366657220616d6f756e74206f766572666c6f7773436f6d703a3a7472616e7366657246726f6d3a207472616e7366657220616d6f756e742065786365656473207370656e64657220616c6c6f77616e6365436f6d703a3a5f6d6f7665566f7465733a20766f746520616d6f756e74206f766572666c6f7773a365627a7a723158200e81bb247a184d52d90b1b08396e93adfd5c8260b12521264922d5716fa45d4e6c6578706572696d656e74616cf564736f6c63430005100040",
  "source": "pragma solidity ^0.5.16;\npragma experimental ABIEncoderV2;\n\ncontract Comp {\n    /// @notice EIP-20 token name for this token\n    string public constant name = \"Compound\";\n\n    /// @notice EIP-20 token symbol for this token\n    string public constant symbol = \"Comp\";\n\n    /// @notice EIP-20 token decimals for this token\n    uint8 public constant decimals = 18;\n\n    /// @notice Total number of tokens in circulation\n    uint public constant totalSupply = 10000000e18; // 10 million Comp\n\n    /// @notice Allowance amounts on behalf of others\n    mapping (address => mapping (address => uint96)) internal allowances;\n\n    /// @notice Official record of token balances for each account\n    mapping (address => uint96) internal balances;\n\n    /// @notice A record of each accounts delegate\n    mapping (address => address) public delegates;\n\n    /// @notice A checkpoint for marking number of votes from a given block\n    struct Checkpoint {\n        uint32 fromBlock;\n        uint96 votes;\n    }\n\n    /// @notice A record of votes checkpoints for each account, by index\n    mapping (address => mapping (uint32 => Checkpoint)) public checkpoints;\n\n    /// @notice The number of checkpoints for each account\n    mapping (address => uint32) public numCheckpoints;\n\n    /// @notice The EIP-712 typehash for the contract's domain\n    bytes32 public constant DOMAIN_TYPEHASH = keccak256(\"EIP712Domain(string name,uint256 chainId,address verifyingContract)\");\n\n    /// @notice The EIP-712 typehash for the delegation struct used by the contract\n    bytes32 public constant DELEGATION_TYPEHASH = keccak256(\"Delegation(address delegatee,uint256 nonce,uint256 expiry)\");\n\n    /// @notice A record of states for signing / validating signatures\n    mapping (address => uint) public nonces;\n\n    /// @notice An event thats emitted when an account changes its delegate\n    event DelegateChanged(address indexed delegator, address indexed fromDelegate, address indexed toDelegate);\n\n    /// @notice An event thats emitted when a delegate account's vote balance changes\n    event DelegateVotesChanged(address indexed delegate, uint previousBalance, uint newBalance);\n\n    /// @notice The standard EIP-20 transfer event\n    event Transfer(address indexed from, address indexed to, uint256 amount);\n\n    /// @notice The standard EIP-20 approval event\n    event Approval(address indexed owner, address indexed spender, uint256 amount);\n\n    /**\n     * @notice Construct a new Comp token\n     * @param account The initial account to grant all the tokens\n     */\n    constructor(address account) public {\n        balances[account] = uint96(totalSupply);\n        emit Transfer(address(0), account, totalSupply);\n    }\n\n    /**\n     * @notice Get the number of tokens `spender` is approved to spend on behalf of `account`\n     * @param account The address of the account holding the funds\n     * @param spender The address of the account spending the funds\n     * @return The number of tokens approved\n     */\n    function allowance(address account, address spender) external view returns (uint) {\n        return allowances[account][spender];\n    }\n\n    /**\n     * @notice Approve `spender` to transfer up to `amount` from `src`\n     * @dev This will overwrite the approval amount for `spender`\n     *  and is subject to issues noted [here](https://eips.ethereum.org/EIPS/eip-20#approve)\n     * @param spender The address of the account which may transfer tokens\n     * @param rawAmount The number of tokens that are approved (2^256-1 means infinite)\n     * @return Whether or not the approval succeeded\n     */\n    function approve(address spender, uint rawAmount) external returns (bool) {\n        uint96 amount;\n        if (rawAmount == uint(-1)) {\n            amount = uint96(-1);\n        } else {\n            amount = safe96(rawAmount, \"Comp::approve: amount exceeds 96 bits\");\n        }\n\n        allowances[msg.sender][spender] = amount;\n\n        emit Approval(msg.sender, spender, amount);\n        return true;\n    }\n\n    /**\n     * @notice Get the number of tokens held by the `account`\n     * @param account The address of the account to get the balance of\n     * @return The number of tokens held\n     */\n    function balanceOf(address account) external view returns (uint) {\n        return balances[account];\n    }\n\n    /**\n     * @notice Transfer `amount` tokens from `msg.sender` to `dst`\n     * @param dst The address of the destination account\n     * @param rawAmount The number of tokens to transfer\n     * @return Whether or not the transfer succeeded\n     */\n    function transfer(address dst, uint rawAmount) external returns (bool) {\n        uint96 amount = safe96(rawAmount, \"Comp::transfer: amount exceeds 96 bits\");\n        _transferTokens(msg.sender, dst, amount);\n        return true;\n    }\n\n    /**\n     * @notice Transfer `amount` tokens from `src` to `dst`\n     * @param src The address of the source account\n     * @param dst The address of the destination account\n     * @param rawAmount The number of tokens to transfer\n     * @return Whether or not the transfer succeeded\n     */\n    function transferFrom(address src, address dst, uint rawAmount) external returns (bool) {\n        address spender = msg.sender;\n        uint96 spenderAllowance = allowances[src][spender];\n        uint96 amount = safe96(rawAmount, \"Comp::approve: amount exceeds 96 bits\");\n\n        if (spender != src && spenderAllowance != uint96(-1)) {\n            uint96 newAllowance = sub96(spenderAllowance, amount, \"Comp::transferFrom: transfer amount exceeds spender allowance\");\n            allowances[src][spender] = newAllowance;\n\n            emit Approval(src, spender, newAllowance);\n        }\n\n        _transferTokens(src, dst, amount);\n        return true;\n    }\n\n    /**\n     * @notice Delegate votes from `msg.sender` to `delegatee`\n     * @param delegatee The address to delegate votes to\n     */\n    function delegate(address delegatee) public {\n        return _delegate(msg.sender, delegatee);\n    }\n\n    /**\n     * @notice Delegates votes from signatory to `delegatee`\n     * @param delegatee The address to delegate votes to\n     * @param nonce The contract state required to match the signature\n     * @param expiry The time at which to expire the signature\n     * @param v The recovery byte of the signature\n     * @param r Half of the ECDSA signature pair\n     * @param s Half of the ECDSA signature pair\n     */\n    function delegateBySig(address delegatee, uint nonce, uint expiry, uint8 v, bytes32 r, bytes32 s) public {\n        bytes32 domainSeparator = keccak256(abi.encode(DOMAIN_TYPEHASH, keccak256(bytes(name)), getChainId(), address(this)));\n        bytes32 structHash = keccak256(abi.encode(DELEGATION_TYPEHASH, delegatee, nonce, expiry));\n        bytes32 digest = keccak256(abi.encodePacked(\"\\x19\\x01\", domainSeparator, structHash));\n        address signatory = ecrecover(digest, v, r, s);\n        require(signatory != address(0), \"Comp::delegateBySig: invalid signature\");\n        require(nonce == nonces[signatory]++, \"Comp::delegateBySig: invalid nonce\");\n        require(now <= expiry, \"Comp::delegateBySig: signature expired\");\n        return _delegate(signatory, delegatee);\n    }\n\n    /**\n     * @notice Gets the current votes balance for `account`\n     * @param account The address to get votes balance\n     * @return The number of current votes for `account`\n     */\n    function getCurrentVotes(address account) external view returns (uint96) {\n        uint32 nCheckpoints = numCheckpoints[account];\n        return nCheckpoints > 0 ? checkpoints[account][nCheckpoints - 1].votes : 0;\n    }\n\n    /**\n     * @notice Determine the prior number of votes for an account as of a block number\n     * @dev Block number must be a finalized block or else this function will revert to prevent misinformation.\n     * @param account The address of the account to check\n     * @param blockNumber The block number to get the vote balance at\n     * @return The number of votes the account had as of the given block\n     */\n    function getPriorVotes(address account, uint blockNumber) public view returns (uint96) {\n        require(blockNumber < block.number, \"Comp::getPriorVotes: not yet determined\");\n\n        uint32 nCheckpoints = numCheckpoints[account];\n        if (nCheckpoints == 0) {\n            return 0;\n        }\n\n        // First check most recent balance\n        if (checkpoints[account][nCheckpoints - 1].fromBlock <= blockNumber) {\n            return checkpoints[account][nCheckpoints - 1].votes;\n        }\n\n        // Next check implicit zero balance\n        if (checkpoints[account][0].fromBlock > blockNumber) {\n            return 0;\n        }\n\n        uint32 lower = 0;\n        uint32 upper = nCheckpoints - 1;\n        while (upper > lower) {\n            uint32 center = upper - (upper - lower) / 2; // ceil, avoiding overflow\n            Checkpoint memory cp = checkpoints[account][center];\n            if (cp.fromBlock == blockNumber) {\n                return cp.votes;\n            } else if (cp.fromBlock < blockNumber) {\n                lower = center;\n            } else {\n                upper = center - 1;\n            }\n        }\n        return checkpoints[account][lower].votes;\n    }\n\n    function _delegate(address delegator, address delegatee) internal {\n        address currentDelegate = delegates[delegator];\n        uint96 delegatorBalance = balances[delegator];\n        delegates[delegator] = delegatee;\n\n        emit DelegateChanged(delegator, currentDelegate, delegatee);\n\n        _moveDelegates(currentDelegate, delegatee, delegatorBalance);\n    }\n\n    function _transferTokens(address src, address dst, uint96 amount) internal {\n        require(src != address(0), \"Comp::_transferTokens: cannot transfer from the zero address\");\n        require(dst != address(0), \"Comp::_transferTokens: cannot transfer to the zero address\");\n\n        balances[src] = sub96(balances[src], amount, \"Comp::_transferTokens: transfer amount exceeds balance\");\n        balances[dst] = add96(balances[dst], amount, \"Comp::_transferTokens: transfer amount overflows\");\n        emit Transfer(src, dst, amount);\n\n        _moveDelegates(delegates[src], delegates[dst], amount);\n    }\n\n    function _moveDelegates(address srcRep, address dstRep, uint96 amount) internal {\n        if (srcRep != dstRep && amount > 0) {\n            if (srcRep != address(0)) {\n                uint32 srcRepNum = numCheckpoints[srcRep];\n                uint96 srcRepOld = srcRepNum > 0 ? checkpoints[srcRep][srcRepNum - 1].votes : 0;\n                uint96 srcRepNew = sub96(srcRepOld, amount, \"Comp::_moveVotes: vote amount underflows\");\n                _writeCheckpoint(srcRep, srcRepNum, srcRepOld, srcRepNew);\n            }\n\n            if (dstRep != address(0)) {\n                uint32 dstRepNum = numCheckpoints[dstRep];\n                uint96 dstRepOld = dstRepNum > 0 ? checkpoints[dstRep][dstRepNum - 1].votes : 0;\n                uint96 dstRepNew = add96(dstRepOld, amount, \"Comp::_moveVotes: vote amount overflows\");\n                _writeCheckpoint(dstRep, dstRepNum, dstRepOld, dstRepNew);\n            }\n        }\n    }\n\n    function _writeCheckpoint(address delegatee, uint32 nCheckpoints, uint96 oldVotes, uint96 newVotes) internal {\n      uint32 blockNumber = safe32(block.number, \"Comp::_writeCheckpoint: block number exceeds 32 bits\");\n\n      if (nCheckpoints > 0 && checkpoints[delegatee][nCheckpoints - 1].fromBlock == blockNumber) {\n          checkpoints[delegatee][nCheckpoints - 1].votes = newVotes;\n      } else {\n          checkpoints[delegatee][nCheckpoints] = Checkpoint(blockNumber, newVotes);\n          numCheckpoints[delegatee] = nCheckpoints + 1;\n      }\n\n      emit DelegateVotesChanged(delegatee, oldVotes, newVotes);\n    }\n\n    function safe32(uint n, string memory errorMessage) internal pure returns (uint32) {\n        require(n < 2**32, errorMessage);\n        return uint32(n);\n    }\n\n    function safe96(uint n, string memory errorMessage) internal pure returns (uint96) {\n        require(n < 2**96, errorMessage);\n        return uint96(n);\n    }\n\n    function add96(uint96 a, uint96 b, string memory errorMessage) internal pure returns (uint96) {\n        uint96 c = a + b;\n        require(c >= a, errorMessage);\n        return c;\n    }\n\n    function sub96(uint96 a, uint96 b, string memory errorMessage) internal pure returns (uint96) {\n        require(b <= a, errorMessage);\n        return a - b;\n    }\n\n    function getChainId() internal pure returns (uint) {\n        uint256 chainId;\n        assembly { chainId := chainid() }\n        return chainId;\n    }\n}\n",
  "sourcePath": "/Users/songsjun/Workspace/Quicksilver/quicksilver-protocol/contracts/compound/Governance/Comp.sol",
  "compiler": {
    "name": "solc",
    "version": "0.5.16+commit.9c3226ce.Emscripten.clang"
  },
  "schemaVersion": "3.2.5",
  "updatedAt": "2020-11-29T03:50:34.096Z",
  "devdoc": {
    "methods": {
      "allowance(address,address)": {
        "params": {
          "account": "The address of the account holding the funds",
          "spender": "The address of the account spending the funds"
        },
        "return": "The number of tokens approved"
      },
      "approve(address,uint256)": {
        "details": "This will overwrite the approval amount for `spender` and is subject to issues noted [here](https://eips.ethereum.org/EIPS/eip-20#approve)",
        "params": {
          "rawAmount": "The number of tokens that are approved (2^256-1 means infinite)",
          "spender": "The address of the account which may transfer tokens"
        },
        "return": "Whether or not the approval succeeded"
      },
      "balanceOf(address)": {
        "params": {
          "account": "The address of the account to get the balance of"
        },
        "return": "The number of tokens held"
      },
      "constructor": {
        "params": {
          "account": "The initial account to grant all the tokens"
        }
      },
      "delegate(address)": {
        "params": {
          "delegatee": "The address to delegate votes to"
        }
      },
      "delegateBySig(address,uint256,uint256,uint8,bytes32,bytes32)": {
        "params": {
          "delegatee": "The address to delegate votes to",
          "expiry": "The time at which to expire the signature",
          "nonce": "The contract state required to match the signature",
          "r": "Half of the ECDSA signature pair",
          "s": "Half of the ECDSA signature pair",
          "v": "The recovery byte of the signature"
        }
      },
      "getCurrentVotes(address)": {
        "params": {
          "account": "The address to get votes balance"
        },
        "return": "The number of current votes for `account`"
      },
      "getPriorVotes(address,uint256)": {
        "details": "Block number must be a finalized block or else this function will revert to prevent misinformation.",
        "params": {
          "account": "The address of the account to check",
          "blockNumber": "The block number to get the vote balance at"
        },
        "return": "The number of votes the account had as of the given block"
      },
      "transfer(address,uint256)": {
        "params": {
          "dst": "The address of the destination account",
          "rawAmount": "The number of tokens to transfer"
        },
        "return": "Whether or not the transfer succeeded"
      },
      "transferFrom(address,address,uint256)": {
        "params": {
          "dst": "The address of the destination account",
          "rawAmount": "The number of tokens to transfer",
          "src": "The address of the source account"
        },
        "return": "Whether or not the transfer succeeded"
      }
    }
  },
  "userdoc": {
    "methods": {
      "allowance(address,address)": {
        "notice": "Get the number of tokens `spender` is approved to spend on behalf of `account`"
      },
      "approve(address,uint256)": {
        "notice": "Approve `spender` to transfer up to `amount` from `src`"
      },
      "balanceOf(address)": {
        "notice": "Get the number of tokens held by the `account`"
      },
      "constructor": "Construct a new Comp token",
      "delegate(address)": {
        "notice": "Delegate votes from `msg.sender` to `delegatee`"
      },
      "delegateBySig(address,uint256,uint256,uint8,bytes32,bytes32)": {
        "notice": "Delegates votes from signatory to `delegatee`"
      },
      "getCurrentVotes(address)": {
        "notice": "Gets the current votes balance for `account`"
      },
      "getPriorVotes(address,uint256)": {
        "notice": "Determine the prior number of votes for an account as of a block number"
      },
      "transfer(address,uint256)": {
        "notice": "Transfer `amount` tokens from `msg.sender` to `dst`"
      },
      "transferFrom(address,address,uint256)": {
        "notice": "Transfer `amount` tokens from `src` to `dst`"
      }
    }
  }
}