{
  "contractName": "CompoundLens",
  "abi": [
    {
      "constant": false,
      "inputs": [
        {
          "internalType": "contract SToken",
          "name": "cToken",
          "type": "address"
        }
      ],
      "name": "cTokenMetadataExpand",
      "outputs": [
        {
          "internalType": "uint256",
          "name": "collateralFactorMantissa",
          "type": "uint256"
        },
        {
          "internalType": "uint256",
          "name": "exchangeRateCurrent",
          "type": "uint256"
        },
        {
          "internalType": "uint256",
          "name": "supplyRatePerBlock",
          "type": "uint256"
        },
        {
          "internalType": "uint256",
          "name": "borrowRatePerBlock",
          "type": "uint256"
        },
        {
          "internalType": "uint256",
          "name": "reserveFactorMantissa",
          "type": "uint256"
        },
        {
          "internalType": "uint256",
          "name": "totalBorrows",
          "type": "uint256"
        },
        {
          "internalType": "uint256",
          "name": "totalReserves",
          "type": "uint256"
        },
        {
          "internalType": "uint256",
          "name": "totalSupply",
          "type": "uint256"
        },
        {
          "internalType": "uint256",
          "name": "totalCash",
          "type": "uint256"
        },
        {
          "internalType": "bool",
          "name": "isListed",
          "type": "bool"
        },
        {
          "internalType": "address",
          "name": "underlyingAssetAddress",
          "type": "address"
        },
        {
          "internalType": "uint256",
          "name": "underlyingDecimals",
          "type": "uint256"
        }
      ],
      "payable": false,
      "stateMutability": "nonpayable",
      "type": "function"
    },
    {
      "constant": false,
      "inputs": [
        {
          "internalType": "contract SToken",
          "name": "cToken",
          "type": "address"
        }
      ],
      "name": "cTokenMetadata",
      "outputs": [
        {
          "components": [
            {
              "internalType": "address",
              "name": "cToken",
              "type": "address"
            },
            {
              "internalType": "uint256",
              "name": "exchangeRateCurrent",
              "type": "uint256"
            },
            {
              "internalType": "uint256",
              "name": "supplyRatePerBlock",
              "type": "uint256"
            },
            {
              "internalType": "uint256",
              "name": "borrowRatePerBlock",
              "type": "uint256"
            },
            {
              "internalType": "uint256",
              "name": "reserveFactorMantissa",
              "type": "uint256"
            },
            {
              "internalType": "uint256",
              "name": "totalBorrows",
              "type": "uint256"
            },
            {
              "internalType": "uint256",
              "name": "totalReserves",
              "type": "uint256"
            },
            {
              "internalType": "uint256",
              "name": "totalSupply",
              "type": "uint256"
            },
            {
              "internalType": "uint256",
              "name": "totalCash",
              "type": "uint256"
            },
            {
              "internalType": "bool",
              "name": "isListed",
              "type": "bool"
            },
            {
              "internalType": "uint256",
              "name": "collateralFactorMantissa",
              "type": "uint256"
            },
            {
              "internalType": "address",
              "name": "underlyingAssetAddress",
              "type": "address"
            },
            {
              "internalType": "uint256",
              "name": "cTokenDecimals",
              "type": "uint256"
            },
            {
              "internalType": "uint256",
              "name": "underlyingDecimals",
              "type": "uint256"
            }
          ],
          "internalType": "struct CompoundLens.CTokenMetadata",
          "name": "",
          "type": "tuple"
        }
      ],
      "payable": false,
      "stateMutability": "nonpayable",
      "type": "function"
    },
    {
      "constant": false,
      "inputs": [
        {
          "internalType": "contract SToken[]",
          "name": "cTokens",
          "type": "address[]"
        }
      ],
      "name": "cTokenMetadataAll",
      "outputs": [
        {
          "components": [
            {
              "internalType": "address",
              "name": "cToken",
              "type": "address"
            },
            {
              "internalType": "uint256",
              "name": "exchangeRateCurrent",
              "type": "uint256"
            },
            {
              "internalType": "uint256",
              "name": "supplyRatePerBlock",
              "type": "uint256"
            },
            {
              "internalType": "uint256",
              "name": "borrowRatePerBlock",
              "type": "uint256"
            },
            {
              "internalType": "uint256",
              "name": "reserveFactorMantissa",
              "type": "uint256"
            },
            {
              "internalType": "uint256",
              "name": "totalBorrows",
              "type": "uint256"
            },
            {
              "internalType": "uint256",
              "name": "totalReserves",
              "type": "uint256"
            },
            {
              "internalType": "uint256",
              "name": "totalSupply",
              "type": "uint256"
            },
            {
              "internalType": "uint256",
              "name": "totalCash",
              "type": "uint256"
            },
            {
              "internalType": "bool",
              "name": "isListed",
              "type": "bool"
            },
            {
              "internalType": "uint256",
              "name": "collateralFactorMantissa",
              "type": "uint256"
            },
            {
              "internalType": "address",
              "name": "underlyingAssetAddress",
              "type": "address"
            },
            {
              "internalType": "uint256",
              "name": "cTokenDecimals",
              "type": "uint256"
            },
            {
              "internalType": "uint256",
              "name": "underlyingDecimals",
              "type": "uint256"
            }
          ],
          "internalType": "struct CompoundLens.CTokenMetadata[]",
          "name": "",
          "type": "tuple[]"
        }
      ],
      "payable": false,
      "stateMutability": "nonpayable",
      "type": "function"
    },
    {
      "constant": false,
      "inputs": [
        {
          "internalType": "contract SToken",
          "name": "cToken",
          "type": "address"
        },
        {
          "internalType": "address payable",
          "name": "account",
          "type": "address"
        }
      ],
      "name": "cTokenBalances",
      "outputs": [
        {
          "components": [
            {
              "internalType": "address",
              "name": "cToken",
              "type": "address"
            },
            {
              "internalType": "uint256",
              "name": "balanceOf",
              "type": "uint256"
            },
            {
              "internalType": "uint256",
              "name": "borrowBalanceCurrent",
              "type": "uint256"
            },
            {
              "internalType": "uint256",
              "name": "balanceOfUnderlying",
              "type": "uint256"
            },
            {
              "internalType": "uint256",
              "name": "tokenBalance",
              "type": "uint256"
            },
            {
              "internalType": "uint256",
              "name": "tokenAllowance",
              "type": "uint256"
            }
          ],
          "internalType": "struct CompoundLens.CTokenBalances",
          "name": "",
          "type": "tuple"
        }
      ],
      "payable": false,
      "stateMutability": "nonpayable",
      "type": "function"
    },
    {
      "constant": false,
      "inputs": [
        {
          "internalType": "contract SToken[]",
          "name": "cTokens",
          "type": "address[]"
        },
        {
          "internalType": "address payable",
          "name": "account",
          "type": "address"
        }
      ],
      "name": "cTokenBalancesAll",
      "outputs": [
        {
          "components": [
            {
              "internalType": "address",
              "name": "cToken",
              "type": "address"
            },
            {
              "internalType": "uint256",
              "name": "balanceOf",
              "type": "uint256"
            },
            {
              "internalType": "uint256",
              "name": "borrowBalanceCurrent",
              "type": "uint256"
            },
            {
              "internalType": "uint256",
              "name": "balanceOfUnderlying",
              "type": "uint256"
            },
            {
              "internalType": "uint256",
              "name": "tokenBalance",
              "type": "uint256"
            },
            {
              "internalType": "uint256",
              "name": "tokenAllowance",
              "type": "uint256"
            }
          ],
          "internalType": "struct CompoundLens.CTokenBalances[]",
          "name": "",
          "type": "tuple[]"
        }
      ],
      "payable": false,
      "stateMutability": "nonpayable",
      "type": "function"
    },
    {
      "constant": true,
      "inputs": [
        {
          "internalType": "contract CToken",
          "name": "cToken",
          "type": "address"
        }
      ],
      "name": "cTokenUnderlyingPrice",
      "outputs": [
        {
          "components": [
            {
              "internalType": "address",
              "name": "cToken",
              "type": "address"
            },
            {
              "internalType": "uint256",
              "name": "underlyingPrice",
              "type": "uint256"
            }
          ],
          "internalType": "struct CompoundLens.CTokenUnderlyingPrice",
          "name": "",
          "type": "tuple"
        }
      ],
      "payable": false,
      "stateMutability": "view",
      "type": "function"
    },
    {
      "constant": true,
      "inputs": [
        {
          "internalType": "contract CToken[]",
          "name": "cTokens",
          "type": "address[]"
        }
      ],
      "name": "cTokenUnderlyingPriceAll",
      "outputs": [
        {
          "components": [
            {
              "internalType": "address",
              "name": "cToken",
              "type": "address"
            },
            {
              "internalType": "uint256",
              "name": "underlyingPrice",
              "type": "uint256"
            }
          ],
          "internalType": "struct CompoundLens.CTokenUnderlyingPrice[]",
          "name": "",
          "type": "tuple[]"
        }
      ],
      "payable": false,
      "stateMutability": "view",
      "type": "function"
    },
    {
      "constant": true,
      "inputs": [
        {
          "internalType": "contract ComptrollerLensInterface",
          "name": "comptroller",
          "type": "address"
        },
        {
          "internalType": "address",
          "name": "account",
          "type": "address"
        }
      ],
      "name": "getAccountLimits",
      "outputs": [
        {
          "components": [
            {
              "internalType": "contract CToken[]",
              "name": "markets",
              "type": "address[]"
            },
            {
              "internalType": "uint256",
              "name": "liquidity",
              "type": "uint256"
            },
            {
              "internalType": "uint256",
              "name": "shortfall",
              "type": "uint256"
            }
          ],
          "internalType": "struct CompoundLens.AccountLimits",
          "name": "",
          "type": "tuple"
        }
      ],
      "payable": false,
      "stateMutability": "view",
      "type": "function"
    },
    {
      "constant": true,
      "inputs": [
        {
          "internalType": "contract ComptrollerLensInterface",
          "name": "comptroller",
          "type": "address"
        },
        {
          "internalType": "address",
          "name": "account",
          "type": "address"
        }
      ],
      "name": "getAccountLimitsExpand",
      "outputs": [
        {
          "internalType": "uint256",
          "name": "liquidity",
          "type": "uint256"
        },
        {
          "internalType": "uint256",
          "name": "shortfall",
          "type": "uint256"
        },
        {
          "internalType": "contract CToken[]",
          "name": "markets",
          "type": "address[]"
        }
      ],
      "payable": false,
      "stateMutability": "view",
      "type": "function"
    },
    {
      "constant": true,
      "inputs": [
        {
          "internalType": "contract GovernorAlpha",
          "name": "governor",
          "type": "address"
        },
        {
          "internalType": "address",
          "name": "voter",
          "type": "address"
        },
        {
          "internalType": "uint256[]",
          "name": "proposalIds",
          "type": "uint256[]"
        }
      ],
      "name": "getGovReceipts",
      "outputs": [
        {
          "components": [
            {
              "internalType": "uint256",
              "name": "proposalId",
              "type": "uint256"
            },
            {
              "internalType": "bool",
              "name": "hasVoted",
              "type": "bool"
            },
            {
              "internalType": "bool",
              "name": "support",
              "type": "bool"
            },
            {
              "internalType": "uint96",
              "name": "votes",
              "type": "uint96"
            }
          ],
          "internalType": "struct CompoundLens.GovReceipt[]",
          "name": "",
          "type": "tuple[]"
        }
      ],
      "payable": false,
      "stateMutability": "view",
      "type": "function"
    },
    {
      "constant": true,
      "inputs": [
        {
          "internalType": "contract GovernorAlpha",
          "name": "governor",
          "type": "address"
        },
        {
          "internalType": "uint256[]",
          "name": "proposalIds",
          "type": "uint256[]"
        }
      ],
      "name": "getGovProposals",
      "outputs": [
        {
          "components": [
            {
              "internalType": "uint256",
              "name": "proposalId",
              "type": "uint256"
            },
            {
              "internalType": "address",
              "name": "proposer",
              "type": "address"
            },
            {
              "internalType": "uint256",
              "name": "eta",
              "type": "uint256"
            },
            {
              "internalType": "address[]",
              "name": "targets",
              "type": "address[]"
            },
            {
              "internalType": "uint256[]",
              "name": "values",
              "type": "uint256[]"
            },
            {
              "internalType": "string[]",
              "name": "signatures",
              "type": "string[]"
            },
            {
              "internalType": "bytes[]",
              "name": "calldatas",
              "type": "bytes[]"
            },
            {
              "internalType": "uint256",
              "name": "startBlock",
              "type": "uint256"
            },
            {
              "internalType": "uint256",
              "name": "endBlock",
              "type": "uint256"
            },
            {
              "internalType": "uint256",
              "name": "forVotes",
              "type": "uint256"
            },
            {
              "internalType": "uint256",
              "name": "againstVotes",
              "type": "uint256"
            },
            {
              "internalType": "bool",
              "name": "canceled",
              "type": "bool"
            },
            {
              "internalType": "bool",
              "name": "executed",
              "type": "bool"
            }
          ],
          "internalType": "struct CompoundLens.GovProposal[]",
          "name": "",
          "type": "tuple[]"
        }
      ],
      "payable": false,
      "stateMutability": "view",
      "type": "function"
    },
    {
      "constant": true,
      "inputs": [
        {
          "internalType": "contract Comp",
          "name": "comp",
          "type": "address"
        },
        {
          "internalType": "address",
          "name": "account",
          "type": "address"
        }
      ],
      "name": "getCompBalanceMetadata",
      "outputs": [
        {
          "components": [
            {
              "internalType": "uint256",
              "name": "balance",
              "type": "uint256"
            },
            {
              "internalType": "uint256",
              "name": "votes",
              "type": "uint256"
            },
            {
              "internalType": "address",
              "name": "delegate",
              "type": "address"
            }
          ],
          "internalType": "struct CompoundLens.CompBalanceMetadata",
          "name": "",
          "type": "tuple"
        }
      ],
      "payable": false,
      "stateMutability": "view",
      "type": "function"
    },
    {
      "constant": false,
      "inputs": [
        {
          "internalType": "contract Comp",
          "name": "comp",
          "type": "address"
        },
        {
          "internalType": "contract ComptrollerLensInterface",
          "name": "comptroller",
          "type": "address"
        },
        {
          "internalType": "address",
          "name": "account",
          "type": "address"
        }
      ],
      "name": "getCompBalanceMetadataExt",
      "outputs": [
        {
          "components": [
            {
              "internalType": "uint256",
              "name": "balance",
              "type": "uint256"
            },
            {
              "internalType": "uint256",
              "name": "votes",
              "type": "uint256"
            },
            {
              "internalType": "address",
              "name": "delegate",
              "type": "address"
            },
            {
              "internalType": "uint256",
              "name": "allocated",
              "type": "uint256"
            }
          ],
          "internalType": "struct CompoundLens.CompBalanceMetadataExt",
          "name": "",
          "type": "tuple"
        }
      ],
      "payable": false,
      "stateMutability": "nonpayable",
      "type": "function"
    },
    {
      "constant": false,
      "inputs": [
        {
          "internalType": "contract Comp",
          "name": "comp",
          "type": "address"
        },
        {
          "internalType": "contract ComptrollerLensInterface",
          "name": "comptroller",
          "type": "address"
        },
        {
          "internalType": "address",
          "name": "account",
          "type": "address"
        }
      ],
      "name": "getCompBalanceWithAccrued",
      "outputs": [
        {
          "internalType": "uint256",
          "name": "balance",
          "type": "uint256"
        },
        {
          "internalType": "uint256",
          "name": "allocated",
          "type": "uint256"
        }
      ],
      "payable": false,
      "stateMutability": "nonpayable",
      "type": "function"
    },
    {
      "constant": true,
      "inputs": [
        {
          "internalType": "contract Comp",
          "name": "comp",
          "type": "address"
        },
        {
          "internalType": "address",
          "name": "account",
          "type": "address"
        },
        {
          "internalType": "uint32[]",
          "name": "blockNumbers",
          "type": "uint32[]"
        }
      ],
      "name": "getCompVotes",
      "outputs": [
        {
          "components": [
            {
              "internalType": "uint256",
              "name": "blockNumber",
              "type": "uint256"
            },
            {
              "internalType": "uint256",
              "name": "votes",
              "type": "uint256"
            }
          ],
          "internalType": "struct CompoundLens.CompVotes[]",
          "name": "",
          "type": "tuple[]"
        }
      ],
      "payable": false,
      "stateMutability": "view",
      "type": "function"
    }
  ],
  "bytecode": "0x608060405234801561001057600080fd5b50613933806100206000396000f3fe608060405234801561001057600080fd5b50600436106100c55760003560e01c80630972bf8b146100ca578063158eca8b146100f35780631ea63741146101135780632b2d5ed6146101335780632eb98af314610153578063416405d71461017e5780634b70d84b1461019e5780635530ce1e146101be57806359564219146101e05780637dd8f6d9146102005780639699486914610220578063995ed99f14610240578063bdf950c914610260578063c5ae593414610280578063fb7638c1146102a0575b600080fd5b6100dd6100d836600461282c565b6102c1565b6040516100ea9190613595565b60405180910390f35b6101066101013660046128d8565b610364565b6040516100ea9190613639565b61012661012136600461298d565b610abf565b6040516100ea9190613656565b6101466101413660046127b7565b610e46565b6040516100ea91906135b7565b6101666101613660046128d8565b610ee2565b6040516100ea9c9b9a999897969594939291906136df565b61019161018c3660046128f6565b610f70565b6040516100ea9190613664565b6101b16101ac3660046127b7565b611119565b6040516100ea91906135a6565b6101d16101cc3660046128f6565b6111aa565b6040516100ea939291906136a9565b6101f36101ee366004612926565b6111db565b6040516100ea91906135c8565b61021361020e3660046128f6565b611333565b6040516100ea919061361a565b61023361022e366004612a48565b61146f565b6040516100ea91906135d9565b61025361024e3660046129ee565b61162b565b6040516100ea91906135ea565b61027361026e3660046128f6565b611785565b6040516100ea919061362b565b61029361028e3660046128d8565b611b5a565b6040516100ea9190613648565b6102b36102ae36600461298d565b611cec565b6040516100ea92919061368e565b6040805183815260208085028201019091526060908390829082801561030157816020015b6102ee6120c1565b8152602001906001900390816102e65790505b50905060005b828110156103585761033987878381811061031e57fe5b905060200201602061033391908101906128d8565b86611785565b82828151811061034557fe5b6020908102919091010152600101610307565b509150505b9392505050565b61036c612100565b6000826001600160a01b031663bd6d894d6040518163ffffffff1660e01b8152600401602060405180830381600087803b1580156103a957600080fd5b505af11580156103bd573d6000803e3d6000fd5b505050506040513d601f19601f820116820180604052506103e19190810190612abb565b90506000836001600160a01b0316635fe3b5676040518163ffffffff1660e01b815260040160206040518083038186803b15801561041e57600080fd5b505afa158015610432573d6000803e3d6000fd5b505050506040513d601f19601f8201168201806040525061045691908101906129d0565b9050600080826001600160a01b0316638e8f294b876040518263ffffffff1660e01b81526004016104879190613543565b604080518083038186803b15801561049e57600080fd5b505afa1580156104b2573d6000803e3d6000fd5b505050506040513d601f19601f820116820180604052506104d6919081019061289e565b91509150600080876001600160a01b0316639af4ee7e6040518163ffffffff1660e01b815260040160206040518083038186803b15801561051657600080fd5b505afa15801561052a573d6000803e3d6000fd5b505050506040513d601f19601f8201168201806040525061054e9190810190612880565b1561055f57506000905060126106bf565b6000889050806001600160a01b0316636f307dc36040518163ffffffff1660e01b815260040160206040518083038186803b15801561059d57600080fd5b505afa1580156105b1573d6000803e3d6000fd5b505050506040513d601f19601f820116820180604052506105d591908101906126d5565b9250806001600160a01b0316636f307dc36040518163ffffffff1660e01b815260040160206040518083038186803b15801561061057600080fd5b505afa158015610624573d6000803e3d6000fd5b505050506040513d601f19601f8201168201806040525061064891908101906126d5565b6001600160a01b031663313ce5676040518163ffffffff1660e01b815260040160206040518083038186803b15801561068057600080fd5b505afa158015610694573d6000803e3d6000fd5b505050506040513d601f19601f820116820180604052506106b89190810190612bfe565b60ff169150505b604051806101c00160405280896001600160a01b03168152602001878152602001896001600160a01b031663ae9d70b06040518163ffffffff1660e01b815260040160206040518083038186803b15801561071957600080fd5b505afa15801561072d573d6000803e3d6000fd5b505050506040513d601f19601f820116820180604052506107519190810190612abb565b8152602001896001600160a01b031663f8f9da286040518163ffffffff1660e01b815260040160206040518083038186803b15801561078f57600080fd5b505afa1580156107a3573d6000803e3d6000fd5b505050506040513d601f19601f820116820180604052506107c79190810190612abb565b8152602001896001600160a01b031663173b99046040518163ffffffff1660e01b815260040160206040518083038186803b15801561080557600080fd5b505afa158015610819573d6000803e3d6000fd5b505050506040513d601f19601f8201168201806040525061083d9190810190612abb565b8152602001896001600160a01b03166347bd37186040518163ffffffff1660e01b815260040160206040518083038186803b15801561087b57600080fd5b505afa15801561088f573d6000803e3d6000fd5b505050506040513d601f19601f820116820180604052506108b39190810190612abb565b8152602001896001600160a01b0316638f840ddd6040518163ffffffff1660e01b815260040160206040518083038186803b1580156108f157600080fd5b505afa158015610905573d6000803e3d6000fd5b505050506040513d601f19601f820116820180604052506109299190810190612abb565b8152602001896001600160a01b03166318160ddd6040518163ffffffff1660e01b815260040160206040518083038186803b15801561096757600080fd5b505afa15801561097b573d6000803e3d6000fd5b505050506040513d601f19601f8201168201806040525061099f9190810190612abb565b8152602001896001600160a01b0316633b1d21a26040518163ffffffff1660e01b815260040160206040518083038186803b1580156109dd57600080fd5b505afa1580156109f1573d6000803e3d6000fd5b505050506040513d601f19601f82011682018060405250610a159190810190612abb565b81526020018515158152602001848152602001836001600160a01b03168152602001896001600160a01b031663313ce5676040518163ffffffff1660e01b815260040160206040518083038186803b158015610a7057600080fd5b505afa158015610a84573d6000803e3d6000fd5b505050506040513d601f19601f82011682018060405250610aa89190810190612bfe565b60ff16815260200191909152979650505050505050565b610ac7612183565b6040516370a0823160e01b81526000906001600160a01b038616906370a0823190610af6908690600401613543565b60206040518083038186803b158015610b0e57600080fd5b505afa158015610b22573d6000803e3d6000fd5b505050506040513d601f19601f82011682018060405250610b469190810190612abb565b6040516374d7814960e11b81529091506001600160a01b0385169063e9af029290610b75908690600401613543565b600060405180830381600087803b158015610b8f57600080fd5b505af1158015610ba3573d6000803e3d6000fd5b50506040516370a0823160e01b8152600092506001600160a01b03881691506370a0823190610bd6908790600401613543565b60206040518083038186803b158015610bee57600080fd5b505afa158015610c02573d6000803e3d6000fd5b505050506040513d601f19601f82011682018060405250610c269190810190612abb565b90506000856001600160a01b031663cc7ebdc4866040518263ffffffff1660e01b8152600401610c569190613543565b60206040518083038186803b158015610c6e57600080fd5b505afa158015610c82573d6000803e3d6000fd5b505050506040513d601f19601f82011682018060405250610ca69190810190612abb565b90506000610cdb82846040518060400160405280600e81526020016d1cdd5b4818dbdb5c081d1bdd185b60921b815250611f3f565b90506000610d0f82866040518060400160405280600d81526020016c1cdd5888185b1b1bd8d85d1959609a1b815250611f6f565b905060405180608001604052808681526020018a6001600160a01b031663b4b5ea578a6040518263ffffffff1660e01b8152600401610d4e9190613543565b60206040518083038186803b158015610d6657600080fd5b505afa158015610d7a573d6000803e3d6000fd5b505050506040513d601f19601f82011682018060405250610d9e9190810190612c1c565b6001600160601b031681526020018a6001600160a01b031663587cde1e8a6040518263ffffffff1660e01b8152600401610dd89190613543565b60206040518083038186803b158015610df057600080fd5b505afa158015610e04573d6000803e3d6000fd5b505050506040513d601f19601f82011682018060405250610e2891908101906126d5565b6001600160a01b031681526020019190915298975050505050505050565b60408051828152602080840282010190915260609082908290828015610e8657816020015b610e736121b4565b815260200190600190039081610e6b5790505b50905060005b82811015610ed757610eb8868683818110610ea357fe5b905060200201602061028e91908101906128d8565b828281518110610ec457fe5b6020908102919091010152600101610e8c565b509150505b92915050565b600080600080600080600080600080600080610efc612100565b610f058e610364565b905080602001519b5080604001519a5080606001519950806080015198508060a0015197508060c0015196508060e001519550806101000151945080610120015193508061014001519c508061016001519250806101a0015191505091939597999b5091939597999b565b610f786121cb565b6040805160608101918290526370a0823160e01b909152806001600160a01b0385166370a08231610fac8660648501613543565b60206040518083038186803b158015610fc457600080fd5b505afa158015610fd8573d6000803e3d6000fd5b505050506040513d601f19601f82011682018060405250610ffc9190810190612abb565b8152602001846001600160a01b031663b4b5ea57856040518263ffffffff1660e01b815260040161102d9190613543565b60206040518083038186803b15801561104557600080fd5b505afa158015611059573d6000803e3d6000fd5b505050506040513d601f19601f8201168201806040525061107d9190810190612c1c565b6001600160601b03168152602001846001600160a01b031663587cde1e856040518263ffffffff1660e01b81526004016110b79190613543565b60206040518083038186803b1580156110cf57600080fd5b505afa1580156110e3573d6000803e3d6000fd5b505050506040513d601f19601f8201168201806040525061110791908101906126d5565b6001600160a01b031690529392505050565b6040805182815260208084028201019091526060908290829082801561115957816020015b611146612100565b81526020019060019003908161113e5790505b50905060005b82811015610ed75761118b86868381811061117657fe5b905060200201602061010191908101906128d8565b82828151811061119757fe5b602090810291909101015260010161115f565b60008060606111b76121f5565b6111c18686611333565b602081015160408201519151909891975095509350505050565b6060808383905060405190808252806020026020018201604052801561121b57816020015b611208612216565b8152602001906001900390816112005790505b50905060005b8381101561132957604051806040016040528086868481811061124057fe5b90506020020160206112559190810190612be0565b63ffffffff168152602001886001600160a01b031663782d6fe18989898781811061127c57fe5b90506020020160206112919190810190612be0565b6040518363ffffffff1660e01b81526004016112ae92919061357a565b60206040518083038186803b1580156112c657600080fd5b505afa1580156112da573d6000803e3d6000fd5b505050506040513d601f19601f820116820180604052506112fe9190810190612c1c565b6001600160601b031681525082828151811061131657fe5b6020908102919091010152600101611221565b5095945050505050565b61133b6121f5565b6000806000856001600160a01b0316635ec88c79866040518263ffffffff1660e01b815260040161136c9190613543565b60606040518083038186803b15801561138457600080fd5b505afa158015611398573d6000803e3d6000fd5b505050506040513d601f19601f820116820180604052506113bc9190810190612b9d565b925092509250826000146113cf57600080fd5b604080516060810191829052632aff3bff60e21b909152806001600160a01b03881663abfceffc6114038960648501613543565b60006040518083038186803b15801561141b57600080fd5b505afa15801561142f573d6000803e3d6000fd5b505050506040513d6000823e601f3d908101601f1916820160405261145791908101906127f8565b81526020810193909352604090920152949350505050565b606080838390506040519080825280602002602001820160405280156114af57816020015b61149c612230565b8152602001906001900390816114945790505b50905060005b8381101561162257606080606080896001600160a01b031663328dd9828a8a888181106114de57fe5b905060200201356040518263ffffffff1660e01b81526004016115019190613672565b60006040518083038186803b15801561151957600080fd5b505afa15801561152d573d6000803e3d6000fd5b505050506040513d6000823e601f3d908101601f1916820160405261155591908101906126fb565b9350935093509350604051806101a001604052806000815260200160006001600160a01b031681526020016000815260200185815260200184815260200183815260200182815260200160008152602001600081526020016000815260200160008152602001600015158152602001600015158152508686815181106115d757fe5b60200260200101819052506116128686815181106115f157fe5b60200260200101518b8b8b8981811061160657fe5b90506020020135611f9b565b5050600190920191506114b59050565b50949350505050565b606060008251905060608160405190808252806020026020018201604052801561166f57816020015b61165c6122a5565b8152602001906001900390816116545790505b50905060005b82811015610358576116856122cc565b876001600160a01b031663e23a9a528784815181106116a057fe5b6020026020010151896040518363ffffffff1660e01b81526004016116c6929190613680565b60606040518083038186803b1580156116de57600080fd5b505afa1580156116f2573d6000803e3d6000fd5b505050506040513d601f19601f820116820180604052506117169190810190612a9d565b9050604051806080016040528087848151811061172f57fe5b6020026020010151815260200182600001511515815260200182602001511515815260200182604001516001600160601b031681525083838151811061177157fe5b602090810291909101015250600101611675565b61178d6120c1565b6040516370a0823160e01b81526000906001600160a01b038516906370a08231906117bc908690600401613551565b60206040518083038186803b1580156117d457600080fd5b505afa1580156117e8573d6000803e3d6000fd5b505050506040513d601f19601f8201168201806040525061180c9190810190612abb565b90506000846001600160a01b03166317bfdfbc856040518263ffffffff1660e01b815260040161183c9190613551565b602060405180830381600087803b15801561185657600080fd5b505af115801561186a573d6000803e3d6000fd5b505050506040513d601f19601f8201168201806040525061188e9190810190612abb565b90506000856001600160a01b0316633af9e669866040518263ffffffff1660e01b81526004016118be9190613551565b602060405180830381600087803b1580156118d857600080fd5b505af11580156118ec573d6000803e3d6000fd5b505050506040513d601f19601f820116820180604052506119109190810190612abb565b9050600080876001600160a01b0316639af4ee7e6040518163ffffffff1660e01b815260040160206040518083038186803b15801561194e57600080fd5b505afa158015611962573d6000803e3d6000fd5b505050506040513d601f19601f820116820180604052506119869190810190612880565b156119a05750506001600160a01b03851680319031611b1d565b60008890506000816001600160a01b0316636f307dc36040518163ffffffff1660e01b815260040160206040518083038186803b1580156119e057600080fd5b505afa1580156119f4573d6000803e3d6000fd5b505050506040513d601f19601f82011682018060405250611a1891908101906126d5565b6040516370a0823160e01b81529091506001600160a01b038216906370a0823190611a47908c90600401613551565b60206040518083038186803b158015611a5f57600080fd5b505afa158015611a73573d6000803e3d6000fd5b505050506040513d601f19601f82011682018060405250611a979190810190612abb565b604051636eb1769f60e11b81529094506001600160a01b0382169063dd62ed3e90611ac8908c908e9060040161355f565b60206040518083038186803b158015611ae057600080fd5b505afa158015611af4573d6000803e3d6000fd5b505050506040513d601f19601f82011682018060405250611b189190810190612abb565b925050505b6040805160c0810182526001600160a01b039990991689526020890195909552938701929092526060860152608085015260a08401525090919050565b611b626121b4565b6000826001600160a01b0316635fe3b5676040518163ffffffff1660e01b815260040160206040518083038186803b158015611b9d57600080fd5b505afa158015611bb1573d6000803e3d6000fd5b505050506040513d601f19601f82011682018060405250611bd591908101906129d0565b90506000816001600160a01b0316637dc0d1d06040518163ffffffff1660e01b815260040160206040518083038186803b158015611c1257600080fd5b505afa158015611c26573d6000803e3d6000fd5b505050506040513d601f19601f82011682018060405250611c4a91908101906129d0565b90506040518060400160405280856001600160a01b03168152602001826001600160a01b031663fc57d4df876040518263ffffffff1660e01b8152600401611c9291906135fb565b60206040518083038186803b158015611caa57600080fd5b505afa158015611cbe573d6000803e3d6000fd5b505050506040513d601f19601f82011682018060405250611ce29190810190612abb565b9052949350505050565b600080846001600160a01b03166370a08231846040518263ffffffff1660e01b8152600401611d1b9190613543565b60206040518083038186803b158015611d3357600080fd5b505afa158015611d47573d6000803e3d6000fd5b505050506040513d601f19601f82011682018060405250611d6b9190810190612abb565b6040516374d7814960e11b81529092506001600160a01b0385169063e9af029290611d9a908690600401613543565b600060405180830381600087803b158015611db457600080fd5b505af1158015611dc8573d6000803e3d6000fd5b50506040516370a0823160e01b8152600092506001600160a01b03881691506370a0823190611dfb908790600401613543565b60206040518083038186803b158015611e1357600080fd5b505afa158015611e27573d6000803e3d6000fd5b505050506040513d601f19601f82011682018060405250611e4b9190810190612abb565b90506000856001600160a01b031663cc7ebdc4866040518263ffffffff1660e01b8152600401611e7b9190613543565b60206040518083038186803b158015611e9357600080fd5b505afa158015611ea7573d6000803e3d6000fd5b505050506040513d601f19601f82011682018060405250611ecb9190810190612abb565b90506000611f0082846040518060400160405280600e81526020016d1cdd5b4818dbdb5c081d1bdd185b60921b815250611f3f565b9050611f3281866040518060400160405280600d81526020016c1cdd5888185b1b1bd8d85d1959609a1b815250611f6f565b9350505050935093915050565b600083830182858210156116225760405162461bcd60e51b8152600401611f669190613609565b60405180910390fd5b60008184841115611f935760405162461bcd60e51b8152600401611f669190613609565b505050900390565b600080600080600080600080896001600160a01b031663013cf08b8a6040518263ffffffff1660e01b8152600401611fd39190613672565b6101206040518083038186803b158015611fec57600080fd5b505afa158015612000573d6000803e3d6000fd5b505050506040513d601f19601f820116820180604052506120249190810190612ad9565b9850985098509850985098509850985050888b6000018181525050878b602001906001600160a01b031690816001600160a01b031681525050868b6040018181525050858b60e0018181525050848b610100018181525050838b610120018181525050828b610140018181525050818b610160019015159081151581525050808b6101800190151590811515815250505050505050505050505050565b6040518060c0016040528060006001600160a01b0316815260200160008152602001600081526020016000815260200160008152602001600081525090565b604051806101c0016040528060006001600160a01b0316815260200160008152602001600081526020016000815260200160008152602001600081526020016000815260200160008152602001600081526020016000151581526020016000815260200160006001600160a01b0316815260200160008152602001600081525090565b6040518060800160405280600081526020016000815260200160006001600160a01b03168152602001600081525090565b604080518082019091526000808252602082015290565b6040518060600160405280600081526020016000815260200160006001600160a01b031681525090565b60405180606001604052806060815260200160008152602001600081525090565b604051806040016040528060008152602001600081525090565b604051806101a001604052806000815260200160006001600160a01b031681526020016000815260200160608152602001606081526020016060815260200160608152602001600081526020016000815260200160008152602001600081526020016000151581526020016000151581525090565b60408051608081018252600080825260208201819052918101829052606081019190915290565b604080516060810182526000808252602082018190529181019190915290565b8035610edc816138a3565b8051610edc816138a3565b600082601f83011261231357600080fd5b8151612326612321826137b8565b613792565b9150818183526020840193506020810190508385602084028201111561234b57600080fd5b60005b83811015612377578161236188826122f7565b845250602092830192919091019060010161234e565b5050505092915050565b600082601f83011261239257600080fd5b81516123a0612321826137b8565b81815260209384019390925082018360005b8381101561237757815186016123c888826125de565b84525060209283019291909101906001016123b2565b60008083601f8401126123f057600080fd5b5081356001600160401b0381111561240757600080fd5b60208301915083602082028301111561241f57600080fd5b9250929050565b600082601f83011261243757600080fd5b8151612445612321826137b8565b9150818183526020840193506020810190508385602084028201111561246a57600080fd5b60005b8381101561237757816124808882612638565b845250602092830192919091019060010161246d565b600082601f8301126124a757600080fd5b81516124b5612321826137b8565b81815260209384019390925082018360005b8381101561237757815186016124dd88826125de565b84525060209283019291909101906001016124c7565b600082601f83011261250457600080fd5b8135612512612321826137b8565b9150818183526020840193506020810190508385602084028201111561253757600080fd5b60005b83811015612377578161254d888261269e565b845250602092830192919091019060010161253a565b600082601f83011261257457600080fd5b8151612582612321826137b8565b915081818352602084019350602081019050838560208402820111156125a757600080fd5b60005b8381101561237757816125bd88826126a9565b84525060209283019291909101906001016125aa565b8051610edc816138ba565b600082601f8301126125ef57600080fd5b81516125fd612321826137d8565b9150808252602083016020830185838301111561261957600080fd5b61262483828461386d565b50505092915050565b8035610edc816138c3565b8051610edc816138c3565b60006060828403121561265557600080fd5b61265f6060613792565b9050600061266d84846125d3565b825250602061267e848483016125d3565b6020830152506040612692848285016126ca565b60408301525092915050565b8035610edc816138cc565b8051610edc816138cc565b8035610edc816138d5565b8051610edc816138de565b8051610edc816138e7565b6000602082840312156126e757600080fd5b60006126f384846122f7565b949350505050565b6000806000806080858703121561271157600080fd5b84516001600160401b0381111561272757600080fd5b61273387828801612302565b94505060208501516001600160401b0381111561274f57600080fd5b61275b87828801612563565b93505060408501516001600160401b0381111561277757600080fd5b61278387828801612496565b92505060608501516001600160401b0381111561279f57600080fd5b6127ab87828801612381565b91505092959194509250565b600080602083850312156127ca57600080fd5b82356001600160401b038111156127e057600080fd5b6127ec858286016123de565b92509250509250929050565b60006020828403121561280a57600080fd5b81516001600160401b0381111561282057600080fd5b6126f384828501612426565b60008060006040848603121561284157600080fd5b83356001600160401b0381111561285757600080fd5b612863868287016123de565b93509350506020612876868287016122ec565b9150509250925092565b60006020828403121561289257600080fd5b60006126f384846125d3565b600080604083850312156128b157600080fd5b60006128bd85856125d3565b92505060206128ce858286016126a9565b9150509250929050565b6000602082840312156128ea57600080fd5b60006126f3848461262d565b6000806040838503121561290957600080fd5b6000612915858561262d565b92505060206128ce858286016122ec565b6000806000806060858703121561293c57600080fd5b6000612948878761262d565b9450506020612959878288016122ec565b93505060408501356001600160401b0381111561297557600080fd5b612981878288016123de565b95989497509550505050565b6000806000606084860312156129a257600080fd5b60006129ae868661262d565b93505060206129bf8682870161262d565b9250506040612876868287016122ec565b6000602082840312156129e257600080fd5b60006126f38484612638565b600080600060608486031215612a0357600080fd5b6000612a0f868661262d565b9350506020612a20868287016122ec565b92505060408401356001600160401b03811115612a3c57600080fd5b612876868287016124f3565b600080600060408486031215612a5d57600080fd5b6000612a69868661262d565b93505060208401356001600160401b03811115612a8557600080fd5b612a91868287016123de565b92509250509250925092565b600060608284031215612aaf57600080fd5b60006126f38484612643565b600060208284031215612acd57600080fd5b60006126f384846126a9565b60008060008060008060008060006101208a8c031215612af857600080fd5b6000612b048c8c6126a9565b9950506020612b158c828d016122f7565b9850506040612b268c828d016126a9565b9750506060612b378c828d016126a9565b9650506080612b488c828d016126a9565b95505060a0612b598c828d016126a9565b94505060c0612b6a8c828d016126a9565b93505060e0612b7b8c828d016125d3565b925050610100612b8d8c828d016125d3565b9150509295985092959850929598565b600080600060608486031215612bb257600080fd5b6000612bbe86866126a9565b9350506020612bcf868287016126a9565b9250506040612876868287016126a9565b600060208284031215612bf257600080fd5b60006126f384846126b4565b600060208284031215612c1057600080fd5b60006126f384846126bf565b600060208284031215612c2e57600080fd5b60006126f384846126ca565b6000612c468383612cea565b505060200190565b600061035d83836130f5565b6000612c46838361312d565b6000612c72838361317e565b505060c00190565b6000612c8683836131f4565b50506101c00190565b6000612c9b8383613309565b505060400190565b6000612c9b83836133ae565b600061035d83836133bf565b6000612cc783836134de565b505060800190565b6000612c468383613528565b612ce481613857565b82525050565b612ce481613812565b6000612cfe82613805565b612d088185613809565b9350612d13836137ff565b8060005b83811015612d41578151612d2b8882612c3a565b9750612d36836137ff565b925050600101612d17565b509495945050505050565b6000612d5782613805565b612d618185613809565b935083602082028501612d73856137ff565b8060005b85811015612dad5784840389528151612d908582612c4e565b9450612d9b836137ff565b60209a909a0199925050600101612d77565b5091979650505050505050565b6000612dc582613805565b612dcf8185613809565b9350612dda836137ff565b8060005b83811015612d41578151612df28882612c5a565b9750612dfd836137ff565b925050600101612dde565b6000612e1382613805565b612e1d8185613809565b9350612e28836137ff565b8060005b83811015612d41578151612e408882612c5a565b9750612e4b836137ff565b925050600101612e2c565b6000612e6182613805565b612e6b8185613809565b935083602082028501612e7d856137ff565b8060005b85811015612dad5784840389528151612e9a8582612c4e565b9450612ea5836137ff565b60209a909a0199925050600101612e81565b6000612ec282613805565b612ecc8185613809565b9350612ed7836137ff565b8060005b83811015612d41578151612eef8882612c66565b9750612efa836137ff565b925050600101612edb565b6000612f1082613805565b612f1a8185613809565b9350612f25836137ff565b8060005b83811015612d41578151612f3d8882612c7a565b9750612f48836137ff565b925050600101612f29565b6000612f5e82613805565b612f688185613809565b9350612f73836137ff565b8060005b83811015612d41578151612f8b8882612c8f565b9750612f96836137ff565b925050600101612f77565b6000612fac82613805565b612fb68185613809565b9350612fc1836137ff565b8060005b83811015612d41578151612fd98882612ca3565b9750612fe4836137ff565b925050600101612fc5565b6000612ffa82613805565b6130048185613809565b935083602082028501613016856137ff565b8060005b85811015612dad57848403895281516130338582612caf565b945061303e836137ff565b60209a909a019992505060010161301a565b600061305b82613805565b6130658185613809565b9350613070836137ff565b8060005b83811015612d415781516130888882612cbb565b9750613093836137ff565b925050600101613074565b60006130a982613805565b6130b38185613809565b93506130be836137ff565b8060005b83811015612d415781516130d68882612ccf565b97506130e1836137ff565b9250506001016130c2565b612ce48161381d565b600061310082613805565b61310a8185613809565b935061311a81856020860161386d565b61312381613899565b9093019392505050565b612ce481613822565b805160608084526000919084019061314e8282612e08565b91505060208301516131636020860182613528565b5060408301516131766040860182613528565b509392505050565b805160c083019061318f8482612cea565b5060208201516131a26020850182613528565b5060408201516131b56040850182613528565b5060608201516131c86060850182613528565b5060808201516131db6080850182613528565b5060a08201516131ee60a0850182613528565b50505050565b80516101c08301906132068482612cea565b5060208201516132196020850182613528565b50604082015161322c6040850182613528565b50606082015161323f6060850182613528565b5060808201516132526080850182613528565b5060a082015161326560a0850182613528565b5060c082015161327860c0850182613528565b5060e082015161328b60e0850182613528565b506101008201516132a0610100850182613528565b506101208201516132b56101208501826130ec565b506101408201516132ca610140850182613528565b506101608201516132df610160850182612cea565b506101808201516132f4610180850182613528565b506101a08201516131ee6101a0850182613528565b8051604083019061331a8482612cea565b5060208201516131ee6020850182613528565b8051608083019061333e8482613528565b5060208201516133516020850182613528565b5060408201516133646040850182612cea565b5060608201516131ee6060850182613528565b805160608301906133888482613528565b50602082015161339b6020850182613528565b5060408201516131ee6040850182612cea565b8051604083019061331a8482613528565b80516000906101a08401906133d48582613528565b5060208301516133e76020860182612cea565b5060408301516133fa6040860182613528565b50606083015184820360608601526134128282612cf3565b9150506080830151848203608086015261342c828261309e565b91505060a083015184820360a08601526134468282612e56565b91505060c083015184820360c08601526134608282612d4c565b91505060e083015161347560e0860182613528565b5061010083015161348a610100860182613528565b5061012083015161349f610120860182613528565b506101408301516134b4610140860182613528565b506101608301516134c96101608601826130ec565b506101808301516131766101808601826130ec565b805160808301906134ef8482613528565b50602082015161350260208501826130ec565b50604082015161351560408501826130ec565b5060608201516131ee606085018261353a565b612ce481613839565b612ce481613862565b612ce48161384b565b60208101610edc8284612cea565b60208101610edc8284612cdb565b6040810161356d8285612cdb565b61035d6020830184612cea565b604081016135888285612cea565b61035d6020830184613531565b6020808252810161035d8184612eb7565b6020808252810161035d8184612f05565b6020808252810161035d8184612f53565b6020808252810161035d8184612fa1565b6020808252810161035d8184612fef565b6020808252810161035d8184613050565b60208101610edc828461312d565b6020808252810161035d81846130f5565b6020808252810161035d8184613136565b60c08101610edc828461317e565b6101c08101610edc82846131f4565b60408101610edc8284613309565b60808101610edc828461332d565b60608101610edc8284613377565b60208101610edc8284613528565b6040810161356d8285613528565b6040810161369c8285613528565b61035d6020830184613528565b606081016136b78286613528565b6136c46020830185613528565b81810360408301526136d68184612dba565b95945050505050565b61018081016136ee828f613528565b6136fb602083018e613528565b613708604083018d613528565b613715606083018c613528565b613722608083018b613528565b61372f60a083018a613528565b61373c60c0830189613528565b61374960e0830188613528565b613757610100830187613528565b6137656101208301866130ec565b613773610140830185612cea565b613781610160830184613528565b9d9c50505050505050505050505050565b6040518181016001600160401b03811182821017156137b057600080fd5b604052919050565b60006001600160401b038211156137ce57600080fd5b5060209081020190565b60006001600160401b038211156137ee57600080fd5b506020601f91909101601f19160190565b60200190565b5190565b90815260200190565b6000610edc8261382d565b151590565b6000610edc82613812565b6001600160a01b031690565b90565b63ffffffff1690565b60ff1690565b6001600160601b031690565b6000610edc82613822565b6000610edc8261383c565b60005b83811015613888578181015183820152602001613870565b838111156131ee5750506000910152565b601f01601f191690565b6138ac81613812565b81146138b757600080fd5b50565b6138ac8161381d565b6138ac81613822565b6138ac81613839565b6138ac8161383c565b6138ac81613845565b6138ac8161384b56fea365627a7a72315820ce786bc7c345a05f15f096116f1e18f2900da00d1de2d3677bc5a9e5b404a42f6c6578706572696d656e74616cf564736f6c63430005100040",
  "source": "pragma solidity ^0.5.16;\npragma experimental ABIEncoderV2;\n\nimport \"../CErc20.sol\";\nimport \"../../SToken.sol\";\nimport \"../CToken.sol\";\nimport \"../PriceOracle.sol\";\nimport \"../EIP20Interface.sol\";\nimport \"../Governance/GovernorAlpha.sol\";\nimport \"../Governance/Comp.sol\";\n\ninterface ComptrollerLensInterface {\n    function markets(address) external view returns (bool, uint);\n    function oracle() external view returns (PriceOracle);\n    function getAccountLiquidity(address) external view returns (uint, uint, uint);\n    function getAssetsIn(address) external view returns (CToken[] memory);\n    function claimComp(address) external;\n    function compAccrued(address) external view returns (uint);\n}\n\ncontract CompoundLens {\n    struct CTokenMetadata {\n        address cToken;\n        uint exchangeRateCurrent;\n        uint supplyRatePerBlock;\n        uint borrowRatePerBlock;\n        uint reserveFactorMantissa;\n        uint totalBorrows;\n        uint totalReserves;\n        uint totalSupply;\n        uint totalCash;\n        bool isListed;\n        uint collateralFactorMantissa;\n        address underlyingAssetAddress;\n        uint cTokenDecimals;\n        uint underlyingDecimals;\n    }\n\n    function cTokenMetadataExpand(SToken cToken) public returns (\n        uint collateralFactorMantissa,\n        uint exchangeRateCurrent,\n        uint supplyRatePerBlock,\n        uint borrowRatePerBlock,\n        uint reserveFactorMantissa,\n        uint totalBorrows,\n        uint totalReserves, uint totalSupply, uint totalCash,\n        bool isListed, address underlyingAssetAddress,\n        uint underlyingDecimals) {\n        CTokenMetadata memory cTokenData = cTokenMetadata(cToken);\n        exchangeRateCurrent = cTokenData.exchangeRateCurrent;\n        supplyRatePerBlock = cTokenData.supplyRatePerBlock;\n        borrowRatePerBlock = cTokenData.borrowRatePerBlock;\n        reserveFactorMantissa = cTokenData.reserveFactorMantissa;\n        totalBorrows = cTokenData.totalBorrows;\n        totalReserves = cTokenData.totalReserves;\n        totalSupply = cTokenData.totalSupply;\n        totalCash = cTokenData.totalCash;\n        isListed = cTokenData.isListed;\n        collateralFactorMantissa = cTokenData.collateralFactorMantissa;\n        underlyingAssetAddress = cTokenData.underlyingAssetAddress;\n        underlyingDecimals = cTokenData.underlyingDecimals;\n    }\n\n    function cTokenMetadata(SToken cToken) public returns (CTokenMetadata memory) {\n        uint exchangeRateCurrent = cToken.exchangeRateCurrent();\n        ComptrollerLensInterface comptroller = ComptrollerLensInterface(address(cToken.comptroller()));\n        (bool isListed, uint collateralFactorMantissa) = comptroller.markets(address(cToken));\n        address underlyingAssetAddress;\n        uint underlyingDecimals;\n\n        if (cToken.isNativeToken()) {\n            underlyingAssetAddress = address(0);\n            underlyingDecimals = 18;\n        } else {\n            CErc20 cErc20 = CErc20(address(cToken));\n            underlyingAssetAddress = cErc20.underlying();\n            underlyingDecimals = EIP20Interface(cErc20.underlying()).decimals();\n        }\n\n        return CTokenMetadata({\n            cToken: address(cToken),\n            exchangeRateCurrent: exchangeRateCurrent,\n            supplyRatePerBlock: cToken.supplyRatePerBlock(),\n            borrowRatePerBlock: cToken.borrowRatePerBlock(),\n            reserveFactorMantissa: cToken.reserveFactorMantissa(),\n            totalBorrows: cToken.totalBorrows(),\n            totalReserves: cToken.totalReserves(),\n            totalSupply: cToken.totalSupply(),\n            totalCash: cToken.getCash(),\n            isListed: isListed,\n            collateralFactorMantissa: collateralFactorMantissa,\n            underlyingAssetAddress: underlyingAssetAddress,\n            cTokenDecimals: cToken.decimals(),\n            underlyingDecimals: underlyingDecimals\n        });\n    }\n\n    function cTokenMetadataAll(SToken[] calldata cTokens) external returns (CTokenMetadata[] memory) {\n        uint cTokenCount = cTokens.length;\n        CTokenMetadata[] memory res = new CTokenMetadata[](cTokenCount);\n        for (uint i = 0; i < cTokenCount; i++) {\n            res[i] = cTokenMetadata(cTokens[i]);\n        }\n        return res;\n    }\n\n    struct CTokenBalances {\n        address cToken;\n        uint balanceOf;\n        uint borrowBalanceCurrent;\n        uint balanceOfUnderlying;\n        uint tokenBalance;\n        uint tokenAllowance;\n    }\n\n    function cTokenBalances(SToken cToken, address payable account) public returns (CTokenBalances memory) {\n        uint balanceOf = cToken.balanceOf(account);\n        uint borrowBalanceCurrent = cToken.borrowBalanceCurrent(account);\n        uint balanceOfUnderlying = cToken.balanceOfUnderlying(account);\n        uint tokenBalance;\n        uint tokenAllowance;\n\n        if (cToken.isNativeToken()) {\n            tokenBalance = account.balance;\n            tokenAllowance = account.balance;\n        } else {\n            CErc20 cErc20 = CErc20(address(cToken));\n            EIP20Interface underlying = EIP20Interface(cErc20.underlying());\n            tokenBalance = underlying.balanceOf(account);\n            tokenAllowance = underlying.allowance(account, address(cToken));\n        }\n\n        return CTokenBalances({\n            cToken: address(cToken),\n            balanceOf: balanceOf,\n            borrowBalanceCurrent: borrowBalanceCurrent,\n            balanceOfUnderlying: balanceOfUnderlying,\n            tokenBalance: tokenBalance,\n            tokenAllowance: tokenAllowance\n        });\n    }\n\n    function cTokenBalancesAll(SToken[] calldata cTokens, address payable account) external returns (CTokenBalances[] memory) {\n        uint cTokenCount = cTokens.length;\n        CTokenBalances[] memory res = new CTokenBalances[](cTokenCount);\n        for (uint i = 0; i < cTokenCount; i++) {\n            res[i] = cTokenBalances(cTokens[i], account);\n        }\n        return res;\n    }\n\n    struct CTokenUnderlyingPrice {\n        address cToken;\n        uint underlyingPrice;\n    }\n\n    function cTokenUnderlyingPrice(CToken cToken) public view returns (CTokenUnderlyingPrice memory) {\n        ComptrollerLensInterface comptroller = ComptrollerLensInterface(address(cToken.comptroller()));\n        PriceOracle priceOracle = comptroller.oracle();\n\n        return CTokenUnderlyingPrice({\n            cToken: address(cToken),\n            underlyingPrice: priceOracle.getUnderlyingPrice(cToken)\n        });\n    }\n\n    function cTokenUnderlyingPriceAll(CToken[] calldata cTokens) external view returns (CTokenUnderlyingPrice[] memory) {\n        uint cTokenCount = cTokens.length;\n        CTokenUnderlyingPrice[] memory res = new CTokenUnderlyingPrice[](cTokenCount);\n        for (uint i = 0; i < cTokenCount; i++) {\n            res[i] = cTokenUnderlyingPrice(cTokens[i]);\n        }\n        return res;\n    }\n\n    struct AccountLimits {\n        CToken[] markets;\n        uint liquidity;\n        uint shortfall;\n    }\n\n    function getAccountLimits(ComptrollerLensInterface comptroller, address account) public view returns (AccountLimits memory) {\n        (uint errorCode, uint liquidity, uint shortfall) = comptroller.getAccountLiquidity(account);\n        require(errorCode == 0);\n\n        return AccountLimits({\n            markets: comptroller.getAssetsIn(account),\n            liquidity: liquidity,\n            shortfall: shortfall\n        });\n    }\n\n    function getAccountLimitsExpand(ComptrollerLensInterface comptroller, address account) public view returns (uint liquidity, uint shortfall,  CToken[] memory markets) {\n        AccountLimits memory accountLimits = getAccountLimits(comptroller, account);\n        liquidity = accountLimits.liquidity;\n        shortfall = accountLimits.shortfall;\n        markets = accountLimits.markets;\n    }\n\n    struct GovReceipt {\n        uint proposalId;\n        bool hasVoted;\n        bool support;\n        uint96 votes;\n    }\n\n    function getGovReceipts(GovernorAlpha governor, address voter, uint[] memory proposalIds) public view returns (GovReceipt[] memory) {\n        uint proposalCount = proposalIds.length;\n        GovReceipt[] memory res = new GovReceipt[](proposalCount);\n        for (uint i = 0; i < proposalCount; i++) {\n            GovernorAlpha.Receipt memory receipt = governor.getReceipt(proposalIds[i], voter);\n            res[i] = GovReceipt({\n                proposalId: proposalIds[i],\n                hasVoted: receipt.hasVoted,\n                support: receipt.support,\n                votes: receipt.votes\n            });\n        }\n        return res;\n    }\n\n    struct GovProposal {\n        uint proposalId;\n        address proposer;\n        uint eta;\n        address[] targets;\n        uint[] values;\n        string[] signatures;\n        bytes[] calldatas;\n        uint startBlock;\n        uint endBlock;\n        uint forVotes;\n        uint againstVotes;\n        bool canceled;\n        bool executed;\n    }\n\n    function setProposal(GovProposal memory res, GovernorAlpha governor, uint proposalId) internal view {\n        (\n            ,\n            address proposer,\n            uint eta,\n            uint startBlock,\n            uint endBlock,\n            uint forVotes,\n            uint againstVotes,\n            bool canceled,\n            bool executed\n        ) = governor.proposals(proposalId);\n        res.proposalId = proposalId;\n        res.proposer = proposer;\n        res.eta = eta;\n        res.startBlock = startBlock;\n        res.endBlock = endBlock;\n        res.forVotes = forVotes;\n        res.againstVotes = againstVotes;\n        res.canceled = canceled;\n        res.executed = executed;\n    }\n\n    function getGovProposals(GovernorAlpha governor, uint[] calldata proposalIds) external view returns (GovProposal[] memory) {\n        GovProposal[] memory res = new GovProposal[](proposalIds.length);\n        for (uint i = 0; i < proposalIds.length; i++) {\n            (\n                address[] memory targets,\n                uint[] memory values,\n                string[] memory signatures,\n                bytes[] memory calldatas\n            ) = governor.getActions(proposalIds[i]);\n            res[i] = GovProposal({\n                proposalId: 0,\n                proposer: address(0),\n                eta: 0,\n                targets: targets,\n                values: values,\n                signatures: signatures,\n                calldatas: calldatas,\n                startBlock: 0,\n                endBlock: 0,\n                forVotes: 0,\n                againstVotes: 0,\n                canceled: false,\n                executed: false\n            });\n            setProposal(res[i], governor, proposalIds[i]);\n        }\n        return res;\n    }\n\n    struct CompBalanceMetadata {\n        uint balance;\n        uint votes;\n        address delegate;\n    }\n\n    function getCompBalanceMetadata(Comp comp, address account) external view returns (CompBalanceMetadata memory) {\n        return CompBalanceMetadata({\n            balance: comp.balanceOf(account),\n            votes: uint256(comp.getCurrentVotes(account)),\n            delegate: comp.delegates(account)\n        });\n    }\n\n    struct CompBalanceMetadataExt {\n        uint balance;\n        uint votes;\n        address delegate;\n        uint allocated;\n    }\n\n    function getCompBalanceMetadataExt(Comp comp, ComptrollerLensInterface comptroller, address account) external returns (CompBalanceMetadataExt memory) {\n        uint balance = comp.balanceOf(account);\n        comptroller.claimComp(account);\n        uint newBalance = comp.balanceOf(account);\n        uint accrued = comptroller.compAccrued(account);\n        uint total = add(accrued, newBalance, \"sum comp total\");\n        uint allocated = sub(total, balance, \"sub allocated\");\n\n        return CompBalanceMetadataExt({\n            balance: balance,\n            votes: uint256(comp.getCurrentVotes(account)),\n            delegate: comp.delegates(account),\n            allocated: allocated\n        });\n    }\n\n    function getCompBalanceWithAccrued(Comp comp, ComptrollerLensInterface comptroller, address account) external returns (uint balance, uint allocated) {\n        balance = comp.balanceOf(account);\n        comptroller.claimComp(account);\n        uint newBalance = comp.balanceOf(account);\n        uint accrued = comptroller.compAccrued(account);\n        uint total = add(accrued, newBalance, \"sum comp total\");\n        allocated = sub(total, balance, \"sub allocated\");\n    }\n\n    struct CompVotes {\n        uint blockNumber;\n        uint votes;\n    }\n\n    function getCompVotes(Comp comp, address account, uint32[] calldata blockNumbers) external view returns (CompVotes[] memory) {\n        CompVotes[] memory res = new CompVotes[](blockNumbers.length);\n        for (uint i = 0; i < blockNumbers.length; i++) {\n            res[i] = CompVotes({\n                blockNumber: uint256(blockNumbers[i]),\n                votes: uint256(comp.getPriorVotes(account, blockNumbers[i]))\n            });\n        }\n        return res;\n    }\n\n    function add(uint a, uint b, string memory errorMessage) internal pure returns (uint) {\n        uint c = a + b;\n        require(c >= a, errorMessage);\n        return c;\n    }\n\n    function sub(uint a, uint b, string memory errorMessage) internal pure returns (uint) {\n        require(b <= a, errorMessage);\n        uint c = a - b;\n        return c;\n    }\n}",
  "sourcePath": "/Users/ashton/repo/blockchain/eth/smartcontracts/quicksilver-protocol/contracts/compound/Lens/CompoundLens.sol",
  "compiler": {
    "name": "solc",
    "version": "0.5.16+commit.9c3226ce.Emscripten.clang"
  },
  "schemaVersion": "3.4.1",
  "updatedAt": "2021-08-16T22:55:24.203Z",
  "devdoc": {
    "methods": {}
  },
  "userdoc": {
    "methods": {}
  }
}