{
  "contractName": "ComptrollerV2Storage",
  "abi": [
    {
      "constant": true,
      "inputs": [],
      "name": "_borrowGuardianPaused",
      "outputs": [
        {
          "internalType": "bool",
          "name": "",
          "type": "bool"
        }
      ],
      "payable": false,
      "stateMutability": "view",
      "type": "function"
    },
    {
      "constant": true,
      "inputs": [],
      "name": "_mintGuardianPaused",
      "outputs": [
        {
          "internalType": "bool",
          "name": "",
          "type": "bool"
        }
      ],
      "payable": false,
      "stateMutability": "view",
      "type": "function"
    },
    {
      "constant": true,
      "inputs": [
        {
          "internalType": "address",
          "name": "",
          "type": "address"
        },
        {
          "internalType": "uint256",
          "name": "",
          "type": "uint256"
        }
      ],
      "name": "accountAssets",
      "outputs": [
        {
          "internalType": "contract CToken",
          "name": "",
          "type": "address"
        }
      ],
      "payable": false,
      "stateMutability": "view",
      "type": "function"
    },
    {
      "constant": true,
      "inputs": [],
      "name": "admin",
      "outputs": [
        {
          "internalType": "address",
          "name": "",
          "type": "address"
        }
      ],
      "payable": false,
      "stateMutability": "view",
      "type": "function"
    },
    {
      "constant": true,
      "inputs": [
        {
          "internalType": "address",
          "name": "",
          "type": "address"
        }
      ],
      "name": "borrowGuardianPaused",
      "outputs": [
        {
          "internalType": "bool",
          "name": "",
          "type": "bool"
        }
      ],
      "payable": false,
      "stateMutability": "view",
      "type": "function"
    },
    {
      "constant": true,
      "inputs": [],
      "name": "closeFactorMantissa",
      "outputs": [
        {
          "internalType": "uint256",
          "name": "",
          "type": "uint256"
        }
      ],
      "payable": false,
      "stateMutability": "view",
      "type": "function"
    },
    {
      "constant": true,
      "inputs": [],
      "name": "comptrollerImplementation",
      "outputs": [
        {
          "internalType": "address",
          "name": "",
          "type": "address"
        }
      ],
      "payable": false,
      "stateMutability": "view",
      "type": "function"
    },
    {
      "constant": true,
      "inputs": [],
      "name": "liquidationIncentiveMantissa",
      "outputs": [
        {
          "internalType": "uint256",
          "name": "",
          "type": "uint256"
        }
      ],
      "payable": false,
      "stateMutability": "view",
      "type": "function"
    },
    {
      "constant": true,
      "inputs": [
        {
          "internalType": "address",
          "name": "",
          "type": "address"
        }
      ],
      "name": "markets",
      "outputs": [
        {
          "internalType": "bool",
          "name": "isListed",
          "type": "bool"
        },
        {
          "internalType": "uint256",
          "name": "collateralFactorMantissa",
          "type": "uint256"
        },
        {
          "internalType": "bool",
          "name": "isComped",
          "type": "bool"
        },
        {
          "internalType": "uint256",
          "name": "borrowFactorMantissa",
          "type": "uint256"
        },
        {
          "internalType": "uint256",
          "name": "liquidationIncentiveMantissa",
          "type": "uint256"
        }
      ],
      "payable": false,
      "stateMutability": "view",
      "type": "function"
    },
    {
      "constant": true,
      "inputs": [],
      "name": "maxAssets",
      "outputs": [
        {
          "internalType": "uint256",
          "name": "",
          "type": "uint256"
        }
      ],
      "payable": false,
      "stateMutability": "view",
      "type": "function"
    },
    {
      "constant": true,
      "inputs": [
        {
          "internalType": "address",
          "name": "",
          "type": "address"
        }
      ],
      "name": "mintGuardianPaused",
      "outputs": [
        {
          "internalType": "bool",
          "name": "",
          "type": "bool"
        }
      ],
      "payable": false,
      "stateMutability": "view",
      "type": "function"
    },
    {
      "constant": true,
      "inputs": [],
      "name": "oracle",
      "outputs": [
        {
          "internalType": "contract PriceOracle",
          "name": "",
          "type": "address"
        }
      ],
      "payable": false,
      "stateMutability": "view",
      "type": "function"
    },
    {
      "constant": true,
      "inputs": [],
      "name": "pauseGuardian",
      "outputs": [
        {
          "internalType": "address",
          "name": "",
          "type": "address"
        }
      ],
      "payable": false,
      "stateMutability": "view",
      "type": "function"
    },
    {
      "constant": true,
      "inputs": [],
      "name": "pendingAdmin",
      "outputs": [
        {
          "internalType": "address",
          "name": "",
          "type": "address"
        }
      ],
      "payable": false,
      "stateMutability": "view",
      "type": "function"
    },
    {
      "constant": true,
      "inputs": [],
      "name": "pendingComptrollerImplementation",
      "outputs": [
        {
          "internalType": "address",
          "name": "",
          "type": "address"
        }
      ],
      "payable": false,
      "stateMutability": "view",
      "type": "function"
    },
    {
      "constant": true,
      "inputs": [],
      "name": "seizeGuardianPaused",
      "outputs": [
        {
          "internalType": "bool",
          "name": "",
          "type": "bool"
        }
      ],
      "payable": false,
      "stateMutability": "view",
      "type": "function"
    },
    {
      "constant": true,
      "inputs": [],
      "name": "transferGuardianPaused",
      "outputs": [
        {
          "internalType": "bool",
          "name": "",
          "type": "bool"
        }
      ],
      "payable": false,
      "stateMutability": "view",
      "type": "function"
    }
  ],
  "bytecode": "0x608060405234801561001057600080fd5b506103ca806100206000396000f3fe608060405234801561001057600080fd5b50600436106100db5760003560e01c806324a3d622146100e057806326782247146101045780633c94786f1461010c5780634ada90af146101285780636d154ea514610142578063731f0c2b146101685780637dc0d1d01461018e57806387f76303146101965780638e8f294b1461019e57806394b2294b146101f1578063ac0b0bb7146101f9578063bb82aa5e14610201578063dce1544914610209578063dcfbc0c714610235578063e6653f3d1461023d578063e875544614610245578063f851a4401461024d575b600080fd5b6100e8610255565b604080516001600160a01b039092168252519081900360200190f35b6100e8610264565b610114610273565b604080519115158252519081900360200190f35b610130610283565b60408051918252519081900360200190f35b6101146004803603602081101561015857600080fd5b50356001600160a01b0316610289565b6101146004803603602081101561017e57600080fd5b50356001600160a01b031661029e565b6100e86102b3565b6101146102c2565b6101c4600480360360208110156101b457600080fd5b50356001600160a01b03166102d2565b60408051951515865260208601949094529115158484015260608401526080830152519081900360a00190f35b610130610307565b61011461030d565b6100e861031d565b6100e86004803603604081101561021f57600080fd5b506001600160a01b03813516906020013561032c565b6100e8610361565b610114610370565b610130610380565b6100e8610386565b600a546001600160a01b031681565b6001546001600160a01b031681565b600a54600160a01b900460ff1681565b60065481565b600c6020526000908152604090205460ff1681565b600b6020526000908152604090205460ff1681565b6004546001600160a01b031681565b600a54600160b01b900460ff1681565b6009602052600090815260409020805460018201546003830154600484015460059094015460ff938416949293909116919085565b60075481565b600a54600160b81b900460ff1681565b6002546001600160a01b031681565b6008602052816000526040600020818154811061034557fe5b6000918252602090912001546001600160a01b03169150829050565b6003546001600160a01b031681565b600a54600160a81b900460ff1681565b60055481565b6000546001600160a01b03168156fea265627a7a723158203a8c4bfe6380bd0941cf2071e69ae4451f5a3ad0f4e1e0ee32541c3444afaaf364736f6c63430005100032",
  "source": "pragma solidity ^0.5.16;\n\nimport \"./CToken.sol\";\nimport \"./PriceOracle.sol\";\n\ncontract UnitrollerAdminStorage {\n    /**\n    * @notice Administrator for this contract\n    */\n    address public admin;\n\n    /**\n    * @notice Pending administrator for this contract\n    */\n    address public pendingAdmin;\n\n    /**\n    * @notice Active brains of Unitroller\n    */\n    address public comptrollerImplementation;\n\n    /**\n    * @notice Pending brains of Unitroller\n    */\n    address public pendingComptrollerImplementation;\n}\n\ncontract ComptrollerV1Storage is UnitrollerAdminStorage {\n\n    /**\n     * @notice Oracle which gives the price of any given asset\n     */\n    PriceOracle public oracle;\n\n    /**\n     * @notice Multiplier used to calculate the maximum repayAmount when liquidating a borrow\n     */\n    uint public closeFactorMantissa;\n\n    /**\n     * @notice Multiplier representing the discount on collateral that a liquidator receives\n     */\n    uint public liquidationIncentiveMantissa;\n\n    /**\n     * @notice Max number of assets a single account can participate in (borrow or use as collateral)\n     */\n    uint public maxAssets;\n\n    /**\n     * @notice Per-account mapping of \"assets you are in\", capped by maxAssets\n     */\n    mapping(address => CToken[]) public accountAssets;\n\n}\n\ncontract ComptrollerV2Storage is ComptrollerV1Storage {\n    struct Market {\n        /// @notice Whether or not this market is listed\n        bool isListed;\n\n        /**\n         * @notice Multiplier representing the most one can borrow against their collateral in this market.\n         *  For instance, 0.9 to allow borrowing 90% of collateral value.\n         *  Must be between 0 and 1, and stored as a mantissa.\n         */\n        uint collateralFactorMantissa;\n\n        /// @notice Per-market mapping of \"accounts in this asset\"\n        mapping(address => bool) accountMembership;\n\n        /// @notice Whether or not this market receives COMP\n        bool isComped;\n\n        /**\n         *  @notice Multiplier representing the most one can borrow the asset.\n         *  For instance, 0.5 to allow borrowing this asset 50% * collateral value * collateralFactor.\n         *  When calculating equity, 0.5 with 100 borrow balance will produce 200 borrow value\n         *  Must be between (0, 1], and stored as a mantissa.\n         */\n        uint borrowFactorMantissa;\n\n        /**\n         * @notice Multiplier representing the discount on collateral that a liquidator receives\n         */\n        uint liquidationIncentiveMantissa;\n    }\n\n    /**\n     * @notice Official mapping of cTokens -> Market metadata\n     * @dev Used e.g. to determine if a market is supported\n     */\n    mapping(address => Market) public markets;\n\n\n    /**\n     * @notice The Pause Guardian can pause certain actions as a safety mechanism.\n     *  Actions which allow users to remove their own assets cannot be paused.\n     *  Liquidation / seizing / transfer can only be paused globally, not by market.\n     */\n    address public pauseGuardian;\n    bool public _mintGuardianPaused;\n    bool public _borrowGuardianPaused;\n    bool public transferGuardianPaused;\n    bool public seizeGuardianPaused;\n    mapping(address => bool) public mintGuardianPaused;\n    mapping(address => bool) public borrowGuardianPaused;\n}\n\ncontract ComptrollerV3Storage is ComptrollerV2Storage {\n    struct CompMarketState {\n        /// @notice The market's last updated compBorrowIndex or compSupplyIndex\n        uint224 index;\n\n        /// @notice The block number the index was last updated at\n        uint32 block;\n    }\n\n    /// @notice A list of all markets\n    CToken[] public allMarkets;\n\n    /// @notice The rate at which the flywheel distributes COMP, per block\n    uint public compRate;\n\n    /// @notice The portion of compRate that each market currently receives\n    mapping(address => uint) public compSpeeds;\n\n    /// @notice The COMP market supply state for each market\n    mapping(address => CompMarketState) public compSupplyState;\n\n    /// @notice The COMP market borrow state for each market\n    mapping(address => CompMarketState) public compBorrowState;\n\n    /// @notice The COMP borrow index for each market for each supplier as of the last time they accrued COMP\n    mapping(address => mapping(address => uint)) public compSupplierIndex;\n\n    /// @notice The COMP borrow index for each market for each borrower as of the last time they accrued COMP\n    mapping(address => mapping(address => uint)) public compBorrowerIndex;\n\n    /// @notice The COMP accrued but not yet transferred to each user\n    mapping(address => uint) public compAccrued;\n}",
  "sourcePath": "/Users/ashton/repo/blockchain/eth/smartcontracts/quicksilver-protocol/contracts/compound/ComptrollerStorage.sol",
  "compiler": {
    "name": "solc",
    "version": "0.5.16+commit.9c3226ce.Emscripten.clang"
  },
  "schemaVersion": "3.4.1",
  "updatedAt": "2021-08-16T22:55:24.195Z",
  "devdoc": {
    "methods": {}
  },
  "userdoc": {
    "methods": {}
  }
}