{
  "contractName": "CompoundLens",
  "abi": [
    {
      "constant": false,
      "inputs": [
        {
          "internalType": "contract CToken",
          "name": "cToken",
          "type": "address"
        }
      ],
      "name": "cTokenMetadata",
      "outputs": [
        {
          "components": [
            {
              "internalType": "address",
              "name": "cToken",
              "type": "address"
            },
            {
              "internalType": "uint256",
              "name": "exchangeRateCurrent",
              "type": "uint256"
            },
            {
              "internalType": "uint256",
              "name": "supplyRatePerBlock",
              "type": "uint256"
            },
            {
              "internalType": "uint256",
              "name": "borrowRatePerBlock",
              "type": "uint256"
            },
            {
              "internalType": "uint256",
              "name": "reserveFactorMantissa",
              "type": "uint256"
            },
            {
              "internalType": "uint256",
              "name": "totalBorrows",
              "type": "uint256"
            },
            {
              "internalType": "uint256",
              "name": "totalReserves",
              "type": "uint256"
            },
            {
              "internalType": "uint256",
              "name": "totalSupply",
              "type": "uint256"
            },
            {
              "internalType": "uint256",
              "name": "totalCash",
              "type": "uint256"
            },
            {
              "internalType": "bool",
              "name": "isListed",
              "type": "bool"
            },
            {
              "internalType": "uint256",
              "name": "collateralFactorMantissa",
              "type": "uint256"
            },
            {
              "internalType": "address",
              "name": "underlyingAssetAddress",
              "type": "address"
            },
            {
              "internalType": "uint256",
              "name": "cTokenDecimals",
              "type": "uint256"
            },
            {
              "internalType": "uint256",
              "name": "underlyingDecimals",
              "type": "uint256"
            }
          ],
          "internalType": "struct CompoundLens.CTokenMetadata",
          "name": "",
          "type": "tuple"
        }
      ],
      "payable": false,
      "stateMutability": "nonpayable",
      "type": "function"
    },
    {
      "constant": false,
      "inputs": [
        {
          "internalType": "contract CToken[]",
          "name": "cTokens",
          "type": "address[]"
        }
      ],
      "name": "cTokenMetadataAll",
      "outputs": [
        {
          "components": [
            {
              "internalType": "address",
              "name": "cToken",
              "type": "address"
            },
            {
              "internalType": "uint256",
              "name": "exchangeRateCurrent",
              "type": "uint256"
            },
            {
              "internalType": "uint256",
              "name": "supplyRatePerBlock",
              "type": "uint256"
            },
            {
              "internalType": "uint256",
              "name": "borrowRatePerBlock",
              "type": "uint256"
            },
            {
              "internalType": "uint256",
              "name": "reserveFactorMantissa",
              "type": "uint256"
            },
            {
              "internalType": "uint256",
              "name": "totalBorrows",
              "type": "uint256"
            },
            {
              "internalType": "uint256",
              "name": "totalReserves",
              "type": "uint256"
            },
            {
              "internalType": "uint256",
              "name": "totalSupply",
              "type": "uint256"
            },
            {
              "internalType": "uint256",
              "name": "totalCash",
              "type": "uint256"
            },
            {
              "internalType": "bool",
              "name": "isListed",
              "type": "bool"
            },
            {
              "internalType": "uint256",
              "name": "collateralFactorMantissa",
              "type": "uint256"
            },
            {
              "internalType": "address",
              "name": "underlyingAssetAddress",
              "type": "address"
            },
            {
              "internalType": "uint256",
              "name": "cTokenDecimals",
              "type": "uint256"
            },
            {
              "internalType": "uint256",
              "name": "underlyingDecimals",
              "type": "uint256"
            }
          ],
          "internalType": "struct CompoundLens.CTokenMetadata[]",
          "name": "",
          "type": "tuple[]"
        }
      ],
      "payable": false,
      "stateMutability": "nonpayable",
      "type": "function"
    },
    {
      "constant": false,
      "inputs": [
        {
          "internalType": "contract CToken",
          "name": "cToken",
          "type": "address"
        },
        {
          "internalType": "address payable",
          "name": "account",
          "type": "address"
        }
      ],
      "name": "cTokenBalances",
      "outputs": [
        {
          "components": [
            {
              "internalType": "address",
              "name": "cToken",
              "type": "address"
            },
            {
              "internalType": "uint256",
              "name": "balanceOf",
              "type": "uint256"
            },
            {
              "internalType": "uint256",
              "name": "borrowBalanceCurrent",
              "type": "uint256"
            },
            {
              "internalType": "uint256",
              "name": "balanceOfUnderlying",
              "type": "uint256"
            },
            {
              "internalType": "uint256",
              "name": "tokenBalance",
              "type": "uint256"
            },
            {
              "internalType": "uint256",
              "name": "tokenAllowance",
              "type": "uint256"
            }
          ],
          "internalType": "struct CompoundLens.CTokenBalances",
          "name": "",
          "type": "tuple"
        }
      ],
      "payable": false,
      "stateMutability": "nonpayable",
      "type": "function"
    },
    {
      "constant": false,
      "inputs": [
        {
          "internalType": "contract CToken[]",
          "name": "cTokens",
          "type": "address[]"
        },
        {
          "internalType": "address payable",
          "name": "account",
          "type": "address"
        }
      ],
      "name": "cTokenBalancesAll",
      "outputs": [
        {
          "components": [
            {
              "internalType": "address",
              "name": "cToken",
              "type": "address"
            },
            {
              "internalType": "uint256",
              "name": "balanceOf",
              "type": "uint256"
            },
            {
              "internalType": "uint256",
              "name": "borrowBalanceCurrent",
              "type": "uint256"
            },
            {
              "internalType": "uint256",
              "name": "balanceOfUnderlying",
              "type": "uint256"
            },
            {
              "internalType": "uint256",
              "name": "tokenBalance",
              "type": "uint256"
            },
            {
              "internalType": "uint256",
              "name": "tokenAllowance",
              "type": "uint256"
            }
          ],
          "internalType": "struct CompoundLens.CTokenBalances[]",
          "name": "",
          "type": "tuple[]"
        }
      ],
      "payable": false,
      "stateMutability": "nonpayable",
      "type": "function"
    },
    {
      "constant": true,
      "inputs": [
        {
          "internalType": "contract CToken",
          "name": "cToken",
          "type": "address"
        }
      ],
      "name": "cTokenUnderlyingPrice",
      "outputs": [
        {
          "components": [
            {
              "internalType": "address",
              "name": "cToken",
              "type": "address"
            },
            {
              "internalType": "uint256",
              "name": "underlyingPrice",
              "type": "uint256"
            }
          ],
          "internalType": "struct CompoundLens.CTokenUnderlyingPrice",
          "name": "",
          "type": "tuple"
        }
      ],
      "payable": false,
      "stateMutability": "view",
      "type": "function"
    },
    {
      "constant": true,
      "inputs": [
        {
          "internalType": "contract CToken[]",
          "name": "cTokens",
          "type": "address[]"
        }
      ],
      "name": "cTokenUnderlyingPriceAll",
      "outputs": [
        {
          "components": [
            {
              "internalType": "address",
              "name": "cToken",
              "type": "address"
            },
            {
              "internalType": "uint256",
              "name": "underlyingPrice",
              "type": "uint256"
            }
          ],
          "internalType": "struct CompoundLens.CTokenUnderlyingPrice[]",
          "name": "",
          "type": "tuple[]"
        }
      ],
      "payable": false,
      "stateMutability": "view",
      "type": "function"
    },
    {
      "constant": true,
      "inputs": [
        {
          "internalType": "contract ComptrollerLensInterface",
          "name": "comptroller",
          "type": "address"
        },
        {
          "internalType": "address",
          "name": "account",
          "type": "address"
        }
      ],
      "name": "getAccountLimits",
      "outputs": [
        {
          "components": [
            {
              "internalType": "contract CToken[]",
              "name": "markets",
              "type": "address[]"
            },
            {
              "internalType": "uint256",
              "name": "liquidity",
              "type": "uint256"
            },
            {
              "internalType": "uint256",
              "name": "shortfall",
              "type": "uint256"
            }
          ],
          "internalType": "struct CompoundLens.AccountLimits",
          "name": "",
          "type": "tuple"
        }
      ],
      "payable": false,
      "stateMutability": "view",
      "type": "function"
    },
    {
      "constant": true,
      "inputs": [
        {
          "internalType": "contract GovernorAlpha",
          "name": "governor",
          "type": "address"
        },
        {
          "internalType": "address",
          "name": "voter",
          "type": "address"
        },
        {
          "internalType": "uint256[]",
          "name": "proposalIds",
          "type": "uint256[]"
        }
      ],
      "name": "getGovReceipts",
      "outputs": [
        {
          "components": [
            {
              "internalType": "uint256",
              "name": "proposalId",
              "type": "uint256"
            },
            {
              "internalType": "bool",
              "name": "hasVoted",
              "type": "bool"
            },
            {
              "internalType": "bool",
              "name": "support",
              "type": "bool"
            },
            {
              "internalType": "uint96",
              "name": "votes",
              "type": "uint96"
            }
          ],
          "internalType": "struct CompoundLens.GovReceipt[]",
          "name": "",
          "type": "tuple[]"
        }
      ],
      "payable": false,
      "stateMutability": "view",
      "type": "function"
    },
    {
      "constant": true,
      "inputs": [
        {
          "internalType": "contract GovernorAlpha",
          "name": "governor",
          "type": "address"
        },
        {
          "internalType": "uint256[]",
          "name": "proposalIds",
          "type": "uint256[]"
        }
      ],
      "name": "getGovProposals",
      "outputs": [
        {
          "components": [
            {
              "internalType": "uint256",
              "name": "proposalId",
              "type": "uint256"
            },
            {
              "internalType": "address",
              "name": "proposer",
              "type": "address"
            },
            {
              "internalType": "uint256",
              "name": "eta",
              "type": "uint256"
            },
            {
              "internalType": "address[]",
              "name": "targets",
              "type": "address[]"
            },
            {
              "internalType": "uint256[]",
              "name": "values",
              "type": "uint256[]"
            },
            {
              "internalType": "string[]",
              "name": "signatures",
              "type": "string[]"
            },
            {
              "internalType": "bytes[]",
              "name": "calldatas",
              "type": "bytes[]"
            },
            {
              "internalType": "uint256",
              "name": "startBlock",
              "type": "uint256"
            },
            {
              "internalType": "uint256",
              "name": "endBlock",
              "type": "uint256"
            },
            {
              "internalType": "uint256",
              "name": "forVotes",
              "type": "uint256"
            },
            {
              "internalType": "uint256",
              "name": "againstVotes",
              "type": "uint256"
            },
            {
              "internalType": "bool",
              "name": "canceled",
              "type": "bool"
            },
            {
              "internalType": "bool",
              "name": "executed",
              "type": "bool"
            }
          ],
          "internalType": "struct CompoundLens.GovProposal[]",
          "name": "",
          "type": "tuple[]"
        }
      ],
      "payable": false,
      "stateMutability": "view",
      "type": "function"
    },
    {
      "constant": true,
      "inputs": [
        {
          "internalType": "contract Comp",
          "name": "comp",
          "type": "address"
        },
        {
          "internalType": "address",
          "name": "account",
          "type": "address"
        }
      ],
      "name": "getCompBalanceMetadata",
      "outputs": [
        {
          "components": [
            {
              "internalType": "uint256",
              "name": "balance",
              "type": "uint256"
            },
            {
              "internalType": "uint256",
              "name": "votes",
              "type": "uint256"
            },
            {
              "internalType": "address",
              "name": "delegate",
              "type": "address"
            }
          ],
          "internalType": "struct CompoundLens.CompBalanceMetadata",
          "name": "",
          "type": "tuple"
        }
      ],
      "payable": false,
      "stateMutability": "view",
      "type": "function"
    },
    {
      "constant": false,
      "inputs": [
        {
          "internalType": "contract Comp",
          "name": "comp",
          "type": "address"
        },
        {
          "internalType": "contract ComptrollerLensInterface",
          "name": "comptroller",
          "type": "address"
        },
        {
          "internalType": "address",
          "name": "account",
          "type": "address"
        }
      ],
      "name": "getCompBalanceMetadataExt",
      "outputs": [
        {
          "components": [
            {
              "internalType": "uint256",
              "name": "balance",
              "type": "uint256"
            },
            {
              "internalType": "uint256",
              "name": "votes",
              "type": "uint256"
            },
            {
              "internalType": "address",
              "name": "delegate",
              "type": "address"
            },
            {
              "internalType": "uint256",
              "name": "allocated",
              "type": "uint256"
            }
          ],
          "internalType": "struct CompoundLens.CompBalanceMetadataExt",
          "name": "",
          "type": "tuple"
        }
      ],
      "payable": false,
      "stateMutability": "nonpayable",
      "type": "function"
    },
    {
      "constant": false,
      "inputs": [
        {
          "internalType": "contract Comp",
          "name": "comp",
          "type": "address"
        },
        {
          "internalType": "contract ComptrollerLensInterface",
          "name": "comptroller",
          "type": "address"
        },
        {
          "internalType": "address",
          "name": "account",
          "type": "address"
        }
      ],
      "name": "getCompBalanceWithAccrued",
      "outputs": [
        {
          "internalType": "uint256",
          "name": "balance",
          "type": "uint256"
        },
        {
          "internalType": "uint256",
          "name": "allocated",
          "type": "uint256"
        }
      ],
      "payable": false,
      "stateMutability": "nonpayable",
      "type": "function"
    },
    {
      "constant": true,
      "inputs": [
        {
          "internalType": "contract Comp",
          "name": "comp",
          "type": "address"
        },
        {
          "internalType": "address",
          "name": "account",
          "type": "address"
        },
        {
          "internalType": "uint32[]",
          "name": "blockNumbers",
          "type": "uint32[]"
        }
      ],
      "name": "getCompVotes",
      "outputs": [
        {
          "components": [
            {
              "internalType": "uint256",
              "name": "blockNumber",
              "type": "uint256"
            },
            {
              "internalType": "uint256",
              "name": "votes",
              "type": "uint256"
            }
          ],
          "internalType": "struct CompoundLens.CompVotes[]",
          "name": "",
          "type": "tuple[]"
        }
      ],
      "payable": false,
      "stateMutability": "view",
      "type": "function"
    }
  ],
  "bytecode": "0x608060405234801561001057600080fd5b5061377d806100206000396000f3fe608060405234801561001057600080fd5b50600436106100af5760003560e01c80630972bf8b146100b4578063158eca8b146100dd5780631ea63741146100fd5780632b2d5ed61461011d578063416405d71461013d5780634b70d84b1461015d578063595642191461017d5780637dd8f6d91461019d57806396994869146101bd578063995ed99f146101dd578063bdf950c9146101fd578063c5ae59341461021d578063fb7638c11461023d575b600080fd5b6100c76100c2366004612723565b61025e565b6040516100d491906134c3565b60405180910390f35b6100f06100eb3660046127e5565b610301565b6040516100d49190613567565b61011061010b36600461289a565b610a85565b6040516100d49190613584565b61013061012b3660046126e2565b610e0c565b6040516100d491906134e5565b61015061014b366004612803565b610ea8565b6040516100d49190613592565b61017061016b3660046126e2565b611051565b6040516100d491906134d4565b61019061018b366004612833565b6110e2565b6040516100d491906134f6565b6101b06101ab366004612803565b61123a565b6040516100d49190613548565b6101d06101cb366004612955565b611376565b6040516100d49190613507565b6101f06101eb3660046128fb565b611532565b6040516100d49190613518565b61021061020b366004612803565b61168c565b6040516100d49190613559565b61023061022b3660046127e5565b611a2c565b6040516100d49190613576565b61025061024b36600461289a565b611bbe565b6040516100d49291906135bc565b6040805183815260208085028201019091526060908390829082801561029e57816020015b61028b611fec565b8152602001906001900390816102835790505b50905060005b828110156102f5576102d68787838181106102bb57fe5b90506020020160206102d091908101906127e5565b8661168c565b8282815181106102e257fe5b60209081029190910101526001016102a4565b509150505b9392505050565b61030961202b565b6000826001600160a01b031663bd6d894d6040518163ffffffff1660e01b8152600401602060405180830381600087803b15801561034657600080fd5b505af115801561035a573d6000803e3d6000fd5b505050506040513d601f19601f8201168201806040525061037e91908101906129fc565b90506000836001600160a01b0316635fe3b5676040518163ffffffff1660e01b815260040160206040518083038186803b1580156103bb57600080fd5b505afa1580156103cf573d6000803e3d6000fd5b505050506040513d601f19601f820116820180604052506103f391908101906128dd565b9050600080826001600160a01b0316638e8f294b876040518263ffffffff1660e01b81526004016104249190613471565b604080518083038186803b15801561043b57600080fd5b505afa15801561044f573d6000803e3d6000fd5b505050506040513d601f19601f8201168201806040525061047391908101906127ab565b91509150600080610514886001600160a01b03166395d89b416040518163ffffffff1660e01b815260040160006040518083038186803b1580156104b657600080fd5b505afa1580156104ca573d6000803e3d6000fd5b505050506040513d6000823e601f3d908101601f191682016040526104f291908101906129aa565b604051806040016040528060048152602001630c68aa8960e31b815250611e11565b156105255750600090506012610685565b6000889050806001600160a01b0316636f307dc36040518163ffffffff1660e01b815260040160206040518083038186803b15801561056357600080fd5b505afa158015610577573d6000803e3d6000fd5b505050506040513d601f19601f8201168201806040525061059b9190810190612600565b9250806001600160a01b0316636f307dc36040518163ffffffff1660e01b815260040160206040518083038186803b1580156105d657600080fd5b505afa1580156105ea573d6000803e3d6000fd5b505050506040513d601f19601f8201168201806040525061060e9190810190612600565b6001600160a01b031663313ce5676040518163ffffffff1660e01b815260040160206040518083038186803b15801561064657600080fd5b505afa15801561065a573d6000803e3d6000fd5b505050506040513d601f19601f8201168201806040525061067e9190810190612b3f565b60ff169150505b604051806101c00160405280896001600160a01b03168152602001878152602001896001600160a01b031663ae9d70b06040518163ffffffff1660e01b815260040160206040518083038186803b1580156106df57600080fd5b505afa1580156106f3573d6000803e3d6000fd5b505050506040513d601f19601f8201168201806040525061071791908101906129fc565b8152602001896001600160a01b031663f8f9da286040518163ffffffff1660e01b815260040160206040518083038186803b15801561075557600080fd5b505afa158015610769573d6000803e3d6000fd5b505050506040513d601f19601f8201168201806040525061078d91908101906129fc565b8152602001896001600160a01b031663173b99046040518163ffffffff1660e01b815260040160206040518083038186803b1580156107cb57600080fd5b505afa1580156107df573d6000803e3d6000fd5b505050506040513d601f19601f8201168201806040525061080391908101906129fc565b8152602001896001600160a01b03166347bd37186040518163ffffffff1660e01b815260040160206040518083038186803b15801561084157600080fd5b505afa158015610855573d6000803e3d6000fd5b505050506040513d601f19601f8201168201806040525061087991908101906129fc565b8152602001896001600160a01b0316638f840ddd6040518163ffffffff1660e01b815260040160206040518083038186803b1580156108b757600080fd5b505afa1580156108cb573d6000803e3d6000fd5b505050506040513d601f19601f820116820180604052506108ef91908101906129fc565b8152602001896001600160a01b03166318160ddd6040518163ffffffff1660e01b815260040160206040518083038186803b15801561092d57600080fd5b505afa158015610941573d6000803e3d6000fd5b505050506040513d601f19601f8201168201806040525061096591908101906129fc565b8152602001896001600160a01b0316633b1d21a26040518163ffffffff1660e01b815260040160206040518083038186803b1580156109a357600080fd5b505afa1580156109b7573d6000803e3d6000fd5b505050506040513d601f19601f820116820180604052506109db91908101906129fc565b81526020018515158152602001848152602001836001600160a01b03168152602001896001600160a01b031663313ce5676040518163ffffffff1660e01b815260040160206040518083038186803b158015610a3657600080fd5b505afa158015610a4a573d6000803e3d6000fd5b505050506040513d601f19601f82011682018060405250610a6e9190810190612b3f565b60ff16815260200191909152979650505050505050565b610a8d6120ae565b6040516370a0823160e01b81526000906001600160a01b038616906370a0823190610abc908690600401613471565b60206040518083038186803b158015610ad457600080fd5b505afa158015610ae8573d6000803e3d6000fd5b505050506040513d601f19601f82011682018060405250610b0c91908101906129fc565b6040516374d7814960e11b81529091506001600160a01b0385169063e9af029290610b3b908690600401613471565b600060405180830381600087803b158015610b5557600080fd5b505af1158015610b69573d6000803e3d6000fd5b50506040516370a0823160e01b8152600092506001600160a01b03881691506370a0823190610b9c908790600401613471565b60206040518083038186803b158015610bb457600080fd5b505afa158015610bc8573d6000803e3d6000fd5b505050506040513d601f19601f82011682018060405250610bec91908101906129fc565b90506000856001600160a01b031663cc7ebdc4866040518263ffffffff1660e01b8152600401610c1c9190613471565b60206040518083038186803b158015610c3457600080fd5b505afa158015610c48573d6000803e3d6000fd5b505050506040513d601f19601f82011682018060405250610c6c91908101906129fc565b90506000610ca182846040518060400160405280600e81526020016d1cdd5b4818dbdb5c081d1bdd185b60921b815250611e6a565b90506000610cd582866040518060400160405280600d81526020016c1cdd5888185b1b1bd8d85d1959609a1b815250611e9a565b905060405180608001604052808681526020018a6001600160a01b031663b4b5ea578a6040518263ffffffff1660e01b8152600401610d149190613471565b60206040518083038186803b158015610d2c57600080fd5b505afa158015610d40573d6000803e3d6000fd5b505050506040513d601f19601f82011682018060405250610d649190810190612b5d565b6001600160601b031681526020018a6001600160a01b031663587cde1e8a6040518263ffffffff1660e01b8152600401610d9e9190613471565b60206040518083038186803b158015610db657600080fd5b505afa158015610dca573d6000803e3d6000fd5b505050506040513d601f19601f82011682018060405250610dee9190810190612600565b6001600160a01b031681526020019190915298975050505050505050565b60408051828152602080840282010190915260609082908290828015610e4c57816020015b610e396120df565b815260200190600190039081610e315790505b50905060005b82811015610e9d57610e7e868683818110610e6957fe5b905060200201602061022b91908101906127e5565b828281518110610e8a57fe5b6020908102919091010152600101610e52565b509150505b92915050565b610eb06120f6565b6040805160608101918290526370a0823160e01b909152806001600160a01b0385166370a08231610ee48660648501613471565b60206040518083038186803b158015610efc57600080fd5b505afa158015610f10573d6000803e3d6000fd5b505050506040513d601f19601f82011682018060405250610f3491908101906129fc565b8152602001846001600160a01b031663b4b5ea57856040518263ffffffff1660e01b8152600401610f659190613471565b60206040518083038186803b158015610f7d57600080fd5b505afa158015610f91573d6000803e3d6000fd5b505050506040513d601f19601f82011682018060405250610fb59190810190612b5d565b6001600160601b03168152602001846001600160a01b031663587cde1e856040518263ffffffff1660e01b8152600401610fef9190613471565b60206040518083038186803b15801561100757600080fd5b505afa15801561101b573d6000803e3d6000fd5b505050506040513d601f19601f8201168201806040525061103f9190810190612600565b6001600160a01b031690529392505050565b6040805182815260208084028201019091526060908290829082801561109157816020015b61107e61202b565b8152602001906001900390816110765790505b50905060005b82811015610e9d576110c38686838181106110ae57fe5b90506020020160206100eb91908101906127e5565b8282815181106110cf57fe5b6020908102919091010152600101611097565b6060808383905060405190808252806020026020018201604052801561112257816020015b61110f612120565b8152602001906001900390816111075790505b50905060005b8381101561123057604051806040016040528086868481811061114757fe5b905060200201602061115c9190810190612b21565b63ffffffff168152602001886001600160a01b031663782d6fe18989898781811061118357fe5b90506020020160206111989190810190612b21565b6040518363ffffffff1660e01b81526004016111b59291906134a8565b60206040518083038186803b1580156111cd57600080fd5b505afa1580156111e1573d6000803e3d6000fd5b505050506040513d601f19601f820116820180604052506112059190810190612b5d565b6001600160601b031681525082828151811061121d57fe5b6020908102919091010152600101611128565b5095945050505050565b61124261213a565b6000806000856001600160a01b0316635ec88c79866040518263ffffffff1660e01b81526004016112739190613471565b60606040518083038186803b15801561128b57600080fd5b505afa15801561129f573d6000803e3d6000fd5b505050506040513d601f19601f820116820180604052506112c39190810190612ade565b925092509250826000146112d657600080fd5b604080516060810191829052632aff3bff60e21b909152806001600160a01b03881663abfceffc61130a8960648501613471565b60006040518083038186803b15801561132257600080fd5b505afa158015611336573d6000803e3d6000fd5b505050506040513d6000823e601f3d908101601f1916820160405261135e9190810190612777565b81526020810193909352604090920152949350505050565b606080838390506040519080825280602002602001820160405280156113b657816020015b6113a361215b565b81526020019060019003908161139b5790505b50905060005b8381101561152957606080606080896001600160a01b031663328dd9828a8a888181106113e557fe5b905060200201356040518263ffffffff1660e01b815260040161140891906135a0565b60006040518083038186803b15801561142057600080fd5b505afa158015611434573d6000803e3d6000fd5b505050506040513d6000823e601f3d908101601f1916820160405261145c9190810190612626565b9350935093509350604051806101a001604052806000815260200160006001600160a01b031681526020016000815260200185815260200184815260200183815260200182815260200160008152602001600081526020016000815260200160008152602001600015158152602001600015158152508686815181106114de57fe5b60200260200101819052506115198686815181106114f857fe5b60200260200101518b8b8b8981811061150d57fe5b90506020020135611ec6565b5050600190920191506113bc9050565b50949350505050565b606060008251905060608160405190808252806020026020018201604052801561157657816020015b6115636121d0565b81526020019060019003908161155b5790505b50905060005b828110156102f55761158c6121f7565b876001600160a01b031663e23a9a528784815181106115a757fe5b6020026020010151896040518363ffffffff1660e01b81526004016115cd9291906135ae565b60606040518083038186803b1580156115e557600080fd5b505afa1580156115f9573d6000803e3d6000fd5b505050506040513d601f19601f8201168201806040525061161d91908101906129de565b9050604051806080016040528087848151811061163657fe5b6020026020010151815260200182600001511515815260200182602001511515815260200182604001516001600160601b031681525083838151811061167857fe5b60209081029190910101525060010161157c565b611694611fec565b6040516370a0823160e01b81526000906001600160a01b038516906370a08231906116c390869060040161347f565b60206040518083038186803b1580156116db57600080fd5b505afa1580156116ef573d6000803e3d6000fd5b505050506040513d601f19601f8201168201806040525061171391908101906129fc565b90506000846001600160a01b03166317bfdfbc856040518263ffffffff1660e01b8152600401611743919061347f565b602060405180830381600087803b15801561175d57600080fd5b505af1158015611771573d6000803e3d6000fd5b505050506040513d601f19601f8201168201806040525061179591908101906129fc565b90506000856001600160a01b0316633af9e669866040518263ffffffff1660e01b81526004016117c5919061347f565b602060405180830381600087803b1580156117df57600080fd5b505af11580156117f3573d6000803e3d6000fd5b505050506040513d601f19601f8201168201806040525061181791908101906129fc565b9050600080611858886001600160a01b03166395d89b416040518163ffffffff1660e01b815260040160006040518083038186803b1580156104b657600080fd5b156118725750506001600160a01b038516803190316119ef565b60008890506000816001600160a01b0316636f307dc36040518163ffffffff1660e01b815260040160206040518083038186803b1580156118b257600080fd5b505afa1580156118c6573d6000803e3d6000fd5b505050506040513d601f19601f820116820180604052506118ea9190810190612600565b6040516370a0823160e01b81529091506001600160a01b038216906370a0823190611919908c9060040161347f565b60206040518083038186803b15801561193157600080fd5b505afa158015611945573d6000803e3d6000fd5b505050506040513d601f19601f8201168201806040525061196991908101906129fc565b604051636eb1769f60e11b81529094506001600160a01b0382169063dd62ed3e9061199a908c908e9060040161348d565b60206040518083038186803b1580156119b257600080fd5b505afa1580156119c6573d6000803e3d6000fd5b505050506040513d601f19601f820116820180604052506119ea91908101906129fc565b925050505b6040805160c0810182526001600160a01b039990991689526020890195909552938701929092526060860152608085015260a08401525090919050565b611a346120df565b6000826001600160a01b0316635fe3b5676040518163ffffffff1660e01b815260040160206040518083038186803b158015611a6f57600080fd5b505afa158015611a83573d6000803e3d6000fd5b505050506040513d601f19601f82011682018060405250611aa791908101906128dd565b90506000816001600160a01b0316637dc0d1d06040518163ffffffff1660e01b815260040160206040518083038186803b158015611ae457600080fd5b505afa158015611af8573d6000803e3d6000fd5b505050506040513d601f19601f82011682018060405250611b1c91908101906128dd565b90506040518060400160405280856001600160a01b03168152602001826001600160a01b031663fc57d4df876040518263ffffffff1660e01b8152600401611b649190613529565b60206040518083038186803b158015611b7c57600080fd5b505afa158015611b90573d6000803e3d6000fd5b505050506040513d601f19601f82011682018060405250611bb491908101906129fc565b9052949350505050565b600080846001600160a01b03166370a08231846040518263ffffffff1660e01b8152600401611bed9190613471565b60206040518083038186803b158015611c0557600080fd5b505afa158015611c19573d6000803e3d6000fd5b505050506040513d601f19601f82011682018060405250611c3d91908101906129fc565b6040516374d7814960e11b81529092506001600160a01b0385169063e9af029290611c6c908690600401613471565b600060405180830381600087803b158015611c8657600080fd5b505af1158015611c9a573d6000803e3d6000fd5b50506040516370a0823160e01b8152600092506001600160a01b03881691506370a0823190611ccd908790600401613471565b60206040518083038186803b158015611ce557600080fd5b505afa158015611cf9573d6000803e3d6000fd5b505050506040513d601f19601f82011682018060405250611d1d91908101906129fc565b90506000856001600160a01b031663cc7ebdc4866040518263ffffffff1660e01b8152600401611d4d9190613471565b60206040518083038186803b158015611d6557600080fd5b505afa158015611d79573d6000803e3d6000fd5b505050506040513d601f19601f82011682018060405250611d9d91908101906129fc565b90506000611dd282846040518060400160405280600e81526020016d1cdd5b4818dbdb5c081d1bdd185b60921b815250611e6a565b9050611e0481866040518060400160405280600d81526020016c1cdd5888185b1b1bd8d85d1959609a1b815250611e9a565b9350505050935093915050565b600081604051602001611e249190613465565b6040516020818303038152906040528051906020012083604051602001611e4b9190613465565b6040516020818303038152906040528051906020012014905092915050565b600083830182858210156115295760405162461bcd60e51b8152600401611e919190613537565b60405180910390fd5b60008184841115611ebe5760405162461bcd60e51b8152600401611e919190613537565b505050900390565b600080600080600080600080896001600160a01b031663013cf08b8a6040518263ffffffff1660e01b8152600401611efe91906135a0565b6101206040518083038186803b158015611f1757600080fd5b505afa158015611f2b573d6000803e3d6000fd5b505050506040513d601f19601f82011682018060405250611f4f9190810190612a1a565b9850985098509850985098509850985050888b6000018181525050878b602001906001600160a01b031690816001600160a01b031681525050868b6040018181525050858b60e0018181525050848b610100018181525050838b610120018181525050828b610140018181525050818b610160019015159081151581525050808b6101800190151590811515815250505050505050505050505050565b6040518060c0016040528060006001600160a01b0316815260200160008152602001600081526020016000815260200160008152602001600081525090565b604051806101c0016040528060006001600160a01b0316815260200160008152602001600081526020016000815260200160008152602001600081526020016000815260200160008152602001600081526020016000151581526020016000815260200160006001600160a01b0316815260200160008152602001600081525090565b6040518060800160405280600081526020016000815260200160006001600160a01b03168152602001600081525090565b604080518082019091526000808252602082015290565b6040518060600160405280600081526020016000815260200160006001600160a01b031681525090565b604051806040016040528060008152602001600081525090565b60405180606001604052806060815260200160008152602001600081525090565b604051806101a001604052806000815260200160006001600160a01b031681526020016000815260200160608152602001606081526020016060815260200160608152602001600081526020016000815260200160008152602001600081526020016000151581526020016000151581525090565b60408051608081018252600080825260208201819052918101829052606081019190915290565b604080516060810182526000808252602082018190529181019190915290565b8035610ea2816136ed565b8051610ea2816136ed565b600082601f83011261223e57600080fd5b815161225161224c826135fd565b6135d7565b9150818183526020840193506020810190508385602084028201111561227657600080fd5b60005b838110156122a2578161228c8882612222565b8452506020928301929190910190600101612279565b5050505092915050565b600082601f8301126122bd57600080fd5b81516122cb61224c826135fd565b81815260209384019390925082018360005b838110156122a257815186016122f38882612509565b84525060209283019291909101906001016122dd565b60008083601f84011261231b57600080fd5b5081356001600160401b0381111561233257600080fd5b60208301915083602082028301111561234a57600080fd5b9250929050565b600082601f83011261236257600080fd5b815161237061224c826135fd565b9150818183526020840193506020810190508385602084028201111561239557600080fd5b60005b838110156122a257816123ab8882612563565b8452506020928301929190910190600101612398565b600082601f8301126123d257600080fd5b81516123e061224c826135fd565b81815260209384019390925082018360005b838110156122a257815186016124088882612509565b84525060209283019291909101906001016123f2565b600082601f83011261242f57600080fd5b813561243d61224c826135fd565b9150818183526020840193506020810190508385602084028201111561246257600080fd5b60005b838110156122a2578161247888826125c9565b8452506020928301929190910190600101612465565b600082601f83011261249f57600080fd5b81516124ad61224c826135fd565b915081818352602084019350602081019050838560208402820111156124d257600080fd5b60005b838110156122a257816124e888826125d4565b84525060209283019291909101906001016124d5565b8051610ea281613704565b600082601f83011261251a57600080fd5b815161252861224c8261361d565b9150808252602083016020830185838301111561254457600080fd5b61254f8382846136b7565b50505092915050565b8035610ea28161370d565b8051610ea28161370d565b60006060828403121561258057600080fd5b61258a60606135d7565b9050600061259884846124fe565b82525060206125a9848483016124fe565b60208301525060406125bd848285016125f5565b60408301525092915050565b8035610ea281613716565b8051610ea281613716565b8035610ea28161371f565b8051610ea281613728565b8051610ea281613731565b60006020828403121561261257600080fd5b600061261e8484612222565b949350505050565b6000806000806080858703121561263c57600080fd5b84516001600160401b0381111561265257600080fd5b61265e8782880161222d565b94505060208501516001600160401b0381111561267a57600080fd5b6126868782880161248e565b93505060408501516001600160401b038111156126a257600080fd5b6126ae878288016123c1565b92505060608501516001600160401b038111156126ca57600080fd5b6126d6878288016122ac565b91505092959194509250565b600080602083850312156126f557600080fd5b82356001600160401b0381111561270b57600080fd5b61271785828601612309565b92509250509250929050565b60008060006040848603121561273857600080fd5b83356001600160401b0381111561274e57600080fd5b61275a86828701612309565b9350935050602061276d86828701612217565b9150509250925092565b60006020828403121561278957600080fd5b81516001600160401b0381111561279f57600080fd5b61261e84828501612351565b600080604083850312156127be57600080fd5b60006127ca85856124fe565b92505060206127db858286016125d4565b9150509250929050565b6000602082840312156127f757600080fd5b600061261e8484612558565b6000806040838503121561281657600080fd5b60006128228585612558565b92505060206127db85828601612217565b6000806000806060858703121561284957600080fd5b60006128558787612558565b945050602061286687828801612217565b93505060408501356001600160401b0381111561288257600080fd5b61288e87828801612309565b95989497509550505050565b6000806000606084860312156128af57600080fd5b60006128bb8686612558565b93505060206128cc86828701612558565b925050604061276d86828701612217565b6000602082840312156128ef57600080fd5b600061261e8484612563565b60008060006060848603121561291057600080fd5b600061291c8686612558565b935050602061292d86828701612217565b92505060408401356001600160401b0381111561294957600080fd5b61276d8682870161241e565b60008060006040848603121561296a57600080fd5b60006129768686612558565b93505060208401356001600160401b0381111561299257600080fd5b61299e86828701612309565b92509250509250925092565b6000602082840312156129bc57600080fd5b81516001600160401b038111156129d257600080fd5b61261e84828501612509565b6000606082840312156129f057600080fd5b600061261e848461256e565b600060208284031215612a0e57600080fd5b600061261e84846125d4565b60008060008060008060008060006101208a8c031215612a3957600080fd5b6000612a458c8c6125d4565b9950506020612a568c828d01612222565b9850506040612a678c828d016125d4565b9750506060612a788c828d016125d4565b9650506080612a898c828d016125d4565b95505060a0612a9a8c828d016125d4565b94505060c0612aab8c828d016125d4565b93505060e0612abc8c828d016124fe565b925050610100612ace8c828d016124fe565b9150509295985092959850929598565b600080600060608486031215612af357600080fd5b6000612aff86866125d4565b9350506020612b10868287016125d4565b925050604061276d868287016125d4565b600060208284031215612b3357600080fd5b600061261e84846125df565b600060208284031215612b5157600080fd5b600061261e84846125ea565b600060208284031215612b6f57600080fd5b600061261e84846125f5565b6000612b878383612c2b565b505060200190565b60006102fa8383612fe8565b6000612b878383613020565b6000612bb383836130a0565b505060c00190565b6000612bc78383613116565b50506101c00190565b6000612bdc838361322b565b505060400190565b6000612bdc83836132d0565b60006102fa83836132e1565b6000612c088383613400565b505060800190565b6000612b87838361344a565b612c25816136a1565b82525050565b612c258161365c565b6000612c3f8261364a565b612c49818561364e565b9350612c5483613644565b8060005b83811015612c82578151612c6c8882612b7b565b9750612c7783613644565b925050600101612c58565b509495945050505050565b6000612c988261364a565b612ca2818561364e565b935083602082028501612cb485613644565b8060005b85811015612cee5784840389528151612cd18582612b8f565b9450612cdc83613644565b60209a909a0199925050600101612cb8565b5091979650505050505050565b6000612d068261364a565b612d10818561364e565b9350612d1b83613644565b8060005b83811015612c82578151612d338882612b9b565b9750612d3e83613644565b925050600101612d1f565b6000612d548261364a565b612d5e818561364e565b935083602082028501612d7085613644565b8060005b85811015612cee5784840389528151612d8d8582612b8f565b9450612d9883613644565b60209a909a0199925050600101612d74565b6000612db58261364a565b612dbf818561364e565b9350612dca83613644565b8060005b83811015612c82578151612de28882612ba7565b9750612ded83613644565b925050600101612dce565b6000612e038261364a565b612e0d818561364e565b9350612e1883613644565b8060005b83811015612c82578151612e308882612bbb565b9750612e3b83613644565b925050600101612e1c565b6000612e518261364a565b612e5b818561364e565b9350612e6683613644565b8060005b83811015612c82578151612e7e8882612bd0565b9750612e8983613644565b925050600101612e6a565b6000612e9f8261364a565b612ea9818561364e565b9350612eb483613644565b8060005b83811015612c82578151612ecc8882612be4565b9750612ed783613644565b925050600101612eb8565b6000612eed8261364a565b612ef7818561364e565b935083602082028501612f0985613644565b8060005b85811015612cee5784840389528151612f268582612bf0565b9450612f3183613644565b60209a909a0199925050600101612f0d565b6000612f4e8261364a565b612f58818561364e565b9350612f6383613644565b8060005b83811015612c82578151612f7b8882612bfc565b9750612f8683613644565b925050600101612f67565b6000612f9c8261364a565b612fa6818561364e565b9350612fb183613644565b8060005b83811015612c82578151612fc98882612c10565b9750612fd483613644565b925050600101612fb5565b612c2581613667565b6000612ff38261364a565b612ffd818561364e565b935061300d8185602086016136b7565b613016816136e3565b9093019392505050565b612c258161366c565b60006130348261364a565b61303e8185613657565b935061304e8185602086016136b7565b9290920192915050565b80516060808452600091908401906130708282612cfb565b9150506020830151613085602086018261344a565b506040830151613098604086018261344a565b509392505050565b805160c08301906130b18482612c2b565b5060208201516130c4602085018261344a565b5060408201516130d7604085018261344a565b5060608201516130ea606085018261344a565b5060808201516130fd608085018261344a565b5060a082015161311060a085018261344a565b50505050565b80516101c08301906131288482612c2b565b50602082015161313b602085018261344a565b50604082015161314e604085018261344a565b506060820151613161606085018261344a565b506080820151613174608085018261344a565b5060a082015161318760a085018261344a565b5060c082015161319a60c085018261344a565b5060e08201516131ad60e085018261344a565b506101008201516131c261010085018261344a565b506101208201516131d7610120850182612fdf565b506101408201516131ec61014085018261344a565b50610160820151613201610160850182612c2b565b5061018082015161321661018085018261344a565b506101a08201516131106101a085018261344a565b8051604083019061323c8482612c2b565b506020820151613110602085018261344a565b80516080830190613260848261344a565b506020820151613273602085018261344a565b5060408201516132866040850182612c2b565b506060820151613110606085018261344a565b805160608301906132aa848261344a565b5060208201516132bd602085018261344a565b5060408201516131106040850182612c2b565b8051604083019061323c848261344a565b80516000906101a08401906132f6858261344a565b5060208301516133096020860182612c2b565b50604083015161331c604086018261344a565b50606083015184820360608601526133348282612c34565b9150506080830151848203608086015261334e8282612f91565b91505060a083015184820360a08601526133688282612d49565b91505060c083015184820360c08601526133828282612c8d565b91505060e083015161339760e086018261344a565b506101008301516133ac61010086018261344a565b506101208301516133c161012086018261344a565b506101408301516133d661014086018261344a565b506101608301516133eb610160860182612fdf565b50610180830151613098610180860182612fdf565b80516080830190613411848261344a565b5060208201516134246020850182612fdf565b5060408201516134376040850182612fdf565b506060820151613110606085018261345c565b612c2581613683565b612c25816136ac565b612c2581613695565b60006102fa8284613029565b60208101610ea28284612c2b565b60208101610ea28284612c1c565b6040810161349b8285612c1c565b6102fa6020830184612c2b565b604081016134b68285612c2b565b6102fa6020830184613453565b602080825281016102fa8184612daa565b602080825281016102fa8184612df8565b602080825281016102fa8184612e46565b602080825281016102fa8184612e94565b602080825281016102fa8184612ee2565b602080825281016102fa8184612f43565b60208101610ea28284613020565b602080825281016102fa8184612fe8565b602080825281016102fa8184613058565b60c08101610ea282846130a0565b6101c08101610ea28284613116565b60408101610ea2828461322b565b60808101610ea2828461324f565b60608101610ea28284613299565b60208101610ea2828461344a565b6040810161349b828561344a565b604081016135ca828561344a565b6102fa602083018461344a565b6040518181016001600160401b03811182821017156135f557600080fd5b604052919050565b60006001600160401b0382111561361357600080fd5b5060209081020190565b60006001600160401b0382111561363357600080fd5b506020601f91909101601f19160190565b60200190565b5190565b90815260200190565b919050565b6000610ea282613677565b151590565b6000610ea28261365c565b6001600160a01b031690565b90565b63ffffffff1690565b60ff1690565b6001600160601b031690565b6000610ea28261366c565b6000610ea282613686565b60005b838110156136d25781810151838201526020016136ba565b838111156131105750506000910152565b601f01601f191690565b6136f68161365c565b811461370157600080fd5b50565b6136f681613667565b6136f68161366c565b6136f681613683565b6136f681613686565b6136f68161368f565b6136f68161369556fea365627a7a723158202728f817765dfeb3a0c6663b0356a02ce21d71bf1c538b0d4320abccca0105c56c6578706572696d656e74616cf564736f6c63430005100040",
  "source": "pragma solidity ^0.5.16;\npragma experimental ABIEncoderV2;\n\nimport \"../CErc20.sol\";\nimport \"../CToken.sol\";\nimport \"../PriceOracle.sol\";\nimport \"../EIP20Interface.sol\";\nimport \"../Governance/GovernorAlpha.sol\";\nimport \"../Governance/Comp.sol\";\n\ninterface ComptrollerLensInterface {\n    function markets(address) external view returns (bool, uint);\n    function oracle() external view returns (PriceOracle);\n    function getAccountLiquidity(address) external view returns (uint, uint, uint);\n    function getAssetsIn(address) external view returns (CToken[] memory);\n    function claimComp(address) external;\n    function compAccrued(address) external view returns (uint);\n}\n\ncontract CompoundLens {\n    struct CTokenMetadata {\n        address cToken;\n        uint exchangeRateCurrent;\n        uint supplyRatePerBlock;\n        uint borrowRatePerBlock;\n        uint reserveFactorMantissa;\n        uint totalBorrows;\n        uint totalReserves;\n        uint totalSupply;\n        uint totalCash;\n        bool isListed;\n        uint collateralFactorMantissa;\n        address underlyingAssetAddress;\n        uint cTokenDecimals;\n        uint underlyingDecimals;\n    }\n\n    function cTokenMetadata(CToken cToken) public returns (CTokenMetadata memory) {\n        uint exchangeRateCurrent = cToken.exchangeRateCurrent();\n        ComptrollerLensInterface comptroller = ComptrollerLensInterface(address(cToken.comptroller()));\n        (bool isListed, uint collateralFactorMantissa) = comptroller.markets(address(cToken));\n        address underlyingAssetAddress;\n        uint underlyingDecimals;\n\n        if (compareStrings(cToken.symbol(), \"cETH\")) {\n            underlyingAssetAddress = address(0);\n            underlyingDecimals = 18;\n        } else {\n            CErc20 cErc20 = CErc20(address(cToken));\n            underlyingAssetAddress = cErc20.underlying();\n            underlyingDecimals = EIP20Interface(cErc20.underlying()).decimals();\n        }\n\n        return CTokenMetadata({\n            cToken: address(cToken),\n            exchangeRateCurrent: exchangeRateCurrent,\n            supplyRatePerBlock: cToken.supplyRatePerBlock(),\n            borrowRatePerBlock: cToken.borrowRatePerBlock(),\n            reserveFactorMantissa: cToken.reserveFactorMantissa(),\n            totalBorrows: cToken.totalBorrows(),\n            totalReserves: cToken.totalReserves(),\n            totalSupply: cToken.totalSupply(),\n            totalCash: cToken.getCash(),\n            isListed: isListed,\n            collateralFactorMantissa: collateralFactorMantissa,\n            underlyingAssetAddress: underlyingAssetAddress,\n            cTokenDecimals: cToken.decimals(),\n            underlyingDecimals: underlyingDecimals\n        });\n    }\n\n    function cTokenMetadataAll(CToken[] calldata cTokens) external returns (CTokenMetadata[] memory) {\n        uint cTokenCount = cTokens.length;\n        CTokenMetadata[] memory res = new CTokenMetadata[](cTokenCount);\n        for (uint i = 0; i < cTokenCount; i++) {\n            res[i] = cTokenMetadata(cTokens[i]);\n        }\n        return res;\n    }\n\n    struct CTokenBalances {\n        address cToken;\n        uint balanceOf;\n        uint borrowBalanceCurrent;\n        uint balanceOfUnderlying;\n        uint tokenBalance;\n        uint tokenAllowance;\n    }\n\n    function cTokenBalances(CToken cToken, address payable account) public returns (CTokenBalances memory) {\n        uint balanceOf = cToken.balanceOf(account);\n        uint borrowBalanceCurrent = cToken.borrowBalanceCurrent(account);\n        uint balanceOfUnderlying = cToken.balanceOfUnderlying(account);\n        uint tokenBalance;\n        uint tokenAllowance;\n\n        if (compareStrings(cToken.symbol(), \"cETH\")) {\n            tokenBalance = account.balance;\n            tokenAllowance = account.balance;\n        } else {\n            CErc20 cErc20 = CErc20(address(cToken));\n            EIP20Interface underlying = EIP20Interface(cErc20.underlying());\n            tokenBalance = underlying.balanceOf(account);\n            tokenAllowance = underlying.allowance(account, address(cToken));\n        }\n\n        return CTokenBalances({\n            cToken: address(cToken),\n            balanceOf: balanceOf,\n            borrowBalanceCurrent: borrowBalanceCurrent,\n            balanceOfUnderlying: balanceOfUnderlying,\n            tokenBalance: tokenBalance,\n            tokenAllowance: tokenAllowance\n        });\n    }\n\n    function cTokenBalancesAll(CToken[] calldata cTokens, address payable account) external returns (CTokenBalances[] memory) {\n        uint cTokenCount = cTokens.length;\n        CTokenBalances[] memory res = new CTokenBalances[](cTokenCount);\n        for (uint i = 0; i < cTokenCount; i++) {\n            res[i] = cTokenBalances(cTokens[i], account);\n        }\n        return res;\n    }\n\n    struct CTokenUnderlyingPrice {\n        address cToken;\n        uint underlyingPrice;\n    }\n\n    function cTokenUnderlyingPrice(CToken cToken) public view returns (CTokenUnderlyingPrice memory) {\n        ComptrollerLensInterface comptroller = ComptrollerLensInterface(address(cToken.comptroller()));\n        PriceOracle priceOracle = comptroller.oracle();\n\n        return CTokenUnderlyingPrice({\n            cToken: address(cToken),\n            underlyingPrice: priceOracle.getUnderlyingPrice(cToken)\n        });\n    }\n\n    function cTokenUnderlyingPriceAll(CToken[] calldata cTokens) external view returns (CTokenUnderlyingPrice[] memory) {\n        uint cTokenCount = cTokens.length;\n        CTokenUnderlyingPrice[] memory res = new CTokenUnderlyingPrice[](cTokenCount);\n        for (uint i = 0; i < cTokenCount; i++) {\n            res[i] = cTokenUnderlyingPrice(cTokens[i]);\n        }\n        return res;\n    }\n\n    struct AccountLimits {\n        CToken[] markets;\n        uint liquidity;\n        uint shortfall;\n    }\n\n    function getAccountLimits(ComptrollerLensInterface comptroller, address account) public view returns (AccountLimits memory) {\n        (uint errorCode, uint liquidity, uint shortfall) = comptroller.getAccountLiquidity(account);\n        require(errorCode == 0);\n\n        return AccountLimits({\n            markets: comptroller.getAssetsIn(account),\n            liquidity: liquidity,\n            shortfall: shortfall\n        });\n    }\n\n    struct GovReceipt {\n        uint proposalId;\n        bool hasVoted;\n        bool support;\n        uint96 votes;\n    }\n\n    function getGovReceipts(GovernorAlpha governor, address voter, uint[] memory proposalIds) public view returns (GovReceipt[] memory) {\n        uint proposalCount = proposalIds.length;\n        GovReceipt[] memory res = new GovReceipt[](proposalCount);\n        for (uint i = 0; i < proposalCount; i++) {\n            GovernorAlpha.Receipt memory receipt = governor.getReceipt(proposalIds[i], voter);\n            res[i] = GovReceipt({\n                proposalId: proposalIds[i],\n                hasVoted: receipt.hasVoted,\n                support: receipt.support,\n                votes: receipt.votes\n            });\n        }\n        return res;\n    }\n\n    struct GovProposal {\n        uint proposalId;\n        address proposer;\n        uint eta;\n        address[] targets;\n        uint[] values;\n        string[] signatures;\n        bytes[] calldatas;\n        uint startBlock;\n        uint endBlock;\n        uint forVotes;\n        uint againstVotes;\n        bool canceled;\n        bool executed;\n    }\n\n    function setProposal(GovProposal memory res, GovernorAlpha governor, uint proposalId) internal view {\n        (\n            ,\n            address proposer,\n            uint eta,\n            uint startBlock,\n            uint endBlock,\n            uint forVotes,\n            uint againstVotes,\n            bool canceled,\n            bool executed\n        ) = governor.proposals(proposalId);\n        res.proposalId = proposalId;\n        res.proposer = proposer;\n        res.eta = eta;\n        res.startBlock = startBlock;\n        res.endBlock = endBlock;\n        res.forVotes = forVotes;\n        res.againstVotes = againstVotes;\n        res.canceled = canceled;\n        res.executed = executed;\n    }\n\n    function getGovProposals(GovernorAlpha governor, uint[] calldata proposalIds) external view returns (GovProposal[] memory) {\n        GovProposal[] memory res = new GovProposal[](proposalIds.length);\n        for (uint i = 0; i < proposalIds.length; i++) {\n            (\n                address[] memory targets,\n                uint[] memory values,\n                string[] memory signatures,\n                bytes[] memory calldatas\n            ) = governor.getActions(proposalIds[i]);\n            res[i] = GovProposal({\n                proposalId: 0,\n                proposer: address(0),\n                eta: 0,\n                targets: targets,\n                values: values,\n                signatures: signatures,\n                calldatas: calldatas,\n                startBlock: 0,\n                endBlock: 0,\n                forVotes: 0,\n                againstVotes: 0,\n                canceled: false,\n                executed: false\n            });\n            setProposal(res[i], governor, proposalIds[i]);\n        }\n        return res;\n    }\n\n    struct CompBalanceMetadata {\n        uint balance;\n        uint votes;\n        address delegate;\n    }\n\n    function getCompBalanceMetadata(Comp comp, address account) external view returns (CompBalanceMetadata memory) {\n        return CompBalanceMetadata({\n            balance: comp.balanceOf(account),\n            votes: uint256(comp.getCurrentVotes(account)),\n            delegate: comp.delegates(account)\n        });\n    }\n\n    struct CompBalanceMetadataExt {\n        uint balance;\n        uint votes;\n        address delegate;\n        uint allocated;\n    }\n\n    function getCompBalanceMetadataExt(Comp comp, ComptrollerLensInterface comptroller, address account) external returns (CompBalanceMetadataExt memory) {\n        uint balance = comp.balanceOf(account);\n        comptroller.claimComp(account);\n        uint newBalance = comp.balanceOf(account);\n        uint accrued = comptroller.compAccrued(account);\n        uint total = add(accrued, newBalance, \"sum comp total\");\n        uint allocated = sub(total, balance, \"sub allocated\");\n\n        return CompBalanceMetadataExt({\n            balance: balance,\n            votes: uint256(comp.getCurrentVotes(account)),\n            delegate: comp.delegates(account),\n            allocated: allocated\n        });\n    }\n\n    function getCompBalanceWithAccrued(Comp comp, ComptrollerLensInterface comptroller, address account) external returns (uint balance, uint allocated) {\n        balance = comp.balanceOf(account);\n        comptroller.claimComp(account);\n        uint newBalance = comp.balanceOf(account);\n        uint accrued = comptroller.compAccrued(account);\n        uint total = add(accrued, newBalance, \"sum comp total\");\n        allocated = sub(total, balance, \"sub allocated\");\n    }\n\n    struct CompVotes {\n        uint blockNumber;\n        uint votes;\n    }\n\n    function getCompVotes(Comp comp, address account, uint32[] calldata blockNumbers) external view returns (CompVotes[] memory) {\n        CompVotes[] memory res = new CompVotes[](blockNumbers.length);\n        for (uint i = 0; i < blockNumbers.length; i++) {\n            res[i] = CompVotes({\n                blockNumber: uint256(blockNumbers[i]),\n                votes: uint256(comp.getPriorVotes(account, blockNumbers[i]))\n            });\n        }\n        return res;\n    }\n\n    function compareStrings(string memory a, string memory b) internal pure returns (bool) {\n        return (keccak256(abi.encodePacked((a))) == keccak256(abi.encodePacked((b))));\n    }\n\n    function add(uint a, uint b, string memory errorMessage) internal pure returns (uint) {\n        uint c = a + b;\n        require(c >= a, errorMessage);\n        return c;\n    }\n\n    function sub(uint a, uint b, string memory errorMessage) internal pure returns (uint) {\n        require(b <= a, errorMessage);\n        uint c = a - b;\n        return c;\n    }\n}\n",
  "sourcePath": "/Users/ashton/repo/blockchain/eth/smartcontracts/quicksilver-protocol/contracts/compound/Lens/CompoundLens.sol",
  "compiler": {
    "name": "solc",
    "version": "0.5.16+commit.9c3226ce.Emscripten.clang"
  },
  "schemaVersion": "3.2.0",
  "updatedAt": "2021-03-18T10:38:39.564Z",
  "devdoc": {
    "methods": {}
  },
  "userdoc": {
    "methods": {}
  }
}