{
  "contractName": "CompoundLens",
  "abi": [
    {
      "constant": false,
      "inputs": [
        {
          "internalType": "contract CToken",
          "name": "cToken",
          "type": "address"
        }
      ],
      "name": "cTokenMetadataExpand",
      "outputs": [
        {
          "internalType": "uint256",
          "name": "exchangeRateCurrent",
          "type": "uint256"
        },
        {
          "internalType": "uint256",
          "name": "supplyRatePerBlock",
          "type": "uint256"
        },
        {
          "internalType": "uint256",
          "name": "borrowRatePerBlock",
          "type": "uint256"
        },
        {
          "internalType": "uint256",
          "name": "reserveFactorMantissa",
          "type": "uint256"
        },
        {
          "internalType": "uint256",
          "name": "totalBorrows",
          "type": "uint256"
        },
        {
          "internalType": "uint256",
          "name": "totalReserves",
          "type": "uint256"
        },
        {
          "internalType": "uint256",
          "name": "totalSupply",
          "type": "uint256"
        },
        {
          "internalType": "uint256",
          "name": "totalCash",
          "type": "uint256"
        },
        {
          "internalType": "bool",
          "name": "isListed",
          "type": "bool"
        },
        {
          "internalType": "uint256",
          "name": "collateralFactorMantissa",
          "type": "uint256"
        },
        {
          "internalType": "address",
          "name": "underlyingAssetAddress",
          "type": "address"
        },
        {
          "internalType": "uint256",
          "name": "underlyingDecimals",
          "type": "uint256"
        }
      ],
      "payable": false,
      "stateMutability": "nonpayable",
      "type": "function"
    },
    {
      "constant": false,
      "inputs": [
        {
          "internalType": "contract CToken",
          "name": "cToken",
          "type": "address"
        }
      ],
      "name": "cTokenMetadata",
      "outputs": [
        {
          "components": [
            {
              "internalType": "address",
              "name": "cToken",
              "type": "address"
            },
            {
              "internalType": "uint256",
              "name": "exchangeRateCurrent",
              "type": "uint256"
            },
            {
              "internalType": "uint256",
              "name": "supplyRatePerBlock",
              "type": "uint256"
            },
            {
              "internalType": "uint256",
              "name": "borrowRatePerBlock",
              "type": "uint256"
            },
            {
              "internalType": "uint256",
              "name": "reserveFactorMantissa",
              "type": "uint256"
            },
            {
              "internalType": "uint256",
              "name": "totalBorrows",
              "type": "uint256"
            },
            {
              "internalType": "uint256",
              "name": "totalReserves",
              "type": "uint256"
            },
            {
              "internalType": "uint256",
              "name": "totalSupply",
              "type": "uint256"
            },
            {
              "internalType": "uint256",
              "name": "totalCash",
              "type": "uint256"
            },
            {
              "internalType": "bool",
              "name": "isListed",
              "type": "bool"
            },
            {
              "internalType": "uint256",
              "name": "collateralFactorMantissa",
              "type": "uint256"
            },
            {
              "internalType": "address",
              "name": "underlyingAssetAddress",
              "type": "address"
            },
            {
              "internalType": "uint256",
              "name": "cTokenDecimals",
              "type": "uint256"
            },
            {
              "internalType": "uint256",
              "name": "underlyingDecimals",
              "type": "uint256"
            }
          ],
          "internalType": "struct CompoundLens.CTokenMetadata",
          "name": "",
          "type": "tuple"
        }
      ],
      "payable": false,
      "stateMutability": "nonpayable",
      "type": "function"
    },
    {
      "constant": false,
      "inputs": [
        {
          "internalType": "contract CToken[]",
          "name": "cTokens",
          "type": "address[]"
        }
      ],
      "name": "cTokenMetadataAll",
      "outputs": [
        {
          "components": [
            {
              "internalType": "address",
              "name": "cToken",
              "type": "address"
            },
            {
              "internalType": "uint256",
              "name": "exchangeRateCurrent",
              "type": "uint256"
            },
            {
              "internalType": "uint256",
              "name": "supplyRatePerBlock",
              "type": "uint256"
            },
            {
              "internalType": "uint256",
              "name": "borrowRatePerBlock",
              "type": "uint256"
            },
            {
              "internalType": "uint256",
              "name": "reserveFactorMantissa",
              "type": "uint256"
            },
            {
              "internalType": "uint256",
              "name": "totalBorrows",
              "type": "uint256"
            },
            {
              "internalType": "uint256",
              "name": "totalReserves",
              "type": "uint256"
            },
            {
              "internalType": "uint256",
              "name": "totalSupply",
              "type": "uint256"
            },
            {
              "internalType": "uint256",
              "name": "totalCash",
              "type": "uint256"
            },
            {
              "internalType": "bool",
              "name": "isListed",
              "type": "bool"
            },
            {
              "internalType": "uint256",
              "name": "collateralFactorMantissa",
              "type": "uint256"
            },
            {
              "internalType": "address",
              "name": "underlyingAssetAddress",
              "type": "address"
            },
            {
              "internalType": "uint256",
              "name": "cTokenDecimals",
              "type": "uint256"
            },
            {
              "internalType": "uint256",
              "name": "underlyingDecimals",
              "type": "uint256"
            }
          ],
          "internalType": "struct CompoundLens.CTokenMetadata[]",
          "name": "",
          "type": "tuple[]"
        }
      ],
      "payable": false,
      "stateMutability": "nonpayable",
      "type": "function"
    },
    {
      "constant": false,
      "inputs": [
        {
          "internalType": "contract CToken",
          "name": "cToken",
          "type": "address"
        },
        {
          "internalType": "address payable",
          "name": "account",
          "type": "address"
        }
      ],
      "name": "cTokenBalances",
      "outputs": [
        {
          "components": [
            {
              "internalType": "address",
              "name": "cToken",
              "type": "address"
            },
            {
              "internalType": "uint256",
              "name": "balanceOf",
              "type": "uint256"
            },
            {
              "internalType": "uint256",
              "name": "borrowBalanceCurrent",
              "type": "uint256"
            },
            {
              "internalType": "uint256",
              "name": "balanceOfUnderlying",
              "type": "uint256"
            },
            {
              "internalType": "uint256",
              "name": "tokenBalance",
              "type": "uint256"
            },
            {
              "internalType": "uint256",
              "name": "tokenAllowance",
              "type": "uint256"
            }
          ],
          "internalType": "struct CompoundLens.CTokenBalances",
          "name": "",
          "type": "tuple"
        }
      ],
      "payable": false,
      "stateMutability": "nonpayable",
      "type": "function"
    },
    {
      "constant": false,
      "inputs": [
        {
          "internalType": "contract CToken[]",
          "name": "cTokens",
          "type": "address[]"
        },
        {
          "internalType": "address payable",
          "name": "account",
          "type": "address"
        }
      ],
      "name": "cTokenBalancesAll",
      "outputs": [
        {
          "components": [
            {
              "internalType": "address",
              "name": "cToken",
              "type": "address"
            },
            {
              "internalType": "uint256",
              "name": "balanceOf",
              "type": "uint256"
            },
            {
              "internalType": "uint256",
              "name": "borrowBalanceCurrent",
              "type": "uint256"
            },
            {
              "internalType": "uint256",
              "name": "balanceOfUnderlying",
              "type": "uint256"
            },
            {
              "internalType": "uint256",
              "name": "tokenBalance",
              "type": "uint256"
            },
            {
              "internalType": "uint256",
              "name": "tokenAllowance",
              "type": "uint256"
            }
          ],
          "internalType": "struct CompoundLens.CTokenBalances[]",
          "name": "",
          "type": "tuple[]"
        }
      ],
      "payable": false,
      "stateMutability": "nonpayable",
      "type": "function"
    },
    {
      "constant": true,
      "inputs": [
        {
          "internalType": "contract CToken",
          "name": "cToken",
          "type": "address"
        }
      ],
      "name": "cTokenUnderlyingPrice",
      "outputs": [
        {
          "components": [
            {
              "internalType": "address",
              "name": "cToken",
              "type": "address"
            },
            {
              "internalType": "uint256",
              "name": "underlyingPrice",
              "type": "uint256"
            }
          ],
          "internalType": "struct CompoundLens.CTokenUnderlyingPrice",
          "name": "",
          "type": "tuple"
        }
      ],
      "payable": false,
      "stateMutability": "view",
      "type": "function"
    },
    {
      "constant": true,
      "inputs": [
        {
          "internalType": "contract CToken[]",
          "name": "cTokens",
          "type": "address[]"
        }
      ],
      "name": "cTokenUnderlyingPriceAll",
      "outputs": [
        {
          "components": [
            {
              "internalType": "address",
              "name": "cToken",
              "type": "address"
            },
            {
              "internalType": "uint256",
              "name": "underlyingPrice",
              "type": "uint256"
            }
          ],
          "internalType": "struct CompoundLens.CTokenUnderlyingPrice[]",
          "name": "",
          "type": "tuple[]"
        }
      ],
      "payable": false,
      "stateMutability": "view",
      "type": "function"
    },
    {
      "constant": true,
      "inputs": [
        {
          "internalType": "contract ComptrollerLensInterface",
          "name": "comptroller",
          "type": "address"
        },
        {
          "internalType": "address",
          "name": "account",
          "type": "address"
        }
      ],
      "name": "getAccountLimits",
      "outputs": [
        {
          "components": [
            {
              "internalType": "contract CToken[]",
              "name": "markets",
              "type": "address[]"
            },
            {
              "internalType": "uint256",
              "name": "liquidity",
              "type": "uint256"
            },
            {
              "internalType": "uint256",
              "name": "shortfall",
              "type": "uint256"
            }
          ],
          "internalType": "struct CompoundLens.AccountLimits",
          "name": "",
          "type": "tuple"
        }
      ],
      "payable": false,
      "stateMutability": "view",
      "type": "function"
    },
    {
      "constant": true,
      "inputs": [
        {
          "internalType": "contract GovernorAlpha",
          "name": "governor",
          "type": "address"
        },
        {
          "internalType": "address",
          "name": "voter",
          "type": "address"
        },
        {
          "internalType": "uint256[]",
          "name": "proposalIds",
          "type": "uint256[]"
        }
      ],
      "name": "getGovReceipts",
      "outputs": [
        {
          "components": [
            {
              "internalType": "uint256",
              "name": "proposalId",
              "type": "uint256"
            },
            {
              "internalType": "bool",
              "name": "hasVoted",
              "type": "bool"
            },
            {
              "internalType": "bool",
              "name": "support",
              "type": "bool"
            },
            {
              "internalType": "uint96",
              "name": "votes",
              "type": "uint96"
            }
          ],
          "internalType": "struct CompoundLens.GovReceipt[]",
          "name": "",
          "type": "tuple[]"
        }
      ],
      "payable": false,
      "stateMutability": "view",
      "type": "function"
    },
    {
      "constant": true,
      "inputs": [
        {
          "internalType": "contract GovernorAlpha",
          "name": "governor",
          "type": "address"
        },
        {
          "internalType": "uint256[]",
          "name": "proposalIds",
          "type": "uint256[]"
        }
      ],
      "name": "getGovProposals",
      "outputs": [
        {
          "components": [
            {
              "internalType": "uint256",
              "name": "proposalId",
              "type": "uint256"
            },
            {
              "internalType": "address",
              "name": "proposer",
              "type": "address"
            },
            {
              "internalType": "uint256",
              "name": "eta",
              "type": "uint256"
            },
            {
              "internalType": "address[]",
              "name": "targets",
              "type": "address[]"
            },
            {
              "internalType": "uint256[]",
              "name": "values",
              "type": "uint256[]"
            },
            {
              "internalType": "string[]",
              "name": "signatures",
              "type": "string[]"
            },
            {
              "internalType": "bytes[]",
              "name": "calldatas",
              "type": "bytes[]"
            },
            {
              "internalType": "uint256",
              "name": "startBlock",
              "type": "uint256"
            },
            {
              "internalType": "uint256",
              "name": "endBlock",
              "type": "uint256"
            },
            {
              "internalType": "uint256",
              "name": "forVotes",
              "type": "uint256"
            },
            {
              "internalType": "uint256",
              "name": "againstVotes",
              "type": "uint256"
            },
            {
              "internalType": "bool",
              "name": "canceled",
              "type": "bool"
            },
            {
              "internalType": "bool",
              "name": "executed",
              "type": "bool"
            }
          ],
          "internalType": "struct CompoundLens.GovProposal[]",
          "name": "",
          "type": "tuple[]"
        }
      ],
      "payable": false,
      "stateMutability": "view",
      "type": "function"
    },
    {
      "constant": true,
      "inputs": [
        {
          "internalType": "contract Comp",
          "name": "comp",
          "type": "address"
        },
        {
          "internalType": "address",
          "name": "account",
          "type": "address"
        }
      ],
      "name": "getCompBalanceMetadata",
      "outputs": [
        {
          "components": [
            {
              "internalType": "uint256",
              "name": "balance",
              "type": "uint256"
            },
            {
              "internalType": "uint256",
              "name": "votes",
              "type": "uint256"
            },
            {
              "internalType": "address",
              "name": "delegate",
              "type": "address"
            }
          ],
          "internalType": "struct CompoundLens.CompBalanceMetadata",
          "name": "",
          "type": "tuple"
        }
      ],
      "payable": false,
      "stateMutability": "view",
      "type": "function"
    },
    {
      "constant": false,
      "inputs": [
        {
          "internalType": "contract Comp",
          "name": "comp",
          "type": "address"
        },
        {
          "internalType": "contract ComptrollerLensInterface",
          "name": "comptroller",
          "type": "address"
        },
        {
          "internalType": "address",
          "name": "account",
          "type": "address"
        }
      ],
      "name": "getCompBalanceMetadataExt",
      "outputs": [
        {
          "components": [
            {
              "internalType": "uint256",
              "name": "balance",
              "type": "uint256"
            },
            {
              "internalType": "uint256",
              "name": "votes",
              "type": "uint256"
            },
            {
              "internalType": "address",
              "name": "delegate",
              "type": "address"
            },
            {
              "internalType": "uint256",
              "name": "allocated",
              "type": "uint256"
            }
          ],
          "internalType": "struct CompoundLens.CompBalanceMetadataExt",
          "name": "",
          "type": "tuple"
        }
      ],
      "payable": false,
      "stateMutability": "nonpayable",
      "type": "function"
    },
    {
      "constant": false,
      "inputs": [
        {
          "internalType": "contract Comp",
          "name": "comp",
          "type": "address"
        },
        {
          "internalType": "contract ComptrollerLensInterface",
          "name": "comptroller",
          "type": "address"
        },
        {
          "internalType": "address",
          "name": "account",
          "type": "address"
        }
      ],
      "name": "getCompBalanceWithAccrued",
      "outputs": [
        {
          "internalType": "uint256",
          "name": "balance",
          "type": "uint256"
        },
        {
          "internalType": "uint256",
          "name": "allocated",
          "type": "uint256"
        }
      ],
      "payable": false,
      "stateMutability": "nonpayable",
      "type": "function"
    },
    {
      "constant": true,
      "inputs": [
        {
          "internalType": "contract Comp",
          "name": "comp",
          "type": "address"
        },
        {
          "internalType": "address",
          "name": "account",
          "type": "address"
        },
        {
          "internalType": "uint32[]",
          "name": "blockNumbers",
          "type": "uint32[]"
        }
      ],
      "name": "getCompVotes",
      "outputs": [
        {
          "components": [
            {
              "internalType": "uint256",
              "name": "blockNumber",
              "type": "uint256"
            },
            {
              "internalType": "uint256",
              "name": "votes",
              "type": "uint256"
            }
          ],
          "internalType": "struct CompoundLens.CompVotes[]",
          "name": "",
          "type": "tuple[]"
        }
      ],
      "payable": false,
      "stateMutability": "view",
      "type": "function"
    }
  ],
  "bytecode": "0x608060405234801561001057600080fd5b506138f4806100206000396000f3fe608060405234801561001057600080fd5b50600436106100ba5760003560e01c80630972bf8b146100bf578063158eca8b146100e85780631ea63741146101085780632b2d5ed6146101285780632eb98af314610148578063416405d7146101735780634b70d84b1461019357806359564219146101b35780637dd8f6d9146101d357806396994869146101f3578063995ed99f14610213578063bdf950c914610233578063c5ae593414610253578063fb7638c114610273575b600080fd5b6100d26100cd3660046127e7565b610294565b6040516100df9190613587565b60405180910390f35b6100fb6100f63660046128a9565b610337565b6040516100df919061362b565b61011b61011636600461295e565b610abb565b6040516100df9190613648565b61013b6101363660046127a6565b610e42565b6040516100df91906135a9565b61015b6101563660046128a9565b610ede565b6040516100df9c9b9a9998979695949392919061369b565b6101866101813660046128c7565b610f6c565b6040516100df9190613656565b6101a66101a13660046127a6565b611115565b6040516100df9190613598565b6101c66101c13660046128f7565b6111a6565b6040516100df91906135ba565b6101e66101e13660046128c7565b6112fe565b6040516100df919061360c565b610206610201366004612a19565b61143a565b6040516100df91906135cb565b6102266102213660046129bf565b6115f6565b6040516100df91906135dc565b6102466102413660046128c7565b611750565b6040516100df919061361d565b6102666102613660046128a9565b611af0565b6040516100df919061363a565b61028661028136600461295e565b611c82565b6040516100df929190613680565b604080518381526020808502820101909152606090839082908280156102d457816020015b6102c16120b0565b8152602001906001900390816102b95790505b50905060005b8281101561032b5761030c8787838181106102f157fe5b905060200201602061030691908101906128a9565b86611750565b82828151811061031857fe5b60209081029190910101526001016102da565b509150505b9392505050565b61033f6120ef565b6000826001600160a01b031663bd6d894d6040518163ffffffff1660e01b8152600401602060405180830381600087803b15801561037c57600080fd5b505af1158015610390573d6000803e3d6000fd5b505050506040513d601f19601f820116820180604052506103b49190810190612ac0565b90506000836001600160a01b0316635fe3b5676040518163ffffffff1660e01b815260040160206040518083038186803b1580156103f157600080fd5b505afa158015610405573d6000803e3d6000fd5b505050506040513d601f19601f8201168201806040525061042991908101906129a1565b9050600080826001600160a01b0316638e8f294b876040518263ffffffff1660e01b815260040161045a9190613535565b604080518083038186803b15801561047157600080fd5b505afa158015610485573d6000803e3d6000fd5b505050506040513d601f19601f820116820180604052506104a9919081019061286f565b9150915060008061054a886001600160a01b03166395d89b416040518163ffffffff1660e01b815260040160006040518083038186803b1580156104ec57600080fd5b505afa158015610500573d6000803e3d6000fd5b505050506040513d6000823e601f3d908101601f191682016040526105289190810190612a6e565b604051806040016040528060048152602001630c68aa8960e31b815250611ed5565b1561055b57506000905060126106bb565b6000889050806001600160a01b0316636f307dc36040518163ffffffff1660e01b815260040160206040518083038186803b15801561059957600080fd5b505afa1580156105ad573d6000803e3d6000fd5b505050506040513d601f19601f820116820180604052506105d191908101906126c4565b9250806001600160a01b0316636f307dc36040518163ffffffff1660e01b815260040160206040518083038186803b15801561060c57600080fd5b505afa158015610620573d6000803e3d6000fd5b505050506040513d601f19601f8201168201806040525061064491908101906126c4565b6001600160a01b031663313ce5676040518163ffffffff1660e01b815260040160206040518083038186803b15801561067c57600080fd5b505afa158015610690573d6000803e3d6000fd5b505050506040513d601f19601f820116820180604052506106b49190810190612c03565b60ff169150505b604051806101c00160405280896001600160a01b03168152602001878152602001896001600160a01b031663ae9d70b06040518163ffffffff1660e01b815260040160206040518083038186803b15801561071557600080fd5b505afa158015610729573d6000803e3d6000fd5b505050506040513d601f19601f8201168201806040525061074d9190810190612ac0565b8152602001896001600160a01b031663f8f9da286040518163ffffffff1660e01b815260040160206040518083038186803b15801561078b57600080fd5b505afa15801561079f573d6000803e3d6000fd5b505050506040513d601f19601f820116820180604052506107c39190810190612ac0565b8152602001896001600160a01b031663173b99046040518163ffffffff1660e01b815260040160206040518083038186803b15801561080157600080fd5b505afa158015610815573d6000803e3d6000fd5b505050506040513d601f19601f820116820180604052506108399190810190612ac0565b8152602001896001600160a01b03166347bd37186040518163ffffffff1660e01b815260040160206040518083038186803b15801561087757600080fd5b505afa15801561088b573d6000803e3d6000fd5b505050506040513d601f19601f820116820180604052506108af9190810190612ac0565b8152602001896001600160a01b0316638f840ddd6040518163ffffffff1660e01b815260040160206040518083038186803b1580156108ed57600080fd5b505afa158015610901573d6000803e3d6000fd5b505050506040513d601f19601f820116820180604052506109259190810190612ac0565b8152602001896001600160a01b03166318160ddd6040518163ffffffff1660e01b815260040160206040518083038186803b15801561096357600080fd5b505afa158015610977573d6000803e3d6000fd5b505050506040513d601f19601f8201168201806040525061099b9190810190612ac0565b8152602001896001600160a01b0316633b1d21a26040518163ffffffff1660e01b815260040160206040518083038186803b1580156109d957600080fd5b505afa1580156109ed573d6000803e3d6000fd5b505050506040513d601f19601f82011682018060405250610a119190810190612ac0565b81526020018515158152602001848152602001836001600160a01b03168152602001896001600160a01b031663313ce5676040518163ffffffff1660e01b815260040160206040518083038186803b158015610a6c57600080fd5b505afa158015610a80573d6000803e3d6000fd5b505050506040513d601f19601f82011682018060405250610aa49190810190612c03565b60ff16815260200191909152979650505050505050565b610ac3612172565b6040516370a0823160e01b81526000906001600160a01b038616906370a0823190610af2908690600401613535565b60206040518083038186803b158015610b0a57600080fd5b505afa158015610b1e573d6000803e3d6000fd5b505050506040513d601f19601f82011682018060405250610b429190810190612ac0565b6040516374d7814960e11b81529091506001600160a01b0385169063e9af029290610b71908690600401613535565b600060405180830381600087803b158015610b8b57600080fd5b505af1158015610b9f573d6000803e3d6000fd5b50506040516370a0823160e01b8152600092506001600160a01b03881691506370a0823190610bd2908790600401613535565b60206040518083038186803b158015610bea57600080fd5b505afa158015610bfe573d6000803e3d6000fd5b505050506040513d601f19601f82011682018060405250610c229190810190612ac0565b90506000856001600160a01b031663cc7ebdc4866040518263ffffffff1660e01b8152600401610c529190613535565b60206040518083038186803b158015610c6a57600080fd5b505afa158015610c7e573d6000803e3d6000fd5b505050506040513d601f19601f82011682018060405250610ca29190810190612ac0565b90506000610cd782846040518060400160405280600e81526020016d1cdd5b4818dbdb5c081d1bdd185b60921b815250611f2e565b90506000610d0b82866040518060400160405280600d81526020016c1cdd5888185b1b1bd8d85d1959609a1b815250611f5e565b905060405180608001604052808681526020018a6001600160a01b031663b4b5ea578a6040518263ffffffff1660e01b8152600401610d4a9190613535565b60206040518083038186803b158015610d6257600080fd5b505afa158015610d76573d6000803e3d6000fd5b505050506040513d601f19601f82011682018060405250610d9a9190810190612c21565b6001600160601b031681526020018a6001600160a01b031663587cde1e8a6040518263ffffffff1660e01b8152600401610dd49190613535565b60206040518083038186803b158015610dec57600080fd5b505afa158015610e00573d6000803e3d6000fd5b505050506040513d601f19601f82011682018060405250610e2491908101906126c4565b6001600160a01b031681526020019190915298975050505050505050565b60408051828152602080840282010190915260609082908290828015610e8257816020015b610e6f6121a3565b815260200190600190039081610e675790505b50905060005b82811015610ed357610eb4868683818110610e9f57fe5b905060200201602061026191908101906128a9565b828281518110610ec057fe5b6020908102919091010152600101610e88565b509150505b92915050565b600080600080600080600080600080600080610ef86120ef565b610f018e610337565b905080602001519c5080604001519b5080606001519a50806080015199508060a0015198508060c0015197508060e0015196508061010001519550806101200151945080610140015193508061016001519250806101a0015191505091939597999b5091939597999b565b610f746121ba565b6040805160608101918290526370a0823160e01b909152806001600160a01b0385166370a08231610fa88660648501613535565b60206040518083038186803b158015610fc057600080fd5b505afa158015610fd4573d6000803e3d6000fd5b505050506040513d601f19601f82011682018060405250610ff89190810190612ac0565b8152602001846001600160a01b031663b4b5ea57856040518263ffffffff1660e01b81526004016110299190613535565b60206040518083038186803b15801561104157600080fd5b505afa158015611055573d6000803e3d6000fd5b505050506040513d601f19601f820116820180604052506110799190810190612c21565b6001600160601b03168152602001846001600160a01b031663587cde1e856040518263ffffffff1660e01b81526004016110b39190613535565b60206040518083038186803b1580156110cb57600080fd5b505afa1580156110df573d6000803e3d6000fd5b505050506040513d601f19601f8201168201806040525061110391908101906126c4565b6001600160a01b031690529392505050565b6040805182815260208084028201019091526060908290829082801561115557816020015b6111426120ef565b81526020019060019003908161113a5790505b50905060005b82811015610ed35761118786868381811061117257fe5b90506020020160206100f691908101906128a9565b82828151811061119357fe5b602090810291909101015260010161115b565b606080838390506040519080825280602002602001820160405280156111e657816020015b6111d36121e4565b8152602001906001900390816111cb5790505b50905060005b838110156112f457604051806040016040528086868481811061120b57fe5b90506020020160206112209190810190612be5565b63ffffffff168152602001886001600160a01b031663782d6fe18989898781811061124757fe5b905060200201602061125c9190810190612be5565b6040518363ffffffff1660e01b815260040161127992919061356c565b60206040518083038186803b15801561129157600080fd5b505afa1580156112a5573d6000803e3d6000fd5b505050506040513d601f19601f820116820180604052506112c99190810190612c21565b6001600160601b03168152508282815181106112e157fe5b60209081029190910101526001016111ec565b5095945050505050565b6113066121fe565b6000806000856001600160a01b0316635ec88c79866040518263ffffffff1660e01b81526004016113379190613535565b60606040518083038186803b15801561134f57600080fd5b505afa158015611363573d6000803e3d6000fd5b505050506040513d601f19601f820116820180604052506113879190810190612ba2565b9250925092508260001461139a57600080fd5b604080516060810191829052632aff3bff60e21b909152806001600160a01b03881663abfceffc6113ce8960648501613535565b60006040518083038186803b1580156113e657600080fd5b505afa1580156113fa573d6000803e3d6000fd5b505050506040513d6000823e601f3d908101601f19168201604052611422919081019061283b565b81526020810193909352604090920152949350505050565b6060808383905060405190808252806020026020018201604052801561147a57816020015b61146761221f565b81526020019060019003908161145f5790505b50905060005b838110156115ed57606080606080896001600160a01b031663328dd9828a8a888181106114a957fe5b905060200201356040518263ffffffff1660e01b81526004016114cc9190613664565b60006040518083038186803b1580156114e457600080fd5b505afa1580156114f8573d6000803e3d6000fd5b505050506040513d6000823e601f3d908101601f1916820160405261152091908101906126ea565b9350935093509350604051806101a001604052806000815260200160006001600160a01b031681526020016000815260200185815260200184815260200183815260200182815260200160008152602001600081526020016000815260200160008152602001600015158152602001600015158152508686815181106115a257fe5b60200260200101819052506115dd8686815181106115bc57fe5b60200260200101518b8b8b898181106115d157fe5b90506020020135611f8a565b5050600190920191506114809050565b50949350505050565b606060008251905060608160405190808252806020026020018201604052801561163a57816020015b611627612294565b81526020019060019003908161161f5790505b50905060005b8281101561032b576116506122bb565b876001600160a01b031663e23a9a5287848151811061166b57fe5b6020026020010151896040518363ffffffff1660e01b8152600401611691929190613672565b60606040518083038186803b1580156116a957600080fd5b505afa1580156116bd573d6000803e3d6000fd5b505050506040513d601f19601f820116820180604052506116e19190810190612aa2565b905060405180608001604052808784815181106116fa57fe5b6020026020010151815260200182600001511515815260200182602001511515815260200182604001516001600160601b031681525083838151811061173c57fe5b602090810291909101015250600101611640565b6117586120b0565b6040516370a0823160e01b81526000906001600160a01b038516906370a0823190611787908690600401613543565b60206040518083038186803b15801561179f57600080fd5b505afa1580156117b3573d6000803e3d6000fd5b505050506040513d601f19601f820116820180604052506117d79190810190612ac0565b90506000846001600160a01b03166317bfdfbc856040518263ffffffff1660e01b81526004016118079190613543565b602060405180830381600087803b15801561182157600080fd5b505af1158015611835573d6000803e3d6000fd5b505050506040513d601f19601f820116820180604052506118599190810190612ac0565b90506000856001600160a01b0316633af9e669866040518263ffffffff1660e01b81526004016118899190613543565b602060405180830381600087803b1580156118a357600080fd5b505af11580156118b7573d6000803e3d6000fd5b505050506040513d601f19601f820116820180604052506118db9190810190612ac0565b905060008061191c886001600160a01b03166395d89b416040518163ffffffff1660e01b815260040160006040518083038186803b1580156104ec57600080fd5b156119365750506001600160a01b03851680319031611ab3565b60008890506000816001600160a01b0316636f307dc36040518163ffffffff1660e01b815260040160206040518083038186803b15801561197657600080fd5b505afa15801561198a573d6000803e3d6000fd5b505050506040513d601f19601f820116820180604052506119ae91908101906126c4565b6040516370a0823160e01b81529091506001600160a01b038216906370a08231906119dd908c90600401613543565b60206040518083038186803b1580156119f557600080fd5b505afa158015611a09573d6000803e3d6000fd5b505050506040513d601f19601f82011682018060405250611a2d9190810190612ac0565b604051636eb1769f60e11b81529094506001600160a01b0382169063dd62ed3e90611a5e908c908e90600401613551565b60206040518083038186803b158015611a7657600080fd5b505afa158015611a8a573d6000803e3d6000fd5b505050506040513d601f19601f82011682018060405250611aae9190810190612ac0565b925050505b6040805160c0810182526001600160a01b039990991689526020890195909552938701929092526060860152608085015260a08401525090919050565b611af86121a3565b6000826001600160a01b0316635fe3b5676040518163ffffffff1660e01b815260040160206040518083038186803b158015611b3357600080fd5b505afa158015611b47573d6000803e3d6000fd5b505050506040513d601f19601f82011682018060405250611b6b91908101906129a1565b90506000816001600160a01b0316637dc0d1d06040518163ffffffff1660e01b815260040160206040518083038186803b158015611ba857600080fd5b505afa158015611bbc573d6000803e3d6000fd5b505050506040513d601f19601f82011682018060405250611be091908101906129a1565b90506040518060400160405280856001600160a01b03168152602001826001600160a01b031663fc57d4df876040518263ffffffff1660e01b8152600401611c2891906135ed565b60206040518083038186803b158015611c4057600080fd5b505afa158015611c54573d6000803e3d6000fd5b505050506040513d601f19601f82011682018060405250611c789190810190612ac0565b9052949350505050565b600080846001600160a01b03166370a08231846040518263ffffffff1660e01b8152600401611cb19190613535565b60206040518083038186803b158015611cc957600080fd5b505afa158015611cdd573d6000803e3d6000fd5b505050506040513d601f19601f82011682018060405250611d019190810190612ac0565b6040516374d7814960e11b81529092506001600160a01b0385169063e9af029290611d30908690600401613535565b600060405180830381600087803b158015611d4a57600080fd5b505af1158015611d5e573d6000803e3d6000fd5b50506040516370a0823160e01b8152600092506001600160a01b03881691506370a0823190611d91908790600401613535565b60206040518083038186803b158015611da957600080fd5b505afa158015611dbd573d6000803e3d6000fd5b505050506040513d601f19601f82011682018060405250611de19190810190612ac0565b90506000856001600160a01b031663cc7ebdc4866040518263ffffffff1660e01b8152600401611e119190613535565b60206040518083038186803b158015611e2957600080fd5b505afa158015611e3d573d6000803e3d6000fd5b505050506040513d601f19601f82011682018060405250611e619190810190612ac0565b90506000611e9682846040518060400160405280600e81526020016d1cdd5b4818dbdb5c081d1bdd185b60921b815250611f2e565b9050611ec881866040518060400160405280600d81526020016c1cdd5888185b1b1bd8d85d1959609a1b815250611f5e565b9350505050935093915050565b600081604051602001611ee89190613529565b6040516020818303038152906040528051906020012083604051602001611f0f9190613529565b6040516020818303038152906040528051906020012014905092915050565b600083830182858210156115ed5760405162461bcd60e51b8152600401611f5591906135fb565b60405180910390fd5b60008184841115611f825760405162461bcd60e51b8152600401611f5591906135fb565b505050900390565b600080600080600080600080896001600160a01b031663013cf08b8a6040518263ffffffff1660e01b8152600401611fc29190613664565b6101206040518083038186803b158015611fdb57600080fd5b505afa158015611fef573d6000803e3d6000fd5b505050506040513d601f19601f820116820180604052506120139190810190612ade565b9850985098509850985098509850985050888b6000018181525050878b602001906001600160a01b031690816001600160a01b031681525050868b6040018181525050858b60e0018181525050848b610100018181525050838b610120018181525050828b610140018181525050818b610160019015159081151581525050808b6101800190151590811515815250505050505050505050505050565b6040518060c0016040528060006001600160a01b0316815260200160008152602001600081526020016000815260200160008152602001600081525090565b604051806101c0016040528060006001600160a01b0316815260200160008152602001600081526020016000815260200160008152602001600081526020016000815260200160008152602001600081526020016000151581526020016000815260200160006001600160a01b0316815260200160008152602001600081525090565b6040518060800160405280600081526020016000815260200160006001600160a01b03168152602001600081525090565b604080518082019091526000808252602082015290565b6040518060600160405280600081526020016000815260200160006001600160a01b031681525090565b604051806040016040528060008152602001600081525090565b60405180606001604052806060815260200160008152602001600081525090565b604051806101a001604052806000815260200160006001600160a01b031681526020016000815260200160608152602001606081526020016060815260200160608152602001600081526020016000815260200160008152602001600081526020016000151581526020016000151581525090565b60408051608081018252600080825260208201819052918101829052606081019190915290565b604080516060810182526000808252602082018190529181019190915290565b8035610ed881613864565b8051610ed881613864565b600082601f83011261230257600080fd5b815161231561231082613774565b61374e565b9150818183526020840193506020810190508385602084028201111561233a57600080fd5b60005b83811015612366578161235088826122e6565b845250602092830192919091019060010161233d565b5050505092915050565b600082601f83011261238157600080fd5b815161238f61231082613774565b81815260209384019390925082018360005b8381101561236657815186016123b788826125cd565b84525060209283019291909101906001016123a1565b60008083601f8401126123df57600080fd5b5081356001600160401b038111156123f657600080fd5b60208301915083602082028301111561240e57600080fd5b9250929050565b600082601f83011261242657600080fd5b815161243461231082613774565b9150818183526020840193506020810190508385602084028201111561245957600080fd5b60005b83811015612366578161246f8882612627565b845250602092830192919091019060010161245c565b600082601f83011261249657600080fd5b81516124a461231082613774565b81815260209384019390925082018360005b8381101561236657815186016124cc88826125cd565b84525060209283019291909101906001016124b6565b600082601f8301126124f357600080fd5b813561250161231082613774565b9150818183526020840193506020810190508385602084028201111561252657600080fd5b60005b83811015612366578161253c888261268d565b8452506020928301929190910190600101612529565b600082601f83011261256357600080fd5b815161257161231082613774565b9150818183526020840193506020810190508385602084028201111561259657600080fd5b60005b8381101561236657816125ac8882612698565b8452506020928301929190910190600101612599565b8051610ed88161387b565b600082601f8301126125de57600080fd5b81516125ec61231082613794565b9150808252602083016020830185838301111561260857600080fd5b61261383828461382e565b50505092915050565b8035610ed881613884565b8051610ed881613884565b60006060828403121561264457600080fd5b61264e606061374e565b9050600061265c84846125c2565b825250602061266d848483016125c2565b6020830152506040612681848285016126b9565b60408301525092915050565b8035610ed88161388d565b8051610ed88161388d565b8035610ed881613896565b8051610ed88161389f565b8051610ed8816138a8565b6000602082840312156126d657600080fd5b60006126e284846122e6565b949350505050565b6000806000806080858703121561270057600080fd5b84516001600160401b0381111561271657600080fd5b612722878288016122f1565b94505060208501516001600160401b0381111561273e57600080fd5b61274a87828801612552565b93505060408501516001600160401b0381111561276657600080fd5b61277287828801612485565b92505060608501516001600160401b0381111561278e57600080fd5b61279a87828801612370565b91505092959194509250565b600080602083850312156127b957600080fd5b82356001600160401b038111156127cf57600080fd5b6127db858286016123cd565b92509250509250929050565b6000806000604084860312156127fc57600080fd5b83356001600160401b0381111561281257600080fd5b61281e868287016123cd565b93509350506020612831868287016122db565b9150509250925092565b60006020828403121561284d57600080fd5b81516001600160401b0381111561286357600080fd5b6126e284828501612415565b6000806040838503121561288257600080fd5b600061288e85856125c2565b925050602061289f85828601612698565b9150509250929050565b6000602082840312156128bb57600080fd5b60006126e2848461261c565b600080604083850312156128da57600080fd5b60006128e6858561261c565b925050602061289f858286016122db565b6000806000806060858703121561290d57600080fd5b6000612919878761261c565b945050602061292a878288016122db565b93505060408501356001600160401b0381111561294657600080fd5b612952878288016123cd565b95989497509550505050565b60008060006060848603121561297357600080fd5b600061297f868661261c565b93505060206129908682870161261c565b9250506040612831868287016122db565b6000602082840312156129b357600080fd5b60006126e28484612627565b6000806000606084860312156129d457600080fd5b60006129e0868661261c565b93505060206129f1868287016122db565b92505060408401356001600160401b03811115612a0d57600080fd5b612831868287016124e2565b600080600060408486031215612a2e57600080fd5b6000612a3a868661261c565b93505060208401356001600160401b03811115612a5657600080fd5b612a62868287016123cd565b92509250509250925092565b600060208284031215612a8057600080fd5b81516001600160401b03811115612a9657600080fd5b6126e2848285016125cd565b600060608284031215612ab457600080fd5b60006126e28484612632565b600060208284031215612ad257600080fd5b60006126e28484612698565b60008060008060008060008060006101208a8c031215612afd57600080fd5b6000612b098c8c612698565b9950506020612b1a8c828d016122e6565b9850506040612b2b8c828d01612698565b9750506060612b3c8c828d01612698565b9650506080612b4d8c828d01612698565b95505060a0612b5e8c828d01612698565b94505060c0612b6f8c828d01612698565b93505060e0612b808c828d016125c2565b925050610100612b928c828d016125c2565b9150509295985092959850929598565b600080600060608486031215612bb757600080fd5b6000612bc38686612698565b9350506020612bd486828701612698565b925050604061283186828701612698565b600060208284031215612bf757600080fd5b60006126e284846126a3565b600060208284031215612c1557600080fd5b60006126e284846126ae565b600060208284031215612c3357600080fd5b60006126e284846126b9565b6000612c4b8383612cef565b505060200190565b600061033083836130ac565b6000612c4b83836130e4565b6000612c778383613164565b505060c00190565b6000612c8b83836131da565b50506101c00190565b6000612ca083836132ef565b505060400190565b6000612ca08383613394565b600061033083836133a5565b6000612ccc83836134c4565b505060800190565b6000612c4b838361350e565b612ce981613818565b82525050565b612ce9816137d3565b6000612d03826137c1565b612d0d81856137c5565b9350612d18836137bb565b8060005b83811015612d46578151612d308882612c3f565b9750612d3b836137bb565b925050600101612d1c565b509495945050505050565b6000612d5c826137c1565b612d6681856137c5565b935083602082028501612d78856137bb565b8060005b85811015612db25784840389528151612d958582612c53565b9450612da0836137bb565b60209a909a0199925050600101612d7c565b5091979650505050505050565b6000612dca826137c1565b612dd481856137c5565b9350612ddf836137bb565b8060005b83811015612d46578151612df78882612c5f565b9750612e02836137bb565b925050600101612de3565b6000612e18826137c1565b612e2281856137c5565b935083602082028501612e34856137bb565b8060005b85811015612db25784840389528151612e518582612c53565b9450612e5c836137bb565b60209a909a0199925050600101612e38565b6000612e79826137c1565b612e8381856137c5565b9350612e8e836137bb565b8060005b83811015612d46578151612ea68882612c6b565b9750612eb1836137bb565b925050600101612e92565b6000612ec7826137c1565b612ed181856137c5565b9350612edc836137bb565b8060005b83811015612d46578151612ef48882612c7f565b9750612eff836137bb565b925050600101612ee0565b6000612f15826137c1565b612f1f81856137c5565b9350612f2a836137bb565b8060005b83811015612d46578151612f428882612c94565b9750612f4d836137bb565b925050600101612f2e565b6000612f63826137c1565b612f6d81856137c5565b9350612f78836137bb565b8060005b83811015612d46578151612f908882612ca8565b9750612f9b836137bb565b925050600101612f7c565b6000612fb1826137c1565b612fbb81856137c5565b935083602082028501612fcd856137bb565b8060005b85811015612db25784840389528151612fea8582612cb4565b9450612ff5836137bb565b60209a909a0199925050600101612fd1565b6000613012826137c1565b61301c81856137c5565b9350613027836137bb565b8060005b83811015612d4657815161303f8882612cc0565b975061304a836137bb565b92505060010161302b565b6000613060826137c1565b61306a81856137c5565b9350613075836137bb565b8060005b83811015612d4657815161308d8882612cd4565b9750613098836137bb565b925050600101613079565b612ce9816137de565b60006130b7826137c1565b6130c181856137c5565b93506130d181856020860161382e565b6130da8161385a565b9093019392505050565b612ce9816137e3565b60006130f8826137c1565b61310281856137ce565b935061311281856020860161382e565b9290920192915050565b80516060808452600091908401906131348282612dbf565b9150506020830151613149602086018261350e565b50604083015161315c604086018261350e565b509392505050565b805160c08301906131758482612cef565b506020820151613188602085018261350e565b50604082015161319b604085018261350e565b5060608201516131ae606085018261350e565b5060808201516131c1608085018261350e565b5060a08201516131d460a085018261350e565b50505050565b80516101c08301906131ec8482612cef565b5060208201516131ff602085018261350e565b506040820151613212604085018261350e565b506060820151613225606085018261350e565b506080820151613238608085018261350e565b5060a082015161324b60a085018261350e565b5060c082015161325e60c085018261350e565b5060e082015161327160e085018261350e565b5061010082015161328661010085018261350e565b5061012082015161329b6101208501826130a3565b506101408201516132b061014085018261350e565b506101608201516132c5610160850182612cef565b506101808201516132da61018085018261350e565b506101a08201516131d46101a085018261350e565b805160408301906133008482612cef565b5060208201516131d4602085018261350e565b80516080830190613324848261350e565b506020820151613337602085018261350e565b50604082015161334a6040850182612cef565b5060608201516131d4606085018261350e565b8051606083019061336e848261350e565b506020820151613381602085018261350e565b5060408201516131d46040850182612cef565b80516040830190613300848261350e565b80516000906101a08401906133ba858261350e565b5060208301516133cd6020860182612cef565b5060408301516133e0604086018261350e565b50606083015184820360608601526133f88282612cf8565b915050608083015184820360808601526134128282613055565b91505060a083015184820360a086015261342c8282612e0d565b91505060c083015184820360c08601526134468282612d51565b91505060e083015161345b60e086018261350e565b5061010083015161347061010086018261350e565b5061012083015161348561012086018261350e565b5061014083015161349a61014086018261350e565b506101608301516134af6101608601826130a3565b5061018083015161315c6101808601826130a3565b805160808301906134d5848261350e565b5060208201516134e860208501826130a3565b5060408201516134fb60408501826130a3565b5060608201516131d46060850182613520565b612ce9816137fa565b612ce981613823565b612ce98161380c565b600061033082846130ed565b60208101610ed88284612cef565b60208101610ed88284612ce0565b6040810161355f8285612ce0565b6103306020830184612cef565b6040810161357a8285612cef565b6103306020830184613517565b602080825281016103308184612e6e565b602080825281016103308184612ebc565b602080825281016103308184612f0a565b602080825281016103308184612f58565b602080825281016103308184612fa6565b602080825281016103308184613007565b60208101610ed882846130e4565b6020808252810161033081846130ac565b60208082528101610330818461311c565b60c08101610ed88284613164565b6101c08101610ed882846131da565b60408101610ed882846132ef565b60808101610ed88284613313565b60608101610ed8828461335d565b60208101610ed8828461350e565b6040810161355f828561350e565b6040810161368e828561350e565b610330602083018461350e565b61018081016136aa828f61350e565b6136b7602083018e61350e565b6136c4604083018d61350e565b6136d1606083018c61350e565b6136de608083018b61350e565b6136eb60a083018a61350e565b6136f860c083018961350e565b61370560e083018861350e565b6137136101008301876130a3565b61372161012083018661350e565b61372f610140830185612cef565b61373d61016083018461350e565b9d9c50505050505050505050505050565b6040518181016001600160401b038111828210171561376c57600080fd5b604052919050565b60006001600160401b0382111561378a57600080fd5b5060209081020190565b60006001600160401b038211156137aa57600080fd5b506020601f91909101601f19160190565b60200190565b5190565b90815260200190565b919050565b6000610ed8826137ee565b151590565b6000610ed8826137d3565b6001600160a01b031690565b90565b63ffffffff1690565b60ff1690565b6001600160601b031690565b6000610ed8826137e3565b6000610ed8826137fd565b60005b83811015613849578181015183820152602001613831565b838111156131d45750506000910152565b601f01601f191690565b61386d816137d3565b811461387857600080fd5b50565b61386d816137de565b61386d816137e3565b61386d816137fa565b61386d816137fd565b61386d81613806565b61386d8161380c56fea365627a7a7231582085ae1f83ebb5a09c885d124fd8003534ef432c65576ae94730af9e71967a418a6c6578706572696d656e74616cf564736f6c63430005100040",
  "source": "pragma solidity ^0.5.16;\npragma experimental ABIEncoderV2;\n\nimport \"../CErc20.sol\";\nimport \"../CToken.sol\";\nimport \"../PriceOracle.sol\";\nimport \"../EIP20Interface.sol\";\nimport \"../Governance/GovernorAlpha.sol\";\nimport \"../Governance/Comp.sol\";\n\ninterface ComptrollerLensInterface {\n    function markets(address) external view returns (bool, uint);\n    function oracle() external view returns (PriceOracle);\n    function getAccountLiquidity(address) external view returns (uint, uint, uint);\n    function getAssetsIn(address) external view returns (CToken[] memory);\n    function claimComp(address) external;\n    function compAccrued(address) external view returns (uint);\n}\n\ncontract CompoundLens {\n    struct CTokenMetadata {\n        address cToken;\n        uint exchangeRateCurrent;\n        uint supplyRatePerBlock;\n        uint borrowRatePerBlock;\n        uint reserveFactorMantissa;\n        uint totalBorrows;\n        uint totalReserves;\n        uint totalSupply;\n        uint totalCash;\n        bool isListed;\n        uint collateralFactorMantissa;\n        address underlyingAssetAddress;\n        uint cTokenDecimals;\n        uint underlyingDecimals;\n    }\n\n    function cTokenMetadataExpand(CToken cToken) public returns (\n        uint exchangeRateCurrent,\n        uint supplyRatePerBlock,\n        uint borrowRatePerBlock,\n        uint reserveFactorMantissa,\n        uint totalBorrows,\n        uint totalReserves, uint totalSupply, uint totalCash,\n        bool isListed, uint collateralFactorMantissa, address underlyingAssetAddress,\n        uint underlyingDecimals) {\n        CTokenMetadata memory cTokenData = cTokenMetadata(cToken);\n        exchangeRateCurrent = cTokenData.exchangeRateCurrent;\n        supplyRatePerBlock = cTokenData.supplyRatePerBlock;\n        borrowRatePerBlock = cTokenData.borrowRatePerBlock;\n        reserveFactorMantissa = cTokenData.reserveFactorMantissa;\n        totalBorrows = cTokenData.totalBorrows;\n        totalReserves = cTokenData.totalReserves;\n        totalSupply = cTokenData.totalSupply;\n        totalCash = cTokenData.totalCash;\n        isListed = cTokenData.isListed;\n        collateralFactorMantissa = cTokenData.collateralFactorMantissa;\n        underlyingAssetAddress = cTokenData.underlyingAssetAddress;\n        underlyingDecimals = cTokenData.underlyingDecimals;\n    }\n\n    function cTokenMetadata(CToken cToken) public returns (CTokenMetadata memory) {\n        uint exchangeRateCurrent = cToken.exchangeRateCurrent();\n        ComptrollerLensInterface comptroller = ComptrollerLensInterface(address(cToken.comptroller()));\n        (bool isListed, uint collateralFactorMantissa) = comptroller.markets(address(cToken));\n        address underlyingAssetAddress;\n        uint underlyingDecimals;\n\n        if (compareStrings(cToken.symbol(), \"cETH\")) {\n            underlyingAssetAddress = address(0);\n            underlyingDecimals = 18;\n        } else {\n            CErc20 cErc20 = CErc20(address(cToken));\n            underlyingAssetAddress = cErc20.underlying();\n            underlyingDecimals = EIP20Interface(cErc20.underlying()).decimals();\n        }\n\n        return CTokenMetadata({\n            cToken: address(cToken),\n            exchangeRateCurrent: exchangeRateCurrent,\n            supplyRatePerBlock: cToken.supplyRatePerBlock(),\n            borrowRatePerBlock: cToken.borrowRatePerBlock(),\n            reserveFactorMantissa: cToken.reserveFactorMantissa(),\n            totalBorrows: cToken.totalBorrows(),\n            totalReserves: cToken.totalReserves(),\n            totalSupply: cToken.totalSupply(),\n            totalCash: cToken.getCash(),\n            isListed: isListed,\n            collateralFactorMantissa: collateralFactorMantissa,\n            underlyingAssetAddress: underlyingAssetAddress,\n            cTokenDecimals: cToken.decimals(),\n            underlyingDecimals: underlyingDecimals\n        });\n    }\n\n    function cTokenMetadataAll(CToken[] calldata cTokens) external returns (CTokenMetadata[] memory) {\n        uint cTokenCount = cTokens.length;\n        CTokenMetadata[] memory res = new CTokenMetadata[](cTokenCount);\n        for (uint i = 0; i < cTokenCount; i++) {\n            res[i] = cTokenMetadata(cTokens[i]);\n        }\n        return res;\n    }\n\n    struct CTokenBalances {\n        address cToken;\n        uint balanceOf;\n        uint borrowBalanceCurrent;\n        uint balanceOfUnderlying;\n        uint tokenBalance;\n        uint tokenAllowance;\n    }\n\n    function cTokenBalances(CToken cToken, address payable account) public returns (CTokenBalances memory) {\n        uint balanceOf = cToken.balanceOf(account);\n        uint borrowBalanceCurrent = cToken.borrowBalanceCurrent(account);\n        uint balanceOfUnderlying = cToken.balanceOfUnderlying(account);\n        uint tokenBalance;\n        uint tokenAllowance;\n\n        if (compareStrings(cToken.symbol(), \"cETH\")) {\n            tokenBalance = account.balance;\n            tokenAllowance = account.balance;\n        } else {\n            CErc20 cErc20 = CErc20(address(cToken));\n            EIP20Interface underlying = EIP20Interface(cErc20.underlying());\n            tokenBalance = underlying.balanceOf(account);\n            tokenAllowance = underlying.allowance(account, address(cToken));\n        }\n\n        return CTokenBalances({\n            cToken: address(cToken),\n            balanceOf: balanceOf,\n            borrowBalanceCurrent: borrowBalanceCurrent,\n            balanceOfUnderlying: balanceOfUnderlying,\n            tokenBalance: tokenBalance,\n            tokenAllowance: tokenAllowance\n        });\n    }\n\n    function cTokenBalancesAll(CToken[] calldata cTokens, address payable account) external returns (CTokenBalances[] memory) {\n        uint cTokenCount = cTokens.length;\n        CTokenBalances[] memory res = new CTokenBalances[](cTokenCount);\n        for (uint i = 0; i < cTokenCount; i++) {\n            res[i] = cTokenBalances(cTokens[i], account);\n        }\n        return res;\n    }\n\n    struct CTokenUnderlyingPrice {\n        address cToken;\n        uint underlyingPrice;\n    }\n\n    function cTokenUnderlyingPrice(CToken cToken) public view returns (CTokenUnderlyingPrice memory) {\n        ComptrollerLensInterface comptroller = ComptrollerLensInterface(address(cToken.comptroller()));\n        PriceOracle priceOracle = comptroller.oracle();\n\n        return CTokenUnderlyingPrice({\n            cToken: address(cToken),\n            underlyingPrice: priceOracle.getUnderlyingPrice(cToken)\n        });\n    }\n\n    function cTokenUnderlyingPriceAll(CToken[] calldata cTokens) external view returns (CTokenUnderlyingPrice[] memory) {\n        uint cTokenCount = cTokens.length;\n        CTokenUnderlyingPrice[] memory res = new CTokenUnderlyingPrice[](cTokenCount);\n        for (uint i = 0; i < cTokenCount; i++) {\n            res[i] = cTokenUnderlyingPrice(cTokens[i]);\n        }\n        return res;\n    }\n\n    struct AccountLimits {\n        CToken[] markets;\n        uint liquidity;\n        uint shortfall;\n    }\n\n    function getAccountLimits(ComptrollerLensInterface comptroller, address account) public view returns (AccountLimits memory) {\n        (uint errorCode, uint liquidity, uint shortfall) = comptroller.getAccountLiquidity(account);\n        require(errorCode == 0);\n\n        return AccountLimits({\n            markets: comptroller.getAssetsIn(account),\n            liquidity: liquidity,\n            shortfall: shortfall\n        });\n    }\n\n    struct GovReceipt {\n        uint proposalId;\n        bool hasVoted;\n        bool support;\n        uint96 votes;\n    }\n\n    function getGovReceipts(GovernorAlpha governor, address voter, uint[] memory proposalIds) public view returns (GovReceipt[] memory) {\n        uint proposalCount = proposalIds.length;\n        GovReceipt[] memory res = new GovReceipt[](proposalCount);\n        for (uint i = 0; i < proposalCount; i++) {\n            GovernorAlpha.Receipt memory receipt = governor.getReceipt(proposalIds[i], voter);\n            res[i] = GovReceipt({\n                proposalId: proposalIds[i],\n                hasVoted: receipt.hasVoted,\n                support: receipt.support,\n                votes: receipt.votes\n            });\n        }\n        return res;\n    }\n\n    struct GovProposal {\n        uint proposalId;\n        address proposer;\n        uint eta;\n        address[] targets;\n        uint[] values;\n        string[] signatures;\n        bytes[] calldatas;\n        uint startBlock;\n        uint endBlock;\n        uint forVotes;\n        uint againstVotes;\n        bool canceled;\n        bool executed;\n    }\n\n    function setProposal(GovProposal memory res, GovernorAlpha governor, uint proposalId) internal view {\n        (\n            ,\n            address proposer,\n            uint eta,\n            uint startBlock,\n            uint endBlock,\n            uint forVotes,\n            uint againstVotes,\n            bool canceled,\n            bool executed\n        ) = governor.proposals(proposalId);\n        res.proposalId = proposalId;\n        res.proposer = proposer;\n        res.eta = eta;\n        res.startBlock = startBlock;\n        res.endBlock = endBlock;\n        res.forVotes = forVotes;\n        res.againstVotes = againstVotes;\n        res.canceled = canceled;\n        res.executed = executed;\n    }\n\n    function getGovProposals(GovernorAlpha governor, uint[] calldata proposalIds) external view returns (GovProposal[] memory) {\n        GovProposal[] memory res = new GovProposal[](proposalIds.length);\n        for (uint i = 0; i < proposalIds.length; i++) {\n            (\n                address[] memory targets,\n                uint[] memory values,\n                string[] memory signatures,\n                bytes[] memory calldatas\n            ) = governor.getActions(proposalIds[i]);\n            res[i] = GovProposal({\n                proposalId: 0,\n                proposer: address(0),\n                eta: 0,\n                targets: targets,\n                values: values,\n                signatures: signatures,\n                calldatas: calldatas,\n                startBlock: 0,\n                endBlock: 0,\n                forVotes: 0,\n                againstVotes: 0,\n                canceled: false,\n                executed: false\n            });\n            setProposal(res[i], governor, proposalIds[i]);\n        }\n        return res;\n    }\n\n    struct CompBalanceMetadata {\n        uint balance;\n        uint votes;\n        address delegate;\n    }\n\n    function getCompBalanceMetadata(Comp comp, address account) external view returns (CompBalanceMetadata memory) {\n        return CompBalanceMetadata({\n            balance: comp.balanceOf(account),\n            votes: uint256(comp.getCurrentVotes(account)),\n            delegate: comp.delegates(account)\n        });\n    }\n\n    struct CompBalanceMetadataExt {\n        uint balance;\n        uint votes;\n        address delegate;\n        uint allocated;\n    }\n\n    function getCompBalanceMetadataExt(Comp comp, ComptrollerLensInterface comptroller, address account) external returns (CompBalanceMetadataExt memory) {\n        uint balance = comp.balanceOf(account);\n        comptroller.claimComp(account);\n        uint newBalance = comp.balanceOf(account);\n        uint accrued = comptroller.compAccrued(account);\n        uint total = add(accrued, newBalance, \"sum comp total\");\n        uint allocated = sub(total, balance, \"sub allocated\");\n\n        return CompBalanceMetadataExt({\n            balance: balance,\n            votes: uint256(comp.getCurrentVotes(account)),\n            delegate: comp.delegates(account),\n            allocated: allocated\n        });\n    }\n\n    function getCompBalanceWithAccrued(Comp comp, ComptrollerLensInterface comptroller, address account) external returns (uint balance, uint allocated) {\n        balance = comp.balanceOf(account);\n        comptroller.claimComp(account);\n        uint newBalance = comp.balanceOf(account);\n        uint accrued = comptroller.compAccrued(account);\n        uint total = add(accrued, newBalance, \"sum comp total\");\n        allocated = sub(total, balance, \"sub allocated\");\n    }\n\n    struct CompVotes {\n        uint blockNumber;\n        uint votes;\n    }\n\n    function getCompVotes(Comp comp, address account, uint32[] calldata blockNumbers) external view returns (CompVotes[] memory) {\n        CompVotes[] memory res = new CompVotes[](blockNumbers.length);\n        for (uint i = 0; i < blockNumbers.length; i++) {\n            res[i] = CompVotes({\n                blockNumber: uint256(blockNumbers[i]),\n                votes: uint256(comp.getPriorVotes(account, blockNumbers[i]))\n            });\n        }\n        return res;\n    }\n\n    function compareStrings(string memory a, string memory b) internal pure returns (bool) {\n        return (keccak256(abi.encodePacked((a))) == keccak256(abi.encodePacked((b))));\n    }\n\n    function add(uint a, uint b, string memory errorMessage) internal pure returns (uint) {\n        uint c = a + b;\n        require(c >= a, errorMessage);\n        return c;\n    }\n\n    function sub(uint a, uint b, string memory errorMessage) internal pure returns (uint) {\n        require(b <= a, errorMessage);\n        uint c = a - b;\n        return c;\n    }\n}\n",
  "sourcePath": "/Users/ashton/repo/blockchain/eth/smartcontracts/quicksilver-protocol/contracts/compound/Lens/CompoundLens.sol",
  "compiler": {
    "name": "solc",
    "version": "0.5.16+commit.9c3226ce.Emscripten.clang"
  },
  "schemaVersion": "3.2.0",
  "updatedAt": "2021-03-15T03:38:48.007Z",
  "devdoc": {
    "methods": {}
  },
  "userdoc": {
    "methods": {}
  }
}