{
  "contractName": "DAIInterestRateModelV2",
  "abi": [
    {
      "inputs": [
        {
          "internalType": "uint256",
          "name": "jumpMultiplierPerYear",
          "type": "uint256"
        },
        {
          "internalType": "uint256",
          "name": "kink_",
          "type": "uint256"
        },
        {
          "internalType": "address",
          "name": "pot_",
          "type": "address"
        },
        {
          "internalType": "address",
          "name": "jug_",
          "type": "address"
        }
      ],
      "payable": false,
      "stateMutability": "nonpayable",
      "type": "constructor"
    },
    {
      "anonymous": false,
      "inputs": [
        {
          "indexed": false,
          "internalType": "uint256",
          "name": "baseRatePerBlock",
          "type": "uint256"
        },
        {
          "indexed": false,
          "internalType": "uint256",
          "name": "multiplierPerBlock",
          "type": "uint256"
        },
        {
          "indexed": false,
          "internalType": "uint256",
          "name": "jumpMultiplierPerBlock",
          "type": "uint256"
        },
        {
          "indexed": false,
          "internalType": "uint256",
          "name": "kink",
          "type": "uint256"
        }
      ],
      "name": "NewInterestParams",
      "type": "event"
    },
    {
      "constant": true,
      "inputs": [],
      "name": "assumedOneMinusReserveFactorMantissa",
      "outputs": [
        {
          "internalType": "uint256",
          "name": "",
          "type": "uint256"
        }
      ],
      "payable": false,
      "stateMutability": "view",
      "type": "function"
    },
    {
      "constant": true,
      "inputs": [],
      "name": "baseRatePerBlock",
      "outputs": [
        {
          "internalType": "uint256",
          "name": "",
          "type": "uint256"
        }
      ],
      "payable": false,
      "stateMutability": "view",
      "type": "function"
    },
    {
      "constant": true,
      "inputs": [],
      "name": "blocksPerYear",
      "outputs": [
        {
          "internalType": "uint256",
          "name": "",
          "type": "uint256"
        }
      ],
      "payable": false,
      "stateMutability": "view",
      "type": "function"
    },
    {
      "constant": true,
      "inputs": [],
      "name": "gapPerBlock",
      "outputs": [
        {
          "internalType": "uint256",
          "name": "",
          "type": "uint256"
        }
      ],
      "payable": false,
      "stateMutability": "view",
      "type": "function"
    },
    {
      "constant": true,
      "inputs": [
        {
          "internalType": "uint256",
          "name": "cash",
          "type": "uint256"
        },
        {
          "internalType": "uint256",
          "name": "borrows",
          "type": "uint256"
        },
        {
          "internalType": "uint256",
          "name": "reserves",
          "type": "uint256"
        }
      ],
      "name": "getBorrowRate",
      "outputs": [
        {
          "internalType": "uint256",
          "name": "",
          "type": "uint256"
        }
      ],
      "payable": false,
      "stateMutability": "view",
      "type": "function"
    },
    {
      "constant": true,
      "inputs": [],
      "name": "isInterestRateModel",
      "outputs": [
        {
          "internalType": "bool",
          "name": "",
          "type": "bool"
        }
      ],
      "payable": false,
      "stateMutability": "view",
      "type": "function"
    },
    {
      "constant": true,
      "inputs": [],
      "name": "jumpMultiplierPerBlock",
      "outputs": [
        {
          "internalType": "uint256",
          "name": "",
          "type": "uint256"
        }
      ],
      "payable": false,
      "stateMutability": "view",
      "type": "function"
    },
    {
      "constant": true,
      "inputs": [],
      "name": "kink",
      "outputs": [
        {
          "internalType": "uint256",
          "name": "",
          "type": "uint256"
        }
      ],
      "payable": false,
      "stateMutability": "view",
      "type": "function"
    },
    {
      "constant": true,
      "inputs": [],
      "name": "multiplierPerBlock",
      "outputs": [
        {
          "internalType": "uint256",
          "name": "",
          "type": "uint256"
        }
      ],
      "payable": false,
      "stateMutability": "view",
      "type": "function"
    },
    {
      "constant": true,
      "inputs": [
        {
          "internalType": "uint256",
          "name": "cash",
          "type": "uint256"
        },
        {
          "internalType": "uint256",
          "name": "borrows",
          "type": "uint256"
        },
        {
          "internalType": "uint256",
          "name": "reserves",
          "type": "uint256"
        }
      ],
      "name": "utilizationRate",
      "outputs": [
        {
          "internalType": "uint256",
          "name": "",
          "type": "uint256"
        }
      ],
      "payable": false,
      "stateMutability": "pure",
      "type": "function"
    },
    {
      "constant": true,
      "inputs": [
        {
          "internalType": "uint256",
          "name": "cash",
          "type": "uint256"
        },
        {
          "internalType": "uint256",
          "name": "borrows",
          "type": "uint256"
        },
        {
          "internalType": "uint256",
          "name": "reserves",
          "type": "uint256"
        },
        {
          "internalType": "uint256",
          "name": "reserveFactorMantissa",
          "type": "uint256"
        }
      ],
      "name": "getSupplyRate",
      "outputs": [
        {
          "internalType": "uint256",
          "name": "",
          "type": "uint256"
        }
      ],
      "payable": false,
      "stateMutability": "view",
      "type": "function"
    },
    {
      "constant": true,
      "inputs": [],
      "name": "dsrPerBlock",
      "outputs": [
        {
          "internalType": "uint256",
          "name": "",
          "type": "uint256"
        }
      ],
      "payable": false,
      "stateMutability": "view",
      "type": "function"
    },
    {
      "constant": false,
      "inputs": [],
      "name": "poke",
      "outputs": [],
      "payable": false,
      "stateMutability": "nonpayable",
      "type": "function"
    }
  ],
  "bytecode": "0x60806040523480156200001157600080fd5b50604051620010aa380380620010aa833981810160405260808110156200003757600080fd5b5080516020808301516040840151606090940151929390929091600090819086908690620000759084906220148090620006c66200015c821b17901c565b6001556200009383622014806200015c602090811b620006c617901c565b600055620000b182622014806200015c602090811b620006c617901c565b60028190556003829055600154600054604080519283526020830191909152818101929092526060810183905290517f6960ab234c7ef4b0c9197100f5393cfcde7c453ac910a27bd2000aa1dd4c068d9181900360800190a15050600480546001600160a01b038087166001600160a01b0319928316179092556005805492861692909116919091179055506200015290506001600160e01b03620001af16565b5050505062000721565b6000620001a683836040518060400160405280601a81526020017f536166654d6174683a206469766973696f6e206279207a65726f0000000000008152506200046360201b60201c565b90505b92915050565b60055460408051636cb1c69b60e11b8152644554482d4160d81b600482015281516000936001600160a01b03169263d9638d369260248082019391829003018186803b158015620001ff57600080fd5b505afa15801562000214573d6000803e3d6000fd5b505050506040513d60408110156200022b57600080fd5b505160055460408051635001f3b560e01b815290519293506000926200032a92600f9262000302926b033b2e3c9fd0803ce8000000926200031692670de0b6b3a76400009286928692620002ee926001600160a01b0390921691635001f3b591600480820192602092909190829003018186803b158015620002ac57600080fd5b505afa158015620002c1573d6000803e3d6000fd5b505050506040513d6020811015620002d857600080fd5b50518b906200050a602090811b6200070517901c565b6200056560201b6200075d1790919060201c565b620005af60201b620006641790919060201c565b6200015c60201b620006c61790919060201c565b905062000359670d2f13f7789f000062000316670de0b6b3a7640000620003026001600160e01b036200060d16565b6001819055811115620003cc57620003c360035462000316670de0b6b3a7640000620003026220148066470de4df820000816200039257fe5b04620003af600154886200056560201b6200075d1790919060201c565b6200050a60201b620007051790919060201c565b6000556200040d565b6200040960035462000316670de0b6b3a76400006220148066470de4df82000081620003f457fe5b04620005af60201b620006641790919060201c565b6000555b600154600054600254600354604080519485526020850193909352838301919091526060830152517f6960ab234c7ef4b0c9197100f5393cfcde7c453ac910a27bd2000aa1dd4c068d9181900360800190a15050565b60008183620004f35760405162461bcd60e51b81526004018080602001828103825283818151815260200191508051906020019080838360005b83811015620004b75781810151838201526020016200049d565b50505050905090810190601f168015620004e55780820380516001836020036101000a031916815260200191505b509250505060405180910390fd5b5060008385816200050057fe5b0495945050505050565b600082820183811015620001a6576040805162461bcd60e51b815260206004820152601b60248201527f536166654d6174683a206164646974696f6e206f766572666c6f770000000000604482015290519081900360640190fd5b6000620001a683836040518060400160405280601f81526020017f536166654d6174683a207375627472616374696f6e20756e646572666c6f7700815250620006c460201b60201c565b600082620005c057506000620001a9565b82820282848281620005ce57fe5b0414620001a65760405162461bcd60e51b8152600401808060200182810382526021815260200180620010896021913960400191505060405180910390fd5b6000620006bf600f62000302633b9aca00620003166b033b2e3c9fd0803ce8000000600460009054906101000a90046001600160a01b03166001600160a01b031663487bf0826040518163ffffffff1660e01b815260040160206040518083038186803b1580156200067e57600080fd5b505afa15801562000693573d6000803e3d6000fd5b505050506040513d6020811015620006aa57600080fd5b50519062000565602090811b6200075d17901c565b905090565b60008184841115620007195760405162461bcd60e51b8152602060048201818152835160248401528351909283926044909101919085019080838360008315620004b75781810151838201526020016200049d565b505050900390565b61095880620007316000396000f3fe608060405234801561001057600080fd5b50600436106100af5760003560e01c806315f24053146100b457806318178358146100ef5780632191f92a146100f95780636dac7cd5146101155780636e71e2d81461011d5780638726bb891461014657806396456c5c1461014e578063a385fb9614610156578063b81688161461015e578063b9f9850a1461018d578063f14039de14610195578063f52d21f31461019d578063fd2da339146101a5575b600080fd5b6100dd600480360360608110156100ca57600080fd5b50803590602081013590604001356101ad565b60408051918252519081900360200190f35b6100f7610285565b005b6101016104ca565b604080519115158252519081900360200190f35b6100dd6104cf565b6100dd6004803603606081101561013357600080fd5b50803590602081013590604001356104db565b6100dd610521565b6100dd610527565b6100dd6105d0565b6100dd6004803603608081101561017457600080fd5b50803590602081013590604081013590606001356105d7565b6100dd610649565b6100dd61064f565b6100dd610655565b6100dd61065e565b6000806101bb8585856104db565b9050600354811161020d576102056001546101f9670de0b6b3a76400006101ed6000548661066490919063ffffffff16565b9063ffffffff6106c616565b9063ffffffff61070516565b91505061027e565b60006102386001546101f9670de0b6b3a76400006101ed60005460035461066490919063ffffffff16565b905060006102516003548461075d90919063ffffffff16565b9050610278826101f9670de0b6b3a76400006101ed6002548661066490919063ffffffff16565b93505050505b9392505050565b60055460408051636cb1c69b60e11b8152644554482d4160d81b600482015281516000936001600160a01b03169263d9638d369260248082019391829003018186803b1580156102d457600080fd5b505afa1580156102e8573d6000803e3d6000fd5b505050506040513d60408110156102fe57600080fd5b505160055460408051635001f3b560e01b815290519293506000926103ca92600f926103be92676765c793fa10079d601b1b926101ed92670de0b6b3a764000092869286926103b2926001600160a01b0390921691635001f3b591600480820192602092909190829003018186803b15801561037957600080fd5b505afa15801561038d573d6000803e3d6000fd5b505050506040513d60208110156103a357600080fd5b50518b9063ffffffff61070516565b9063ffffffff61075d16565b9063ffffffff61066416565b90506103ec670d2f13f7789f00006101ed670de0b6b3a76400006103be610527565b600181905581111561043e576104366003546101ed670de0b6b3a76400006103be6220148066470de4df8200008161042057fe5b046101f96001548861075d90919063ffffffff16565b600055610474565b6104706003546101ed670de0b6b3a76400006220148066470de4df8200008161046357fe5b049063ffffffff61066416565b6000555b600154600054600254600354604080519485526020850193909352838301919091526060830152517f6960ab234c7ef4b0c9197100f5393cfcde7c453ac910a27bd2000aa1dd4c068d9181900360800190a15050565b600181565b670d2f13f7789f000081565b6000826104ea5750600061027e565b610519610501836103b2878763ffffffff61070516565b6101ed85670de0b6b3a764000063ffffffff61066416565b949350505050565b60005481565b60006105cb600f6103be633b9aca006101ed676765c793fa10079d601b1b600460009054906101000a90046001600160a01b03166001600160a01b031663487bf0826040518163ffffffff1660e01b815260040160206040518083038186803b15801561059357600080fd5b505afa1580156105a7573d6000803e3d6000fd5b505050506040513d60208110156105bd57600080fd5b50519063ffffffff61075d16565b905090565b6220148081565b6000806105e68686868661079f565b905060006105fe856103b2898963ffffffff61070516565b90508061060d57509050610519565b600061062b826101ed61061e610527565b8b9063ffffffff61066416565b905061063d818463ffffffff61070516565b98975050505050505050565b60025481565b60015481565b64023703e87b81565b60035481565b600082610673575060006106c0565b8282028284828161068057fe5b04146106bd5760405162461bcd60e51b81526004018080602001828103825260218152602001806109036021913960400191505060405180910390fd5b90505b92915050565b60006106bd83836040518060400160405280601a815260200179536166654d6174683a206469766973696f6e206279207a65726f60301b815250610806565b6000828201838110156106bd576040805162461bcd60e51b815260206004820152601b60248201527a536166654d6174683a206164646974696f6e206f766572666c6f7760281b604482015290519081900360640190fd5b60006106bd83836040518060400160405280601f81526020017f536166654d6174683a207375627472616374696f6e20756e646572666c6f77008152506108a8565b6000806107ba670de0b6b3a76400008463ffffffff61075d16565b905060006107c98787876101ad565b905060006107e9670de0b6b3a76400006101ed848663ffffffff61066416565b905061063d670de0b6b3a76400006101ed836103be8c8c8c6104db565b600081836108925760405162461bcd60e51b81526004018080602001828103825283818151815260200191508051906020019080838360005b8381101561085757818101518382015260200161083f565b50505050905090810190601f1680156108845780820380516001836020036101000a031916815260200191505b509250505060405180910390fd5b50600083858161089e57fe5b0495945050505050565b600081848411156108fa5760405162461bcd60e51b815260206004820181815283516024840152835190928392604490910191908501908083836000831561085757818101518382015260200161083f565b50505090039056fe536166654d6174683a206d756c7469706c69636174696f6e206f766572666c6f77a265627a7a72315820b136943f72f52a507b002f478462da6fe596566aeb4f9400f9bb4bb25521401d64736f6c63430005100032536166654d6174683a206d756c7469706c69636174696f6e206f766572666c6f77",
  "source": "pragma solidity ^0.5.16;\n\nimport \"./JumpRateModel.sol\";\nimport \"./SafeMath.sol\";\n\n/**\n  * @title Compound's DAIInterestRateModel Contract (version 2)\n  * @author Compound (modified by Dharma Labs)\n  * @notice The parameterized model described in section 2.4 of the original Compound Protocol whitepaper.\n  * Version 2 modifies the original interest rate model by increasing the \"gap\" or slope of the model prior\n  * to the \"kink\" from 0.05% to 2% with the goal of \"smoothing out\" interest rate changes as the utilization\n  * rate increases.\n  */\ncontract DAIInterestRateModelV2 is JumpRateModel {\n    using SafeMath for uint;\n\n    /**\n     * @notice The additional margin per block separating the base borrow rate from the roof (2% / block).\n     * Note that this value has been increased from the original value of 0.05% per block.\n     */\n    uint public constant gapPerBlock = 2e16 / blocksPerYear;\n\n    /**\n     * @notice The assumed (1 - reserve factor) used to calculate the minimum borrow rate (reserve factor = 0.05)\n     */\n    uint public constant assumedOneMinusReserveFactorMantissa = 0.95e18;\n\n    PotLike pot;\n    JugLike jug;\n\n    /**\n     * @notice Construct an interest rate model\n     * @param jumpMultiplierPerYear The multiplierPerBlock after hitting a specified utilization point\n     * @param kink_ The utilization point at which the jump multiplier is applied\n     * @param pot_ The address of the Dai pot (where DSR is earned)\n     * @param jug_ The address of the Dai jug (where SF is kept)\n     */\n    constructor(uint jumpMultiplierPerYear, uint kink_, address pot_, address jug_) JumpRateModel(0, 0, jumpMultiplierPerYear, kink_) public {\n        pot = PotLike(pot_);\n        jug = JugLike(jug_);\n        poke();\n    }\n\n    /**\n     * @notice Calculates the current supply interest rate per block including the Dai savings rate\n     * @param cash The total amount of cash the market has\n     * @param borrows The total amount of borrows the market has outstanding\n     * @param reserves The total amnount of reserves the market has\n     * @param reserveFactorMantissa The current reserve factor the market has\n     * @return The supply rate per block (as a percentage, and scaled by 1e18)\n     */\n    function getSupplyRate(uint cash, uint borrows, uint reserves, uint reserveFactorMantissa) public view returns (uint) {\n        uint protocolRate = super.getSupplyRate(cash, borrows, reserves, reserveFactorMantissa);\n\n        uint underlying = cash.add(borrows).sub(reserves);\n        if (underlying == 0) {\n            return protocolRate;\n        } else {\n            uint cashRate = cash.mul(dsrPerBlock()).div(underlying);\n            return cashRate.add(protocolRate);\n        }\n    }\n\n    /**\n     * @notice Calculates the Dai savings rate per block\n     * @return The Dai savings rate per block (as a percentage, and scaled by 1e18)\n     */\n    function dsrPerBlock() public view returns (uint) {\n        return pot\n            .dsr().sub(1e27)  // scaled 1e27 aka RAY, and includes an extra \"ONE\" before subraction\n            .div(1e9) // descale to 1e18\n            .mul(15); // 15 seconds per block\n    }\n\n    /**\n     * @notice Resets the baseRate and multiplier per block based on the stability fee and Dai savings rate\n     */\n    function poke() public {\n        (uint duty, ) = jug.ilks(\"ETH-A\");\n        uint stabilityFeePerBlock = duty.add(jug.base()).sub(1e27).mul(1e18).div(1e27).mul(15);\n\n        // We ensure the minimum borrow rate >= DSR / (1 - reserve factor)\n        baseRatePerBlock = dsrPerBlock().mul(1e18).div(assumedOneMinusReserveFactorMantissa);\n\n        // The roof borrow rate is max(base rate, stability fee) + gap, from which we derive the slope\n        if (baseRatePerBlock < stabilityFeePerBlock) {\n            multiplierPerBlock = stabilityFeePerBlock.sub(baseRatePerBlock).add(gapPerBlock).mul(1e18).div(kink);\n        } else {\n            multiplierPerBlock = gapPerBlock.mul(1e18).div(kink);\n        }\n\n        emit NewInterestParams(baseRatePerBlock, multiplierPerBlock, jumpMultiplierPerBlock, kink);\n    }\n}\n\n\n/*** Maker Interfaces ***/\n\ncontract PotLike {\n    function chi() external view returns (uint);\n    function dsr() external view returns (uint);\n    function rho() external view returns (uint);\n    function pie(address) external view returns (uint);\n    function drip() external returns (uint);\n    function join(uint) external;\n    function exit(uint) external;\n}\n\ncontract JugLike {\n    // --- Data ---\n    struct Ilk {\n        uint256 duty;\n        uint256  rho;\n    }\n\n   mapping (bytes32 => Ilk) public ilks;\n   uint256 public base;\n}\n",
  "sourcePath": "/Users/ashton/repo/blockchain/eth/smartcontracts/quicksilver-protocol/contracts/compound/DAIInterestRateModelV2.sol",
  "compiler": {
    "name": "solc",
    "version": "0.5.16+commit.9c3226ce.Emscripten.clang"
  },
  "schemaVersion": "3.4.3",
  "updatedAt": "2021-09-01T12:44:08.829Z",
  "devdoc": {
    "author": "Compound (modified by Dharma Labs)",
    "methods": {
      "constructor": {
        "params": {
          "jug_": "The address of the Dai jug (where SF is kept)",
          "jumpMultiplierPerYear": "The multiplierPerBlock after hitting a specified utilization point",
          "kink_": "The utilization point at which the jump multiplier is applied",
          "pot_": "The address of the Dai pot (where DSR is earned)"
        }
      },
      "dsrPerBlock()": {
        "return": "The Dai savings rate per block (as a percentage, and scaled by 1e18)"
      },
      "getBorrowRate(uint256,uint256,uint256)": {
        "params": {
          "borrows": "The amount of borrows in the market",
          "cash": "The amount of cash in the market",
          "reserves": "The amount of reserves in the market"
        },
        "return": "The borrow rate percentage per block as a mantissa (scaled by 1e18)"
      },
      "getSupplyRate(uint256,uint256,uint256,uint256)": {
        "params": {
          "borrows": "The total amount of borrows the market has outstanding",
          "cash": "The total amount of cash the market has",
          "reserveFactorMantissa": "The current reserve factor the market has",
          "reserves": "The total amnount of reserves the market has"
        },
        "return": "The supply rate per block (as a percentage, and scaled by 1e18)"
      },
      "utilizationRate(uint256,uint256,uint256)": {
        "params": {
          "borrows": "The amount of borrows in the market",
          "cash": "The amount of cash in the market",
          "reserves": "The amount of reserves in the market (currently unused)"
        },
        "return": "The utilization rate as a mantissa between [0, 1e18]"
      }
    },
    "title": "Compound's DAIInterestRateModel Contract (version 2)"
  },
  "userdoc": {
    "methods": {
      "constructor": "Construct an interest rate model",
      "dsrPerBlock()": {
        "notice": "Calculates the Dai savings rate per block"
      },
      "getBorrowRate(uint256,uint256,uint256)": {
        "notice": "Calculates the current borrow rate per block, with the error code expected by the market"
      },
      "getSupplyRate(uint256,uint256,uint256,uint256)": {
        "notice": "Calculates the current supply interest rate per block including the Dai savings rate"
      },
      "poke()": {
        "notice": "Resets the baseRate and multiplier per block based on the stability fee and Dai savings rate"
      },
      "utilizationRate(uint256,uint256,uint256)": {
        "notice": "Calculates the utilization rate of the market: `borrows / (cash + borrows - reserves)`"
      }
    },
    "notice": "The parameterized model described in section 2.4 of the original Compound Protocol whitepaper. Version 2 modifies the original interest rate model by increasing the \"gap\" or slope of the model prior to the \"kink\" from 0.05% to 2% with the goal of \"smoothing out\" interest rate changes as the utilization rate increases."
  }
}