{
  "contractName": "ETHToken",
  "abi": [
    {
      "anonymous": false,
      "inputs": [
        {
          "indexed": false,
          "internalType": "address",
          "name": "_user",
          "type": "address"
        }
      ],
      "name": "AddedBlackList",
      "type": "event"
    },
    {
      "anonymous": false,
      "inputs": [
        {
          "indexed": true,
          "internalType": "address",
          "name": "owner",
          "type": "address"
        },
        {
          "indexed": true,
          "internalType": "address",
          "name": "spender",
          "type": "address"
        },
        {
          "indexed": false,
          "internalType": "uint256",
          "name": "value",
          "type": "uint256"
        }
      ],
      "name": "Approval",
      "type": "event"
    },
    {
      "anonymous": false,
      "inputs": [
        {
          "indexed": false,
          "internalType": "address",
          "name": "newAddress",
          "type": "address"
        }
      ],
      "name": "Deprecate",
      "type": "event"
    },
    {
      "anonymous": false,
      "inputs": [
        {
          "indexed": false,
          "internalType": "address",
          "name": "_blackListedUser",
          "type": "address"
        },
        {
          "indexed": false,
          "internalType": "uint256",
          "name": "_balance",
          "type": "uint256"
        }
      ],
      "name": "DestroyedBlackFunds",
      "type": "event"
    },
    {
      "anonymous": false,
      "inputs": [
        {
          "indexed": false,
          "internalType": "uint256",
          "name": "amount",
          "type": "uint256"
        }
      ],
      "name": "Issue",
      "type": "event"
    },
    {
      "anonymous": false,
      "inputs": [
        {
          "indexed": false,
          "internalType": "uint256",
          "name": "feeBasisPoints",
          "type": "uint256"
        },
        {
          "indexed": false,
          "internalType": "uint256",
          "name": "maxFee",
          "type": "uint256"
        }
      ],
      "name": "Params",
      "type": "event"
    },
    {
      "anonymous": false,
      "inputs": [],
      "name": "Pause",
      "type": "event"
    },
    {
      "anonymous": false,
      "inputs": [
        {
          "indexed": false,
          "internalType": "uint256",
          "name": "amount",
          "type": "uint256"
        }
      ],
      "name": "Redeem",
      "type": "event"
    },
    {
      "anonymous": false,
      "inputs": [
        {
          "indexed": false,
          "internalType": "address",
          "name": "_user",
          "type": "address"
        }
      ],
      "name": "RemovedBlackList",
      "type": "event"
    },
    {
      "anonymous": false,
      "inputs": [
        {
          "indexed": true,
          "internalType": "address",
          "name": "from",
          "type": "address"
        },
        {
          "indexed": true,
          "internalType": "address",
          "name": "to",
          "type": "address"
        },
        {
          "indexed": false,
          "internalType": "uint256",
          "name": "value",
          "type": "uint256"
        }
      ],
      "name": "Transfer",
      "type": "event"
    },
    {
      "anonymous": false,
      "inputs": [],
      "name": "Unpause",
      "type": "event"
    },
    {
      "constant": true,
      "inputs": [],
      "name": "MAX_UINT",
      "outputs": [
        {
          "internalType": "uint256",
          "name": "",
          "type": "uint256"
        }
      ],
      "payable": false,
      "stateMutability": "view",
      "type": "function"
    },
    {
      "constant": true,
      "inputs": [],
      "name": "_totalSupply",
      "outputs": [
        {
          "internalType": "uint256",
          "name": "",
          "type": "uint256"
        }
      ],
      "payable": false,
      "stateMutability": "view",
      "type": "function"
    },
    {
      "constant": false,
      "inputs": [
        {
          "internalType": "address",
          "name": "_evilUser",
          "type": "address"
        }
      ],
      "name": "addBlackList",
      "outputs": [],
      "payable": false,
      "stateMutability": "nonpayable",
      "type": "function"
    },
    {
      "constant": true,
      "inputs": [
        {
          "internalType": "address",
          "name": "_owner",
          "type": "address"
        },
        {
          "internalType": "address",
          "name": "_spender",
          "type": "address"
        }
      ],
      "name": "allowance",
      "outputs": [
        {
          "internalType": "uint256",
          "name": "remaining",
          "type": "uint256"
        }
      ],
      "payable": false,
      "stateMutability": "view",
      "type": "function"
    },
    {
      "constant": true,
      "inputs": [
        {
          "internalType": "address",
          "name": "",
          "type": "address"
        },
        {
          "internalType": "address",
          "name": "",
          "type": "address"
        }
      ],
      "name": "allowed",
      "outputs": [
        {
          "internalType": "uint256",
          "name": "",
          "type": "uint256"
        }
      ],
      "payable": false,
      "stateMutability": "view",
      "type": "function"
    },
    {
      "constant": false,
      "inputs": [
        {
          "internalType": "address",
          "name": "_spender",
          "type": "address"
        },
        {
          "internalType": "uint256",
          "name": "_value",
          "type": "uint256"
        }
      ],
      "name": "approve",
      "outputs": [],
      "payable": false,
      "stateMutability": "nonpayable",
      "type": "function"
    },
    {
      "constant": true,
      "inputs": [
        {
          "internalType": "address",
          "name": "who",
          "type": "address"
        }
      ],
      "name": "balanceOf",
      "outputs": [
        {
          "internalType": "uint256",
          "name": "",
          "type": "uint256"
        }
      ],
      "payable": false,
      "stateMutability": "view",
      "type": "function"
    },
    {
      "constant": true,
      "inputs": [
        {
          "internalType": "address",
          "name": "",
          "type": "address"
        }
      ],
      "name": "balances",
      "outputs": [
        {
          "internalType": "uint256",
          "name": "",
          "type": "uint256"
        }
      ],
      "payable": false,
      "stateMutability": "view",
      "type": "function"
    },
    {
      "constant": true,
      "inputs": [],
      "name": "basisPointsRate",
      "outputs": [
        {
          "internalType": "uint256",
          "name": "",
          "type": "uint256"
        }
      ],
      "payable": false,
      "stateMutability": "view",
      "type": "function"
    },
    {
      "constant": true,
      "inputs": [],
      "name": "decimals",
      "outputs": [
        {
          "internalType": "uint256",
          "name": "",
          "type": "uint256"
        }
      ],
      "payable": false,
      "stateMutability": "view",
      "type": "function"
    },
    {
      "constant": false,
      "inputs": [
        {
          "internalType": "address",
          "name": "_upgradedAddress",
          "type": "address"
        }
      ],
      "name": "deprecate",
      "outputs": [],
      "payable": false,
      "stateMutability": "nonpayable",
      "type": "function"
    },
    {
      "constant": true,
      "inputs": [],
      "name": "deprecated",
      "outputs": [
        {
          "internalType": "bool",
          "name": "",
          "type": "bool"
        }
      ],
      "payable": false,
      "stateMutability": "view",
      "type": "function"
    },
    {
      "constant": false,
      "inputs": [
        {
          "internalType": "address",
          "name": "_blackListedUser",
          "type": "address"
        }
      ],
      "name": "destroyBlackFunds",
      "outputs": [],
      "payable": false,
      "stateMutability": "nonpayable",
      "type": "function"
    },
    {
      "constant": true,
      "inputs": [
        {
          "internalType": "address",
          "name": "_maker",
          "type": "address"
        }
      ],
      "name": "getBlackListStatus",
      "outputs": [
        {
          "internalType": "bool",
          "name": "",
          "type": "bool"
        }
      ],
      "payable": false,
      "stateMutability": "view",
      "type": "function"
    },
    {
      "constant": true,
      "inputs": [],
      "name": "getOwner",
      "outputs": [
        {
          "internalType": "address",
          "name": "",
          "type": "address"
        }
      ],
      "payable": false,
      "stateMutability": "view",
      "type": "function"
    },
    {
      "constant": true,
      "inputs": [
        {
          "internalType": "address",
          "name": "",
          "type": "address"
        }
      ],
      "name": "isBlackListed",
      "outputs": [
        {
          "internalType": "bool",
          "name": "",
          "type": "bool"
        }
      ],
      "payable": false,
      "stateMutability": "view",
      "type": "function"
    },
    {
      "constant": false,
      "inputs": [
        {
          "internalType": "uint256",
          "name": "amount",
          "type": "uint256"
        }
      ],
      "name": "issue",
      "outputs": [],
      "payable": false,
      "stateMutability": "nonpayable",
      "type": "function"
    },
    {
      "constant": true,
      "inputs": [],
      "name": "maximumFee",
      "outputs": [
        {
          "internalType": "uint256",
          "name": "",
          "type": "uint256"
        }
      ],
      "payable": false,
      "stateMutability": "view",
      "type": "function"
    },
    {
      "constant": true,
      "inputs": [],
      "name": "name",
      "outputs": [
        {
          "internalType": "string",
          "name": "",
          "type": "string"
        }
      ],
      "payable": false,
      "stateMutability": "view",
      "type": "function"
    },
    {
      "constant": true,
      "inputs": [],
      "name": "owner",
      "outputs": [
        {
          "internalType": "address",
          "name": "",
          "type": "address"
        }
      ],
      "payable": false,
      "stateMutability": "view",
      "type": "function"
    },
    {
      "constant": false,
      "inputs": [],
      "name": "pause",
      "outputs": [],
      "payable": false,
      "stateMutability": "nonpayable",
      "type": "function"
    },
    {
      "constant": true,
      "inputs": [],
      "name": "paused",
      "outputs": [
        {
          "internalType": "bool",
          "name": "",
          "type": "bool"
        }
      ],
      "payable": false,
      "stateMutability": "view",
      "type": "function"
    },
    {
      "constant": false,
      "inputs": [
        {
          "internalType": "uint256",
          "name": "amount",
          "type": "uint256"
        }
      ],
      "name": "redeem",
      "outputs": [],
      "payable": false,
      "stateMutability": "nonpayable",
      "type": "function"
    },
    {
      "constant": false,
      "inputs": [
        {
          "internalType": "address",
          "name": "_clearedUser",
          "type": "address"
        }
      ],
      "name": "removeBlackList",
      "outputs": [],
      "payable": false,
      "stateMutability": "nonpayable",
      "type": "function"
    },
    {
      "constant": false,
      "inputs": [
        {
          "internalType": "uint256",
          "name": "newBasisPoints",
          "type": "uint256"
        },
        {
          "internalType": "uint256",
          "name": "newMaxFee",
          "type": "uint256"
        }
      ],
      "name": "setParams",
      "outputs": [],
      "payable": false,
      "stateMutability": "nonpayable",
      "type": "function"
    },
    {
      "constant": true,
      "inputs": [],
      "name": "symbol",
      "outputs": [
        {
          "internalType": "string",
          "name": "",
          "type": "string"
        }
      ],
      "payable": false,
      "stateMutability": "view",
      "type": "function"
    },
    {
      "constant": true,
      "inputs": [],
      "name": "totalSupply",
      "outputs": [
        {
          "internalType": "uint256",
          "name": "",
          "type": "uint256"
        }
      ],
      "payable": false,
      "stateMutability": "view",
      "type": "function"
    },
    {
      "constant": false,
      "inputs": [
        {
          "internalType": "address",
          "name": "_to",
          "type": "address"
        },
        {
          "internalType": "uint256",
          "name": "_value",
          "type": "uint256"
        }
      ],
      "name": "transfer",
      "outputs": [],
      "payable": false,
      "stateMutability": "nonpayable",
      "type": "function"
    },
    {
      "constant": false,
      "inputs": [
        {
          "internalType": "address",
          "name": "_from",
          "type": "address"
        },
        {
          "internalType": "address",
          "name": "_to",
          "type": "address"
        },
        {
          "internalType": "uint256",
          "name": "_value",
          "type": "uint256"
        }
      ],
      "name": "transferFrom",
      "outputs": [],
      "payable": false,
      "stateMutability": "nonpayable",
      "type": "function"
    },
    {
      "constant": false,
      "inputs": [
        {
          "internalType": "address",
          "name": "newOwner",
          "type": "address"
        }
      ],
      "name": "transferOwnership",
      "outputs": [],
      "payable": false,
      "stateMutability": "nonpayable",
      "type": "function"
    },
    {
      "constant": false,
      "inputs": [],
      "name": "unpause",
      "outputs": [],
      "payable": false,
      "stateMutability": "nonpayable",
      "type": "function"
    },
    {
      "constant": true,
      "inputs": [],
      "name": "upgradedAddress",
      "outputs": [
        {
          "internalType": "address",
          "name": "",
          "type": "address"
        }
      ],
      "payable": false,
      "stateMutability": "view",
      "type": "function"
    }
  ],
  "bytecode": "0x6000805460038281556004839055600e60808181526d455448206f6e20456c6173746f7360901b60a090815261010060405260c09384526208aa8960eb1b60e0526001600160a81b031990941633179094556b033b2e3c9fd0803ce8000000600181905593926012916200007691600791620000be565b5081516200008c906008906020850190620000be565b506009555050600080546001600160a01b0316815260026020526040902055600a805460ff60a01b1916905562000163565b828054600181600116156101000203166002900490600052602060002090601f016020900481019282601f106200010157805160ff191683800117855562000131565b8280016001018555821562000131579182015b828111156200013157825182559160200191906001019062000114565b506200013f92915062000143565b5090565b6200016091905b808211156200013f57600081556001016200014a565b90565b61153680620001736000396000f3fe608060405234801561001057600080fd5b50600436106101805760003560e01c806306fdde03146101855780630753c30c14610202578063095ea7b31461022a5780630e136b19146102565780630ecb93c01461027257806318160ddd1461029857806323b872dd146102b257806326976e3f146102e857806327e235e31461030c578063313ce56714610332578063353907141461033a5780633eaaf86b146103425780633f4ba83a1461034a57806359bf1abe146103525780635c658165146103785780635c975abb146103a657806370a08231146103ae5780638456cb59146103d4578063893d20e8146103dc5780638da5cb5b146103e457806395d89b41146103ec578063a9059cbb146103f4578063c0324c7714610420578063cc872b6614610443578063db006a7514610460578063dd62ed3e1461047d578063dd644f72146104ab578063e47d6060146104b3578063e4997dc5146104d9578063e5b5019a146104ff578063f2fde38b14610507578063f3bdc2281461052d575b600080fd5b61018d610553565b6040805160208082528351818301528351919283929083019185019080838360005b838110156101c75781810151838201526020016101af565b50505050905090810190601f1680156101f45780820380516001836020036101000a031916815260200191505b509250505060405180910390f35b6102286004803603602081101561021857600080fd5b50356001600160a01b03166105e1565b005b6102286004803603604081101561024057600080fd5b506001600160a01b03813516906020013561065b565b61025e610704565b604080519115158252519081900360200190f35b6102286004803603602081101561028857600080fd5b50356001600160a01b0316610714565b6102a0610786565b60408051918252519081900360200190f35b610228600480360360608110156102c857600080fd5b506001600160a01b03813581169160208101359091169060400135610824565b6102f06108e1565b604080516001600160a01b039092168252519081900360200190f35b6102a06004803603602081101561032257600080fd5b50356001600160a01b03166108f0565b6102a0610902565b6102a0610908565b6102a061090e565b610228610914565b61025e6004803603602081101561036857600080fd5b50356001600160a01b0316610977565b6102a06004803603604081101561038e57600080fd5b506001600160a01b0381358116916020013516610999565b61025e6109b6565b6102a0600480360360208110156103c457600080fd5b50356001600160a01b03166109c6565b610228610a6b565b6102f0610ad5565b6102f0610ae4565b61018d610af3565b6102286004803603604081101561040a57600080fd5b506001600160a01b038135169060200135610b4e565b6102286004803603604081101561043657600080fd5b5080359060200135610c1a565b6102286004803603602081101561045957600080fd5b5035610caf565b6102286004803603602081101561047657600080fd5b5035610d5a565b6102a06004803603604081101561049357600080fd5b506001600160a01b0381358116916020013516610e05565b6102a0610eb5565b61025e600480360360208110156104c957600080fd5b50356001600160a01b0316610ebb565b610228600480360360208110156104ef57600080fd5b50356001600160a01b0316610ed0565b6102a0610f3f565b6102286004803603602081101561051d57600080fd5b50356001600160a01b0316610f45565b6102286004803603602081101561054357600080fd5b50356001600160a01b0316610f8a565b6007805460408051602060026001851615610100026000190190941693909304601f810184900484028201840190925281815292918301828280156105d95780601f106105ae576101008083540402835291602001916105d9565b820191906000526020600020905b8154815290600101906020018083116105bc57829003601f168201915b505050505081565b6000546001600160a01b031633146105f857600080fd5b600a8054600160a01b60ff60a01b19909116176001600160a01b0319166001600160a01b03831690811790915560408051918252517fcc358699805e9a8b7f77b522628c7cb9abd07d9efb86b6fb616af1609036a99e916020908290030190a150565b6040604436101561066b57600080fd5b600a54600160a01b900460ff16156106f557600a546040805163aee92d3360e01b81523360048201526001600160a01b038681166024830152604482018690529151919092169163aee92d3391606480830192600092919082900301818387803b1580156106d857600080fd5b505af11580156106ec573d6000803e3d6000fd5b505050506106ff565b6106ff8383611035565b505050565b600a54600160a01b900460ff1681565b6000546001600160a01b0316331461072b57600080fd5b6001600160a01b038116600081815260066020908152604091829020805460ff19166001179055815192835290517f42e160154868087d6bfdc0ca23d96a1c1cfa32f1b72ba9ba27b69b98a0d819dc9281900390910190a150565b600a54600090600160a01b900460ff161561081c57600a60009054906101000a90046001600160a01b03166001600160a01b03166318160ddd6040518163ffffffff1660e01b815260040160206040518083038186803b1580156107e957600080fd5b505afa1580156107fd573d6000803e3d6000fd5b505050506040513d602081101561081357600080fd5b50519050610821565b506001545b90565b600054600160a01b900460ff161561083b57600080fd5b6001600160a01b03831660009081526006602052604090205460ff161561086157600080fd5b600a54600160a01b900460ff16156108d657600a5460408051638b477adb60e01b81523360048201526001600160a01b03868116602483015285811660448301526064820185905291519190921691638b477adb91608480830192600092919082900301818387803b1580156106d857600080fd5b6106ff8383836110e3565b600a546001600160a01b031681565b60026020526000908152604090205481565b60095481565b60045481565b60015481565b6000546001600160a01b0316331461092b57600080fd5b600054600160a01b900460ff1661094157600080fd5b6000805460ff60a01b191681556040517f7805862f689e2f13df9f062ff482ad3ad112aca9e0847911ed832e158c525b339190a1565b6001600160a01b03811660009081526006602052604090205460ff165b919050565b600560209081526000928352604080842090915290825290205481565b600054600160a01b900460ff1681565b600a54600090600160a01b900460ff1615610a5b57600a54604080516370a0823160e01b81526001600160a01b038581166004830152915191909216916370a08231916024808301926020929190829003018186803b158015610a2857600080fd5b505afa158015610a3c573d6000803e3d6000fd5b505050506040513d6020811015610a5257600080fd5b50519050610994565b610a64826112d8565b9050610994565b6000546001600160a01b03163314610a8257600080fd5b600054600160a01b900460ff1615610a9957600080fd5b6000805460ff60a01b1916600160a01b1781556040517f6985a02210a168e66602d3235cb6db0e70f92b3ba4d376a33c0f3d9434bff6259190a1565b6000546001600160a01b031690565b6000546001600160a01b031681565b6008805460408051602060026001851615610100026000190190941693909304601f810184900484028201840190925281815292918301828280156105d95780601f106105ae576101008083540402835291602001916105d9565b600054600160a01b900460ff1615610b6557600080fd5b3360009081526006602052604090205460ff1615610b8257600080fd5b600a54600160a01b900460ff1615610c0c57600a546040805163370c4c0560e11b81523360048201526001600160a01b0385811660248301526044820185905291519190921691636e18980a91606480830192600092919082900301818387803b158015610bef57600080fd5b505af1158015610c03573d6000803e3d6000fd5b50505050610c16565b610c1682826112f3565b5050565b6000546001600160a01b03163314610c3157600080fd5b60148210610c3e57600080fd5b60328110610c4b57600080fd5b6003829055600954610c67908290600a0a63ffffffff61145c16565b600481905560035460408051918252602082019290925281517fb044a1e409eac5c48e5af22d4af52670dd1a99059537a78b31b48c6500a6354e929181900390910190a15050565b6000546001600160a01b03163314610cc657600080fd5b60015481810111610cd657600080fd5b600080546001600160a01b031681526002602052604090205481810111610cfc57600080fd5b600080546001600160a01b03168152600260209081526040918290208054840190556001805484019055815183815291517fcb8241adb0c3fdb35b70c24ce35c5eb0c17af7431c99f827d44a445ca624176a9281900390910190a150565b6000546001600160a01b03163314610d7157600080fd5b806001541015610d8057600080fd5b600080546001600160a01b0316815260026020526040902054811115610da557600080fd5b600180548290039055600080546001600160a01b031681526002602090815260409182902080548490039055815183815291517f702d5967f45f6513a38ffc42d6ba9bf230bd40e8f53b16363c7eb4fd2deb9a449281900390910190a150565b600a54600090600160a01b900460ff1615610ea257600a5460408051636eb1769f60e11b81526001600160a01b03868116600483015285811660248301529151919092169163dd62ed3e916044808301926020929190829003018186803b158015610e6f57600080fd5b505afa158015610e83573d6000803e3d6000fd5b505050506040513d6020811015610e9957600080fd5b50519050610eaf565b610eac8383611480565b90505b92915050565b60035481565b60066020526000908152604090205460ff1681565b6000546001600160a01b03163314610ee757600080fd5b6001600160a01b038116600081815260066020908152604091829020805460ff19169055815192835290517fd7e9ec6e6ecd65492dce6bf513cd6867560d49544421d0783ddf06e76c24470c9281900390910190a150565b60001981565b6000546001600160a01b03163314610f5c57600080fd5b6001600160a01b03811615610f8757600080546001600160a01b0319166001600160a01b0383161790555b50565b6000546001600160a01b03163314610fa157600080fd5b6001600160a01b03811660009081526006602052604090205460ff16610fc657600080fd5b6000610fd1826109c6565b6001600160a01b0383166000818152600260209081526040808320929092556001805485900390558151928352820183905280519293507f61e6e66b0d6339b2980aecc6ccc0039736791f0ccde9ed512e789a7fbdd698c692918290030190a15050565b6040604436101561104557600080fd5b811580159061107657503360009081526005602090815260408083206001600160a01b038716845290915290205415155b1561108057600080fd5b3360008181526005602090815260408083206001600160a01b03881680855290835292819020869055805186815290519293927f8c5be1e5ebec7d5bd14f71427d1e84f3dd0314c0f7b2291e5b200ac8c7c3b925929181900390910190a3505050565b606060643610156110f357600080fd5b6001600160a01b0384166000908152600560209081526040808320338452909152812054600354909190611142906127109061113690879063ffffffff61145c16565b9063ffffffff6114ab16565b905060045481111561115357506004545b6000198210156111925761116d828563ffffffff6114c016565b6001600160a01b03871660009081526005602090815260408083203384529091529020555b60006111a4858363ffffffff6114c016565b6001600160a01b0388166000908152600260205260409020549091506111d0908663ffffffff6114c016565b6001600160a01b038089166000908152600260205260408082209390935590881681522054611205908263ffffffff6114d216565b6001600160a01b038716600090815260026020526040902055811561129657600080546001600160a01b031681526002602052604090205461124d908363ffffffff6114d216565b600080546001600160a01b0390811682526002602090815260408084209490945591548351868152935190821693918b16926000805160206114e2833981519152928290030190a35b856001600160a01b0316876001600160a01b03166000805160206114e2833981519152836040518082815260200191505060405180910390a350505050505050565b6001600160a01b031660009081526002602052604090205490565b6040604436101561130357600080fd5b60006113206127106111366003548661145c90919063ffffffff16565b905060045481111561133157506004545b6000611343848363ffffffff6114c016565b33600090815260026020526040902054909150611366908563ffffffff6114c016565b33600090815260026020526040808220929092556001600160a01b03871681522054611398908263ffffffff6114d216565b6001600160a01b038616600090815260026020526040902055811561142757600080546001600160a01b03168152600260205260409020546113e0908363ffffffff6114d216565b600080546001600160a01b0390811682526002602090815260408084209490945591548351868152935191169233926000805160206114e283398151915292918290030190a35b6040805182815290516001600160a01b0387169133916000805160206114e28339815191529181900360200190a35050505050565b60008261146b57506000610eaf565b8282028284828161147857fe5b0414610eac57fe5b6001600160a01b03918216600090815260056020908152604080832093909416825291909152205490565b6000808284816114b757fe5b04949350505050565b6000828211156114cc57fe5b50900390565b600082820183811015610eac57fefeddf252ad1be2c89b69c2b068fc378daa952ba7f163c4a11628f55a4df523b3efa265627a7a72315820900289068ce4f649639bed3adf6fed981d9def84db6c62a97211ec90f22b7ae164736f6c63430005100032",
  "source": "pragma solidity ^0.5.16;\n\nimport \"./TetherToken.sol\";\n\ncontract ETHToken is TetherToken(1000000000 ether, \"ETH on Elastos\", \"ETH\", 18) {\n}",
  "sourcePath": "/Users/ashton/repo/blockchain/eth/smartcontracts/quicksilver-protocol/contracts/mock/ETHToken.sol",
  "compiler": {
    "name": "solc",
    "version": "0.5.16+commit.9c3226ce.Emscripten.clang"
  },
  "schemaVersion": "3.4.3",
  "updatedAt": "2021-09-01T12:48:30.684Z",
  "networkType": "ethereum",
  "devdoc": {
    "methods": {
      "pause()": {
        "details": "called by the owner to pause, triggers stopped state"
      },
      "transferOwnership(address)": {
        "details": "Allows the current owner to transfer control of the contract to a newOwner.",
        "params": {
          "newOwner": "The address to transfer ownership to."
        }
      },
      "unpause()": {
        "details": "called by the owner to unpause, returns to normal state"
      }
    }
  },
  "userdoc": {
    "methods": {
      "getBlackListStatus(address)": {
        "notice": "//// Getters to allow the same blacklist to be used also by other contracts (including upgraded Tether) ///////"
      }
    }
  }
}