{
  "contractName": "GovernorAlpha",
  "abi": [
    {
      "inputs": [
        {
          "internalType": "address",
          "name": "timelock_",
          "type": "address"
        },
        {
          "internalType": "address",
          "name": "comp_",
          "type": "address"
        },
        {
          "internalType": "address",
          "name": "guardian_",
          "type": "address"
        }
      ],
      "payable": false,
      "stateMutability": "nonpayable",
      "type": "constructor"
    },
    {
      "anonymous": false,
      "inputs": [
        {
          "indexed": false,
          "internalType": "uint256",
          "name": "id",
          "type": "uint256"
        }
      ],
      "name": "ProposalCanceled",
      "type": "event"
    },
    {
      "anonymous": false,
      "inputs": [
        {
          "indexed": false,
          "internalType": "uint256",
          "name": "id",
          "type": "uint256"
        },
        {
          "indexed": false,
          "internalType": "address",
          "name": "proposer",
          "type": "address"
        },
        {
          "indexed": false,
          "internalType": "address[]",
          "name": "targets",
          "type": "address[]"
        },
        {
          "indexed": false,
          "internalType": "uint256[]",
          "name": "values",
          "type": "uint256[]"
        },
        {
          "indexed": false,
          "internalType": "string[]",
          "name": "signatures",
          "type": "string[]"
        },
        {
          "indexed": false,
          "internalType": "bytes[]",
          "name": "calldatas",
          "type": "bytes[]"
        },
        {
          "indexed": false,
          "internalType": "uint256",
          "name": "startBlock",
          "type": "uint256"
        },
        {
          "indexed": false,
          "internalType": "uint256",
          "name": "endBlock",
          "type": "uint256"
        },
        {
          "indexed": false,
          "internalType": "string",
          "name": "description",
          "type": "string"
        }
      ],
      "name": "ProposalCreated",
      "type": "event"
    },
    {
      "anonymous": false,
      "inputs": [
        {
          "indexed": false,
          "internalType": "uint256",
          "name": "id",
          "type": "uint256"
        }
      ],
      "name": "ProposalExecuted",
      "type": "event"
    },
    {
      "anonymous": false,
      "inputs": [
        {
          "indexed": false,
          "internalType": "uint256",
          "name": "id",
          "type": "uint256"
        },
        {
          "indexed": false,
          "internalType": "uint256",
          "name": "eta",
          "type": "uint256"
        }
      ],
      "name": "ProposalQueued",
      "type": "event"
    },
    {
      "anonymous": false,
      "inputs": [
        {
          "indexed": false,
          "internalType": "address",
          "name": "voter",
          "type": "address"
        },
        {
          "indexed": false,
          "internalType": "uint256",
          "name": "proposalId",
          "type": "uint256"
        },
        {
          "indexed": false,
          "internalType": "bool",
          "name": "support",
          "type": "bool"
        },
        {
          "indexed": false,
          "internalType": "uint256",
          "name": "votes",
          "type": "uint256"
        }
      ],
      "name": "VoteCast",
      "type": "event"
    },
    {
      "constant": true,
      "inputs": [],
      "name": "BALLOT_TYPEHASH",
      "outputs": [
        {
          "internalType": "bytes32",
          "name": "",
          "type": "bytes32"
        }
      ],
      "payable": false,
      "stateMutability": "view",
      "type": "function"
    },
    {
      "constant": true,
      "inputs": [],
      "name": "DOMAIN_TYPEHASH",
      "outputs": [
        {
          "internalType": "bytes32",
          "name": "",
          "type": "bytes32"
        }
      ],
      "payable": false,
      "stateMutability": "view",
      "type": "function"
    },
    {
      "constant": true,
      "inputs": [],
      "name": "comp",
      "outputs": [
        {
          "internalType": "contract CompInterface",
          "name": "",
          "type": "address"
        }
      ],
      "payable": false,
      "stateMutability": "view",
      "type": "function"
    },
    {
      "constant": true,
      "inputs": [],
      "name": "guardian",
      "outputs": [
        {
          "internalType": "address",
          "name": "",
          "type": "address"
        }
      ],
      "payable": false,
      "stateMutability": "view",
      "type": "function"
    },
    {
      "constant": true,
      "inputs": [
        {
          "internalType": "address",
          "name": "",
          "type": "address"
        }
      ],
      "name": "latestProposalIds",
      "outputs": [
        {
          "internalType": "uint256",
          "name": "",
          "type": "uint256"
        }
      ],
      "payable": false,
      "stateMutability": "view",
      "type": "function"
    },
    {
      "constant": true,
      "inputs": [],
      "name": "name",
      "outputs": [
        {
          "internalType": "string",
          "name": "",
          "type": "string"
        }
      ],
      "payable": false,
      "stateMutability": "view",
      "type": "function"
    },
    {
      "constant": true,
      "inputs": [],
      "name": "proposalCount",
      "outputs": [
        {
          "internalType": "uint256",
          "name": "",
          "type": "uint256"
        }
      ],
      "payable": false,
      "stateMutability": "view",
      "type": "function"
    },
    {
      "constant": true,
      "inputs": [
        {
          "internalType": "uint256",
          "name": "",
          "type": "uint256"
        }
      ],
      "name": "proposals",
      "outputs": [
        {
          "internalType": "uint256",
          "name": "id",
          "type": "uint256"
        },
        {
          "internalType": "address",
          "name": "proposer",
          "type": "address"
        },
        {
          "internalType": "uint256",
          "name": "eta",
          "type": "uint256"
        },
        {
          "internalType": "uint256",
          "name": "startBlock",
          "type": "uint256"
        },
        {
          "internalType": "uint256",
          "name": "endBlock",
          "type": "uint256"
        },
        {
          "internalType": "uint256",
          "name": "forVotes",
          "type": "uint256"
        },
        {
          "internalType": "uint256",
          "name": "againstVotes",
          "type": "uint256"
        },
        {
          "internalType": "bool",
          "name": "canceled",
          "type": "bool"
        },
        {
          "internalType": "bool",
          "name": "executed",
          "type": "bool"
        }
      ],
      "payable": false,
      "stateMutability": "view",
      "type": "function"
    },
    {
      "constant": true,
      "inputs": [],
      "name": "timelock",
      "outputs": [
        {
          "internalType": "contract TimelockInterface",
          "name": "",
          "type": "address"
        }
      ],
      "payable": false,
      "stateMutability": "view",
      "type": "function"
    },
    {
      "constant": true,
      "inputs": [],
      "name": "quorumVotes",
      "outputs": [
        {
          "internalType": "uint256",
          "name": "",
          "type": "uint256"
        }
      ],
      "payable": false,
      "stateMutability": "pure",
      "type": "function"
    },
    {
      "constant": true,
      "inputs": [],
      "name": "proposalThreshold",
      "outputs": [
        {
          "internalType": "uint256",
          "name": "",
          "type": "uint256"
        }
      ],
      "payable": false,
      "stateMutability": "pure",
      "type": "function"
    },
    {
      "constant": true,
      "inputs": [],
      "name": "proposalMaxOperations",
      "outputs": [
        {
          "internalType": "uint256",
          "name": "",
          "type": "uint256"
        }
      ],
      "payable": false,
      "stateMutability": "pure",
      "type": "function"
    },
    {
      "constant": true,
      "inputs": [],
      "name": "votingDelay",
      "outputs": [
        {
          "internalType": "uint256",
          "name": "",
          "type": "uint256"
        }
      ],
      "payable": false,
      "stateMutability": "pure",
      "type": "function"
    },
    {
      "constant": true,
      "inputs": [],
      "name": "votingPeriod",
      "outputs": [
        {
          "internalType": "uint256",
          "name": "",
          "type": "uint256"
        }
      ],
      "payable": false,
      "stateMutability": "pure",
      "type": "function"
    },
    {
      "constant": false,
      "inputs": [
        {
          "internalType": "address[]",
          "name": "targets",
          "type": "address[]"
        },
        {
          "internalType": "uint256[]",
          "name": "values",
          "type": "uint256[]"
        },
        {
          "internalType": "string[]",
          "name": "signatures",
          "type": "string[]"
        },
        {
          "internalType": "bytes[]",
          "name": "calldatas",
          "type": "bytes[]"
        },
        {
          "internalType": "string",
          "name": "description",
          "type": "string"
        }
      ],
      "name": "propose",
      "outputs": [
        {
          "internalType": "uint256",
          "name": "",
          "type": "uint256"
        }
      ],
      "payable": false,
      "stateMutability": "nonpayable",
      "type": "function"
    },
    {
      "constant": false,
      "inputs": [
        {
          "internalType": "uint256",
          "name": "proposalId",
          "type": "uint256"
        }
      ],
      "name": "queue",
      "outputs": [],
      "payable": false,
      "stateMutability": "nonpayable",
      "type": "function"
    },
    {
      "constant": false,
      "inputs": [
        {
          "internalType": "uint256",
          "name": "proposalId",
          "type": "uint256"
        }
      ],
      "name": "execute",
      "outputs": [],
      "payable": true,
      "stateMutability": "payable",
      "type": "function"
    },
    {
      "constant": false,
      "inputs": [
        {
          "internalType": "uint256",
          "name": "proposalId",
          "type": "uint256"
        }
      ],
      "name": "cancel",
      "outputs": [],
      "payable": false,
      "stateMutability": "nonpayable",
      "type": "function"
    },
    {
      "constant": true,
      "inputs": [
        {
          "internalType": "uint256",
          "name": "proposalId",
          "type": "uint256"
        }
      ],
      "name": "getActions",
      "outputs": [
        {
          "internalType": "address[]",
          "name": "targets",
          "type": "address[]"
        },
        {
          "internalType": "uint256[]",
          "name": "values",
          "type": "uint256[]"
        },
        {
          "internalType": "string[]",
          "name": "signatures",
          "type": "string[]"
        },
        {
          "internalType": "bytes[]",
          "name": "calldatas",
          "type": "bytes[]"
        }
      ],
      "payable": false,
      "stateMutability": "view",
      "type": "function"
    },
    {
      "constant": true,
      "inputs": [
        {
          "internalType": "uint256",
          "name": "proposalId",
          "type": "uint256"
        },
        {
          "internalType": "address",
          "name": "voter",
          "type": "address"
        }
      ],
      "name": "getReceipt",
      "outputs": [
        {
          "components": [
            {
              "internalType": "bool",
              "name": "hasVoted",
              "type": "bool"
            },
            {
              "internalType": "bool",
              "name": "support",
              "type": "bool"
            },
            {
              "internalType": "uint96",
              "name": "votes",
              "type": "uint96"
            }
          ],
          "internalType": "struct GovernorAlpha.Receipt",
          "name": "",
          "type": "tuple"
        }
      ],
      "payable": false,
      "stateMutability": "view",
      "type": "function"
    },
    {
      "constant": true,
      "inputs": [
        {
          "internalType": "uint256",
          "name": "proposalId",
          "type": "uint256"
        }
      ],
      "name": "state",
      "outputs": [
        {
          "internalType": "enum GovernorAlpha.ProposalState",
          "name": "",
          "type": "uint8"
        }
      ],
      "payable": false,
      "stateMutability": "view",
      "type": "function"
    },
    {
      "constant": false,
      "inputs": [
        {
          "internalType": "uint256",
          "name": "proposalId",
          "type": "uint256"
        },
        {
          "internalType": "bool",
          "name": "support",
          "type": "bool"
        }
      ],
      "name": "castVote",
      "outputs": [],
      "payable": false,
      "stateMutability": "nonpayable",
      "type": "function"
    },
    {
      "constant": false,
      "inputs": [
        {
          "internalType": "uint256",
          "name": "proposalId",
          "type": "uint256"
        },
        {
          "internalType": "bool",
          "name": "support",
          "type": "bool"
        },
        {
          "internalType": "uint8",
          "name": "v",
          "type": "uint8"
        },
        {
          "internalType": "bytes32",
          "name": "r",
          "type": "bytes32"
        },
        {
          "internalType": "bytes32",
          "name": "s",
          "type": "bytes32"
        }
      ],
      "name": "castVoteBySig",
      "outputs": [],
      "payable": false,
      "stateMutability": "nonpayable",
      "type": "function"
    },
    {
      "constant": false,
      "inputs": [],
      "name": "__acceptAdmin",
      "outputs": [],
      "payable": false,
      "stateMutability": "nonpayable",
      "type": "function"
    },
    {
      "constant": false,
      "inputs": [],
      "name": "__abdicate",
      "outputs": [],
      "payable": false,
      "stateMutability": "nonpayable",
      "type": "function"
    },
    {
      "constant": false,
      "inputs": [
        {
          "internalType": "address",
          "name": "newPendingAdmin",
          "type": "address"
        },
        {
          "internalType": "uint256",
          "name": "eta",
          "type": "uint256"
        }
      ],
      "name": "__queueSetTimelockPendingAdmin",
      "outputs": [],
      "payable": false,
      "stateMutability": "nonpayable",
      "type": "function"
    },
    {
      "constant": false,
      "inputs": [
        {
          "internalType": "address",
          "name": "newPendingAdmin",
          "type": "address"
        },
        {
          "internalType": "uint256",
          "name": "eta",
          "type": "uint256"
        }
      ],
      "name": "__executeSetTimelockPendingAdmin",
      "outputs": [],
      "payable": false,
      "stateMutability": "nonpayable",
      "type": "function"
    }
  ],
  "bytecode": "0x60806040523480156200001157600080fd5b506040516200389d3803806200389d83398101604081905262000034916200008a565b600080546001600160a01b039485166001600160a01b0319918216179091556001805493851693821693909317909255600280549190931691161790556200010a565b80516200008481620000f0565b92915050565b600080600060608486031215620000a057600080fd5b6000620000ae868662000077565b9350506020620000c18682870162000077565b9250506040620000d48682870162000077565b9150509250925092565b60006001600160a01b03821662000084565b620000fb81620000de565b81146200010757600080fd5b50565b613783806200011a6000396000f3fe60806040526004361061013c5760003560e01c8063013cf08b1461014157806302a251a31461017f57806306fdde03146101a1578063109d0af8146101c357806315373e3d146101e557806317977c611461020757806320606b701461022757806321f43e421461023c57806324bc1a641461025c578063328dd982146102715780633932abb1146102a15780633e4f49e6146102b657806340e58ee5146102e3578063452a9320146103035780634634c61f14610325578063760fbc13146103455780637bdbe4d01461035a578063915006711461036f578063b58131b01461038f578063b9a61961146103a4578063d33219b4146103b9578063da35c664146103ce578063da95691a146103e3578063ddf0b00914610403578063deaaa7cc14610423578063e23a9a5214610438578063fe0d94c114610465575b600080fd5b34801561014d57600080fd5b5061016161015c3660046123de565b610478565b60405161017699989796959493929190613531565b60405180910390f35b34801561018b57600080fd5b506101946104d1565b604051610176919061325e565b3480156101ad57600080fd5b506101b66104d8565b604051610176919061331a565b3480156101cf57600080fd5b506101d861050b565b60405161017691906132fe565b3480156101f157600080fd5b5061020561020036600461242c565b61051a565b005b34801561021357600080fd5b50610194610222366004612227565b610529565b34801561023357600080fd5b5061019461053b565b34801561024857600080fd5b5061020561025736600461224d565b610552565b34801561026857600080fd5b50610194610639565b34801561027d57600080fd5b5061029161028c3660046123de565b610647565b6040516101769493929190613211565b3480156102ad57600080fd5b506101946108d6565b3480156102c257600080fd5b506102d66102d13660046123de565b6108db565b604051610176919061330c565b3480156102ef57600080fd5b506102056102fe3660046123de565b610a5d565b34801561030f57600080fd5b50610318610cc6565b60405161017691906130bb565b34801561033157600080fd5b5061020561034036600461245c565b610cd5565b34801561035157600080fd5b50610205610e6c565b34801561036657600080fd5b50610194610ea8565b34801561037b57600080fd5b5061020561038a36600461224d565b610ead565b34801561039b57600080fd5b50610194610f82565b3480156103b057600080fd5b50610205610f90565b3480156103c557600080fd5b506101d8611015565b3480156103da57600080fd5b50610194611024565b3480156103ef57600080fd5b506101946103fe366004612287565b61102a565b34801561040f57600080fd5b5061020561041e3660046123de565b61144c565b34801561042f57600080fd5b506101946116b6565b34801561044457600080fd5b506104586104533660046123fc565b6116c2565b604051610176919061347b565b6102056104733660046123de565b611731565b6004602052600090815260409020805460018201546002830154600784015460088501546009860154600a870154600b9097015495966001600160a01b0390951695939492939192909160ff8082169161010090041689565b6143805b90565b60405180604001604052806017815260200176436f6d706f756e6420476f7665726e6f7220416c70686160481b81525081565b6001546001600160a01b031681565b6105253383836118f6565b5050565b60056020526000908152604090205481565b604051610547906130a5565b604051809103902081565b6002546001600160a01b031633146105855760405162461bcd60e51b815260040161057c9061335b565b60405180910390fd5b600080546040516001600160a01b0390911691630825f38f918391906105af9087906020016130bb565b604051602081830303815290604052856040518563ffffffff1660e01b81526004016105de94939291906130e4565b600060405180830381600087803b1580156105f857600080fd5b505af115801561060c573d6000803e3d6000fd5b505050506040513d6000823e601f3d908101601f1916820160405261063491908101906123aa565b505050565b6954b40b1f852bda00000090565b606080606080600060046000878152602001908152602001600020905080600301816004018260050183600601838054806020026020016040519081016040528092919081815260200182805480156106c957602002820191906000526020600020905b81546001600160a01b031681526001909101906020018083116106ab575b505050505093508280548060200260200160405190810160405280929190818152602001828054801561071b57602002820191906000526020600020905b815481526020019060010190808311610707575b5050505050925081805480602002602001604051908101604052809291908181526020016000905b828210156107ee5760008481526020908190208301805460408051601f60026000196101006001871615020190941693909304928301859004850281018501909152818152928301828280156107da5780601f106107af576101008083540402835291602001916107da565b820191906000526020600020905b8154815290600101906020018083116107bd57829003601f168201915b505050505081526020019060010190610743565b50505050915080805480602002602001604051908101604052809291908181526020016000905b828210156108c05760008481526020908190208301805460408051601f60026000196101006001871615020190941693909304928301859004850281018501909152818152928301828280156108ac5780601f10610881576101008083540402835291602001916108ac565b820191906000526020600020905b81548152906001019060200180831161088f57829003601f168201915b505050505081526020019060010190610815565b5050505090509450945094509450509193509193565b600190565b600081600354101580156108ef5750600082115b61090b5760405162461bcd60e51b815260040161057c9061336b565b6000828152600460205260409020600b81015460ff1615610930576002915050610a58565b80600701544311610945576000915050610a58565b8060080154431161095a576001915050610a58565b80600a0154816009015411158061097b5750610974610639565b8160090154105b1561098a576003915050610a58565b600281015461099d576004915050610a58565b600b810154610100900460ff16156109b9576007915050610a58565b6002810154600054604080516360d143f160e11b81529051610a4293926001600160a01b03169163c1a287e2916004808301926020929190829003018186803b158015610a0557600080fd5b505afa158015610a19573d6000803e3d6000fd5b505050506040513d601f19601f82011682018060405250610a3d919081019061238c565b611aba565b4210610a52576006915050610a58565b60059150505b919050565b6000610a68826108db565b90506007816007811115610a7857fe5b1415610a965760405162461bcd60e51b815260040161057c9061343b565b60008281526004602052604090206002546001600160a01b0316331480610b615750610ac0610f82565b60018054838201546001600160a01b039182169263782d6fe19290911690610ae9904390611ae6565b6040518363ffffffff1660e01b8152600401610b06929190613133565b60206040518083038186803b158015610b1e57600080fd5b505afa158015610b32573d6000803e3d6000fd5b505050506040513d601f19601f82011682018060405250610b5691908101906124c4565b6001600160601b0316105b610b7d5760405162461bcd60e51b815260040161057c906133db565b600b8101805460ff1916600117905560005b6003820154811015610c89576000546003830180546001600160a01b039092169163591fcdfe919084908110610bc157fe5b6000918252602090912001546004850180546001600160a01b039092169185908110610be957fe5b9060005260206000200154856005018581548110610c0357fe5b90600052602060002001866006018681548110610c1c57fe5b9060005260206000200187600201546040518663ffffffff1660e01b8152600401610c4b9594939291906131d0565b600060405180830381600087803b158015610c6557600080fd5b505af1158015610c79573d6000803e3d6000fd5b505060019092019150610b8f9050565b507f789cf55be980739dad1d0699b93b58e806b51c9d96619bfa8fe0a28abaa7b30c83604051610cb9919061325e565b60405180910390a1505050565b6002546001600160a01b031681565b6000604051610ce3906130a5565b604080519182900382208282019091526017825276436f6d706f756e6420476f7665726e6f7220416c70686160481b6020909201919091527ff5eb22c2e7100465020c98b00537528808db4fec6eb24c550685a92742247bc5610d44611b0e565b30604051602001610d58949392919061326c565b6040516020818303038152906040528051906020012090506000604051610d7e906130b0565b604051908190038120610d9791899089906020016132a1565b60405160208183030381529060405280519060200120905060008282604051602001610dc4929190613074565b604051602081830303815290604052805190602001209050600060018288888860405160008152602001604052604051610e0194939291906132c9565b6020604051602081039080840390855afa158015610e23573d6000803e3d6000fd5b5050604051601f1901519150506001600160a01b038116610e565760405162461bcd60e51b815260040161057c9061341b565b610e61818a8a6118f6565b505050505050505050565b6002546001600160a01b03163314610e965760405162461bcd60e51b815260040161057c9061346b565b600280546001600160a01b0319169055565b600a90565b6002546001600160a01b03163314610ed75760405162461bcd60e51b815260040161057c9061339b565b600080546040516001600160a01b0390911691633a66f90191839190610f019087906020016130bb565b604051602081830303815290604052856040518563ffffffff1660e01b8152600401610f3094939291906130e4565b602060405180830381600087803b158015610f4a57600080fd5b505af1158015610f5e573d6000803e3d6000fd5b505050506040513d601f19601f82011682018060405250610634919081019061238c565b69152d02c7e14af680000090565b6002546001600160a01b03163314610fba5760405162461bcd60e51b815260040161057c9061332b565b6000805460408051630e18b68160e01b815290516001600160a01b0390921692630e18b6819260048084019382900301818387803b158015610ffb57600080fd5b505af115801561100f573d6000803e3d6000fd5b50505050565b6000546001600160a01b031681565b60035481565b6000611034610f82565b600180546001600160a01b03169063782d6fe1903390611055904390611ae6565b6040518363ffffffff1660e01b81526004016110729291906130c9565b60206040518083038186803b15801561108a57600080fd5b505afa15801561109e573d6000803e3d6000fd5b505050506040513d601f19601f820116820180604052506110c291908101906124c4565b6001600160601b0316116110e85760405162461bcd60e51b815260040161057c9061340b565b845186511480156110fa575083518651145b8015611107575082518651145b6111235760405162461bcd60e51b815260040161057c906133cb565b85516111415760405162461bcd60e51b815260040161057c906133fb565b611149610ea8565b865111156111695760405162461bcd60e51b815260040161057c906133ab565b3360009081526005602052604090205480156111e657600061118a826108db565b9050600181600781111561119a57fe5b14156111b85760405162461bcd60e51b815260040161057c9061342b565b60008160078111156111c657fe5b14156111e45760405162461bcd60e51b815260040161057c9061338b565b505b60006111f443610a3d6108d6565b9050600061120482610a3d6104d1565b6003805460010190559050611217611c71565b604051806101a001604052806003548152602001336001600160a01b03168152602001600081526020018b81526020018a815260200189815260200188815260200184815260200183815260200160008152602001600081526020016000151581526020016000151581525090508060046000836000015181526020019081526020016000206000820151816000015560208201518160010160006101000a8154816001600160a01b0302191690836001600160a01b031602179055506040820151816002015560608201518160030190805190602001906112fa929190611ce6565b5060808201518051611316916004840191602090910190611d4b565b5060a08201518051611332916005840191602090910190611d92565b5060c0820151805161134e916006840191602090910190611deb565b5060e082015181600701556101008201518160080155610120820151816009015561014082015181600a015561016082015181600b0160006101000a81548160ff02191690831515021790555061018082015181600b0160016101000a81548160ff02191690831515021790555090505080600001516005600083602001516001600160a01b03166001600160a01b03168152602001908152602001600020819055507f7d84a6263ae0d98d3329bd7b46bb4e8d6f98cd35a7adb45c274c8b7fd5ebd5e08160000151338c8c8c8c89898e60405161143499989796959493929190613489565b60405180910390a15193505050505b95945050505050565b6004611457826108db565b600781111561146257fe5b1461147f5760405162461bcd60e51b815260040161057c9061333b565b600081815260046020818152604080842084548251630d48571f60e31b815292519195946114d49442946001600160a01b0390931693636a42b8f8938084019390829003018186803b158015610a0557600080fd5b905060005b600383015481101561167c576116748360030182815481106114f757fe5b6000918252602090912001546004850180546001600160a01b03909216918490811061151f57fe5b906000526020600020015485600501848154811061153957fe5b600091825260209182902001805460408051601f60026000196101006001871615020190941693909304928301859004850281018501909152818152928301828280156115c75780601f1061159c576101008083540402835291602001916115c7565b820191906000526020600020905b8154815290600101906020018083116115aa57829003601f168201915b50505050508660060185815481106115db57fe5b600091825260209182902001805460408051601f60026000196101006001871615020190941693909304928301859004850281018501909152818152928301828280156116695780601f1061163e57610100808354040283529160200191611669565b820191906000526020600020905b81548152906001019060200180831161164c57829003601f168201915b505050505086611b12565b6001016114d9565b50600282018190556040517f9a2e42fd6722813d69113e7d0079d3d940171428df7373df9c7f7617cfda289290610cb990859084906135b7565b604051610547906130b0565b6116ca611e44565b5060008281526004602090815260408083206001600160a01b0385168452600c018252918290208251606081018452905460ff80821615158352610100820416151592820192909252620100009091046001600160601b0316918101919091525b92915050565b600561173c826108db565b600781111561174757fe5b146117645760405162461bcd60e51b815260040161057c9061334b565b6000818152600460205260408120600b8101805461ff001916610100179055905b60038201548110156118ba576000546004830180546001600160a01b0390921691630825f38f9190849081106117b757fe5b90600052602060002001548460030184815481106117d157fe5b6000918252602090912001546004860180546001600160a01b0390921691869081106117f957fe5b906000526020600020015486600501868154811061181357fe5b9060005260206000200187600601878154811061182c57fe5b9060005260206000200188600201546040518763ffffffff1660e01b815260040161185b9594939291906131d0565b6000604051808303818588803b15801561187457600080fd5b505af1158015611888573d6000803e3d6000fd5b50505050506040513d6000823e601f3d908101601f191682016040526118b191908101906123aa565b50600101611785565b507f712ae1383f79ac853f8d882153778e0260ef8f03b504e2866e0593e04d2b291f826040516118ea919061325e565b60405180910390a15050565b6001611901836108db565b600781111561190c57fe5b146119295760405162461bcd60e51b815260040161057c9061344b565b60008281526004602090815260408083206001600160a01b0387168452600c8101909252909120805460ff16156119725760405162461bcd60e51b815260040161057c9061337b565b600154600783015460405163782d6fe160e01b81526000926001600160a01b03169163782d6fe1916119a8918a91600401613133565b60206040518083038186803b1580156119c057600080fd5b505afa1580156119d4573d6000803e3d6000fd5b505050506040513d601f19601f820116820180604052506119f891908101906124c4565b90508315611a2157611a178360090154826001600160601b0316611aba565b6009840155611a3e565b611a3883600a0154826001600160601b0316611aba565b600a8401555b8154600160ff199091161761ff001916610100851515021762010000600160701b031916620100006001600160601b038316021782556040517f877856338e13f63d0c36822ff0ef736b80934cd90574a3a5bc9262c39d217c4690611aaa908890889088908690613141565b60405180910390a1505050505050565b600082820183811015611adf5760405162461bcd60e51b815260040161057c906133bb565b9392505050565b600082821115611b085760405162461bcd60e51b815260040161057c9061345b565b50900390565b4690565b6000546040516001600160a01b039091169063f2b0653790611b409088908890889088908890602001613176565b604051602081830303815290604052805190602001206040518263ffffffff1660e01b8152600401611b72919061325e565b60206040518083038186803b158015611b8a57600080fd5b505afa158015611b9e573d6000803e3d6000fd5b505050506040513d601f19601f82011682018060405250611bc2919081019061236e565b15611bdf5760405162461bcd60e51b815260040161057c906133eb565b600054604051633a66f90160e01b81526001600160a01b0390911690633a66f90190611c179088908890889088908890600401613176565b602060405180830381600087803b158015611c3157600080fd5b505af1158015611c45573d6000803e3d6000fd5b505050506040513d601f19601f82011682018060405250611c69919081019061238c565b505050505050565b604051806101a001604052806000815260200160006001600160a01b031681526020016000815260200160608152602001606081526020016060815260200160608152602001600081526020016000815260200160008152602001600081526020016000151581526020016000151581525090565b828054828255906000526020600020908101928215611d3b579160200282015b82811115611d3b57825182546001600160a01b0319166001600160a01b03909116178255602090920191600190910190611d06565b50611d47929150611e64565b5090565b828054828255906000526020600020908101928215611d86579160200282015b82811115611d86578251825591602001919060010190611d6b565b50611d47929150611e88565b828054828255906000526020600020908101928215611ddf579160200282015b82811115611ddf5782518051611dcf918491602090910190611ea2565b5091602001919060010190611db2565b50611d47929150611f0f565b828054828255906000526020600020908101928215611e38579160200282015b82811115611e385782518051611e28918491602090910190611ea2565b5091602001919060010190611e0b565b50611d47929150611f32565b604080516060810182526000808252602082018190529181019190915290565b6104d591905b80821115611d475780546001600160a01b0319168155600101611e6a565b6104d591905b80821115611d475760008155600101611e8e565b828054600181600116156101000203166002900490600052602060002090601f016020900481019282601f10611ee357805160ff1916838001178555611d86565b82800160010185558215611d865791820182811115611d86578251825591602001919060010190611d6b565b6104d591905b80821115611d47576000611f298282611f55565b50600101611f15565b6104d591905b80821115611d47576000611f4c8282611f55565b50600101611f38565b50805460018160011615610100020316600290046000825580601f10611f7b5750611f99565b601f016020900490600052602060002090810190611f999190611e88565b50565b803561172b81613708565b600082601f830112611fb857600080fd5b8135611fcb611fc6826135eb565b6135c5565b91508181835260208401935060208101905083856020840282011115611ff057600080fd5b60005b8381101561201c57816120068882611f9c565b8452506020928301929190910190600101611ff3565b5050505092915050565b600082601f83011261203757600080fd5b8135612045611fc6826135eb565b81815260209384019390925082018360005b8381101561201c578135860161206d888261217c565b8452506020928301929190910190600101612057565b600082601f83011261209457600080fd5b81356120a2611fc6826135eb565b81815260209384019390925082018360005b8381101561201c57813586016120ca888261217c565b84525060209283019291909101906001016120b4565b600082601f8301126120f157600080fd5b81356120ff611fc6826135eb565b9150818183526020840193506020810190508385602084028201111561212457600080fd5b60005b8381101561201c578161213a8882612166565b8452506020928301929190910190600101612127565b803561172b8161371c565b805161172b8161371c565b803561172b81613725565b805161172b81613725565b600082601f83011261218d57600080fd5b813561219b611fc68261360b565b915080825260208301602083018583830111156121b757600080fd5b6121c28382846136bc565b50505092915050565b600082601f8301126121dc57600080fd5b81516121ea611fc68261360b565b9150808252602083016020830185838301111561220657600080fd5b6121c28382846136c8565b803561172b8161372e565b805161172b81613737565b60006020828403121561223957600080fd5b60006122458484611f9c565b949350505050565b6000806040838503121561226057600080fd5b600061226c8585611f9c565b925050602061227d85828601612166565b9150509250929050565b600080600080600060a0868803121561229f57600080fd5b85356001600160401b038111156122b557600080fd5b6122c188828901611fa7565b95505060208601356001600160401b038111156122dd57600080fd5b6122e9888289016120e0565b94505060408601356001600160401b0381111561230557600080fd5b61231188828901612083565b93505060608601356001600160401b0381111561232d57600080fd5b61233988828901612026565b92505060808601356001600160401b0381111561235557600080fd5b6123618882890161217c565b9150509295509295909350565b60006020828403121561238057600080fd5b6000612245848461215b565b60006020828403121561239e57600080fd5b60006122458484612171565b6000602082840312156123bc57600080fd5b81516001600160401b038111156123d257600080fd5b612245848285016121cb565b6000602082840312156123f057600080fd5b60006122458484612166565b6000806040838503121561240f57600080fd5b600061241b8585612166565b925050602061227d85828601611f9c565b6000806040838503121561243f57600080fd5b600061244b8585612166565b925050602061227d85828601612150565b600080600080600060a0868803121561247457600080fd5b60006124808888612166565b955050602061249188828901612150565b94505060406124a288828901612211565b93505060606124b388828901612166565b925050608061236188828901612166565b6000602082840312156124d657600080fd5b6000612245848461221c565b60006124ee838361251d565b505060200190565b6000611adf83836126bf565b60006124ee83836126a5565b61251781613689565b82525050565b61251781613651565b600061253182613644565b61253b8185613648565b935061254683613632565b8060005b8381101561257457815161255e88826124e2565b975061256983613632565b92505060010161254a565b509495945050505050565b600061258a82613644565b6125948185613648565b9350836020820285016125a685613632565b8060005b858110156125e057848403895281516125c385826124f6565b94506125ce83613632565b60209a909a01999250506001016125aa565b5091979650505050505050565b60006125f882613644565b6126028185613648565b93508360208202850161261485613632565b8060005b858110156125e0578484038952815161263185826124f6565b945061263c83613632565b60209a909a0199925050600101612618565b600061265982613644565b6126638185613648565b935061266e83613632565b8060005b838110156125745781516126868882612502565b975061269183613632565b925050600101612672565b6125178161365c565b612517816104d5565b6125176126ba826104d5565b6104d5565b60006126ca82613644565b6126d48185613648565b93506126e48185602086016136c8565b6126ed816136f4565b9093019392505050565b600081546001811660008114612714576001811461273a57612779565b607f60028304166127258187613648565b60ff1984168152955050602085019250612779565b600282046127488187613648565b955061275385613638565b60005b8281101561277257815488820152600190910190602001612756565b8701945050505b505092915050565b61251781613690565b6125178161369b565b612517816136a6565b60006127a9603983613648565b7f476f7665726e6f72416c7068613a3a5f5f61636365707441646d696e3a207365815278373232b91036bab9ba1031329033b7bb1033bab0b93234b0b760391b602082015260400192915050565b6000612804604483613648565b7f476f7665726e6f72416c7068613a3a71756575653a2070726f706f73616c206381527f616e206f6e6c79206265207175657565642069662069742069732073756363656020820152631959195960e21b604082015260600192915050565b6000612870604583613648565b7f476f7665726e6f72416c7068613a3a657865637574653a2070726f706f73616c81527f2063616e206f6e6c7920626520657865637574656420696620697420697320716020820152641d595d595960da1b604082015260600192915050565b60006128dd600283610a58565b61190160f01b815260020192915050565b60006128fb604c83613648565b7f476f7665726e6f72416c7068613a3a5f5f6578656375746553657454696d656c81527f6f636b50656e64696e6741646d696e3a2073656e646572206d7573742062652060208201526b33b7bb1033bab0b93234b0b760a11b604082015260600192915050565b600061296f601883613648565b7773657450656e64696e6741646d696e28616464726573732960401b815260200192915050565b60006129a3602983613648565b7f476f7665726e6f72416c7068613a3a73746174653a20696e76616c69642070728152681bdc1bdcd85b081a5960ba1b602082015260400192915050565b60006129ee602d83613648565b7f476f7665726e6f72416c7068613a3a5f63617374566f74653a20766f7465722081526c185b1c9958591e481d9bdd1959609a1b602082015260400192915050565b6000612a3d605983613648565b7f476f7665726e6f72416c7068613a3a70726f706f73653a206f6e65206c69766581527f2070726f706f73616c207065722070726f706f7365722c20666f756e6420616e60208201527808185b1c9958591e481c195b991a5b99c81c1c9bdc1bdcd85b603a1b604082015260600192915050565b6000612abe604a83613648565b7f476f7665726e6f72416c7068613a3a5f5f717565756553657454696d656c6f6381527f6b50656e64696e6741646d696e3a2073656e646572206d75737420626520676f6020820152693b1033bab0b93234b0b760b11b604082015260600192915050565b6000612b30602883613648565b7f476f7665726e6f72416c7068613a3a70726f706f73653a20746f6f206d616e7981526720616374696f6e7360c01b602082015260400192915050565b6000612b7a601183613648565b706164646974696f6e206f766572666c6f7760781b815260200192915050565b6000612ba7604383610a58565b7f454950373132446f6d61696e28737472696e67206e616d652c75696e7432353681527f20636861696e49642c6164647265737320766572696679696e67436f6e74726160208201526263742960e81b604082015260430192915050565b6000612c12602783610a58565b7f42616c6c6f742875696e743235362070726f706f73616c49642c626f6f6c20738152667570706f72742960c81b602082015260270192915050565b6000612c5b604483613648565b7f476f7665726e6f72416c7068613a3a70726f706f73653a2070726f706f73616c81527f2066756e6374696f6e20696e666f726d6174696f6e206172697479206d69736d6020820152630c2e8c6d60e31b604082015260600192915050565b6000612cc7602f83613648565b7f476f7665726e6f72416c7068613a3a63616e63656c3a2070726f706f7365722081526e18589bdd99481d1a1c995cda1bdb19608a1b602082015260400192915050565b6000612d18604483613648565b7f476f7665726e6f72416c7068613a3a5f71756575654f725265766572743a207081527f726f706f73616c20616374696f6e20616c7265616479207175657565642061746020820152632065746160e01b604082015260600192915050565b6000612d84602c83613648565b7f476f7665726e6f72416c7068613a3a70726f706f73653a206d7573742070726f81526b7669646520616374696f6e7360a01b602082015260400192915050565b6000612dd2603f83613648565b7f476f7665726e6f72416c7068613a3a70726f706f73653a2070726f706f73657281527f20766f7465732062656c6f772070726f706f73616c207468726573686f6c6400602082015260400192915050565b6000612e31602f83613648565b7f476f7665726e6f72416c7068613a3a63617374566f746542795369673a20696e81526e76616c6964207369676e617475726560881b602082015260400192915050565b6000612e82605883613648565b7f476f7665726e6f72416c7068613a3a70726f706f73653a206f6e65206c69766581527f2070726f706f73616c207065722070726f706f7365722c20666f756e6420616e60208201527708185b1c9958591e481858dd1a5d99481c1c9bdc1bdcd85b60421b604082015260600192915050565b6000612f02603683613648565b7f476f7665726e6f72416c7068613a3a63616e63656c3a2063616e6e6f742063618152751b98d95b08195e1958dd5d1959081c1c9bdc1bdcd85b60521b602082015260400192915050565b6000612f5a602a83613648565b7f476f7665726e6f72416c7068613a3a5f63617374566f74653a20766f74696e67815269081a5cc818db1bdcd95960b21b602082015260400192915050565b6000612fa6601583613648565b747375627472616374696f6e20756e646572666c6f7760581b815260200192915050565b6000612fd7603683613648565b7f476f7665726e6f72416c7068613a3a5f5f61626469636174653a2073656e6465815275391036bab9ba1031329033b7bb1033bab0b93234b0b760511b602082015260400192915050565b80516060830190613033848261269c565b506020820151613046602085018261269c565b50604082015161100f604085018261306b565b61251781613677565b612517816136b1565b6125178161367d565b600061307f826128d0565b915061308b82856126ae565b60208201915061309b82846126ae565b5060200192915050565b600061172b82612b9a565b600061172b82612c05565b6020810161172b828461251d565b604081016130d7828561250e565b611adf60208301846126a5565b60a081016130f2828761251d565b6130ff6020830186612793565b818103604083015261311081612962565b9050818103606083015261312481856126bf565b905061144360808301846126a5565b604081016130d7828561251d565b6080810161314f828761251d565b61315c60208301866126a5565b613169604083018561269c565b6114436060830184613062565b60a08101613184828861251d565b61319160208301876126a5565b81810360408301526131a381866126bf565b905081810360608301526131b781856126bf565b90506131c660808301846126a5565b9695505050505050565b60a081016131de828861251d565b6131eb60208301876126a5565b81810360408301526131fd81866126f7565b905081810360608301526131b781856126f7565b608080825281016132228187612526565b90508181036020830152613236818661264e565b9050818103604083015261324a81856125ed565b905081810360608301526131c6818461257f565b6020810161172b82846126a5565b6080810161327a82876126a5565b61328760208301866126a5565b61329460408301856126a5565b611443606083018461251d565b606081016132af82866126a5565b6132bc60208301856126a5565b612245604083018461269c565b608081016132d782876126a5565b6132e46020830186613059565b6132f160408301856126a5565b61144360608301846126a5565b6020810161172b8284612781565b6020810161172b828461278a565b60208082528101611adf81846126bf565b6020808252810161172b8161279c565b6020808252810161172b816127f7565b6020808252810161172b81612863565b6020808252810161172b816128ee565b6020808252810161172b81612996565b6020808252810161172b816129e1565b6020808252810161172b81612a30565b6020808252810161172b81612ab1565b6020808252810161172b81612b23565b6020808252810161172b81612b6d565b6020808252810161172b81612c4e565b6020808252810161172b81612cba565b6020808252810161172b81612d0b565b6020808252810161172b81612d77565b6020808252810161172b81612dc5565b6020808252810161172b81612e24565b6020808252810161172b81612e75565b6020808252810161172b81612ef5565b6020808252810161172b81612f4d565b6020808252810161172b81612f99565b6020808252810161172b81612fca565b6060810161172b8284613022565b6101208101613498828c6126a5565b6134a5602083018b61250e565b81810360408301526134b7818a612526565b905081810360608301526134cb818961264e565b905081810360808301526134df81886125ed565b905081810360a08301526134f3818761257f565b905061350260c08301866126a5565b61350f60e08301856126a5565b81810361010083015261352281846126bf565b9b9a5050505050505050505050565b6101208101613540828c6126a5565b61354d602083018b61251d565b61355a604083018a6126a5565b61356760608301896126a5565b61357460808301886126a5565b61358160a08301876126a5565b61358e60c08301866126a5565b61359b60e083018561269c565b6135a961010083018461269c565b9a9950505050505050505050565b604081016130d782856126a5565b6040518181016001600160401b03811182821017156135e357600080fd5b604052919050565b60006001600160401b0382111561360157600080fd5b5060209081020190565b60006001600160401b0382111561362157600080fd5b506020601f91909101601f19160190565b60200190565b60009081526020902090565b5190565b90815260200190565b600061172b8261366b565b151590565b80610a58816136fe565b6001600160a01b031690565b60ff1690565b6001600160601b031690565b600061172b825b600061172b82613651565b600061172b82613661565b600061172b826104d5565b600061172b8261367d565b82818337506000910152565b60005b838110156136e35781810151838201526020016136cb565b8381111561100f5750506000910152565b601f01601f191690565b60088110611f9957fe5b61371181613651565b8114611f9957600080fd5b6137118161365c565b613711816104d5565b61371181613677565b6137118161367d56fea365627a7a72315820dc7386e50c4d2db39546a37d90c97a824444dda645398067d950eabe900aab626c6578706572696d656e74616cf564736f6c63430005100040",
  "source": "pragma solidity ^0.5.16;\npragma experimental ABIEncoderV2;\n\ncontract GovernorAlpha {\n    /// @notice The name of this contract\n    string public constant name = \"Compound Governor Alpha\";\n\n    /// @notice The number of votes in support of a proposal required in order for a quorum to be reached and for a vote to succeed\n    function quorumVotes() public pure returns (uint) { return 400000e18; } // 400,000 = 4% of Comp\n\n    /// @notice The number of votes required in order for a voter to become a proposer\n    function proposalThreshold() public pure returns (uint) { return 100000e18; } // 100,000 = 1% of Comp\n\n    /// @notice The maximum number of actions that can be included in a proposal\n    function proposalMaxOperations() public pure returns (uint) { return 10; } // 10 actions\n\n    /// @notice The delay before voting on a proposal may take place, once proposed\n    function votingDelay() public pure returns (uint) { return 1; } // 1 block\n\n    /// @notice The duration of voting on a proposal, in blocks\n    function votingPeriod() public pure returns (uint) { return 17280; } // ~3 days in blocks (assuming 15s blocks)\n\n    /// @notice The address of the Compound Protocol Timelock\n    TimelockInterface public timelock;\n\n    /// @notice The address of the Compound governance token\n    CompInterface public comp;\n\n    /// @notice The address of the Governor Guardian\n    address public guardian;\n\n    /// @notice The total number of proposals\n    uint public proposalCount;\n\n    struct Proposal {\n        /// @notice Unique id for looking up a proposal\n        uint id;\n\n        /// @notice Creator of the proposal\n        address proposer;\n\n        /// @notice The timestamp that the proposal will be available for execution, set once the vote succeeds\n        uint eta;\n\n        /// @notice the ordered list of target addresses for calls to be made\n        address[] targets;\n\n        /// @notice The ordered list of values (i.e. msg.value) to be passed to the calls to be made\n        uint[] values;\n\n        /// @notice The ordered list of function signatures to be called\n        string[] signatures;\n\n        /// @notice The ordered list of calldata to be passed to each call\n        bytes[] calldatas;\n\n        /// @notice The block at which voting begins: holders must delegate their votes prior to this block\n        uint startBlock;\n\n        /// @notice The block at which voting ends: votes must be cast prior to this block\n        uint endBlock;\n\n        /// @notice Current number of votes in favor of this proposal\n        uint forVotes;\n\n        /// @notice Current number of votes in opposition to this proposal\n        uint againstVotes;\n\n        /// @notice Flag marking whether the proposal has been canceled\n        bool canceled;\n\n        /// @notice Flag marking whether the proposal has been executed\n        bool executed;\n\n        /// @notice Receipts of ballots for the entire set of voters\n        mapping (address => Receipt) receipts;\n    }\n\n    /// @notice Ballot receipt record for a voter\n    struct Receipt {\n        /// @notice Whether or not a vote has been cast\n        bool hasVoted;\n\n        /// @notice Whether or not the voter supports the proposal\n        bool support;\n\n        /// @notice The number of votes the voter had, which were cast\n        uint96 votes;\n    }\n\n    /// @notice Possible states that a proposal may be in\n    enum ProposalState {\n        Pending,\n        Active,\n        Canceled,\n        Defeated,\n        Succeeded,\n        Queued,\n        Expired,\n        Executed\n    }\n\n    /// @notice The official record of all proposals ever proposed\n    mapping (uint => Proposal) public proposals;\n\n    /// @notice The latest proposal for each proposer\n    mapping (address => uint) public latestProposalIds;\n\n    /// @notice The EIP-712 typehash for the contract's domain\n    bytes32 public constant DOMAIN_TYPEHASH = keccak256(\"EIP712Domain(string name,uint256 chainId,address verifyingContract)\");\n\n    /// @notice The EIP-712 typehash for the ballot struct used by the contract\n    bytes32 public constant BALLOT_TYPEHASH = keccak256(\"Ballot(uint256 proposalId,bool support)\");\n\n    /// @notice An event emitted when a new proposal is created\n    event ProposalCreated(uint id, address proposer, address[] targets, uint[] values, string[] signatures, bytes[] calldatas, uint startBlock, uint endBlock, string description);\n\n    /// @notice An event emitted when a vote has been cast on a proposal\n    event VoteCast(address voter, uint proposalId, bool support, uint votes);\n\n    /// @notice An event emitted when a proposal has been canceled\n    event ProposalCanceled(uint id);\n\n    /// @notice An event emitted when a proposal has been queued in the Timelock\n    event ProposalQueued(uint id, uint eta);\n\n    /// @notice An event emitted when a proposal has been executed in the Timelock\n    event ProposalExecuted(uint id);\n\n    constructor(address timelock_, address comp_, address guardian_) public {\n        timelock = TimelockInterface(timelock_);\n        comp = CompInterface(comp_);\n        guardian = guardian_;\n    }\n\n    function propose(address[] memory targets, uint[] memory values, string[] memory signatures, bytes[] memory calldatas, string memory description) public returns (uint) {\n        require(comp.getPriorVotes(msg.sender, sub256(block.number, 1)) > proposalThreshold(), \"GovernorAlpha::propose: proposer votes below proposal threshold\");\n        require(targets.length == values.length && targets.length == signatures.length && targets.length == calldatas.length, \"GovernorAlpha::propose: proposal function information arity mismatch\");\n        require(targets.length != 0, \"GovernorAlpha::propose: must provide actions\");\n        require(targets.length <= proposalMaxOperations(), \"GovernorAlpha::propose: too many actions\");\n\n        uint latestProposalId = latestProposalIds[msg.sender];\n        if (latestProposalId != 0) {\n          ProposalState proposersLatestProposalState = state(latestProposalId);\n          require(proposersLatestProposalState != ProposalState.Active, \"GovernorAlpha::propose: one live proposal per proposer, found an already active proposal\");\n          require(proposersLatestProposalState != ProposalState.Pending, \"GovernorAlpha::propose: one live proposal per proposer, found an already pending proposal\");\n        }\n\n        uint startBlock = add256(block.number, votingDelay());\n        uint endBlock = add256(startBlock, votingPeriod());\n\n        proposalCount++;\n        Proposal memory newProposal = Proposal({\n            id: proposalCount,\n            proposer: msg.sender,\n            eta: 0,\n            targets: targets,\n            values: values,\n            signatures: signatures,\n            calldatas: calldatas,\n            startBlock: startBlock,\n            endBlock: endBlock,\n            forVotes: 0,\n            againstVotes: 0,\n            canceled: false,\n            executed: false\n        });\n\n        proposals[newProposal.id] = newProposal;\n        latestProposalIds[newProposal.proposer] = newProposal.id;\n\n        emit ProposalCreated(newProposal.id, msg.sender, targets, values, signatures, calldatas, startBlock, endBlock, description);\n        return newProposal.id;\n    }\n\n    function queue(uint proposalId) public {\n        require(state(proposalId) == ProposalState.Succeeded, \"GovernorAlpha::queue: proposal can only be queued if it is succeeded\");\n        Proposal storage proposal = proposals[proposalId];\n        uint eta = add256(block.timestamp, timelock.delay());\n        for (uint i = 0; i < proposal.targets.length; i++) {\n            _queueOrRevert(proposal.targets[i], proposal.values[i], proposal.signatures[i], proposal.calldatas[i], eta);\n        }\n        proposal.eta = eta;\n        emit ProposalQueued(proposalId, eta);\n    }\n\n    function _queueOrRevert(address target, uint value, string memory signature, bytes memory data, uint eta) internal {\n        require(!timelock.queuedTransactions(keccak256(abi.encode(target, value, signature, data, eta))), \"GovernorAlpha::_queueOrRevert: proposal action already queued at eta\");\n        timelock.queueTransaction(target, value, signature, data, eta);\n    }\n\n    function execute(uint proposalId) public payable {\n        require(state(proposalId) == ProposalState.Queued, \"GovernorAlpha::execute: proposal can only be executed if it is queued\");\n        Proposal storage proposal = proposals[proposalId];\n        proposal.executed = true;\n        for (uint i = 0; i < proposal.targets.length; i++) {\n            timelock.executeTransaction.value(proposal.values[i])(proposal.targets[i], proposal.values[i], proposal.signatures[i], proposal.calldatas[i], proposal.eta);\n        }\n        emit ProposalExecuted(proposalId);\n    }\n\n    function cancel(uint proposalId) public {\n        ProposalState state = state(proposalId);\n        require(state != ProposalState.Executed, \"GovernorAlpha::cancel: cannot cancel executed proposal\");\n\n        Proposal storage proposal = proposals[proposalId];\n        require(msg.sender == guardian || comp.getPriorVotes(proposal.proposer, sub256(block.number, 1)) < proposalThreshold(), \"GovernorAlpha::cancel: proposer above threshold\");\n\n        proposal.canceled = true;\n        for (uint i = 0; i < proposal.targets.length; i++) {\n            timelock.cancelTransaction(proposal.targets[i], proposal.values[i], proposal.signatures[i], proposal.calldatas[i], proposal.eta);\n        }\n\n        emit ProposalCanceled(proposalId);\n    }\n\n    function getActions(uint proposalId) public view returns (address[] memory targets, uint[] memory values, string[] memory signatures, bytes[] memory calldatas) {\n        Proposal storage p = proposals[proposalId];\n        return (p.targets, p.values, p.signatures, p.calldatas);\n    }\n\n    function getReceipt(uint proposalId, address voter) public view returns (Receipt memory) {\n        return proposals[proposalId].receipts[voter];\n    }\n\n    function state(uint proposalId) public view returns (ProposalState) {\n        require(proposalCount >= proposalId && proposalId > 0, \"GovernorAlpha::state: invalid proposal id\");\n        Proposal storage proposal = proposals[proposalId];\n        if (proposal.canceled) {\n            return ProposalState.Canceled;\n        } else if (block.number <= proposal.startBlock) {\n            return ProposalState.Pending;\n        } else if (block.number <= proposal.endBlock) {\n            return ProposalState.Active;\n        } else if (proposal.forVotes <= proposal.againstVotes || proposal.forVotes < quorumVotes()) {\n            return ProposalState.Defeated;\n        } else if (proposal.eta == 0) {\n            return ProposalState.Succeeded;\n        } else if (proposal.executed) {\n            return ProposalState.Executed;\n        } else if (block.timestamp >= add256(proposal.eta, timelock.GRACE_PERIOD())) {\n            return ProposalState.Expired;\n        } else {\n            return ProposalState.Queued;\n        }\n    }\n\n    function castVote(uint proposalId, bool support) public {\n        return _castVote(msg.sender, proposalId, support);\n    }\n\n    function castVoteBySig(uint proposalId, bool support, uint8 v, bytes32 r, bytes32 s) public {\n        bytes32 domainSeparator = keccak256(abi.encode(DOMAIN_TYPEHASH, keccak256(bytes(name)), getChainId(), address(this)));\n        bytes32 structHash = keccak256(abi.encode(BALLOT_TYPEHASH, proposalId, support));\n        bytes32 digest = keccak256(abi.encodePacked(\"\\x19\\x01\", domainSeparator, structHash));\n        address signatory = ecrecover(digest, v, r, s);\n        require(signatory != address(0), \"GovernorAlpha::castVoteBySig: invalid signature\");\n        return _castVote(signatory, proposalId, support);\n    }\n\n    function _castVote(address voter, uint proposalId, bool support) internal {\n        require(state(proposalId) == ProposalState.Active, \"GovernorAlpha::_castVote: voting is closed\");\n        Proposal storage proposal = proposals[proposalId];\n        Receipt storage receipt = proposal.receipts[voter];\n        require(receipt.hasVoted == false, \"GovernorAlpha::_castVote: voter already voted\");\n        uint96 votes = comp.getPriorVotes(voter, proposal.startBlock);\n\n        if (support) {\n            proposal.forVotes = add256(proposal.forVotes, votes);\n        } else {\n            proposal.againstVotes = add256(proposal.againstVotes, votes);\n        }\n\n        receipt.hasVoted = true;\n        receipt.support = support;\n        receipt.votes = votes;\n\n        emit VoteCast(voter, proposalId, support, votes);\n    }\n\n    function __acceptAdmin() public {\n        require(msg.sender == guardian, \"GovernorAlpha::__acceptAdmin: sender must be gov guardian\");\n        timelock.acceptAdmin();\n    }\n\n    function __abdicate() public {\n        require(msg.sender == guardian, \"GovernorAlpha::__abdicate: sender must be gov guardian\");\n        guardian = address(0);\n    }\n\n    function __queueSetTimelockPendingAdmin(address newPendingAdmin, uint eta) public {\n        require(msg.sender == guardian, \"GovernorAlpha::__queueSetTimelockPendingAdmin: sender must be gov guardian\");\n        timelock.queueTransaction(address(timelock), 0, \"setPendingAdmin(address)\", abi.encode(newPendingAdmin), eta);\n    }\n\n    function __executeSetTimelockPendingAdmin(address newPendingAdmin, uint eta) public {\n        require(msg.sender == guardian, \"GovernorAlpha::__executeSetTimelockPendingAdmin: sender must be gov guardian\");\n        timelock.executeTransaction(address(timelock), 0, \"setPendingAdmin(address)\", abi.encode(newPendingAdmin), eta);\n    }\n\n    function add256(uint256 a, uint256 b) internal pure returns (uint) {\n        uint c = a + b;\n        require(c >= a, \"addition overflow\");\n        return c;\n    }\n\n    function sub256(uint256 a, uint256 b) internal pure returns (uint) {\n        require(b <= a, \"subtraction underflow\");\n        return a - b;\n    }\n\n    function getChainId() internal pure returns (uint) {\n        uint chainId;\n        assembly { chainId := chainid() }\n        return chainId;\n    }\n}\n\ninterface TimelockInterface {\n    function delay() external view returns (uint);\n    function GRACE_PERIOD() external view returns (uint);\n    function acceptAdmin() external;\n    function queuedTransactions(bytes32 hash) external view returns (bool);\n    function queueTransaction(address target, uint value, string calldata signature, bytes calldata data, uint eta) external returns (bytes32);\n    function cancelTransaction(address target, uint value, string calldata signature, bytes calldata data, uint eta) external;\n    function executeTransaction(address target, uint value, string calldata signature, bytes calldata data, uint eta) external payable returns (bytes memory);\n}\n\ninterface CompInterface {\n    function getPriorVotes(address account, uint blockNumber) external view returns (uint96);\n}\n",
  "sourcePath": "/Users/ashton/repo/blockchain/eth/smartcontracts/quicksilver-protocol/contracts/compound/Governance/GovernorAlpha.sol",
  "compiler": {
    "name": "solc",
    "version": "0.5.16+commit.9c3226ce.Emscripten.clang"
  },
  "schemaVersion": "3.2.0",
  "updatedAt": "2021-01-14T03:31:04.583Z",
  "devdoc": {
    "methods": {}
  },
  "userdoc": {
    "methods": {
      "proposalMaxOperations()": {
        "notice": "The maximum number of actions that can be included in a proposal"
      },
      "proposalThreshold()": {
        "notice": "The number of votes required in order for a voter to become a proposer"
      },
      "quorumVotes()": {
        "notice": "The number of votes in support of a proposal required in order for a quorum to be reached and for a vote to succeed"
      },
      "votingDelay()": {
        "notice": "The delay before voting on a proposal may take place, once proposed"
      },
      "votingPeriod()": {
        "notice": "The duration of voting on a proposal, in blocks"
      }
    }
  }
}