{
  "contractName": "JugLike",
  "abi": [
    {
      "constant": true,
      "inputs": [],
      "name": "base",
      "outputs": [
        {
          "internalType": "uint256",
          "name": "",
          "type": "uint256"
        }
      ],
      "payable": false,
      "stateMutability": "view",
      "type": "function"
    },
    {
      "constant": true,
      "inputs": [
        {
          "internalType": "bytes32",
          "name": "",
          "type": "bytes32"
        }
      ],
      "name": "ilks",
      "outputs": [
        {
          "internalType": "uint256",
          "name": "duty",
          "type": "uint256"
        },
        {
          "internalType": "uint256",
          "name": "rho",
          "type": "uint256"
        }
      ],
      "payable": false,
      "stateMutability": "view",
      "type": "function"
    }
  ],
  "bytecode": "0x608060405234801561001057600080fd5b5060d68061001f6000396000f3fe6080604052348015600f57600080fd5b506004361060325760003560e01c80635001f3b5146037578063d9638d3614604f575b600080fd5b603d6082565b60408051918252519081900360200190f35b606960048036036020811015606357600080fd5b50356088565b6040805192835260208301919091528051918290030190f35b60015481565b600060208190529081526040902080546001909101548256fea265627a7a723158201a9565f0ae74e845886c5b9649e634817886ef1b312ac82b773137a4f9a5d4ad64736f6c63430005100032",
  "source": "pragma solidity ^0.5.16;\n\nimport \"./JumpRateModel.sol\";\nimport \"./SafeMath.sol\";\n\n/**\n  * @title Compound's DAIInterestRateModel Contract (version 2)\n  * @author Compound (modified by Dharma Labs)\n  * @notice The parameterized model described in section 2.4 of the original Compound Protocol whitepaper.\n  * Version 2 modifies the original interest rate model by increasing the \"gap\" or slope of the model prior\n  * to the \"kink\" from 0.05% to 2% with the goal of \"smoothing out\" interest rate changes as the utilization\n  * rate increases.\n  */\ncontract DAIInterestRateModelV2 is JumpRateModel {\n    using SafeMath for uint;\n\n    /**\n     * @notice The additional margin per block separating the base borrow rate from the roof (2% / block).\n     * Note that this value has been increased from the original value of 0.05% per block.\n     */\n    uint public constant gapPerBlock = 2e16 / blocksPerYear;\n\n    /**\n     * @notice The assumed (1 - reserve factor) used to calculate the minimum borrow rate (reserve factor = 0.05)\n     */\n    uint public constant assumedOneMinusReserveFactorMantissa = 0.95e18;\n\n    PotLike pot;\n    JugLike jug;\n\n    /**\n     * @notice Construct an interest rate model\n     * @param jumpMultiplierPerYear The multiplierPerBlock after hitting a specified utilization point\n     * @param kink_ The utilization point at which the jump multiplier is applied\n     * @param pot_ The address of the Dai pot (where DSR is earned)\n     * @param jug_ The address of the Dai jug (where SF is kept)\n     */\n    constructor(uint jumpMultiplierPerYear, uint kink_, address pot_, address jug_) JumpRateModel(0, 0, jumpMultiplierPerYear, kink_) public {\n        pot = PotLike(pot_);\n        jug = JugLike(jug_);\n        poke();\n    }\n\n    /**\n     * @notice Calculates the current supply interest rate per block including the Dai savings rate\n     * @param cash The total amount of cash the market has\n     * @param borrows The total amount of borrows the market has outstanding\n     * @param reserves The total amnount of reserves the market has\n     * @param reserveFactorMantissa The current reserve factor the market has\n     * @return The supply rate per block (as a percentage, and scaled by 1e18)\n     */\n    function getSupplyRate(uint cash, uint borrows, uint reserves, uint reserveFactorMantissa) public view returns (uint) {\n        uint protocolRate = super.getSupplyRate(cash, borrows, reserves, reserveFactorMantissa);\n\n        uint underlying = cash.add(borrows).sub(reserves);\n        if (underlying == 0) {\n            return protocolRate;\n        } else {\n            uint cashRate = cash.mul(dsrPerBlock()).div(underlying);\n            return cashRate.add(protocolRate);\n        }\n    }\n\n    /**\n     * @notice Calculates the Dai savings rate per block\n     * @return The Dai savings rate per block (as a percentage, and scaled by 1e18)\n     */\n    function dsrPerBlock() public view returns (uint) {\n        return pot\n            .dsr().sub(1e27)  // scaled 1e27 aka RAY, and includes an extra \"ONE\" before subraction\n            .div(1e9) // descale to 1e18\n            .mul(15); // 15 seconds per block\n    }\n\n    /**\n     * @notice Resets the baseRate and multiplier per block based on the stability fee and Dai savings rate\n     */\n    function poke() public {\n        (uint duty, ) = jug.ilks(\"ETH-A\");\n        uint stabilityFeePerBlock = duty.add(jug.base()).sub(1e27).mul(1e18).div(1e27).mul(15);\n\n        // We ensure the minimum borrow rate >= DSR / (1 - reserve factor)\n        baseRatePerBlock = dsrPerBlock().mul(1e18).div(assumedOneMinusReserveFactorMantissa);\n\n        // The roof borrow rate is max(base rate, stability fee) + gap, from which we derive the slope\n        if (baseRatePerBlock < stabilityFeePerBlock) {\n            multiplierPerBlock = stabilityFeePerBlock.sub(baseRatePerBlock).add(gapPerBlock).mul(1e18).div(kink);\n        } else {\n            multiplierPerBlock = gapPerBlock.mul(1e18).div(kink);\n        }\n\n        emit NewInterestParams(baseRatePerBlock, multiplierPerBlock, jumpMultiplierPerBlock, kink);\n    }\n}\n\n\n/*** Maker Interfaces ***/\n\ncontract PotLike {\n    function chi() external view returns (uint);\n    function dsr() external view returns (uint);\n    function rho() external view returns (uint);\n    function pie(address) external view returns (uint);\n    function drip() external returns (uint);\n    function join(uint) external;\n    function exit(uint) external;\n}\n\ncontract JugLike {\n    // --- Data ---\n    struct Ilk {\n        uint256 duty;\n        uint256  rho;\n    }\n\n   mapping (bytes32 => Ilk) public ilks;\n   uint256 public base;\n}\n",
  "sourcePath": "/Users/songsjun/Workspace/Quicksilver/quicksilver-protocol/contracts/compound/DAIInterestRateModelV2.sol",
  "compiler": {
    "name": "solc",
    "version": "0.5.16+commit.9c3226ce.Emscripten.clang"
  },
  "schemaVersion": "3.2.5",
  "updatedAt": "2020-11-29T03:56:05.080Z",
  "devdoc": {
    "methods": {}
  },
  "userdoc": {
    "methods": {}
  }
}