{
  "contractName": "MockPriceOracle",
  "abi": [
    {
      "constant": true,
      "inputs": [],
      "name": "isPriceOracle",
      "outputs": [
        {
          "internalType": "bool",
          "name": "",
          "type": "bool"
        }
      ],
      "payable": false,
      "stateMutability": "view",
      "type": "function"
    },
    {
      "constant": true,
      "inputs": [
        {
          "internalType": "contract CToken",
          "name": "cToken",
          "type": "address"
        }
      ],
      "name": "getUnderlyingPrice",
      "outputs": [
        {
          "internalType": "uint256",
          "name": "",
          "type": "uint256"
        }
      ],
      "payable": false,
      "stateMutability": "view",
      "type": "function"
    }
  ],
  "bytecode": "0x608060405234801561001057600080fd5b506105f8806100206000396000f3fe608060405234801561001057600080fd5b50600436106100365760003560e01c806366331bba1461003b578063fc57d4df14610057575b600080fd5b61004361008f565b604080519115158252519081900360200190f35b61007d6004803603602081101561006d57600080fd5b50356001600160a01b0316610094565b60408051918252519081900360200190f35b600181565b60006101d9826001600160a01b03166395d89b416040518163ffffffff1660e01b815260040160006040518083038186803b1580156100d257600080fd5b505afa1580156100e6573d6000803e3d6000fd5b505050506040513d6000823e601f3d908101601f19168201604052602081101561010f57600080fd5b8101908080516040519392919084600160201b82111561012e57600080fd5b90830190602082018581111561014357600080fd5b8251600160201b81118282018810171561015c57600080fd5b82525081516020918201929091019080838360005b83811015610189578181015183820152602001610171565b50505050905090810190601f1680156101b65780820380516001836020036101000a031916815260200191505b506040818101905260048152630e68aa8960e31b6020820152925061037e915050565b806103225750610322826001600160a01b03166395d89b416040518163ffffffff1660e01b815260040160006040518083038186803b15801561021b57600080fd5b505afa15801561022f573d6000803e3d6000fd5b505050506040513d6000823e601f3d908101601f19168201604052602081101561025857600080fd5b8101908080516040519392919084600160201b82111561027757600080fd5b90830190602082018581111561028c57600080fd5b8251600160201b8111828201881017156102a557600080fd5b82525081516020918201929091019080838360005b838110156102d25781810151838201526020016102ba565b50505050905090810190601f1680156102ff5780820380516001836020036101000a031916815260200191505b5060408181019052600481526373454c4160e01b6020820152925061037e915050565b156103365750670de0b6b3a7640000610379565b678ac7230489e8000063ee6b2800600061036e8261036285670de0b6b3a764000063ffffffff61046616565b9063ffffffff6104c616565b935061037992505050565b919050565b6000816040516020018082805190602001908083835b602083106103b35780518252601f199092019160209182019101610394565b6001836020036101000a03801982511681845116808217855250505050505090500191505060405160208183030381529060405280519060200120836040516020018082805190602001908083835b602083106104215780518252601f199092019160209182019101610402565b6001836020036101000a038019825116818451168082178552505050505050905001915050604051602081830303815290604052805190602001201490505b92915050565b60008261047557506000610460565b8282028284828161048257fe5b04146104bf5760405162461bcd60e51b81526004018080602001828103825260218152602001806105a36021913960400191505060405180910390fd5b9392505050565b60006104bf83836040518060400160405280601a815260200179536166654d6174683a206469766973696f6e206279207a65726f60301b8152506000818361058c5760405162461bcd60e51b81526004018080602001828103825283818151815260200191508051906020019080838360005b83811015610551578181015183820152602001610539565b50505050905090810190601f16801561057e5780820380516001836020036101000a031916815260200191505b509250505060405180910390fd5b50600083858161059857fe5b049594505050505056fe536166654d6174683a206d756c7469706c69636174696f6e206f766572666c6f77a265627a7a72315820b73b9264741869d2a6ebda58c194f32b21296ec584bccec536af6eea3aca3ce564736f6c63430005100032",
  "source": "pragma solidity ^0.5.16;\n\nimport \"../compound/PriceOracle.sol\";\nimport \"../compound/SafeMath.sol\";\n\ncontract MockPriceOracle is PriceOracle {\n    using SafeMath for uint256;\n\n    function getUnderlyingPrice(CToken cToken) external view returns (uint) {\n        if (compareStrings(cToken.symbol(), \"sETH\") || compareStrings(cToken.symbol(), \"sELA\")) {\n            return 1e18;\n        } else {\n            // 10 ETH\n            uint256 ethAmount = 10e18;\n            // 4000 USDT\n            uint256 tokenAmount = 4000 * 1e6;\n            uint256 ethForToken = ethAmount.mul(1e18).div(tokenAmount);\n            return ethForToken;\n        }\n    }\n\n    function compareStrings(string memory a, string memory b) internal pure returns (bool) {\n        return (keccak256(abi.encodePacked((a))) == keccak256(abi.encodePacked((b))));\n    }\n}\n",
  "sourcePath": "/Users/songsjun/Workspace/Quicksilver/quicksilver-protocol/contracts/mock/MockPriceOracle.sol",
  "compiler": {
    "name": "solc",
    "version": "0.5.16+commit.9c3226ce.Emscripten.clang"
  },
  "schemaVersion": "3.2.5",
  "updatedAt": "2020-11-29T03:56:05.158Z",
  "devdoc": {
    "methods": {}
  },
  "userdoc": {
    "methods": {}
  }
}