{
  "contractName": "QsConfig",
  "abi": [
    {
      "inputs": [
        {
          "internalType": "contract QsConfig",
          "name": "previousQsConfig",
          "type": "address"
        }
      ],
      "payable": false,
      "stateMutability": "nonpayable",
      "type": "constructor"
    },
    {
      "anonymous": false,
      "inputs": [
        {
          "indexed": false,
          "internalType": "address",
          "name": "user",
          "type": "address"
        },
        {
          "indexed": false,
          "internalType": "bool",
          "name": "enabled",
          "type": "bool"
        }
      ],
      "name": "BlacklistChange",
      "type": "event"
    },
    {
      "anonymous": false,
      "inputs": [
        {
          "indexed": false,
          "internalType": "address",
          "name": "protocol",
          "type": "address"
        },
        {
          "indexed": false,
          "internalType": "uint256",
          "name": "creditLimit",
          "type": "uint256"
        }
      ],
      "name": "CreditLimitChanged",
      "type": "event"
    },
    {
      "anonymous": false,
      "inputs": [
        {
          "indexed": false,
          "internalType": "uint256",
          "name": "oldFeeRatio",
          "type": "uint256"
        },
        {
          "indexed": false,
          "internalType": "uint256",
          "name": "newFeeRatio",
          "type": "uint256"
        }
      ],
      "name": "FlashLoanFeeRatioChanged",
      "type": "event"
    },
    {
      "anonymous": false,
      "inputs": [
        {
          "indexed": true,
          "internalType": "address",
          "name": "cToken",
          "type": "address"
        },
        {
          "indexed": false,
          "internalType": "uint256",
          "name": "newBorrowCap",
          "type": "uint256"
        }
      ],
      "name": "NewBorrowCap",
      "type": "event"
    },
    {
      "anonymous": false,
      "inputs": [
        {
          "indexed": false,
          "internalType": "uint256",
          "name": "oldCompRatio",
          "type": "uint256"
        },
        {
          "indexed": false,
          "internalType": "uint256",
          "name": "newCompRatio",
          "type": "uint256"
        }
      ],
      "name": "NewCompRatio",
      "type": "event"
    },
    {
      "anonymous": false,
      "inputs": [
        {
          "indexed": false,
          "internalType": "address",
          "name": "oldCompToken",
          "type": "address"
        },
        {
          "indexed": false,
          "internalType": "address",
          "name": "newCompToken",
          "type": "address"
        }
      ],
      "name": "NewCompToken",
      "type": "event"
    },
    {
      "anonymous": false,
      "inputs": [
        {
          "indexed": true,
          "internalType": "address",
          "name": "cToken",
          "type": "address"
        },
        {
          "indexed": false,
          "internalType": "uint256",
          "name": "newFlashLoanCap",
          "type": "uint256"
        }
      ],
      "name": "NewFlashLoanCap",
      "type": "event"
    },
    {
      "anonymous": false,
      "inputs": [
        {
          "indexed": false,
          "internalType": "address",
          "name": "oldSafetyVault",
          "type": "address"
        },
        {
          "indexed": false,
          "internalType": "address",
          "name": "newSafetyVault",
          "type": "address"
        }
      ],
      "name": "NewSafetyVault",
      "type": "event"
    },
    {
      "anonymous": false,
      "inputs": [
        {
          "indexed": false,
          "internalType": "uint256",
          "name": "oldSafetyVaultRatio",
          "type": "uint256"
        },
        {
          "indexed": false,
          "internalType": "uint256",
          "name": "newSafetyVault",
          "type": "uint256"
        }
      ],
      "name": "NewSafetyVaultRatio",
      "type": "event"
    },
    {
      "anonymous": false,
      "inputs": [
        {
          "indexed": true,
          "internalType": "address",
          "name": "cToken",
          "type": "address"
        },
        {
          "indexed": false,
          "internalType": "uint256",
          "name": "newSupplyCap",
          "type": "uint256"
        }
      ],
      "name": "NewSupplyCap",
      "type": "event"
    },
    {
      "anonymous": false,
      "inputs": [
        {
          "indexed": true,
          "internalType": "address",
          "name": "previousOwner",
          "type": "address"
        },
        {
          "indexed": true,
          "internalType": "address",
          "name": "newOwner",
          "type": "address"
        }
      ],
      "name": "OwnershipTransferred",
      "type": "event"
    },
    {
      "anonymous": false,
      "inputs": [
        {
          "indexed": false,
          "internalType": "address",
          "name": "user",
          "type": "address"
        },
        {
          "indexed": false,
          "internalType": "bool",
          "name": "enabled",
          "type": "bool"
        }
      ],
      "name": "WhitelistChange",
      "type": "event"
    },
    {
      "constant": true,
      "inputs": [],
      "name": "_owner",
      "outputs": [
        {
          "internalType": "address",
          "name": "",
          "type": "address"
        }
      ],
      "payable": false,
      "stateMutability": "view",
      "type": "function"
    },
    {
      "constant": true,
      "inputs": [
        {
          "internalType": "address",
          "name": "",
          "type": "address"
        }
      ],
      "name": "blacklist",
      "outputs": [
        {
          "internalType": "bool",
          "name": "",
          "type": "bool"
        }
      ],
      "payable": false,
      "stateMutability": "view",
      "type": "function"
    },
    {
      "constant": true,
      "inputs": [],
      "name": "compRatio",
      "outputs": [
        {
          "internalType": "uint256",
          "name": "",
          "type": "uint256"
        }
      ],
      "payable": false,
      "stateMutability": "view",
      "type": "function"
    },
    {
      "constant": true,
      "inputs": [],
      "name": "compSpeedGuardianPaused",
      "outputs": [
        {
          "internalType": "bool",
          "name": "",
          "type": "bool"
        }
      ],
      "payable": false,
      "stateMutability": "view",
      "type": "function"
    },
    {
      "constant": true,
      "inputs": [],
      "name": "compToken",
      "outputs": [
        {
          "internalType": "address",
          "name": "",
          "type": "address"
        }
      ],
      "payable": false,
      "stateMutability": "view",
      "type": "function"
    },
    {
      "constant": true,
      "inputs": [
        {
          "internalType": "address",
          "name": "",
          "type": "address"
        }
      ],
      "name": "creditLimits",
      "outputs": [
        {
          "internalType": "uint256",
          "name": "",
          "type": "uint256"
        }
      ],
      "payable": false,
      "stateMutability": "view",
      "type": "function"
    },
    {
      "constant": true,
      "inputs": [],
      "name": "flashLoanFeeRatio",
      "outputs": [
        {
          "internalType": "uint256",
          "name": "",
          "type": "uint256"
        }
      ],
      "payable": false,
      "stateMutability": "view",
      "type": "function"
    },
    {
      "constant": true,
      "inputs": [],
      "name": "owner",
      "outputs": [
        {
          "internalType": "address",
          "name": "",
          "type": "address"
        }
      ],
      "payable": false,
      "stateMutability": "view",
      "type": "function"
    },
    {
      "constant": false,
      "inputs": [],
      "name": "renounceOwnership",
      "outputs": [],
      "payable": false,
      "stateMutability": "nonpayable",
      "type": "function"
    },
    {
      "constant": true,
      "inputs": [],
      "name": "safetyVault",
      "outputs": [
        {
          "internalType": "address",
          "name": "",
          "type": "address"
        }
      ],
      "payable": false,
      "stateMutability": "view",
      "type": "function"
    },
    {
      "constant": true,
      "inputs": [],
      "name": "safetyVaultRatio",
      "outputs": [
        {
          "internalType": "uint256",
          "name": "",
          "type": "uint256"
        }
      ],
      "payable": false,
      "stateMutability": "view",
      "type": "function"
    },
    {
      "constant": false,
      "inputs": [
        {
          "internalType": "address",
          "name": "newOwner",
          "type": "address"
        }
      ],
      "name": "transferOwnership",
      "outputs": [],
      "payable": false,
      "stateMutability": "nonpayable",
      "type": "function"
    },
    {
      "constant": true,
      "inputs": [
        {
          "internalType": "address",
          "name": "",
          "type": "address"
        }
      ],
      "name": "whitelist",
      "outputs": [
        {
          "internalType": "bool",
          "name": "",
          "type": "bool"
        }
      ],
      "payable": false,
      "stateMutability": "view",
      "type": "function"
    },
    {
      "constant": false,
      "inputs": [
        {
          "internalType": "address[]",
          "name": "cTokens",
          "type": "address[]"
        },
        {
          "internalType": "uint256[]",
          "name": "newBorrowCaps",
          "type": "uint256[]"
        }
      ],
      "name": "_setMarketBorrowCaps",
      "outputs": [],
      "payable": false,
      "stateMutability": "nonpayable",
      "type": "function"
    },
    {
      "constant": false,
      "inputs": [
        {
          "internalType": "address[]",
          "name": "cTokens",
          "type": "address[]"
        },
        {
          "internalType": "uint256[]",
          "name": "newFlashLoanCaps",
          "type": "uint256[]"
        }
      ],
      "name": "_setMarketFlashLoanCaps",
      "outputs": [],
      "payable": false,
      "stateMutability": "nonpayable",
      "type": "function"
    },
    {
      "constant": false,
      "inputs": [
        {
          "internalType": "address[]",
          "name": "cTokens",
          "type": "address[]"
        },
        {
          "internalType": "uint256[]",
          "name": "newSupplyCaps",
          "type": "uint256[]"
        }
      ],
      "name": "_setMarketSupplyCaps",
      "outputs": [],
      "payable": false,
      "stateMutability": "nonpayable",
      "type": "function"
    },
    {
      "constant": false,
      "inputs": [
        {
          "internalType": "address",
          "name": "protocol",
          "type": "address"
        },
        {
          "internalType": "uint256",
          "name": "creditLimit",
          "type": "uint256"
        }
      ],
      "name": "_setCreditLimit",
      "outputs": [],
      "payable": false,
      "stateMutability": "nonpayable",
      "type": "function"
    },
    {
      "constant": false,
      "inputs": [
        {
          "internalType": "address",
          "name": "_compToken",
          "type": "address"
        }
      ],
      "name": "_setCompToken",
      "outputs": [],
      "payable": false,
      "stateMutability": "nonpayable",
      "type": "function"
    },
    {
      "constant": false,
      "inputs": [
        {
          "internalType": "address",
          "name": "_safetyVault",
          "type": "address"
        }
      ],
      "name": "_setSafetyVault",
      "outputs": [],
      "payable": false,
      "stateMutability": "nonpayable",
      "type": "function"
    },
    {
      "constant": false,
      "inputs": [
        {
          "internalType": "uint256",
          "name": "_safetyVaultRatio",
          "type": "uint256"
        }
      ],
      "name": "_setSafetyVaultRatio",
      "outputs": [],
      "payable": false,
      "stateMutability": "nonpayable",
      "type": "function"
    },
    {
      "constant": false,
      "inputs": [
        {
          "internalType": "bool",
          "name": "state",
          "type": "bool"
        }
      ],
      "name": "_setCompSpeedGuardianPaused",
      "outputs": [
        {
          "internalType": "bool",
          "name": "",
          "type": "bool"
        }
      ],
      "payable": false,
      "stateMutability": "nonpayable",
      "type": "function"
    },
    {
      "constant": true,
      "inputs": [
        {
          "internalType": "address",
          "name": "protocol",
          "type": "address"
        }
      ],
      "name": "getCreditLimit",
      "outputs": [
        {
          "internalType": "uint256",
          "name": "",
          "type": "uint256"
        }
      ],
      "payable": false,
      "stateMutability": "view",
      "type": "function"
    },
    {
      "constant": true,
      "inputs": [
        {
          "internalType": "address",
          "name": "cToken",
          "type": "address"
        }
      ],
      "name": "getBorrowCap",
      "outputs": [
        {
          "internalType": "uint256",
          "name": "",
          "type": "uint256"
        }
      ],
      "payable": false,
      "stateMutability": "view",
      "type": "function"
    },
    {
      "constant": true,
      "inputs": [
        {
          "internalType": "address",
          "name": "cToken",
          "type": "address"
        }
      ],
      "name": "getSupplyCap",
      "outputs": [
        {
          "internalType": "uint256",
          "name": "",
          "type": "uint256"
        }
      ],
      "payable": false,
      "stateMutability": "view",
      "type": "function"
    },
    {
      "constant": true,
      "inputs": [
        {
          "internalType": "address",
          "name": "cToken",
          "type": "address"
        }
      ],
      "name": "getFlashLoanCap",
      "outputs": [
        {
          "internalType": "uint256",
          "name": "",
          "type": "uint256"
        }
      ],
      "payable": false,
      "stateMutability": "view",
      "type": "function"
    },
    {
      "constant": true,
      "inputs": [
        {
          "internalType": "uint256",
          "name": "_seizeTokenAmount",
          "type": "uint256"
        },
        {
          "internalType": "uint256",
          "name": "liquidationIncentiveMantissa",
          "type": "uint256"
        }
      ],
      "name": "calculateSeizeTokenAllocation",
      "outputs": [
        {
          "internalType": "uint256",
          "name": "liquidatorAmount",
          "type": "uint256"
        },
        {
          "internalType": "uint256",
          "name": "safetyVaultAmount",
          "type": "uint256"
        }
      ],
      "payable": false,
      "stateMutability": "view",
      "type": "function"
    },
    {
      "constant": true,
      "inputs": [
        {
          "internalType": "address",
          "name": "user",
          "type": "address"
        },
        {
          "internalType": "uint256",
          "name": "userAccrued",
          "type": "uint256"
        }
      ],
      "name": "getCompAllocation",
      "outputs": [
        {
          "internalType": "uint256",
          "name": "userAmount",
          "type": "uint256"
        },
        {
          "internalType": "uint256",
          "name": "governanceAmount",
          "type": "uint256"
        }
      ],
      "payable": false,
      "stateMutability": "view",
      "type": "function"
    },
    {
      "constant": true,
      "inputs": [
        {
          "internalType": "address",
          "name": "borrower",
          "type": "address"
        },
        {
          "internalType": "address",
          "name": "token",
          "type": "address"
        },
        {
          "internalType": "uint256",
          "name": "amount",
          "type": "uint256"
        }
      ],
      "name": "getFlashFee",
      "outputs": [
        {
          "internalType": "uint256",
          "name": "flashFee",
          "type": "uint256"
        }
      ],
      "payable": false,
      "stateMutability": "view",
      "type": "function"
    },
    {
      "constant": false,
      "inputs": [
        {
          "internalType": "uint256",
          "name": "_compRatio",
          "type": "uint256"
        }
      ],
      "name": "_setCompRatio",
      "outputs": [],
      "payable": false,
      "stateMutability": "nonpayable",
      "type": "function"
    },
    {
      "constant": true,
      "inputs": [
        {
          "internalType": "address",
          "name": "user",
          "type": "address"
        }
      ],
      "name": "isBlocked",
      "outputs": [
        {
          "internalType": "bool",
          "name": "",
          "type": "bool"
        }
      ],
      "payable": false,
      "stateMutability": "view",
      "type": "function"
    },
    {
      "constant": false,
      "inputs": [
        {
          "internalType": "address",
          "name": "_member",
          "type": "address"
        }
      ],
      "name": "_addToWhitelist",
      "outputs": [],
      "payable": false,
      "stateMutability": "nonpayable",
      "type": "function"
    },
    {
      "constant": false,
      "inputs": [
        {
          "internalType": "address",
          "name": "_member",
          "type": "address"
        }
      ],
      "name": "_removeFromWhitelist",
      "outputs": [],
      "payable": false,
      "stateMutability": "nonpayable",
      "type": "function"
    },
    {
      "constant": false,
      "inputs": [
        {
          "internalType": "address",
          "name": "_member",
          "type": "address"
        }
      ],
      "name": "_addToBlacklist",
      "outputs": [],
      "payable": false,
      "stateMutability": "nonpayable",
      "type": "function"
    },
    {
      "constant": false,
      "inputs": [
        {
          "internalType": "address",
          "name": "_member",
          "type": "address"
        }
      ],
      "name": "_removeFromBlacklist",
      "outputs": [],
      "payable": false,
      "stateMutability": "nonpayable",
      "type": "function"
    },
    {
      "constant": false,
      "inputs": [
        {
          "internalType": "uint256",
          "name": "_feeRatio",
          "type": "uint256"
        }
      ],
      "name": "_setFlashLoanFeeRatio",
      "outputs": [],
      "payable": false,
      "stateMutability": "nonpayable",
      "type": "function"
    }
  ],
  "bytecode": "0x60806040526000805460ff60a01b1916600160a01b1790556706f05b59d3b20000600455655af3107a40006009553480156200003a57600080fd5b5060405162001efd38038062001efd833981810160405260208110156200006057600080fd5b5051600080546001600160a01b0319163390811782556040519091907f8be0079c531659141344cd1fd0a4f28419497f9722a3daafe3b4186f6b6457e0908290a36001600160a01b038116620000b65762000235565b806001600160a01b0316636605dfa76040518163ffffffff1660e01b815260040160206040518083038186803b158015620000f057600080fd5b505afa15801562000105573d6000803e3d6000fd5b505050506040513d60208110156200011c57600080fd5b5051600180546001600160a01b0319166001600160a01b03928316179055604080516398aeca8f60e01b81529051918316916398aeca8f91600480820192602092909190829003018186803b1580156200017557600080fd5b505afa1580156200018a573d6000803e3d6000fd5b505050506040513d6020811015620001a157600080fd5b50516002556040805163ee9e819960e01b815290516001600160a01b0383169163ee9e8199916004808301926020929190829003018186803b158015620001e757600080fd5b505afa158015620001fc573d6000803e3d6000fd5b505050506040513d60208110156200021357600080fd5b5051600380546001600160a01b0319166001600160a01b039092169190911790555b50611cb780620002466000396000f3fe608060405234801561001057600080fd5b50600436106101b15760003560e01c806392b8de39116100f557806392b8de39146105af57806398aeca8f146105db57806399bc1873146105e35780639a83b63f146106095780639b19251a1461062f578063a56b60ee14610655578063b2bdfa7b1461067b578063b9507f5814610683578063bc93082b146106a0578063c71a13c6146106cc578063cad4ae3714610702578063cb7e114b14610728578063e0fbf09d14610730578063ee9e819914610756578063f2fde38b1461075e578063f9f92be414610784578063fa518054146107aa578063fbac3951146107d0576101b1565b80630ab0d694146101b65780630cab477a146102765780632c333e25146102b25780633d68dc84146102ea57806349de438d146103105780634bc51e761461031857806351a485e41461033457806355e8110f146103f25780635af9a4e0146104115780635cf4dd761461042e578063607ef6c11461044b5780636605dfa71461050957806366e26aea1461052d578063715018a614610553578063719df4fc1461055b578063858dae2c146105815780638da5cb5b146105a7575b600080fd5b610274600480360360408110156101cc57600080fd5b810190602081018135600160201b8111156101e657600080fd5b8201836020820111156101f857600080fd5b803590602001918460208302840111600160201b8311171561021957600080fd5b919390929091602081019035600160201b81111561023657600080fd5b82018360208201111561024857600080fd5b803590602001918460208302840111600160201b8311171561026957600080fd5b5090925090506107f6565b005b6102996004803603604081101561028c57600080fd5b5080359060200135610978565b6040805192835260208301919091528051918290030190f35b6102d8600480360360208110156102c857600080fd5b50356001600160a01b03166109cb565b60408051918252519081900360200190f35b6102d86004803603602081101561030057600080fd5b50356001600160a01b03166109e6565b6102d8610a01565b610320610a07565b604080519115158252519081900360200190f35b6102746004803603604081101561034a57600080fd5b810190602081018135600160201b81111561036457600080fd5b82018360208201111561037657600080fd5b803590602001918460208302840111600160201b8311171561039757600080fd5b919390929091602081019035600160201b8111156103b457600080fd5b8201836020820111156103c657600080fd5b803590602001918460208302840111600160201b831117156103e757600080fd5b509092509050610a17565b6103206004803603602081101561040857600080fd5b50351515610b90565b6102746004803603602081101561042757600080fd5b5035610bf9565b6102746004803603602081101561044457600080fd5b5035610d31565b6102746004803603604081101561046157600080fd5b810190602081018135600160201b81111561047b57600080fd5b82018360208201111561048d57600080fd5b803590602001918460208302840111600160201b831117156104ae57600080fd5b919390929091602081019035600160201b8111156104cb57600080fd5b8201836020820111156104dd57600080fd5b803590602001918460208302840111600160201b831117156104fe57600080fd5b509092509050610e0b565b610511610f70565b604080516001600160a01b039092168252519081900360200190f35b6102746004803603602081101561054357600080fd5b50356001600160a01b0316610f7f565b610274611073565b6102746004803603602081101561057157600080fd5b50356001600160a01b031661110a565b6102d86004803603602081101561059757600080fd5b50356001600160a01b03166111b9565b6105116111d7565b610299600480360360408110156105c557600080fd5b506001600160a01b0381351690602001356111e6565b6102d8611262565b6102d8600480360360208110156105f957600080fd5b50356001600160a01b0316611268565b6102746004803603602081101561061f57600080fd5b50356001600160a01b031661127a565b6103206004803603602081101561064557600080fd5b50356001600160a01b0316611329565b6102746004803603602081101561066b57600080fd5b50356001600160a01b031661133e565b610511611432565b6102746004803603602081101561069957600080fd5b5035611441565b610274600480360360408110156106b657600080fd5b506001600160a01b0381351690602001356114d5565b6102d8600480360360608110156106e257600080fd5b506001600160a01b03813581169160208101359091169060400135611585565b6102746004803603602081101561071857600080fd5b50356001600160a01b03166115dd565b6102d86116d5565b6102d86004803603602081101561074657600080fd5b50356001600160a01b03166116db565b6105116116f9565b6102746004803603602081101561077457600080fd5b50356001600160a01b0316611708565b6103206004803603602081101561079a57600080fd5b50356001600160a01b03166117f5565b610274600480360360208110156107c057600080fd5b50356001600160a01b031661180a565b610320600480360360208110156107e657600080fd5b50356001600160a01b0316611902565b6000546001600160a01b03163314610843576040805162461bcd60e51b81526020600482018190526024820152600080516020611c1b833981519152604482015290519081900360640190fd5b8281811580159061085357508082145b610894576040805162461bcd60e51b815260206004820152600d60248201526c1a5b9d985b1a59081a5b9c1d5d609a1b604482015290519081900360640190fd5b60005b8281101561096f578484828181106108ab57fe5b90506020020135600760008989858181106108c257fe5b905060200201356001600160a01b03166001600160a01b03166001600160a01b031681526020019081526020016000206002018190555086868281811061090557fe5b905060200201356001600160a01b03166001600160a01b03167f7769699efee6642ecb012bd102790f44283e4af6162a1972b5e2260ede8bbaba86868481811061094b57fe5b905060200201356040518082815260200191505060405180910390a2600101610897565b50505050505050565b600080610983611bbf565b506040805160208101909152600254815261099c611bbf565b6109a68287611920565b9150506109b38186611988565b5192506109c086846119b2565b935050509250929050565b6001600160a01b031660009081526008602052604090205490565b6001600160a01b031660009081526007602052604090205490565b60045481565b600054600160a01b900460ff1681565b6000546001600160a01b03163314610a64576040805162461bcd60e51b81526020600482018190526024820152600080516020611c1b833981519152604482015290519081900360640190fd5b82818115801590610a7457508082145b610ab5576040805162461bcd60e51b815260206004820152600d60248201526c1a5b9d985b1a59081a5b9c1d5d609a1b604482015290519081900360640190fd5b60005b8281101561096f57848482818110610acc57fe5b9050602002013560076000898985818110610ae357fe5b905060200201356001600160a01b03166001600160a01b03166001600160a01b0316815260200190815260200160002060010181905550868682818110610b2657fe5b905060200201356001600160a01b03166001600160a01b03167f9e0ad9cee10bdf36b7fbd38910c0bdff0f275ace679b45b922381c2723d676f8868684818110610b6c57fe5b905060200201356040518082815260200191505060405180910390a2600101610ab8565b600080546001600160a01b03163314610bde576040805162461bcd60e51b81526020600482018190526024820152600080516020611c1b833981519152604482015290519081900360640190fd5b506000805460ff60a01b1916600160a01b8315150217905590565b6000546001600160a01b03163314610c46576040805162461bcd60e51b81526020600482018190526024820152600080516020611c1b833981519152604482015290519081900360640190fd5b600954811415610c9a576040805162461bcd60e51b815260206004820152601a60248201527914d85b5948199959481c985d1a5bc8185b1c9958591e481cd95d60321b604482015290519081900360640190fd5b670de0b6b3a76400008110610cea576040805162461bcd60e51b8152602060048201526011602482015270496e76616c69642066656520726174696f60781b604482015290519081900360640190fd5b6009805490829055604080518281526020810184905281517f485939a71b484cdb1e63023e58c1cc5bffbb065fc52a800b02333c68c5dd960b929181900390910190a15050565b6000546001600160a01b03163314610d7e576040805162461bcd60e51b81526020600482018190526024820152600080516020611c1b833981519152604482015290519081900360640190fd5b670de0b6b3a76400008110610dc45760405162461bcd60e51b8152600401808060200182810382526022815260200180611bf96022913960400191505060405180910390fd5b6004805490829055604080518281526020810184905281517f41b9e5b4e4af46da37df7c4d6f0ed2276cff9b099bc8d60f1361e5480b0ef00d929181900390910190a15050565b6000546001600160a01b03163314610e58576040805162461bcd60e51b81526020600482018190526024820152600080516020611c1b833981519152604482015290519081900360640190fd5b82818115801590610e6857508082145b610ea9576040805162461bcd60e51b815260206004820152600d60248201526c1a5b9d985b1a59081a5b9c1d5d609a1b604482015290519081900360640190fd5b60005b8281101561096f57848482818110610ec057fe5b9050602002013560076000898985818110610ed757fe5b602090810292909201356001600160a01b031683525081019190915260400160002055868682818110610f0657fe5b905060200201356001600160a01b03166001600160a01b03167f6f1951b2aad10f3fc81b86d91105b413a5b3f847a34bbc5ce1904201b14438f6868684818110610f4c57fe5b905060200201356040518082815260200191505060405180910390a2600101610eac565b6001546001600160a01b031681565b6000546001600160a01b03163314610fcc576040805162461bcd60e51b81526020600482018190526024820152600080516020611c1b833981519152604482015290519081900360640190fd5b6001600160a01b038116611015576040805162461bcd60e51b815260206004820152601b6024820152600080516020611c63833981519152604482015290519081900360640190fd5b6001600160a01b0381166000818152600560209081526040808320805460ff1916905580519384529083019190915280517f3f50d04114467f3ca25c50f1540e2864f8a852c0380bbbbb603ebfda10b5baf29281900390910190a150565b6000546001600160a01b031633146110c0576040805162461bcd60e51b81526020600482018190526024820152600080516020611c1b833981519152604482015290519081900360640190fd5b600080546040516001600160a01b03909116907f8be0079c531659141344cd1fd0a4f28419497f9722a3daafe3b4186f6b6457e0908390a3600080546001600160a01b0319169055565b6000546001600160a01b03163314611157576040805162461bcd60e51b81526020600482018190526024820152600080516020611c1b833981519152604482015290519081900360640190fd5b600180546001600160a01b038381166001600160a01b0319831617928390556040805192821680845293909116602083015280517f80061c7335a0f9bdec054a1c794deb6a05a0ed8533a601664cf7db64a3ed296a9281900390910190a15050565b6001600160a01b031660009081526007602052604090206001015490565b6000546001600160a01b031690565b6000806111f2846119ec565b158061121657506001600160a01b03841660009081526005602052604090205460ff165b156112265750819050600061125b565b61122e611bbf565b506040805160208101909152600454815261124981856119f2565b9350611257905084846119b2565b9150505b9250929050565b60025481565b60086020526000908152604090205481565b6000546001600160a01b031633146112c7576040805162461bcd60e51b81526020600482018190526024820152600080516020611c1b833981519152604482015290519081900360640190fd5b600380546001600160a01b038381166001600160a01b0319831617928390556040805192821680845293909116602083015280517f74a5eddfef1d3fc580dee25f39692077d7f84f55a357b9d19bb469867dd81fdf9281900390910190a15050565b60056020526000908152604090205460ff1681565b6000546001600160a01b0316331461138b576040805162461bcd60e51b81526020600482018190526024820152600080516020611c1b833981519152604482015290519081900360640190fd5b6001600160a01b0381166113d4576040805162461bcd60e51b815260206004820152601b6024820152600080516020611c63833981519152604482015290519081900360640190fd5b6001600160a01b0381166000818152600660209081526040808320805460ff1916905580519384529083019190915280517f739f0e2acc6e65f7a52f8eabe2ca426ca0fb5158e8232d7bcd21bebd59b4ea529281900390910190a150565b6000546001600160a01b031681565b6000546001600160a01b0316331461148e576040805162461bcd60e51b81526020600482018190526024820152600080516020611c1b833981519152604482015290519081900360640190fd5b6002805490829055604080518281526020810184905281517f550d136d58901af374b8c16e4b5ca98acfc06d85a4a095df1cf919aef02c355f929181900390910190a15050565b6114dd6111d7565b6001600160a01b0316336001600160a01b03161461152c5760405162461bcd60e51b8152600401808060200182810382526028815260200180611c3b6028913960400191505060405180910390fd5b6001600160a01b0382166000818152600860209081526040918290208490558151928352820183905280517facba5197b02f201109f99752a9adb58c2598809f6acb3c34b7f1445f0cbeee879281900390910190a15050565b6001600160a01b03831660009081526005602052604081205460ff16156115ae575060006115d6565b6115b6611bbf565b50604080516020810190915260095481526115d181846119f2565b925050505b9392505050565b6000546001600160a01b0316331461162a576040805162461bcd60e51b81526020600482018190526024820152600080516020611c1b833981519152604482015290519081900360640190fd5b6001600160a01b038116611673576040805162461bcd60e51b815260206004820152601b6024820152600080516020611c63833981519152604482015290519081900360640190fd5b6001600160a01b038116600081815260066020908152604091829020805460ff1916600190811790915582519384529083015280517f739f0e2acc6e65f7a52f8eabe2ca426ca0fb5158e8232d7bcd21bebd59b4ea529281900390910190a150565b60095481565b6001600160a01b031660009081526007602052604090206002015490565b6003546001600160a01b031681565b6000546001600160a01b03163314611755576040805162461bcd60e51b81526020600482018190526024820152600080516020611c1b833981519152604482015290519081900360640190fd5b6001600160a01b03811661179a5760405162461bcd60e51b8152600401808060200182810382526026815260200180611bd36026913960400191505060405180910390fd5b600080546040516001600160a01b03808516939216917f8be0079c531659141344cd1fd0a4f28419497f9722a3daafe3b4186f6b6457e091a3600080546001600160a01b0319166001600160a01b0392909216919091179055565b60066020526000908152604090205460ff1681565b6000546001600160a01b03163314611857576040805162461bcd60e51b81526020600482018190526024820152600080516020611c1b833981519152604482015290519081900360640190fd5b6001600160a01b0381166118a0576040805162461bcd60e51b815260206004820152601b6024820152600080516020611c63833981519152604482015290519081900360640190fd5b6001600160a01b038116600081815260056020908152604091829020805460ff1916600190811790915582519384529083015280517f3f50d04114467f3ca25c50f1540e2864f8a852c0380bbbbb603ebfda10b5baf29281900390910190a150565b6001600160a01b031660009081526006602052604090205460ff1690565b600061192a611bbf565b60008061193b866000015186611a45565b9092509050600082600381111561194e57fe5b1461196d5750604080516020810190915260008152909250905061125b565b60408051602081019091529081526000969095509350505050565b611990611bbf565b60405180602001604052806119a9856000015185611a84565b90529392505050565b60006115d68383604051806040016040528060158152602001747375627472616374696f6e20756e646572666c6f7760581b815250611ab7565b3b151590565b60008060006119ff611bbf565b611a098686611920565b90925090506000826003811115611a1c57fe5b14611a2d575091506000905061125b565b6000611a3882611b4e565b9350935050509250929050565b60008083611a585750600090508061125b565b83830283858281611a6557fe5b0414611a795750600291506000905061125b565b60009250905061125b565b60006115d683836040518060400160405280600e81526020016d646976696465206279207a65726f60901b815250611b5d565b60008184841115611b465760405162461bcd60e51b81526004018080602001828103825283818151815260200191508051906020019080838360005b83811015611b0b578181015183820152602001611af3565b50505050905090810190601f168015611b385780820380516001836020036101000a031916815260200191505b509250505060405180910390fd5b505050900390565b51670de0b6b3a7640000900490565b60008183611bac5760405162461bcd60e51b8152602060048201818152835160248401528351909283926044909101919085019080838360008315611b0b578181015183820152602001611af3565b50828481611bb657fe5b04949350505050565b604051806020016040528060008152509056fe4f776e61626c653a206e6577206f776e657220697320746865207a65726f2061646472657373636f6d70526174696f2073686f756c64206265206c657373207468656e20313030254f776e61626c653a2063616c6c6572206973206e6f7420746865206f776e65726f6e6c79206f776e65722063616e207365742070726f746f636f6c20637265646974206c696d69745a65726f2061646472657373206973206e6f7420616c6c6f7765640000000000a265627a7a723158203ca9422d1b8aae8fa87cfe8a92d76723e89009dc042343ae5f055bb8dda2c93a64736f6c63430005100032",
  "source": "pragma solidity ^0.5.16;\n\nimport \"./compound/Unitroller.sol\";\nimport \"./compound/Exponential.sol\";\nimport \"./Ownable.sol\";\n\ncontract QsConfig is Ownable, Exponential {\n    bool public compSpeedGuardianPaused = true;\n    address public compToken;\n    uint public safetyVaultRatio;\n    address public safetyVault;\n\n    struct MarketCap {\n        /**\n       *  The borrow capacity of the asset, will be checked in borrowAllowed()\n       *  0 means there is no limit on the capacity\n       */\n        uint borrowCap;\n\n        /**\n         *  The supply capacity of the asset, will be checked in mintAllowed()\n         *  0 means there is no limit on the capacity\n         */\n        uint supplyCap;\n\n        /**\n         *  The flash loan capacity of the asset, will be checked in flashLoanAllowed()\n         *  0 means there is no limit on the capacity\n         */\n        uint flashLoanCap;\n    }\n\n    uint public compRatio = 0.5e18;\n    mapping(address => bool) public whitelist;\n    mapping(address => bool) public blacklist;\n    mapping(address => MarketCap) marketsCap;\n    // creditLimits allowed specific protocols to borrow and repay without collateral\n    mapping(address => uint) public creditLimits;\n    uint public flashLoanFeeRatio = 0.0001e18;\n\n    event NewCompToken(address oldCompToken, address newCompToken);\n    event NewSafetyVault(address oldSafetyVault, address newSafetyVault);\n    event NewSafetyVaultRatio(uint oldSafetyVaultRatio, uint newSafetyVault);\n\n    event NewCompRatio(uint oldCompRatio, uint newCompRatio);\n    event WhitelistChange(address user, bool enabled);\n    event BlacklistChange(address user, bool enabled);\n    /// @notice Emitted when protocol's credit limit has changed\n    event CreditLimitChanged(address protocol, uint creditLimit);\n    event FlashLoanFeeRatioChanged(uint oldFeeRatio, uint newFeeRatio);\n\n    /// @notice Emitted when borrow cap for a cToken is changed\n    event NewBorrowCap(address indexed cToken, uint newBorrowCap);\n\n    /// @notice Emitted when supply cap for a cToken is changed\n    event NewSupplyCap(address indexed cToken, uint newSupplyCap);\n\n    /// @notice Emitted when flash loan for a cToken is changed\n    event NewFlashLoanCap(address indexed cToken, uint newFlashLoanCap);\n\n    constructor(QsConfig previousQsConfig) public {\n        if (address(previousQsConfig) == address(0x0)) return;\n\n        compToken = previousQsConfig.compToken();\n        safetyVaultRatio = previousQsConfig.safetyVaultRatio();\n        safetyVault = previousQsConfig.safetyVault();\n    }\n\n        /**\n          * @notice Set the given borrow caps for the given cToken markets. Borrowing that brings total borrows to or above borrow cap will revert.\n          * @dev Admin function to set the borrow caps. A borrow cap of 0 corresponds to unlimited borrowing.\n          * @param cTokens The addresses of the markets (tokens) to change the borrow caps for\n          * @param newBorrowCaps The new borrow cap values in underlying to be set. A value of 0 corresponds to unlimited borrowing.\n          */\n        function _setMarketBorrowCaps(address[] calldata cTokens, uint[] calldata newBorrowCaps) external onlyOwner {\n            uint numMarkets = cTokens.length;\n            uint numBorrowCaps = newBorrowCaps.length;\n\n            require(numMarkets != 0 && numMarkets == numBorrowCaps, \"invalid input\");\n\n            for(uint i = 0; i < numMarkets; i++) {\n                marketsCap[cTokens[i]].borrowCap = newBorrowCaps[i];\n                emit NewBorrowCap(cTokens[i], newBorrowCaps[i]);\n            }\n        }\n\n        /**\n         * @notice Set the given flash loan caps for the given cToken markets. Borrowing that brings total flash cap to or above flash loan cap will revert.\n         * @dev Admin function to set the flash loan caps. A flash loan cap of 0 corresponds to unlimited flash loan.\n         * @param cTokens The addresses of the markets (tokens) to change the flash loan caps for\n         * @param newFlashLoanCaps The new flash loan cap values in underlying to be set. A value of 0 corresponds to unlimited flash loan.\n         */\n        function _setMarketFlashLoanCaps(address[] calldata cTokens, uint[] calldata newFlashLoanCaps) external onlyOwner {\n            uint numMarkets = cTokens.length;\n            uint numFlashLoanCaps = newFlashLoanCaps.length;\n\n            require(numMarkets != 0 && numMarkets == numFlashLoanCaps, \"invalid input\");\n\n            for(uint i = 0; i < numMarkets; i++) {\n                marketsCap[cTokens[i]].flashLoanCap = newFlashLoanCaps[i];\n                emit NewFlashLoanCap(cTokens[i], newFlashLoanCaps[i]);\n            }\n        }\n\n        /**\n         * @notice Set the given supply caps for the given cToken markets. Supplying that brings total supply to or above supply cap will revert.\n         * @dev Admin function to set the supply caps. A supply cap of 0 corresponds to unlimited supplying.\n         * @param cTokens The addresses of the markets (tokens) to change the supply caps for\n         * @param newSupplyCaps The new supply cap values in underlying to be set. A value of 0 corresponds to unlimited supplying.\n         */\n        function _setMarketSupplyCaps(address[] calldata cTokens, uint[] calldata newSupplyCaps) external onlyOwner {\n            uint numMarkets = cTokens.length;\n            uint numSupplyCaps = newSupplyCaps.length;\n\n            require(numMarkets != 0 && numMarkets == numSupplyCaps, \"invalid input\");\n\n            for(uint i = 0; i < numMarkets; i++) {\n                marketsCap[cTokens[i]].supplyCap = newSupplyCaps[i];\n                emit NewSupplyCap(cTokens[i], newSupplyCaps[i]);\n            }\n        }\n    /**\n     * @notice Sets whitelisted protocol's credit limit\n     * @param protocol The address of the protocol\n     * @param creditLimit The credit limit\n     */\n    function _setCreditLimit(address protocol, uint creditLimit) public {\n        require(msg.sender == owner(), \"only owner can set protocol credit limit\");\n\n        creditLimits[protocol] = creditLimit;\n        emit CreditLimitChanged(protocol, creditLimit);\n    }\n\n    function _setCompToken(address _compToken) public onlyOwner {\n        address oldCompToken = compToken;\n        compToken = _compToken;\n        emit NewCompToken(oldCompToken, compToken);\n    }\n\n    function _setSafetyVault(address _safetyVault) public onlyOwner {\n        address oldSafetyVault = safetyVault;\n        safetyVault = _safetyVault;\n        emit NewSafetyVault(oldSafetyVault, safetyVault);\n    }\n\n    function _setSafetyVaultRatio(uint _safetyVaultRatio) public onlyOwner {\n        uint oldSafetyVaultRatio = safetyVaultRatio;\n        safetyVaultRatio = _safetyVaultRatio;\n        emit NewSafetyVaultRatio(oldSafetyVaultRatio, safetyVaultRatio);\n    }\n    \n    function _setCompSpeedGuardianPaused(bool state) public onlyOwner returns (bool) {\n        compSpeedGuardianPaused = state;\n        return state;\n    }\n\n    function getCreditLimit(address protocol) external view returns (uint) {\n        return creditLimits[protocol];\n    }\n\n    function getBorrowCap(address cToken) external view returns (uint) {\n        return marketsCap[cToken].borrowCap;\n    }\n\n    function getSupplyCap(address cToken) external view returns (uint) {\n        return marketsCap[cToken].supplyCap;\n    }\n\n    function getFlashLoanCap(address cToken) external view returns (uint) {\n        return marketsCap[cToken].flashLoanCap;\n    }\n\n    function calculateSeizeTokenAllocation(uint _seizeTokenAmount, uint liquidationIncentiveMantissa) public view returns(uint liquidatorAmount, uint safetyVaultAmount) {\n        Exp memory vaultRatio = Exp({mantissa:safetyVaultRatio});\n        (,Exp memory tmp) = mulScalar(vaultRatio, _seizeTokenAmount);\n        safetyVaultAmount = div_(tmp, liquidationIncentiveMantissa).mantissa;\n        liquidatorAmount = sub_(_seizeTokenAmount, safetyVaultAmount);\n    }\n\n    function getCompAllocation(address user, uint userAccrued) public view returns(uint userAmount, uint governanceAmount) {\n        if (!isContract(user) || whitelist[user]) {\n            return (userAccrued, 0);\n        }\n\n        Exp memory compRatioExp = Exp({mantissa:compRatio});\n        (, userAmount) = mulScalarTruncate(compRatioExp, userAccrued);\n        governanceAmount = sub_(userAccrued, userAmount);\n    }\n\n    function getFlashFee(address borrower, address token, uint256 amount) external view returns (uint flashFee) {\n        if (whitelist[borrower]) {\n            return 0;\n        }\n        Exp memory flashLoanFeeRatioExp = Exp({mantissa:flashLoanFeeRatio});\n        (, flashFee) = mulScalarTruncate(flashLoanFeeRatioExp, amount);\n\n        token;\n    }\n\n    function _setCompRatio(uint _compRatio) public onlyOwner {\n        require(_compRatio < 1e18, \"compRatio should be less then 100%\");\n        uint oldCompRatio = compRatio;\n        compRatio = _compRatio;\n\n        emit NewCompRatio(oldCompRatio, compRatio);\n    }\n\n    function isBlocked(address user) public view returns (bool) {\n        return blacklist[user];\n    }\n\n    function _addToWhitelist(address _member) public onlyOwner {\n        require(_member != address(0x0), \"Zero address is not allowed\");\n        whitelist[_member] = true;\n\n        emit WhitelistChange(_member, true);\n    }\n\n    function _removeFromWhitelist(address _member) public onlyOwner {\n        require(_member != address(0x0), \"Zero address is not allowed\");\n        whitelist[_member] = false;\n\n        emit WhitelistChange(_member, false);\n    }\n\n    function _addToBlacklist(address _member) public onlyOwner {\n        require(_member != address(0x0), \"Zero address is not allowed\");\n        blacklist[_member] = true;\n\n        emit BlacklistChange(_member, true);\n    }\n\n    function _removeFromBlacklist(address _member) public onlyOwner {\n        require(_member != address(0x0), \"Zero address is not allowed\");\n        blacklist[_member] = false;\n\n        emit BlacklistChange(_member, false);\n    }\n\n    function _setFlashLoanFeeRatio(uint _feeRatio) public onlyOwner {\n        require(_feeRatio != flashLoanFeeRatio, \"Same fee ratio already set\");\n        require(_feeRatio < 1e18, \"Invalid fee ratio\");\n\n        uint oldFeeRatio = flashLoanFeeRatio;\n        flashLoanFeeRatio = _feeRatio;\n\n        emit FlashLoanFeeRatioChanged(oldFeeRatio, flashLoanFeeRatio);\n    }\n\n    function isContract(address account) internal view returns (bool) {\n        // This method relies on extcodesize, which returns 0 for contracts in\n        // construction, since the code is only stored at the end of the\n        // constructor execution.\n\n        uint256 size;\n        // solhint-disable-next-line no-inline-assembly\n        assembly { size := extcodesize(account) }\n        return size > 0;\n    }\n}",
  "sourcePath": "/Users/ashton/repo/blockchain/eth/smartcontracts/quicksilver-protocol/contracts/QsConfig.sol",
  "compiler": {
    "name": "solc",
    "version": "0.5.16+commit.9c3226ce.Emscripten.clang"
  },
  "schemaVersion": "3.4.1",
  "updatedAt": "2021-08-16T22:55:24.066Z",
  "devdoc": {
    "methods": {
      "_setCreditLimit(address,uint256)": {
        "params": {
          "creditLimit": "The credit limit",
          "protocol": "The address of the protocol"
        }
      },
      "_setMarketBorrowCaps(address[],uint256[])": {
        "details": "Admin function to set the borrow caps. A borrow cap of 0 corresponds to unlimited borrowing.",
        "params": {
          "cTokens": "The addresses of the markets (tokens) to change the borrow caps for",
          "newBorrowCaps": "The new borrow cap values in underlying to be set. A value of 0 corresponds to unlimited borrowing."
        }
      },
      "_setMarketFlashLoanCaps(address[],uint256[])": {
        "details": "Admin function to set the flash loan caps. A flash loan cap of 0 corresponds to unlimited flash loan.",
        "params": {
          "cTokens": "The addresses of the markets (tokens) to change the flash loan caps for",
          "newFlashLoanCaps": "The new flash loan cap values in underlying to be set. A value of 0 corresponds to unlimited flash loan."
        }
      },
      "_setMarketSupplyCaps(address[],uint256[])": {
        "details": "Admin function to set the supply caps. A supply cap of 0 corresponds to unlimited supplying.",
        "params": {
          "cTokens": "The addresses of the markets (tokens) to change the supply caps for",
          "newSupplyCaps": "The new supply cap values in underlying to be set. A value of 0 corresponds to unlimited supplying."
        }
      }
    }
  },
  "userdoc": {
    "methods": {
      "_setCreditLimit(address,uint256)": {
        "notice": "Sets whitelisted protocol's credit limit"
      },
      "_setMarketBorrowCaps(address[],uint256[])": {
        "notice": "Set the given borrow caps for the given cToken markets. Borrowing that brings total borrows to or above borrow cap will revert."
      },
      "_setMarketFlashLoanCaps(address[],uint256[])": {
        "notice": "Set the given flash loan caps for the given cToken markets. Borrowing that brings total flash cap to or above flash loan cap will revert."
      },
      "_setMarketSupplyCaps(address[],uint256[])": {
        "notice": "Set the given supply caps for the given cToken markets. Supplying that brings total supply to or above supply cap will revert."
      }
    }
  }
}