{
  "contractName": "QsConfig",
  "abi": [
    {
      "inputs": [
        {
          "internalType": "contract QsConfig",
          "name": "previousQsConfig",
          "type": "address"
        }
      ],
      "payable": false,
      "stateMutability": "nonpayable",
      "type": "constructor"
    },
    {
      "anonymous": false,
      "inputs": [
        {
          "indexed": false,
          "internalType": "address",
          "name": "user",
          "type": "address"
        },
        {
          "indexed": false,
          "internalType": "bool",
          "name": "enabled",
          "type": "bool"
        }
      ],
      "name": "BlacklistChange",
      "type": "event"
    },
    {
      "anonymous": false,
      "inputs": [
        {
          "indexed": false,
          "internalType": "address",
          "name": "protocol",
          "type": "address"
        },
        {
          "indexed": false,
          "internalType": "uint256",
          "name": "creditLimit",
          "type": "uint256"
        }
      ],
      "name": "CreditLimitChanged",
      "type": "event"
    },
    {
      "anonymous": false,
      "inputs": [
        {
          "indexed": false,
          "internalType": "uint256",
          "name": "oldFeeRatio",
          "type": "uint256"
        },
        {
          "indexed": false,
          "internalType": "uint256",
          "name": "newFeeRatio",
          "type": "uint256"
        }
      ],
      "name": "FlashLoanFeeRatioChanged",
      "type": "event"
    },
    {
      "anonymous": false,
      "inputs": [
        {
          "indexed": false,
          "internalType": "uint256",
          "name": "oldCompRatio",
          "type": "uint256"
        },
        {
          "indexed": false,
          "internalType": "uint256",
          "name": "newCompRatio",
          "type": "uint256"
        }
      ],
      "name": "NewCompRatio",
      "type": "event"
    },
    {
      "anonymous": false,
      "inputs": [
        {
          "indexed": false,
          "internalType": "address",
          "name": "oldCompToken",
          "type": "address"
        },
        {
          "indexed": false,
          "internalType": "address",
          "name": "newCompToken",
          "type": "address"
        }
      ],
      "name": "NewCompToken",
      "type": "event"
    },
    {
      "anonymous": false,
      "inputs": [
        {
          "indexed": false,
          "internalType": "address",
          "name": "oldSafetyVault",
          "type": "address"
        },
        {
          "indexed": false,
          "internalType": "address",
          "name": "newSafetyVault",
          "type": "address"
        }
      ],
      "name": "NewSafetyVault",
      "type": "event"
    },
    {
      "anonymous": false,
      "inputs": [
        {
          "indexed": false,
          "internalType": "uint256",
          "name": "oldSafetyVaultRatio",
          "type": "uint256"
        },
        {
          "indexed": false,
          "internalType": "uint256",
          "name": "newSafetyVault",
          "type": "uint256"
        }
      ],
      "name": "NewSafetyVaultRatio",
      "type": "event"
    },
    {
      "anonymous": false,
      "inputs": [
        {
          "indexed": true,
          "internalType": "address",
          "name": "previousOwner",
          "type": "address"
        },
        {
          "indexed": true,
          "internalType": "address",
          "name": "newOwner",
          "type": "address"
        }
      ],
      "name": "OwnershipTransferred",
      "type": "event"
    },
    {
      "anonymous": false,
      "inputs": [
        {
          "indexed": false,
          "internalType": "address",
          "name": "user",
          "type": "address"
        },
        {
          "indexed": false,
          "internalType": "bool",
          "name": "enabled",
          "type": "bool"
        }
      ],
      "name": "WhitelistChange",
      "type": "event"
    },
    {
      "constant": true,
      "inputs": [],
      "name": "_owner",
      "outputs": [
        {
          "internalType": "address",
          "name": "",
          "type": "address"
        }
      ],
      "payable": false,
      "stateMutability": "view",
      "type": "function"
    },
    {
      "constant": true,
      "inputs": [
        {
          "internalType": "address",
          "name": "",
          "type": "address"
        }
      ],
      "name": "blacklist",
      "outputs": [
        {
          "internalType": "bool",
          "name": "",
          "type": "bool"
        }
      ],
      "payable": false,
      "stateMutability": "view",
      "type": "function"
    },
    {
      "constant": true,
      "inputs": [],
      "name": "compRatio",
      "outputs": [
        {
          "internalType": "uint256",
          "name": "",
          "type": "uint256"
        }
      ],
      "payable": false,
      "stateMutability": "view",
      "type": "function"
    },
    {
      "constant": true,
      "inputs": [],
      "name": "compSpeedGuardianPaused",
      "outputs": [
        {
          "internalType": "bool",
          "name": "",
          "type": "bool"
        }
      ],
      "payable": false,
      "stateMutability": "view",
      "type": "function"
    },
    {
      "constant": true,
      "inputs": [],
      "name": "compToken",
      "outputs": [
        {
          "internalType": "address",
          "name": "",
          "type": "address"
        }
      ],
      "payable": false,
      "stateMutability": "view",
      "type": "function"
    },
    {
      "constant": true,
      "inputs": [
        {
          "internalType": "address",
          "name": "",
          "type": "address"
        }
      ],
      "name": "creditLimits",
      "outputs": [
        {
          "internalType": "uint256",
          "name": "",
          "type": "uint256"
        }
      ],
      "payable": false,
      "stateMutability": "view",
      "type": "function"
    },
    {
      "constant": true,
      "inputs": [],
      "name": "flashLoanFeeRatio",
      "outputs": [
        {
          "internalType": "uint256",
          "name": "",
          "type": "uint256"
        }
      ],
      "payable": false,
      "stateMutability": "view",
      "type": "function"
    },
    {
      "constant": true,
      "inputs": [],
      "name": "owner",
      "outputs": [
        {
          "internalType": "address",
          "name": "",
          "type": "address"
        }
      ],
      "payable": false,
      "stateMutability": "view",
      "type": "function"
    },
    {
      "constant": false,
      "inputs": [],
      "name": "renounceOwnership",
      "outputs": [],
      "payable": false,
      "stateMutability": "nonpayable",
      "type": "function"
    },
    {
      "constant": true,
      "inputs": [],
      "name": "safetyVault",
      "outputs": [
        {
          "internalType": "address",
          "name": "",
          "type": "address"
        }
      ],
      "payable": false,
      "stateMutability": "view",
      "type": "function"
    },
    {
      "constant": true,
      "inputs": [],
      "name": "safetyVaultRatio",
      "outputs": [
        {
          "internalType": "uint256",
          "name": "",
          "type": "uint256"
        }
      ],
      "payable": false,
      "stateMutability": "view",
      "type": "function"
    },
    {
      "constant": false,
      "inputs": [
        {
          "internalType": "address",
          "name": "newOwner",
          "type": "address"
        }
      ],
      "name": "transferOwnership",
      "outputs": [],
      "payable": false,
      "stateMutability": "nonpayable",
      "type": "function"
    },
    {
      "constant": true,
      "inputs": [
        {
          "internalType": "address",
          "name": "",
          "type": "address"
        }
      ],
      "name": "whitelist",
      "outputs": [
        {
          "internalType": "bool",
          "name": "",
          "type": "bool"
        }
      ],
      "payable": false,
      "stateMutability": "view",
      "type": "function"
    },
    {
      "constant": false,
      "inputs": [
        {
          "internalType": "address",
          "name": "protocol",
          "type": "address"
        },
        {
          "internalType": "uint256",
          "name": "creditLimit",
          "type": "uint256"
        }
      ],
      "name": "_setCreditLimit",
      "outputs": [],
      "payable": false,
      "stateMutability": "nonpayable",
      "type": "function"
    },
    {
      "constant": false,
      "inputs": [
        {
          "internalType": "address",
          "name": "_compToken",
          "type": "address"
        }
      ],
      "name": "_setCompToken",
      "outputs": [],
      "payable": false,
      "stateMutability": "nonpayable",
      "type": "function"
    },
    {
      "constant": false,
      "inputs": [
        {
          "internalType": "address",
          "name": "_safetyVault",
          "type": "address"
        }
      ],
      "name": "_setSafetyVault",
      "outputs": [],
      "payable": false,
      "stateMutability": "nonpayable",
      "type": "function"
    },
    {
      "constant": false,
      "inputs": [
        {
          "internalType": "uint256",
          "name": "_safetyVaultRatio",
          "type": "uint256"
        }
      ],
      "name": "_setSafetyVaultRatio",
      "outputs": [],
      "payable": false,
      "stateMutability": "nonpayable",
      "type": "function"
    },
    {
      "constant": false,
      "inputs": [
        {
          "internalType": "bool",
          "name": "state",
          "type": "bool"
        }
      ],
      "name": "_setCompSpeedGuardianPaused",
      "outputs": [
        {
          "internalType": "bool",
          "name": "",
          "type": "bool"
        }
      ],
      "payable": false,
      "stateMutability": "nonpayable",
      "type": "function"
    },
    {
      "constant": true,
      "inputs": [
        {
          "internalType": "address",
          "name": "protocol",
          "type": "address"
        }
      ],
      "name": "getCreditLimit",
      "outputs": [
        {
          "internalType": "uint256",
          "name": "",
          "type": "uint256"
        }
      ],
      "payable": false,
      "stateMutability": "view",
      "type": "function"
    },
    {
      "constant": true,
      "inputs": [
        {
          "internalType": "uint256",
          "name": "_seizeTokenAmount",
          "type": "uint256"
        },
        {
          "internalType": "uint256",
          "name": "liquidationIncentiveMantissa",
          "type": "uint256"
        }
      ],
      "name": "calculateSeizeTokenAllocation",
      "outputs": [
        {
          "internalType": "uint256",
          "name": "liquidatorAmount",
          "type": "uint256"
        },
        {
          "internalType": "uint256",
          "name": "safetyVaultAmount",
          "type": "uint256"
        }
      ],
      "payable": false,
      "stateMutability": "view",
      "type": "function"
    },
    {
      "constant": true,
      "inputs": [
        {
          "internalType": "address",
          "name": "user",
          "type": "address"
        },
        {
          "internalType": "uint256",
          "name": "userAccrued",
          "type": "uint256"
        }
      ],
      "name": "getCompAllocation",
      "outputs": [
        {
          "internalType": "uint256",
          "name": "userAmount",
          "type": "uint256"
        },
        {
          "internalType": "uint256",
          "name": "governanceAmount",
          "type": "uint256"
        }
      ],
      "payable": false,
      "stateMutability": "view",
      "type": "function"
    },
    {
      "constant": true,
      "inputs": [
        {
          "internalType": "uint256",
          "name": "defaultSupplyCap",
          "type": "uint256"
        }
      ],
      "name": "getSupplyCap",
      "outputs": [
        {
          "internalType": "uint256",
          "name": "supplyCap",
          "type": "uint256"
        }
      ],
      "payable": false,
      "stateMutability": "pure",
      "type": "function"
    },
    {
      "constant": true,
      "inputs": [
        {
          "internalType": "uint256",
          "name": "defaultBorrowCap",
          "type": "uint256"
        }
      ],
      "name": "getBorrowCap",
      "outputs": [
        {
          "internalType": "uint256",
          "name": "borrowCap",
          "type": "uint256"
        }
      ],
      "payable": false,
      "stateMutability": "pure",
      "type": "function"
    },
    {
      "constant": true,
      "inputs": [
        {
          "internalType": "address",
          "name": "borrower",
          "type": "address"
        },
        {
          "internalType": "address",
          "name": "token",
          "type": "address"
        },
        {
          "internalType": "uint256",
          "name": "amount",
          "type": "uint256"
        }
      ],
      "name": "getFlashFee",
      "outputs": [
        {
          "internalType": "uint256",
          "name": "flashFee",
          "type": "uint256"
        }
      ],
      "payable": false,
      "stateMutability": "view",
      "type": "function"
    },
    {
      "constant": false,
      "inputs": [
        {
          "internalType": "uint256",
          "name": "_compRatio",
          "type": "uint256"
        }
      ],
      "name": "_setCompRatio",
      "outputs": [],
      "payable": false,
      "stateMutability": "nonpayable",
      "type": "function"
    },
    {
      "constant": true,
      "inputs": [
        {
          "internalType": "address",
          "name": "user",
          "type": "address"
        }
      ],
      "name": "isBlocked",
      "outputs": [
        {
          "internalType": "bool",
          "name": "",
          "type": "bool"
        }
      ],
      "payable": false,
      "stateMutability": "view",
      "type": "function"
    },
    {
      "constant": false,
      "inputs": [
        {
          "internalType": "address",
          "name": "_member",
          "type": "address"
        }
      ],
      "name": "_addToWhitelist",
      "outputs": [],
      "payable": false,
      "stateMutability": "nonpayable",
      "type": "function"
    },
    {
      "constant": false,
      "inputs": [
        {
          "internalType": "address",
          "name": "_member",
          "type": "address"
        }
      ],
      "name": "_removeFromWhitelist",
      "outputs": [],
      "payable": false,
      "stateMutability": "nonpayable",
      "type": "function"
    },
    {
      "constant": false,
      "inputs": [
        {
          "internalType": "address",
          "name": "_member",
          "type": "address"
        }
      ],
      "name": "_addToBlacklist",
      "outputs": [],
      "payable": false,
      "stateMutability": "nonpayable",
      "type": "function"
    },
    {
      "constant": false,
      "inputs": [
        {
          "internalType": "address",
          "name": "_member",
          "type": "address"
        }
      ],
      "name": "_removeFromBlacklist",
      "outputs": [],
      "payable": false,
      "stateMutability": "nonpayable",
      "type": "function"
    },
    {
      "constant": false,
      "inputs": [
        {
          "internalType": "uint256",
          "name": "_feeRatio",
          "type": "uint256"
        }
      ],
      "name": "_setFlashLoanFeeRatio",
      "outputs": [],
      "payable": false,
      "stateMutability": "nonpayable",
      "type": "function"
    }
  ],
  "bytecode": "0x60806040526000805460ff60a01b1916600160a01b1790556706f05b59d3b20000600455655af3107a40006008553480156200003a57600080fd5b506040516200177e3803806200177e833981810160405260208110156200006057600080fd5b5051600080546001600160a01b0319163390811782556040519091907f8be0079c531659141344cd1fd0a4f28419497f9722a3daafe3b4186f6b6457e0908290a36001600160a01b038116620000b65762000235565b806001600160a01b0316636605dfa76040518163ffffffff1660e01b815260040160206040518083038186803b158015620000f057600080fd5b505afa15801562000105573d6000803e3d6000fd5b505050506040513d60208110156200011c57600080fd5b5051600180546001600160a01b0319166001600160a01b03928316179055604080516398aeca8f60e01b81529051918316916398aeca8f91600480820192602092909190829003018186803b1580156200017557600080fd5b505afa1580156200018a573d6000803e3d6000fd5b505050506040513d6020811015620001a157600080fd5b50516002556040805163ee9e819960e01b815290516001600160a01b0383169163ee9e8199916004808301926020929190829003018186803b158015620001e757600080fd5b505afa158015620001fc573d6000803e3d6000fd5b505050506040513d60208110156200021357600080fd5b5051600380546001600160a01b0319166001600160a01b039092169190911790555b5061153880620002466000396000f3fe608060405234801561001057600080fd5b50600436106101755760003560e01c80630cab477a1461017a5780632c333e25146101b6578063496d2adf146101ee57806349de438d1461020b5780634bc51e761461021357806355e8110f1461022f5780635af9a4e01461024e5780635cf4dd761461026d5780636605dfa71461028a57806366e26aea146102ae578063715018a6146102d4578063719df4fc146102dc5780638da5cb5b1461030257806392b8de391461030a57806398aeca8f1461033657806399bc18731461033e5780639a83b63f146103645780639b19251a1461038a578063a56b60ee146103b0578063b2bdfa7b146103d6578063b9507f58146103de578063bc93082b146103fb578063c71a13c614610427578063cad4ae371461045d578063cb7e114b14610483578063ee9e81991461048b578063f2fde38b14610493578063f5bd2c53146101ee578063f9f92be4146104b9578063fa518054146104df578063fbac395114610505575b600080fd5b61019d6004803603604081101561019057600080fd5b508035906020013561052b565b6040805192835260208301919091528051918290030190f35b6101dc600480360360208110156101cc57600080fd5b50356001600160a01b031661057e565b60408051918252519081900360200190f35b6101dc6004803603602081101561020457600080fd5b5035610599565b6101dc61059c565b61021b6105a2565b604080519115158252519081900360200190f35b61021b6004803603602081101561024557600080fd5b503515156105b2565b61026b6004803603602081101561026457600080fd5b503561061b565b005b61026b6004803603602081101561028357600080fd5b5035610753565b61029261082d565b604080516001600160a01b039092168252519081900360200190f35b61026b600480360360208110156102c457600080fd5b50356001600160a01b031661083c565b61026b610930565b61026b600480360360208110156102f257600080fd5b50356001600160a01b03166109c7565b610292610a76565b61019d6004803603604081101561032057600080fd5b506001600160a01b038135169060200135610a85565b6101dc610b01565b6101dc6004803603602081101561035457600080fd5b50356001600160a01b0316610b07565b61026b6004803603602081101561037a57600080fd5b50356001600160a01b0316610b19565b61021b600480360360208110156103a057600080fd5b50356001600160a01b0316610bc8565b61026b600480360360208110156103c657600080fd5b50356001600160a01b0316610bdd565b610292610cd1565b61026b600480360360208110156103f457600080fd5b5035610ce0565b61026b6004803603604081101561041157600080fd5b506001600160a01b038135169060200135610d74565b6101dc6004803603606081101561043d57600080fd5b506001600160a01b03813581169160208101359091169060400135610e24565b61026b6004803603602081101561047357600080fd5b50356001600160a01b0316610e7c565b6101dc610f74565b610292610f7a565b61026b600480360360208110156104a957600080fd5b50356001600160a01b0316610f89565b61021b600480360360208110156104cf57600080fd5b50356001600160a01b0316611076565b61026b600480360360208110156104f557600080fd5b50356001600160a01b031661108b565b61021b6004803603602081101561051b57600080fd5b50356001600160a01b0316611183565b600080610536611440565b506040805160208101909152600254815261054f611440565b61055982876111a1565b9150506105668186611209565b5192506105738684611233565b935050509250929050565b6001600160a01b031660009081526007602052604090205490565b90565b60045481565b600054600160a01b900460ff1681565b600080546001600160a01b03163314610600576040805162461bcd60e51b8152602060048201819052602482015260008051602061149c833981519152604482015290519081900360640190fd5b506000805460ff60a01b1916600160a01b8315150217905590565b6000546001600160a01b03163314610668576040805162461bcd60e51b8152602060048201819052602482015260008051602061149c833981519152604482015290519081900360640190fd5b6008548114156106bc576040805162461bcd60e51b815260206004820152601a60248201527914d85b5948199959481c985d1a5bc8185b1c9958591e481cd95d60321b604482015290519081900360640190fd5b670de0b6b3a7640000811061070c576040805162461bcd60e51b8152602060048201526011602482015270496e76616c69642066656520726174696f60781b604482015290519081900360640190fd5b6008805490829055604080518281526020810184905281517f485939a71b484cdb1e63023e58c1cc5bffbb065fc52a800b02333c68c5dd960b929181900390910190a15050565b6000546001600160a01b031633146107a0576040805162461bcd60e51b8152602060048201819052602482015260008051602061149c833981519152604482015290519081900360640190fd5b670de0b6b3a764000081106107e65760405162461bcd60e51b815260040180806020018281038252602281526020018061147a6022913960400191505060405180910390fd5b6004805490829055604080518281526020810184905281517f41b9e5b4e4af46da37df7c4d6f0ed2276cff9b099bc8d60f1361e5480b0ef00d929181900390910190a15050565b6001546001600160a01b031681565b6000546001600160a01b03163314610889576040805162461bcd60e51b8152602060048201819052602482015260008051602061149c833981519152604482015290519081900360640190fd5b6001600160a01b0381166108d2576040805162461bcd60e51b815260206004820152601b60248201526000805160206114e4833981519152604482015290519081900360640190fd5b6001600160a01b0381166000818152600560209081526040808320805460ff1916905580519384529083019190915280517f3f50d04114467f3ca25c50f1540e2864f8a852c0380bbbbb603ebfda10b5baf29281900390910190a150565b6000546001600160a01b0316331461097d576040805162461bcd60e51b8152602060048201819052602482015260008051602061149c833981519152604482015290519081900360640190fd5b600080546040516001600160a01b03909116907f8be0079c531659141344cd1fd0a4f28419497f9722a3daafe3b4186f6b6457e0908390a3600080546001600160a01b0319169055565b6000546001600160a01b03163314610a14576040805162461bcd60e51b8152602060048201819052602482015260008051602061149c833981519152604482015290519081900360640190fd5b600180546001600160a01b038381166001600160a01b0319831617928390556040805192821680845293909116602083015280517f80061c7335a0f9bdec054a1c794deb6a05a0ed8533a601664cf7db64a3ed296a9281900390910190a15050565b6000546001600160a01b031690565b600080610a918461126d565b1580610ab557506001600160a01b03841660009081526005602052604090205460ff165b15610ac557508190506000610afa565b610acd611440565b5060408051602081019091526004548152610ae88185611273565b9350610af690508484611233565b9150505b9250929050565b60025481565b60076020526000908152604090205481565b6000546001600160a01b03163314610b66576040805162461bcd60e51b8152602060048201819052602482015260008051602061149c833981519152604482015290519081900360640190fd5b600380546001600160a01b038381166001600160a01b0319831617928390556040805192821680845293909116602083015280517f74a5eddfef1d3fc580dee25f39692077d7f84f55a357b9d19bb469867dd81fdf9281900390910190a15050565b60056020526000908152604090205460ff1681565b6000546001600160a01b03163314610c2a576040805162461bcd60e51b8152602060048201819052602482015260008051602061149c833981519152604482015290519081900360640190fd5b6001600160a01b038116610c73576040805162461bcd60e51b815260206004820152601b60248201526000805160206114e4833981519152604482015290519081900360640190fd5b6001600160a01b0381166000818152600660209081526040808320805460ff1916905580519384529083019190915280517f739f0e2acc6e65f7a52f8eabe2ca426ca0fb5158e8232d7bcd21bebd59b4ea529281900390910190a150565b6000546001600160a01b031681565b6000546001600160a01b03163314610d2d576040805162461bcd60e51b8152602060048201819052602482015260008051602061149c833981519152604482015290519081900360640190fd5b6002805490829055604080518281526020810184905281517f550d136d58901af374b8c16e4b5ca98acfc06d85a4a095df1cf919aef02c355f929181900390910190a15050565b610d7c610a76565b6001600160a01b0316336001600160a01b031614610dcb5760405162461bcd60e51b81526004018080602001828103825260288152602001806114bc6028913960400191505060405180910390fd5b6001600160a01b0382166000818152600760209081526040918290208490558151928352820183905280517facba5197b02f201109f99752a9adb58c2598809f6acb3c34b7f1445f0cbeee879281900390910190a15050565b6001600160a01b03831660009081526005602052604081205460ff1615610e4d57506000610e75565b610e55611440565b5060408051602081019091526008548152610e708184611273565b925050505b9392505050565b6000546001600160a01b03163314610ec9576040805162461bcd60e51b8152602060048201819052602482015260008051602061149c833981519152604482015290519081900360640190fd5b6001600160a01b038116610f12576040805162461bcd60e51b815260206004820152601b60248201526000805160206114e4833981519152604482015290519081900360640190fd5b6001600160a01b038116600081815260066020908152604091829020805460ff1916600190811790915582519384529083015280517f739f0e2acc6e65f7a52f8eabe2ca426ca0fb5158e8232d7bcd21bebd59b4ea529281900390910190a150565b60085481565b6003546001600160a01b031681565b6000546001600160a01b03163314610fd6576040805162461bcd60e51b8152602060048201819052602482015260008051602061149c833981519152604482015290519081900360640190fd5b6001600160a01b03811661101b5760405162461bcd60e51b81526004018080602001828103825260268152602001806114546026913960400191505060405180910390fd5b600080546040516001600160a01b03808516939216917f8be0079c531659141344cd1fd0a4f28419497f9722a3daafe3b4186f6b6457e091a3600080546001600160a01b0319166001600160a01b0392909216919091179055565b60066020526000908152604090205460ff1681565b6000546001600160a01b031633146110d8576040805162461bcd60e51b8152602060048201819052602482015260008051602061149c833981519152604482015290519081900360640190fd5b6001600160a01b038116611121576040805162461bcd60e51b815260206004820152601b60248201526000805160206114e4833981519152604482015290519081900360640190fd5b6001600160a01b038116600081815260056020908152604091829020805460ff1916600190811790915582519384529083015280517f3f50d04114467f3ca25c50f1540e2864f8a852c0380bbbbb603ebfda10b5baf29281900390910190a150565b6001600160a01b031660009081526006602052604090205460ff1690565b60006111ab611440565b6000806111bc8660000151866112c6565b909250905060008260038111156111cf57fe5b146111ee57506040805160208101909152600081529092509050610afa565b60408051602081019091529081526000969095509350505050565b611211611440565b604051806020016040528061122a856000015185611305565b90529392505050565b6000610e758383604051806040016040528060158152602001747375627472616374696f6e20756e646572666c6f7760581b815250611338565b3b151590565b6000806000611280611440565b61128a86866111a1565b9092509050600082600381111561129d57fe5b146112ae5750915060009050610afa565b60006112b9826113cf565b9350935050509250929050565b600080836112d957506000905080610afa565b838302838582816112e657fe5b04146112fa57506002915060009050610afa565b600092509050610afa565b6000610e7583836040518060400160405280600e81526020016d646976696465206279207a65726f60901b8152506113de565b600081848411156113c75760405162461bcd60e51b81526004018080602001828103825283818151815260200191508051906020019080838360005b8381101561138c578181015183820152602001611374565b50505050905090810190601f1680156113b95780820380516001836020036101000a031916815260200191505b509250505060405180910390fd5b505050900390565b51670de0b6b3a7640000900490565b6000818361142d5760405162461bcd60e51b815260206004820181815283516024840152835190928392604490910191908501908083836000831561138c578181015183820152602001611374565b5082848161143757fe5b04949350505050565b604051806020016040528060008152509056fe4f776e61626c653a206e6577206f776e657220697320746865207a65726f2061646472657373636f6d70526174696f2073686f756c64206265206c657373207468656e20313030254f776e61626c653a2063616c6c6572206973206e6f7420746865206f776e65726f6e6c79206f776e65722063616e207365742070726f746f636f6c20637265646974206c696d69745a65726f2061646472657373206973206e6f7420616c6c6f7765640000000000a265627a7a7231582035819ad4c2a3d550958ff9f5cbc4f14359f75b4f422ac8ecea2df4e20d8587f464736f6c63430005100032",
  "source": "pragma solidity ^0.5.16;\n\nimport \"./compound/Unitroller.sol\";\nimport \"./compound/Exponential.sol\";\nimport \"./Ownable.sol\";\n\ncontract QsConfig is Ownable, Exponential {\n    bool public compSpeedGuardianPaused = true;\n    address public compToken;\n    uint public safetyVaultRatio;\n    address public safetyVault;\n\n    uint public compRatio = 0.5e18;\n    mapping(address => bool) public whitelist;\n    mapping(address => bool) public blacklist;\n    // creditLimits allowed specific protocols to borrow and repay without collateral\n    mapping(address => uint) public creditLimits;\n    uint public flashLoanFeeRatio = 0.0001e18;\n\n    event NewCompToken(address oldCompToken, address newCompToken);\n    event NewSafetyVault(address oldSafetyVault, address newSafetyVault);\n    event NewSafetyVaultRatio(uint oldSafetyVaultRatio, uint newSafetyVault);\n\n    event NewCompRatio(uint oldCompRatio, uint newCompRatio);\n    event WhitelistChange(address user, bool enabled);\n    event BlacklistChange(address user, bool enabled);\n    /// @notice Emitted when protocol's credit limit has changed\n    event CreditLimitChanged(address protocol, uint creditLimit);\n    event FlashLoanFeeRatioChanged(uint oldFeeRatio, uint newFeeRatio);\n\n    constructor(QsConfig previousQsConfig) public {\n        if (address(previousQsConfig) == address(0x0)) return;\n\n        compToken = previousQsConfig.compToken();\n        safetyVaultRatio = previousQsConfig.safetyVaultRatio();\n        safetyVault = previousQsConfig.safetyVault();\n    }\n\n    /**\n     * @notice Sets whitelisted protocol's credit limit\n     * @param protocol The address of the protocol\n     * @param creditLimit The credit limit\n     */\n    function _setCreditLimit(address protocol, uint creditLimit) public {\n        require(msg.sender == owner(), \"only owner can set protocol credit limit\");\n\n        creditLimits[protocol] = creditLimit;\n        emit CreditLimitChanged(protocol, creditLimit);\n    }\n\n    function _setCompToken(address _compToken) public onlyOwner {\n        address oldCompToken = compToken;\n        compToken = _compToken;\n        emit NewCompToken(oldCompToken, compToken);\n    }\n\n    function _setSafetyVault(address _safetyVault) public onlyOwner {\n        address oldSafetyVault = safetyVault;\n        safetyVault = _safetyVault;\n        emit NewSafetyVault(oldSafetyVault, safetyVault);\n    }\n\n    function _setSafetyVaultRatio(uint _safetyVaultRatio) public onlyOwner {\n        uint oldSafetyVaultRatio = safetyVaultRatio;\n        safetyVaultRatio = _safetyVaultRatio;\n        emit NewSafetyVaultRatio(oldSafetyVaultRatio, safetyVaultRatio);\n    }\n    \n    function _setCompSpeedGuardianPaused(bool state) public onlyOwner returns (bool) {\n        compSpeedGuardianPaused = state;\n        return state;\n    }\n\n    function getCreditLimit(address protocol) external view returns(uint) {\n        return creditLimits[protocol];\n    }\n\n    function calculateSeizeTokenAllocation(uint _seizeTokenAmount, uint liquidationIncentiveMantissa) public view returns(uint liquidatorAmount, uint safetyVaultAmount) {\n        Exp memory vaultRatio = Exp({mantissa:safetyVaultRatio});\n        (,Exp memory tmp) = mulScalar(vaultRatio, _seizeTokenAmount);\n        safetyVaultAmount = div_(tmp, liquidationIncentiveMantissa).mantissa;\n        liquidatorAmount = sub_(_seizeTokenAmount, safetyVaultAmount);\n    }\n\n    function getCompAllocation(address user, uint userAccrued) public view returns(uint userAmount, uint governanceAmount) {\n        if (!isContract(user) || whitelist[user]) {\n            return (userAccrued, 0);\n        }\n\n        Exp memory compRatioExp = Exp({mantissa:compRatio});\n        (, userAmount) = mulScalarTruncate(compRatioExp, userAccrued);\n        governanceAmount = sub_(userAccrued, userAmount);\n    }\n\n    function getSupplyCap(uint defaultSupplyCap) external pure returns (uint supplyCap) {\n        supplyCap = defaultSupplyCap;\n    }\n\n    function getBorrowCap(uint defaultBorrowCap) external pure returns (uint borrowCap) {\n        borrowCap = defaultBorrowCap;\n    }\n\n    function getFlashFee(address borrower, address token, uint256 amount) external view returns (uint flashFee) {\n        if (whitelist[borrower]) {\n            return 0;\n        }\n        Exp memory flashLoanFeeRatioExp = Exp({mantissa:flashLoanFeeRatio});\n        (, flashFee) = mulScalarTruncate(flashLoanFeeRatioExp, amount);\n\n        token;\n    }\n\n    function _setCompRatio(uint _compRatio) public onlyOwner {\n        require(_compRatio < 1e18, \"compRatio should be less then 100%\");\n        uint oldCompRatio = compRatio;\n        compRatio = _compRatio;\n\n        emit NewCompRatio(oldCompRatio, compRatio);\n    }\n\n    function isBlocked(address user) public view returns (bool) {\n        return blacklist[user];\n    }\n\n    function _addToWhitelist(address _member) public onlyOwner {\n        require(_member != address(0x0), \"Zero address is not allowed\");\n        whitelist[_member] = true;\n\n        emit WhitelistChange(_member, true);\n    }\n\n    function _removeFromWhitelist(address _member) public onlyOwner {\n        require(_member != address(0x0), \"Zero address is not allowed\");\n        whitelist[_member] = false;\n\n        emit WhitelistChange(_member, false);\n    }\n\n    function _addToBlacklist(address _member) public onlyOwner {\n        require(_member != address(0x0), \"Zero address is not allowed\");\n        blacklist[_member] = true;\n\n        emit BlacklistChange(_member, true);\n    }\n\n    function _removeFromBlacklist(address _member) public onlyOwner {\n        require(_member != address(0x0), \"Zero address is not allowed\");\n        blacklist[_member] = false;\n\n        emit BlacklistChange(_member, false);\n    }\n\n    function _setFlashLoanFeeRatio(uint _feeRatio) public onlyOwner {\n        require(_feeRatio != flashLoanFeeRatio, \"Same fee ratio already set\");\n        require(_feeRatio < 1e18, \"Invalid fee ratio\");\n\n        uint oldFeeRatio = flashLoanFeeRatio;\n        flashLoanFeeRatio = _feeRatio;\n\n        emit FlashLoanFeeRatioChanged(oldFeeRatio, flashLoanFeeRatio);\n    }\n\n    function isContract(address account) internal view returns (bool) {\n        // This method relies on extcodesize, which returns 0 for contracts in\n        // construction, since the code is only stored at the end of the\n        // constructor execution.\n\n        uint256 size;\n        // solhint-disable-next-line no-inline-assembly\n        assembly { size := extcodesize(account) }\n        return size > 0;\n    }\n}",
  "sourcePath": "/Users/ashton/repo/blockchain/eth/smartcontracts/quicksilver-protocol/contracts/QsConfig.sol",
  "compiler": {
    "name": "solc",
    "version": "0.5.16+commit.9c3226ce.Emscripten.clang"
  },
  "schemaVersion": "3.4.1",
  "updatedAt": "2021-08-05T05:29:25.038Z",
  "devdoc": {
    "methods": {
      "_setCreditLimit(address,uint256)": {
        "params": {
          "creditLimit": "The credit limit",
          "protocol": "The address of the protocol"
        }
      }
    }
  },
  "userdoc": {
    "methods": {
      "_setCreditLimit(address,uint256)": {
        "notice": "Sets whitelisted protocol's credit limit"
      }
    }
  }
}