{
  "contractName": "QsConfig",
  "abi": [
    {
      "anonymous": false,
      "inputs": [
        {
          "indexed": false,
          "internalType": "address",
          "name": "oldCompToken",
          "type": "address"
        },
        {
          "indexed": false,
          "internalType": "address",
          "name": "newCompToken",
          "type": "address"
        }
      ],
      "name": "NewCompToken",
      "type": "event"
    },
    {
      "anonymous": false,
      "inputs": [
        {
          "indexed": false,
          "internalType": "address",
          "name": "oldSafetyVault",
          "type": "address"
        },
        {
          "indexed": false,
          "internalType": "address",
          "name": "newSafetyVault",
          "type": "address"
        }
      ],
      "name": "NewSafetyVault",
      "type": "event"
    },
    {
      "anonymous": false,
      "inputs": [
        {
          "indexed": false,
          "internalType": "uint256",
          "name": "oldSafetyVaultRatio",
          "type": "uint256"
        },
        {
          "indexed": false,
          "internalType": "uint256",
          "name": "newSafetyVault",
          "type": "uint256"
        }
      ],
      "name": "NewSafetyVaultRatio",
      "type": "event"
    },
    {
      "anonymous": false,
      "inputs": [
        {
          "indexed": true,
          "internalType": "address",
          "name": "previousOwner",
          "type": "address"
        },
        {
          "indexed": true,
          "internalType": "address",
          "name": "newOwner",
          "type": "address"
        }
      ],
      "name": "OwnershipTransferred",
      "type": "event"
    },
    {
      "constant": true,
      "inputs": [],
      "name": "_owner",
      "outputs": [
        {
          "internalType": "address",
          "name": "",
          "type": "address"
        }
      ],
      "payable": false,
      "stateMutability": "view",
      "type": "function"
    },
    {
      "constant": true,
      "inputs": [],
      "name": "compSpeedGuardianPaused",
      "outputs": [
        {
          "internalType": "bool",
          "name": "",
          "type": "bool"
        }
      ],
      "payable": false,
      "stateMutability": "view",
      "type": "function"
    },
    {
      "constant": true,
      "inputs": [],
      "name": "compToken",
      "outputs": [
        {
          "internalType": "address",
          "name": "",
          "type": "address"
        }
      ],
      "payable": false,
      "stateMutability": "view",
      "type": "function"
    },
    {
      "constant": true,
      "inputs": [],
      "name": "owner",
      "outputs": [
        {
          "internalType": "address",
          "name": "",
          "type": "address"
        }
      ],
      "payable": false,
      "stateMutability": "view",
      "type": "function"
    },
    {
      "constant": false,
      "inputs": [],
      "name": "renounceOwnership",
      "outputs": [],
      "payable": false,
      "stateMutability": "nonpayable",
      "type": "function"
    },
    {
      "constant": true,
      "inputs": [],
      "name": "safetyVault",
      "outputs": [
        {
          "internalType": "address",
          "name": "",
          "type": "address"
        }
      ],
      "payable": false,
      "stateMutability": "view",
      "type": "function"
    },
    {
      "constant": true,
      "inputs": [],
      "name": "safetyVaultRatio",
      "outputs": [
        {
          "internalType": "uint256",
          "name": "",
          "type": "uint256"
        }
      ],
      "payable": false,
      "stateMutability": "view",
      "type": "function"
    },
    {
      "constant": false,
      "inputs": [
        {
          "internalType": "address",
          "name": "newOwner",
          "type": "address"
        }
      ],
      "name": "transferOwnership",
      "outputs": [],
      "payable": false,
      "stateMutability": "nonpayable",
      "type": "function"
    },
    {
      "constant": false,
      "inputs": [
        {
          "internalType": "address",
          "name": "_compToken",
          "type": "address"
        }
      ],
      "name": "_setCompToken",
      "outputs": [],
      "payable": false,
      "stateMutability": "nonpayable",
      "type": "function"
    },
    {
      "constant": false,
      "inputs": [
        {
          "internalType": "address",
          "name": "_safetyVault",
          "type": "address"
        }
      ],
      "name": "_setSafetyVault",
      "outputs": [],
      "payable": false,
      "stateMutability": "nonpayable",
      "type": "function"
    },
    {
      "constant": false,
      "inputs": [
        {
          "internalType": "uint256",
          "name": "_safetyVaultRatio",
          "type": "uint256"
        }
      ],
      "name": "_setSafetyVaultRatio",
      "outputs": [],
      "payable": false,
      "stateMutability": "nonpayable",
      "type": "function"
    },
    {
      "constant": false,
      "inputs": [
        {
          "internalType": "bool",
          "name": "state",
          "type": "bool"
        }
      ],
      "name": "_setCompSpeedGuardianPaused",
      "outputs": [
        {
          "internalType": "bool",
          "name": "",
          "type": "bool"
        }
      ],
      "payable": false,
      "stateMutability": "nonpayable",
      "type": "function"
    },
    {
      "constant": true,
      "inputs": [
        {
          "internalType": "uint256",
          "name": "_seizeTokenAmount",
          "type": "uint256"
        },
        {
          "internalType": "uint256",
          "name": "liquidationIncentiveMantissa",
          "type": "uint256"
        }
      ],
      "name": "calculateSeizeTokenAllocation",
      "outputs": [
        {
          "internalType": "uint256",
          "name": "liquidatorAmount",
          "type": "uint256"
        },
        {
          "internalType": "uint256",
          "name": "safetyVaultAmount",
          "type": "uint256"
        }
      ],
      "payable": false,
      "stateMutability": "view",
      "type": "function"
    }
  ],
  "bytecode": "0x60806040819052600080546001600160a01b031960ff60a01b19909116600160a01b1716339081178255917f8be0079c531659141344cd1fd0a4f28419497f9722a3daafe3b4186f6b6457e0908290a361096c8061005e6000396000f3fe608060405234801561001057600080fd5b50600436106100af5760003560e01c80630cab477a146100b45780634bc51e76146100f057806355e8110f1461010c5780636605dfa71461012b578063715018a61461014f578063719df4fc146101595780638da5cb5b1461017f57806398aeca8f146101875780639a83b63f146101a1578063b2bdfa7b146101c7578063b9507f58146101cf578063ee9e8199146101ec578063f2fde38b146101f4575b600080fd5b6100d7600480360360408110156100ca57600080fd5b508035906020013561021a565b6040805192835260208301919091528051918290030190f35b6100f861026d565b604080519115158252519081900360200190f35b6100f86004803603602081101561012257600080fd5b5035151561027d565b6101336102e6565b604080516001600160a01b039092168252519081900360200190f35b6101576102f5565b005b6101576004803603602081101561016f57600080fd5b50356001600160a01b031661038c565b61013361043b565b61018f61044a565b60408051918252519081900360200190f35b610157600480360360208110156101b757600080fd5b50356001600160a01b0316610450565b6101336104ff565b610157600480360360208110156101e557600080fd5b503561050e565b6101336105a2565b6101576004803603602081101561020a57600080fd5b50356001600160a01b03166105b1565b6000806102256108de565b506040805160208101909152600254815261023e6108de565b610248828761069e565b9150506102558186610708565b5192506102628684610732565b935050509250929050565b600054600160a01b900460ff1681565b600080546001600160a01b031633146102cb576040805162461bcd60e51b81526020600482018190526024820152600080516020610918833981519152604482015290519081900360640190fd5b506000805460ff60a01b1916600160a01b8315150217905590565b6001546001600160a01b031681565b6000546001600160a01b03163314610342576040805162461bcd60e51b81526020600482018190526024820152600080516020610918833981519152604482015290519081900360640190fd5b600080546040516001600160a01b03909116907f8be0079c531659141344cd1fd0a4f28419497f9722a3daafe3b4186f6b6457e0908390a3600080546001600160a01b0319169055565b6000546001600160a01b031633146103d9576040805162461bcd60e51b81526020600482018190526024820152600080516020610918833981519152604482015290519081900360640190fd5b600180546001600160a01b038381166001600160a01b0319831617928390556040805192821680845293909116602083015280517f80061c7335a0f9bdec054a1c794deb6a05a0ed8533a601664cf7db64a3ed296a9281900390910190a15050565b6000546001600160a01b031690565b60025481565b6000546001600160a01b0316331461049d576040805162461bcd60e51b81526020600482018190526024820152600080516020610918833981519152604482015290519081900360640190fd5b600380546001600160a01b038381166001600160a01b0319831617928390556040805192821680845293909116602083015280517f74a5eddfef1d3fc580dee25f39692077d7f84f55a357b9d19bb469867dd81fdf9281900390910190a15050565b6000546001600160a01b031681565b6000546001600160a01b0316331461055b576040805162461bcd60e51b81526020600482018190526024820152600080516020610918833981519152604482015290519081900360640190fd5b6002805490829055604080518281526020810184905281517f550d136d58901af374b8c16e4b5ca98acfc06d85a4a095df1cf919aef02c355f929181900390910190a15050565b6003546001600160a01b031681565b6000546001600160a01b031633146105fe576040805162461bcd60e51b81526020600482018190526024820152600080516020610918833981519152604482015290519081900360640190fd5b6001600160a01b0381166106435760405162461bcd60e51b81526004018080602001828103825260268152602001806108f26026913960400191505060405180910390fd5b600080546040516001600160a01b03808516939216917f8be0079c531659141344cd1fd0a4f28419497f9722a3daafe3b4186f6b6457e091a3600080546001600160a01b0319166001600160a01b0392909216919091179055565b60006106a86108de565b6000806106b9866000015186610773565b909250905060008260038111156106cc57fe5b146106eb57506040805160208101909152600081529092509050610701565b6040805160208101909152908152600093509150505b9250929050565b6107106108de565b60405180602001604052806107298560000151856107b2565b90529392505050565b600061076c8383604051806040016040528060158152602001747375627472616374696f6e20756e646572666c6f7760581b8152506107e5565b9392505050565b6000808361078657506000905080610701565b8383028385828161079357fe5b04146107a757506002915060009050610701565b600092509050610701565b600061076c83836040518060400160405280600e81526020016d646976696465206279207a65726f60901b81525061087c565b600081848411156108745760405162461bcd60e51b81526004018080602001828103825283818151815260200191508051906020019080838360005b83811015610839578181015183820152602001610821565b50505050905090810190601f1680156108665780820380516001836020036101000a031916815260200191505b509250505060405180910390fd5b505050900390565b600081836108cb5760405162461bcd60e51b8152602060048201818152835160248401528351909283926044909101919085019080838360008315610839578181015183820152602001610821565b508284816108d557fe5b04949350505050565b604051806020016040528060008152509056fe4f776e61626c653a206e6577206f776e657220697320746865207a65726f20616464726573734f776e61626c653a2063616c6c6572206973206e6f7420746865206f776e6572a265627a7a723158205bea64c7ccd987c19ae1582b0f8b09e180648558ad1da1a9e07ad4be8a4fa48f64736f6c63430005100032",
  "source": "pragma solidity ^0.5.16;\n\nimport \"./compound/Unitroller.sol\";\nimport \"./compound/Exponential.sol\";\nimport \"./Ownable.sol\";\n\ncontract QsConfig is Ownable, Exponential {\n    bool public compSpeedGuardianPaused = true;\n    address public compToken;\n    uint public safetyVaultRatio;\n    address public safetyVault;\n\n    event NewCompToken(address oldCompToken, address newCompToken);\n    event NewSafetyVault(address oldSafetyVault, address newSafetyVault);\n    event NewSafetyVaultRatio(uint oldSafetyVaultRatio, uint newSafetyVault);\n\n    function _setCompToken(address _compToken) public onlyOwner {\n        address oldCompToken = compToken;\n        compToken = _compToken;\n        emit NewCompToken(oldCompToken, compToken);\n    }\n\n    function _setSafetyVault(address _safetyVault) public onlyOwner {\n        address oldSafetyVault = safetyVault;\n        safetyVault = _safetyVault;\n        emit NewSafetyVault(oldSafetyVault, safetyVault);\n    }\n\n    function _setSafetyVaultRatio(uint _safetyVaultRatio) public onlyOwner {\n        uint oldSafetyVaultRatio = safetyVaultRatio;\n        safetyVaultRatio = _safetyVaultRatio;\n        emit NewSafetyVaultRatio(oldSafetyVaultRatio, safetyVaultRatio);\n    }\n    \n    function _setCompSpeedGuardianPaused(bool state) public onlyOwner returns (bool) {\n        compSpeedGuardianPaused = state;\n        return state;\n    }\n    \n    function calculateSeizeTokenAllocation(uint _seizeTokenAmount, uint liquidationIncentiveMantissa) public view returns(uint liquidatorAmount, uint safetyVaultAmount) {\n        Exp memory vaultRatio = Exp({mantissa:safetyVaultRatio});\n        (,Exp memory tmp) = mulScalar(vaultRatio, _seizeTokenAmount);\n        safetyVaultAmount = div_(tmp, liquidationIncentiveMantissa).mantissa;\n        liquidatorAmount = sub_(_seizeTokenAmount, safetyVaultAmount);\n    }\n}",
  "sourcePath": "/Users/ashton/repo/blockchain/eth/smartcontracts/quicksilver-protocol/contracts/QsConfig.sol",
  "compiler": {
    "name": "solc",
    "version": "0.5.16+commit.9c3226ce.Emscripten.clang"
  },
  "schemaVersion": "3.4.3",
  "updatedAt": "2021-09-01T14:47:04.028Z",
  "devdoc": {
    "methods": {}
  },
  "userdoc": {
    "methods": {}
  }
}