{
  "contractName": "QsPriceOracle",
  "abi": [
    {
      "inputs": [],
      "payable": false,
      "stateMutability": "nonpayable",
      "type": "constructor"
    },
    {
      "anonymous": false,
      "inputs": [
        {
          "indexed": true,
          "internalType": "address",
          "name": "previousAdmin",
          "type": "address"
        },
        {
          "indexed": true,
          "internalType": "address",
          "name": "newAdmin",
          "type": "address"
        }
      ],
      "name": "PriceAdminTransferred",
      "type": "event"
    },
    {
      "anonymous": false,
      "inputs": [
        {
          "indexed": false,
          "internalType": "address",
          "name": "asset",
          "type": "address"
        },
        {
          "indexed": false,
          "internalType": "uint256",
          "name": "previousPriceMantissa",
          "type": "uint256"
        },
        {
          "indexed": false,
          "internalType": "uint256",
          "name": "requestedPriceMantissa",
          "type": "uint256"
        },
        {
          "indexed": false,
          "internalType": "uint256",
          "name": "newPriceMantissa",
          "type": "uint256"
        }
      ],
      "name": "PricePosted",
      "type": "event"
    },
    {
      "constant": true,
      "inputs": [],
      "name": "isPriceOracle",
      "outputs": [
        {
          "internalType": "bool",
          "name": "",
          "type": "bool"
        }
      ],
      "payable": false,
      "stateMutability": "view",
      "type": "function"
    },
    {
      "constant": true,
      "inputs": [],
      "name": "priceAdmin",
      "outputs": [
        {
          "internalType": "address",
          "name": "",
          "type": "address"
        }
      ],
      "payable": false,
      "stateMutability": "view",
      "type": "function"
    },
    {
      "constant": true,
      "inputs": [
        {
          "internalType": "contract CToken",
          "name": "cToken",
          "type": "address"
        }
      ],
      "name": "getUnderlyingPrice",
      "outputs": [
        {
          "internalType": "uint256",
          "name": "",
          "type": "uint256"
        }
      ],
      "payable": false,
      "stateMutability": "view",
      "type": "function"
    },
    {
      "constant": false,
      "inputs": [
        {
          "internalType": "contract CToken",
          "name": "cToken",
          "type": "address"
        },
        {
          "internalType": "uint256",
          "name": "underlyingPriceMantissa",
          "type": "uint256"
        }
      ],
      "name": "setUnderlyingPrice",
      "outputs": [],
      "payable": false,
      "stateMutability": "nonpayable",
      "type": "function"
    },
    {
      "constant": false,
      "inputs": [
        {
          "internalType": "address",
          "name": "_asset",
          "type": "address"
        },
        {
          "internalType": "uint256",
          "name": "_price",
          "type": "uint256"
        }
      ],
      "name": "setDirectPrice",
      "outputs": [],
      "payable": false,
      "stateMutability": "nonpayable",
      "type": "function"
    },
    {
      "constant": false,
      "inputs": [
        {
          "internalType": "address[]",
          "name": "_assets",
          "type": "address[]"
        },
        {
          "internalType": "uint256[]",
          "name": "_prices",
          "type": "uint256[]"
        }
      ],
      "name": "setDirectPrice",
      "outputs": [],
      "payable": false,
      "stateMutability": "nonpayable",
      "type": "function"
    },
    {
      "constant": true,
      "inputs": [
        {
          "internalType": "address",
          "name": "asset",
          "type": "address"
        }
      ],
      "name": "assetPrices",
      "outputs": [
        {
          "internalType": "uint256",
          "name": "",
          "type": "uint256"
        }
      ],
      "payable": false,
      "stateMutability": "view",
      "type": "function"
    },
    {
      "constant": false,
      "inputs": [
        {
          "internalType": "address",
          "name": "newAdmin",
          "type": "address"
        }
      ],
      "name": "transferPriceAdmin",
      "outputs": [],
      "payable": false,
      "stateMutability": "nonpayable",
      "type": "function"
    }
  ],
  "bytecode": "0x608060405234801561001057600080fd5b50600180546001600160a01b03191633179055610914806100326000396000f3fe608060405234801561001057600080fd5b50600436106100785760003560e01c806309a8acb01461007d578063127ffda0146100ab57806324e48a2d146100d757806357dda26a146101fa5780635e9a523c1461021e5780636523f0471461025657806366331bba1461027c578063fc57d4df14610298575b600080fd5b6100a96004803603604081101561009357600080fd5b506001600160a01b0381351690602001356102be565b005b6100a9600480360360408110156100c157600080fd5b506001600160a01b03813516906020013561036e565b6100a9600480360360408110156100ed57600080fd5b810190602081018135600160201b81111561010757600080fd5b82018360208201111561011957600080fd5b803590602001918460208302840111600160201b8311171561013a57600080fd5b9190808060200260200160405190810160405280939291908181526020018383602002808284376000920191909152509295949360208101935035915050600160201b81111561018957600080fd5b82018360208201111561019b57600080fd5b803590602001918460208302840111600160201b831117156101bc57600080fd5b919080806020026020016040519081016040528093929190818152602001838360200280828437600092019190915250929550610433945050505050565b61020261064a565b604080516001600160a01b039092168252519081900360200190f35b6102446004803603602081101561023457600080fd5b50356001600160a01b0316610659565b60408051918252519081900360200190f35b6100a96004803603602081101561026c57600080fd5b50356001600160a01b0316610678565b610284610766565b604080519115158252519081900360200190f35b610244600480360360208110156102ae57600080fd5b50356001600160a01b031661076b565b6001546001600160a01b0316331461030b576040805162461bcd60e51b815260206004820152601560248201526000805160206108c0833981519152604482015290519081900360640190fd5b6001600160a01b038216600081815260208181526040918290208490558151928352820183905281810183905260608201839052517fdd71a1d19fcba687442a1d5c58578f1e409af71a79d10fd95a4d66efd8fa9ae79181900360800190a15050565b6001546001600160a01b031633146103bb576040805162461bcd60e51b815260206004820152601560248201526000805160206108c0833981519152604482015290519081900360640190fd5b6000826001600160a01b0316636f307dc36040518163ffffffff1660e01b815260040160206040518083038186803b1580156103f657600080fd5b505afa15801561040a573d6000803e3d6000fd5b505050506040513d602081101561042057600080fd5b5051905061042e81836102be565b505050565b6001546001600160a01b03163314610480576040805162461bcd60e51b815260206004820152601560248201526000805160206108c0833981519152604482015290519081900360640190fd5b60008251116104c05760405162461bcd60e51b815260040180806020018281038252602481526020018061089c6024913960400191505060405180910390fd5b8051825114610516576040805162461bcd60e51b815260206004820152601f60248201527f41737365747320616e642070726963657320617265206e6f74206d6174636800604482015290519081900360640190fd5b60005b825181101561042e5781818151811061052e57fe5b602002602001015160008085848151811061054557fe5b60200260200101516001600160a01b03166001600160a01b03168152602001908152602001600020819055507fdd71a1d19fcba687442a1d5c58578f1e409af71a79d10fd95a4d66efd8fa9ae783828151811061059e57fe5b60200260200101516000808685815181106105b557fe5b60200260200101516001600160a01b03166001600160a01b03168152602001908152602001600020548484815181106105ea57fe5b60200260200101518585815181106105fe57fe5b602002602001015160405180856001600160a01b03166001600160a01b0316815260200184815260200183815260200182815260200194505050505060405180910390a1600101610519565b6001546001600160a01b031681565b6001600160a01b0381166000908152602081905260409020545b919050565b6001546001600160a01b031633146106c5576040805162461bcd60e51b815260206004820152601560248201526000805160206108c0833981519152604482015290519081900360640190fd5b6001600160a01b03811661070a5760405162461bcd60e51b815260040180806020018281038252602c815260200180610870602c913960400191505060405180910390fd5b6001546040516001600160a01b038084169216907f8882c10d3ba593f97df90263d1d7e7d36f3c647682426c051ecc3618e3172cea90600090a3600180546001600160a01b0319166001600160a01b0392909216919091179055565b600181565b6000816001600160a01b0316639af4ee7e6040518163ffffffff1660e01b815260040160206040518083038186803b1580156107a657600080fd5b505afa1580156107ba573d6000803e3d6000fd5b505050506040513d60208110156107d057600080fd5b5051156107e65750670de0b6b3a7640000610673565b600080836001600160a01b0316636f307dc36040518163ffffffff1660e01b815260040160206040518083038186803b15801561082257600080fd5b505afa158015610836573d6000803e3d6000fd5b505050506040513d602081101561084c57600080fd5b50516001600160a01b03168152602081019190915260400160002054905061067356fe4f776e61626c653a206e65772070726963652061646d696e20697320746865207a65726f20616464726573734174206c65617374206f6e6520617373657420707269636520697320726571756972656450726963652041646d696e2072657175697265642e0000000000000000000000a265627a7a723158202084dd9874a2811c038a7d6798203653a587b5328aa4f536b0b2375a6edaccd364736f6c63430005100032",
  "source": "pragma solidity ^0.5.16;\n\nimport \"./compound/PriceOracle.sol\";\nimport \"./compound/CErc20.sol\";\nimport \"./IPriceCollector.sol\";\nimport \"./SToken.sol\";\n\ncontract QsPriceOracle is PriceOracle, IPriceCollector {\n    mapping(address => uint) prices;\n    address public priceAdmin;\n\n    event PricePosted(address asset, uint previousPriceMantissa, uint requestedPriceMantissa, uint newPriceMantissa);\n    event PriceAdminTransferred(address indexed previousAdmin, address indexed newAdmin);\n\n    modifier onlyAdmin {\n        require(msg.sender == priceAdmin, \"Price Admin required.\");\n        _;\n    }\n\n    constructor() public {\n            priceAdmin = msg.sender;\n    }\n\n    function getUnderlyingPrice(CToken cToken) public view returns (uint) {\n        if (SToken(address(cToken)).isNativeToken()) {\n            return 1e18;\n        } else {\n            return prices[address(CErc20(address(cToken)).underlying())];\n        }\n    }\n\n    function setUnderlyingPrice(CToken cToken, uint underlyingPriceMantissa) public onlyAdmin {\n        address asset = address(CErc20(address(cToken)).underlying());\n        setDirectPrice(asset, underlyingPriceMantissa);\n    }\n\n    function setDirectPrice(address _asset, uint _price) public onlyAdmin {\n        prices[_asset] = _price;\n        emit PricePosted(_asset, prices[_asset], _price, _price);\n    }\n\n    function setDirectPrice(address[] memory _assets, uint[] memory _prices) public onlyAdmin {\n        require(_assets.length > 0, \"At least one asset price is required\");\n        require(_assets.length == _prices.length, \"Assets and prices are not match\");\n\n        for (uint i = 0; i < _assets.length; i++) {\n            prices[_assets[i]] = _prices[i];\n            emit PricePosted(_assets[i], prices[_assets[i]], _prices[i], _prices[i]);\n        }\n    }\n\n    function assetPrices(address asset) external view returns (uint) {\n        return prices[asset];\n    }\n\n    function compareStrings(string memory a, string memory b) internal pure returns (bool) {\n        return (keccak256(abi.encodePacked((a))) == keccak256(abi.encodePacked((b))));\n    }\n\n    function transferPriceAdmin(address newAdmin) public onlyAdmin {\n        require(newAdmin != address(0), \"Ownable: new price admin is the zero address\");\n        emit PriceAdminTransferred(priceAdmin, newAdmin);\n        priceAdmin = newAdmin;\n    }\n}\n",
  "sourcePath": "/Users/ashton/repo/blockchain/eth/smartcontracts/quicksilver-protocol/contracts/QsPriceOracle.sol",
  "compiler": {
    "name": "solc",
    "version": "0.5.16+commit.9c3226ce.Emscripten.clang"
  },
  "schemaVersion": "3.4.1",
  "updatedAt": "2021-08-16T22:55:24.075Z",
  "devdoc": {
    "methods": {}
  },
  "userdoc": {
    "methods": {}
  }
}