{
  "contractName": "Qstroller",
  "abi": [
    {
      "anonymous": false,
      "inputs": [
        {
          "indexed": false,
          "internalType": "string",
          "name": "action",
          "type": "string"
        },
        {
          "indexed": false,
          "internalType": "bool",
          "name": "pauseState",
          "type": "bool"
        }
      ],
      "name": "ActionPaused",
      "type": "event"
    },
    {
      "anonymous": false,
      "inputs": [
        {
          "indexed": false,
          "internalType": "contract CToken",
          "name": "cToken",
          "type": "address"
        },
        {
          "indexed": false,
          "internalType": "string",
          "name": "action",
          "type": "string"
        },
        {
          "indexed": false,
          "internalType": "bool",
          "name": "pauseState",
          "type": "bool"
        }
      ],
      "name": "ActionPaused",
      "type": "event"
    },
    {
      "anonymous": false,
      "inputs": [
        {
          "indexed": true,
          "internalType": "contract CToken",
          "name": "cToken",
          "type": "address"
        },
        {
          "indexed": false,
          "internalType": "uint256",
          "name": "newSpeed",
          "type": "uint256"
        }
      ],
      "name": "CompSpeedUpdated",
      "type": "event"
    },
    {
      "anonymous": false,
      "inputs": [
        {
          "indexed": true,
          "internalType": "contract CToken",
          "name": "cToken",
          "type": "address"
        },
        {
          "indexed": true,
          "internalType": "address",
          "name": "borrower",
          "type": "address"
        },
        {
          "indexed": false,
          "internalType": "uint256",
          "name": "compDelta",
          "type": "uint256"
        },
        {
          "indexed": false,
          "internalType": "uint256",
          "name": "compBorrowIndex",
          "type": "uint256"
        }
      ],
      "name": "DistributedBorrowerComp",
      "type": "event"
    },
    {
      "anonymous": false,
      "inputs": [
        {
          "indexed": true,
          "internalType": "contract CToken",
          "name": "cToken",
          "type": "address"
        },
        {
          "indexed": true,
          "internalType": "address",
          "name": "supplier",
          "type": "address"
        },
        {
          "indexed": false,
          "internalType": "uint256",
          "name": "compDelta",
          "type": "uint256"
        },
        {
          "indexed": false,
          "internalType": "uint256",
          "name": "compSupplyIndex",
          "type": "uint256"
        }
      ],
      "name": "DistributedSupplierComp",
      "type": "event"
    },
    {
      "anonymous": false,
      "inputs": [
        {
          "indexed": false,
          "internalType": "uint256",
          "name": "error",
          "type": "uint256"
        },
        {
          "indexed": false,
          "internalType": "uint256",
          "name": "info",
          "type": "uint256"
        },
        {
          "indexed": false,
          "internalType": "uint256",
          "name": "detail",
          "type": "uint256"
        }
      ],
      "name": "Failure",
      "type": "event"
    },
    {
      "anonymous": false,
      "inputs": [
        {
          "indexed": false,
          "internalType": "contract CToken",
          "name": "cToken",
          "type": "address"
        },
        {
          "indexed": false,
          "internalType": "bool",
          "name": "isComped",
          "type": "bool"
        }
      ],
      "name": "MarketComped",
      "type": "event"
    },
    {
      "anonymous": false,
      "inputs": [
        {
          "indexed": false,
          "internalType": "contract CToken",
          "name": "cToken",
          "type": "address"
        }
      ],
      "name": "MarketDelisted",
      "type": "event"
    },
    {
      "anonymous": false,
      "inputs": [
        {
          "indexed": false,
          "internalType": "contract CToken",
          "name": "cToken",
          "type": "address"
        },
        {
          "indexed": false,
          "internalType": "address",
          "name": "account",
          "type": "address"
        }
      ],
      "name": "MarketEntered",
      "type": "event"
    },
    {
      "anonymous": false,
      "inputs": [
        {
          "indexed": false,
          "internalType": "contract CToken",
          "name": "cToken",
          "type": "address"
        },
        {
          "indexed": false,
          "internalType": "address",
          "name": "account",
          "type": "address"
        }
      ],
      "name": "MarketExited",
      "type": "event"
    },
    {
      "anonymous": false,
      "inputs": [
        {
          "indexed": false,
          "internalType": "contract CToken",
          "name": "cToken",
          "type": "address"
        }
      ],
      "name": "MarketListed",
      "type": "event"
    },
    {
      "anonymous": false,
      "inputs": [
        {
          "indexed": true,
          "internalType": "contract CToken",
          "name": "cToken",
          "type": "address"
        },
        {
          "indexed": false,
          "internalType": "uint256",
          "name": "newBorrowFactor",
          "type": "uint256"
        }
      ],
      "name": "NewBorrowFactor",
      "type": "event"
    },
    {
      "anonymous": false,
      "inputs": [
        {
          "indexed": false,
          "internalType": "uint256",
          "name": "oldCloseFactorMantissa",
          "type": "uint256"
        },
        {
          "indexed": false,
          "internalType": "uint256",
          "name": "newCloseFactorMantissa",
          "type": "uint256"
        }
      ],
      "name": "NewCloseFactor",
      "type": "event"
    },
    {
      "anonymous": false,
      "inputs": [
        {
          "indexed": false,
          "internalType": "contract CToken",
          "name": "cToken",
          "type": "address"
        },
        {
          "indexed": false,
          "internalType": "uint256",
          "name": "oldCollateralFactorMantissa",
          "type": "uint256"
        },
        {
          "indexed": false,
          "internalType": "uint256",
          "name": "newCollateralFactorMantissa",
          "type": "uint256"
        }
      ],
      "name": "NewCollateralFactor",
      "type": "event"
    },
    {
      "anonymous": false,
      "inputs": [
        {
          "indexed": false,
          "internalType": "uint256",
          "name": "oldLiquidationIncentiveMantissa",
          "type": "uint256"
        },
        {
          "indexed": false,
          "internalType": "uint256",
          "name": "newLiquidationIncentiveMantissa",
          "type": "uint256"
        }
      ],
      "name": "NewLiquidationIncentive",
      "type": "event"
    },
    {
      "anonymous": false,
      "inputs": [
        {
          "indexed": false,
          "internalType": "address",
          "name": "oldPauseGuardian",
          "type": "address"
        },
        {
          "indexed": false,
          "internalType": "address",
          "name": "newPauseGuardian",
          "type": "address"
        }
      ],
      "name": "NewPauseGuardian",
      "type": "event"
    },
    {
      "anonymous": false,
      "inputs": [
        {
          "indexed": false,
          "internalType": "contract PriceOracle",
          "name": "oldPriceOracle",
          "type": "address"
        },
        {
          "indexed": false,
          "internalType": "contract PriceOracle",
          "name": "newPriceOracle",
          "type": "address"
        }
      ],
      "name": "NewPriceOracle",
      "type": "event"
    },
    {
      "constant": false,
      "inputs": [
        {
          "internalType": "contract Unitroller",
          "name": "unitroller",
          "type": "address"
        }
      ],
      "name": "_become",
      "outputs": [],
      "payable": false,
      "stateMutability": "nonpayable",
      "type": "function"
    },
    {
      "constant": true,
      "inputs": [],
      "name": "_borrowGuardianPaused",
      "outputs": [
        {
          "internalType": "bool",
          "name": "",
          "type": "bool"
        }
      ],
      "payable": false,
      "stateMutability": "view",
      "type": "function"
    },
    {
      "constant": true,
      "inputs": [],
      "name": "_mintGuardianPaused",
      "outputs": [
        {
          "internalType": "bool",
          "name": "",
          "type": "bool"
        }
      ],
      "payable": false,
      "stateMutability": "view",
      "type": "function"
    },
    {
      "constant": false,
      "inputs": [
        {
          "internalType": "contract CToken",
          "name": "cToken",
          "type": "address"
        },
        {
          "internalType": "uint256",
          "name": "newBorrowFactor",
          "type": "uint256"
        }
      ],
      "name": "_setBorrowFactor",
      "outputs": [],
      "payable": false,
      "stateMutability": "nonpayable",
      "type": "function"
    },
    {
      "constant": false,
      "inputs": [
        {
          "internalType": "contract CToken",
          "name": "cToken",
          "type": "address"
        },
        {
          "internalType": "bool",
          "name": "state",
          "type": "bool"
        }
      ],
      "name": "_setBorrowPaused",
      "outputs": [
        {
          "internalType": "bool",
          "name": "",
          "type": "bool"
        }
      ],
      "payable": false,
      "stateMutability": "nonpayable",
      "type": "function"
    },
    {
      "constant": false,
      "inputs": [
        {
          "internalType": "uint256",
          "name": "newCloseFactorMantissa",
          "type": "uint256"
        }
      ],
      "name": "_setCloseFactor",
      "outputs": [
        {
          "internalType": "uint256",
          "name": "",
          "type": "uint256"
        }
      ],
      "payable": false,
      "stateMutability": "nonpayable",
      "type": "function"
    },
    {
      "constant": false,
      "inputs": [
        {
          "internalType": "contract CToken",
          "name": "cToken",
          "type": "address"
        },
        {
          "internalType": "uint256",
          "name": "newCollateralFactorMantissa",
          "type": "uint256"
        }
      ],
      "name": "_setCollateralFactor",
      "outputs": [
        {
          "internalType": "uint256",
          "name": "",
          "type": "uint256"
        }
      ],
      "payable": false,
      "stateMutability": "nonpayable",
      "type": "function"
    },
    {
      "constant": false,
      "inputs": [
        {
          "internalType": "uint256",
          "name": "newLiquidationIncentiveMantissa",
          "type": "uint256"
        }
      ],
      "name": "_setLiquidationIncentive",
      "outputs": [
        {
          "internalType": "uint256",
          "name": "",
          "type": "uint256"
        }
      ],
      "payable": false,
      "stateMutability": "nonpayable",
      "type": "function"
    },
    {
      "constant": false,
      "inputs": [
        {
          "internalType": "contract CToken",
          "name": "cToken",
          "type": "address"
        },
        {
          "internalType": "uint256",
          "name": "newLiquidationIncentiveMantissa",
          "type": "uint256"
        }
      ],
      "name": "_setLiquidationIncentive",
      "outputs": [
        {
          "internalType": "uint256",
          "name": "",
          "type": "uint256"
        }
      ],
      "payable": false,
      "stateMutability": "nonpayable",
      "type": "function"
    },
    {
      "constant": false,
      "inputs": [
        {
          "internalType": "contract CToken",
          "name": "cToken",
          "type": "address"
        },
        {
          "internalType": "bool",
          "name": "state",
          "type": "bool"
        }
      ],
      "name": "_setMintPaused",
      "outputs": [
        {
          "internalType": "bool",
          "name": "",
          "type": "bool"
        }
      ],
      "payable": false,
      "stateMutability": "nonpayable",
      "type": "function"
    },
    {
      "constant": false,
      "inputs": [
        {
          "internalType": "address",
          "name": "newPauseGuardian",
          "type": "address"
        }
      ],
      "name": "_setPauseGuardian",
      "outputs": [
        {
          "internalType": "uint256",
          "name": "",
          "type": "uint256"
        }
      ],
      "payable": false,
      "stateMutability": "nonpayable",
      "type": "function"
    },
    {
      "constant": false,
      "inputs": [
        {
          "internalType": "contract PriceOracle",
          "name": "newOracle",
          "type": "address"
        }
      ],
      "name": "_setPriceOracle",
      "outputs": [
        {
          "internalType": "uint256",
          "name": "",
          "type": "uint256"
        }
      ],
      "payable": false,
      "stateMutability": "nonpayable",
      "type": "function"
    },
    {
      "constant": false,
      "inputs": [
        {
          "internalType": "bool",
          "name": "state",
          "type": "bool"
        }
      ],
      "name": "_setSeizePaused",
      "outputs": [
        {
          "internalType": "bool",
          "name": "",
          "type": "bool"
        }
      ],
      "payable": false,
      "stateMutability": "nonpayable",
      "type": "function"
    },
    {
      "constant": false,
      "inputs": [
        {
          "internalType": "bool",
          "name": "state",
          "type": "bool"
        }
      ],
      "name": "_setTransferPaused",
      "outputs": [
        {
          "internalType": "bool",
          "name": "",
          "type": "bool"
        }
      ],
      "payable": false,
      "stateMutability": "nonpayable",
      "type": "function"
    },
    {
      "constant": false,
      "inputs": [
        {
          "internalType": "contract CToken",
          "name": "cToken",
          "type": "address"
        }
      ],
      "name": "_supportMarket",
      "outputs": [
        {
          "internalType": "uint256",
          "name": "",
          "type": "uint256"
        }
      ],
      "payable": false,
      "stateMutability": "nonpayable",
      "type": "function"
    },
    {
      "constant": true,
      "inputs": [
        {
          "internalType": "address",
          "name": "",
          "type": "address"
        },
        {
          "internalType": "uint256",
          "name": "",
          "type": "uint256"
        }
      ],
      "name": "accountAssets",
      "outputs": [
        {
          "internalType": "contract CToken",
          "name": "",
          "type": "address"
        }
      ],
      "payable": false,
      "stateMutability": "view",
      "type": "function"
    },
    {
      "constant": true,
      "inputs": [],
      "name": "admin",
      "outputs": [
        {
          "internalType": "address",
          "name": "",
          "type": "address"
        }
      ],
      "payable": false,
      "stateMutability": "view",
      "type": "function"
    },
    {
      "constant": true,
      "inputs": [
        {
          "internalType": "uint256",
          "name": "",
          "type": "uint256"
        }
      ],
      "name": "allMarkets",
      "outputs": [
        {
          "internalType": "contract CToken",
          "name": "",
          "type": "address"
        }
      ],
      "payable": false,
      "stateMutability": "view",
      "type": "function"
    },
    {
      "constant": true,
      "inputs": [
        {
          "internalType": "address",
          "name": "",
          "type": "address"
        }
      ],
      "name": "borrowGuardianPaused",
      "outputs": [
        {
          "internalType": "bool",
          "name": "",
          "type": "bool"
        }
      ],
      "payable": false,
      "stateMutability": "view",
      "type": "function"
    },
    {
      "constant": true,
      "inputs": [
        {
          "internalType": "address",
          "name": "account",
          "type": "address"
        },
        {
          "internalType": "contract CToken",
          "name": "cToken",
          "type": "address"
        }
      ],
      "name": "checkMembership",
      "outputs": [
        {
          "internalType": "bool",
          "name": "",
          "type": "bool"
        }
      ],
      "payable": false,
      "stateMutability": "view",
      "type": "function"
    },
    {
      "constant": false,
      "inputs": [
        {
          "internalType": "address",
          "name": "holder",
          "type": "address"
        },
        {
          "internalType": "contract CToken[]",
          "name": "cTokens",
          "type": "address[]"
        }
      ],
      "name": "claimComp",
      "outputs": [],
      "payable": false,
      "stateMutability": "nonpayable",
      "type": "function"
    },
    {
      "constant": false,
      "inputs": [
        {
          "internalType": "address[]",
          "name": "holders",
          "type": "address[]"
        },
        {
          "internalType": "contract CToken[]",
          "name": "cTokens",
          "type": "address[]"
        },
        {
          "internalType": "bool",
          "name": "borrowers",
          "type": "bool"
        },
        {
          "internalType": "bool",
          "name": "suppliers",
          "type": "bool"
        }
      ],
      "name": "claimComp",
      "outputs": [],
      "payable": false,
      "stateMutability": "nonpayable",
      "type": "function"
    },
    {
      "constant": false,
      "inputs": [
        {
          "internalType": "address",
          "name": "holder",
          "type": "address"
        }
      ],
      "name": "claimComp",
      "outputs": [],
      "payable": false,
      "stateMutability": "nonpayable",
      "type": "function"
    },
    {
      "constant": true,
      "inputs": [],
      "name": "closeFactorMantissa",
      "outputs": [
        {
          "internalType": "uint256",
          "name": "",
          "type": "uint256"
        }
      ],
      "payable": false,
      "stateMutability": "view",
      "type": "function"
    },
    {
      "constant": true,
      "inputs": [
        {
          "internalType": "address",
          "name": "",
          "type": "address"
        }
      ],
      "name": "compAccrued",
      "outputs": [
        {
          "internalType": "uint256",
          "name": "",
          "type": "uint256"
        }
      ],
      "payable": false,
      "stateMutability": "view",
      "type": "function"
    },
    {
      "constant": true,
      "inputs": [
        {
          "internalType": "address",
          "name": "",
          "type": "address"
        }
      ],
      "name": "compBorrowState",
      "outputs": [
        {
          "internalType": "uint224",
          "name": "index",
          "type": "uint224"
        },
        {
          "internalType": "uint32",
          "name": "block",
          "type": "uint32"
        }
      ],
      "payable": false,
      "stateMutability": "view",
      "type": "function"
    },
    {
      "constant": true,
      "inputs": [
        {
          "internalType": "address",
          "name": "",
          "type": "address"
        },
        {
          "internalType": "address",
          "name": "",
          "type": "address"
        }
      ],
      "name": "compBorrowerIndex",
      "outputs": [
        {
          "internalType": "uint256",
          "name": "",
          "type": "uint256"
        }
      ],
      "payable": false,
      "stateMutability": "view",
      "type": "function"
    },
    {
      "constant": true,
      "inputs": [],
      "name": "compClaimThreshold",
      "outputs": [
        {
          "internalType": "uint256",
          "name": "",
          "type": "uint256"
        }
      ],
      "payable": false,
      "stateMutability": "view",
      "type": "function"
    },
    {
      "constant": true,
      "inputs": [],
      "name": "compInitialIndex",
      "outputs": [
        {
          "internalType": "uint224",
          "name": "",
          "type": "uint224"
        }
      ],
      "payable": false,
      "stateMutability": "view",
      "type": "function"
    },
    {
      "constant": true,
      "inputs": [],
      "name": "compRate",
      "outputs": [
        {
          "internalType": "uint256",
          "name": "",
          "type": "uint256"
        }
      ],
      "payable": false,
      "stateMutability": "view",
      "type": "function"
    },
    {
      "constant": true,
      "inputs": [
        {
          "internalType": "address",
          "name": "",
          "type": "address"
        }
      ],
      "name": "compSpeeds",
      "outputs": [
        {
          "internalType": "uint256",
          "name": "",
          "type": "uint256"
        }
      ],
      "payable": false,
      "stateMutability": "view",
      "type": "function"
    },
    {
      "constant": true,
      "inputs": [
        {
          "internalType": "address",
          "name": "",
          "type": "address"
        },
        {
          "internalType": "address",
          "name": "",
          "type": "address"
        }
      ],
      "name": "compSupplierIndex",
      "outputs": [
        {
          "internalType": "uint256",
          "name": "",
          "type": "uint256"
        }
      ],
      "payable": false,
      "stateMutability": "view",
      "type": "function"
    },
    {
      "constant": true,
      "inputs": [
        {
          "internalType": "address",
          "name": "",
          "type": "address"
        }
      ],
      "name": "compSupplyState",
      "outputs": [
        {
          "internalType": "uint224",
          "name": "index",
          "type": "uint224"
        },
        {
          "internalType": "uint32",
          "name": "block",
          "type": "uint32"
        }
      ],
      "payable": false,
      "stateMutability": "view",
      "type": "function"
    },
    {
      "constant": true,
      "inputs": [],
      "name": "comptrollerImplementation",
      "outputs": [
        {
          "internalType": "address",
          "name": "",
          "type": "address"
        }
      ],
      "payable": false,
      "stateMutability": "view",
      "type": "function"
    },
    {
      "constant": false,
      "inputs": [
        {
          "internalType": "address[]",
          "name": "cTokens",
          "type": "address[]"
        }
      ],
      "name": "enterMarkets",
      "outputs": [
        {
          "internalType": "uint256[]",
          "name": "",
          "type": "uint256[]"
        }
      ],
      "payable": false,
      "stateMutability": "nonpayable",
      "type": "function"
    },
    {
      "constant": false,
      "inputs": [
        {
          "internalType": "address",
          "name": "cTokenAddress",
          "type": "address"
        }
      ],
      "name": "exitMarket",
      "outputs": [
        {
          "internalType": "uint256",
          "name": "",
          "type": "uint256"
        }
      ],
      "payable": false,
      "stateMutability": "nonpayable",
      "type": "function"
    },
    {
      "constant": true,
      "inputs": [
        {
          "internalType": "address",
          "name": "account",
          "type": "address"
        }
      ],
      "name": "getAccountLiquidity",
      "outputs": [
        {
          "internalType": "uint256",
          "name": "",
          "type": "uint256"
        },
        {
          "internalType": "uint256",
          "name": "",
          "type": "uint256"
        },
        {
          "internalType": "uint256",
          "name": "",
          "type": "uint256"
        }
      ],
      "payable": false,
      "stateMutability": "view",
      "type": "function"
    },
    {
      "constant": true,
      "inputs": [],
      "name": "getAllMarkets",
      "outputs": [
        {
          "internalType": "contract CToken[]",
          "name": "",
          "type": "address[]"
        }
      ],
      "payable": false,
      "stateMutability": "view",
      "type": "function"
    },
    {
      "constant": true,
      "inputs": [
        {
          "internalType": "address",
          "name": "account",
          "type": "address"
        }
      ],
      "name": "getAssetsIn",
      "outputs": [
        {
          "internalType": "contract CToken[]",
          "name": "",
          "type": "address[]"
        }
      ],
      "payable": false,
      "stateMutability": "view",
      "type": "function"
    },
    {
      "constant": true,
      "inputs": [],
      "name": "getBlockNumber",
      "outputs": [
        {
          "internalType": "uint256",
          "name": "",
          "type": "uint256"
        }
      ],
      "payable": false,
      "stateMutability": "view",
      "type": "function"
    },
    {
      "constant": true,
      "inputs": [
        {
          "internalType": "address",
          "name": "account",
          "type": "address"
        },
        {
          "internalType": "address",
          "name": "cTokenModify",
          "type": "address"
        },
        {
          "internalType": "uint256",
          "name": "redeemTokens",
          "type": "uint256"
        },
        {
          "internalType": "uint256",
          "name": "borrowAmount",
          "type": "uint256"
        }
      ],
      "name": "getHypotheticalAccountLiquidity",
      "outputs": [
        {
          "internalType": "uint256",
          "name": "",
          "type": "uint256"
        },
        {
          "internalType": "uint256",
          "name": "",
          "type": "uint256"
        },
        {
          "internalType": "uint256",
          "name": "",
          "type": "uint256"
        }
      ],
      "payable": false,
      "stateMutability": "view",
      "type": "function"
    },
    {
      "constant": true,
      "inputs": [
        {
          "internalType": "address",
          "name": "cToken",
          "type": "address"
        }
      ],
      "name": "getLiquidationIncentive",
      "outputs": [
        {
          "internalType": "uint256",
          "name": "",
          "type": "uint256"
        }
      ],
      "payable": false,
      "stateMutability": "view",
      "type": "function"
    },
    {
      "constant": true,
      "inputs": [],
      "name": "isComptroller",
      "outputs": [
        {
          "internalType": "bool",
          "name": "",
          "type": "bool"
        }
      ],
      "payable": false,
      "stateMutability": "view",
      "type": "function"
    },
    {
      "constant": true,
      "inputs": [
        {
          "internalType": "address",
          "name": "cTokenBorrowed",
          "type": "address"
        },
        {
          "internalType": "address",
          "name": "cTokenCollateral",
          "type": "address"
        },
        {
          "internalType": "uint256",
          "name": "actualRepayAmount",
          "type": "uint256"
        }
      ],
      "name": "liquidateCalculateSeizeTokens",
      "outputs": [
        {
          "internalType": "uint256",
          "name": "",
          "type": "uint256"
        },
        {
          "internalType": "uint256",
          "name": "",
          "type": "uint256"
        }
      ],
      "payable": false,
      "stateMutability": "view",
      "type": "function"
    },
    {
      "constant": true,
      "inputs": [],
      "name": "liquidationIncentiveMantissa",
      "outputs": [
        {
          "internalType": "uint256",
          "name": "",
          "type": "uint256"
        }
      ],
      "payable": false,
      "stateMutability": "view",
      "type": "function"
    },
    {
      "constant": true,
      "inputs": [
        {
          "internalType": "address",
          "name": "",
          "type": "address"
        }
      ],
      "name": "markets",
      "outputs": [
        {
          "internalType": "bool",
          "name": "isListed",
          "type": "bool"
        },
        {
          "internalType": "uint256",
          "name": "collateralFactorMantissa",
          "type": "uint256"
        },
        {
          "internalType": "bool",
          "name": "isComped",
          "type": "bool"
        },
        {
          "internalType": "uint256",
          "name": "borrowFactorMantissa",
          "type": "uint256"
        },
        {
          "internalType": "uint256",
          "name": "liquidationIncentiveMantissa",
          "type": "uint256"
        }
      ],
      "payable": false,
      "stateMutability": "view",
      "type": "function"
    },
    {
      "constant": true,
      "inputs": [],
      "name": "maxAssets",
      "outputs": [
        {
          "internalType": "uint256",
          "name": "",
          "type": "uint256"
        }
      ],
      "payable": false,
      "stateMutability": "view",
      "type": "function"
    },
    {
      "constant": true,
      "inputs": [
        {
          "internalType": "address",
          "name": "",
          "type": "address"
        }
      ],
      "name": "mintGuardianPaused",
      "outputs": [
        {
          "internalType": "bool",
          "name": "",
          "type": "bool"
        }
      ],
      "payable": false,
      "stateMutability": "view",
      "type": "function"
    },
    {
      "constant": true,
      "inputs": [],
      "name": "oracle",
      "outputs": [
        {
          "internalType": "contract PriceOracle",
          "name": "",
          "type": "address"
        }
      ],
      "payable": false,
      "stateMutability": "view",
      "type": "function"
    },
    {
      "constant": true,
      "inputs": [],
      "name": "pauseGuardian",
      "outputs": [
        {
          "internalType": "address",
          "name": "",
          "type": "address"
        }
      ],
      "payable": false,
      "stateMutability": "view",
      "type": "function"
    },
    {
      "constant": true,
      "inputs": [],
      "name": "pendingAdmin",
      "outputs": [
        {
          "internalType": "address",
          "name": "",
          "type": "address"
        }
      ],
      "payable": false,
      "stateMutability": "view",
      "type": "function"
    },
    {
      "constant": true,
      "inputs": [],
      "name": "pendingComptrollerImplementation",
      "outputs": [
        {
          "internalType": "address",
          "name": "",
          "type": "address"
        }
      ],
      "payable": false,
      "stateMutability": "view",
      "type": "function"
    },
    {
      "constant": true,
      "inputs": [],
      "name": "qsConfig",
      "outputs": [
        {
          "internalType": "contract QsConfig",
          "name": "",
          "type": "address"
        }
      ],
      "payable": false,
      "stateMutability": "view",
      "type": "function"
    },
    {
      "constant": false,
      "inputs": [
        {
          "internalType": "address",
          "name": "cToken",
          "type": "address"
        },
        {
          "internalType": "address",
          "name": "redeemer",
          "type": "address"
        },
        {
          "internalType": "uint256",
          "name": "redeemTokens",
          "type": "uint256"
        }
      ],
      "name": "redeemAllowed",
      "outputs": [
        {
          "internalType": "uint256",
          "name": "",
          "type": "uint256"
        }
      ],
      "payable": false,
      "stateMutability": "nonpayable",
      "type": "function"
    },
    {
      "constant": false,
      "inputs": [
        {
          "internalType": "address",
          "name": "cToken",
          "type": "address"
        },
        {
          "internalType": "address",
          "name": "redeemer",
          "type": "address"
        },
        {
          "internalType": "uint256",
          "name": "redeemAmount",
          "type": "uint256"
        },
        {
          "internalType": "uint256",
          "name": "redeemTokens",
          "type": "uint256"
        }
      ],
      "name": "redeemVerify",
      "outputs": [],
      "payable": false,
      "stateMutability": "nonpayable",
      "type": "function"
    },
    {
      "constant": false,
      "inputs": [
        {
          "internalType": "address",
          "name": "cToken",
          "type": "address"
        },
        {
          "internalType": "address",
          "name": "payer",
          "type": "address"
        },
        {
          "internalType": "address",
          "name": "borrower",
          "type": "address"
        },
        {
          "internalType": "uint256",
          "name": "repayAmount",
          "type": "uint256"
        }
      ],
      "name": "repayBorrowAllowed",
      "outputs": [
        {
          "internalType": "uint256",
          "name": "",
          "type": "uint256"
        }
      ],
      "payable": false,
      "stateMutability": "nonpayable",
      "type": "function"
    },
    {
      "constant": true,
      "inputs": [],
      "name": "seizeGuardianPaused",
      "outputs": [
        {
          "internalType": "bool",
          "name": "",
          "type": "bool"
        }
      ],
      "payable": false,
      "stateMutability": "view",
      "type": "function"
    },
    {
      "constant": false,
      "inputs": [
        {
          "internalType": "address",
          "name": "cToken",
          "type": "address"
        },
        {
          "internalType": "address",
          "name": "src",
          "type": "address"
        },
        {
          "internalType": "address",
          "name": "dst",
          "type": "address"
        },
        {
          "internalType": "uint256",
          "name": "transferTokens",
          "type": "uint256"
        }
      ],
      "name": "transferAllowed",
      "outputs": [
        {
          "internalType": "uint256",
          "name": "",
          "type": "uint256"
        }
      ],
      "payable": false,
      "stateMutability": "nonpayable",
      "type": "function"
    },
    {
      "constant": true,
      "inputs": [],
      "name": "transferGuardianPaused",
      "outputs": [
        {
          "internalType": "bool",
          "name": "",
          "type": "bool"
        }
      ],
      "payable": false,
      "stateMutability": "view",
      "type": "function"
    },
    {
      "constant": false,
      "inputs": [
        {
          "internalType": "contract QsConfig",
          "name": "_qsConfig",
          "type": "address"
        }
      ],
      "name": "_setQsConfig",
      "outputs": [],
      "payable": false,
      "stateMutability": "nonpayable",
      "type": "function"
    },
    {
      "constant": false,
      "inputs": [
        {
          "internalType": "address[]",
          "name": "_allMarkets",
          "type": "address[]"
        },
        {
          "internalType": "uint256[]",
          "name": "_compSpeeds",
          "type": "uint256[]"
        }
      ],
      "name": "_setCompSpeeds",
      "outputs": [],
      "payable": false,
      "stateMutability": "nonpayable",
      "type": "function"
    },
    {
      "constant": true,
      "inputs": [],
      "name": "getCompAddress",
      "outputs": [
        {
          "internalType": "address",
          "name": "",
          "type": "address"
        }
      ],
      "payable": false,
      "stateMutability": "view",
      "type": "function"
    },
    {
      "constant": true,
      "inputs": [
        {
          "internalType": "uint256",
          "name": "_seizeTokenAmount",
          "type": "uint256"
        }
      ],
      "name": "calculateSeizeTokenAllocation",
      "outputs": [
        {
          "internalType": "uint256",
          "name": "liquidatorAmount",
          "type": "uint256"
        },
        {
          "internalType": "uint256",
          "name": "safetyVaultAmount",
          "type": "uint256"
        }
      ],
      "payable": false,
      "stateMutability": "view",
      "type": "function"
    },
    {
      "constant": false,
      "inputs": [
        {
          "internalType": "address",
          "name": "cToken",
          "type": "address"
        },
        {
          "internalType": "address",
          "name": "borrower",
          "type": "address"
        },
        {
          "internalType": "uint256",
          "name": "borrowAmount",
          "type": "uint256"
        }
      ],
      "name": "borrowAllowed",
      "outputs": [
        {
          "internalType": "uint256",
          "name": "",
          "type": "uint256"
        }
      ],
      "payable": false,
      "stateMutability": "nonpayable",
      "type": "function"
    },
    {
      "constant": true,
      "inputs": [
        {
          "internalType": "address",
          "name": "cToken",
          "type": "address"
        },
        {
          "internalType": "address",
          "name": "to",
          "type": "address"
        },
        {
          "internalType": "uint256",
          "name": "flashLoanAmount",
          "type": "uint256"
        }
      ],
      "name": "flashLoanAllowed",
      "outputs": [
        {
          "internalType": "uint256",
          "name": "",
          "type": "uint256"
        }
      ],
      "payable": false,
      "stateMutability": "view",
      "type": "function"
    },
    {
      "constant": true,
      "inputs": [
        {
          "internalType": "address",
          "name": "cToken",
          "type": "address"
        }
      ],
      "name": "getFlashLoanCap",
      "outputs": [
        {
          "internalType": "uint256",
          "name": "",
          "type": "uint256"
        }
      ],
      "payable": false,
      "stateMutability": "view",
      "type": "function"
    },
    {
      "constant": false,
      "inputs": [
        {
          "internalType": "address",
          "name": "cToken",
          "type": "address"
        },
        {
          "internalType": "address",
          "name": "minter",
          "type": "address"
        },
        {
          "internalType": "uint256",
          "name": "mintAmount",
          "type": "uint256"
        }
      ],
      "name": "mintAllowed",
      "outputs": [
        {
          "internalType": "uint256",
          "name": "",
          "type": "uint256"
        }
      ],
      "payable": false,
      "stateMutability": "nonpayable",
      "type": "function"
    },
    {
      "constant": false,
      "inputs": [
        {
          "internalType": "address",
          "name": "cTokenBorrowed",
          "type": "address"
        },
        {
          "internalType": "address",
          "name": "cTokenCollateral",
          "type": "address"
        },
        {
          "internalType": "address",
          "name": "liquidator",
          "type": "address"
        },
        {
          "internalType": "address",
          "name": "borrower",
          "type": "address"
        },
        {
          "internalType": "uint256",
          "name": "repayAmount",
          "type": "uint256"
        }
      ],
      "name": "liquidateBorrowAllowed",
      "outputs": [
        {
          "internalType": "uint256",
          "name": "",
          "type": "uint256"
        }
      ],
      "payable": false,
      "stateMutability": "nonpayable",
      "type": "function"
    },
    {
      "constant": false,
      "inputs": [
        {
          "internalType": "address",
          "name": "cTokenCollateral",
          "type": "address"
        },
        {
          "internalType": "address",
          "name": "cTokenBorrowed",
          "type": "address"
        },
        {
          "internalType": "address",
          "name": "liquidator",
          "type": "address"
        },
        {
          "internalType": "address",
          "name": "borrower",
          "type": "address"
        },
        {
          "internalType": "uint256",
          "name": "seizeTokens",
          "type": "uint256"
        }
      ],
      "name": "seizeAllowed",
      "outputs": [
        {
          "internalType": "uint256",
          "name": "",
          "type": "uint256"
        }
      ],
      "payable": false,
      "stateMutability": "nonpayable",
      "type": "function"
    }
  ],
  "bytecode": "0x6080604052600080546001600160a01b03191633179055615fdf806100256000396000f3fe608060405234801561001057600080fd5b50600436106103465760003560e01c80638c57804e116101c0578063bdcdc25811610100578063bdcdc25814610d25578063c299823814610d61578063c488847b14610e02578063ca0af04314610e38578063cc7ebdc414610e66578063d02f735114610e8c578063d686e9ee14610ed2578063da3d454c14610ef8578063dce1544914610f2e578063dcfbc0c714610f5a578063e0fbf09d14610f62578063e4028eee14610f88578063e6653f3d14610fb4578063e875544614610fbc578063e9af029214610fc4578063eabe7d9114610fea578063ede4edd014611020578063f851a4401461104657610346565b80638c57804e14610ac35780638e8f294b14610ae95780638ebf636414610b3c578063903e679c14610b5b578063929fe9a114610b8757806393168a5b14610bb557806394b2294b14610bdb5780639d1b5a0a14610be35780639d8cc5c414610beb578063a76b3fda14610c17578063a7f0e23114610c3d578063aa90075414610c61578063abfceffc14610c69578063ac0b0bb714610cdf578063b0772d0b14610ce7578063b21be7fd14610cef578063bb82aa5e14610d1d57610346565b80634fd42e171161028b5780634fd42e171461065657806351dff9891461067357806352d84d1e146106af57806355ee1fe1146106cc5780635ec88c79146106f25780635f5af1aa146107185780635fc7e71e1461073e5780636810dfa6146107845780636995d7d0146108b05780636b79c38d146108b85780636d154ea514610906578063731f0c2b1461092c578063747026c9146109525780637dc0d1d01461095a5780637e60c7a0146109625780638730657714610a8557806387f7630314610abb57610346565b80627e3dd21461034b57806318c882a5146103675780631c3db2e0146103955780631d504dc6146104485780631d7b33d71461046e57806324008a62146104a657806324a3d622146104e257806326782247146105065780632af2914b1461050e5780632d70db7814610544578063317b0b77146105635780633bcf7ec1146105805780633c94786f146105ae57806342cbb15c146105b65780634ada90af146105be5780634e79238f146105c65780634ef4c3e114610620575b600080fd5b61035361104e565b604080519115158252519081900360200190f35b6103536004803603604081101561037d57600080fd5b506001600160a01b0381351690602001351515611053565b610446600480360360408110156103ab57600080fd5b6001600160a01b038235169190810190604081016020820135600160201b8111156103d557600080fd5b8201836020820111156103e757600080fd5b803590602001918460208302840111600160201b8311171561040857600080fd5b9190808060200260200160405190810160405280939291908181526020018383602002808284376000920191909152509295506111e2945050505050565b005b6104466004803603602081101561045e57600080fd5b50356001600160a01b0316611244565b6104946004803603602081101561048457600080fd5b50356001600160a01b0316611398565b60408051918252519081900360200190f35b610494600480360360808110156104bc57600080fd5b506001600160a01b038135811691602081013582169160408201351690606001356113aa565b6104ea611473565b604080516001600160a01b039092168252519081900360200190f35b6104ea611482565b6104946004803603606081101561052457600080fd5b506001600160a01b03813581169160208101359091169060400135611491565b6103536004803603602081101561055a57600080fd5b503515156115fc565b6104946004803603602081101561057957600080fd5b5035611725565b6103536004803603604081101561059657600080fd5b506001600160a01b0381351690602001351515611835565b6103536119bf565b6104946119cf565b6104946119d4565b610602600480360360808110156105dc57600080fd5b506001600160a01b038135811691602081013590911690604081013590606001356119da565b60408051938452602084019290925282820152519081900360600190f35b6104946004803603606081101561063657600080fd5b506001600160a01b03813581169160208101359091169060400135611a14565b6104946004803603602081101561066c57600080fd5b5035611d1c565b6104466004803603608081101561068957600080fd5b506001600160a01b03813581169160208101359091169060408101359060600135611d44565b6104ea600480360360208110156106c557600080fd5b5035611d9e565b610494600480360360208110156106e257600080fd5b50356001600160a01b0316611dc5565b6106026004803603602081101561070857600080fd5b50356001600160a01b0316611e4c565b6104946004803603602081101561072e57600080fd5b50356001600160a01b0316611e81565b610494600480360360a081101561075457600080fd5b506001600160a01b0381358116916020810135821691604082013581169160608101359091169060800135611f05565b6104466004803603608081101561079a57600080fd5b810190602081018135600160201b8111156107b457600080fd5b8201836020820111156107c657600080fd5b803590602001918460208302840111600160201b831117156107e757600080fd5b9190808060200260200160405190810160405280939291908181526020018383602002808284376000920191909152509295949360208101935035915050600160201b81111561083657600080fd5b82018360208201111561084857600080fd5b803590602001918460208302840111600160201b8311171561086957600080fd5b919080806020026020016040519081016040528093929190818152602001838360200280828437600092019190915250929550505050803515159150602001351515611fde565b6104ea612180565b6108de600480360360208110156108ce57600080fd5b50356001600160a01b031661218f565b604080516001600160e01b03909316835263ffffffff90911660208301528051918290030190f35b6103536004803603602081101561091c57600080fd5b50356001600160a01b03166121b9565b6103536004803603602081101561094257600080fd5b50356001600160a01b03166121ce565b6104946121e3565b6104ea6121ee565b6104466004803603604081101561097857600080fd5b810190602081018135600160201b81111561099257600080fd5b8201836020820111156109a457600080fd5b803590602001918460208302840111600160201b831117156109c557600080fd5b9190808060200260200160405190810160405280939291908181526020018383602002808284376000920191909152509295949360208101935035915050600160201b811115610a1457600080fd5b820183602082011115610a2657600080fd5b803590602001918460208302840111600160201b83111715610a4757600080fd5b9190808060200260200160405190810160405280939291908181526020018383602002808284376000920191909152509295506121fd945050505050565b610aa260048036036020811015610a9b57600080fd5b5035612328565b6040805192835260208301919091528051918290030190f35b6103536123bb565b6108de60048036036020811015610ad957600080fd5b50356001600160a01b03166123cb565b610b0f60048036036020811015610aff57600080fd5b50356001600160a01b03166123f5565b60408051951515865260208601949094529115158484015260608401526080830152519081900360a00190f35b61035360048036036020811015610b5257600080fd5b5035151561242a565b61049460048036036040811015610b7157600080fd5b506001600160a01b038135169060200135612552565b61035360048036036040811015610b9d57600080fd5b506001600160a01b03813581169160200135166126a0565b61044660048036036020811015610bcb57600080fd5b50356001600160a01b03166126d3565b61049461270c565b6104ea612712565b61044660048036036040811015610c0157600080fd5b506001600160a01b038135169060200135612788565b61049460048036036020811015610c2d57600080fd5b50356001600160a01b0316612880565b610c45612a03565b604080516001600160e01b039092168252519081900360200190f35b610494612a15565b610c8f60048036036020811015610c7f57600080fd5b50356001600160a01b0316612a1b565b60408051602080825283518183015283519192839290830191858101910280838360005b83811015610ccb578181015183820152602001610cb3565b505050509050019250505060405180910390f35b610353612aa4565b610c8f612ab4565b61049460048036036040811015610d0557600080fd5b506001600160a01b0381358116916020013516612b16565b6104ea612b33565b61049460048036036080811015610d3b57600080fd5b506001600160a01b03813581169160208101358216916040820135169060600135612b42565b610c8f60048036036020811015610d7757600080fd5b810190602081018135600160201b811115610d9157600080fd5b820183602082011115610da357600080fd5b803590602001918460208302840111600160201b83111715610dc457600080fd5b919080806020026020016040519081016040528093929190818152602001838360200280828437600092019190915250929550612bca945050505050565b610aa260048036036060811015610e1857600080fd5b506001600160a01b03813581169160208101359091169060400135612c61565b61049460048036036040811015610e4e57600080fd5b506001600160a01b0381358116916020013516612ee2565b61049460048036036020811015610e7c57600080fd5b50356001600160a01b0316612eff565b610494600480360360a0811015610ea257600080fd5b506001600160a01b0381358116916020810135821691604082013581169160608101359091169060800135612f11565b61049460048036036020811015610ee857600080fd5b50356001600160a01b0316612fde565b61049460048036036060811015610f0e57600080fd5b506001600160a01b03813581169160208101359091169060400135613009565b6104ea60048036036040811015610f4457600080fd5b506001600160a01b0381351690602001356134a5565b6104ea6134da565b61049460048036036020811015610f7857600080fd5b50356001600160a01b03166134e9565b61049460048036036040811015610f9e57600080fd5b506001600160a01b03813516906020013561356c565b610353613703565b610494613713565b61044660048036036020811015610fda57600080fd5b50356001600160a01b0316613719565b6104946004803603606081101561100057600080fd5b506001600160a01b0381358116916020810135909116906040013561377d565b6104946004803603602081101561103657600080fd5b50356001600160a01b031661379a565b6104ea613aad565b600181565b6001600160a01b03821660009081526009602052604081205460ff166110aa576040805162461bcd60e51b8152602060048201526007602482015266085b1a5cdd195960ca1b604482015290519081900360640190fd5b600a546001600160a01b03163314806110cd57506000546001600160a01b031633145b611107576040805162461bcd60e51b815260206004820152600660248201526510b0b236b4b760d11b604482015290519081900360640190fd5b6000546001600160a01b031633148061112257506001821515145b61115c576040805162461bcd60e51b815260206004820152600660248201526510b0b236b4b760d11b604482015290519081900360640190fd5b6001600160a01b0383166000818152600c6020908152604091829020805486151560ff199091168117909155825193845283830152606090830181905260069083015265426f72726f7760d01b6080830152517f71aec636243f9709bb0007ae15e9afb8150ab01716d75fd7573be5cc096e03b09181900360a00190a150805b92915050565b60408051600180825281830190925260609160208083019080388339019050509050828160008151811061121257fe5b60200260200101906001600160a01b031690816001600160a01b03168152505061123f8183600180611fde565b505050565b806001600160a01b031663f851a4406040518163ffffffff1660e01b815260040160206040518083038186803b15801561127d57600080fd5b505afa158015611291573d6000803e3d6000fd5b505050506040513d60208110156112a757600080fd5b50516001600160a01b031633146112ee576040805162461bcd60e51b815260206004820152600660248201526510b0b236b4b760d11b604482015290519081900360640190fd5b806001600160a01b031663c1e803346040518163ffffffff1660e01b8152600401602060405180830381600087803b15801561132957600080fd5b505af115801561133d573d6000803e3d6000fd5b505050506040513d602081101561135357600080fd5b505115611395576040805162461bcd60e51b815260206004820152600b60248201526a08585d5d1a1bdc9a5e995960aa1b604482015290519081900360640190fd5b50565b600f6020526000908152604090205481565b6001600160a01b03841660009081526009602052604081205460ff166113d25750600961146b565b6113da615eb9565b6040518060200160405280876001600160a01b031663aa5af0fd6040518163ffffffff1660e01b815260040160206040518083038186803b15801561141e57600080fd5b505afa158015611432573d6000803e3d6000fd5b505050506040513d602081101561144857600080fd5b5051905290506114588682613abc565b6114658685836000613d6d565b60009150505b949350505050565b600a546001600160a01b031681565b6001546001600160a01b031681565b6001600160a01b0383166000908152600c602052604081205460ff16156114f2576040805162461bcd60e51b815260206004820152601060248201526f189bdc9c9bddc81a5cc81c185d5cd95960821b604482015290519081900360640190fd5b6001600160a01b03841660009081526009602052604090205460ff1661151c5760095b90506115f5565b6015546040805163e0fbf09d60e01b81526001600160a01b0387811660048301529151600093929092169163e0fbf09d91602480820192602092909190829003018186803b15801561156d57600080fd5b505afa158015611581573d6000803e3d6000fd5b505050506040513d602081101561159757600080fd5b5051905080156115ef57808311156115ef576040805162461bcd60e51b8152602060048201526016602482015275199b185cda081b1bd85b8818d85c081c995858da195960521b604482015290519081900360640190fd5b60009150505b9392505050565b600a546000906001600160a01b031633148061162257506000546001600160a01b031633145b61165c576040805162461bcd60e51b815260206004820152600660248201526510b0b236b4b760d11b604482015290519081900360640190fd5b6000546001600160a01b031633148061167757506001821515145b6116b1576040805162461bcd60e51b815260206004820152600660248201526510b0b236b4b760d11b604482015290519081900360640190fd5b600a8054831515600160b81b810260ff60b81b1990921691909117909155604080516020810192909252808252600582820152645365697a6560d81b6060830152517fef159d9a32b2472e32b098f954f3ce62d232939f1c207070b584df1814de2de09181900360800190a150805b919050565b600080546001600160a01b0316331461174b5761174460016004613f58565b9050611720565b611753615eb9565b50604080516020810190915282815261176a615eb9565b50604080516020810190915266b1a2bc2ec50000815261178a8282613fbe565b156117a35761179a600580613f58565b92505050611720565b6117ab615eb9565b506040805160208101909152670c7d713b49da000081526117cc8184613fc6565b156117e6576117dc600580613f58565b9350505050611720565b6005805490869055604080518281526020810188905281517f3b9670cf975d26958e754b57098eaa2ac914d8d2a31b83257997b9f346110fd9929181900390910190a160009695505050505050565b6001600160a01b03821660009081526009602052604081205460ff1661188c576040805162461bcd60e51b8152602060048201526007602482015266085b1a5cdd195960ca1b604482015290519081900360640190fd5b600a546001600160a01b03163314806118af57506000546001600160a01b031633145b6118e9576040805162461bcd60e51b815260206004820152600660248201526510b0b236b4b760d11b604482015290519081900360640190fd5b6000546001600160a01b031633148061190457506001821515145b61193e576040805162461bcd60e51b815260206004820152600660248201526510b0b236b4b760d11b604482015290519081900360640190fd5b6001600160a01b0383166000818152600b6020908152604091829020805486151560ff199091168117909155825193845283830152606090830181905260049083015263135a5b9d60e21b6080830152517f71aec636243f9709bb0007ae15e9afb8150ab01716d75fd7573be5cc096e03b09181900360a00190a150919050565b600a54600160a01b900460ff1681565b435b90565b60065481565b6000806000806000806119ef8a8a8a8a613fcd565b925092509250826011811115611a0157fe5b95509093509150505b9450945094915050565b6015546040805163fbac395160e01b81526001600160a01b0385811660048301529151600093929092169163fbac395191602480820192602092909190829003018186803b158015611a6557600080fd5b505afa158015611a79573d6000803e3d6000fd5b505050506040513d6020811015611a8f57600080fd5b505115611a9b57600080fd5b6001600160a01b0384166000908152600b602052604090205460ff1615611ac157600080fd5b6001600160a01b03841660009081526009602052604090205460ff16611ae8576009611515565b601554604080516321636b8b60e21b81526001600160a01b0387811660048301529151600093929092169163858dae2c91602480820192602092909190829003018186803b158015611b3957600080fd5b505afa158015611b4d573d6000803e3d6000fd5b505050506040513d6020811015611b6357600080fd5b505190508015611d0757611b75615eb9565b6040518060200160405280876001600160a01b031663bd6d894d6040518163ffffffff1660e01b8152600401602060405180830381600087803b158015611bbb57600080fd5b505af1158015611bcf573d6000803e3d6000fd5b505050506040513d6020811015611be557600080fd5b50519052604080516318160ddd60e01b815290519192506000918291611c699185916001600160a01b038c16916318160ddd91600480820192602092909190829003018186803b158015611c3857600080fd5b505afa158015611c4c573d6000803e3d6000fd5b505050506040513d6020811015611c6257600080fd5b50516145c0565b90925090506000826003811115611c7c57fe5b14611c8657600080fd5b600080611c938389614614565b90925090506000826003811115611ca657fe5b14611cb057600080fd5b85811115611d01576040805162461bcd60e51b81526020600482015260196024820152781b585c9ad95d081cdd5c1c1b1e4818d85c081c995858da1959603a1b604482015290519081900360640190fd5b50505050505b611d108561463a565b6115ef858560006148ed565b600080546001600160a01b03163314611d3b576117446001600b613f58565b50600655600090565b80158015611d525750600082115b15611d98576040805162461bcd60e51b815260206004820152601160248201527072656465656d546f6b656e73207a65726f60781b604482015290519081900360640190fd5b50505050565b600d8181548110611dab57fe5b6000918252602090912001546001600160a01b0316905081565b600080546001600160a01b03163314611de45761174460016010613f58565b600480546001600160a01b038481166001600160a01b0319831681179093556040805191909216808252602082019390935281517fd52b2b9b7e9ee655fcb95d2e5b9e0c9f69e7ef2b8e9d2d0ea78402d576d22e22929181900390910190a160009392505050565b600080600080600080611e63876000806000613fcd565b925092509250826011811115611e7557fe5b97919650945092505050565b600080546001600160a01b03163314611ea05761174460016013613f58565b600a80546001600160a01b038481166001600160a01b0319831617928390556040805192821680845293909116602083015280517f0613b6ee6a04f0d09f390e4d9318894b9f6ac7fd83897cd8d18896ba579c401e9281900390910190a160006115f5565b60155460408051632c333e2560e01b81526001600160a01b03858116600483015291516000939290921691632c333e2591602480820192602092909190829003018186803b158015611f5657600080fd5b505afa158015611f6a573d6000803e3d6000fd5b505050506040513d6020811015611f8057600080fd5b505115611fc5576040805162461bcd60e51b815260206004820152600e60248201526d18dc99591a5d081858d8dbdd5b9d60921b604482015290519081900360640190fd5b611fd28686868686614ae4565b90505b95945050505050565b60005b8351811015612179576000848281518110611ff857fe5b6020908102919091018101516001600160a01b0381166000908152600990925260409091205490915060ff1661205f576040805162461bcd60e51b8152602060048201526007602482015266085b1a5cdd195960ca1b604482015290519081900360640190fd5b6001841515141561212757612072615eb9565b6040518060200160405280836001600160a01b031663aa5af0fd6040518163ffffffff1660e01b815260040160206040518083038186803b1580156120b657600080fd5b505afa1580156120ca573d6000803e3d6000fd5b505050506040513d60208110156120e057600080fd5b5051905290506120f08282613abc565b60005b87518110156121245761211c8389838151811061210c57fe5b6020026020010151846001613d6d565b6001016120f3565b50505b600183151514156121705761213b8161463a565b60005b865181101561216e576121668288838151811061215757fe5b602002602001015160016148ed565b60010161213e565b505b50600101611fe1565b5050505050565b6015546001600160a01b031681565b6010602052600090815260409020546001600160e01b03811690600160e01b900463ffffffff1682565b600c6020526000908152604090205460ff1681565b600b6020526000908152604090205460ff1681565b66038d7ea4c6800081565b6004546001600160a01b031681565b6000546001600160a01b0316331461221457600080fd5b805182511461222257600080fd5b6000805b835181101561232057600084828151811061223d57fe5b6020908102919091018101516001600160a01b03811660009081526009909252604090912060038101549192509060ff1661227b5761227b82614c69565b84838151811061228757fe5b6020026020010151600f6000846001600160a01b03166001600160a01b0316815260200190815260200160002081905550600060808685815181106122c857fe5b6020026020010151901c905060008685815181106122e257fe5b60200260200101516001600160801b0316905060006123018383614f61565b905061230d8782614f61565b9650506001909401935061222692505050565b50600e555050565b60155460065460408051630655a3bd60e11b8152600481018590526024810192909252805160009384936001600160a01b0390911692630cab477a92604480840193829003018186803b15801561237e57600080fd5b505afa158015612392573d6000803e3d6000fd5b505050506040513d60408110156123a857600080fd5b5080516020909101519092509050915091565b600a54600160b01b900460ff1681565b6011602052600090815260409020546001600160e01b03811690600160e01b900463ffffffff1682565b6009602052600090815260409020805460018201546003830154600484015460059094015460ff938416949293909116919085565b600a546000906001600160a01b031633148061245057506000546001600160a01b031633145b61248a576040805162461bcd60e51b815260206004820152600660248201526510b0b236b4b760d11b604482015290519081900360640190fd5b6000546001600160a01b03163314806124a557506001821515145b6124df576040805162461bcd60e51b815260206004820152600660248201526510b0b236b4b760d11b604482015290519081900360640190fd5b600a8054831515600160b01b810260ff60b01b1990921691909117909155604080516020810192909252808252600882820152672a3930b739b332b960c11b6060830152517fef159d9a32b2472e32b098f954f3ce62d232939f1c207070b584df1814de2de09181900360800190a15090565b600080546001600160a01b03163314612578576125716001600b613f58565b90506111dc565b6001600160a01b0383166000908152600960205260409020805460ff166125ad576125a560096007613f58565b9150506111dc565b6125b5615eb9565b5060408051602081019091528381526125cc615eb9565b506040805160208101909152670de0b6b3a764000081526125ed8282613fc6565b15612608576125fe6007600c613f58565b93505050506111dc565b612610615eb9565b5060408051602081019091526714d1120d7b16000081526126318184613fc6565b1561264d576126426007600c613f58565b9450505050506111dc565b60065460058501879055604080518281526020810189905281517faeba5a6c40a8ac138134bff1aaa65debf25971188a58804bad717f82f0ec1316929181900390910190a1600098975050505050505050565b6001600160a01b038082166000908152600960209081526040808320938616835260029093019052205460ff1692915050565b6000546001600160a01b031633146126ea57600080fd5b601580546001600160a01b0319166001600160a01b0392909216919091179055565b60075481565b60155460408051636605dfa760e01b815290516000926001600160a01b031691636605dfa7916004808301926020929190829003018186803b15801561275757600080fd5b505afa15801561276b573d6000803e3d6000fd5b505050506040513d602081101561278157600080fd5b5051905090565b6000546001600160a01b031633146127d0576040805162461bcd60e51b815260206004820152600660248201526510b0b236b4b760d11b604482015290519081900360640190fd5b6000811180156127e85750670de0b6b3a76400008111155b612829576040805162461bcd60e51b815260206004820152600d60248201526c10b137b93937bba330b1ba37b960991b604482015290519081900360640190fd5b6001600160a01b038216600081815260096020908152604091829020600401849055815184815291517f06ba34ca74586d7d83f17a9e4054760897dda97278c46bd8bdf829f72afb66609281900390910190a25050565b600080546001600160a01b0316331461289f5761174460016012613f58565b6001600160a01b03821660009081526009602052604090205460ff16156128cc57611744600a6011613f58565b816001600160a01b031663fe9c44ae6040518163ffffffff1660e01b815260040160206040518083038186803b15801561290557600080fd5b505afa158015612919573d6000803e3d6000fd5b505050506040513d602081101561292f57600080fd5b50506040805160a081018252600180825260006020838101828152848601838152670de0b6b3a764000060608701908152608087018581526001600160a01b038b1686526009909452969093209451855490151560ff19918216178655905193850193909355905160038401805491151591909316179091559151600482015590516005909101556129c082614f97565b604080516001600160a01b038416815290517fcf583bb0c569eb967f806b11601c4cb93c10310485c67add5f8362c2f212321f9181900360200190a160006111dc565b6a0c097ce7bc90715b34b9f160241b81565b600e5481565b60608060086000846001600160a01b03166001600160a01b03168152602001908152602001600020805480602002602001604051908101604052809291908181526020018280548015612a9757602002820191906000526020600020905b81546001600160a01b03168152600190910190602001808311612a79575b5093979650505050505050565b600a54600160b81b900460ff1681565b6060600d805480602002602001604051908101604052809291908181526020018280548015612b0c57602002820191906000526020600020905b81546001600160a01b03168152600190910190602001808311612aee575b5050505050905090565b601260209081526000928352604080842090915290825290205481565b6002546001600160a01b031681565b600a54600090600160b01b900460ff1615612b8d576040805162461bcd60e51b81526020600482015260066024820152651c185d5cd95960d21b604482015290519081900360640190fd5b6000612b9a868685615075565b90508015612ba957905061146b565b612bb28661463a565b612bbe868660006148ed565b611465868560006148ed565b6060600082519050606081604051908082528060200260200182016040528015612bfe578160200160208202803883390190505b50905060005b82811015612c59576000858281518110612c1a57fe5b60200260200101519050612c2e813361512d565b6011811115612c3957fe5b838381518110612c4557fe5b602090810291909101015250600101612c04565b509392505050565b600480546040805163fc57d4df60e01b81526001600160a01b038781169482019490945290516000938493849391169163fc57d4df91602480820192602092909190829003018186803b158015612cb757600080fd5b505afa158015612ccb573d6000803e3d6000fd5b505050506040513d6020811015612ce157600080fd5b5051600480546040805163fc57d4df60e01b81526001600160a01b038a8116948201949094529051939450600093929091169163fc57d4df91602480820192602092909190829003018186803b158015612d3a57600080fd5b505afa158015612d4e573d6000803e3d6000fd5b505050506040513d6020811015612d6457600080fd5b50519050811580612d73575080155b15612d8857600d935060009250612eda915050565b6000866001600160a01b031663182df0f56040518163ffffffff1660e01b815260040160206040518083038186803b158015612dc357600080fd5b505afa158015612dd7573d6000803e3d6000fd5b505050506040513d6020811015612ded57600080fd5b505190506000612dfb615eb9565b612e03615eb9565b612e0b615eb9565b600080612e178d612fde565b9050612e23818a615223565b955091506000826003811115612e3557fe5b14612e5257600b5b9a5060009950612eda98505050505050505050565b612e5c8888615223565b945091506000826003811115612e6e57fe5b14612e7a57600b612e3d565b612e84858561525e565b935091506000826003811115612e9657fe5b14612ea257600b612e3d565b612eac838d6145c0565b965091506000826003811115612ebe57fe5b14612eca57600b612e3d565b60009a5094985050505050505050505b935093915050565b601360209081526000928352604080842090915290825290205481565b60146020526000908152604090205481565b60155460408051632c333e2560e01b81526001600160a01b03858116600483015291516000939290921691632c333e2591602480820192602092909190829003018186803b158015612f6257600080fd5b505afa158015612f76573d6000803e3d6000fd5b505050506040513d6020811015612f8c57600080fd5b505115612fd1576040805162461bcd60e51b815260206004820152600e60248201526d18dc99591a5d081858d8dbdd5b9d60921b604482015290519081900360640190fd5b611fd28686868686615276565b6001600160a01b038116600090815260096020526040812060050154806111dc575050600654611720565b6001600160a01b0383166000908152600c602052604081205460ff161561306a576040805162461bcd60e51b815260206004820152601060248201526f189bdc9c9bddc81a5cc81c185d5cd95960821b604482015290519081900360640190fd5b6001600160a01b03841660009081526009602052604090205460ff16613091576009611515565b6001600160a01b038085166000908152600960209081526040808320938716835260029093019052205460ff1661318157336001600160a01b03851614613117576040805162461bcd60e51b815260206004820152601560248201527439b2b73232b91036bab9ba1031329031aa37b5b2b760591b604482015290519081900360640190fd5b6000613123338561512d565b9050600081601181111561313357fe5b1461314c5780601181111561314457fe5b9150506115f5565b6001600160a01b038086166000908152600960209081526040808320938816835260029093019052205460ff1661317f57fe5b505b600480546040805163fc57d4df60e01b81526001600160a01b03888116948201949094529051929091169163fc57d4df91602480820192602092909190829003018186803b1580156131d257600080fd5b505afa1580156131e6573d6000803e3d6000fd5b505050506040513d60208110156131fc57600080fd5b505161320957600d611515565b60155460408051630f5a372160e21b81526001600160a01b03878116600483015291516000939290921691633d68dc8491602480820192602092909190829003018186803b15801561325a57600080fd5b505afa15801561326e573d6000803e3d6000fd5b505050506040513d602081101561328457600080fd5b5051905080156133b6576000856001600160a01b03166347bd37186040518163ffffffff1660e01b815260040160206040518083038186803b1580156132c957600080fd5b505afa1580156132dd573d6000803e3d6000fd5b505050506040513d60208110156132f357600080fd5b505190506000806133048387614614565b9092509050600082600381111561331757fe5b14613362576040805162461bcd60e51b8152602060048201526016602482015275746f74616c20626f72726f7773206f766572666c6f7760501b604482015290519081900360640190fd5b8381106133b2576040805162461bcd60e51b81526020600482015260196024820152781b585c9ad95d08189bdc9c9bddc818d85c081c995858da1959603a1b604482015290519081900360640190fd5b5050505b6000806133c68688600088613fcd565b919350909150600090508260118111156133dc57fe5b146133f7578160118111156133ed57fe5b93505050506115f5565b80156134045760046133ed565b61340c615eb9565b6040518060200160405280896001600160a01b031663aa5af0fd6040518163ffffffff1660e01b815260040160206040518083038186803b15801561345057600080fd5b505afa158015613464573d6000803e3d6000fd5b505050506040513d602081101561347a57600080fd5b50519052905061348a8882613abc565b6134978888836000613d6d565b600098975050505050505050565b600860205281600052604060002081815481106134be57fe5b6000918252602090912001546001600160a01b03169150829050565b6003546001600160a01b031681565b6015546040805163e0fbf09d60e01b81526001600160a01b0384811660048301529151600093929092169163e0fbf09d91602480820192602092909190829003018186803b15801561353a57600080fd5b505afa15801561354e573d6000803e3d6000fd5b505050506040513d602081101561356457600080fd5b505192915050565b600080546001600160a01b0316331461358b5761257160016006613f58565b6001600160a01b0383166000908152600960205260409020805460ff166135b8576125a560096007613f58565b6135c0615eb9565b5060408051602081019091528381526135d7615eb9565b506040805160208101909152670c7d713b49da000081526135f88183613fc6565b15613609576125fe60066008613f58565b84158015906136925750600480546040805163fc57d4df60e01b81526001600160a01b038a8116948201949094529051929091169163fc57d4df91602480820192602092909190829003018186803b15801561366457600080fd5b505afa158015613678573d6000803e3d6000fd5b505050506040513d602081101561368e57600080fd5b5051155b156136a3576125fe600d6009613f58565b60018301805490869055604080516001600160a01b03891681526020810183905280820188905290517f70483e6592cd5182d45ac970e05bc62cdcc90e9d8ef2c2dbe686cf383bcd7fc59181900360600190a16000979650505050505050565b600a54600160a81b900460ff1681565b60055481565b61139581600d80548060200260200160405190810160405280929190818152602001828054801561377357602002820191906000526020600020905b81546001600160a01b03168152600190910190602001808311613755575b50505050506111e2565b60008061378b858585615075565b90508015611d075790506115f5565b6000808290506000806000836001600160a01b031663c37f68e2336040518263ffffffff1660e01b815260040180826001600160a01b03166001600160a01b0316815260200191505060806040518083038186803b1580156137fb57600080fd5b505afa15801561380f573d6000803e3d6000fd5b505050506040513d608081101561382557600080fd5b5080516020820151604090920151909450909250905082156138785760405162461bcd60e51b8152600401808060200182810382526025815260200180615f866025913960400191505060405180910390fd5b80156138955761388a600c6002613f58565b945050505050611720565b60006138a2873385615075565b905080156138c3576138b7600e600383615420565b95505050505050611720565b6001600160a01b0385166000908152600960209081526040808320338452600281019092529091205460ff166139025760009650505050505050611720565b3360009081526002820160209081526040808320805460ff19169055600882529182902080548351818402810184019094528084526060939283018282801561397457602002820191906000526020600020905b81546001600160a01b03168152600190910190602001808311613956575b5050835193945083925060009150505b828110156139c957896001600160a01b03168482815181106139a257fe5b60200260200101516001600160a01b031614156139c1578091506139c9565b600101613984565b508181106139d357fe5b3360009081526008602052604090208054819060001981019081106139f457fe5b9060005260206000200160009054906101000a90046001600160a01b0316818381548110613a1e57fe5b600091825260209091200180546001600160a01b0319166001600160a01b03929092169190911790558054613a57826000198301615ecc565b50604080516001600160a01b038c16815233602082015281517fe699a64c18b07ac5b7301aa273f36a2287239eb9501d81950672794afba29a0d929181900390910190a160009c9b505050505050505050505050565b6000546001600160a01b031681565b6001600160a01b0382166000908152601160209081526040808320600f90925282205490916001600160801b0390911690613af56119cf565b8354909150600090613b15908390600160e01b900463ffffffff16615486565b9050600081118015613b275750600083115b15613cf1576000613b9c876001600160a01b03166347bd37186040518163ffffffff1660e01b815260040160206040518083038186803b158015613b6a57600080fd5b505afa158015613b7e573d6000803e3d6000fd5b505050506040513d6020811015613b9457600080fd5b5051876154c0565b90506000613baa83866154de565b9050613bb4615eb9565b60008311613bd15760405180602001604052806000815250613bdb565b613bdb828461551a565b9050613be5615eb9565b604080516020810190915288546001600160e01b03168152613c079083615557565b90506040518060400160405280613c4983600001516040518060400160405280600f81526020016e696e646578203e203232346269747360881b81525061557c565b6001600160e01b03168152602001613c8d8860405180604001604052806014815260200173626c6f636b4e756d626572203e2033326269747360601b815250615616565b63ffffffff9081169091526001600160a01b038c166000908152601160209081526040909120835181549490920151909216600160e01b026001600160e01b039182166001600160e01b0319909416939093171691909117905550613d6592505050565b600081118015613d0a575083546001600160e01b031615155b15613d6557613d458260405180604001604052806014815260200173626c6f636b4e756d626572203e2033326269747360601b815250615616565b845463ffffffff91909116600160e01b026001600160e01b039091161784555b505050505050565b6001600160a01b0384166000908152601160205260409020613d8d615eb9565b50604080516020810190915281546001600160e01b03168152613dae615eb9565b5060408051602080820183526001600160a01b03808a16600090815260138352848120918a1680825282845294812080548552865195909152915291909155805115613f4f57613dfc615eb9565b613e06838361566b565b90506000613e95896001600160a01b03166395dd91938a6040518263ffffffff1660e01b815260040180826001600160a01b03166001600160a01b0316815260200191505060206040518083038186803b158015613e6357600080fd5b505afa158015613e77573d6000803e3d6000fd5b505050506040513d6020811015613e8d57600080fd5b5051886154c0565b90506000613ea38284615690565b6001600160a01b038a1660009081526014602052604081205491925090613eca9083614f61565b9050613eeb8a828a613ee35766038d7ea4c68000613ee6565b60005b6156be565b6001600160a01b03808c1660008181526014602090815260409182902094909455895181518781529485015280519193928f16927f1fc3ecc087d8d2d15e23d0032af5a47059c3892d003d8e139fdcb6bb327c99a6929081900390910190a3505050505b50505050505050565b60007f45b96fe442630264581b197e84bbada861235052c5a1aadfff9ea4e40a969aa0836011811115613f8757fe5b836013811115613f9357fe5b604080519283526020830191909152600082820152519081900360600190a18260118111156115f557fe5b519051111590565b5190511090565b60155460408051632c333e2560e01b81526001600160a01b038781166004830152915160009384938493600019939190921691632c333e25916024808301926020929190829003018186803b15801561402557600080fd5b505afa158015614039573d6000803e3d6000fd5b505050506040513d602081101561404f57600080fd5b50511415614067575060009150600019905081611a0a565b61406f615ef0565b6001600160a01b0388166000908152600860209081526040808320805482518185028101850190935280835284936060939291908301828280156140dc57602002820191906000526020600020905b81546001600160a01b031681526001909101906020018083116140be575b50939450600093505050505b815181101561447c5760008282815181106140ff57fe5b60200260200101519050806001600160a01b031663c37f68e28e6040518263ffffffff1660e01b815260040180826001600160a01b03166001600160a01b0316815260200191505060806040518083038186803b15801561415f57600080fd5b505afa158015614173573d6000803e3d6000fd5b505050506040513d608081101561418957600080fd5b508051602082015160408084015160609485015160808c0152938a019390935291880191909152945084156141cf5750600f975060009650869550611a0a945050505050565b60408051602080820183526001600160a01b03808516600081815260098085528682206001810154875260c08e01969096528651808601885291839052845260049485015481526101408c01528451808401865260808c0151815260e08c01528354855163fc57d4df60e01b815294850191909152935193169263fc57d4df926024808201939291829003018186803b15801561426b57600080fd5b505afa15801561427f573d6000803e3d6000fd5b505050506040513d602081101561429557600080fd5b505160a087018190526142b95750600d975060009650869550611a0a945050505050565b604080516020810190915260a08701518152610100870181905260c087015160e08801516142e6926159b7565b610120880152935060008460038111156142fc57fe5b146143185750600b975060009650869550611a0a945050505050565b61433086610120015187604001518860000151615a0f565b87529350600084600381111561434257fe5b1461435e5750600b975060009650869550611a0a945050505050565b600061437387606001518861014001516154c0565b9050614389876101000151828960200151615a0f565b60208901529450600085600381111561439e57fe5b146143bb5750600b985060009750879650611a0a95505050505050565b8c6001600160a01b0316826001600160a01b03161415614472576143e98761012001518d8960200151615a0f565b6020890152945060008560038111156143fe57fe5b1461441b5750600b985060009750879650611a0a95505050505050565b61442a8b8861014001516154c0565b9050614440876101000151828960200151615a0f565b60208901529450600085600381111561445557fe5b146144725750600b985060009750879650611a0a95505050505050565b50506001016140e8565b5060155460408051632c333e2560e01b81526001600160a01b038e8116600483015291516000939290921691632c333e2591602480820192602092909190829003018186803b1580156144ce57600080fd5b505afa1580156144e2573d6000803e3d6000fd5b505050506040513d60208110156144f857600080fd5b5051111561457c5760155460408051632c333e2560e01b81526001600160a01b038e8116600483015291519190921691632c333e25916024808301926020929190829003018186803b15801561454d57600080fd5b505afa158015614561573d6000803e3d6000fd5b505050506040513d602081101561457757600080fd5b505184525b6020840151845111156145a2575050506020810151905160009450039150829050611a0a565b5050815160209092015160009550859450919091039150611a0a9050565b60008060006145cd615eb9565b6145d78686615a5c565b909250905060008260038111156145ea57fe5b146145fb575091506000905061460d565b600061460682615ac4565b9350935050505b9250929050565b60008083830184811061462c5760009250905061460d565b50600291506000905061460d565b6001600160a01b0381166000908152601060209081526040808320600f90925290912054608081901c1561467257608081901c614674565b805b905060006146806119cf565b83549091506000906146a0908390600160e01b900463ffffffff16615486565b90506000811180156146b25750600083115b15614873576000856001600160a01b03166318160ddd6040518163ffffffff1660e01b815260040160206040518083038186803b1580156146f257600080fd5b505afa158015614706573d6000803e3d6000fd5b505050506040513d602081101561471c57600080fd5b50519050600061472c83866154de565b9050614736615eb9565b60008311614753576040518060200160405280600081525061475d565b61475d828461551a565b9050614767615eb9565b604080516020810190915288546001600160e01b031681526147899083615557565b905060405180604001604052806147cb83600001516040518060400160405280600f81526020016e696e646578203e203232346269747360881b81525061557c565b6001600160e01b0316815260200161480f8860405180604001604052806014815260200173626c6f636b4e756d626572203e2033326269747360601b815250615616565b63ffffffff9081169091526001600160a01b038b166000908152601060209081526040909120835181549490920151909216600160e01b026001600160e01b039182166001600160e01b031990941693909317169190911790555061217992505050565b60008111801561488c575083546001600160e01b031615155b15612179576148c78260405180604001604052806014815260200173626c6f636b4e756d626572203e2033326269747360601b815250615616565b845463ffffffff91909116600160e01b026001600160e01b039091161784555050505050565b6001600160a01b038316600090815260106020526040902061490d615eb9565b50604080516020810190915281546001600160e01b0316815261492e615eb9565b5060408051602080820183526001600160a01b0380891660009081526012835284812091891680825282845294812080548552865195909152915291909155805115801561497c5750815115155b15614993576a0c097ce7bc90715b34b9f160241b81525b61499b615eb9565b6149a5838361566b565b90506000876001600160a01b03166370a08231886040518263ffffffff1660e01b815260040180826001600160a01b03166001600160a01b0316815260200191505060206040518083038186803b1580156149ff57600080fd5b505afa158015614a13573d6000803e3d6000fd5b505050506040513d6020811015614a2957600080fd5b505190506000614a398284615690565b6001600160a01b03891660009081526014602052604081205491925090614a609083614f61565b9050614a7989828a613ee35766038d7ea4c68000613ee6565b6001600160a01b03808b1660008181526014602090815260409182902094909455895181518781529485015280519193928e16927f2caecd17d02f56fa897705dcc740da2d237c373f70686f4e0d9bd3bf0400ea7a929081900390910190a350505050505050505050565b6001600160a01b03851660009081526009602052604081205460ff161580614b2557506001600160a01b03851660009081526009602052604090205460ff16155b15614b345760095b9050611fd5565b600080614b4085615ad3565b91935090915060009050826011811115614b5657fe5b14614b7057816011811115614b6757fe5b92505050611fd5565b80614b7c576003614b67565b6000886001600160a01b03166395dd9193876040518263ffffffff1660e01b815260040180826001600160a01b03166001600160a01b0316815260200191505060206040518083038186803b158015614bd457600080fd5b505afa158015614be8573d6000803e3d6000fd5b505050506040513d6020811015614bfe57600080fd5b5051604080516020810190915260055481529091506000908190614c2290846145c0565b90925090506000826003811115614c3557fe5b14614c4957600b5b95505050505050611fd5565b80871115614c58576011614c3d565b60009b9a5050505050505050505050565b6001600160a01b0381166000908152600960205260409020805460ff161515600114614cc6576040805162461bcd60e51b8152602060048201526007602482015266085b1a5cdd195960ca1b604482015290519081900360640190fd5b600381015460ff1615614d10576040805162461bcd60e51b815260206004820152600d60248201526c185b1c9958591e481859191959609a1b604482015290519081900360640190fd5b60038101805460ff19166001908117909155604080516001600160a01b0385168152602081019290925280517f93c1f3e36ed71139f466a4ce8c9751790e2e33f5afb2df0dcfb3aeabe55d5aa29281900390910190a16001600160a01b0382166000908152601060205260409020546001600160e01b0316158015614db857506001600160a01b038216600090815260106020526040902054600160e01b900463ffffffff16155b15614e785760405180604001604052806a0c097ce7bc90715b34b9f160241b6001600160e01b03168152602001614e1d614df06119cf565b6040518060400160405280600f81526020016e65786365656473203332206269747360881b815250615616565b63ffffffff9081169091526001600160a01b0384166000908152601060209081526040909120835181549490920151909216600160e01b026001600160e01b039182166001600160e01b031990941693909317169190911790555b6001600160a01b0382166000908152601160205260409020546001600160e01b0316158015614eca57506001600160a01b038216600090815260116020526040902054600160e01b900463ffffffff16155b15614f5d5760405180604001604052806a0c097ce7bc90715b34b9f160241b6001600160e01b03168152602001614f02614df06119cf565b63ffffffff9081169091526001600160a01b0384166000908152601160209081526040909120835181549490920151909216600160e01b026001600160e01b039182166001600160e01b031990941693909317169190911790555b5050565b60006115f58383604051806040016040528060118152602001706164646974696f6e206f766572666c6f7760781b815250615af3565b60005b600d5481101561502257816001600160a01b0316600d8281548110614fbb57fe5b6000918252602090912001546001600160a01b0316141561501a576040805162461bcd60e51b81526020600482015260146024820152731b585c9ad95d08185b1c9958591e48185919195960621b604482015290519081900360640190fd5b600101614f9a565b50600d80546001810182556000919091527fd7b6990105719101dabeb77144f2a3385c8033acd3af97e9423a695e81ad1eb50180546001600160a01b0319166001600160a01b0392909216919091179055565b6001600160a01b03831660009081526009602052604081205460ff1661509c576009611515565b6001600160a01b038085166000908152600960209081526040808320938716835260029093019052205460ff166150d4576000611515565b6000806150e48587866000613fcd565b919350909150600090508260118111156150fa57fe5b146151145781601181111561510b57fe5b925050506115f5565b801561512157600461510b565b60009695505050505050565b6001600160a01b0382166000908152600960205260408120805460ff166151585760099150506111dc565b6001600160a01b038316600090815260028201602052604090205460ff1615156001141561518a5760009150506111dc565b6001600160a01b0380841660008181526002840160209081526040808320805460ff19166001908117909155600883528184208054918201815584529282902090920180549489166001600160a01b031990951685179055815193845283019190915280517f3ab23ab0d51cccc0c3085aec51f99228625aa1a922b3a8ca89a26b0f2027a1a59281900390910190a15060009392505050565b600061522d615eb9565b615253604051806020016040528086815250604051806020016040528086815250615b51565b915091509250929050565b6000615268615eb9565b835183516152539190615c3a565b600a54600090600160b81b900460ff16156152c1576040805162461bcd60e51b81526020600482015260066024820152651c185d5cd95960d21b604482015290519081900360640190fd5b6001600160a01b03861660009081526009602052604090205460ff16158061530257506001600160a01b03851660009081526009602052604090205460ff16155b1561530e576009614b2d565b846001600160a01b0316635fe3b5676040518163ffffffff1660e01b815260040160206040518083038186803b15801561534757600080fd5b505afa15801561535b573d6000803e3d6000fd5b505050506040513d602081101561537157600080fd5b505160408051635fe3b56760e01b815290516001600160a01b0392831692891691635fe3b567916004808301926020929190829003018186803b1580156153b757600080fd5b505afa1580156153cb573d6000803e3d6000fd5b505050506040513d60208110156153e157600080fd5b50516001600160a01b0316146153f8576002614b2d565b6154018661463a565b61540d868460006148ed565b615419868560006148ed565b6000611fd2565b60007f45b96fe442630264581b197e84bbada861235052c5a1aadfff9ea4e40a969aa084601181111561544f57fe5b84601381111561545b57fe5b604080519283526020830191909152818101859052519081900360600190a183601181111561146b57fe5b60006115f58383604051806040016040528060158152602001747375627472616374696f6e20756e646572666c6f7760581b815250615cea565b60006115f56154d784670de0b6b3a76400006154de565b8351615d44565b60006115f58383604051806040016040528060178152602001766d756c7469706c69636174696f6e206f766572666c6f7760481b815250615d77565b615522615eb9565b604051806020016040528061554e615548866a0c097ce7bc90715b34b9f160241b6154de565b85615d44565b90529392505050565b61555f615eb9565b604051806020016040528061554e85600001518560000151614f61565b600081600160e01b841061560e5760405162461bcd60e51b81526004018080602001828103825283818151815260200191508051906020019080838360005b838110156155d35781810151838201526020016155bb565b50505050905090810190601f1680156156005780820380516001836020036101000a031916815260200191505b509250505060405180910390fd5b509192915050565b600081600160201b841061560e5760405162461bcd60e51b81526020600482018181528351602484015283519092839260449091019190850190808383600083156155d35781810151838201526020016155bb565b615673615eb9565b604051806020016040528061554e85600001518560000151615486565b60006a0c097ce7bc90715b34b9f160241b6156af8484600001516154de565b816156b657fe5b049392505050565b6000806156c9612712565b90508284101580156156db5750600084115b80156156ef57506001600160a01b03811615155b156159ae57604080516370a0823160e01b8152306004820152905182916000916001600160a01b038416916370a08231916024808301926020929190829003018186803b15801561573f57600080fd5b505afa158015615753573d6000803e3d6000fd5b505050506040513d602081101561576957600080fd5b505190508086116159ab57601554604080516392b8de3960e01b81526001600160a01b038a81166004830152602482018a9052825160009485949216926392b8de39926044808301939192829003018186803b1580156157c857600080fd5b505afa1580156157dc573d6000803e3d6000fd5b505050506040513d60408110156157f257600080fd5b5080516020909101519092509050811561589357836001600160a01b031663a9059cbb8a846040518363ffffffff1660e01b815260040180836001600160a01b03166001600160a01b0316815260200182815260200192505050602060405180830381600087803b15801561586657600080fd5b505af115801561587a573d6000803e3d6000fd5b505050506040513d602081101561589057600080fd5b50505b801561599d57836001600160a01b031663a9059cbb601560009054906101000a90046001600160a01b03166001600160a01b031663ee9e81996040518163ffffffff1660e01b815260040160206040518083038186803b1580156158f657600080fd5b505afa15801561590a573d6000803e3d6000fd5b505050506040513d602081101561592057600080fd5b5051604080516001600160e01b031960e085901b1681526001600160a01b039092166004830152602482018590525160448083019260209291908290030181600087803b15801561597057600080fd5b505af1158015615984573d6000803e3d6000fd5b505050506040513d602081101561599a57600080fd5b50505b6000955050505050506115f5565b50505b50919392505050565b60006159c1615eb9565b60006159cb615eb9565b6159d58787615b51565b909250905060008260038111156159e857fe5b146159f7579092509050612eda565b615a018186615b51565b935093505050935093915050565b6000806000615a1c615eb9565b615a268787615a5c565b90925090506000826003811115615a3957fe5b14615a4a5750915060009050612eda565b615a01615a5682615ac4565b86614614565b6000615a66615eb9565b600080615a77866000015186615ded565b90925090506000826003811115615a8a57fe5b14615aa95750604080516020810190915260008152909250905061460d565b60408051602081019091529081526000969095509350505050565b51670de0b6b3a7640000900490565b6000806000615ae6846000806000613fcd565b9250925092509193909250565b60008383018285821015615b485760405162461bcd60e51b81526020600482018181528351602484015283519092839260449091019190850190808383600083156155d35781810151838201526020016155bb565b50949350505050565b6000615b5b615eb9565b600080615b7086600001518660000151615ded565b90925090506000826003811115615b8357fe5b14615ba25750604080516020810190915260008152909250905061460d565b600080615bb76706f05b59d3b2000084614614565b90925090506000826003811115615bca57fe5b14615bec5750604080516020810190915260008152909450925061460d915050565b600080615c0183670de0b6b3a7640000615e2c565b90925090506000826003811115615c1457fe5b14615c1b57fe5b604080516020810190915290815260009a909950975050505050505050565b6000615c44615eb9565b600080615c5986670de0b6b3a7640000615ded565b90925090506000826003811115615c6c57fe5b14615c8b5750604080516020810190915260008152909250905061460d565b600080615c988388615e2c565b90925090506000826003811115615cab57fe5b14615ccd5750604080516020810190915260008152909450925061460d915050565b604080516020810190915290815260009890975095505050505050565b60008184841115615d3c5760405162461bcd60e51b81526020600482018181528351602484015283519092839260449091019190850190808383600083156155d35781810151838201526020016155bb565b505050900390565b60006115f583836040518060400160405280600e81526020016d646976696465206279207a65726f60901b815250615e57565b6000831580615d84575082155b15615d91575060006115f5565b83830283858281615d9e57fe5b04148390615b485760405162461bcd60e51b81526020600482018181528351602484015283519092839260449091019190850190808383600083156155d35781810151838201526020016155bb565b60008083615e005750600090508061460d565b83830283858281615e0d57fe5b0414615e215750600291506000905061460d565b60009250905061460d565b60008082615e40575060019050600061460d565b6000838581615e4b57fe5b04915091509250929050565b60008183615ea65760405162461bcd60e51b81526020600482018181528351602484015283519092839260449091019190850190808383600083156155d35781810151838201526020016155bb565b50828481615eb057fe5b04949350505050565b6040518060200160405280600081525090565b81548183558181111561123f5760008381526020902061123f918101908301615f67565b604051806101600160405280600081526020016000815260200160008152602001600081526020016000815260200160008152602001615f2e615eb9565b8152602001615f3b615eb9565b8152602001615f48615eb9565b8152602001615f55615eb9565b8152602001615f62615eb9565b905290565b6119d191905b80821115615f815760008155600101615f6d565b509056fe657869744d61726b65743a206765744163636f756e74536e617073686f74206661696c6564a265627a7a7231582030f354a94014c853ec327da786e11d1ed45ade565b47b23dd2020b0ef92e036c64736f6c63430005100032",
  "source": "pragma solidity ^0.5.16;\n\nimport \"./compound/Comptroller.sol\";\nimport \"./compound/EIP20Interface.sol\";\nimport \"./QsConfig.sol\";\n\ncontract Qstroller is Comptroller {\n    /// @notice Emitted when an admin delists a market\n    event MarketDelisted(CToken cToken);\n\n    QsConfig public qsConfig;\n\n//    /**\n//     * @notice Remove the market from the markets mapping\n//     * @param cToken The address of the market (token) to delist\n//     */\n//    function _delistMarket(CToken cToken) external {\n//        require(msg.sender == admin, \"only admin may delist market\");\n//\n//        require(markets[address(cToken)].isListed, \"market not listed\");\n//        require(cToken.totalSupply() == 0, \"market not empty\");\n//\n//        cToken.isCToken(); // Sanity check to make sure its really a CToken\n//\n//        delete markets[address(cToken)];\n//\n//        for (uint i = 0; i < allMarkets.length; i++) {\n//            if (allMarkets[i] == cToken) {\n//                allMarkets[i] = allMarkets[allMarkets.length - 1];\n//                delete allMarkets[allMarkets.length - 1];\n//                allMarkets.length--;\n//                break;\n//            }\n//        }\n//\n//        emit MarketDelisted(cToken);\n//    }\n\n    function _setQsConfig(QsConfig _qsConfig) public {\n        require(msg.sender == admin);\n\n        qsConfig = _qsConfig;\n    }\n\n    /**\n     * @notice Sets new governance token distribution speed\n     * @dev Admin function to set new token distribution speed\n     */\n    function _setCompSpeeds(address[] memory _allMarkets, uint[] memory _compSpeeds) public {\n        // Check caller is admin\n        require(msg.sender == admin);\n        \n        require(_allMarkets.length == _compSpeeds.length);\n\n        uint _compRate = 0;\n        for (uint i = 0; i < _allMarkets.length; i++) {\n            address cToken = _allMarkets[i];\n            Market storage market = markets[cToken];\n            if (market.isComped == false) {\n                _addCompMarketInternal(cToken);\n            }\n            compSpeeds[cToken] = _compSpeeds[i];\n            uint supplySpeed = _compSpeeds[i] >> 128;\n            uint borrowSpeed = uint128(_compSpeeds[i]);\n            uint compSpeed = add_(supplySpeed, borrowSpeed);\n            _compRate = add_(_compRate, compSpeed);\n        }\n        compRate = _compRate;\n    }\n\n    function getCompAddress() public view returns (address) {\n        return qsConfig.compToken();\n    }\n    \n    function calculateSeizeTokenAllocation(uint _seizeTokenAmount) public view returns(uint liquidatorAmount, uint safetyVaultAmount) {\n        return qsConfig.calculateSeizeTokenAllocation(_seizeTokenAmount, liquidationIncentiveMantissa);\n    }\n    \n    function transferComp(address user, uint userAccrued, uint threshold) internal returns (uint) {\n        address compAddress = getCompAddress();\n        if (userAccrued >= threshold && userAccrued > 0 && compAddress != address(0x0)) {\n            EIP20Interface comp = EIP20Interface(compAddress);\n            uint compRemaining = comp.balanceOf(address(this));\n            if (userAccrued <= compRemaining) {\n                (uint userAmount, uint governanceAmount) = qsConfig.getCompAllocation(user, userAccrued);\n                if (userAmount > 0) comp.transfer(user, userAmount);\n                if (governanceAmount > 0) comp.transfer(qsConfig.safetyVault(), governanceAmount);\n                return 0;\n            }\n        }\n        return userAccrued;\n    }\n\n    /**\n      * @notice Checks if the account should be allowed to borrow the underlying asset of the given market\n      * @param cToken The market to verify the borrow against\n      * @param borrower The account which would borrow the asset\n      * @param borrowAmount The amount of underlying the account would borrow\n      * @return 0 if the borrow is allowed, otherwise a semi-opaque error code (See ErrorReporter.sol)\n      */\n    function borrowAllowed(address cToken, address borrower, uint borrowAmount) external returns (uint) {\n        // Pausing is a very serious situation - we revert to sound the alarms\n        require(!borrowGuardianPaused[cToken], \"borrow is paused\");\n\n        if (!markets[cToken].isListed) {\n            return uint(Error.MARKET_NOT_LISTED);\n        }\n\n        if (!markets[cToken].accountMembership[borrower]) {\n            // only cTokens may call borrowAllowed if borrower not in market\n            require(msg.sender == cToken, \"sender must be cToken\");\n\n            // attempt to add borrower to the market\n            Error err = addToMarketInternal(CToken(msg.sender), borrower);\n            if (err != Error.NO_ERROR) {\n                return uint(err);\n            }\n\n            // it should be impossible to break the important invariant\n            assert(markets[cToken].accountMembership[borrower]);\n        }\n\n        if (oracle.getUnderlyingPrice(CToken(cToken)) == 0) {\n            return uint(Error.PRICE_ERROR);\n        }\n\n        uint borrowCap = qsConfig.getBorrowCap(cToken);\n        // Borrow cap of 0 corresponds to unlimited borrowing\n        if (borrowCap != 0) {\n            uint totalBorrows = CToken(cToken).totalBorrows();\n            (MathError mathErr, uint nextTotalBorrows) = addUInt(totalBorrows, borrowAmount);\n            require(mathErr == MathError.NO_ERROR, \"total borrows overflow\");\n            require(nextTotalBorrows < borrowCap, \"market borrow cap reached\");\n        }\n\n        (Error err, , uint shortfall) = getHypotheticalAccountLiquidityInternal(borrower, CToken(cToken), 0, borrowAmount);\n        if (err != Error.NO_ERROR) {\n            return uint(err);\n        }\n        if (shortfall > 0) {\n            return uint(Error.INSUFFICIENT_LIQUIDITY);\n        }\n\n        // Keep the flywheel moving\n        Exp memory borrowIndex = Exp({mantissa: CToken(cToken).borrowIndex()});\n        updateCompBorrowIndex(cToken, borrowIndex);\n        distributeBorrowerComp(cToken, borrower, borrowIndex, false);\n\n        return uint(Error.NO_ERROR);\n    }\n\n    function flashLoanAllowed(address cToken, address to, uint256 flashLoanAmount) view external returns (uint) {\n        // Pausing is a very serious situation - we revert to sound the alarms\n        require(!borrowGuardianPaused[cToken], \"borrow is paused\");\n\n        if (!markets[cToken].isListed) {\n            return uint(Error.MARKET_NOT_LISTED);\n        }\n\n        uint flashLoanCap = qsConfig.getFlashLoanCap(cToken);\n        // FlashLoan cap of 0 corresponds to unlimited flash loan\n        if (flashLoanCap != 0) {\n            require(flashLoanAmount <= flashLoanCap, \"flash loan cap reached\");\n        }\n\n        to;\n\n        return uint(Error.NO_ERROR);\n    }\n\n    function getFlashLoanCap(address cToken) view external returns (uint) {\n        return qsConfig.getFlashLoanCap(cToken);\n    }\n\n    /**\n     * @notice Checks if the account should be allowed to mint tokens in the given market\n     * @param cToken The market to verify the mint against\n     * @param minter The account which would get the minted tokens\n     * @param mintAmount The amount of underlying being supplied to the market in exchange for tokens\n     * @return 0 if the mint is allowed, otherwise a semi-opaque error code (See ErrorReporter.sol)\n     */\n    function mintAllowed(address cToken, address minter, uint mintAmount) external returns (uint) {\n        require(!qsConfig.isBlocked(minter));\n        // Pausing is a very serious situation - we revert to sound the alarms\n        require(!mintGuardianPaused[cToken]);\n\n        // Shh - currently unused\n        minter;\n        mintAmount;\n\n        if (!markets[cToken].isListed) {\n            return uint(Error.MARKET_NOT_LISTED);\n        }\n\n        uint supplyCap = qsConfig.getSupplyCap(cToken);\n\n        // Supply cap of 0 corresponds to unlimited borrowing\n        if (supplyCap != 0) {\n            Exp memory exchangeRate = Exp({mantissa: CTokenInterface(cToken).exchangeRateCurrent()});\n            (MathError mErr, uint totalSupplyUnderlying) = mulScalarTruncate(exchangeRate, EIP20Interface(cToken).totalSupply());\n            require(mErr == MathError.NO_ERROR);\n            (MathError mathErr, uint nextTotalSupplyUnderlying) = addUInt(totalSupplyUnderlying, mintAmount);\n            require(mathErr == MathError.NO_ERROR);\n            require(nextTotalSupplyUnderlying <= supplyCap, \"market supply cap reached\");\n        }\n\n        // Keep the flywheel moving\n        updateCompSupplyIndex(cToken);\n        distributeSupplierComp(cToken, minter, false);\n        return uint(Error.NO_ERROR);\n    }\n\n    /**\n  * @notice Accrue COMP to the market by updating the supply index\n  * @param cToken The market whose supply index to update\n  */\n    function updateCompSupplyIndex(address cToken) internal {\n        CompMarketState storage supplyState = compSupplyState[cToken];\n        uint supplySpeed = compSpeeds[cToken];\n        // use first 128 bit as supplySpeed\n        supplySpeed = supplySpeed >> 128 == 0 ? supplySpeed : supplySpeed >> 128;\n        uint blockNumber = getBlockNumber();\n        uint deltaBlocks = sub_(blockNumber, uint(supplyState.block));\n        if (deltaBlocks > 0 && supplySpeed > 0) {\n            uint supplyTokens = CToken(cToken).totalSupply();\n            uint compAccrued = mul_(deltaBlocks, supplySpeed);\n            Double memory ratio = supplyTokens > 0 ? fraction(compAccrued, supplyTokens) : Double({mantissa: 0});\n            Double memory index = add_(Double({mantissa: supplyState.index}), ratio);\n            compSupplyState[cToken] = CompMarketState({\n            index: safe224(index.mantissa, \"index > 224bits\"),\n            block: safe32(blockNumber, \"blockNumber > 32bits\")\n            });\n        } else if (deltaBlocks > 0 && supplyState.index > 0) {\n            supplyState.block = safe32(blockNumber, \"blockNumber > 32bits\");\n        }\n    }\n\n    /**\n     * @notice Accrue COMP to the market by updating the borrow index\n     * @param cToken The market whose borrow index to update\n     */\n    function updateCompBorrowIndex(address cToken, Exp memory marketBorrowIndex) internal {\n        CompMarketState storage borrowState = compBorrowState[cToken];\n        // use last 128 bit as borrowSpeed\n        uint borrowSpeed = uint128(compSpeeds[cToken]);\n        uint blockNumber = getBlockNumber();\n        uint deltaBlocks = sub_(blockNumber, uint(borrowState.block));\n        if (deltaBlocks > 0 && borrowSpeed > 0) {\n            uint borrowAmount = div_(CToken(cToken).totalBorrows(), marketBorrowIndex);\n            uint compAccrued = mul_(deltaBlocks, borrowSpeed);\n            Double memory ratio = borrowAmount > 0 ? fraction(compAccrued, borrowAmount) : Double({mantissa: 0});\n            Double memory index = add_(Double({mantissa: borrowState.index}), ratio);\n            compBorrowState[cToken] = CompMarketState({\n            index: safe224(index.mantissa, \"index > 224bits\"),\n            block: safe32(blockNumber, \"blockNumber > 32bits\")\n            });\n        } else if (deltaBlocks > 0 && borrowState.index > 0) {\n            borrowState.block = safe32(blockNumber, \"blockNumber > 32bits\");\n        }\n    }\n\n    /**\n * @notice Determine what the account liquidity would be if the given amounts were redeemed/borrowed\n * @param cTokenModify The market to hypothetically redeem/borrow in\n * @param account The account to determine liquidity for\n * @param redeemTokens The number of tokens to hypothetically redeem\n * @param borrowAmount The amount of underlying to hypothetically borrow\n * @dev Note that we calculate the exchangeRateStored for each collateral cToken using stored data,\n *  without calculating accumulated interest.\n * @return (possible error code,\n            hypothetical account liquidity in excess of collateral requirements,\n *          hypothetical account shortfall below collateral requirements)\n */\n    function getHypotheticalAccountLiquidityInternal(\n        address account,\n        CToken cTokenModify,\n        uint redeemTokens,\n        uint borrowAmount) internal view returns (Error, uint, uint) {\n\n        // If credit limit is set to MAX, no need to check account liquidity.\n        if (qsConfig.getCreditLimit(account) == uint(-1)) {\n            return (Error.NO_ERROR, uint(-1), 0);\n        }\n\n        AccountLiquidityLocalVars memory vars; // Holds all our calculation results\n        uint oErr;\n        MathError mErr;\n\n        // For each asset the account is in\n        CToken[] memory assets = accountAssets[account];\n        for (uint i = 0; i < assets.length; i++) {\n            CToken asset = assets[i];\n\n            // Read the balances and exchange rate from the cToken\n            (oErr, vars.cTokenBalance, vars.borrowBalance, vars.exchangeRateMantissa) = asset.getAccountSnapshot(account);\n            if (oErr != 0) { // semi-opaque error code, we assume NO_ERROR == 0 is invariant between upgrades\n                return (Error.SNAPSHOT_ERROR, 0, 0);\n            }\n            vars.collateralFactor = Exp({mantissa: markets[address(asset)].collateralFactorMantissa});\n            vars.borrowFactorMantissa = Exp({mantissa: markets[address(asset)].borrowFactorMantissa});\n            vars.exchangeRate = Exp({mantissa: vars.exchangeRateMantissa});\n\n            // Get the normalized price of the asset\n            vars.oraclePriceMantissa = oracle.getUnderlyingPrice(asset);\n            if (vars.oraclePriceMantissa == 0) {\n                return (Error.PRICE_ERROR, 0, 0);\n            }\n            vars.oraclePrice = Exp({mantissa: vars.oraclePriceMantissa});\n\n            // Pre-compute a conversion factor from tokens -> ether (normalized price value)\n            (mErr, vars.tokensToDenom) = mulExp3(vars.collateralFactor, vars.exchangeRate, vars.oraclePrice);\n            if (mErr != MathError.NO_ERROR) {\n                return (Error.MATH_ERROR, 0, 0);\n            }\n\n            // sumCollateral += tokensToDenom * cTokenBalance\n            (mErr, vars.sumCollateral) = mulScalarTruncateAddUInt(vars.tokensToDenom, vars.cTokenBalance, vars.sumCollateral);\n            if (mErr != MathError.NO_ERROR) {\n                return (Error.MATH_ERROR, 0, 0);\n            }\n\n            // borrowValue = borrowBalance / borrowFactor\n            uint borrowValue = div_(vars.borrowBalance, vars.borrowFactorMantissa);\n            // sumBorrowPlusEffects += oraclePrice * borrowValue\n            (mErr, vars.sumBorrowPlusEffects) = mulScalarTruncateAddUInt(vars.oraclePrice, borrowValue, vars.sumBorrowPlusEffects);\n            if (mErr != MathError.NO_ERROR) {\n                return (Error.MATH_ERROR, 0, 0);\n            }\n\n            // Calculate effects of interacting with cTokenModify\n            if (asset == cTokenModify) {\n                // redeem effect\n                // sumBorrowPlusEffects += tokensToDenom * redeemTokens\n                (mErr, vars.sumBorrowPlusEffects) = mulScalarTruncateAddUInt(vars.tokensToDenom, redeemTokens, vars.sumBorrowPlusEffects);\n                if (mErr != MathError.NO_ERROR) {\n                    return (Error.MATH_ERROR, 0, 0);\n                }\n\n                // borrow effect\n                // borrowValue = borrowAmount / borrowFactor\n                borrowValue = div_(borrowAmount, vars.borrowFactorMantissa);\n                // sumBorrowPlusEffects += oraclePrice * borrowValue\n                (mErr, vars.sumBorrowPlusEffects) = mulScalarTruncateAddUInt(vars.oraclePrice, borrowValue, vars.sumBorrowPlusEffects);\n                if (mErr != MathError.NO_ERROR) {\n                    return (Error.MATH_ERROR, 0, 0);\n                }\n            }\n        }\n\n        // If credit limit is set, no need to consider collateral.\n        if (qsConfig.getCreditLimit(account) > 0) {\n            vars.sumCollateral = qsConfig.getCreditLimit(account);\n        }\n\n        // These are safe, as the underflow condition is checked first\n        if (vars.sumCollateral > vars.sumBorrowPlusEffects) {\n            return (Error.NO_ERROR, vars.sumCollateral - vars.sumBorrowPlusEffects, 0);\n        } else {\n            return (Error.NO_ERROR, 0, vars.sumBorrowPlusEffects - vars.sumCollateral);\n        }\n    }\n\n    /**\n     * @notice Checks if the liquidation should be allowed to occur\n     * @param cTokenBorrowed Asset which was borrowed by the borrower\n     * @param cTokenCollateral Asset which was used as collateral and will be seized\n     * @param liquidator The address repaying the borrow and seizing the collateral\n     * @param borrower The address of the borrower\n     * @param repayAmount The amount of underlying being repaid\n     */\n    function liquidateBorrowAllowed(\n        address cTokenBorrowed,\n        address cTokenCollateral,\n        address liquidator,\n        address borrower,\n        uint repayAmount) public returns (uint) {\n        require(qsConfig.getCreditLimit(borrower) == 0 , \"credit account\");\n\n        return super.liquidateBorrowAllowed(cTokenBorrowed, cTokenCollateral, liquidator, borrower, repayAmount);\n    }\n\n    function seizeAllowed(\n        address cTokenCollateral,\n        address cTokenBorrowed,\n        address liquidator,\n        address borrower,\n        uint seizeTokens) public returns (uint) {\n        require(qsConfig.getCreditLimit(borrower) == 0 , \"credit account\");\n\n        return super.seizeAllowed(cTokenCollateral, cTokenBorrowed, liquidator, borrower, seizeTokens);\n    }\n}",
  "sourcePath": "/Users/ashton/repo/blockchain/eth/smartcontracts/quicksilver-protocol/contracts/Qstroller.sol",
  "compiler": {
    "name": "solc",
    "version": "0.5.16+commit.9c3226ce.Emscripten.clang"
  },
  "schemaVersion": "3.4.1",
  "updatedAt": "2021-08-16T22:55:24.093Z",
  "devdoc": {
    "methods": {
      "_setBorrowFactor(address,uint256)": {
        "details": "Admin function to set the borrow factors.",
        "params": {
          "cToken": "The addresses of the markets (tokens) to change the borrow factors for",
          "newBorrowFactor": "The new borrow factor values in underlying to be set. Must be between (0, 1]"
        }
      },
      "_setCloseFactor(uint256)": {
        "details": "Admin function to set closeFactor",
        "params": {
          "newCloseFactorMantissa": "New close factor, scaled by 1e18"
        },
        "return": "uint 0=success, otherwise a failure. (See ErrorReporter for details)"
      },
      "_setCollateralFactor(address,uint256)": {
        "details": "Admin function to set per-market collateralFactor",
        "params": {
          "cToken": "The market to set the factor on",
          "newCollateralFactorMantissa": "The new collateral factor, scaled by 1e18"
        },
        "return": "uint 0=success, otherwise a failure. (See ErrorReporter for details)"
      },
      "_setCompSpeeds(address[],uint256[])": {
        "details": "Admin function to set new token distribution speed"
      },
      "_setLiquidationIncentive(uint256)": {
        "details": "Admin function to set liquidationIncentive",
        "params": {
          "newLiquidationIncentiveMantissa": "New liquidationIncentive scaled by 1e18"
        },
        "return": "uint 0=success, otherwise a failure. (See ErrorReporter for details)"
      },
      "_setPauseGuardian(address)": {
        "params": {
          "newPauseGuardian": "The address of the new Pause Guardian"
        },
        "return": "uint 0=success, otherwise a failure. (See enum Error for details)"
      },
      "_setPriceOracle(address)": {
        "details": "Admin function to set a new price oracle",
        "return": "uint 0=success, otherwise a failure (see ErrorReporter.sol for details)"
      },
      "_supportMarket(address)": {
        "details": "Admin function to set isListed and add support for the market",
        "params": {
          "cToken": "The address of the market (token) to list"
        },
        "return": "uint 0=success, otherwise a failure. (See enum Error for details)"
      },
      "borrowAllowed(address,address,uint256)": {
        "params": {
          "borrowAmount": "The amount of underlying the account would borrow",
          "borrower": "The account which would borrow the asset",
          "cToken": "The market to verify the borrow against"
        },
        "return": "0 if the borrow is allowed, otherwise a semi-opaque error code (See ErrorReporter.sol)"
      },
      "checkMembership(address,address)": {
        "params": {
          "account": "The address of the account to check",
          "cToken": "The cToken to check"
        },
        "return": "True if the account is in the asset, otherwise false."
      },
      "claimComp(address)": {
        "params": {
          "holder": "The address to claim COMP for"
        }
      },
      "claimComp(address,address[])": {
        "params": {
          "cTokens": "The list of markets to claim COMP in",
          "holder": "The address to claim COMP for"
        }
      },
      "claimComp(address[],address[],bool,bool)": {
        "params": {
          "borrowers": "Whether or not to claim COMP earned by borrowing",
          "cTokens": "The list of markets to claim COMP in",
          "holders": "The addresses to claim COMP for",
          "suppliers": "Whether or not to claim COMP earned by supplying"
        }
      },
      "enterMarkets(address[])": {
        "params": {
          "cTokens": "The list of addresses of the cToken markets to be enabled"
        },
        "return": "Success indicator for whether each corresponding market was entered"
      },
      "exitMarket(address)": {
        "details": "Sender must not have an outstanding borrow balance in the asset, or be providing necessary collateral for an outstanding borrow.",
        "params": {
          "cTokenAddress": "The address of the asset to be removed"
        },
        "return": "Whether or not the account successfully exited the market"
      },
      "getAccountLiquidity(address)": {
        "return": "(possible error code (semi-opaque), account liquidity in excess of collateral requirements,         account shortfall below collateral requirements)"
      },
      "getAllMarkets()": {
        "details": "The automatic getter may be used to access an individual market.",
        "return": "The list of market addresses"
      },
      "getAssetsIn(address)": {
        "params": {
          "account": "The address of the account to pull assets for"
        },
        "return": "A dynamic list with the assets the account has entered"
      },
      "getHypotheticalAccountLiquidity(address,address,uint256,uint256)": {
        "params": {
          "account": "The account to determine liquidity for",
          "borrowAmount": "The amount of underlying to hypothetically borrow",
          "cTokenModify": "The market to hypothetically redeem/borrow in",
          "redeemTokens": "The number of tokens to hypothetically redeem"
        },
        "return": "(possible error code (semi-opaque), hypothetical account liquidity in excess of collateral requirements,         hypothetical account shortfall below collateral requirements)"
      },
      "liquidateBorrowAllowed(address,address,address,address,uint256)": {
        "params": {
          "borrower": "The address of the borrower",
          "cTokenBorrowed": "Asset which was borrowed by the borrower",
          "cTokenCollateral": "Asset which was used as collateral and will be seized",
          "liquidator": "The address repaying the borrow and seizing the collateral",
          "repayAmount": "The amount of underlying being repaid"
        }
      },
      "liquidateCalculateSeizeTokens(address,address,uint256)": {
        "details": "Used in liquidation (called in cToken.liquidateBorrowFresh)",
        "params": {
          "actualRepayAmount": "The amount of cTokenBorrowed underlying to convert into cTokenCollateral tokens",
          "cTokenBorrowed": "The address of the borrowed cToken",
          "cTokenCollateral": "The address of the collateral cToken"
        },
        "return": "(errorCode, number of cTokenCollateral tokens to be seized in a liquidation)"
      },
      "mintAllowed(address,address,uint256)": {
        "params": {
          "cToken": "The market to verify the mint against",
          "mintAmount": "The amount of underlying being supplied to the market in exchange for tokens",
          "minter": "The account which would get the minted tokens"
        },
        "return": "0 if the mint is allowed, otherwise a semi-opaque error code (See ErrorReporter.sol)"
      },
      "redeemAllowed(address,address,uint256)": {
        "params": {
          "cToken": "The market to verify the redeem against",
          "redeemTokens": "The number of cTokens to exchange for the underlying asset in the market",
          "redeemer": "The account which would redeem the tokens"
        },
        "return": "0 if the redeem is allowed, otherwise a semi-opaque error code (See ErrorReporter.sol)"
      },
      "redeemVerify(address,address,uint256,uint256)": {
        "params": {
          "cToken": "Asset being redeemed",
          "redeemAmount": "The amount of the underlying asset being redeemed",
          "redeemTokens": "The number of tokens being redeemed",
          "redeemer": "The address redeeming the tokens"
        }
      },
      "repayBorrowAllowed(address,address,address,uint256)": {
        "params": {
          "borrower": "The account which would borrowed the asset",
          "cToken": "The market to verify the repay against",
          "payer": "The account which would repay the asset",
          "repayAmount": "The amount of the underlying asset the account would repay"
        },
        "return": "0 if the repay is allowed, otherwise a semi-opaque error code (See ErrorReporter.sol)"
      },
      "transferAllowed(address,address,address,uint256)": {
        "params": {
          "cToken": "The market to verify the transfer against",
          "dst": "The account which receives the tokens",
          "src": "The account which sources the tokens",
          "transferTokens": "The number of cTokens to transfer"
        },
        "return": "0 if the transfer is allowed, otherwise a semi-opaque error code (See ErrorReporter.sol)"
      }
    }
  },
  "userdoc": {
    "methods": {
      "_setBorrowFactor(address,uint256)": {
        "notice": "Set the given borrow factors for the given cToken markets."
      },
      "_setCloseFactor(uint256)": {
        "notice": "Sets the closeFactor used when liquidating borrows"
      },
      "_setCollateralFactor(address,uint256)": {
        "notice": "Sets the collateralFactor for a market"
      },
      "_setCompSpeeds(address[],uint256[])": {
        "notice": "Sets new governance token distribution speed"
      },
      "_setLiquidationIncentive(uint256)": {
        "notice": "Sets liquidationIncentive"
      },
      "_setPauseGuardian(address)": {
        "notice": "Admin function to change the Pause Guardian"
      },
      "_setPriceOracle(address)": {
        "notice": "Sets a new price oracle for the comptroller"
      },
      "_supportMarket(address)": {
        "notice": "Add the market to the markets mapping and set it as listed"
      },
      "borrowAllowed(address,address,uint256)": {
        "notice": "Checks if the account should be allowed to borrow the underlying asset of the given market"
      },
      "checkMembership(address,address)": {
        "notice": "Returns whether the given account is entered in the given asset"
      },
      "claimComp(address)": {
        "notice": "Claim all the comp accrued by holder in all markets"
      },
      "claimComp(address,address[])": {
        "notice": "Claim all the comp accrued by holder in the specified markets"
      },
      "claimComp(address[],address[],bool,bool)": {
        "notice": "Claim all comp accrued by the holders"
      },
      "enterMarkets(address[])": {
        "notice": "Add assets to be included in account liquidity calculation"
      },
      "exitMarket(address)": {
        "notice": "Removes asset from sender's account liquidity calculation"
      },
      "getAccountLiquidity(address)": {
        "notice": "Determine the current account liquidity wrt collateral requirements"
      },
      "getAllMarkets()": {
        "notice": "Return all of the markets"
      },
      "getAssetsIn(address)": {
        "notice": "Returns the assets an account has entered"
      },
      "getHypotheticalAccountLiquidity(address,address,uint256,uint256)": {
        "notice": "Determine what the account liquidity would be if the given amounts were redeemed/borrowed"
      },
      "liquidateBorrowAllowed(address,address,address,address,uint256)": {
        "notice": "Checks if the liquidation should be allowed to occur"
      },
      "liquidateCalculateSeizeTokens(address,address,uint256)": {
        "notice": "Calculate number of tokens of collateral asset to seize given an underlying amount"
      },
      "mintAllowed(address,address,uint256)": {
        "notice": "Checks if the account should be allowed to mint tokens in the given market"
      },
      "redeemAllowed(address,address,uint256)": {
        "notice": "Checks if the account should be allowed to redeem tokens in the given market"
      },
      "redeemVerify(address,address,uint256,uint256)": {
        "notice": "Validates redeem and reverts on rejection. May emit logs."
      },
      "repayBorrowAllowed(address,address,address,uint256)": {
        "notice": "Checks if the account should be allowed to repay a borrow in the given market"
      },
      "transferAllowed(address,address,address,uint256)": {
        "notice": "Checks if the account should be allowed to transfer tokens in the given market"
      }
    }
  }
}