{
  "contractName": "Qstroller",
  "abi": [
    {
      "anonymous": false,
      "inputs": [
        {
          "indexed": false,
          "internalType": "string",
          "name": "action",
          "type": "string"
        },
        {
          "indexed": false,
          "internalType": "bool",
          "name": "pauseState",
          "type": "bool"
        }
      ],
      "name": "ActionPaused",
      "type": "event"
    },
    {
      "anonymous": false,
      "inputs": [
        {
          "indexed": false,
          "internalType": "contract CToken",
          "name": "cToken",
          "type": "address"
        },
        {
          "indexed": false,
          "internalType": "string",
          "name": "action",
          "type": "string"
        },
        {
          "indexed": false,
          "internalType": "bool",
          "name": "pauseState",
          "type": "bool"
        }
      ],
      "name": "ActionPaused",
      "type": "event"
    },
    {
      "anonymous": false,
      "inputs": [
        {
          "indexed": true,
          "internalType": "contract CToken",
          "name": "cToken",
          "type": "address"
        },
        {
          "indexed": false,
          "internalType": "uint256",
          "name": "newSpeed",
          "type": "uint256"
        }
      ],
      "name": "CompSpeedUpdated",
      "type": "event"
    },
    {
      "anonymous": false,
      "inputs": [
        {
          "indexed": true,
          "internalType": "contract CToken",
          "name": "cToken",
          "type": "address"
        },
        {
          "indexed": true,
          "internalType": "address",
          "name": "borrower",
          "type": "address"
        },
        {
          "indexed": false,
          "internalType": "uint256",
          "name": "compDelta",
          "type": "uint256"
        },
        {
          "indexed": false,
          "internalType": "uint256",
          "name": "compBorrowIndex",
          "type": "uint256"
        }
      ],
      "name": "DistributedBorrowerComp",
      "type": "event"
    },
    {
      "anonymous": false,
      "inputs": [
        {
          "indexed": true,
          "internalType": "contract CToken",
          "name": "cToken",
          "type": "address"
        },
        {
          "indexed": true,
          "internalType": "address",
          "name": "supplier",
          "type": "address"
        },
        {
          "indexed": false,
          "internalType": "uint256",
          "name": "compDelta",
          "type": "uint256"
        },
        {
          "indexed": false,
          "internalType": "uint256",
          "name": "compSupplyIndex",
          "type": "uint256"
        }
      ],
      "name": "DistributedSupplierComp",
      "type": "event"
    },
    {
      "anonymous": false,
      "inputs": [
        {
          "indexed": false,
          "internalType": "uint256",
          "name": "error",
          "type": "uint256"
        },
        {
          "indexed": false,
          "internalType": "uint256",
          "name": "info",
          "type": "uint256"
        },
        {
          "indexed": false,
          "internalType": "uint256",
          "name": "detail",
          "type": "uint256"
        }
      ],
      "name": "Failure",
      "type": "event"
    },
    {
      "anonymous": false,
      "inputs": [
        {
          "indexed": false,
          "internalType": "contract CToken",
          "name": "cToken",
          "type": "address"
        },
        {
          "indexed": false,
          "internalType": "bool",
          "name": "isComped",
          "type": "bool"
        }
      ],
      "name": "MarketComped",
      "type": "event"
    },
    {
      "anonymous": false,
      "inputs": [
        {
          "indexed": false,
          "internalType": "contract CToken",
          "name": "cToken",
          "type": "address"
        }
      ],
      "name": "MarketDelisted",
      "type": "event"
    },
    {
      "anonymous": false,
      "inputs": [
        {
          "indexed": false,
          "internalType": "contract CToken",
          "name": "cToken",
          "type": "address"
        },
        {
          "indexed": false,
          "internalType": "address",
          "name": "account",
          "type": "address"
        }
      ],
      "name": "MarketEntered",
      "type": "event"
    },
    {
      "anonymous": false,
      "inputs": [
        {
          "indexed": false,
          "internalType": "contract CToken",
          "name": "cToken",
          "type": "address"
        },
        {
          "indexed": false,
          "internalType": "address",
          "name": "account",
          "type": "address"
        }
      ],
      "name": "MarketExited",
      "type": "event"
    },
    {
      "anonymous": false,
      "inputs": [
        {
          "indexed": false,
          "internalType": "contract CToken",
          "name": "cToken",
          "type": "address"
        }
      ],
      "name": "MarketListed",
      "type": "event"
    },
    {
      "anonymous": false,
      "inputs": [
        {
          "indexed": true,
          "internalType": "contract CToken",
          "name": "cToken",
          "type": "address"
        },
        {
          "indexed": false,
          "internalType": "uint256",
          "name": "newBorrowCap",
          "type": "uint256"
        }
      ],
      "name": "NewBorrowCap",
      "type": "event"
    },
    {
      "anonymous": false,
      "inputs": [
        {
          "indexed": true,
          "internalType": "contract CToken",
          "name": "cToken",
          "type": "address"
        },
        {
          "indexed": false,
          "internalType": "uint256",
          "name": "newBorrowFactor",
          "type": "uint256"
        }
      ],
      "name": "NewBorrowFactor",
      "type": "event"
    },
    {
      "anonymous": false,
      "inputs": [
        {
          "indexed": false,
          "internalType": "uint256",
          "name": "oldCloseFactorMantissa",
          "type": "uint256"
        },
        {
          "indexed": false,
          "internalType": "uint256",
          "name": "newCloseFactorMantissa",
          "type": "uint256"
        }
      ],
      "name": "NewCloseFactor",
      "type": "event"
    },
    {
      "anonymous": false,
      "inputs": [
        {
          "indexed": false,
          "internalType": "contract CToken",
          "name": "cToken",
          "type": "address"
        },
        {
          "indexed": false,
          "internalType": "uint256",
          "name": "oldCollateralFactorMantissa",
          "type": "uint256"
        },
        {
          "indexed": false,
          "internalType": "uint256",
          "name": "newCollateralFactorMantissa",
          "type": "uint256"
        }
      ],
      "name": "NewCollateralFactor",
      "type": "event"
    },
    {
      "anonymous": false,
      "inputs": [
        {
          "indexed": false,
          "internalType": "uint256",
          "name": "oldCompRate",
          "type": "uint256"
        },
        {
          "indexed": false,
          "internalType": "uint256",
          "name": "newCompRate",
          "type": "uint256"
        }
      ],
      "name": "NewCompRate",
      "type": "event"
    },
    {
      "anonymous": false,
      "inputs": [
        {
          "indexed": true,
          "internalType": "contract CToken",
          "name": "cToken",
          "type": "address"
        },
        {
          "indexed": false,
          "internalType": "uint256",
          "name": "newFlashLoanCap",
          "type": "uint256"
        }
      ],
      "name": "NewFlashLoanCap",
      "type": "event"
    },
    {
      "anonymous": false,
      "inputs": [
        {
          "indexed": false,
          "internalType": "uint256",
          "name": "oldLiquidationIncentiveMantissa",
          "type": "uint256"
        },
        {
          "indexed": false,
          "internalType": "uint256",
          "name": "newLiquidationIncentiveMantissa",
          "type": "uint256"
        }
      ],
      "name": "NewLiquidationIncentive",
      "type": "event"
    },
    {
      "anonymous": false,
      "inputs": [
        {
          "indexed": false,
          "internalType": "uint256",
          "name": "oldMaxAssets",
          "type": "uint256"
        },
        {
          "indexed": false,
          "internalType": "uint256",
          "name": "newMaxAssets",
          "type": "uint256"
        }
      ],
      "name": "NewMaxAssets",
      "type": "event"
    },
    {
      "anonymous": false,
      "inputs": [
        {
          "indexed": false,
          "internalType": "address",
          "name": "oldPauseGuardian",
          "type": "address"
        },
        {
          "indexed": false,
          "internalType": "address",
          "name": "newPauseGuardian",
          "type": "address"
        }
      ],
      "name": "NewPauseGuardian",
      "type": "event"
    },
    {
      "anonymous": false,
      "inputs": [
        {
          "indexed": false,
          "internalType": "contract PriceOracle",
          "name": "oldPriceOracle",
          "type": "address"
        },
        {
          "indexed": false,
          "internalType": "contract PriceOracle",
          "name": "newPriceOracle",
          "type": "address"
        }
      ],
      "name": "NewPriceOracle",
      "type": "event"
    },
    {
      "anonymous": false,
      "inputs": [
        {
          "indexed": true,
          "internalType": "contract CToken",
          "name": "cToken",
          "type": "address"
        },
        {
          "indexed": false,
          "internalType": "uint256",
          "name": "newSupplyCap",
          "type": "uint256"
        }
      ],
      "name": "NewSupplyCap",
      "type": "event"
    },
    {
      "constant": false,
      "inputs": [
        {
          "internalType": "contract Unitroller",
          "name": "unitroller",
          "type": "address"
        }
      ],
      "name": "_become",
      "outputs": [],
      "payable": false,
      "stateMutability": "nonpayable",
      "type": "function"
    },
    {
      "constant": true,
      "inputs": [],
      "name": "_borrowGuardianPaused",
      "outputs": [
        {
          "internalType": "bool",
          "name": "",
          "type": "bool"
        }
      ],
      "payable": false,
      "stateMutability": "view",
      "type": "function"
    },
    {
      "constant": true,
      "inputs": [],
      "name": "_mintGuardianPaused",
      "outputs": [
        {
          "internalType": "bool",
          "name": "",
          "type": "bool"
        }
      ],
      "payable": false,
      "stateMutability": "view",
      "type": "function"
    },
    {
      "constant": false,
      "inputs": [
        {
          "internalType": "contract CToken[]",
          "name": "cTokens",
          "type": "address[]"
        },
        {
          "internalType": "uint256[]",
          "name": "newBorrowFactors",
          "type": "uint256[]"
        }
      ],
      "name": "_setBorrowFactor",
      "outputs": [],
      "payable": false,
      "stateMutability": "nonpayable",
      "type": "function"
    },
    {
      "constant": false,
      "inputs": [
        {
          "internalType": "contract CToken",
          "name": "cToken",
          "type": "address"
        },
        {
          "internalType": "bool",
          "name": "state",
          "type": "bool"
        }
      ],
      "name": "_setBorrowPaused",
      "outputs": [
        {
          "internalType": "bool",
          "name": "",
          "type": "bool"
        }
      ],
      "payable": false,
      "stateMutability": "nonpayable",
      "type": "function"
    },
    {
      "constant": false,
      "inputs": [
        {
          "internalType": "uint256",
          "name": "newCloseFactorMantissa",
          "type": "uint256"
        }
      ],
      "name": "_setCloseFactor",
      "outputs": [
        {
          "internalType": "uint256",
          "name": "",
          "type": "uint256"
        }
      ],
      "payable": false,
      "stateMutability": "nonpayable",
      "type": "function"
    },
    {
      "constant": false,
      "inputs": [
        {
          "internalType": "contract CToken",
          "name": "cToken",
          "type": "address"
        },
        {
          "internalType": "uint256",
          "name": "newCollateralFactorMantissa",
          "type": "uint256"
        }
      ],
      "name": "_setCollateralFactor",
      "outputs": [
        {
          "internalType": "uint256",
          "name": "",
          "type": "uint256"
        }
      ],
      "payable": false,
      "stateMutability": "nonpayable",
      "type": "function"
    },
    {
      "constant": false,
      "inputs": [
        {
          "internalType": "uint256",
          "name": "newLiquidationIncentiveMantissa",
          "type": "uint256"
        }
      ],
      "name": "_setLiquidationIncentive",
      "outputs": [
        {
          "internalType": "uint256",
          "name": "",
          "type": "uint256"
        }
      ],
      "payable": false,
      "stateMutability": "nonpayable",
      "type": "function"
    },
    {
      "constant": false,
      "inputs": [
        {
          "internalType": "contract CToken[]",
          "name": "cTokens",
          "type": "address[]"
        },
        {
          "internalType": "uint256[]",
          "name": "newBorrowCaps",
          "type": "uint256[]"
        }
      ],
      "name": "_setMarketBorrowCaps",
      "outputs": [],
      "payable": false,
      "stateMutability": "nonpayable",
      "type": "function"
    },
    {
      "constant": false,
      "inputs": [
        {
          "internalType": "contract CToken[]",
          "name": "cTokens",
          "type": "address[]"
        },
        {
          "internalType": "uint256[]",
          "name": "newFlashLoanCaps",
          "type": "uint256[]"
        }
      ],
      "name": "_setMarketFlashLoanCaps",
      "outputs": [],
      "payable": false,
      "stateMutability": "nonpayable",
      "type": "function"
    },
    {
      "constant": false,
      "inputs": [
        {
          "internalType": "contract CToken[]",
          "name": "cTokens",
          "type": "address[]"
        },
        {
          "internalType": "uint256[]",
          "name": "newSupplyCaps",
          "type": "uint256[]"
        }
      ],
      "name": "_setMarketSupplyCaps",
      "outputs": [],
      "payable": false,
      "stateMutability": "nonpayable",
      "type": "function"
    },
    {
      "constant": false,
      "inputs": [
        {
          "internalType": "uint256",
          "name": "newMaxAssets",
          "type": "uint256"
        }
      ],
      "name": "_setMaxAssets",
      "outputs": [
        {
          "internalType": "uint256",
          "name": "",
          "type": "uint256"
        }
      ],
      "payable": false,
      "stateMutability": "nonpayable",
      "type": "function"
    },
    {
      "constant": false,
      "inputs": [
        {
          "internalType": "contract CToken",
          "name": "cToken",
          "type": "address"
        },
        {
          "internalType": "bool",
          "name": "state",
          "type": "bool"
        }
      ],
      "name": "_setMintPaused",
      "outputs": [
        {
          "internalType": "bool",
          "name": "",
          "type": "bool"
        }
      ],
      "payable": false,
      "stateMutability": "nonpayable",
      "type": "function"
    },
    {
      "constant": false,
      "inputs": [
        {
          "internalType": "address",
          "name": "newPauseGuardian",
          "type": "address"
        }
      ],
      "name": "_setPauseGuardian",
      "outputs": [
        {
          "internalType": "uint256",
          "name": "",
          "type": "uint256"
        }
      ],
      "payable": false,
      "stateMutability": "nonpayable",
      "type": "function"
    },
    {
      "constant": false,
      "inputs": [
        {
          "internalType": "contract PriceOracle",
          "name": "newOracle",
          "type": "address"
        }
      ],
      "name": "_setPriceOracle",
      "outputs": [
        {
          "internalType": "uint256",
          "name": "",
          "type": "uint256"
        }
      ],
      "payable": false,
      "stateMutability": "nonpayable",
      "type": "function"
    },
    {
      "constant": false,
      "inputs": [
        {
          "internalType": "bool",
          "name": "state",
          "type": "bool"
        }
      ],
      "name": "_setSeizePaused",
      "outputs": [
        {
          "internalType": "bool",
          "name": "",
          "type": "bool"
        }
      ],
      "payable": false,
      "stateMutability": "nonpayable",
      "type": "function"
    },
    {
      "constant": false,
      "inputs": [
        {
          "internalType": "bool",
          "name": "state",
          "type": "bool"
        }
      ],
      "name": "_setTransferPaused",
      "outputs": [
        {
          "internalType": "bool",
          "name": "",
          "type": "bool"
        }
      ],
      "payable": false,
      "stateMutability": "nonpayable",
      "type": "function"
    },
    {
      "constant": false,
      "inputs": [
        {
          "internalType": "contract CToken",
          "name": "cToken",
          "type": "address"
        }
      ],
      "name": "_supportMarket",
      "outputs": [
        {
          "internalType": "uint256",
          "name": "",
          "type": "uint256"
        }
      ],
      "payable": false,
      "stateMutability": "nonpayable",
      "type": "function"
    },
    {
      "constant": true,
      "inputs": [
        {
          "internalType": "address",
          "name": "",
          "type": "address"
        },
        {
          "internalType": "uint256",
          "name": "",
          "type": "uint256"
        }
      ],
      "name": "accountAssets",
      "outputs": [
        {
          "internalType": "contract CToken",
          "name": "",
          "type": "address"
        }
      ],
      "payable": false,
      "stateMutability": "view",
      "type": "function"
    },
    {
      "constant": true,
      "inputs": [],
      "name": "admin",
      "outputs": [
        {
          "internalType": "address",
          "name": "",
          "type": "address"
        }
      ],
      "payable": false,
      "stateMutability": "view",
      "type": "function"
    },
    {
      "constant": true,
      "inputs": [
        {
          "internalType": "uint256",
          "name": "",
          "type": "uint256"
        }
      ],
      "name": "allMarkets",
      "outputs": [
        {
          "internalType": "contract CToken",
          "name": "",
          "type": "address"
        }
      ],
      "payable": false,
      "stateMutability": "view",
      "type": "function"
    },
    {
      "constant": true,
      "inputs": [
        {
          "internalType": "address",
          "name": "",
          "type": "address"
        }
      ],
      "name": "borrowGuardianPaused",
      "outputs": [
        {
          "internalType": "bool",
          "name": "",
          "type": "bool"
        }
      ],
      "payable": false,
      "stateMutability": "view",
      "type": "function"
    },
    {
      "constant": false,
      "inputs": [
        {
          "internalType": "address",
          "name": "cToken",
          "type": "address"
        },
        {
          "internalType": "address",
          "name": "borrower",
          "type": "address"
        },
        {
          "internalType": "uint256",
          "name": "borrowAmount",
          "type": "uint256"
        }
      ],
      "name": "borrowVerify",
      "outputs": [],
      "payable": false,
      "stateMutability": "nonpayable",
      "type": "function"
    },
    {
      "constant": true,
      "inputs": [
        {
          "internalType": "address",
          "name": "account",
          "type": "address"
        },
        {
          "internalType": "contract CToken",
          "name": "cToken",
          "type": "address"
        }
      ],
      "name": "checkMembership",
      "outputs": [
        {
          "internalType": "bool",
          "name": "",
          "type": "bool"
        }
      ],
      "payable": false,
      "stateMutability": "view",
      "type": "function"
    },
    {
      "constant": false,
      "inputs": [
        {
          "internalType": "address",
          "name": "holder",
          "type": "address"
        },
        {
          "internalType": "contract CToken[]",
          "name": "cTokens",
          "type": "address[]"
        }
      ],
      "name": "claimComp",
      "outputs": [],
      "payable": false,
      "stateMutability": "nonpayable",
      "type": "function"
    },
    {
      "constant": false,
      "inputs": [
        {
          "internalType": "address[]",
          "name": "holders",
          "type": "address[]"
        },
        {
          "internalType": "contract CToken[]",
          "name": "cTokens",
          "type": "address[]"
        },
        {
          "internalType": "bool",
          "name": "borrowers",
          "type": "bool"
        },
        {
          "internalType": "bool",
          "name": "suppliers",
          "type": "bool"
        }
      ],
      "name": "claimComp",
      "outputs": [],
      "payable": false,
      "stateMutability": "nonpayable",
      "type": "function"
    },
    {
      "constant": false,
      "inputs": [
        {
          "internalType": "address",
          "name": "holder",
          "type": "address"
        }
      ],
      "name": "claimComp",
      "outputs": [],
      "payable": false,
      "stateMutability": "nonpayable",
      "type": "function"
    },
    {
      "constant": true,
      "inputs": [],
      "name": "closeFactorMantissa",
      "outputs": [
        {
          "internalType": "uint256",
          "name": "",
          "type": "uint256"
        }
      ],
      "payable": false,
      "stateMutability": "view",
      "type": "function"
    },
    {
      "constant": true,
      "inputs": [
        {
          "internalType": "address",
          "name": "",
          "type": "address"
        }
      ],
      "name": "compAccrued",
      "outputs": [
        {
          "internalType": "uint256",
          "name": "",
          "type": "uint256"
        }
      ],
      "payable": false,
      "stateMutability": "view",
      "type": "function"
    },
    {
      "constant": true,
      "inputs": [
        {
          "internalType": "address",
          "name": "",
          "type": "address"
        }
      ],
      "name": "compBorrowState",
      "outputs": [
        {
          "internalType": "uint224",
          "name": "index",
          "type": "uint224"
        },
        {
          "internalType": "uint32",
          "name": "block",
          "type": "uint32"
        }
      ],
      "payable": false,
      "stateMutability": "view",
      "type": "function"
    },
    {
      "constant": true,
      "inputs": [
        {
          "internalType": "address",
          "name": "",
          "type": "address"
        },
        {
          "internalType": "address",
          "name": "",
          "type": "address"
        }
      ],
      "name": "compBorrowerIndex",
      "outputs": [
        {
          "internalType": "uint256",
          "name": "",
          "type": "uint256"
        }
      ],
      "payable": false,
      "stateMutability": "view",
      "type": "function"
    },
    {
      "constant": true,
      "inputs": [],
      "name": "compClaimThreshold",
      "outputs": [
        {
          "internalType": "uint256",
          "name": "",
          "type": "uint256"
        }
      ],
      "payable": false,
      "stateMutability": "view",
      "type": "function"
    },
    {
      "constant": true,
      "inputs": [],
      "name": "compInitialIndex",
      "outputs": [
        {
          "internalType": "uint224",
          "name": "",
          "type": "uint224"
        }
      ],
      "payable": false,
      "stateMutability": "view",
      "type": "function"
    },
    {
      "constant": true,
      "inputs": [],
      "name": "compRate",
      "outputs": [
        {
          "internalType": "uint256",
          "name": "",
          "type": "uint256"
        }
      ],
      "payable": false,
      "stateMutability": "view",
      "type": "function"
    },
    {
      "constant": true,
      "inputs": [
        {
          "internalType": "address",
          "name": "",
          "type": "address"
        }
      ],
      "name": "compSpeeds",
      "outputs": [
        {
          "internalType": "uint256",
          "name": "",
          "type": "uint256"
        }
      ],
      "payable": false,
      "stateMutability": "view",
      "type": "function"
    },
    {
      "constant": true,
      "inputs": [
        {
          "internalType": "address",
          "name": "",
          "type": "address"
        },
        {
          "internalType": "address",
          "name": "",
          "type": "address"
        }
      ],
      "name": "compSupplierIndex",
      "outputs": [
        {
          "internalType": "uint256",
          "name": "",
          "type": "uint256"
        }
      ],
      "payable": false,
      "stateMutability": "view",
      "type": "function"
    },
    {
      "constant": true,
      "inputs": [
        {
          "internalType": "address",
          "name": "",
          "type": "address"
        }
      ],
      "name": "compSupplyState",
      "outputs": [
        {
          "internalType": "uint224",
          "name": "index",
          "type": "uint224"
        },
        {
          "internalType": "uint32",
          "name": "block",
          "type": "uint32"
        }
      ],
      "payable": false,
      "stateMutability": "view",
      "type": "function"
    },
    {
      "constant": true,
      "inputs": [],
      "name": "comptrollerImplementation",
      "outputs": [
        {
          "internalType": "address",
          "name": "",
          "type": "address"
        }
      ],
      "payable": false,
      "stateMutability": "view",
      "type": "function"
    },
    {
      "constant": false,
      "inputs": [
        {
          "internalType": "address[]",
          "name": "cTokens",
          "type": "address[]"
        }
      ],
      "name": "enterMarkets",
      "outputs": [
        {
          "internalType": "uint256[]",
          "name": "",
          "type": "uint256[]"
        }
      ],
      "payable": false,
      "stateMutability": "nonpayable",
      "type": "function"
    },
    {
      "constant": false,
      "inputs": [
        {
          "internalType": "address",
          "name": "cTokenAddress",
          "type": "address"
        }
      ],
      "name": "exitMarket",
      "outputs": [
        {
          "internalType": "uint256",
          "name": "",
          "type": "uint256"
        }
      ],
      "payable": false,
      "stateMutability": "nonpayable",
      "type": "function"
    },
    {
      "constant": true,
      "inputs": [
        {
          "internalType": "address",
          "name": "account",
          "type": "address"
        }
      ],
      "name": "getAccountLiquidity",
      "outputs": [
        {
          "internalType": "uint256",
          "name": "",
          "type": "uint256"
        },
        {
          "internalType": "uint256",
          "name": "",
          "type": "uint256"
        },
        {
          "internalType": "uint256",
          "name": "",
          "type": "uint256"
        }
      ],
      "payable": false,
      "stateMutability": "view",
      "type": "function"
    },
    {
      "constant": true,
      "inputs": [],
      "name": "getAllMarkets",
      "outputs": [
        {
          "internalType": "contract CToken[]",
          "name": "",
          "type": "address[]"
        }
      ],
      "payable": false,
      "stateMutability": "view",
      "type": "function"
    },
    {
      "constant": true,
      "inputs": [
        {
          "internalType": "address",
          "name": "account",
          "type": "address"
        }
      ],
      "name": "getAssetsIn",
      "outputs": [
        {
          "internalType": "contract CToken[]",
          "name": "",
          "type": "address[]"
        }
      ],
      "payable": false,
      "stateMutability": "view",
      "type": "function"
    },
    {
      "constant": true,
      "inputs": [],
      "name": "getBlockNumber",
      "outputs": [
        {
          "internalType": "uint256",
          "name": "",
          "type": "uint256"
        }
      ],
      "payable": false,
      "stateMutability": "view",
      "type": "function"
    },
    {
      "constant": true,
      "inputs": [
        {
          "internalType": "address",
          "name": "account",
          "type": "address"
        },
        {
          "internalType": "address",
          "name": "cTokenModify",
          "type": "address"
        },
        {
          "internalType": "uint256",
          "name": "redeemTokens",
          "type": "uint256"
        },
        {
          "internalType": "uint256",
          "name": "borrowAmount",
          "type": "uint256"
        }
      ],
      "name": "getHypotheticalAccountLiquidity",
      "outputs": [
        {
          "internalType": "uint256",
          "name": "",
          "type": "uint256"
        },
        {
          "internalType": "uint256",
          "name": "",
          "type": "uint256"
        },
        {
          "internalType": "uint256",
          "name": "",
          "type": "uint256"
        }
      ],
      "payable": false,
      "stateMutability": "view",
      "type": "function"
    },
    {
      "constant": true,
      "inputs": [],
      "name": "isComptroller",
      "outputs": [
        {
          "internalType": "bool",
          "name": "",
          "type": "bool"
        }
      ],
      "payable": false,
      "stateMutability": "view",
      "type": "function"
    },
    {
      "constant": false,
      "inputs": [
        {
          "internalType": "address",
          "name": "cTokenBorrowed",
          "type": "address"
        },
        {
          "internalType": "address",
          "name": "cTokenCollateral",
          "type": "address"
        },
        {
          "internalType": "address",
          "name": "liquidator",
          "type": "address"
        },
        {
          "internalType": "address",
          "name": "borrower",
          "type": "address"
        },
        {
          "internalType": "uint256",
          "name": "actualRepayAmount",
          "type": "uint256"
        },
        {
          "internalType": "uint256",
          "name": "seizeTokens",
          "type": "uint256"
        }
      ],
      "name": "liquidateBorrowVerify",
      "outputs": [],
      "payable": false,
      "stateMutability": "nonpayable",
      "type": "function"
    },
    {
      "constant": true,
      "inputs": [
        {
          "internalType": "address",
          "name": "cTokenBorrowed",
          "type": "address"
        },
        {
          "internalType": "address",
          "name": "cTokenCollateral",
          "type": "address"
        },
        {
          "internalType": "uint256",
          "name": "actualRepayAmount",
          "type": "uint256"
        }
      ],
      "name": "liquidateCalculateSeizeTokens",
      "outputs": [
        {
          "internalType": "uint256",
          "name": "",
          "type": "uint256"
        },
        {
          "internalType": "uint256",
          "name": "",
          "type": "uint256"
        }
      ],
      "payable": false,
      "stateMutability": "view",
      "type": "function"
    },
    {
      "constant": true,
      "inputs": [],
      "name": "liquidationIncentiveMantissa",
      "outputs": [
        {
          "internalType": "uint256",
          "name": "",
          "type": "uint256"
        }
      ],
      "payable": false,
      "stateMutability": "view",
      "type": "function"
    },
    {
      "constant": true,
      "inputs": [
        {
          "internalType": "address",
          "name": "",
          "type": "address"
        }
      ],
      "name": "markets",
      "outputs": [
        {
          "internalType": "bool",
          "name": "isListed",
          "type": "bool"
        },
        {
          "internalType": "uint256",
          "name": "collateralFactorMantissa",
          "type": "uint256"
        },
        {
          "internalType": "bool",
          "name": "isComped",
          "type": "bool"
        },
        {
          "internalType": "uint256",
          "name": "borrowFactorMantissa",
          "type": "uint256"
        },
        {
          "internalType": "uint256",
          "name": "borrowCap",
          "type": "uint256"
        },
        {
          "internalType": "uint256",
          "name": "supplyCap",
          "type": "uint256"
        },
        {
          "internalType": "uint256",
          "name": "flashLoanCap",
          "type": "uint256"
        }
      ],
      "payable": false,
      "stateMutability": "view",
      "type": "function"
    },
    {
      "constant": true,
      "inputs": [],
      "name": "maxAssets",
      "outputs": [
        {
          "internalType": "uint256",
          "name": "",
          "type": "uint256"
        }
      ],
      "payable": false,
      "stateMutability": "view",
      "type": "function"
    },
    {
      "constant": true,
      "inputs": [
        {
          "internalType": "address",
          "name": "",
          "type": "address"
        }
      ],
      "name": "mintGuardianPaused",
      "outputs": [
        {
          "internalType": "bool",
          "name": "",
          "type": "bool"
        }
      ],
      "payable": false,
      "stateMutability": "view",
      "type": "function"
    },
    {
      "constant": false,
      "inputs": [
        {
          "internalType": "address",
          "name": "cToken",
          "type": "address"
        },
        {
          "internalType": "address",
          "name": "minter",
          "type": "address"
        },
        {
          "internalType": "uint256",
          "name": "actualMintAmount",
          "type": "uint256"
        },
        {
          "internalType": "uint256",
          "name": "mintTokens",
          "type": "uint256"
        }
      ],
      "name": "mintVerify",
      "outputs": [],
      "payable": false,
      "stateMutability": "nonpayable",
      "type": "function"
    },
    {
      "constant": true,
      "inputs": [],
      "name": "oracle",
      "outputs": [
        {
          "internalType": "contract PriceOracle",
          "name": "",
          "type": "address"
        }
      ],
      "payable": false,
      "stateMutability": "view",
      "type": "function"
    },
    {
      "constant": true,
      "inputs": [],
      "name": "pauseGuardian",
      "outputs": [
        {
          "internalType": "address",
          "name": "",
          "type": "address"
        }
      ],
      "payable": false,
      "stateMutability": "view",
      "type": "function"
    },
    {
      "constant": true,
      "inputs": [],
      "name": "pendingAdmin",
      "outputs": [
        {
          "internalType": "address",
          "name": "",
          "type": "address"
        }
      ],
      "payable": false,
      "stateMutability": "view",
      "type": "function"
    },
    {
      "constant": true,
      "inputs": [],
      "name": "pendingComptrollerImplementation",
      "outputs": [
        {
          "internalType": "address",
          "name": "",
          "type": "address"
        }
      ],
      "payable": false,
      "stateMutability": "view",
      "type": "function"
    },
    {
      "constant": true,
      "inputs": [],
      "name": "qsConfig",
      "outputs": [
        {
          "internalType": "contract QsConfig",
          "name": "",
          "type": "address"
        }
      ],
      "payable": false,
      "stateMutability": "view",
      "type": "function"
    },
    {
      "constant": false,
      "inputs": [
        {
          "internalType": "address",
          "name": "cToken",
          "type": "address"
        },
        {
          "internalType": "address",
          "name": "redeemer",
          "type": "address"
        },
        {
          "internalType": "uint256",
          "name": "redeemTokens",
          "type": "uint256"
        }
      ],
      "name": "redeemAllowed",
      "outputs": [
        {
          "internalType": "uint256",
          "name": "",
          "type": "uint256"
        }
      ],
      "payable": false,
      "stateMutability": "nonpayable",
      "type": "function"
    },
    {
      "constant": false,
      "inputs": [
        {
          "internalType": "address",
          "name": "cToken",
          "type": "address"
        },
        {
          "internalType": "address",
          "name": "redeemer",
          "type": "address"
        },
        {
          "internalType": "uint256",
          "name": "redeemAmount",
          "type": "uint256"
        },
        {
          "internalType": "uint256",
          "name": "redeemTokens",
          "type": "uint256"
        }
      ],
      "name": "redeemVerify",
      "outputs": [],
      "payable": false,
      "stateMutability": "nonpayable",
      "type": "function"
    },
    {
      "constant": false,
      "inputs": [
        {
          "internalType": "address",
          "name": "cToken",
          "type": "address"
        },
        {
          "internalType": "address",
          "name": "payer",
          "type": "address"
        },
        {
          "internalType": "address",
          "name": "borrower",
          "type": "address"
        },
        {
          "internalType": "uint256",
          "name": "repayAmount",
          "type": "uint256"
        }
      ],
      "name": "repayBorrowAllowed",
      "outputs": [
        {
          "internalType": "uint256",
          "name": "",
          "type": "uint256"
        }
      ],
      "payable": false,
      "stateMutability": "nonpayable",
      "type": "function"
    },
    {
      "constant": false,
      "inputs": [
        {
          "internalType": "address",
          "name": "cToken",
          "type": "address"
        },
        {
          "internalType": "address",
          "name": "payer",
          "type": "address"
        },
        {
          "internalType": "address",
          "name": "borrower",
          "type": "address"
        },
        {
          "internalType": "uint256",
          "name": "actualRepayAmount",
          "type": "uint256"
        },
        {
          "internalType": "uint256",
          "name": "borrowerIndex",
          "type": "uint256"
        }
      ],
      "name": "repayBorrowVerify",
      "outputs": [],
      "payable": false,
      "stateMutability": "nonpayable",
      "type": "function"
    },
    {
      "constant": true,
      "inputs": [],
      "name": "seizeGuardianPaused",
      "outputs": [
        {
          "internalType": "bool",
          "name": "",
          "type": "bool"
        }
      ],
      "payable": false,
      "stateMutability": "view",
      "type": "function"
    },
    {
      "constant": false,
      "inputs": [
        {
          "internalType": "address",
          "name": "cTokenCollateral",
          "type": "address"
        },
        {
          "internalType": "address",
          "name": "cTokenBorrowed",
          "type": "address"
        },
        {
          "internalType": "address",
          "name": "liquidator",
          "type": "address"
        },
        {
          "internalType": "address",
          "name": "borrower",
          "type": "address"
        },
        {
          "internalType": "uint256",
          "name": "seizeTokens",
          "type": "uint256"
        }
      ],
      "name": "seizeVerify",
      "outputs": [],
      "payable": false,
      "stateMutability": "nonpayable",
      "type": "function"
    },
    {
      "constant": false,
      "inputs": [
        {
          "internalType": "address",
          "name": "cToken",
          "type": "address"
        },
        {
          "internalType": "address",
          "name": "src",
          "type": "address"
        },
        {
          "internalType": "address",
          "name": "dst",
          "type": "address"
        },
        {
          "internalType": "uint256",
          "name": "transferTokens",
          "type": "uint256"
        }
      ],
      "name": "transferAllowed",
      "outputs": [
        {
          "internalType": "uint256",
          "name": "",
          "type": "uint256"
        }
      ],
      "payable": false,
      "stateMutability": "nonpayable",
      "type": "function"
    },
    {
      "constant": true,
      "inputs": [],
      "name": "transferGuardianPaused",
      "outputs": [
        {
          "internalType": "bool",
          "name": "",
          "type": "bool"
        }
      ],
      "payable": false,
      "stateMutability": "view",
      "type": "function"
    },
    {
      "constant": false,
      "inputs": [
        {
          "internalType": "address",
          "name": "cToken",
          "type": "address"
        },
        {
          "internalType": "address",
          "name": "src",
          "type": "address"
        },
        {
          "internalType": "address",
          "name": "dst",
          "type": "address"
        },
        {
          "internalType": "uint256",
          "name": "transferTokens",
          "type": "uint256"
        }
      ],
      "name": "transferVerify",
      "outputs": [],
      "payable": false,
      "stateMutability": "nonpayable",
      "type": "function"
    },
    {
      "constant": false,
      "inputs": [
        {
          "internalType": "contract CToken",
          "name": "cToken",
          "type": "address"
        }
      ],
      "name": "_delistMarket",
      "outputs": [],
      "payable": false,
      "stateMutability": "nonpayable",
      "type": "function"
    },
    {
      "constant": false,
      "inputs": [
        {
          "internalType": "contract QsConfig",
          "name": "_qsConfig",
          "type": "address"
        }
      ],
      "name": "_setQsConfig",
      "outputs": [],
      "payable": false,
      "stateMutability": "nonpayable",
      "type": "function"
    },
    {
      "constant": false,
      "inputs": [
        {
          "internalType": "address[]",
          "name": "_allMarkets",
          "type": "address[]"
        },
        {
          "internalType": "uint256[]",
          "name": "_compSpeeds",
          "type": "uint256[]"
        }
      ],
      "name": "_setCompSpeeds",
      "outputs": [],
      "payable": false,
      "stateMutability": "nonpayable",
      "type": "function"
    },
    {
      "constant": true,
      "inputs": [],
      "name": "getCompAddress",
      "outputs": [
        {
          "internalType": "address",
          "name": "",
          "type": "address"
        }
      ],
      "payable": false,
      "stateMutability": "view",
      "type": "function"
    },
    {
      "constant": true,
      "inputs": [
        {
          "internalType": "uint256",
          "name": "_seizeTokenAmount",
          "type": "uint256"
        }
      ],
      "name": "calculateSeizeTokenAllocation",
      "outputs": [
        {
          "internalType": "uint256",
          "name": "liquidatorAmount",
          "type": "uint256"
        },
        {
          "internalType": "uint256",
          "name": "safetyVaultAmount",
          "type": "uint256"
        }
      ],
      "payable": false,
      "stateMutability": "view",
      "type": "function"
    },
    {
      "constant": false,
      "inputs": [
        {
          "internalType": "address",
          "name": "cToken",
          "type": "address"
        },
        {
          "internalType": "address",
          "name": "borrower",
          "type": "address"
        },
        {
          "internalType": "uint256",
          "name": "borrowAmount",
          "type": "uint256"
        }
      ],
      "name": "borrowAllowed",
      "outputs": [
        {
          "internalType": "uint256",
          "name": "",
          "type": "uint256"
        }
      ],
      "payable": false,
      "stateMutability": "nonpayable",
      "type": "function"
    },
    {
      "constant": true,
      "inputs": [
        {
          "internalType": "address",
          "name": "cToken",
          "type": "address"
        },
        {
          "internalType": "address",
          "name": "to",
          "type": "address"
        },
        {
          "internalType": "uint256",
          "name": "flashLoanAmount",
          "type": "uint256"
        }
      ],
      "name": "flashLoanAllowed",
      "outputs": [
        {
          "internalType": "uint256",
          "name": "",
          "type": "uint256"
        }
      ],
      "payable": false,
      "stateMutability": "view",
      "type": "function"
    },
    {
      "constant": true,
      "inputs": [
        {
          "internalType": "address",
          "name": "cToken",
          "type": "address"
        }
      ],
      "name": "getFlashLoanCap",
      "outputs": [
        {
          "internalType": "uint256",
          "name": "",
          "type": "uint256"
        }
      ],
      "payable": false,
      "stateMutability": "view",
      "type": "function"
    },
    {
      "constant": false,
      "inputs": [
        {
          "internalType": "address",
          "name": "cToken",
          "type": "address"
        },
        {
          "internalType": "address",
          "name": "minter",
          "type": "address"
        },
        {
          "internalType": "uint256",
          "name": "mintAmount",
          "type": "uint256"
        }
      ],
      "name": "mintAllowed",
      "outputs": [
        {
          "internalType": "uint256",
          "name": "",
          "type": "uint256"
        }
      ],
      "payable": false,
      "stateMutability": "nonpayable",
      "type": "function"
    },
    {
      "constant": false,
      "inputs": [
        {
          "internalType": "address",
          "name": "cTokenBorrowed",
          "type": "address"
        },
        {
          "internalType": "address",
          "name": "cTokenCollateral",
          "type": "address"
        },
        {
          "internalType": "address",
          "name": "liquidator",
          "type": "address"
        },
        {
          "internalType": "address",
          "name": "borrower",
          "type": "address"
        },
        {
          "internalType": "uint256",
          "name": "repayAmount",
          "type": "uint256"
        }
      ],
      "name": "liquidateBorrowAllowed",
      "outputs": [
        {
          "internalType": "uint256",
          "name": "",
          "type": "uint256"
        }
      ],
      "payable": false,
      "stateMutability": "nonpayable",
      "type": "function"
    },
    {
      "constant": false,
      "inputs": [
        {
          "internalType": "address",
          "name": "cTokenCollateral",
          "type": "address"
        },
        {
          "internalType": "address",
          "name": "cTokenBorrowed",
          "type": "address"
        },
        {
          "internalType": "address",
          "name": "liquidator",
          "type": "address"
        },
        {
          "internalType": "address",
          "name": "borrower",
          "type": "address"
        },
        {
          "internalType": "uint256",
          "name": "seizeTokens",
          "type": "uint256"
        }
      ],
      "name": "seizeAllowed",
      "outputs": [
        {
          "internalType": "uint256",
          "name": "",
          "type": "uint256"
        }
      ],
      "payable": false,
      "stateMutability": "nonpayable",
      "type": "function"
    }
  ],
  "bytecode": "0x6080604052600080546001600160a01b03191633179055616fe2806100256000396000f3fe608060405234801561001057600080fd5b50600436106103a95760003560e01c8063747026c9116101ec578063bb82aa5e11610116578063bb82aa5e146111af578063bdcdc258146111b7578063c2998238146111f3578063c488847b14611294578063ca0af043146112ca578063cc7ebdc4146112f8578063d02f73511461131e578063d9226ced14611364578063da3d454c14611381578063dce15449146113b7578063dcfbc0c7146113e3578063e0fbf09d146113eb578063e4028eee14611411578063e6653f3d1461143d578063e875544614611445578063e9af02921461144d578063eabe7d9114611473578063ede4edd0146114a9578063f3497600146114cf578063f851a440146114f5576103a9565b8063747026c914610e2f5780637dc0d1d014610e375780637e60c7a014610e3f5780638730657714610f6257806387f7630314610f985780638c57804e14610fa05780638e8f294b14610fc65780638ebf636414611026578063929fe9a11461104557806393168a5b1461107357806394b2294b146110995780639d1b5a0a146110a1578063a76b3fda146110a9578063a7f0e231146110cf578063aa900754146110f3578063abfceffc146110fb578063ac0b0bb714611171578063b0772d0b14611179578063b21be7fd14611181576103a9565b80634e79238f116102d85780634e79238f146107b15780634ef4c3e11461080b5780634fd42e171461084157806351a485e41461085e57806351dff9891461091c57806352d84d1e1461095857806355ee1fe1146109755780635c7786051461099b5780635ec88c79146109d15780635f5af1aa146109f75780635fc7e71e14610a1d578063607ef6c114610a635780636810dfa614610b215780636995d7d014610c4d5780636a56947e14610c555780636b79c38d14610c915780636d154ea514610cdf5780636d35bf9114610d05578063725ae1c614610d4b578063731f0c2b14610e09576103a9565b80627e3dd2146103ae5780630ab0d694146103ca57806318c882a51461048a5780631c3db2e0146104b85780631d504dc6146105695780631d7b33d71461058f5780631ededc91146105c757806324008a621461060957806324a3d6221461064557806326782247146106695780632af2914b146106715780632d70db78146106a7578063317b0b77146106c65780633bcf7ec1146106e35780633c94786f1461071157806341c728b91461071957806342cbb15c1461075557806347ef3b3b1461075d5780634ada90af146107a9575b600080fd5b6103b66114fd565b604080519115158252519081900360200190f35b610488600480360360408110156103e057600080fd5b810190602081018135600160201b8111156103fa57600080fd5b82018360208201111561040c57600080fd5b803590602001918460208302840111600160201b8311171561042d57600080fd5b919390929091602081019035600160201b81111561044a57600080fd5b82018360208201111561045c57600080fd5b803590602001918460208302840111600160201b8311171561047d57600080fd5b509092509050611502565b005b6103b6600480360360408110156104a057600080fd5b506001600160a01b0381351690602001351515611696565b610488600480360360408110156104ce57600080fd5b6001600160a01b038235169190810190604081016020820135600160201b8111156104f857600080fd5b82018360208201111561050a57600080fd5b803590602001918460208302840111600160201b8311171561052b57600080fd5b91908080602002602001604051908101604052809392919081815260200183836020028082843760009201919091525092955061182b945050505050565b6104886004803603602081101561057f57600080fd5b50356001600160a01b031661188d565b6105b5600480360360208110156105a557600080fd5b50356001600160a01b03166119ec565b60408051918252519081900360200190f35b610488600480360360a08110156105dd57600080fd5b506001600160a01b038135811691602081013582169160408201351690606081013590608001356119fe565b6105b56004803603608081101561061f57600080fd5b506001600160a01b03813581169160208101358216916040820135169060600135611a05565b61064d611ace565b604080516001600160a01b039092168252519081900360200190f35b61064d611add565b6105b56004803603606081101561068757600080fd5b506001600160a01b03813581169160208101359091169060400135611aec565b6103b6600480360360208110156106bd57600080fd5b50351515611bf4565b6105b5600480360360208110156106dc57600080fd5b5035611d23565b6103b6600480360360408110156106f957600080fd5b506001600160a01b0381351690602001351515611e34565b6103b6611fc4565b6104886004803603608081101561072f57600080fd5b506001600160a01b03813581169160208101359091169060408101359060600135611fd4565b6105b5611fda565b610488600480360360c081101561077357600080fd5b506001600160a01b0381358116916020810135821691604082013581169160608101359091169060808101359060a00135611fdf565b6105b5611fe7565b6107ed600480360360808110156107c757600080fd5b506001600160a01b03813581169160208101359091169060408101359060600135611fed565b60408051938452602084019290925282820152519081900360600190f35b6105b56004803603606081101561082157600080fd5b506001600160a01b03813581169160208101359091169060400135612027565b6105b56004803603602081101561085757600080fd5b5035612430565b6104886004803603604081101561087457600080fd5b810190602081018135600160201b81111561088e57600080fd5b8201836020820111156108a057600080fd5b803590602001918460208302840111600160201b831117156108c157600080fd5b919390929091602081019035600160201b8111156108de57600080fd5b8201836020820111156108f057600080fd5b803590602001918460208302840111600160201b8311171561091157600080fd5b509092509050612524565b6104886004803603608081101561093257600080fd5b506001600160a01b038135811691602081013590911690604081013590606001356126af565b61064d6004803603602081101561096e57600080fd5b5035612703565b6105b56004803603602081101561098b57600080fd5b50356001600160a01b031661272a565b610488600480360360608110156109b157600080fd5b506001600160a01b038135811691602081013590911690604001356127b1565b6107ed600480360360208110156109e757600080fd5b50356001600160a01b03166127b6565b6105b560048036036020811015610a0d57600080fd5b50356001600160a01b03166127eb565b6105b5600480360360a0811015610a3357600080fd5b506001600160a01b038135811691602081013582169160408201358116916060810135909116906080013561286f565b61048860048036036040811015610a7957600080fd5b810190602081018135600160201b811115610a9357600080fd5b820183602082011115610aa557600080fd5b803590602001918460208302840111600160201b83111715610ac657600080fd5b919390929091602081019035600160201b811115610ae357600080fd5b820183602082011115610af557600080fd5b803590602001918460208302840111600160201b83111715610b1657600080fd5b509092509050612957565b61048860048036036080811015610b3757600080fd5b810190602081018135600160201b811115610b5157600080fd5b820183602082011115610b6357600080fd5b803590602001918460208302840111600160201b83111715610b8457600080fd5b9190808060200260200160405190810160405280939291908181526020018383602002808284376000920191909152509295949360208101935035915050600160201b811115610bd357600080fd5b820183602082011115610be557600080fd5b803590602001918460208302840111600160201b83111715610c0657600080fd5b919080806020026020016040519081016040528093929190818152602001838360200280828437600092019190915250929550505050803515159150602001351515612ae2565b61064d612c8b565b61048860048036036080811015610c6b57600080fd5b506001600160a01b03813581169160208101358216916040820135169060600135611fd4565b610cb760048036036020811015610ca757600080fd5b50356001600160a01b0316612c9a565b604080516001600160e01b03909316835263ffffffff90911660208301528051918290030190f35b6103b660048036036020811015610cf557600080fd5b50356001600160a01b0316612cc4565b610488600480360360a0811015610d1b57600080fd5b506001600160a01b03813581169160208101358216916040820135811691606081013590911690608001356119fe565b61048860048036036040811015610d6157600080fd5b810190602081018135600160201b811115610d7b57600080fd5b820183602082011115610d8d57600080fd5b803590602001918460208302840111600160201b83111715610dae57600080fd5b919390929091602081019035600160201b811115610dcb57600080fd5b820183602082011115610ddd57600080fd5b803590602001918460208302840111600160201b83111715610dfe57600080fd5b509092509050612cd9565b6103b660048036036020811015610e1f57600080fd5b50356001600160a01b0316612ed3565b6105b5612ee8565b61064d612ef3565b61048860048036036040811015610e5557600080fd5b810190602081018135600160201b811115610e6f57600080fd5b820183602082011115610e8157600080fd5b803590602001918460208302840111600160201b83111715610ea257600080fd5b9190808060200260200160405190810160405280939291908181526020018383602002808284376000920191909152509295949360208101935035915050600160201b811115610ef157600080fd5b820183602082011115610f0357600080fd5b803590602001918460208302840111600160201b83111715610f2457600080fd5b919080806020026020016040519081016040528093929190818152602001838360200280828437600092019190915250929550612f02945050505050565b610f7f60048036036020811015610f7857600080fd5b503561302d565b6040805192835260208301919091528051918290030190f35b6103b66130c0565b610cb760048036036020811015610fb657600080fd5b50356001600160a01b03166130d0565b610fec60048036036020811015610fdc57600080fd5b50356001600160a01b03166130fa565b6040805197151588526020880196909652931515868601526060860192909252608085015260a084015260c0830152519081900360e00190f35b6103b66004803603602081101561103c57600080fd5b5035151561313d565b6103b66004803603604081101561105b57600080fd5b506001600160a01b038135811691602001351661326b565b6104886004803603602081101561108957600080fd5b50356001600160a01b031661329e565b6105b56132d7565b61064d6132dd565b6105b5600480360360208110156110bf57600080fd5b50356001600160a01b0316613353565b6110d76134f0565b604080516001600160e01b039092168252519081900360200190f35b6105b5613502565b6111216004803603602081101561111157600080fd5b50356001600160a01b0316613508565b60408051602080825283518183015283519192839290830191858101910280838360005b8381101561115d578181015183820152602001611145565b505050509050019250505060405180910390f35b6103b6613591565b6111216135a1565b6105b56004803603604081101561119757600080fd5b506001600160a01b0381358116916020013516613603565b61064d613620565b6105b5600480360360808110156111cd57600080fd5b506001600160a01b0381358116916020810135821691604082013516906060013561362f565b6111216004803603602081101561120957600080fd5b810190602081018135600160201b81111561122357600080fd5b82018360208201111561123557600080fd5b803590602001918460208302840111600160201b8311171561125657600080fd5b9190808060200260200160405190810160405280939291908181526020018383602002808284376000920191909152509295506136c3945050505050565b610f7f600480360360608110156112aa57600080fd5b506001600160a01b0381358116916020810135909116906040013561375a565b6105b5600480360360408110156112e057600080fd5b506001600160a01b03813581169160200135166139cf565b6105b56004803603602081101561130e57600080fd5b50356001600160a01b03166139ec565b6105b5600480360360a081101561133457600080fd5b506001600160a01b03813581169160208101358216916040820135811691606081013590911690608001356139fe565b6105b56004803603602081101561137a57600080fd5b5035613ada565b6105b56004803603606081101561139757600080fd5b506001600160a01b03813581169160208101359091169060400135613b43565b61064d600480360360408110156113cd57600080fd5b506001600160a01b03813516906020013561406c565b61064d6140a1565b6105b56004803603602081101561140157600080fd5b50356001600160a01b03166140b0565b6105b56004803603604081101561142757600080fd5b506001600160a01b0381351690602001356140ce565b6103b661427e565b6105b561428e565b6104886004803603602081101561146357600080fd5b50356001600160a01b0316614294565b6105b56004803603606081101561148957600080fd5b506001600160a01b038135811691602081013590911690604001356142f8565b6105b5600480360360208110156114bf57600080fd5b50356001600160a01b0316614315565b610488600480360360208110156114e557600080fd5b50356001600160a01b0316614628565b61064d61496f565b600181565b6000546001600160a01b03163314611561576040805162461bcd60e51b815260206004820152601e60248201527f6f6e6c792061646d696e2063616e2073657420626f72726f7720636170730000604482015290519081900360640190fd5b8281811580159061157157508082145b6115b2576040805162461bcd60e51b815260206004820152600d60248201526c1a5b9d985b1a59081a5b9c1d5d609a1b604482015290519081900360640190fd5b60005b8281101561168d578484828181106115c957fe5b90506020020135600960008989858181106115e057fe5b905060200201356001600160a01b03166001600160a01b03166001600160a01b031681526020019081526020016000206007018190555086868281811061162357fe5b905060200201356001600160a01b03166001600160a01b03167f7769699efee6642ecb012bd102790f44283e4af6162a1972b5e2260ede8bbaba86868481811061166957fe5b905060200201356040518082815260200191505060405180910390a26001016115b5565b50505050505050565b6001600160a01b03821660009081526009602052604081205460ff166116ed5760405162461bcd60e51b8152600401808060200182810382526028815260200180616ea56028913960400191505060405180910390fd5b600a546001600160a01b031633148061171057506000546001600160a01b031633145b61174b5760405162461bcd60e51b8152600401808060200182810382526027815260200180616f1a6027913960400191505060405180910390fd5b6000546001600160a01b031633148061176657506001821515145b6117a5576040805162461bcd60e51b81526020600482015260166024820152600080516020616efa833981519152604482015290519081900360640190fd5b6001600160a01b0383166000818152600c6020908152604091829020805486151560ff199091168117909155825193845283830152606090830181905260069083015265426f72726f7760d01b6080830152517f71aec636243f9709bb0007ae15e9afb8150ab01716d75fd7573be5cc096e03b09181900360a00190a150805b92915050565b60408051600180825281830190925260609160208083019080388339019050509050828160008151811061185b57fe5b60200260200101906001600160a01b031690816001600160a01b0316815250506118888183600180612ae2565b505050565b806001600160a01b031663f851a4406040518163ffffffff1660e01b815260040160206040518083038186803b1580156118c657600080fd5b505afa1580156118da573d6000803e3d6000fd5b505050506040513d60208110156118f057600080fd5b50516001600160a01b031633146119385760405162461bcd60e51b8152600401808060200182810382526027815260200180616f876027913960400191505060405180910390fd5b806001600160a01b031663c1e803346040518163ffffffff1660e01b8152600401602060405180830381600087803b15801561197357600080fd5b505af1158015611987573d6000803e3d6000fd5b505050506040513d602081101561199d57600080fd5b5051156119e9576040805162461bcd60e51b815260206004820152601560248201527418da185b99d9481b9bdd08185d5d1a1bdc9a5e9959605a1b604482015290519081900360640190fd5b50565b600f6020526000908152604090205481565b5050505050565b6001600160a01b03841660009081526009602052604081205460ff16611a2d57506009611ac6565b611a35616dd8565b6040518060200160405280876001600160a01b031663aa5af0fd6040518163ffffffff1660e01b815260040160206040518083038186803b158015611a7957600080fd5b505afa158015611a8d573d6000803e3d6000fd5b505050506040513d6020811015611aa357600080fd5b505190529050611ab3868261497e565b611ac08685836000614c2e565b60009150505b949350505050565b600a546001600160a01b031681565b6001546001600160a01b031681565b6001600160a01b0383166000908152600c602052604081205460ff1615611b4d576040805162461bcd60e51b815260206004820152601060248201526f189bdc9c9bddc81a5cc81c185d5cd95960821b604482015290519081900360640190fd5b6001600160a01b03841660009081526009602052604090205460ff16611b775760095b9050611bed565b6001600160a01b0384166000908152600960205260409020600701548015611be75780831115611be7576040805162461bcd60e51b8152602060048201526016602482015275199b185cda081b1bd85b8818d85c081c995858da195960521b604482015290519081900360640190fd5b60009150505b9392505050565b600a546000906001600160a01b0316331480611c1a57506000546001600160a01b031633145b611c555760405162461bcd60e51b8152600401808060200182810382526027815260200180616f1a6027913960400191505060405180910390fd5b6000546001600160a01b0316331480611c7057506001821515145b611caf576040805162461bcd60e51b81526020600482015260166024820152600080516020616efa833981519152604482015290519081900360640190fd5b600a8054831515600160b81b810260ff60b81b1990921691909117909155604080516020810192909252808252600582820152645365697a6560d81b6060830152517fef159d9a32b2472e32b098f954f3ce62d232939f1c207070b584df1814de2de09181900360800190a150805b919050565b600080546001600160a01b03163314611d4957611d4260016004614e18565b9050611d1e565b611d51616dd8565b506040805160208101909152828152611d68616dd8565b50604080516020810190915266b1a2bc2ec500008152611d888282614e7e565b15611da157611d98600580614e18565b92505050611d1e565b611da9616dd8565b506040805160208101909152670c7d713b49da00008152611dca8184614e86565b15611de457611dda600580614e18565b9350505050611d1e565b6005805490869055604080518281526020810188905281517f3b9670cf975d26958e754b57098eaa2ac914d8d2a31b83257997b9f346110fd9929181900390910190a160005b9695505050505050565b6001600160a01b03821660009081526009602052604081205460ff16611e8b5760405162461bcd60e51b8152600401808060200182810382526028815260200180616ea56028913960400191505060405180910390fd5b600a546001600160a01b0316331480611eae57506000546001600160a01b031633145b611ee95760405162461bcd60e51b8152600401808060200182810382526027815260200180616f1a6027913960400191505060405180910390fd5b6000546001600160a01b0316331480611f0457506001821515145b611f43576040805162461bcd60e51b81526020600482015260166024820152600080516020616efa833981519152604482015290519081900360640190fd5b6001600160a01b0383166000818152600b6020908152604091829020805486151560ff199091168117909155825193845283830152606090830181905260049083015263135a5b9d60e21b6080830152517f71aec636243f9709bb0007ae15e9afb8150ab01716d75fd7573be5cc096e03b09181900360a00190a150919050565b600a54600160a01b900460ff1681565b50505050565b435b90565b505050505050565b60065481565b6000806000806000806120028a8a8a8a614e8d565b92509250925082601181111561201457fe5b95509093509150505b9450945094915050565b6015546040805163fbac395160e01b81526001600160a01b0385811660048301529151600093929092169163fbac395191602480820192602092909190829003018186803b15801561207857600080fd5b505afa15801561208c573d6000803e3d6000fd5b505050506040513d60208110156120a257600080fd5b5051156120ae57600080fd5b6001600160a01b0384166000908152600b602052604090205460ff16156120d457600080fd5b6001600160a01b03841660009081526009602052604090205460ff166120fb576009611b70565b6001600160a01b0380851660009081526009602090815260409182902060060154601554835163496d2adf60e01b81526004810183905293519194859491169263496d2adf92602480840193829003018186803b15801561215b57600080fd5b505afa15801561216f573d6000803e3d6000fd5b505050506040513d602081101561218557600080fd5b505114612207576015546040805163496d2adf60e01b81526004810184905290516001600160a01b039092169163496d2adf91602480820192602092909190829003018186803b1580156121d857600080fd5b505afa1580156121ec573d6000803e3d6000fd5b505050506040513d602081101561220257600080fd5b505190505b801561241b57612215616dd8565b6040518060200160405280876001600160a01b031663bd6d894d6040518163ffffffff1660e01b8152600401602060405180830381600087803b15801561225b57600080fd5b505af115801561226f573d6000803e3d6000fd5b505050506040513d602081101561228557600080fd5b50519052604080516318160ddd60e01b8152905191925060009182916123099185916001600160a01b038c16916318160ddd91600480820192602092909190829003018186803b1580156122d857600080fd5b505afa1580156122ec573d6000803e3d6000fd5b505050506040513d602081101561230257600080fd5b5051615480565b9092509050600082600381111561231c57fe5b146123585760405162461bcd60e51b815260040180806020018281038252602d815260200180616ecd602d913960400191505060405180910390fd5b60008061236583896154d4565b9092509050600082600381111561237857fe5b146123c4576040805162461bcd60e51b8152602060048201526017602482015276746f74616c20737570706c696573206f766572666c6f7760481b604482015290519081900360640190fd5b85811115612415576040805162461bcd60e51b81526020600482015260196024820152781b585c9ad95d081cdd5c1c1b1e4818d85c081c995858da1959603a1b604482015290519081900360640190fd5b50505050505b612424856154fa565b611be7858560006157ad565b600080546001600160a01b0316331461244f57611d426001600b614e18565b612457616dd8565b50604080516020810190915282815261246e616dd8565b506040805160208101909152670de0b6b3a7640000815261248f8282614e86565b156124a057611d986007600c614e18565b6124a8616dd8565b5060408051602081019091526714d1120d7b16000081526124c98184614e86565b156124da57611dda6007600c614e18565b6006805490869055604080518281526020810188905281517faeba5a6c40a8ac138134bff1aaa65debf25971188a58804bad717f82f0ec1316929181900390910190a16000611e2a565b6000546001600160a01b03163314612583576040805162461bcd60e51b815260206004820152601e60248201527f6f6e6c792061646d696e2063616e2073657420737570706c7920636170730000604482015290519081900360640190fd5b8281811580159061259357508082145b6125d4576040805162461bcd60e51b815260206004820152600d60248201526c1a5b9d985b1a59081a5b9c1d5d609a1b604482015290519081900360640190fd5b60005b8281101561168d578484828181106125eb57fe5b905060200201356009600089898581811061260257fe5b905060200201356001600160a01b03166001600160a01b03166001600160a01b031681526020019081526020016000206006018190555086868281811061264557fe5b905060200201356001600160a01b03166001600160a01b03167f9e0ad9cee10bdf36b7fbd38910c0bdff0f275ace679b45b922381c2723d676f886868481811061268b57fe5b905060200201356040518082815260200191505060405180910390a26001016125d7565b801580156126bd5750600082115b15611fd4576040805162461bcd60e51b815260206004820152601160248201527072656465656d546f6b656e73207a65726f60781b604482015290519081900360640190fd5b600d818154811061271057fe5b6000918252602090912001546001600160a01b0316905081565b600080546001600160a01b0316331461274957611d4260016010614e18565b600480546001600160a01b038481166001600160a01b0319831681179093556040805191909216808252602082019390935281517fd52b2b9b7e9ee655fcb95d2e5b9e0c9f69e7ef2b8e9d2d0ea78402d576d22e22929181900390910190a160009392505050565b611888565b6000806000806000806127cd876000806000614e8d565b9250925092508260118111156127df57fe5b97919650945092505050565b600080546001600160a01b0316331461280a57611d4260016013614e18565b600a80546001600160a01b038481166001600160a01b0319831617928390556040805192821680845293909116602083015280517f0613b6ee6a04f0d09f390e4d9318894b9f6ac7fd83897cd8d18896ba579c401e9281900390910190a16000611bed565b60155460408051632c333e2560e01b81526001600160a01b03858116600483015291516000939290921691632c333e2591602480820192602092909190829003018186803b1580156128c057600080fd5b505afa1580156128d4573d6000803e3d6000fd5b505050506040513d60208110156128ea57600080fd5b50511561293e576040805162461bcd60e51b815260206004820152601f60248201527f63616e6e6f74206c697175696461746520637265646974206163636f756e7400604482015290519081900360640190fd5b61294b86868686866159a4565b90505b95945050505050565b6000546001600160a01b031633146129b6576040805162461bcd60e51b815260206004820152601e60248201527f6f6e6c792061646d696e2063616e2073657420626f72726f7720636170730000604482015290519081900360640190fd5b828181158015906129c657508082145b612a07576040805162461bcd60e51b815260206004820152600d60248201526c1a5b9d985b1a59081a5b9c1d5d609a1b604482015290519081900360640190fd5b60005b8281101561168d57848482818110612a1e57fe5b9050602002013560096000898985818110612a3557fe5b905060200201356001600160a01b03166001600160a01b03166001600160a01b0316815260200190815260200160002060050181905550868682818110612a7857fe5b905060200201356001600160a01b03166001600160a01b03167f6f1951b2aad10f3fc81b86d91105b413a5b3f847a34bbc5ce1904201b14438f6868684818110612abe57fe5b905060200201356040518082815260200191505060405180910390a2600101612a0a565b60005b83518110156119fe576000848281518110612afc57fe5b6020908102919091018101516001600160a01b0381166000908152600990925260409091205490915060ff16612b71576040805162461bcd60e51b81526020600482015260156024820152741b585c9ad95d081b5d5cdd081899481b1a5cdd1959605a1b604482015290519081900360640190fd5b60018415151415612c3957612b84616dd8565b6040518060200160405280836001600160a01b031663aa5af0fd6040518163ffffffff1660e01b815260040160206040518083038186803b158015612bc857600080fd5b505afa158015612bdc573d6000803e3d6000fd5b505050506040513d6020811015612bf257600080fd5b505190529050612c02828261497e565b60005b8751811015612c3657612c2e83898381518110612c1e57fe5b6020026020010151846001614c2e565b600101612c05565b50505b60018315151415612c8257612c4d816154fa565b60005b8651811015612c8057612c7882888381518110612c6957fe5b602002602001015160016157ad565b600101612c50565b505b50600101612ae5565b6015546001600160a01b031681565b6010602052600090815260409020546001600160e01b03811690600160e01b900463ffffffff1682565b600c6020526000908152604090205460ff1681565b6000546001600160a01b03163314612d225760405162461bcd60e51b8152600401808060200182810382526021815260200180616f666021913960400191505060405180910390fd5b82818115801590612d3257508082145b612d73576040805162461bcd60e51b815260206004820152600d60248201526c1a5b9d985b1a59081a5b9c1d5d609a1b604482015290519081900360640190fd5b60005b8281101561168d576000858583818110612d8c57fe5b90506020020135118015612dba5750670de0b6b3a7640000858583818110612db057fe5b9050602002013511155b612e03576040805162461bcd60e51b815260206004820152601560248201527434b73b30b634b2103137b93937bb903330b1ba37b960591b604482015290519081900360640190fd5b848482818110612e0f57fe5b9050602002013560096000898985818110612e2657fe5b905060200201356001600160a01b03166001600160a01b03166001600160a01b0316815260200190815260200160002060040181905550868682818110612e6957fe5b905060200201356001600160a01b03166001600160a01b03167f06ba34ca74586d7d83f17a9e4054760897dda97278c46bd8bdf829f72afb6660868684818110612eaf57fe5b905060200201356040518082815260200191505060405180910390a2600101612d76565b600b6020526000908152604090205460ff1681565b66038d7ea4c6800081565b6004546001600160a01b031681565b6000546001600160a01b03163314612f1957600080fd5b8051825114612f2757600080fd5b6000805b8351811015613025576000848281518110612f4257fe5b6020908102919091018101516001600160a01b03811660009081526009909252604090912060038101549192509060ff16612f8057612f8082615b29565b848381518110612f8c57fe5b6020026020010151600f6000846001600160a01b03166001600160a01b031681526020019081526020016000208190555060006080868581518110612fcd57fe5b6020026020010151901c90506000868581518110612fe757fe5b60200260200101516001600160801b0316905060006130068383615e4c565b90506130128782615e4c565b96505060019094019350612f2b92505050565b50600e555050565b60155460065460408051630655a3bd60e11b8152600481018590526024810192909252805160009384936001600160a01b0390911692630cab477a92604480840193829003018186803b15801561308357600080fd5b505afa158015613097573d6000803e3d6000fd5b505050506040513d60408110156130ad57600080fd5b5080516020909101519092509050915091565b600a54600160b01b900460ff1681565b6011602052600090815260409020546001600160e01b03811690600160e01b900463ffffffff1682565b600960205260009081526040902080546001820154600383015460048401546005850154600686015460079096015460ff95861696949590931693919290919087565b600a546000906001600160a01b031633148061316357506000546001600160a01b031633145b61319e5760405162461bcd60e51b8152600401808060200182810382526027815260200180616f1a6027913960400191505060405180910390fd5b6000546001600160a01b03163314806131b957506001821515145b6131f8576040805162461bcd60e51b81526020600482015260166024820152600080516020616efa833981519152604482015290519081900360640190fd5b600a8054831515600160b01b810260ff60b01b1990921691909117909155604080516020810192909252808252600882820152672a3930b739b332b960c11b6060830152517fef159d9a32b2472e32b098f954f3ce62d232939f1c207070b584df1814de2de09181900360800190a15090565b6001600160a01b038082166000908152600960209081526040808320938616835260029093019052205460ff1692915050565b6000546001600160a01b031633146132b557600080fd5b601580546001600160a01b0319166001600160a01b0392909216919091179055565b60075481565b60155460408051636605dfa760e01b815290516000926001600160a01b031691636605dfa7916004808301926020929190829003018186803b15801561332257600080fd5b505afa158015613336573d6000803e3d6000fd5b505050506040513d602081101561334c57600080fd5b5051905090565b600080546001600160a01b0316331461337257611d4260016012614e18565b6001600160a01b03821660009081526009602052604090205460ff161561339f57611d42600a6011614e18565b816001600160a01b031663fe9c44ae6040518163ffffffff1660e01b815260040160206040518083038186803b1580156133d857600080fd5b505afa1580156133ec573d6000803e3d6000fd5b505050506040513d602081101561340257600080fd5b50506040805160e081018252600180825260006020838101828152848601838152670de0b6b3a7640000606087019081526080870185815260a0880186815260c089018781526001600160a01b038d1688526009909652989095209651875490151560ff199182161788559251958701959095555160038601805491151591909216179055915160048401555160058301559151600682015590516007909101556134ac82615e82565b604080516001600160a01b038416815290517fcf583bb0c569eb967f806b11601c4cb93c10310485c67add5f8362c2f212321f9181900360200190a1600092915050565b6a0c097ce7bc90715b34b9f160241b81565b600e5481565b60608060086000846001600160a01b03166001600160a01b0316815260200190815260200160002080548060200260200160405190810160405280929190818152602001828054801561358457602002820191906000526020600020905b81546001600160a01b03168152600190910190602001808311613566575b5093979650505050505050565b600a54600160b81b900460ff1681565b6060600d8054806020026020016040519081016040528092919081815260200182805480156135f957602002820191906000526020600020905b81546001600160a01b031681526001909101906020018083116135db575b5050505050905090565b601260209081526000928352604080842090915290825290205481565b6002546001600160a01b031681565b600a54600090600160b01b900460ff1615613686576040805162461bcd60e51b81526020600482015260126024820152711d1c985b9cd9995c881a5cc81c185d5cd95960721b604482015290519081900360640190fd5b6000613693868685615f60565b905080156136a2579050611ac6565b6136ab866154fa565b6136b7868660006157ad565b611ac0868560006157ad565b60606000825190506060816040519080825280602002602001820160405280156136f7578160200160208202803883390190505b50905060005b8281101561375257600085828151811061371357fe5b602002602001015190506137278133616018565b601181111561373257fe5b83838151811061373e57fe5b6020908102919091010152506001016136fd565b509392505050565b600480546040805163fc57d4df60e01b81526001600160a01b038781169482019490945290516000938493849391169163fc57d4df91602480820192602092909190829003018186803b1580156137b057600080fd5b505afa1580156137c4573d6000803e3d6000fd5b505050506040513d60208110156137da57600080fd5b5051600480546040805163fc57d4df60e01b81526001600160a01b038a8116948201949094529051939450600093929091169163fc57d4df91602480820192602092909190829003018186803b15801561383357600080fd5b505afa158015613847573d6000803e3d6000fd5b505050506040513d602081101561385d57600080fd5b5051905081158061386c575080155b1561388157600d9350600092506139c7915050565b6000866001600160a01b031663182df0f56040518163ffffffff1660e01b815260040160206040518083038186803b1580156138bc57600080fd5b505afa1580156138d0573d6000803e3d6000fd5b505050506040513d60208110156138e657600080fd5b5051905060006138f4616dd8565b6138fc616dd8565b613904616dd8565b600061391260065489616139565b94509050600081600381111561392457fe5b1461394057600b5b9950600098506139c7975050505050505050565b61394a8787616139565b93509050600081600381111561395c57fe5b1461396857600b61392c565b6139728484616174565b92509050600081600381111561398457fe5b1461399057600b61392c565b61399a828c615480565b9550905060008160038111156139ac57fe5b146139b857600b61392c565b60009950939750505050505050505b935093915050565b601360209081526000928352604080842090915290825290205481565b60146020526000908152604090205481565b60155460408051632c333e2560e01b81526001600160a01b03858116600483015291516000939290921691632c333e2591602480820192602092909190829003018186803b158015613a4f57600080fd5b505afa158015613a63573d6000803e3d6000fd5b505050506040513d6020811015613a7957600080fd5b505115613acd576040805162461bcd60e51b815260206004820181905260248201527f63616e6e6f74207369657a652066726f6d20637265646974206163636f756e74604482015290519081900360640190fd5b61294b868686868661618c565b600080546001600160a01b03163314613af957611d426001600d614e18565b6007805490839055604080518281526020810185905281517f7093cf1eb653f749c3ff531d6df7f92764536a7fa0d13530cd26e070780c32ea929181900390910190a16000611bed565b6001600160a01b0383166000908152600c602052604081205460ff1615613ba4576040805162461bcd60e51b815260206004820152601060248201526f189bdc9c9bddc81a5cc81c185d5cd95960821b604482015290519081900360640190fd5b6001600160a01b03841660009081526009602052604090205460ff16613bcb576009611b70565b6001600160a01b038085166000908152600960209081526040808320938716835260029093019052205460ff16613cbb57336001600160a01b03851614613c51576040805162461bcd60e51b815260206004820152601560248201527439b2b73232b91036bab9ba1031329031aa37b5b2b760591b604482015290519081900360640190fd5b6000613c5d3385616018565b90506000816011811115613c6d57fe5b14613c8657806011811115613c7e57fe5b915050611bed565b6001600160a01b038086166000908152600960209081526040808320938816835260029093019052205460ff16613cb957fe5b505b600480546040805163fc57d4df60e01b81526001600160a01b03888116948201949094529051929091169163fc57d4df91602480820192602092909190829003018186803b158015613d0c57600080fd5b505afa158015613d20573d6000803e3d6000fd5b505050506040513d6020811015613d3657600080fd5b5051613d4357600d611b70565b6001600160a01b0380851660009081526009602090815260409182902060050154601554835163f5bd2c5360e01b81526004810183905293519194859491169263f5bd2c5392602480840193829003018186803b158015613da357600080fd5b505afa158015613db7573d6000803e3d6000fd5b505050506040513d6020811015613dcd57600080fd5b505114613e4f576015546040805163f5bd2c5360e01b81526004810184905290516001600160a01b039092169163f5bd2c5391602480820192602092909190829003018186803b158015613e2057600080fd5b505afa158015613e34573d6000803e3d6000fd5b505050506040513d6020811015613e4a57600080fd5b505190505b8015613f7d576000856001600160a01b03166347bd37186040518163ffffffff1660e01b815260040160206040518083038186803b158015613e9057600080fd5b505afa158015613ea4573d6000803e3d6000fd5b505050506040513d6020811015613eba57600080fd5b50519050600080613ecb83876154d4565b90925090506000826003811115613ede57fe5b14613f29576040805162461bcd60e51b8152602060048201526016602482015275746f74616c20626f72726f7773206f766572666c6f7760501b604482015290519081900360640190fd5b838110613f79576040805162461bcd60e51b81526020600482015260196024820152781b585c9ad95d08189bdc9c9bddc818d85c081c995858da1959603a1b604482015290519081900360640190fd5b5050505b600080613f8d8688600088614e8d565b91935090915060009050826011811115613fa357fe5b14613fbe57816011811115613fb457fe5b9350505050611bed565b8015613fcb576004613fb4565b613fd3616dd8565b6040518060200160405280896001600160a01b031663aa5af0fd6040518163ffffffff1660e01b815260040160206040518083038186803b15801561401757600080fd5b505afa15801561402b573d6000803e3d6000fd5b505050506040513d602081101561404157600080fd5b505190529050614051888261497e565b61405e8888836000614c2e565b600098975050505050505050565b6008602052816000526040600020818154811061408557fe5b6000918252602090912001546001600160a01b03169150829050565b6003546001600160a01b031681565b6001600160a01b031660009081526009602052604090206007015490565b600080546001600160a01b031633146140f4576140ed60016006614e18565b9050611825565b6001600160a01b0383166000908152600960205260409020805460ff166141295761412160096007614e18565b915050611825565b614131616dd8565b506040805160208101909152838152614148616dd8565b506040805160208101909152670c7d713b49da000081526141698183614e86565b156141845761417a60066008614e18565b9350505050611825565b841580159061420d5750600480546040805163fc57d4df60e01b81526001600160a01b038a8116948201949094529051929091169163fc57d4df91602480820192602092909190829003018186803b1580156141df57600080fd5b505afa1580156141f3573d6000803e3d6000fd5b505050506040513d602081101561420957600080fd5b5051155b1561421e5761417a600d6009614e18565b60018301805490869055604080516001600160a01b03891681526020810183905280820188905290517f70483e6592cd5182d45ac970e05bc62cdcc90e9d8ef2c2dbe686cf383bcd7fc59181900360600190a16000979650505050505050565b600a54600160a81b900460ff1681565b60055481565b6119e981600d8054806020026020016040519081016040528092919081815260200182805480156142ee57602002820191906000526020600020905b81546001600160a01b031681526001909101906020018083116142d0575b505050505061182b565b600080614306858585615f60565b9050801561241b579050611bed565b6000808290506000806000836001600160a01b031663c37f68e2336040518263ffffffff1660e01b815260040180826001600160a01b03166001600160a01b0316815260200191505060806040518083038186803b15801561437657600080fd5b505afa15801561438a573d6000803e3d6000fd5b505050506040513d60808110156143a057600080fd5b5080516020820151604090920151909450909250905082156143f35760405162461bcd60e51b8152600401808060200182810382526025815260200180616f416025913960400191505060405180910390fd5b801561441057614405600c6002614e18565b945050505050611d1e565b600061441d873385615f60565b9050801561443e57614432600e60038361633f565b95505050505050611d1e565b6001600160a01b0385166000908152600960209081526040808320338452600281019092529091205460ff1661447d5760009650505050505050611d1e565b3360009081526002820160209081526040808320805460ff1916905560088252918290208054835181840281018401909452808452606093928301828280156144ef57602002820191906000526020600020905b81546001600160a01b031681526001909101906020018083116144d1575b5050835193945083925060009150505b8281101561454457896001600160a01b031684828151811061451d57fe5b60200260200101516001600160a01b0316141561453c57809150614544565b6001016144ff565b5081811061454e57fe5b33600090815260086020526040902080548190600019810190811061456f57fe5b9060005260206000200160009054906101000a90046001600160a01b031681838154811061459957fe5b600091825260209091200180546001600160a01b0319166001600160a01b039290921691909117905580546145d2826000198301616deb565b50604080516001600160a01b038c16815233602082015281517fe699a64c18b07ac5b7301aa273f36a2287239eb9501d81950672794afba29a0d929181900390910190a160009c9b505050505050505050505050565b6000546001600160a01b03163314614686576040805162461bcd60e51b815260206004820152601c60248201527b1bdb9b1e4818591b5a5b881b585e4819195b1a5cdd081b585c9ad95d60221b604482015290519081900360640190fd5b6001600160a01b03811660009081526009602052604090205460ff166146e7576040805162461bcd60e51b81526020600482015260116024820152701b585c9ad95d081b9bdd081b1a5cdd1959607a1b604482015290519081900360640190fd5b806001600160a01b03166318160ddd6040518163ffffffff1660e01b815260040160206040518083038186803b15801561472057600080fd5b505afa158015614734573d6000803e3d6000fd5b505050506040513d602081101561474a57600080fd5b505115614791576040805162461bcd60e51b815260206004820152601060248201526f6d61726b6574206e6f7420656d70747960801b604482015290519081900360640190fd5b806001600160a01b031663fe9c44ae6040518163ffffffff1660e01b815260040160206040518083038186803b1580156147ca57600080fd5b505afa1580156147de573d6000803e3d6000fd5b505050506040513d60208110156147f457600080fd5b50506001600160a01b0381166000908152600960205260408120805460ff1990811682556001820183905560038201805490911690556004810182905560058101829055600681018290556007018190555b600d5481101561492f57816001600160a01b0316600d828154811061486757fe5b6000918252602090912001546001600160a01b0316141561492757600d8054600019810190811061489457fe5b600091825260209091200154600d80546001600160a01b0390921691839081106148ba57fe5b600091825260209091200180546001600160a01b0319166001600160a01b0392909216919091179055600d805460001981019081106148f557fe5b600091825260209091200180546001600160a01b0319169055600d805490614921906000198301616deb565b5061492f565b600101614846565b50604080516001600160a01b038316815290517f9710c341258431a6380fd1febe8985e6b6221e8398c287ea971f2ba85a6e1a109181900360200190a150565b6000546001600160a01b031681565b6001600160a01b0382166000908152601160209081526040808320600f90925282205490916001600160801b03909116906149b7611fda565b83549091506000906149d7908390600160e01b900463ffffffff166163a5565b90506000811180156149e95750600083115b15614bb3576000614a5e876001600160a01b03166347bd37186040518163ffffffff1660e01b815260040160206040518083038186803b158015614a2c57600080fd5b505afa158015614a40573d6000803e3d6000fd5b505050506040513d6020811015614a5657600080fd5b5051876163df565b90506000614a6c83866163fd565b9050614a76616dd8565b60008311614a935760405180602001604052806000815250614a9d565b614a9d8284616439565b9050614aa7616dd8565b604080516020810190915288546001600160e01b03168152614ac99083616476565b90506040518060400160405280614b0b83600001516040518060400160405280600f81526020016e696e646578203e203232346269747360881b81525061649b565b6001600160e01b03168152602001614b4f8860405180604001604052806014815260200173626c6f636b4e756d626572203e2033326269747360601b815250616535565b63ffffffff9081169091526001600160a01b038c166000908152601160209081526040909120835181549490920151909216600160e01b026001600160e01b039182166001600160e01b0319909416939093171691909117905550611fdf92505050565b600081118015614bcc575083546001600160e01b031615155b15611fdf57614c078260405180604001604052806014815260200173626c6f636b4e756d626572203e2033326269747360601b815250616535565b845463ffffffff91909116600160e01b026001600160e01b03909116178455505050505050565b6001600160a01b0384166000908152601160205260409020614c4e616dd8565b50604080516020810190915281546001600160e01b03168152614c6f616dd8565b5060408051602080820183526001600160a01b03808a16600090815260138352848120918a168082528284529481208054855286519590915291529190915580511561168d57614cbd616dd8565b614cc7838361658a565b90506000614d56896001600160a01b03166395dd91938a6040518263ffffffff1660e01b815260040180826001600160a01b03166001600160a01b0316815260200191505060206040518083038186803b158015614d2457600080fd5b505afa158015614d38573d6000803e3d6000fd5b505050506040513d6020811015614d4e57600080fd5b5051886163df565b90506000614d6482846165af565b6001600160a01b038a1660009081526014602052604081205491925090614d8b9083615e4c565b9050614dac8a828a614da45766038d7ea4c68000614da7565b60005b6165dd565b6001600160a01b03808c1660008181526014602090815260409182902094909455895181518781529485015280519193928f16927f1fc3ecc087d8d2d15e23d0032af5a47059c3892d003d8e139fdcb6bb327c99a6929081900390910190a35050505050505050505050565b60007f45b96fe442630264581b197e84bbada861235052c5a1aadfff9ea4e40a969aa0836011811115614e4757fe5b836013811115614e5357fe5b604080519283526020830191909152600082820152519081900360600190a1826011811115611bed57fe5b519051111590565b5190511090565b60155460408051632c333e2560e01b81526001600160a01b038781166004830152915160009384938493600019939190921691632c333e25916024808301926020929190829003018186803b158015614ee557600080fd5b505afa158015614ef9573d6000803e3d6000fd5b505050506040513d6020811015614f0f57600080fd5b50511415614f2757506000915060001990508161201d565b614f2f616e0f565b6001600160a01b038816600090815260086020908152604080832080548251818502810185019093528083528493606093929190830182828015614f9c57602002820191906000526020600020905b81546001600160a01b03168152600190910190602001808311614f7e575b50939450600093505050505b815181101561533c576000828281518110614fbf57fe5b60200260200101519050806001600160a01b031663c37f68e28e6040518263ffffffff1660e01b815260040180826001600160a01b03166001600160a01b0316815260200191505060806040518083038186803b15801561501f57600080fd5b505afa158015615033573d6000803e3d6000fd5b505050506040513d608081101561504957600080fd5b508051602082015160408084015160609485015160808c0152938a0193909352918801919091529450841561508f5750600f97506000965086955061201d945050505050565b60408051602080820183526001600160a01b03808516600081815260098085528682206001810154875260c08e01969096528651808601885291839052845260049485015481526101408c01528451808401865260808c0151815260e08c01528354855163fc57d4df60e01b815294850191909152935193169263fc57d4df926024808201939291829003018186803b15801561512b57600080fd5b505afa15801561513f573d6000803e3d6000fd5b505050506040513d602081101561515557600080fd5b505160a087018190526151795750600d97506000965086955061201d945050505050565b604080516020810190915260a08701518152610100870181905260c087015160e08801516151a6926168d6565b610120880152935060008460038111156151bc57fe5b146151d85750600b97506000965086955061201d945050505050565b6151f08661012001518760400151886000015161692e565b87529350600084600381111561520257fe5b1461521e5750600b97506000965086955061201d945050505050565b600061523387606001518861014001516163df565b905061524987610100015182896020015161692e565b60208901529450600085600381111561525e57fe5b1461527b5750600b98506000975087965061201d95505050505050565b8c6001600160a01b0316826001600160a01b03161415615332576152a98761012001518d896020015161692e565b6020890152945060008560038111156152be57fe5b146152db5750600b98506000975087965061201d95505050505050565b6152ea8b8861014001516163df565b905061530087610100015182896020015161692e565b60208901529450600085600381111561531557fe5b146153325750600b98506000975087965061201d95505050505050565b5050600101614fa8565b5060155460408051632c333e2560e01b81526001600160a01b038e8116600483015291516000939290921691632c333e2591602480820192602092909190829003018186803b15801561538e57600080fd5b505afa1580156153a2573d6000803e3d6000fd5b505050506040513d60208110156153b857600080fd5b5051111561543c5760155460408051632c333e2560e01b81526001600160a01b038e8116600483015291519190921691632c333e25916024808301926020929190829003018186803b15801561540d57600080fd5b505afa158015615421573d6000803e3d6000fd5b505050506040513d602081101561543757600080fd5b505184525b60208401518451111561546257505050602081015190516000945003915082905061201d565b505081516020909201516000955085945091909103915061201d9050565b600080600061548d616dd8565b615497868661697b565b909250905060008260038111156154aa57fe5b146154bb57509150600090506154cd565b60006154c6826169e3565b9350935050505b9250929050565b6000808383018481106154ec576000925090506154cd565b5060029150600090506154cd565b6001600160a01b0381166000908152601060209081526040808320600f90925290912054608081901c1561553257608081901c615534565b805b90506000615540611fda565b8354909150600090615560908390600160e01b900463ffffffff166163a5565b90506000811180156155725750600083115b15615733576000856001600160a01b03166318160ddd6040518163ffffffff1660e01b815260040160206040518083038186803b1580156155b257600080fd5b505afa1580156155c6573d6000803e3d6000fd5b505050506040513d60208110156155dc57600080fd5b5051905060006155ec83866163fd565b90506155f6616dd8565b60008311615613576040518060200160405280600081525061561d565b61561d8284616439565b9050615627616dd8565b604080516020810190915288546001600160e01b031681526156499083616476565b9050604051806040016040528061568b83600001516040518060400160405280600f81526020016e696e646578203e203232346269747360881b81525061649b565b6001600160e01b031681526020016156cf8860405180604001604052806014815260200173626c6f636b4e756d626572203e2033326269747360601b815250616535565b63ffffffff9081169091526001600160a01b038b166000908152601060209081526040909120835181549490920151909216600160e01b026001600160e01b039182166001600160e01b03199094169390931716919091179055506119fe92505050565b60008111801561574c575083546001600160e01b031615155b156119fe576157878260405180604001604052806014815260200173626c6f636b4e756d626572203e2033326269747360601b815250616535565b845463ffffffff91909116600160e01b026001600160e01b039091161784555050505050565b6001600160a01b03831660009081526010602052604090206157cd616dd8565b50604080516020810190915281546001600160e01b031681526157ee616dd8565b5060408051602080820183526001600160a01b0380891660009081526012835284812091891680825282845294812080548552865195909152915291909155805115801561583c5750815115155b15615853576a0c097ce7bc90715b34b9f160241b81525b61585b616dd8565b615865838361658a565b90506000876001600160a01b03166370a08231886040518263ffffffff1660e01b815260040180826001600160a01b03166001600160a01b0316815260200191505060206040518083038186803b1580156158bf57600080fd5b505afa1580156158d3573d6000803e3d6000fd5b505050506040513d60208110156158e957600080fd5b5051905060006158f982846165af565b6001600160a01b038916600090815260146020526040812054919250906159209083615e4c565b905061593989828a614da45766038d7ea4c68000614da7565b6001600160a01b03808b1660008181526014602090815260409182902094909455895181518781529485015280519193928e16927f2caecd17d02f56fa897705dcc740da2d237c373f70686f4e0d9bd3bf0400ea7a929081900390910190a350505050505050505050565b6001600160a01b03851660009081526009602052604081205460ff1615806159e557506001600160a01b03851660009081526009602052604090205460ff16155b156159f45760095b905061294e565b600080615a00856169f2565b91935090915060009050826011811115615a1657fe5b14615a3057816011811115615a2757fe5b9250505061294e565b80615a3c576003615a27565b6000886001600160a01b03166395dd9193876040518263ffffffff1660e01b815260040180826001600160a01b03166001600160a01b0316815260200191505060206040518083038186803b158015615a9457600080fd5b505afa158015615aa8573d6000803e3d6000fd5b505050506040513d6020811015615abe57600080fd5b5051604080516020810190915260055481529091506000908190615ae29084615480565b90925090506000826003811115615af557fe5b14615b0957600b5b9550505050505061294e565b80871115615b18576011615afd565b60009b9a5050505050505050505050565b6001600160a01b0381166000908152600960205260409020805460ff161515600114615b98576040805162461bcd60e51b815260206004820152601960248201527818dbdb5c081b585c9ad95d081a5cc81b9bdd081b1a5cdd1959603a1b604482015290519081900360640190fd5b600381015460ff1615615bee576040805162461bcd60e51b815260206004820152601960248201527818dbdb5c081b585c9ad95d08185b1c9958591e481859191959603a1b604482015290519081900360640190fd5b60038101805460ff19166001908117909155604080516001600160a01b0385168152602081019290925280517f93c1f3e36ed71139f466a4ce8c9751790e2e33f5afb2df0dcfb3aeabe55d5aa29281900390910190a16001600160a01b0382166000908152601060205260409020546001600160e01b0316158015615c9657506001600160a01b038216600090815260106020526040902054600160e01b900463ffffffff16155b15615d635760405180604001604052806a0c097ce7bc90715b34b9f160241b6001600160e01b03168152602001615d08615cce611fda565b6040518060400160405280601c81526020017b626c6f636b206e756d6265722065786365656473203332206269747360201b815250616535565b63ffffffff9081169091526001600160a01b0384166000908152601060209081526040909120835181549490920151909216600160e01b026001600160e01b039182166001600160e01b031990941693909317169190911790555b6001600160a01b0382166000908152601160205260409020546001600160e01b0316158015615db557506001600160a01b038216600090815260116020526040902054600160e01b900463ffffffff16155b15615e485760405180604001604052806a0c097ce7bc90715b34b9f160241b6001600160e01b03168152602001615ded615cce611fda565b63ffffffff9081169091526001600160a01b0384166000908152601160209081526040909120835181549490920151909216600160e01b026001600160e01b039182166001600160e01b031990941693909317169190911790555b5050565b6000611bed8383604051806040016040528060118152602001706164646974696f6e206f766572666c6f7760781b815250616a12565b60005b600d54811015615f0d57816001600160a01b0316600d8281548110615ea657fe5b6000918252602090912001546001600160a01b03161415615f05576040805162461bcd60e51b81526020600482015260146024820152731b585c9ad95d08185b1c9958591e48185919195960621b604482015290519081900360640190fd5b600101615e85565b50600d80546001810182556000919091527fd7b6990105719101dabeb77144f2a3385c8033acd3af97e9423a695e81ad1eb50180546001600160a01b0319166001600160a01b0392909216919091179055565b6001600160a01b03831660009081526009602052604081205460ff16615f87576009611b70565b6001600160a01b038085166000908152600960209081526040808320938716835260029093019052205460ff16615fbf576000611b70565b600080615fcf8587866000614e8d565b91935090915060009050826011811115615fe557fe5b14615fff57816011811115615ff657fe5b92505050611bed565b801561600c576004615ff6565b60009695505050505050565b6001600160a01b0382166000908152600960205260408120805460ff16616043576009915050611825565b6001600160a01b038316600090815260028201602052604090205460ff16151560011415616075576000915050611825565b6007546001600160a01b038416600090815260086020526040902054106160a0576010915050611825565b6001600160a01b0380841660008181526002840160209081526040808320805460ff19166001908117909155600883528184208054918201815584529282902090920180549489166001600160a01b031990951685179055815193845283019190915280517f3ab23ab0d51cccc0c3085aec51f99228625aa1a922b3a8ca89a26b0f2027a1a59281900390910190a15060009392505050565b6000616143616dd8565b616169604051806020016040528086815250604051806020016040528086815250616a70565b915091509250929050565b600061617e616dd8565b835183516161699190616b59565b600a54600090600160b81b900460ff16156161e0576040805162461bcd60e51b815260206004820152600f60248201526e1cd95a5e99481a5cc81c185d5cd959608a1b604482015290519081900360640190fd5b6001600160a01b03861660009081526009602052604090205460ff16158061622157506001600160a01b03851660009081526009602052604090205460ff16155b1561622d5760096159ed565b846001600160a01b0316635fe3b5676040518163ffffffff1660e01b815260040160206040518083038186803b15801561626657600080fd5b505afa15801561627a573d6000803e3d6000fd5b505050506040513d602081101561629057600080fd5b505160408051635fe3b56760e01b815290516001600160a01b0392831692891691635fe3b567916004808301926020929190829003018186803b1580156162d657600080fd5b505afa1580156162ea573d6000803e3d6000fd5b505050506040513d602081101561630057600080fd5b50516001600160a01b0316146163175760026159ed565b616320866154fa565b61632c868460006157ad565b616338868560006157ad565b600061294b565b60007f45b96fe442630264581b197e84bbada861235052c5a1aadfff9ea4e40a969aa084601181111561636e57fe5b84601381111561637a57fe5b604080519283526020830191909152818101859052519081900360600190a1836011811115611ac657fe5b6000611bed8383604051806040016040528060158152602001747375627472616374696f6e20756e646572666c6f7760581b815250616c09565b6000611bed6163f684670de0b6b3a76400006163fd565b8351616c63565b6000611bed8383604051806040016040528060178152602001766d756c7469706c69636174696f6e206f766572666c6f7760481b815250616c96565b616441616dd8565b604051806020016040528061646d616467866a0c097ce7bc90715b34b9f160241b6163fd565b85616c63565b90529392505050565b61647e616dd8565b604051806020016040528061646d85600001518560000151615e4c565b600081600160e01b841061652d5760405162461bcd60e51b81526004018080602001828103825283818151815260200191508051906020019080838360005b838110156164f25781810151838201526020016164da565b50505050905090810190601f16801561651f5780820380516001836020036101000a031916815260200191505b509250505060405180910390fd5b509192915050565b600081600160201b841061652d5760405162461bcd60e51b81526020600482018181528351602484015283519092839260449091019190850190808383600083156164f25781810151838201526020016164da565b616592616dd8565b604051806020016040528061646d856000015185600001516163a5565b60006a0c097ce7bc90715b34b9f160241b6165ce8484600001516163fd565b816165d557fe5b049392505050565b6000806165e86132dd565b90508284101580156165fa5750600084115b801561660e57506001600160a01b03811615155b156168cd57604080516370a0823160e01b8152306004820152905182916000916001600160a01b038416916370a08231916024808301926020929190829003018186803b15801561665e57600080fd5b505afa158015616672573d6000803e3d6000fd5b505050506040513d602081101561668857600080fd5b505190508086116168ca57601554604080516392b8de3960e01b81526001600160a01b038a81166004830152602482018a9052825160009485949216926392b8de39926044808301939192829003018186803b1580156166e757600080fd5b505afa1580156166fb573d6000803e3d6000fd5b505050506040513d604081101561671157600080fd5b508051602090910151909250905081156167b257836001600160a01b031663a9059cbb8a846040518363ffffffff1660e01b815260040180836001600160a01b03166001600160a01b0316815260200182815260200192505050602060405180830381600087803b15801561678557600080fd5b505af1158015616799573d6000803e3d6000fd5b505050506040513d60208110156167af57600080fd5b50505b80156168bc57836001600160a01b031663a9059cbb601560009054906101000a90046001600160a01b03166001600160a01b031663ee9e81996040518163ffffffff1660e01b815260040160206040518083038186803b15801561681557600080fd5b505afa158015616829573d6000803e3d6000fd5b505050506040513d602081101561683f57600080fd5b5051604080516001600160e01b031960e085901b1681526001600160a01b039092166004830152602482018590525160448083019260209291908290030181600087803b15801561688f57600080fd5b505af11580156168a3573d6000803e3d6000fd5b505050506040513d60208110156168b957600080fd5b50505b600095505050505050611bed565b50505b50919392505050565b60006168e0616dd8565b60006168ea616dd8565b6168f48787616a70565b9092509050600082600381111561690757fe5b146169165790925090506139c7565b6169208186616a70565b935093505050935093915050565b600080600061693b616dd8565b616945878761697b565b9092509050600082600381111561695857fe5b1461696957509150600090506139c7565b616920616975826169e3565b866154d4565b6000616985616dd8565b600080616996866000015186616d0c565b909250905060008260038111156169a957fe5b146169c8575060408051602081019091526000815290925090506154cd565b60408051602081019091529081526000969095509350505050565b51670de0b6b3a7640000900490565b6000806000616a05846000806000614e8d565b9250925092509193909250565b60008383018285821015616a675760405162461bcd60e51b81526020600482018181528351602484015283519092839260449091019190850190808383600083156164f25781810151838201526020016164da565b50949350505050565b6000616a7a616dd8565b600080616a8f86600001518660000151616d0c565b90925090506000826003811115616aa257fe5b14616ac1575060408051602081019091526000815290925090506154cd565b600080616ad66706f05b59d3b20000846154d4565b90925090506000826003811115616ae957fe5b14616b0b575060408051602081019091526000815290945092506154cd915050565b600080616b2083670de0b6b3a7640000616d4b565b90925090506000826003811115616b3357fe5b14616b3a57fe5b604080516020810190915290815260009a909950975050505050505050565b6000616b63616dd8565b600080616b7886670de0b6b3a7640000616d0c565b90925090506000826003811115616b8b57fe5b14616baa575060408051602081019091526000815290925090506154cd565b600080616bb78388616d4b565b90925090506000826003811115616bca57fe5b14616bec575060408051602081019091526000815290945092506154cd915050565b604080516020810190915290815260009890975095505050505050565b60008184841115616c5b5760405162461bcd60e51b81526020600482018181528351602484015283519092839260449091019190850190808383600083156164f25781810151838201526020016164da565b505050900390565b6000611bed83836040518060400160405280600e81526020016d646976696465206279207a65726f60901b815250616d76565b6000831580616ca3575082155b15616cb057506000611bed565b83830283858281616cbd57fe5b04148390616a675760405162461bcd60e51b81526020600482018181528351602484015283519092839260449091019190850190808383600083156164f25781810151838201526020016164da565b60008083616d1f575060009050806154cd565b83830283858281616d2c57fe5b0414616d40575060029150600090506154cd565b6000925090506154cd565b60008082616d5f57506001905060006154cd565b6000838581616d6a57fe5b04915091509250929050565b60008183616dc55760405162461bcd60e51b81526020600482018181528351602484015283519092839260449091019190850190808383600083156164f25781810151838201526020016164da565b50828481616dcf57fe5b04949350505050565b6040518060200160405280600081525090565b81548183558181111561188857600083815260209020611888918101908301616e86565b604051806101600160405280600081526020016000815260200160008152602001600081526020016000815260200160008152602001616e4d616dd8565b8152602001616e5a616dd8565b8152602001616e67616dd8565b8152602001616e74616dd8565b8152602001616e81616dd8565b905290565b611fdc91905b80821115616ea05760008155600101616e8c565b509056fe63616e6e6f742070617573652061206d61726b65742074686174206973206e6f74206c6973746564746f74616c537570706c79556e6465726c79696e6720636f756c64206e6f742062652063616c63756c617465646f6e6c792061646d696e2063616e20756e7061757365000000000000000000006f6e6c7920706175736520677561726469616e20616e642061646d696e2063616e207061757365657869744d61726b65743a206765744163636f756e74536e617073686f74206661696c65646f6e6c792061646d696e2063616e2073657420626f72726f7720666163746f72736f6e6c7920756e6974726f6c6c65722061646d696e2063616e206368616e676520627261696e73a265627a7a723158201ba2ebd24a4779f7fc9ca190deb321f75a02c331058b821c1b30f57033697f1264736f6c63430005100032",
  "source": "pragma solidity ^0.5.16;\n\nimport \"./compound/Comptroller.sol\";\nimport \"./compound/EIP20Interface.sol\";\nimport \"./QsConfig.sol\";\n\ncontract Qstroller is Comptroller {\n    /// @notice Emitted when an admin delists a market\n    event MarketDelisted(CToken cToken);\n\n    QsConfig public qsConfig;\n\n    /**\n     * @notice Remove the market from the markets mapping\n     * @param cToken The address of the market (token) to delist\n     */\n    function _delistMarket(CToken cToken) external {\n        require(msg.sender == admin, \"only admin may delist market\");\n\n        require(markets[address(cToken)].isListed, \"market not listed\");\n        require(cToken.totalSupply() == 0, \"market not empty\");\n\n        cToken.isCToken(); // Sanity check to make sure its really a CToken\n\n        delete markets[address(cToken)];\n\n        for (uint i = 0; i < allMarkets.length; i++) {\n            if (allMarkets[i] == cToken) {\n                allMarkets[i] = allMarkets[allMarkets.length - 1];\n                delete allMarkets[allMarkets.length - 1];\n                allMarkets.length--;\n                break;\n            }\n        }\n\n        emit MarketDelisted(cToken);\n    }\n\n    function _setQsConfig(QsConfig _qsConfig) public {\n        require(msg.sender == admin);\n\n        qsConfig = _qsConfig;\n    }\n\n    /**\n     * @notice Sets new governance token distribution speed\n     * @dev Admin function to set new token distribution speed\n     */\n    function _setCompSpeeds(address[] memory _allMarkets, uint[] memory _compSpeeds) public {\n        // Check caller is admin\n        require(msg.sender == admin);\n        \n        require(_allMarkets.length == _compSpeeds.length);\n\n        uint _compRate = 0;\n        for (uint i = 0; i < _allMarkets.length; i++) {\n            address cToken = _allMarkets[i];\n            Market storage market = markets[cToken];\n            if (market.isComped == false) {\n                _addCompMarketInternal(cToken);\n            }\n            compSpeeds[cToken] = _compSpeeds[i];\n            uint supplySpeed = _compSpeeds[i] >> 128;\n            uint borrowSpeed = uint128(_compSpeeds[i]);\n            uint compSpeed = add_(supplySpeed, borrowSpeed);\n            _compRate = add_(_compRate, compSpeed);\n        }\n        compRate = _compRate;\n    }\n\n    function getCompAddress() public view returns (address) {\n        return qsConfig.compToken();\n    }\n    \n    function calculateSeizeTokenAllocation(uint _seizeTokenAmount) public view returns(uint liquidatorAmount, uint safetyVaultAmount) {\n        return qsConfig.calculateSeizeTokenAllocation(_seizeTokenAmount, liquidationIncentiveMantissa);\n    }\n    \n    function transferComp(address user, uint userAccrued, uint threshold) internal returns (uint) {\n        address compAddress = getCompAddress();\n        if (userAccrued >= threshold && userAccrued > 0 && compAddress != address(0x0)) {\n            EIP20Interface comp = EIP20Interface(compAddress);\n            uint compRemaining = comp.balanceOf(address(this));\n            if (userAccrued <= compRemaining) {\n                (uint userAmount, uint governanceAmount) = qsConfig.getCompAllocation(user, userAccrued);\n                if (userAmount > 0) comp.transfer(user, userAmount);\n                if (governanceAmount > 0) comp.transfer(qsConfig.safetyVault(), governanceAmount);\n                return 0;\n            }\n        }\n        return userAccrued;\n    }\n\n    /**\n      * @notice Checks if the account should be allowed to borrow the underlying asset of the given market\n      * @param cToken The market to verify the borrow against\n      * @param borrower The account which would borrow the asset\n      * @param borrowAmount The amount of underlying the account would borrow\n      * @return 0 if the borrow is allowed, otherwise a semi-opaque error code (See ErrorReporter.sol)\n      */\n    function borrowAllowed(address cToken, address borrower, uint borrowAmount) external returns (uint) {\n        // Pausing is a very serious situation - we revert to sound the alarms\n        require(!borrowGuardianPaused[cToken], \"borrow is paused\");\n\n        if (!markets[cToken].isListed) {\n            return uint(Error.MARKET_NOT_LISTED);\n        }\n\n        if (!markets[cToken].accountMembership[borrower]) {\n            // only cTokens may call borrowAllowed if borrower not in market\n            require(msg.sender == cToken, \"sender must be cToken\");\n\n            // attempt to add borrower to the market\n            Error err = addToMarketInternal(CToken(msg.sender), borrower);\n            if (err != Error.NO_ERROR) {\n                return uint(err);\n            }\n\n            // it should be impossible to break the important invariant\n            assert(markets[cToken].accountMembership[borrower]);\n        }\n\n        if (oracle.getUnderlyingPrice(CToken(cToken)) == 0) {\n            return uint(Error.PRICE_ERROR);\n        }\n\n        uint borrowCap = markets[cToken].borrowCap;\n        if (qsConfig.getBorrowCap(borrowCap) != borrowCap) {\n            borrowCap = qsConfig.getBorrowCap(borrowCap);\n        }\n        // Borrow cap of 0 corresponds to unlimited borrowing\n        if (borrowCap != 0) {\n            uint totalBorrows = CToken(cToken).totalBorrows();\n            (MathError mathErr, uint nextTotalBorrows) = addUInt(totalBorrows, borrowAmount);\n            require(mathErr == MathError.NO_ERROR, \"total borrows overflow\");\n            require(nextTotalBorrows < borrowCap, \"market borrow cap reached\");\n        }\n\n        (Error err, , uint shortfall) = getHypotheticalAccountLiquidityInternal(borrower, CToken(cToken), 0, borrowAmount);\n        if (err != Error.NO_ERROR) {\n            return uint(err);\n        }\n        if (shortfall > 0) {\n            return uint(Error.INSUFFICIENT_LIQUIDITY);\n        }\n\n        // Keep the flywheel moving\n        Exp memory borrowIndex = Exp({mantissa: CToken(cToken).borrowIndex()});\n        updateCompBorrowIndex(cToken, borrowIndex);\n        distributeBorrowerComp(cToken, borrower, borrowIndex, false);\n\n        return uint(Error.NO_ERROR);\n    }\n\n    function flashLoanAllowed(address cToken, address to, uint256 flashLoanAmount) view external returns (uint) {\n        // Pausing is a very serious situation - we revert to sound the alarms\n        require(!borrowGuardianPaused[cToken], \"borrow is paused\");\n\n        if (!markets[cToken].isListed) {\n            return uint(Error.MARKET_NOT_LISTED);\n        }\n\n        uint flashLoanCap = markets[cToken].flashLoanCap;\n        // FlashLoan cap of 0 corresponds to unlimited flash loan\n        if (flashLoanCap != 0) {\n            require(flashLoanAmount <= flashLoanCap, \"flash loan cap reached\");\n        }\n\n        to;\n\n        return uint(Error.NO_ERROR);\n    }\n\n    function getFlashLoanCap(address cToken) view external returns (uint) {\n        return markets[cToken].flashLoanCap;\n    }\n\n    /**\n     * @notice Checks if the account should be allowed to mint tokens in the given market\n     * @param cToken The market to verify the mint against\n     * @param minter The account which would get the minted tokens\n     * @param mintAmount The amount of underlying being supplied to the market in exchange for tokens\n     * @return 0 if the mint is allowed, otherwise a semi-opaque error code (See ErrorReporter.sol)\n     */\n    function mintAllowed(address cToken, address minter, uint mintAmount) external returns (uint) {\n        require(!qsConfig.isBlocked(minter));\n        // Pausing is a very serious situation - we revert to sound the alarms\n        require(!mintGuardianPaused[cToken]);\n\n        // Shh - currently unused\n        minter;\n        mintAmount;\n\n        if (!markets[cToken].isListed) {\n            return uint(Error.MARKET_NOT_LISTED);\n        }\n\n        uint supplyCap = markets[cToken].supplyCap;\n        if (qsConfig.getSupplyCap(supplyCap) != supplyCap) {\n            supplyCap = qsConfig.getSupplyCap(supplyCap);\n        }\n        // Supply cap of 0 corresponds to unlimited borrowing\n        if (supplyCap != 0) {\n            Exp memory exchangeRate = Exp({mantissa: CTokenInterface(cToken).exchangeRateCurrent()});\n            (MathError mErr, uint totalSupplyUnderlying) = mulScalarTruncate(exchangeRate, EIP20Interface(cToken).totalSupply());\n            require(mErr == MathError.NO_ERROR, \"totalSupplyUnderlying could not be calculated\");\n            (MathError mathErr, uint nextTotalSupplyUnderlying) = addUInt(totalSupplyUnderlying, mintAmount);\n            require(mathErr == MathError.NO_ERROR, \"total supplies overflow\");\n            require(nextTotalSupplyUnderlying <= supplyCap, \"market supply cap reached\");\n        }\n\n        // Keep the flywheel moving\n        updateCompSupplyIndex(cToken);\n        distributeSupplierComp(cToken, minter, false);\n        return uint(Error.NO_ERROR);\n    }\n\n    /**\n  * @notice Accrue COMP to the market by updating the supply index\n  * @param cToken The market whose supply index to update\n  */\n    function updateCompSupplyIndex(address cToken) internal {\n        CompMarketState storage supplyState = compSupplyState[cToken];\n        uint supplySpeed = compSpeeds[cToken];\n        // use first 128 bit as supplySpeed\n        supplySpeed = supplySpeed >> 128 == 0 ? supplySpeed : supplySpeed >> 128;\n        uint blockNumber = getBlockNumber();\n        uint deltaBlocks = sub_(blockNumber, uint(supplyState.block));\n        if (deltaBlocks > 0 && supplySpeed > 0) {\n            uint supplyTokens = CToken(cToken).totalSupply();\n            uint compAccrued = mul_(deltaBlocks, supplySpeed);\n            Double memory ratio = supplyTokens > 0 ? fraction(compAccrued, supplyTokens) : Double({mantissa: 0});\n            Double memory index = add_(Double({mantissa: supplyState.index}), ratio);\n            compSupplyState[cToken] = CompMarketState({\n            index: safe224(index.mantissa, \"index > 224bits\"),\n            block: safe32(blockNumber, \"blockNumber > 32bits\")\n            });\n        } else if (deltaBlocks > 0 && supplyState.index > 0) {\n            supplyState.block = safe32(blockNumber, \"blockNumber > 32bits\");\n        }\n    }\n\n    /**\n     * @notice Accrue COMP to the market by updating the borrow index\n     * @param cToken The market whose borrow index to update\n     */\n    function updateCompBorrowIndex(address cToken, Exp memory marketBorrowIndex) internal {\n        CompMarketState storage borrowState = compBorrowState[cToken];\n        // use last 128 bit as borrowSpeed\n        uint borrowSpeed = uint128(compSpeeds[cToken]);\n        uint blockNumber = getBlockNumber();\n        uint deltaBlocks = sub_(blockNumber, uint(borrowState.block));\n        if (deltaBlocks > 0 && borrowSpeed > 0) {\n            uint borrowAmount = div_(CToken(cToken).totalBorrows(), marketBorrowIndex);\n            uint compAccrued = mul_(deltaBlocks, borrowSpeed);\n            Double memory ratio = borrowAmount > 0 ? fraction(compAccrued, borrowAmount) : Double({mantissa: 0});\n            Double memory index = add_(Double({mantissa: borrowState.index}), ratio);\n            compBorrowState[cToken] = CompMarketState({\n            index: safe224(index.mantissa, \"index > 224bits\"),\n            block: safe32(blockNumber, \"blockNumber > 32bits\")\n            });\n        } else if (deltaBlocks > 0 && borrowState.index > 0) {\n            borrowState.block = safe32(blockNumber, \"blockNumber > 32bits\");\n        }\n    }\n\n    /**\n * @notice Determine what the account liquidity would be if the given amounts were redeemed/borrowed\n * @param cTokenModify The market to hypothetically redeem/borrow in\n * @param account The account to determine liquidity for\n * @param redeemTokens The number of tokens to hypothetically redeem\n * @param borrowAmount The amount of underlying to hypothetically borrow\n * @dev Note that we calculate the exchangeRateStored for each collateral cToken using stored data,\n *  without calculating accumulated interest.\n * @return (possible error code,\n            hypothetical account liquidity in excess of collateral requirements,\n *          hypothetical account shortfall below collateral requirements)\n */\n    function getHypotheticalAccountLiquidityInternal(\n        address account,\n        CToken cTokenModify,\n        uint redeemTokens,\n        uint borrowAmount) internal view returns (Error, uint, uint) {\n\n        // If credit limit is set to MAX, no need to check account liquidity.\n        if (qsConfig.getCreditLimit(account) == uint(-1)) {\n            return (Error.NO_ERROR, uint(-1), 0);\n        }\n\n        AccountLiquidityLocalVars memory vars; // Holds all our calculation results\n        uint oErr;\n        MathError mErr;\n\n        // For each asset the account is in\n        CToken[] memory assets = accountAssets[account];\n        for (uint i = 0; i < assets.length; i++) {\n            CToken asset = assets[i];\n\n            // Read the balances and exchange rate from the cToken\n            (oErr, vars.cTokenBalance, vars.borrowBalance, vars.exchangeRateMantissa) = asset.getAccountSnapshot(account);\n            if (oErr != 0) { // semi-opaque error code, we assume NO_ERROR == 0 is invariant between upgrades\n                return (Error.SNAPSHOT_ERROR, 0, 0);\n            }\n            vars.collateralFactor = Exp({mantissa: markets[address(asset)].collateralFactorMantissa});\n            vars.borrowFactorMantissa = Exp({mantissa: markets[address(asset)].borrowFactorMantissa});\n            vars.exchangeRate = Exp({mantissa: vars.exchangeRateMantissa});\n\n            // Get the normalized price of the asset\n            vars.oraclePriceMantissa = oracle.getUnderlyingPrice(asset);\n            if (vars.oraclePriceMantissa == 0) {\n                return (Error.PRICE_ERROR, 0, 0);\n            }\n            vars.oraclePrice = Exp({mantissa: vars.oraclePriceMantissa});\n\n            // Pre-compute a conversion factor from tokens -> ether (normalized price value)\n            (mErr, vars.tokensToDenom) = mulExp3(vars.collateralFactor, vars.exchangeRate, vars.oraclePrice);\n            if (mErr != MathError.NO_ERROR) {\n                return (Error.MATH_ERROR, 0, 0);\n            }\n\n            // sumCollateral += tokensToDenom * cTokenBalance\n            (mErr, vars.sumCollateral) = mulScalarTruncateAddUInt(vars.tokensToDenom, vars.cTokenBalance, vars.sumCollateral);\n            if (mErr != MathError.NO_ERROR) {\n                return (Error.MATH_ERROR, 0, 0);\n            }\n\n            // borrowValue = borrowBalance / borrowFactor\n            uint borrowValue = div_(vars.borrowBalance, vars.borrowFactorMantissa);\n            // sumBorrowPlusEffects += oraclePrice * borrowValue\n            (mErr, vars.sumBorrowPlusEffects) = mulScalarTruncateAddUInt(vars.oraclePrice, borrowValue, vars.sumBorrowPlusEffects);\n            if (mErr != MathError.NO_ERROR) {\n                return (Error.MATH_ERROR, 0, 0);\n            }\n\n            // Calculate effects of interacting with cTokenModify\n            if (asset == cTokenModify) {\n                // redeem effect\n                // sumBorrowPlusEffects += tokensToDenom * redeemTokens\n                (mErr, vars.sumBorrowPlusEffects) = mulScalarTruncateAddUInt(vars.tokensToDenom, redeemTokens, vars.sumBorrowPlusEffects);\n                if (mErr != MathError.NO_ERROR) {\n                    return (Error.MATH_ERROR, 0, 0);\n                }\n\n                // borrow effect\n                // borrowValue = borrowAmount / borrowFactor\n                borrowValue = div_(borrowAmount, vars.borrowFactorMantissa);\n                // sumBorrowPlusEffects += oraclePrice * borrowValue\n                (mErr, vars.sumBorrowPlusEffects) = mulScalarTruncateAddUInt(vars.oraclePrice, borrowValue, vars.sumBorrowPlusEffects);\n                if (mErr != MathError.NO_ERROR) {\n                    return (Error.MATH_ERROR, 0, 0);\n                }\n            }\n        }\n\n        // If credit limit is set, no need to consider collateral.\n        if (qsConfig.getCreditLimit(account) > 0) {\n            vars.sumCollateral = qsConfig.getCreditLimit(account);\n        }\n\n        // These are safe, as the underflow condition is checked first\n        if (vars.sumCollateral > vars.sumBorrowPlusEffects) {\n            return (Error.NO_ERROR, vars.sumCollateral - vars.sumBorrowPlusEffects, 0);\n        } else {\n            return (Error.NO_ERROR, 0, vars.sumBorrowPlusEffects - vars.sumCollateral);\n        }\n    }\n\n    /**\n     * @notice Checks if the liquidation should be allowed to occur\n     * @param cTokenBorrowed Asset which was borrowed by the borrower\n     * @param cTokenCollateral Asset which was used as collateral and will be seized\n     * @param liquidator The address repaying the borrow and seizing the collateral\n     * @param borrower The address of the borrower\n     * @param repayAmount The amount of underlying being repaid\n     */\n    function liquidateBorrowAllowed(\n        address cTokenBorrowed,\n        address cTokenCollateral,\n        address liquidator,\n        address borrower,\n        uint repayAmount) public returns (uint) {\n        require(qsConfig.getCreditLimit(borrower) == 0 , \"cannot liquidate credit account\");\n\n        return super.liquidateBorrowAllowed(cTokenBorrowed, cTokenCollateral, liquidator, borrower, repayAmount);\n    }\n\n    function seizeAllowed(\n        address cTokenCollateral,\n        address cTokenBorrowed,\n        address liquidator,\n        address borrower,\n        uint seizeTokens) public returns (uint) {\n        require(qsConfig.getCreditLimit(borrower) == 0 , \"cannot sieze from credit account\");\n\n        return super.seizeAllowed(cTokenCollateral, cTokenBorrowed, liquidator, borrower, seizeTokens);\n    }\n}",
  "sourcePath": "/Users/ashton/repo/blockchain/eth/smartcontracts/quicksilver-protocol/contracts/Qstroller.sol",
  "compiler": {
    "name": "solc",
    "version": "0.5.16+commit.9c3226ce.Emscripten.clang"
  },
  "schemaVersion": "3.4.1",
  "updatedAt": "2021-08-05T05:29:25.066Z",
  "devdoc": {
    "methods": {
      "_delistMarket(address)": {
        "params": {
          "cToken": "The address of the market (token) to delist"
        }
      },
      "_setBorrowFactor(address[],uint256[])": {
        "details": "Admin function to set the borrow factors.",
        "params": {
          "cTokens": "The addresses of the markets (tokens) to change the borrow factors for",
          "newBorrowFactors": "The new borrow factor values in underlying to be set. Must be between (0, 1]"
        }
      },
      "_setCloseFactor(uint256)": {
        "details": "Admin function to set closeFactor",
        "params": {
          "newCloseFactorMantissa": "New close factor, scaled by 1e18"
        },
        "return": "uint 0=success, otherwise a failure. (See ErrorReporter for details)"
      },
      "_setCollateralFactor(address,uint256)": {
        "details": "Admin function to set per-market collateralFactor",
        "params": {
          "cToken": "The market to set the factor on",
          "newCollateralFactorMantissa": "The new collateral factor, scaled by 1e18"
        },
        "return": "uint 0=success, otherwise a failure. (See ErrorReporter for details)"
      },
      "_setCompSpeeds(address[],uint256[])": {
        "details": "Admin function to set new token distribution speed"
      },
      "_setLiquidationIncentive(uint256)": {
        "details": "Admin function to set liquidationIncentive",
        "params": {
          "newLiquidationIncentiveMantissa": "New liquidationIncentive scaled by 1e18"
        },
        "return": "uint 0=success, otherwise a failure. (See ErrorReporter for details)"
      },
      "_setMarketBorrowCaps(address[],uint256[])": {
        "details": "Admin function to set the borrow caps. A borrow cap of 0 corresponds to unlimited borrowing.",
        "params": {
          "cTokens": "The addresses of the markets (tokens) to change the borrow caps for",
          "newBorrowCaps": "The new borrow cap values in underlying to be set. A value of 0 corresponds to unlimited borrowing."
        }
      },
      "_setMarketFlashLoanCaps(address[],uint256[])": {
        "details": "Admin function to set the flash loan caps. A flash loan cap of 0 corresponds to unlimited flash loan.",
        "params": {
          "cTokens": "The addresses of the markets (tokens) to change the flash loan caps for",
          "newFlashLoanCaps": "The new flash loan cap values in underlying to be set. A value of 0 corresponds to unlimited flash loan."
        }
      },
      "_setMarketSupplyCaps(address[],uint256[])": {
        "details": "Admin function to set the supply caps. A supply cap of 0 corresponds to unlimited supplying.",
        "params": {
          "cTokens": "The addresses of the markets (tokens) to change the supply caps for",
          "newSupplyCaps": "The new supply cap values in underlying to be set. A value of 0 corresponds to unlimited supplying."
        }
      },
      "_setMaxAssets(uint256)": {
        "details": "Admin function to set maxAssets",
        "params": {
          "newMaxAssets": "New max assets"
        },
        "return": "uint 0=success, otherwise a failure. (See ErrorReporter for details)"
      },
      "_setPauseGuardian(address)": {
        "params": {
          "newPauseGuardian": "The address of the new Pause Guardian"
        },
        "return": "uint 0=success, otherwise a failure. (See enum Error for details)"
      },
      "_setPriceOracle(address)": {
        "details": "Admin function to set a new price oracle",
        "return": "uint 0=success, otherwise a failure (see ErrorReporter.sol for details)"
      },
      "_supportMarket(address)": {
        "details": "Admin function to set isListed and add support for the market",
        "params": {
          "cToken": "The address of the market (token) to list"
        },
        "return": "uint 0=success, otherwise a failure. (See enum Error for details)"
      },
      "borrowAllowed(address,address,uint256)": {
        "params": {
          "borrowAmount": "The amount of underlying the account would borrow",
          "borrower": "The account which would borrow the asset",
          "cToken": "The market to verify the borrow against"
        },
        "return": "0 if the borrow is allowed, otherwise a semi-opaque error code (See ErrorReporter.sol)"
      },
      "borrowVerify(address,address,uint256)": {
        "params": {
          "borrowAmount": "The amount of the underlying asset requested to borrow",
          "borrower": "The address borrowing the underlying",
          "cToken": "Asset whose underlying is being borrowed"
        }
      },
      "checkMembership(address,address)": {
        "params": {
          "account": "The address of the account to check",
          "cToken": "The cToken to check"
        },
        "return": "True if the account is in the asset, otherwise false."
      },
      "claimComp(address)": {
        "params": {
          "holder": "The address to claim COMP for"
        }
      },
      "claimComp(address,address[])": {
        "params": {
          "cTokens": "The list of markets to claim COMP in",
          "holder": "The address to claim COMP for"
        }
      },
      "claimComp(address[],address[],bool,bool)": {
        "params": {
          "borrowers": "Whether or not to claim COMP earned by borrowing",
          "cTokens": "The list of markets to claim COMP in",
          "holders": "The addresses to claim COMP for",
          "suppliers": "Whether or not to claim COMP earned by supplying"
        }
      },
      "enterMarkets(address[])": {
        "params": {
          "cTokens": "The list of addresses of the cToken markets to be enabled"
        },
        "return": "Success indicator for whether each corresponding market was entered"
      },
      "exitMarket(address)": {
        "details": "Sender must not have an outstanding borrow balance in the asset, or be providing necessary collateral for an outstanding borrow.",
        "params": {
          "cTokenAddress": "The address of the asset to be removed"
        },
        "return": "Whether or not the account successfully exited the market"
      },
      "getAccountLiquidity(address)": {
        "return": "(possible error code (semi-opaque), account liquidity in excess of collateral requirements,         account shortfall below collateral requirements)"
      },
      "getAllMarkets()": {
        "details": "The automatic getter may be used to access an individual market.",
        "return": "The list of market addresses"
      },
      "getAssetsIn(address)": {
        "params": {
          "account": "The address of the account to pull assets for"
        },
        "return": "A dynamic list with the assets the account has entered"
      },
      "getHypotheticalAccountLiquidity(address,address,uint256,uint256)": {
        "params": {
          "account": "The account to determine liquidity for",
          "borrowAmount": "The amount of underlying to hypothetically borrow",
          "cTokenModify": "The market to hypothetically redeem/borrow in",
          "redeemTokens": "The number of tokens to hypothetically redeem"
        },
        "return": "(possible error code (semi-opaque), hypothetical account liquidity in excess of collateral requirements,         hypothetical account shortfall below collateral requirements)"
      },
      "liquidateBorrowAllowed(address,address,address,address,uint256)": {
        "params": {
          "borrower": "The address of the borrower",
          "cTokenBorrowed": "Asset which was borrowed by the borrower",
          "cTokenCollateral": "Asset which was used as collateral and will be seized",
          "liquidator": "The address repaying the borrow and seizing the collateral",
          "repayAmount": "The amount of underlying being repaid"
        }
      },
      "liquidateBorrowVerify(address,address,address,address,uint256,uint256)": {
        "params": {
          "actualRepayAmount": "The amount of underlying being repaid",
          "borrower": "The address of the borrower",
          "cTokenBorrowed": "Asset which was borrowed by the borrower",
          "cTokenCollateral": "Asset which was used as collateral and will be seized",
          "liquidator": "The address repaying the borrow and seizing the collateral"
        }
      },
      "liquidateCalculateSeizeTokens(address,address,uint256)": {
        "details": "Used in liquidation (called in cToken.liquidateBorrowFresh)",
        "params": {
          "actualRepayAmount": "The amount of cTokenBorrowed underlying to convert into cTokenCollateral tokens",
          "cTokenBorrowed": "The address of the borrowed cToken",
          "cTokenCollateral": "The address of the collateral cToken"
        },
        "return": "(errorCode, number of cTokenCollateral tokens to be seized in a liquidation)"
      },
      "mintAllowed(address,address,uint256)": {
        "params": {
          "cToken": "The market to verify the mint against",
          "mintAmount": "The amount of underlying being supplied to the market in exchange for tokens",
          "minter": "The account which would get the minted tokens"
        },
        "return": "0 if the mint is allowed, otherwise a semi-opaque error code (See ErrorReporter.sol)"
      },
      "mintVerify(address,address,uint256,uint256)": {
        "params": {
          "actualMintAmount": "The amount of the underlying asset being minted",
          "cToken": "Asset being minted",
          "mintTokens": "The number of tokens being minted",
          "minter": "The address minting the tokens"
        }
      },
      "redeemAllowed(address,address,uint256)": {
        "params": {
          "cToken": "The market to verify the redeem against",
          "redeemTokens": "The number of cTokens to exchange for the underlying asset in the market",
          "redeemer": "The account which would redeem the tokens"
        },
        "return": "0 if the redeem is allowed, otherwise a semi-opaque error code (See ErrorReporter.sol)"
      },
      "redeemVerify(address,address,uint256,uint256)": {
        "params": {
          "cToken": "Asset being redeemed",
          "redeemAmount": "The amount of the underlying asset being redeemed",
          "redeemTokens": "The number of tokens being redeemed",
          "redeemer": "The address redeeming the tokens"
        }
      },
      "repayBorrowAllowed(address,address,address,uint256)": {
        "params": {
          "borrower": "The account which would borrowed the asset",
          "cToken": "The market to verify the repay against",
          "payer": "The account which would repay the asset",
          "repayAmount": "The amount of the underlying asset the account would repay"
        },
        "return": "0 if the repay is allowed, otherwise a semi-opaque error code (See ErrorReporter.sol)"
      },
      "repayBorrowVerify(address,address,address,uint256,uint256)": {
        "params": {
          "actualRepayAmount": "The amount of underlying being repaid",
          "borrower": "The address of the borrower",
          "cToken": "Asset being repaid",
          "payer": "The address repaying the borrow"
        }
      },
      "seizeVerify(address,address,address,address,uint256)": {
        "params": {
          "borrower": "The address of the borrower",
          "cTokenBorrowed": "Asset which was borrowed by the borrower",
          "cTokenCollateral": "Asset which was used as collateral and will be seized",
          "liquidator": "The address repaying the borrow and seizing the collateral",
          "seizeTokens": "The number of collateral tokens to seize"
        }
      },
      "transferAllowed(address,address,address,uint256)": {
        "params": {
          "cToken": "The market to verify the transfer against",
          "dst": "The account which receives the tokens",
          "src": "The account which sources the tokens",
          "transferTokens": "The number of cTokens to transfer"
        },
        "return": "0 if the transfer is allowed, otherwise a semi-opaque error code (See ErrorReporter.sol)"
      },
      "transferVerify(address,address,address,uint256)": {
        "params": {
          "cToken": "Asset being transferred",
          "dst": "The account which receives the tokens",
          "src": "The account which sources the tokens",
          "transferTokens": "The number of cTokens to transfer"
        }
      }
    }
  },
  "userdoc": {
    "methods": {
      "_delistMarket(address)": {
        "notice": "Remove the market from the markets mapping"
      },
      "_setBorrowFactor(address[],uint256[])": {
        "notice": "Set the given borrow factors for the given cToken markets."
      },
      "_setCloseFactor(uint256)": {
        "notice": "Sets the closeFactor used when liquidating borrows"
      },
      "_setCollateralFactor(address,uint256)": {
        "notice": "Sets the collateralFactor for a market"
      },
      "_setCompSpeeds(address[],uint256[])": {
        "notice": "Sets new governance token distribution speed"
      },
      "_setLiquidationIncentive(uint256)": {
        "notice": "Sets liquidationIncentive"
      },
      "_setMarketBorrowCaps(address[],uint256[])": {
        "notice": "Set the given borrow caps for the given cToken markets. Borrowing that brings total borrows to or above borrow cap will revert."
      },
      "_setMarketFlashLoanCaps(address[],uint256[])": {
        "notice": "Set the given flash loan caps for the given cToken markets. Borrowing that brings total flash cap to or above flash loan cap will revert."
      },
      "_setMarketSupplyCaps(address[],uint256[])": {
        "notice": "Set the given supply caps for the given cToken markets. Supplying that brings total supply to or above supply cap will revert."
      },
      "_setMaxAssets(uint256)": {
        "notice": "Sets maxAssets which controls how many markets can be entered"
      },
      "_setPauseGuardian(address)": {
        "notice": "Admin function to change the Pause Guardian"
      },
      "_setPriceOracle(address)": {
        "notice": "Sets a new price oracle for the comptroller"
      },
      "_supportMarket(address)": {
        "notice": "Add the market to the markets mapping and set it as listed"
      },
      "borrowAllowed(address,address,uint256)": {
        "notice": "Checks if the account should be allowed to borrow the underlying asset of the given market"
      },
      "borrowVerify(address,address,uint256)": {
        "notice": "Validates borrow and reverts on rejection. May emit logs."
      },
      "checkMembership(address,address)": {
        "notice": "Returns whether the given account is entered in the given asset"
      },
      "claimComp(address)": {
        "notice": "Claim all the comp accrued by holder in all markets"
      },
      "claimComp(address,address[])": {
        "notice": "Claim all the comp accrued by holder in the specified markets"
      },
      "claimComp(address[],address[],bool,bool)": {
        "notice": "Claim all comp accrued by the holders"
      },
      "enterMarkets(address[])": {
        "notice": "Add assets to be included in account liquidity calculation"
      },
      "exitMarket(address)": {
        "notice": "Removes asset from sender's account liquidity calculation"
      },
      "getAccountLiquidity(address)": {
        "notice": "Determine the current account liquidity wrt collateral requirements"
      },
      "getAllMarkets()": {
        "notice": "Return all of the markets"
      },
      "getAssetsIn(address)": {
        "notice": "Returns the assets an account has entered"
      },
      "getHypotheticalAccountLiquidity(address,address,uint256,uint256)": {
        "notice": "Determine what the account liquidity would be if the given amounts were redeemed/borrowed"
      },
      "liquidateBorrowAllowed(address,address,address,address,uint256)": {
        "notice": "Checks if the liquidation should be allowed to occur"
      },
      "liquidateBorrowVerify(address,address,address,address,uint256,uint256)": {
        "notice": "Validates liquidateBorrow and reverts on rejection. May emit logs."
      },
      "liquidateCalculateSeizeTokens(address,address,uint256)": {
        "notice": "Calculate number of tokens of collateral asset to seize given an underlying amount"
      },
      "mintAllowed(address,address,uint256)": {
        "notice": "Checks if the account should be allowed to mint tokens in the given market"
      },
      "mintVerify(address,address,uint256,uint256)": {
        "notice": "Validates mint and reverts on rejection. May emit logs."
      },
      "redeemAllowed(address,address,uint256)": {
        "notice": "Checks if the account should be allowed to redeem tokens in the given market"
      },
      "redeemVerify(address,address,uint256,uint256)": {
        "notice": "Validates redeem and reverts on rejection. May emit logs."
      },
      "repayBorrowAllowed(address,address,address,uint256)": {
        "notice": "Checks if the account should be allowed to repay a borrow in the given market"
      },
      "repayBorrowVerify(address,address,address,uint256,uint256)": {
        "notice": "Validates repayBorrow and reverts on rejection. May emit logs."
      },
      "seizeVerify(address,address,address,address,uint256)": {
        "notice": "Validates seize and reverts on rejection. May emit logs."
      },
      "transferAllowed(address,address,address,uint256)": {
        "notice": "Checks if the account should be allowed to transfer tokens in the given market"
      },
      "transferVerify(address,address,address,uint256)": {
        "notice": "Validates transfer and reverts on rejection. May emit logs."
      }
    }
  }
}