{
  "contractName": "Qstroller",
  "abi": [
    {
      "anonymous": false,
      "inputs": [
        {
          "indexed": false,
          "internalType": "string",
          "name": "action",
          "type": "string"
        },
        {
          "indexed": false,
          "internalType": "bool",
          "name": "pauseState",
          "type": "bool"
        }
      ],
      "name": "ActionPaused",
      "type": "event"
    },
    {
      "anonymous": false,
      "inputs": [
        {
          "indexed": false,
          "internalType": "contract CToken",
          "name": "cToken",
          "type": "address"
        },
        {
          "indexed": false,
          "internalType": "string",
          "name": "action",
          "type": "string"
        },
        {
          "indexed": false,
          "internalType": "bool",
          "name": "pauseState",
          "type": "bool"
        }
      ],
      "name": "ActionPaused",
      "type": "event"
    },
    {
      "anonymous": false,
      "inputs": [
        {
          "indexed": true,
          "internalType": "contract CToken",
          "name": "cToken",
          "type": "address"
        },
        {
          "indexed": false,
          "internalType": "uint256",
          "name": "newSpeed",
          "type": "uint256"
        }
      ],
      "name": "CompSpeedUpdated",
      "type": "event"
    },
    {
      "anonymous": false,
      "inputs": [
        {
          "indexed": true,
          "internalType": "contract CToken",
          "name": "cToken",
          "type": "address"
        },
        {
          "indexed": true,
          "internalType": "address",
          "name": "borrower",
          "type": "address"
        },
        {
          "indexed": false,
          "internalType": "uint256",
          "name": "compDelta",
          "type": "uint256"
        },
        {
          "indexed": false,
          "internalType": "uint256",
          "name": "compBorrowIndex",
          "type": "uint256"
        }
      ],
      "name": "DistributedBorrowerComp",
      "type": "event"
    },
    {
      "anonymous": false,
      "inputs": [
        {
          "indexed": true,
          "internalType": "contract CToken",
          "name": "cToken",
          "type": "address"
        },
        {
          "indexed": true,
          "internalType": "address",
          "name": "supplier",
          "type": "address"
        },
        {
          "indexed": false,
          "internalType": "uint256",
          "name": "compDelta",
          "type": "uint256"
        },
        {
          "indexed": false,
          "internalType": "uint256",
          "name": "compSupplyIndex",
          "type": "uint256"
        }
      ],
      "name": "DistributedSupplierComp",
      "type": "event"
    },
    {
      "anonymous": false,
      "inputs": [
        {
          "indexed": false,
          "internalType": "uint256",
          "name": "error",
          "type": "uint256"
        },
        {
          "indexed": false,
          "internalType": "uint256",
          "name": "info",
          "type": "uint256"
        },
        {
          "indexed": false,
          "internalType": "uint256",
          "name": "detail",
          "type": "uint256"
        }
      ],
      "name": "Failure",
      "type": "event"
    },
    {
      "anonymous": false,
      "inputs": [
        {
          "indexed": false,
          "internalType": "contract CToken",
          "name": "cToken",
          "type": "address"
        },
        {
          "indexed": false,
          "internalType": "bool",
          "name": "isComped",
          "type": "bool"
        }
      ],
      "name": "MarketComped",
      "type": "event"
    },
    {
      "anonymous": false,
      "inputs": [
        {
          "indexed": false,
          "internalType": "contract CToken",
          "name": "cToken",
          "type": "address"
        },
        {
          "indexed": false,
          "internalType": "address",
          "name": "account",
          "type": "address"
        }
      ],
      "name": "MarketEntered",
      "type": "event"
    },
    {
      "anonymous": false,
      "inputs": [
        {
          "indexed": false,
          "internalType": "contract CToken",
          "name": "cToken",
          "type": "address"
        },
        {
          "indexed": false,
          "internalType": "address",
          "name": "account",
          "type": "address"
        }
      ],
      "name": "MarketExited",
      "type": "event"
    },
    {
      "anonymous": false,
      "inputs": [
        {
          "indexed": false,
          "internalType": "contract CToken",
          "name": "cToken",
          "type": "address"
        }
      ],
      "name": "MarketListed",
      "type": "event"
    },
    {
      "anonymous": false,
      "inputs": [
        {
          "indexed": false,
          "internalType": "uint256",
          "name": "oldCloseFactorMantissa",
          "type": "uint256"
        },
        {
          "indexed": false,
          "internalType": "uint256",
          "name": "newCloseFactorMantissa",
          "type": "uint256"
        }
      ],
      "name": "NewCloseFactor",
      "type": "event"
    },
    {
      "anonymous": false,
      "inputs": [
        {
          "indexed": false,
          "internalType": "contract CToken",
          "name": "cToken",
          "type": "address"
        },
        {
          "indexed": false,
          "internalType": "uint256",
          "name": "oldCollateralFactorMantissa",
          "type": "uint256"
        },
        {
          "indexed": false,
          "internalType": "uint256",
          "name": "newCollateralFactorMantissa",
          "type": "uint256"
        }
      ],
      "name": "NewCollateralFactor",
      "type": "event"
    },
    {
      "anonymous": false,
      "inputs": [
        {
          "indexed": false,
          "internalType": "uint256",
          "name": "oldCompRate",
          "type": "uint256"
        },
        {
          "indexed": false,
          "internalType": "uint256",
          "name": "newCompRate",
          "type": "uint256"
        }
      ],
      "name": "NewCompRate",
      "type": "event"
    },
    {
      "anonymous": false,
      "inputs": [
        {
          "indexed": false,
          "internalType": "uint256",
          "name": "oldLiquidationIncentiveMantissa",
          "type": "uint256"
        },
        {
          "indexed": false,
          "internalType": "uint256",
          "name": "newLiquidationIncentiveMantissa",
          "type": "uint256"
        }
      ],
      "name": "NewLiquidationIncentive",
      "type": "event"
    },
    {
      "anonymous": false,
      "inputs": [
        {
          "indexed": false,
          "internalType": "uint256",
          "name": "oldMaxAssets",
          "type": "uint256"
        },
        {
          "indexed": false,
          "internalType": "uint256",
          "name": "newMaxAssets",
          "type": "uint256"
        }
      ],
      "name": "NewMaxAssets",
      "type": "event"
    },
    {
      "anonymous": false,
      "inputs": [
        {
          "indexed": false,
          "internalType": "address",
          "name": "oldPauseGuardian",
          "type": "address"
        },
        {
          "indexed": false,
          "internalType": "address",
          "name": "newPauseGuardian",
          "type": "address"
        }
      ],
      "name": "NewPauseGuardian",
      "type": "event"
    },
    {
      "anonymous": false,
      "inputs": [
        {
          "indexed": false,
          "internalType": "contract PriceOracle",
          "name": "oldPriceOracle",
          "type": "address"
        },
        {
          "indexed": false,
          "internalType": "contract PriceOracle",
          "name": "newPriceOracle",
          "type": "address"
        }
      ],
      "name": "NewPriceOracle",
      "type": "event"
    },
    {
      "constant": false,
      "inputs": [
        {
          "internalType": "address[]",
          "name": "cTokens",
          "type": "address[]"
        }
      ],
      "name": "_addCompMarkets",
      "outputs": [],
      "payable": false,
      "stateMutability": "nonpayable",
      "type": "function"
    },
    {
      "constant": false,
      "inputs": [
        {
          "internalType": "contract Unitroller",
          "name": "unitroller",
          "type": "address"
        }
      ],
      "name": "_become",
      "outputs": [],
      "payable": false,
      "stateMutability": "nonpayable",
      "type": "function"
    },
    {
      "constant": true,
      "inputs": [],
      "name": "_borrowGuardianPaused",
      "outputs": [
        {
          "internalType": "bool",
          "name": "",
          "type": "bool"
        }
      ],
      "payable": false,
      "stateMutability": "view",
      "type": "function"
    },
    {
      "constant": false,
      "inputs": [
        {
          "internalType": "address",
          "name": "cToken",
          "type": "address"
        }
      ],
      "name": "_dropCompMarket",
      "outputs": [],
      "payable": false,
      "stateMutability": "nonpayable",
      "type": "function"
    },
    {
      "constant": true,
      "inputs": [],
      "name": "_mintGuardianPaused",
      "outputs": [
        {
          "internalType": "bool",
          "name": "",
          "type": "bool"
        }
      ],
      "payable": false,
      "stateMutability": "view",
      "type": "function"
    },
    {
      "constant": false,
      "inputs": [
        {
          "internalType": "contract CToken",
          "name": "cToken",
          "type": "address"
        },
        {
          "internalType": "bool",
          "name": "state",
          "type": "bool"
        }
      ],
      "name": "_setBorrowPaused",
      "outputs": [
        {
          "internalType": "bool",
          "name": "",
          "type": "bool"
        }
      ],
      "payable": false,
      "stateMutability": "nonpayable",
      "type": "function"
    },
    {
      "constant": false,
      "inputs": [
        {
          "internalType": "uint256",
          "name": "newCloseFactorMantissa",
          "type": "uint256"
        }
      ],
      "name": "_setCloseFactor",
      "outputs": [
        {
          "internalType": "uint256",
          "name": "",
          "type": "uint256"
        }
      ],
      "payable": false,
      "stateMutability": "nonpayable",
      "type": "function"
    },
    {
      "constant": false,
      "inputs": [
        {
          "internalType": "contract CToken",
          "name": "cToken",
          "type": "address"
        },
        {
          "internalType": "uint256",
          "name": "newCollateralFactorMantissa",
          "type": "uint256"
        }
      ],
      "name": "_setCollateralFactor",
      "outputs": [
        {
          "internalType": "uint256",
          "name": "",
          "type": "uint256"
        }
      ],
      "payable": false,
      "stateMutability": "nonpayable",
      "type": "function"
    },
    {
      "constant": false,
      "inputs": [
        {
          "internalType": "uint256",
          "name": "compRate_",
          "type": "uint256"
        }
      ],
      "name": "_setCompRate",
      "outputs": [],
      "payable": false,
      "stateMutability": "nonpayable",
      "type": "function"
    },
    {
      "constant": false,
      "inputs": [
        {
          "internalType": "uint256",
          "name": "newLiquidationIncentiveMantissa",
          "type": "uint256"
        }
      ],
      "name": "_setLiquidationIncentive",
      "outputs": [
        {
          "internalType": "uint256",
          "name": "",
          "type": "uint256"
        }
      ],
      "payable": false,
      "stateMutability": "nonpayable",
      "type": "function"
    },
    {
      "constant": false,
      "inputs": [
        {
          "internalType": "uint256",
          "name": "newMaxAssets",
          "type": "uint256"
        }
      ],
      "name": "_setMaxAssets",
      "outputs": [
        {
          "internalType": "uint256",
          "name": "",
          "type": "uint256"
        }
      ],
      "payable": false,
      "stateMutability": "nonpayable",
      "type": "function"
    },
    {
      "constant": false,
      "inputs": [
        {
          "internalType": "contract CToken",
          "name": "cToken",
          "type": "address"
        },
        {
          "internalType": "bool",
          "name": "state",
          "type": "bool"
        }
      ],
      "name": "_setMintPaused",
      "outputs": [
        {
          "internalType": "bool",
          "name": "",
          "type": "bool"
        }
      ],
      "payable": false,
      "stateMutability": "nonpayable",
      "type": "function"
    },
    {
      "constant": false,
      "inputs": [
        {
          "internalType": "address",
          "name": "newPauseGuardian",
          "type": "address"
        }
      ],
      "name": "_setPauseGuardian",
      "outputs": [
        {
          "internalType": "uint256",
          "name": "",
          "type": "uint256"
        }
      ],
      "payable": false,
      "stateMutability": "nonpayable",
      "type": "function"
    },
    {
      "constant": false,
      "inputs": [
        {
          "internalType": "contract PriceOracle",
          "name": "newOracle",
          "type": "address"
        }
      ],
      "name": "_setPriceOracle",
      "outputs": [
        {
          "internalType": "uint256",
          "name": "",
          "type": "uint256"
        }
      ],
      "payable": false,
      "stateMutability": "nonpayable",
      "type": "function"
    },
    {
      "constant": false,
      "inputs": [
        {
          "internalType": "bool",
          "name": "state",
          "type": "bool"
        }
      ],
      "name": "_setSeizePaused",
      "outputs": [
        {
          "internalType": "bool",
          "name": "",
          "type": "bool"
        }
      ],
      "payable": false,
      "stateMutability": "nonpayable",
      "type": "function"
    },
    {
      "constant": false,
      "inputs": [
        {
          "internalType": "bool",
          "name": "state",
          "type": "bool"
        }
      ],
      "name": "_setTransferPaused",
      "outputs": [
        {
          "internalType": "bool",
          "name": "",
          "type": "bool"
        }
      ],
      "payable": false,
      "stateMutability": "nonpayable",
      "type": "function"
    },
    {
      "constant": false,
      "inputs": [
        {
          "internalType": "contract CToken",
          "name": "cToken",
          "type": "address"
        }
      ],
      "name": "_supportMarket",
      "outputs": [
        {
          "internalType": "uint256",
          "name": "",
          "type": "uint256"
        }
      ],
      "payable": false,
      "stateMutability": "nonpayable",
      "type": "function"
    },
    {
      "constant": true,
      "inputs": [
        {
          "internalType": "address",
          "name": "",
          "type": "address"
        },
        {
          "internalType": "uint256",
          "name": "",
          "type": "uint256"
        }
      ],
      "name": "accountAssets",
      "outputs": [
        {
          "internalType": "contract CToken",
          "name": "",
          "type": "address"
        }
      ],
      "payable": false,
      "stateMutability": "view",
      "type": "function"
    },
    {
      "constant": true,
      "inputs": [],
      "name": "admin",
      "outputs": [
        {
          "internalType": "address",
          "name": "",
          "type": "address"
        }
      ],
      "payable": false,
      "stateMutability": "view",
      "type": "function"
    },
    {
      "constant": true,
      "inputs": [
        {
          "internalType": "uint256",
          "name": "",
          "type": "uint256"
        }
      ],
      "name": "allMarkets",
      "outputs": [
        {
          "internalType": "contract CToken",
          "name": "",
          "type": "address"
        }
      ],
      "payable": false,
      "stateMutability": "view",
      "type": "function"
    },
    {
      "constant": false,
      "inputs": [
        {
          "internalType": "address",
          "name": "cToken",
          "type": "address"
        },
        {
          "internalType": "address",
          "name": "borrower",
          "type": "address"
        },
        {
          "internalType": "uint256",
          "name": "borrowAmount",
          "type": "uint256"
        }
      ],
      "name": "borrowAllowed",
      "outputs": [
        {
          "internalType": "uint256",
          "name": "",
          "type": "uint256"
        }
      ],
      "payable": false,
      "stateMutability": "nonpayable",
      "type": "function"
    },
    {
      "constant": true,
      "inputs": [
        {
          "internalType": "address",
          "name": "",
          "type": "address"
        }
      ],
      "name": "borrowGuardianPaused",
      "outputs": [
        {
          "internalType": "bool",
          "name": "",
          "type": "bool"
        }
      ],
      "payable": false,
      "stateMutability": "view",
      "type": "function"
    },
    {
      "constant": false,
      "inputs": [
        {
          "internalType": "address",
          "name": "cToken",
          "type": "address"
        },
        {
          "internalType": "address",
          "name": "borrower",
          "type": "address"
        },
        {
          "internalType": "uint256",
          "name": "borrowAmount",
          "type": "uint256"
        }
      ],
      "name": "borrowVerify",
      "outputs": [],
      "payable": false,
      "stateMutability": "nonpayable",
      "type": "function"
    },
    {
      "constant": true,
      "inputs": [
        {
          "internalType": "address",
          "name": "account",
          "type": "address"
        },
        {
          "internalType": "contract CToken",
          "name": "cToken",
          "type": "address"
        }
      ],
      "name": "checkMembership",
      "outputs": [
        {
          "internalType": "bool",
          "name": "",
          "type": "bool"
        }
      ],
      "payable": false,
      "stateMutability": "view",
      "type": "function"
    },
    {
      "constant": false,
      "inputs": [
        {
          "internalType": "address",
          "name": "holder",
          "type": "address"
        },
        {
          "internalType": "contract CToken[]",
          "name": "cTokens",
          "type": "address[]"
        }
      ],
      "name": "claimComp",
      "outputs": [],
      "payable": false,
      "stateMutability": "nonpayable",
      "type": "function"
    },
    {
      "constant": false,
      "inputs": [
        {
          "internalType": "address[]",
          "name": "holders",
          "type": "address[]"
        },
        {
          "internalType": "contract CToken[]",
          "name": "cTokens",
          "type": "address[]"
        },
        {
          "internalType": "bool",
          "name": "borrowers",
          "type": "bool"
        },
        {
          "internalType": "bool",
          "name": "suppliers",
          "type": "bool"
        }
      ],
      "name": "claimComp",
      "outputs": [],
      "payable": false,
      "stateMutability": "nonpayable",
      "type": "function"
    },
    {
      "constant": false,
      "inputs": [
        {
          "internalType": "address",
          "name": "holder",
          "type": "address"
        }
      ],
      "name": "claimComp",
      "outputs": [],
      "payable": false,
      "stateMutability": "nonpayable",
      "type": "function"
    },
    {
      "constant": true,
      "inputs": [],
      "name": "closeFactorMantissa",
      "outputs": [
        {
          "internalType": "uint256",
          "name": "",
          "type": "uint256"
        }
      ],
      "payable": false,
      "stateMutability": "view",
      "type": "function"
    },
    {
      "constant": true,
      "inputs": [
        {
          "internalType": "address",
          "name": "",
          "type": "address"
        }
      ],
      "name": "compAccrued",
      "outputs": [
        {
          "internalType": "uint256",
          "name": "",
          "type": "uint256"
        }
      ],
      "payable": false,
      "stateMutability": "view",
      "type": "function"
    },
    {
      "constant": true,
      "inputs": [
        {
          "internalType": "address",
          "name": "",
          "type": "address"
        }
      ],
      "name": "compBorrowState",
      "outputs": [
        {
          "internalType": "uint224",
          "name": "index",
          "type": "uint224"
        },
        {
          "internalType": "uint32",
          "name": "block",
          "type": "uint32"
        }
      ],
      "payable": false,
      "stateMutability": "view",
      "type": "function"
    },
    {
      "constant": true,
      "inputs": [
        {
          "internalType": "address",
          "name": "",
          "type": "address"
        },
        {
          "internalType": "address",
          "name": "",
          "type": "address"
        }
      ],
      "name": "compBorrowerIndex",
      "outputs": [
        {
          "internalType": "uint256",
          "name": "",
          "type": "uint256"
        }
      ],
      "payable": false,
      "stateMutability": "view",
      "type": "function"
    },
    {
      "constant": true,
      "inputs": [],
      "name": "compClaimThreshold",
      "outputs": [
        {
          "internalType": "uint256",
          "name": "",
          "type": "uint256"
        }
      ],
      "payable": false,
      "stateMutability": "view",
      "type": "function"
    },
    {
      "constant": true,
      "inputs": [],
      "name": "compInitialIndex",
      "outputs": [
        {
          "internalType": "uint224",
          "name": "",
          "type": "uint224"
        }
      ],
      "payable": false,
      "stateMutability": "view",
      "type": "function"
    },
    {
      "constant": true,
      "inputs": [],
      "name": "compRate",
      "outputs": [
        {
          "internalType": "uint256",
          "name": "",
          "type": "uint256"
        }
      ],
      "payable": false,
      "stateMutability": "view",
      "type": "function"
    },
    {
      "constant": true,
      "inputs": [
        {
          "internalType": "address",
          "name": "",
          "type": "address"
        }
      ],
      "name": "compSpeeds",
      "outputs": [
        {
          "internalType": "uint256",
          "name": "",
          "type": "uint256"
        }
      ],
      "payable": false,
      "stateMutability": "view",
      "type": "function"
    },
    {
      "constant": true,
      "inputs": [
        {
          "internalType": "address",
          "name": "",
          "type": "address"
        },
        {
          "internalType": "address",
          "name": "",
          "type": "address"
        }
      ],
      "name": "compSupplierIndex",
      "outputs": [
        {
          "internalType": "uint256",
          "name": "",
          "type": "uint256"
        }
      ],
      "payable": false,
      "stateMutability": "view",
      "type": "function"
    },
    {
      "constant": true,
      "inputs": [
        {
          "internalType": "address",
          "name": "",
          "type": "address"
        }
      ],
      "name": "compSupplyState",
      "outputs": [
        {
          "internalType": "uint224",
          "name": "index",
          "type": "uint224"
        },
        {
          "internalType": "uint32",
          "name": "block",
          "type": "uint32"
        }
      ],
      "payable": false,
      "stateMutability": "view",
      "type": "function"
    },
    {
      "constant": true,
      "inputs": [],
      "name": "comptrollerImplementation",
      "outputs": [
        {
          "internalType": "address",
          "name": "",
          "type": "address"
        }
      ],
      "payable": false,
      "stateMutability": "view",
      "type": "function"
    },
    {
      "constant": false,
      "inputs": [
        {
          "internalType": "address[]",
          "name": "cTokens",
          "type": "address[]"
        }
      ],
      "name": "enterMarkets",
      "outputs": [
        {
          "internalType": "uint256[]",
          "name": "",
          "type": "uint256[]"
        }
      ],
      "payable": false,
      "stateMutability": "nonpayable",
      "type": "function"
    },
    {
      "constant": false,
      "inputs": [
        {
          "internalType": "address",
          "name": "cTokenAddress",
          "type": "address"
        }
      ],
      "name": "exitMarket",
      "outputs": [
        {
          "internalType": "uint256",
          "name": "",
          "type": "uint256"
        }
      ],
      "payable": false,
      "stateMutability": "nonpayable",
      "type": "function"
    },
    {
      "constant": true,
      "inputs": [
        {
          "internalType": "address",
          "name": "account",
          "type": "address"
        }
      ],
      "name": "getAccountLiquidity",
      "outputs": [
        {
          "internalType": "uint256",
          "name": "",
          "type": "uint256"
        },
        {
          "internalType": "uint256",
          "name": "",
          "type": "uint256"
        },
        {
          "internalType": "uint256",
          "name": "",
          "type": "uint256"
        }
      ],
      "payable": false,
      "stateMutability": "view",
      "type": "function"
    },
    {
      "constant": true,
      "inputs": [],
      "name": "getAllMarkets",
      "outputs": [
        {
          "internalType": "contract CToken[]",
          "name": "",
          "type": "address[]"
        }
      ],
      "payable": false,
      "stateMutability": "view",
      "type": "function"
    },
    {
      "constant": true,
      "inputs": [
        {
          "internalType": "address",
          "name": "account",
          "type": "address"
        }
      ],
      "name": "getAssetsIn",
      "outputs": [
        {
          "internalType": "contract CToken[]",
          "name": "",
          "type": "address[]"
        }
      ],
      "payable": false,
      "stateMutability": "view",
      "type": "function"
    },
    {
      "constant": true,
      "inputs": [],
      "name": "getBlockNumber",
      "outputs": [
        {
          "internalType": "uint256",
          "name": "",
          "type": "uint256"
        }
      ],
      "payable": false,
      "stateMutability": "view",
      "type": "function"
    },
    {
      "constant": true,
      "inputs": [
        {
          "internalType": "address",
          "name": "account",
          "type": "address"
        },
        {
          "internalType": "address",
          "name": "cTokenModify",
          "type": "address"
        },
        {
          "internalType": "uint256",
          "name": "redeemTokens",
          "type": "uint256"
        },
        {
          "internalType": "uint256",
          "name": "borrowAmount",
          "type": "uint256"
        }
      ],
      "name": "getHypotheticalAccountLiquidity",
      "outputs": [
        {
          "internalType": "uint256",
          "name": "",
          "type": "uint256"
        },
        {
          "internalType": "uint256",
          "name": "",
          "type": "uint256"
        },
        {
          "internalType": "uint256",
          "name": "",
          "type": "uint256"
        }
      ],
      "payable": false,
      "stateMutability": "view",
      "type": "function"
    },
    {
      "constant": true,
      "inputs": [],
      "name": "isComptroller",
      "outputs": [
        {
          "internalType": "bool",
          "name": "",
          "type": "bool"
        }
      ],
      "payable": false,
      "stateMutability": "view",
      "type": "function"
    },
    {
      "constant": false,
      "inputs": [
        {
          "internalType": "address",
          "name": "cTokenBorrowed",
          "type": "address"
        },
        {
          "internalType": "address",
          "name": "cTokenCollateral",
          "type": "address"
        },
        {
          "internalType": "address",
          "name": "liquidator",
          "type": "address"
        },
        {
          "internalType": "address",
          "name": "borrower",
          "type": "address"
        },
        {
          "internalType": "uint256",
          "name": "repayAmount",
          "type": "uint256"
        }
      ],
      "name": "liquidateBorrowAllowed",
      "outputs": [
        {
          "internalType": "uint256",
          "name": "",
          "type": "uint256"
        }
      ],
      "payable": false,
      "stateMutability": "nonpayable",
      "type": "function"
    },
    {
      "constant": false,
      "inputs": [
        {
          "internalType": "address",
          "name": "cTokenBorrowed",
          "type": "address"
        },
        {
          "internalType": "address",
          "name": "cTokenCollateral",
          "type": "address"
        },
        {
          "internalType": "address",
          "name": "liquidator",
          "type": "address"
        },
        {
          "internalType": "address",
          "name": "borrower",
          "type": "address"
        },
        {
          "internalType": "uint256",
          "name": "actualRepayAmount",
          "type": "uint256"
        },
        {
          "internalType": "uint256",
          "name": "seizeTokens",
          "type": "uint256"
        }
      ],
      "name": "liquidateBorrowVerify",
      "outputs": [],
      "payable": false,
      "stateMutability": "nonpayable",
      "type": "function"
    },
    {
      "constant": true,
      "inputs": [
        {
          "internalType": "address",
          "name": "cTokenBorrowed",
          "type": "address"
        },
        {
          "internalType": "address",
          "name": "cTokenCollateral",
          "type": "address"
        },
        {
          "internalType": "uint256",
          "name": "actualRepayAmount",
          "type": "uint256"
        }
      ],
      "name": "liquidateCalculateSeizeTokens",
      "outputs": [
        {
          "internalType": "uint256",
          "name": "",
          "type": "uint256"
        },
        {
          "internalType": "uint256",
          "name": "",
          "type": "uint256"
        }
      ],
      "payable": false,
      "stateMutability": "view",
      "type": "function"
    },
    {
      "constant": true,
      "inputs": [],
      "name": "liquidationIncentiveMantissa",
      "outputs": [
        {
          "internalType": "uint256",
          "name": "",
          "type": "uint256"
        }
      ],
      "payable": false,
      "stateMutability": "view",
      "type": "function"
    },
    {
      "constant": true,
      "inputs": [
        {
          "internalType": "address",
          "name": "",
          "type": "address"
        }
      ],
      "name": "markets",
      "outputs": [
        {
          "internalType": "bool",
          "name": "isListed",
          "type": "bool"
        },
        {
          "internalType": "uint256",
          "name": "collateralFactorMantissa",
          "type": "uint256"
        },
        {
          "internalType": "bool",
          "name": "isComped",
          "type": "bool"
        }
      ],
      "payable": false,
      "stateMutability": "view",
      "type": "function"
    },
    {
      "constant": true,
      "inputs": [],
      "name": "maxAssets",
      "outputs": [
        {
          "internalType": "uint256",
          "name": "",
          "type": "uint256"
        }
      ],
      "payable": false,
      "stateMutability": "view",
      "type": "function"
    },
    {
      "constant": false,
      "inputs": [
        {
          "internalType": "address",
          "name": "cToken",
          "type": "address"
        },
        {
          "internalType": "address",
          "name": "minter",
          "type": "address"
        },
        {
          "internalType": "uint256",
          "name": "mintAmount",
          "type": "uint256"
        }
      ],
      "name": "mintAllowed",
      "outputs": [
        {
          "internalType": "uint256",
          "name": "",
          "type": "uint256"
        }
      ],
      "payable": false,
      "stateMutability": "nonpayable",
      "type": "function"
    },
    {
      "constant": true,
      "inputs": [
        {
          "internalType": "address",
          "name": "",
          "type": "address"
        }
      ],
      "name": "mintGuardianPaused",
      "outputs": [
        {
          "internalType": "bool",
          "name": "",
          "type": "bool"
        }
      ],
      "payable": false,
      "stateMutability": "view",
      "type": "function"
    },
    {
      "constant": false,
      "inputs": [
        {
          "internalType": "address",
          "name": "cToken",
          "type": "address"
        },
        {
          "internalType": "address",
          "name": "minter",
          "type": "address"
        },
        {
          "internalType": "uint256",
          "name": "actualMintAmount",
          "type": "uint256"
        },
        {
          "internalType": "uint256",
          "name": "mintTokens",
          "type": "uint256"
        }
      ],
      "name": "mintVerify",
      "outputs": [],
      "payable": false,
      "stateMutability": "nonpayable",
      "type": "function"
    },
    {
      "constant": true,
      "inputs": [],
      "name": "oracle",
      "outputs": [
        {
          "internalType": "contract PriceOracle",
          "name": "",
          "type": "address"
        }
      ],
      "payable": false,
      "stateMutability": "view",
      "type": "function"
    },
    {
      "constant": true,
      "inputs": [],
      "name": "pauseGuardian",
      "outputs": [
        {
          "internalType": "address",
          "name": "",
          "type": "address"
        }
      ],
      "payable": false,
      "stateMutability": "view",
      "type": "function"
    },
    {
      "constant": true,
      "inputs": [],
      "name": "pendingAdmin",
      "outputs": [
        {
          "internalType": "address",
          "name": "",
          "type": "address"
        }
      ],
      "payable": false,
      "stateMutability": "view",
      "type": "function"
    },
    {
      "constant": true,
      "inputs": [],
      "name": "pendingComptrollerImplementation",
      "outputs": [
        {
          "internalType": "address",
          "name": "",
          "type": "address"
        }
      ],
      "payable": false,
      "stateMutability": "view",
      "type": "function"
    },
    {
      "constant": true,
      "inputs": [],
      "name": "qsConfig",
      "outputs": [
        {
          "internalType": "contract QsConfig",
          "name": "",
          "type": "address"
        }
      ],
      "payable": false,
      "stateMutability": "view",
      "type": "function"
    },
    {
      "constant": false,
      "inputs": [
        {
          "internalType": "address",
          "name": "cToken",
          "type": "address"
        },
        {
          "internalType": "address",
          "name": "redeemer",
          "type": "address"
        },
        {
          "internalType": "uint256",
          "name": "redeemTokens",
          "type": "uint256"
        }
      ],
      "name": "redeemAllowed",
      "outputs": [
        {
          "internalType": "uint256",
          "name": "",
          "type": "uint256"
        }
      ],
      "payable": false,
      "stateMutability": "nonpayable",
      "type": "function"
    },
    {
      "constant": false,
      "inputs": [
        {
          "internalType": "address",
          "name": "cToken",
          "type": "address"
        },
        {
          "internalType": "address",
          "name": "redeemer",
          "type": "address"
        },
        {
          "internalType": "uint256",
          "name": "redeemAmount",
          "type": "uint256"
        },
        {
          "internalType": "uint256",
          "name": "redeemTokens",
          "type": "uint256"
        }
      ],
      "name": "redeemVerify",
      "outputs": [],
      "payable": false,
      "stateMutability": "nonpayable",
      "type": "function"
    },
    {
      "constant": false,
      "inputs": [
        {
          "internalType": "address",
          "name": "cToken",
          "type": "address"
        },
        {
          "internalType": "address",
          "name": "payer",
          "type": "address"
        },
        {
          "internalType": "address",
          "name": "borrower",
          "type": "address"
        },
        {
          "internalType": "uint256",
          "name": "repayAmount",
          "type": "uint256"
        }
      ],
      "name": "repayBorrowAllowed",
      "outputs": [
        {
          "internalType": "uint256",
          "name": "",
          "type": "uint256"
        }
      ],
      "payable": false,
      "stateMutability": "nonpayable",
      "type": "function"
    },
    {
      "constant": false,
      "inputs": [
        {
          "internalType": "address",
          "name": "cToken",
          "type": "address"
        },
        {
          "internalType": "address",
          "name": "payer",
          "type": "address"
        },
        {
          "internalType": "address",
          "name": "borrower",
          "type": "address"
        },
        {
          "internalType": "uint256",
          "name": "actualRepayAmount",
          "type": "uint256"
        },
        {
          "internalType": "uint256",
          "name": "borrowerIndex",
          "type": "uint256"
        }
      ],
      "name": "repayBorrowVerify",
      "outputs": [],
      "payable": false,
      "stateMutability": "nonpayable",
      "type": "function"
    },
    {
      "constant": false,
      "inputs": [
        {
          "internalType": "address",
          "name": "cTokenCollateral",
          "type": "address"
        },
        {
          "internalType": "address",
          "name": "cTokenBorrowed",
          "type": "address"
        },
        {
          "internalType": "address",
          "name": "liquidator",
          "type": "address"
        },
        {
          "internalType": "address",
          "name": "borrower",
          "type": "address"
        },
        {
          "internalType": "uint256",
          "name": "seizeTokens",
          "type": "uint256"
        }
      ],
      "name": "seizeAllowed",
      "outputs": [
        {
          "internalType": "uint256",
          "name": "",
          "type": "uint256"
        }
      ],
      "payable": false,
      "stateMutability": "nonpayable",
      "type": "function"
    },
    {
      "constant": true,
      "inputs": [],
      "name": "seizeGuardianPaused",
      "outputs": [
        {
          "internalType": "bool",
          "name": "",
          "type": "bool"
        }
      ],
      "payable": false,
      "stateMutability": "view",
      "type": "function"
    },
    {
      "constant": false,
      "inputs": [
        {
          "internalType": "address",
          "name": "cTokenCollateral",
          "type": "address"
        },
        {
          "internalType": "address",
          "name": "cTokenBorrowed",
          "type": "address"
        },
        {
          "internalType": "address",
          "name": "liquidator",
          "type": "address"
        },
        {
          "internalType": "address",
          "name": "borrower",
          "type": "address"
        },
        {
          "internalType": "uint256",
          "name": "seizeTokens",
          "type": "uint256"
        }
      ],
      "name": "seizeVerify",
      "outputs": [],
      "payable": false,
      "stateMutability": "nonpayable",
      "type": "function"
    },
    {
      "constant": false,
      "inputs": [
        {
          "internalType": "address",
          "name": "cToken",
          "type": "address"
        },
        {
          "internalType": "address",
          "name": "src",
          "type": "address"
        },
        {
          "internalType": "address",
          "name": "dst",
          "type": "address"
        },
        {
          "internalType": "uint256",
          "name": "transferTokens",
          "type": "uint256"
        }
      ],
      "name": "transferAllowed",
      "outputs": [
        {
          "internalType": "uint256",
          "name": "",
          "type": "uint256"
        }
      ],
      "payable": false,
      "stateMutability": "nonpayable",
      "type": "function"
    },
    {
      "constant": true,
      "inputs": [],
      "name": "transferGuardianPaused",
      "outputs": [
        {
          "internalType": "bool",
          "name": "",
          "type": "bool"
        }
      ],
      "payable": false,
      "stateMutability": "view",
      "type": "function"
    },
    {
      "constant": false,
      "inputs": [
        {
          "internalType": "address",
          "name": "cToken",
          "type": "address"
        },
        {
          "internalType": "address",
          "name": "src",
          "type": "address"
        },
        {
          "internalType": "address",
          "name": "dst",
          "type": "address"
        },
        {
          "internalType": "uint256",
          "name": "transferTokens",
          "type": "uint256"
        }
      ],
      "name": "transferVerify",
      "outputs": [],
      "payable": false,
      "stateMutability": "nonpayable",
      "type": "function"
    },
    {
      "constant": false,
      "inputs": [
        {
          "internalType": "contract QsConfig",
          "name": "_qsConfig",
          "type": "address"
        }
      ],
      "name": "_setQsConfig",
      "outputs": [],
      "payable": false,
      "stateMutability": "nonpayable",
      "type": "function"
    },
    {
      "constant": false,
      "inputs": [
        {
          "internalType": "address[]",
          "name": "_allMarkets",
          "type": "address[]"
        },
        {
          "internalType": "uint256[]",
          "name": "_compSpeeds",
          "type": "uint256[]"
        }
      ],
      "name": "_setCompSpeeds",
      "outputs": [],
      "payable": false,
      "stateMutability": "nonpayable",
      "type": "function"
    },
    {
      "constant": false,
      "inputs": [],
      "name": "refreshCompSpeeds",
      "outputs": [],
      "payable": false,
      "stateMutability": "nonpayable",
      "type": "function"
    },
    {
      "constant": true,
      "inputs": [],
      "name": "getCompAddress",
      "outputs": [
        {
          "internalType": "address",
          "name": "",
          "type": "address"
        }
      ],
      "payable": false,
      "stateMutability": "view",
      "type": "function"
    },
    {
      "constant": true,
      "inputs": [
        {
          "internalType": "uint256",
          "name": "_seizeTokenAmount",
          "type": "uint256"
        }
      ],
      "name": "calculateSeizeTokenAllocation",
      "outputs": [
        {
          "internalType": "uint256",
          "name": "liquidatorAmount",
          "type": "uint256"
        },
        {
          "internalType": "uint256",
          "name": "safetyVaultAmount",
          "type": "uint256"
        }
      ],
      "payable": false,
      "stateMutability": "view",
      "type": "function"
    }
  ],
  "bytecode": "0x6080604052600080546001600160a01b03191633179055615ffa806100256000396000f3fe608060405234801561001057600080fd5b50600436106103885760003560e01c8063747026c9116101e1578063bb82aa5e1161010b578063bb82aa5e14610e93578063bdcdc25814610e9b578063c299823814610ed7578063c488847b14610f78578063ca0af04314610fae578063cc7ebdc414610fdc578063ce485c5e14611002578063d02f7351146110a3578063d9226ced146110e9578063da3d454c14611106578063dce154491461113c578063dcfbc0c714611168578063e4028eee14611170578063e6653f3d1461119c578063e8755446146111a4578063e9af0292146111ac578063eabe7d91146111d2578063ede4edd014611208578063f851a4401461122e57610388565b8063747026c914610b2b5780637dc0d1d014610b335780637e60c7a014610b3b5780638730657714610c5e57806387f7630314610c945780638c57804e14610c9c5780638e8f294b14610cc25780638ebf636414610d0a578063929fe9a114610d2957806393168a5b14610d5757806394b2294b14610d7d5780639d1b5a0a14610d85578063a76b3fda14610d8d578063a7f0e23114610db3578063aa90075414610dd7578063abfceffc14610ddf578063ac0b0bb714610e55578063b0772d0b14610e5d578063b21be7fd14610e6557610388565b80634d8e5037116102c25780634d8e5037146106c25780634e79238f146106ca5780634ef4c3e1146107245780634fd42e171461075a57806351dff9891461077757806352d84d1e146107b357806355ee1fe1146107d05780635c778605146107f65780635ec88c791461082c5780635f5af1aa146108525780635fc7e71e146108785780636810dfa6146108be5780636995d7d0146109ea5780636a491112146109f25780636a56947e14610a0f5780636b79c38d14610a4b5780636d154ea514610a995780636d35bf9114610abf578063731f0c2b14610b0557610388565b80627e3dd21461038d57806318c882a5146103a95780631c3db2e0146103d75780631d504dc61461048a5780631d7b33d7146104b05780631ededc91146104e857806324008a621461052a57806324a3d62214610566578063267822471461058a5780632d70db7814610592578063317b0b77146105b15780633aa729b4146105ce5780633bcf7ec1146105f45780633c94786f1461062257806341c728b91461062a57806342cbb15c1461066657806347ef3b3b1461066e5780634ada90af146106ba575b600080fd5b610395611236565b604080519115158252519081900360200190f35b610395600480360360408110156103bf57600080fd5b506001600160a01b038135169060200135151561123b565b610488600480360360408110156103ed57600080fd5b6001600160a01b038235169190810190604081016020820135600160201b81111561041757600080fd5b82018360208201111561042957600080fd5b803590602001918460208302840111600160201b8311171561044a57600080fd5b9190808060200260200160405190810160405280939291908181526020018383602002808284376000920191909152509295506113d0945050505050565b005b610488600480360360208110156104a057600080fd5b50356001600160a01b0316611432565b6104d6600480360360208110156104c657600080fd5b50356001600160a01b0316611591565b60408051918252519081900360200190f35b610488600480360360a08110156104fe57600080fd5b506001600160a01b038135811691602081013582169160408201351690606081013590608001356115a3565b6104d66004803603608081101561054057600080fd5b506001600160a01b038135811691602081013582169160408201351690606001356115aa565b61056e611673565b604080516001600160a01b039092168252519081900360200190f35b61056e611682565b610395600480360360208110156105a857600080fd5b50351515611691565b6104d6600480360360208110156105c757600080fd5b50356117c0565b610488600480360360208110156105e457600080fd5b50356001600160a01b03166118d1565b6103956004803603604081101561060a57600080fd5b506001600160a01b0381351690602001351515611a00565b610395611b90565b6104886004803603608081101561064057600080fd5b506001600160a01b03813581169160208101359091169060408101359060600135611ba0565b6104d6611ba6565b610488600480360360c081101561068457600080fd5b506001600160a01b0381358116916020810135821691604082013581169160608101359091169060808101359060a00135611bab565b6104d6611bb3565b610488611bb9565b610706600480360360808110156106e057600080fd5b506001600160a01b03813581169160208101359091169060408101359060600135611cc3565b60408051938452602084019290925282820152519081900360600190f35b6104d66004803603606081101561073a57600080fd5b506001600160a01b03813581169160208101359091169060400135611cfd565b6104d66004803603602081101561077057600080fd5b5035611da8565b6104886004803603608081101561078d57600080fd5b506001600160a01b03813581169160208101359091169060408101359060600135611e9c565b61056e600480360360208110156107c957600080fd5b5035611ef0565b6104d6600480360360208110156107e657600080fd5b50356001600160a01b0316611f17565b6104886004803603606081101561080c57600080fd5b506001600160a01b03813581169160208101359091169060400135611f9e565b6107066004803603602081101561084257600080fd5b50356001600160a01b0316611fa3565b6104d66004803603602081101561086857600080fd5b50356001600160a01b0316611fd8565b6104d6600480360360a081101561088e57600080fd5b506001600160a01b038135811691602081013582169160408201358116916060810135909116906080013561205c565b610488600480360360808110156108d457600080fd5b810190602081018135600160201b8111156108ee57600080fd5b82018360208201111561090057600080fd5b803590602001918460208302840111600160201b8311171561092157600080fd5b9190808060200260200160405190810160405280939291908181526020018383602002808284376000920191909152509295949360208101935035915050600160201b81111561097057600080fd5b82018360208201111561098257600080fd5b803590602001918460208302840111600160201b831117156109a357600080fd5b9190808060200260200160405190810160405280939291908181526020018383602002808284376000920191909152509295505050508035151591506020013515156121e3565b61056e61238c565b61048860048036036020811015610a0857600080fd5b503561239b565b61048860048036036080811015610a2557600080fd5b506001600160a01b03813581169160208101358216916040820135169060600135611ba0565b610a7160048036036020811015610a6157600080fd5b50356001600160a01b031661243f565b604080516001600160e01b03909316835263ffffffff90911660208301528051918290030190f35b61039560048036036020811015610aaf57600080fd5b50356001600160a01b0316612469565b610488600480360360a0811015610ad557600080fd5b506001600160a01b03813581169160208101358216916040820135811691606081013590911690608001356115a3565b61039560048036036020811015610b1b57600080fd5b50356001600160a01b031661247e565b6104d6612493565b61056e61249e565b61048860048036036040811015610b5157600080fd5b810190602081018135600160201b811115610b6b57600080fd5b820183602082011115610b7d57600080fd5b803590602001918460208302840111600160201b83111715610b9e57600080fd5b9190808060200260200160405190810160405280939291908181526020018383602002808284376000920191909152509295949360208101935035915050600160201b811115610bed57600080fd5b820183602082011115610bff57600080fd5b803590602001918460208302840111600160201b83111715610c2057600080fd5b9190808060200260200160405190810160405280939291908181526020018383602002808284376000920191909152509295506124ad945050505050565b610c7b60048036036020811015610c7457600080fd5b503561264d565b6040805192835260208301919091528051918290030190f35b6103956126e0565b610a7160048036036020811015610cb257600080fd5b50356001600160a01b03166126f0565b610ce860048036036020811015610cd857600080fd5b50356001600160a01b031661271a565b6040805193151584526020840192909252151582820152519081900360600190f35b61039560048036036020811015610d2057600080fd5b50351515612740565b61039560048036036040811015610d3f57600080fd5b506001600160a01b038135811691602001351661286e565b61048860048036036020811015610d6d57600080fd5b50356001600160a01b03166128a1565b6104d661290c565b61056e612912565b6104d660048036036020811015610da357600080fd5b50356001600160a01b0316612988565b610dbb612ae5565b604080516001600160e01b039092168252519081900360200190f35b6104d6612af7565b610e0560048036036020811015610df557600080fd5b50356001600160a01b0316612afd565b60408051602080825283518183015283519192839290830191858101910280838360005b83811015610e41578181015183820152602001610e29565b505050509050019250505060405180910390f35b610395612b86565b610e05612b96565b6104d660048036036040811015610e7b57600080fd5b506001600160a01b0381358116916020013516612bf8565b61056e612c15565b6104d660048036036080811015610eb157600080fd5b506001600160a01b03813581169160208101358216916040820135169060600135612c24565b610e0560048036036020811015610eed57600080fd5b810190602081018135600160201b811115610f0757600080fd5b820183602082011115610f1957600080fd5b803590602001918460208302840111600160201b83111715610f3a57600080fd5b919080806020026020016040519081016040528093929190818152602001838360200280828437600092019190915250929550612cb8945050505050565b610c7b60048036036060811015610f8e57600080fd5b506001600160a01b03813581169160208101359091169060400135612d4f565b6104d660048036036040811015610fc457600080fd5b506001600160a01b0381358116916020013516612fc4565b6104d660048036036020811015610ff257600080fd5b50356001600160a01b0316612fe1565b6104886004803603602081101561101857600080fd5b810190602081018135600160201b81111561103257600080fd5b82018360208201111561104457600080fd5b803590602001918460208302840111600160201b8311171561106557600080fd5b919080806020026020016040519081016040528093929190818152602001838360200280828437600092019190915250929550612ff3945050505050565b6104d6600480360360a08110156110b957600080fd5b506001600160a01b0381358116916020810135821691604082013581169160608101359091169060800135613085565b6104d6600480360360208110156110ff57600080fd5b503561323d565b6104d66004803603606081101561111c57600080fd5b506001600160a01b038135811691602081013590911690604001356132a6565b61056e6004803603604081101561115257600080fd5b506001600160a01b038135169060200135613593565b61056e6135c8565b6104d66004803603604081101561118657600080fd5b506001600160a01b0381351690602001356135d7565b610395613787565b6104d6613797565b610488600480360360208110156111c257600080fd5b50356001600160a01b031661379d565b6104d6600480360360608110156111e857600080fd5b506001600160a01b03813581169160208101359091169060400135613801565b6104d66004803603602081101561121e57600080fd5b50356001600160a01b031661383e565b61056e613b51565b600181565b6001600160a01b03821660009081526009602052604081205460ff166112925760405162461bcd60e51b8152600401808060200182810382526028815260200180615e2a6028913960400191505060405180910390fd5b600a546001600160a01b03163314806112b557506000546001600160a01b031633145b6112f05760405162461bcd60e51b8152600401808060200182810382526027815260200180615f006027913960400191505060405180910390fd5b6000546001600160a01b031633148061130b57506001821515145b61134a576040805162461bcd60e51b81526020600482015260166024820152600080516020615ee0833981519152604482015290519081900360640190fd5b6001600160a01b0383166000818152600c6020908152604091829020805486151560ff199091168117909155825193845283830152606090830181905260069083015265426f72726f7760d01b6080830152517f71aec636243f9709bb0007ae15e9afb8150ab01716d75fd7573be5cc096e03b09181900360a00190a150805b92915050565b60408051600180825281830190925260609160208083019080388339019050509050828160008151811061140057fe5b60200260200101906001600160a01b031690816001600160a01b03168152505061142d81836001806121e3565b505050565b806001600160a01b031663f851a4406040518163ffffffff1660e01b815260040160206040518083038186803b15801561146b57600080fd5b505afa15801561147f573d6000803e3d6000fd5b505050506040513d602081101561149557600080fd5b50516001600160a01b031633146114dd5760405162461bcd60e51b8152600401808060200182810382526027815260200180615f9f6027913960400191505060405180910390fd5b806001600160a01b031663c1e803346040518163ffffffff1660e01b8152600401602060405180830381600087803b15801561151857600080fd5b505af115801561152c573d6000803e3d6000fd5b505050506040513d602081101561154257600080fd5b50511561158e576040805162461bcd60e51b815260206004820152601560248201527418da185b99d9481b9bdd08185d5d1a1bdc9a5e9959605a1b604482015290519081900360640190fd5b50565b600f6020526000908152604090205481565b5050505050565b6001600160a01b03841660009081526009602052604081205460ff166115d25750600961166b565b6115da615d6a565b6040518060200160405280876001600160a01b031663aa5af0fd6040518163ffffffff1660e01b815260040160206040518083038186803b15801561161e57600080fd5b505afa158015611632573d6000803e3d6000fd5b505050506040513d602081101561164857600080fd5b5051905290506116588682613b60565b6116658685836000613de5565b60009150505b949350505050565b600a546001600160a01b031681565b6001546001600160a01b031681565b600a546000906001600160a01b03163314806116b757506000546001600160a01b031633145b6116f25760405162461bcd60e51b8152600401808060200182810382526027815260200180615f006027913960400191505060405180910390fd5b6000546001600160a01b031633148061170d57506001821515145b61174c576040805162461bcd60e51b81526020600482015260166024820152600080516020615ee0833981519152604482015290519081900360640190fd5b600a8054831515600160b81b810260ff60b81b1990921691909117909155604080516020810192909252808252600582820152645365697a6560d81b6060830152517fef159d9a32b2472e32b098f954f3ce62d232939f1c207070b584df1814de2de09181900360800190a150805b919050565b600080546001600160a01b031633146117e6576117df60016004613fd0565b90506117bb565b6117ee615d6a565b506040805160208101909152828152611805615d6a565b50604080516020810190915266b1a2bc2ec5000081526118258282614036565b1561183e57611835600580613fd0565b925050506117bb565b611846615d6a565b506040805160208101909152670c7d713b49da00008152611867818461403e565b1561188157611877600580613fd0565b93505050506117bb565b6005805490869055604080518281526020810188905281517f3b9670cf975d26958e754b57098eaa2ac914d8d2a31b83257997b9f346110fd9929181900390910190a160005b9695505050505050565b6000546001600160a01b03163314611930576040805162461bcd60e51b815260206004820152601f60248201527f6f6e6c792061646d696e2063616e2064726f7020636f6d70206d61726b657400604482015290519081900360640190fd5b6001600160a01b0381166000908152600960205260409020600381015460ff1615156001146119a4576040805162461bcd60e51b815260206004820152601b60248201527a1b585c9ad95d081a5cc81b9bdd08184818dbdb5c081b585c9ad95d602a1b604482015290519081900360640190fd5b60038101805460ff19169055604080516001600160a01b03841681526000602082015281517f93c1f3e36ed71139f466a4ce8c9751790e2e33f5afb2df0dcfb3aeabe55d5aa2929181900390910190a16119fc614045565b5050565b6001600160a01b03821660009081526009602052604081205460ff16611a575760405162461bcd60e51b8152600401808060200182810382526028815260200180615e2a6028913960400191505060405180910390fd5b600a546001600160a01b0316331480611a7a57506000546001600160a01b031633145b611ab55760405162461bcd60e51b8152600401808060200182810382526027815260200180615f006027913960400191505060405180910390fd5b6000546001600160a01b0316331480611ad057506001821515145b611b0f576040805162461bcd60e51b81526020600482015260166024820152600080516020615ee0833981519152604482015290519081900360640190fd5b6001600160a01b0383166000818152600b6020908152604091829020805486151560ff199091168117909155825193845283830152606090830181905260049083015263135a5b9d60e21b6080830152517f71aec636243f9709bb0007ae15e9afb8150ab01716d75fd7573be5cc096e03b09181900360a00190a150919050565b600a54600160a01b900460ff1681565b50505050565b435b90565b505050505050565b60065481565b601560009054906101000a90046001600160a01b03166001600160a01b0316634bc51e766040518163ffffffff1660e01b815260040160206040518083038186803b158015611c0757600080fd5b505afa158015611c1b573d6000803e3d6000fd5b505050506040513d6020811015611c3157600080fd5b505115611c7b576040805162461bcd60e51b815260206004820152601360248201527218dbdb5c14dc195959081a5cc81c185d5cd959606a1b604482015290519081900360640190fd5b333214611cb95760405162461bcd60e51b8152600401808060200182810382526031815260200180615e876031913960400191505060405180910390fd5b611cc1614045565b565b600080600080600080611cd88a8a8a8a6140d1565b925092509250826011811115611cea57fe5b95509093509150505b9450945094915050565b6001600160a01b0383166000908152600b602052604081205460ff1615611d5c576040805162461bcd60e51b815260206004820152600e60248201526d1b5a5b9d081a5cc81c185d5cd95960921b604482015290519081900360640190fd5b6001600160a01b03841660009081526009602052604090205460ff16611d865760095b9050611da1565b611d8f846144ec565b611d9b84846000614767565b60005b90505b9392505050565b600080546001600160a01b03163314611dc7576117df6001600b613fd0565b611dcf615d6a565b506040805160208101909152828152611de6615d6a565b506040805160208101909152670de0b6b3a76400008152611e07828261403e565b15611e18576118356007600c613fd0565b611e20615d6a565b5060408051602081019091526714d1120d7b1600008152611e41818461403e565b15611e52576118776007600c613fd0565b6006805490869055604080518281526020810188905281517faeba5a6c40a8ac138134bff1aaa65debf25971188a58804bad717f82f0ec1316929181900390910190a160006118c7565b80158015611eaa5750600082115b15611ba0576040805162461bcd60e51b815260206004820152601160248201527072656465656d546f6b656e73207a65726f60781b604482015290519081900360640190fd5b600d8181548110611efd57fe5b6000918252602090912001546001600160a01b0316905081565b600080546001600160a01b03163314611f36576117df60016010613fd0565b600480546001600160a01b038481166001600160a01b0319831681179093556040805191909216808252602082019390935281517fd52b2b9b7e9ee655fcb95d2e5b9e0c9f69e7ef2b8e9d2d0ea78402d576d22e22929181900390910190a160009392505050565b61142d565b600080600080600080611fba8760008060006140d1565b925092509250826011811115611fcc57fe5b97919650945092505050565b600080546001600160a01b03163314611ff7576117df60016013613fd0565b600a80546001600160a01b038481166001600160a01b0319831617928390556040805192821680845293909116602083015280517f0613b6ee6a04f0d09f390e4d9318894b9f6ac7fd83897cd8d18896ba579c401e9281900390910190a16000611da1565b6001600160a01b03851660009081526009602052604081205460ff16158061209d57506001600160a01b03851660009081526009602052604090205460ff16155b156120ac5760095b90506121da565b6000806120b88561495e565b919350909150600090508260118111156120ce57fe5b146120e8578160118111156120df57fe5b925050506121da565b806120f45760036120df565b6000886001600160a01b03166395dd9193876040518263ffffffff1660e01b815260040180826001600160a01b03166001600160a01b0316815260200191505060206040518083038186803b15801561214c57600080fd5b505afa158015612160573d6000803e3d6000fd5b505050506040513d602081101561217657600080fd5b505160408051602081019091526005548152909150600090819061219a908461497e565b909250905060008260038111156121ad57fe5b146121c157600b5b955050505050506121da565b808711156121d05760116121b5565b6000955050505050505b95945050505050565b60005b83518110156115a35760008482815181106121fd57fe5b6020908102919091018101516001600160a01b0381166000908152600990925260409091205490915060ff16612272576040805162461bcd60e51b81526020600482015260156024820152741b585c9ad95d081b5d5cdd081899481b1a5cdd1959605a1b604482015290519081900360640190fd5b6001841515141561233a57612285615d6a565b6040518060200160405280836001600160a01b031663aa5af0fd6040518163ffffffff1660e01b815260040160206040518083038186803b1580156122c957600080fd5b505afa1580156122dd573d6000803e3d6000fd5b505050506040513d60208110156122f357600080fd5b5051905290506123038282613b60565b60005b87518110156123375761232f8389838151811061231f57fe5b6020026020010151846001613de5565b600101612306565b50505b600183151514156123835761234e816144ec565b60005b8651811015612381576123798288838151811061236a57fe5b60200260200101516001614767565b600101612351565b505b506001016121e6565b6015546001600160a01b031681565b6123a36149d2565b6123f4576040805162461bcd60e51b815260206004820152601f60248201527f6f6e6c792061646d696e2063616e206368616e676520636f6d70207261746500604482015290519081900360640190fd5b600e805490829055604080518281526020810184905281517fc227c9272633c3a307d9845bf2bc2509cefb20d655b5f3c1002d8e1e3f22c8b0929181900390910190a16119fc614045565b6010602052600090815260409020546001600160e01b03811690600160e01b900463ffffffff1682565b600c6020526000908152604090205460ff1681565b600b6020526000908152604090205460ff1681565b66038d7ea4c6800081565b6004546001600160a01b031681565b6000546001600160a01b031633146124f65760405162461bcd60e51b8152600401808060200182810382526028815260200180615eb86028913960400191505060405180910390fd5b8051825114612543576040805162461bcd60e51b815260206004820152601460248201527324b731b7b6b83632ba32903830b930b6b2ba32b960611b604482015290519081900360640190fd5b8151600d54146125845760405162461bcd60e51b8152600401808060200182810382526035815260200180615e526035913960400191505060405180910390fd5b6000805b835181101561264357600084828151811061259f57fe5b6020908102919091018101516001600160a01b03811660009081526009909252604090912060038101549192509060ff166125dd576125dd826149fb565b8483815181106125e957fe5b6020026020010151600f6000846001600160a01b03166001600160a01b03168152602001908152602001600020819055506126378486858151811061262a57fe5b6020026020010151614d0c565b93505050600101612588565b5061142d8161239b565b60155460065460408051630655a3bd60e11b8152600481018590526024810192909252805160009384936001600160a01b0390911692630cab477a92604480840193829003018186803b1580156126a357600080fd5b505afa1580156126b7573d6000803e3d6000fd5b505050506040513d60408110156126cd57600080fd5b5080516020909101519092509050915091565b600a54600160b01b900460ff1681565b6011602052600090815260409020546001600160e01b03811690600160e01b900463ffffffff1682565b60096020526000908152604090208054600182015460039092015460ff91821692911683565b600a546000906001600160a01b031633148061276657506000546001600160a01b031633145b6127a15760405162461bcd60e51b8152600401808060200182810382526027815260200180615f006027913960400191505060405180910390fd5b6000546001600160a01b03163314806127bc57506001821515145b6127fb576040805162461bcd60e51b81526020600482015260166024820152600080516020615ee0833981519152604482015290519081900360640190fd5b600a8054831515600160b01b810260ff60b01b1990921691909117909155604080516020810192909252808252600882820152672a3930b739b332b960c11b6060830152517fef159d9a32b2472e32b098f954f3ce62d232939f1c207070b584df1814de2de09181900360800190a15090565b6001600160a01b038082166000908152600960209081526040808320938616835260029093019052205460ff1692915050565b6000546001600160a01b031633146128ea5760405162461bcd60e51b8152600401808060200182810382526033815260200180615f276033913960400191505060405180910390fd5b601580546001600160a01b0319166001600160a01b0392909216919091179055565b60075481565b60155460408051636605dfa760e01b815290516000926001600160a01b031691636605dfa7916004808301926020929190829003018186803b15801561295757600080fd5b505afa15801561296b573d6000803e3d6000fd5b505050506040513d602081101561298157600080fd5b5051905090565b600080546001600160a01b031633146129a7576117df60016012613fd0565b6001600160a01b03821660009081526009602052604090205460ff16156129d4576117df600a6011613fd0565b816001600160a01b031663fe9c44ae6040518163ffffffff1660e01b815260040160206040518083038186803b158015612a0d57600080fd5b505afa158015612a21573d6000803e3d6000fd5b505050506040513d6020811015612a3757600080fd5b5050604080516060810182526001808252600060208381018281528486018381526001600160a01b03891684526009909252949091209251835490151560ff19918216178455935191830191909155516003909101805491151591909216179055612aa182614d42565b604080516001600160a01b038416815290517fcf583bb0c569eb967f806b11601c4cb93c10310485c67add5f8362c2f212321f9181900360200190a1600092915050565b6a0c097ce7bc90715b34b9f160241b81565b600e5481565b60608060086000846001600160a01b03166001600160a01b03168152602001908152602001600020805480602002602001604051908101604052809291908181526020018280548015612b7957602002820191906000526020600020905b81546001600160a01b03168152600190910190602001808311612b5b575b5093979650505050505050565b600a54600160b81b900460ff1681565b6060600d805480602002602001604051908101604052809291908181526020018280548015612bee57602002820191906000526020600020905b81546001600160a01b03168152600190910190602001808311612bd0575b5050505050905090565b601260209081526000928352604080842090915290825290205481565b6002546001600160a01b031681565b600a54600090600160b01b900460ff1615612c7b576040805162461bcd60e51b81526020600482015260126024820152711d1c985b9cd9995c881a5cc81c185d5cd95960721b604482015290519081900360640190fd5b6000612c88868685614e20565b90508015612c9757905061166b565b612ca0866144ec565b612cac86866000614767565b61166586856000614767565b6060600082519050606081604051908082528060200260200182016040528015612cec578160200160208202803883390190505b50905060005b82811015612d47576000858281518110612d0857fe5b60200260200101519050612d1c8133614ec3565b6011811115612d2757fe5b838381518110612d3357fe5b602090810291909101015250600101612cf2565b509392505050565b600480546040805163fc57d4df60e01b81526001600160a01b038781169482019490945290516000938493849391169163fc57d4df91602480820192602092909190829003018186803b158015612da557600080fd5b505afa158015612db9573d6000803e3d6000fd5b505050506040513d6020811015612dcf57600080fd5b5051600480546040805163fc57d4df60e01b81526001600160a01b038a8116948201949094529051939450600093929091169163fc57d4df91602480820192602092909190829003018186803b158015612e2857600080fd5b505afa158015612e3c573d6000803e3d6000fd5b505050506040513d6020811015612e5257600080fd5b50519050811580612e61575080155b15612e7657600d935060009250612fbc915050565b6000866001600160a01b031663182df0f56040518163ffffffff1660e01b815260040160206040518083038186803b158015612eb157600080fd5b505afa158015612ec5573d6000803e3d6000fd5b505050506040513d6020811015612edb57600080fd5b505190506000612ee9615d6a565b612ef1615d6a565b612ef9615d6a565b6000612f0760065489614fe4565b945090506000816003811115612f1957fe5b14612f3557600b5b995060009850612fbc975050505050505050565b612f3f8787614fe4565b935090506000816003811115612f5157fe5b14612f5d57600b612f21565b612f67848461501f565b925090506000816003811115612f7957fe5b14612f8557600b612f21565b612f8f828c61497e565b955090506000816003811115612fa157fe5b14612fad57600b612f21565b60009950939750505050505050505b935093915050565b601360209081526000928352604080842090915290825290205481565b60146020526000908152604090205481565b612ffb6149d2565b61304c576040805162461bcd60e51b815260206004820152601e60248201527f6f6e6c792061646d696e2063616e2061646420636f6d70206d61726b65740000604482015290519081900360640190fd5b60005b815181101561307c5761307482828151811061306757fe5b60200260200101516149fb565b60010161304f565b5061158e614045565b600a54600090600160b81b900460ff16156130d9576040805162461bcd60e51b815260206004820152600f60248201526e1cd95a5e99481a5cc81c185d5cd959608a1b604482015290519081900360640190fd5b6001600160a01b03861660009081526009602052604090205460ff16158061311a57506001600160a01b03851660009081526009602052604090205460ff16155b156131265760096120a5565b846001600160a01b0316635fe3b5676040518163ffffffff1660e01b815260040160206040518083038186803b15801561315f57600080fd5b505afa158015613173573d6000803e3d6000fd5b505050506040513d602081101561318957600080fd5b505160408051635fe3b56760e01b815290516001600160a01b0392831692891691635fe3b567916004808301926020929190829003018186803b1580156131cf57600080fd5b505afa1580156131e3573d6000803e3d6000fd5b505050506040513d60208110156131f957600080fd5b50516001600160a01b0316146132105760026120a5565b613219866144ec565b61322586846000614767565b61323186856000614767565b60009695505050505050565b600080546001600160a01b0316331461325c576117df6001600d613fd0565b6007805490839055604080518281526020810185905281517f7093cf1eb653f749c3ff531d6df7f92764536a7fa0d13530cd26e070780c32ea929181900390910190a16000611da1565b6001600160a01b0383166000908152600c602052604081205460ff1615613307576040805162461bcd60e51b815260206004820152601060248201526f189bdc9c9bddc81a5cc81c185d5cd95960821b604482015290519081900360640190fd5b6001600160a01b03841660009081526009602052604090205460ff1661332e576009611d7f565b6001600160a01b038085166000908152600960209081526040808320938716835260029093019052205460ff1661341e57336001600160a01b038516146133b4576040805162461bcd60e51b815260206004820152601560248201527439b2b73232b91036bab9ba1031329031aa37b5b2b760591b604482015290519081900360640190fd5b60006133c03385614ec3565b905060008160118111156133d057fe5b146133e9578060118111156133e157fe5b915050611da1565b6001600160a01b038086166000908152600960209081526040808320938816835260029093019052205460ff1661341c57fe5b505b600480546040805163fc57d4df60e01b81526001600160a01b03888116948201949094529051929091169163fc57d4df91602480820192602092909190829003018186803b15801561346f57600080fd5b505afa158015613483573d6000803e3d6000fd5b505050506040513d602081101561349957600080fd5b50516134a657600d611d7f565b6000806134b685876000876140d1565b919350909150600090508260118111156134cc57fe5b146134e6578160118111156134dd57fe5b92505050611da1565b80156134f35760046134dd565b6134fb615d6a565b6040518060200160405280886001600160a01b031663aa5af0fd6040518163ffffffff1660e01b815260040160206040518083038186803b15801561353f57600080fd5b505afa158015613553573d6000803e3d6000fd5b505050506040513d602081101561356957600080fd5b5051905290506135798782613b60565b6135868787836000613de5565b6000979650505050505050565b600860205281600052604060002081815481106135ac57fe5b6000918252602090912001546001600160a01b03169150829050565b6003546001600160a01b031681565b600080546001600160a01b031633146135fd576135f660016006613fd0565b90506113ca565b6001600160a01b0383166000908152600960205260409020805460ff166136325761362a60096007613fd0565b9150506113ca565b61363a615d6a565b506040805160208101909152838152613651615d6a565b506040805160208101909152670c7d713b49da00008152613672818361403e565b1561368d5761368360066008613fd0565b93505050506113ca565b84158015906137165750600480546040805163fc57d4df60e01b81526001600160a01b038a8116948201949094529051929091169163fc57d4df91602480820192602092909190829003018186803b1580156136e857600080fd5b505afa1580156136fc573d6000803e3d6000fd5b505050506040513d602081101561371257600080fd5b5051155b1561372757613683600d6009613fd0565b60018301805490869055604080516001600160a01b03891681526020810183905280820188905290517f70483e6592cd5182d45ac970e05bc62cdcc90e9d8ef2c2dbe686cf383bcd7fc59181900360600190a16000979650505050505050565b600a54600160a81b900460ff1681565b60055481565b61158e81600d8054806020026020016040519081016040528092919081815260200182805480156137f757602002820191906000526020600020905b81546001600160a01b031681526001909101906020018083116137d9575b50505050506113d0565b60008061380f858585614e20565b9050801561381e579050611da1565b613827856144ec565b61383385856000614767565b600095945050505050565b6000808290506000806000836001600160a01b031663c37f68e2336040518263ffffffff1660e01b815260040180826001600160a01b03166001600160a01b0316815260200191505060806040518083038186803b15801561389f57600080fd5b505afa1580156138b3573d6000803e3d6000fd5b505050506040513d60808110156138c957600080fd5b50805160208201516040909201519094509092509050821561391c5760405162461bcd60e51b8152600401808060200182810382526025815260200180615f5a6025913960400191505060405180910390fd5b80156139395761392e600c6002613fd0565b9450505050506117bb565b6000613946873385614e20565b905080156139675761395b600e600383615037565b955050505050506117bb565b6001600160a01b0385166000908152600960209081526040808320338452600281019092529091205460ff166139a657600096505050505050506117bb565b3360009081526002820160209081526040808320805460ff191690556008825291829020805483518184028101840190945280845260609392830182828015613a1857602002820191906000526020600020905b81546001600160a01b031681526001909101906020018083116139fa575b5050835193945083925060009150505b82811015613a6d57896001600160a01b0316848281518110613a4657fe5b60200260200101516001600160a01b03161415613a6557809150613a6d565b600101613a28565b50818110613a7757fe5b336000908152600860205260409020805481906000198101908110613a9857fe5b9060005260206000200160009054906101000a90046001600160a01b0316818381548110613ac257fe5b600091825260209091200180546001600160a01b0319166001600160a01b03929092169190911790558054613afb826000198301615d7d565b50604080516001600160a01b038c16815233602082015281517fe699a64c18b07ac5b7301aa273f36a2287239eb9501d81950672794afba29a0d929181900390910190a160009c9b505050505050505050505050565b6000546001600160a01b031681565b6001600160a01b0382166000908152601160209081526040808320600f9092528220549091613b8d611ba6565b8354909150600090613bad908390600160e01b900463ffffffff1661509d565b9050600081118015613bbf5750600083115b15613d8b576000613c34876001600160a01b03166347bd37186040518163ffffffff1660e01b815260040160206040518083038186803b158015613c0257600080fd5b505afa158015613c16573d6000803e3d6000fd5b505050506040513d6020811015613c2c57600080fd5b5051876150d7565b90506000613c4283866150f5565b9050613c4c615d6a565b60008311613c695760405180602001604052806000815250613c73565b613c738284615131565b9050613c7d615d6a565b604080516020810190915288546001600160e01b03168152613c9f908361516e565b90506040518060400160405280613cec83600001516040518060400160405280601a8152602001796e657720696e646578206578636565647320323234206269747360301b815250615193565b6001600160e01b03168152602001613d27886040518060400160405280601c8152602001600080516020615f7f83398151915281525061522d565b63ffffffff9081169091526001600160a01b038c166000908152601160209081526040909120835181549490920151909216600160e01b026001600160e01b039182166001600160e01b0319909416939093171691909117905550611bab92505050565b8015611bab57613dbe826040518060400160405280601c8152602001600080516020615f7f83398151915281525061522d565b845463ffffffff91909116600160e01b026001600160e01b03909116178455505050505050565b6001600160a01b0384166000908152601160205260409020613e05615d6a565b50604080516020810190915281546001600160e01b03168152613e26615d6a565b5060408051602080820183526001600160a01b03808a16600090815260138352848120918a1680825282845294812080548552865195909152915291909155805115613fc757613e74615d6a565b613e7e8383615282565b90506000613f0d896001600160a01b03166395dd91938a6040518263ffffffff1660e01b815260040180826001600160a01b03166001600160a01b0316815260200191505060206040518083038186803b158015613edb57600080fd5b505afa158015613eef573d6000803e3d6000fd5b505050506040513d6020811015613f0557600080fd5b5051886150d7565b90506000613f1b82846152a7565b6001600160a01b038a1660009081526014602052604081205491925090613f429083614d0c565b9050613f638a828a613f5b5766038d7ea4c68000613f5e565b60005b6152d5565b6001600160a01b03808c1660008181526014602090815260409182902094909455895181518781529485015280519193928f16927f1fc3ecc087d8d2d15e23d0032af5a47059c3892d003d8e139fdcb6bb327c99a6929081900390910190a3505050505b50505050505050565b60007f45b96fe442630264581b197e84bbada861235052c5a1aadfff9ea4e40a969aa0836011811115613fff57fe5b83601381111561400b57fe5b604080519283526020830191909152600082820152519081900360600190a1826011811115611da157fe5b519051111590565b5190511090565b601560009054906101000a90046001600160a01b03166001600160a01b0316634bc51e766040518163ffffffff1660e01b815260040160206040518083038186803b15801561409357600080fd5b505afa1580156140a7573d6000803e3d6000fd5b505050506040513d60208110156140bd57600080fd5b5051156140c957611cc1565b611cc1615430565b60008060006140de615da1565b6001600160a01b03881660009081526008602090815260408083208054825181850281018501909352808352849360609392919083018282801561414b57602002820191906000526020600020905b81546001600160a01b0316815260019091019060200180831161412d575b50939450600093505050505b81518110156144a757600082828151811061416e57fe5b60200260200101519050806001600160a01b031663c37f68e28e6040518263ffffffff1660e01b815260040180826001600160a01b03166001600160a01b0316815260200191505060806040518083038186803b1580156141ce57600080fd5b505afa1580156141e2573d6000803e3d6000fd5b505050506040513d60808110156141f857600080fd5b508051602082015160408084015160609485015160808c0152938a0193909352918801919091529450841561423e5750600f975060009650869550611cf3945050505050565b60408051602080820183526001600160a01b0380851660008181526009845285902060010154845260c08b01939093528351808301855260808b0151815260e08b015260048054855163fc57d4df60e01b815291820194909452935192169263fc57d4df9260248083019392829003018186803b1580156142be57600080fd5b505afa1580156142d2573d6000803e3d6000fd5b505050506040513d60208110156142e857600080fd5b505160a0870181905261430c5750600d975060009650869550611cf3945050505050565b604080516020810190915260a08701518152610100870181905260c087015160e0880151614339926157f5565b6101208801529350600084600381111561434f57fe5b1461436b5750600b975060009650869550611cf3945050505050565b6143838661012001518760400151886000015161584d565b87529350600084600381111561439557fe5b146143b15750600b975060009650869550611cf3945050505050565b6143c98661010001518760600151886020015161584d565b6020880152935060008460038111156143de57fe5b146143fa5750600b975060009650869550611cf3945050505050565b8b6001600160a01b0316816001600160a01b0316141561449e576144288661012001518c886020015161584d565b60208801529350600084600381111561443d57fe5b146144595750600b975060009650869550611cf3945050505050565b61446d8661010001518b886020015161584d565b60208801529350600084600381111561448257fe5b1461449e5750600b975060009650869550611cf3945050505050565b50600101614157565b506020840151845111156144ce575050506020810151905160009450039150829050611cf3565b5050815160209092015160009550859450919091039150611cf39050565b6001600160a01b0381166000908152601060209081526040808320600f9092528220549091614519611ba6565b8354909150600090614539908390600160e01b900463ffffffff1661509d565b905060008111801561454b5750600083115b1561470e576000856001600160a01b03166318160ddd6040518163ffffffff1660e01b815260040160206040518083038186803b15801561458b57600080fd5b505afa15801561459f573d6000803e3d6000fd5b505050506040513d60208110156145b557600080fd5b5051905060006145c583866150f5565b90506145cf615d6a565b600083116145ec57604051806020016040528060008152506145f6565b6145f68284615131565b9050614600615d6a565b604080516020810190915288546001600160e01b03168152614622908361516e565b9050604051806040016040528061466f83600001516040518060400160405280601a8152602001796e657720696e646578206578636565647320323234206269747360301b815250615193565b6001600160e01b031681526020016146aa886040518060400160405280601c8152602001600080516020615f7f83398151915281525061522d565b63ffffffff9081169091526001600160a01b038b166000908152601060209081526040909120835181549490920151909216600160e01b026001600160e01b039182166001600160e01b03199094169390931716919091179055506115a392505050565b80156115a357614741826040518060400160405280601c8152602001600080516020615f7f83398151915281525061522d565b845463ffffffff91909116600160e01b026001600160e01b039091161784555050505050565b6001600160a01b0383166000908152601060205260409020614787615d6a565b50604080516020810190915281546001600160e01b031681526147a8615d6a565b5060408051602080820183526001600160a01b038089166000908152601283528481209189168082528284529481208054855286519590915291529190915580511580156147f65750815115155b1561480d576a0c097ce7bc90715b34b9f160241b81525b614815615d6a565b61481f8383615282565b90506000876001600160a01b03166370a08231886040518263ffffffff1660e01b815260040180826001600160a01b03166001600160a01b0316815260200191505060206040518083038186803b15801561487957600080fd5b505afa15801561488d573d6000803e3d6000fd5b505050506040513d60208110156148a357600080fd5b5051905060006148b382846152a7565b6001600160a01b038916600090815260146020526040812054919250906148da9083614d0c565b90506148f389828a613f5b5766038d7ea4c68000613f5e565b6001600160a01b03808b1660008181526014602090815260409182902094909455895181518781529485015280519193928e16927f2caecd17d02f56fa897705dcc740da2d237c373f70686f4e0d9bd3bf0400ea7a929081900390910190a350505050505050505050565b60008060006149718460008060006140d1565b9250925092509193909250565b600080600061498b615d6a565b614995868661589a565b909250905060008260038111156149a857fe5b146149b957509150600090506149cb565b60006149c482615902565b9350935050505b9250929050565b600080546001600160a01b03163314806149f657506002546001600160a01b031633145b905090565b6001600160a01b0381166000908152600960205260409020805460ff161515600114614a6a576040805162461bcd60e51b815260206004820152601960248201527818dbdb5c081b585c9ad95d081a5cc81b9bdd081b1a5cdd1959603a1b604482015290519081900360640190fd5b600381015460ff1615614ac0576040805162461bcd60e51b815260206004820152601960248201527818dbdb5c081b585c9ad95d08185b1c9958591e481859191959603a1b604482015290519081900360640190fd5b60038101805460ff19166001908117909155604080516001600160a01b0385168152602081019290925280517f93c1f3e36ed71139f466a4ce8c9751790e2e33f5afb2df0dcfb3aeabe55d5aa29281900390910190a16001600160a01b0382166000908152601060205260409020546001600160e01b0316158015614b6857506001600160a01b038216600090815260106020526040902054600160e01b900463ffffffff16155b15614c245760405180604001604052806a0c097ce7bc90715b34b9f160241b6001600160e01b03168152602001614bc9614ba0611ba6565b6040518060400160405280601c8152602001600080516020615f7f83398151915281525061522d565b63ffffffff9081169091526001600160a01b0384166000908152601060209081526040909120835181549490920151909216600160e01b026001600160e01b039182166001600160e01b031990941693909317169190911790555b6001600160a01b0382166000908152601160205260409020546001600160e01b0316158015614c7657506001600160a01b038216600090815260116020526040902054600160e01b900463ffffffff16155b156119fc5760405180604001604052806a0c097ce7bc90715b34b9f160241b6001600160e01b03168152602001614cae614ba0611ba6565b63ffffffff9081169091526001600160a01b0384166000908152601160209081526040909120835181549490920151909216600160e01b026001600160e01b039182166001600160e01b031990941693909317169190911790555050565b6000611da18383604051806040016040528060118152602001706164646974696f6e206f766572666c6f7760781b815250615911565b60005b600d54811015614dcd57816001600160a01b0316600d8281548110614d6657fe5b6000918252602090912001546001600160a01b03161415614dc5576040805162461bcd60e51b81526020600482015260146024820152731b585c9ad95d08185b1c9958591e48185919195960621b604482015290519081900360640190fd5b600101614d45565b50600d80546001810182556000919091527fd7b6990105719101dabeb77144f2a3385c8033acd3af97e9423a695e81ad1eb50180546001600160a01b0319166001600160a01b0392909216919091179055565b6001600160a01b03831660009081526009602052604081205460ff16614e47576009611d7f565b6001600160a01b038085166000908152600960209081526040808320938716835260029093019052205460ff16614e7f576000611d7f565b600080614e8f85878660006140d1565b91935090915060009050826011811115614ea557fe5b14614eb6578160118111156134dd57fe5b80156132315760046134dd565b6001600160a01b0382166000908152600960205260408120805460ff16614eee5760099150506113ca565b6001600160a01b038316600090815260028201602052604090205460ff16151560011415614f205760009150506113ca565b6007546001600160a01b03841660009081526008602052604090205410614f4b5760109150506113ca565b6001600160a01b0380841660008181526002840160209081526040808320805460ff19166001908117909155600883528184208054918201815584529282902090920180549489166001600160a01b031990951685179055815193845283019190915280517f3ab23ab0d51cccc0c3085aec51f99228625aa1a922b3a8ca89a26b0f2027a1a59281900390910190a15060009392505050565b6000614fee615d6a565b61501460405180602001604052808681525060405180602001604052808681525061596f565b915091509250929050565b6000615029615d6a565b835183516150149190615a58565b60007f45b96fe442630264581b197e84bbada861235052c5a1aadfff9ea4e40a969aa084601181111561506657fe5b84601381111561507257fe5b604080519283526020830191909152818101859052519081900360600190a1836011811115611d9e57fe5b6000611da18383604051806040016040528060158152602001747375627472616374696f6e20756e646572666c6f7760581b815250615b08565b6000611da16150ee84670de0b6b3a76400006150f5565b8351615b62565b6000611da18383604051806040016040528060178152602001766d756c7469706c69636174696f6e206f766572666c6f7760481b815250615b95565b615139615d6a565b604051806020016040528061516561515f866a0c097ce7bc90715b34b9f160241b6150f5565b85615b62565b90529392505050565b615176615d6a565b604051806020016040528061516585600001518560000151614d0c565b600081600160e01b84106152255760405162461bcd60e51b81526004018080602001828103825283818151815260200191508051906020019080838360005b838110156151ea5781810151838201526020016151d2565b50505050905090810190601f1680156152175780820380516001836020036101000a031916815260200191505b509250505060405180910390fd5b509192915050565b600081600160201b84106152255760405162461bcd60e51b81526020600482018181528351602484015283519092839260449091019190850190808383600083156151ea5781810151838201526020016151d2565b61528a615d6a565b60405180602001604052806151658560000151856000015161509d565b60006a0c097ce7bc90715b34b9f160241b6152c68484600001516150f5565b816152cd57fe5b049392505050565b6000806152e0612912565b90508284101580156152f25750600084115b801561530657506001600160a01b03811615155b1561542757604080516370a0823160e01b8152306004820152905182916000916001600160a01b038416916370a08231916024808301926020929190829003018186803b15801561535657600080fd5b505afa15801561536a573d6000803e3d6000fd5b505050506040513d602081101561538057600080fd5b5051905080861161542457816001600160a01b031663a9059cbb88886040518363ffffffff1660e01b815260040180836001600160a01b03166001600160a01b0316815260200182815260200192505050602060405180830381600087803b1580156153eb57600080fd5b505af11580156153ff573d6000803e3d6000fd5b505050506040513d602081101561541557600080fd5b5060009450611da19350505050565b50505b50919392505050565b6060600d80548060200260200160405190810160405280929190818152602001828054801561548857602002820191906000526020600020905b81546001600160a01b0316815260019091019060200180831161546a575b50939450600093505050505b815181101561554e5760008282815181106154ab57fe5b602002602001015190506154bd615d6a565b6040518060200160405280836001600160a01b031663aa5af0fd6040518163ffffffff1660e01b815260040160206040518083038186803b15801561550157600080fd5b505afa158015615515573d6000803e3d6000fd5b505050506040513d602081101561552b57600080fd5b50519052905061553a826144ec565b6155448282613b60565b5050600101615494565b50615557615d6a565b604051806020016040528060008152509050606082516040519080825280602002602001820160405280156155a657816020015b615593615d6a565b81526020019060019003908161558b5790505b50905060005b835181101561572c5760008482815181106155c357fe5b6020908102919091018101516001600160a01b0381166000908152600990925260409091206003015490915060ff1615615723576155ff615d6a565b60408051602080820180845260045463fc57d4df60e01b9091526001600160a01b03868116602485015293519293849391169163fc57d4df916044808601929190818703018186803b15801561565457600080fd5b505afa158015615668573d6000803e3d6000fd5b505050506040513d602081101561567e57600080fd5b50519052905061568c615d6a565b6156fa82846001600160a01b03166347bd37186040518163ffffffff1660e01b815260040160206040518083038186803b1580156156c957600080fd5b505afa1580156156dd573d6000803e3d6000fd5b505050506040513d60208110156156f357600080fd5b5051615c0b565b90508085858151811061570957fe5b602002602001018190525061571e868261516e565b955050505b506001016155ac565b5060005b8351811015611ba0576000600d828154811061574857fe5b600091825260208220015485516001600160a01b03909116925061576d576000615795565b615795600e5461579086868151811061578257fe5b602002602001015188615c2c565b615c5f565b6001600160a01b0383166000818152600f60209081526040918290208490558151848152915193945091927f2ab93f65628379309f36cb125e90d7c902454a545c4f8b8cb0794af75c24b807929181900390910190a25050600101615730565b60006157ff615d6a565b6000615809615d6a565b615813878761596f565b9092509050600082600381111561582657fe5b14615835579092509050612fbc565b61583f818661596f565b935093505050935093915050565b600080600061585a615d6a565b615864878761589a565b9092509050600082600381111561587757fe5b146158885750915060009050612fbc565b61583f61589482615902565b86615c78565b60006158a4615d6a565b6000806158b5866000015186615c9e565b909250905060008260038111156158c857fe5b146158e7575060408051602081019091526000815290925090506149cb565b60408051602081019091529081526000969095509350505050565b51670de0b6b3a7640000900490565b600083830182858210156159665760405162461bcd60e51b81526020600482018181528351602484015283519092839260449091019190850190808383600083156151ea5781810151838201526020016151d2565b50949350505050565b6000615979615d6a565b60008061598e86600001518660000151615c9e565b909250905060008260038111156159a157fe5b146159c0575060408051602081019091526000815290925090506149cb565b6000806159d56706f05b59d3b2000084615c78565b909250905060008260038111156159e857fe5b14615a0a575060408051602081019091526000815290945092506149cb915050565b600080615a1f83670de0b6b3a7640000615cdd565b90925090506000826003811115615a3257fe5b14615a3957fe5b604080516020810190915290815260009a909950975050505050505050565b6000615a62615d6a565b600080615a7786670de0b6b3a7640000615c9e565b90925090506000826003811115615a8a57fe5b14615aa9575060408051602081019091526000815290925090506149cb565b600080615ab68388615cdd565b90925090506000826003811115615ac957fe5b14615aeb575060408051602081019091526000815290945092506149cb915050565b604080516020810190915290815260009890975095505050505050565b60008184841115615b5a5760405162461bcd60e51b81526020600482018181528351602484015283519092839260449091019190850190808383600083156151ea5781810151838201526020016151d2565b505050900390565b6000611da183836040518060400160405280600e81526020016d646976696465206279207a65726f60901b815250615d08565b6000831580615ba2575082155b15615baf57506000611da1565b83830283858281615bbc57fe5b041483906159665760405162461bcd60e51b81526020600482018181528351602484015283519092839260449091019190850190808383600083156151ea5781810151838201526020016151d2565b615c13615d6a565b60405180602001604052806151658560000151856150f5565b615c34615d6a565b6040518060200160405280615165615c588660000151670de0b6b3a76400006150f5565b8551615b62565b6000670de0b6b3a76400006152c68484600001516150f5565b600080838301848110615c90576000925090506149cb565b5060029150600090506149cb565b60008083615cb1575060009050806149cb565b83830283858281615cbe57fe5b0414615cd2575060029150600090506149cb565b6000925090506149cb565b60008082615cf157506001905060006149cb565b6000838581615cfc57fe5b04915091509250929050565b60008183615d575760405162461bcd60e51b81526020600482018181528351602484015283519092839260449091019190850190808383600083156151ea5781810151838201526020016151d2565b50828481615d6157fe5b04949350505050565b6040518060200160405280600081525090565b81548183558181111561142d5760008381526020902061142d918101908301615e0b565b604051806101400160405280600081526020016000815260200160008152602001600081526020016000815260200160008152602001615ddf615d6a565b8152602001615dec615d6a565b8152602001615df9615d6a565b8152602001615e06615d6a565b905290565b611ba891905b80821115615e255760008155600101615e11565b509056fe63616e6e6f742070617573652061206d61726b65742074686174206973206e6f74206c69737465644d7573742075706461746520746f6b656e20646973747269627574696f6e2077697468696e206f6e65207472616e73616374696f6e6f6e6c792065787465726e616c6c79206f776e6564206163636f756e7473206d61792072656672657368207370656564734f6e6c792061646d696e2063616e2075706461746520746f6b656e20646973747269627574696f6e6f6e6c792061646d696e2063616e20756e7061757365000000000000000000006f6e6c7920706175736520677561726469616e20616e642061646d696e2063616e2070617573654f6e6c792061646d696e2063616e2073657420717569636b2073696c76657220636f6e66696775726174696f6e20646174612e657869744d61726b65743a206765744163636f756e74536e617073686f74206661696c6564626c6f636b206e756d62657220657863656564732033322062697473000000006f6e6c7920756e6974726f6c6c65722061646d696e2063616e206368616e676520627261696e73a265627a7a72315820af4ec5366bec57e517452eea1a1d351eb7b4ad2d37d2a5409fa4870a12c85f9864736f6c63430005100032",
  "source": "pragma solidity ^0.5.16;\n\nimport \"./compound/Comptroller.sol\";\nimport \"./compound/EIP20Interface.sol\";\nimport \"./QsConfig.sol\";\n\ncontract Qstroller is Comptroller {\n    QsConfig public qsConfig;\n\n    function _setQsConfig(QsConfig _qsConfig) public {\n        require(msg.sender == admin, \"Only admin can set quick silver configuration data.\");\n\n        qsConfig = _qsConfig;\n    }\n\n    /**\n     * @notice Sets new governance token distribution speed\n     * @dev Admin function to set new token distribution speed\n     */\n    function _setCompSpeeds(address[] memory _allMarkets, uint[] memory _compSpeeds) public {\n        // Check caller is admin\n        require(msg.sender == admin, \"Only admin can update token distribution\");\n        \n        require(_allMarkets.length == _compSpeeds.length, \"Incomplete parameter\");\n        require(allMarkets.length == _allMarkets.length, \"Must update token distribution within one transaction\");\n\n        uint _compRate = 0;\n        for (uint i = 0; i < _allMarkets.length; i++) {\n            address cToken = _allMarkets[i];\n            Market storage market = markets[cToken];\n            if (market.isComped == false) {\n                _addCompMarketInternal(cToken);\n            }\n            compSpeeds[cToken] = _compSpeeds[i];\n            _compRate = add_(_compRate, _compSpeeds[i]);\n        }\n        _setCompRate(_compRate);\n    }\n\n\n    function refreshCompSpeeds() public {\n        require(!qsConfig.compSpeedGuardianPaused(), \"compSpeed is paused\");\n        require(msg.sender == tx.origin, \"only externally owned accounts may refresh speeds\");\n\n        refreshCompSpeedsInternal();\n    }\n\n    function refreshCompSpeedsInternal() internal {\n        if (qsConfig.compSpeedGuardianPaused()) {\n            return;\n        } else {\n            super.refreshCompSpeedsInternal();\n        }\n    }\n\n    function getCompAddress() public view returns (address) {\n        return qsConfig.compToken();\n    }\n    \n    function calculateSeizeTokenAllocation(uint _seizeTokenAmount) public view returns(uint liquidatorAmount, uint safetyVaultAmount) {\n        return qsConfig.calculateSeizeTokenAllocation(_seizeTokenAmount, liquidationIncentiveMantissa);\n    }\n    \n    function transferComp(address user, uint userAccrued, uint threshold) internal returns (uint) {\n        address compAddress = getCompAddress();\n        if (userAccrued >= threshold && userAccrued > 0 && compAddress != address(0x0)) {\n            EIP20Interface comp = EIP20Interface(compAddress);\n            uint compRemaining = comp.balanceOf(address(this));\n            if (userAccrued <= compRemaining) {\n                comp.transfer(user, userAccrued);\n                return 0;\n            }\n        }\n        return userAccrued;\n    }\n}",
  "sourcePath": "/Users/songsjun/Workspace/Quicksilver/quicksilver-protocol/contracts/Qstroller.sol",
  "compiler": {
    "name": "solc",
    "version": "0.5.16+commit.9c3226ce.Emscripten.clang"
  },
  "schemaVersion": "3.2.5",
  "updatedAt": "2021-01-02T13:37:46.277Z",
  "devdoc": {
    "methods": {
      "_addCompMarkets(address[])": {
        "params": {
          "cTokens": "The addresses of the markets to add"
        }
      },
      "_dropCompMarket(address)": {
        "params": {
          "cToken": "The address of the market to drop"
        }
      },
      "_setCloseFactor(uint256)": {
        "details": "Admin function to set closeFactor",
        "params": {
          "newCloseFactorMantissa": "New close factor, scaled by 1e18"
        },
        "return": "uint 0=success, otherwise a failure. (See ErrorReporter for details)"
      },
      "_setCollateralFactor(address,uint256)": {
        "details": "Admin function to set per-market collateralFactor",
        "params": {
          "cToken": "The market to set the factor on",
          "newCollateralFactorMantissa": "The new collateral factor, scaled by 1e18"
        },
        "return": "uint 0=success, otherwise a failure. (See ErrorReporter for details)"
      },
      "_setCompRate(uint256)": {
        "params": {
          "compRate_": "The amount of COMP wei per block to distribute"
        }
      },
      "_setCompSpeeds(address[],uint256[])": {
        "details": "Admin function to set new token distribution speed"
      },
      "_setLiquidationIncentive(uint256)": {
        "details": "Admin function to set liquidationIncentive",
        "params": {
          "newLiquidationIncentiveMantissa": "New liquidationIncentive scaled by 1e18"
        },
        "return": "uint 0=success, otherwise a failure. (See ErrorReporter for details)"
      },
      "_setMaxAssets(uint256)": {
        "details": "Admin function to set maxAssets",
        "params": {
          "newMaxAssets": "New max assets"
        },
        "return": "uint 0=success, otherwise a failure. (See ErrorReporter for details)"
      },
      "_setPauseGuardian(address)": {
        "params": {
          "newPauseGuardian": "The address of the new Pause Guardian"
        },
        "return": "uint 0=success, otherwise a failure. (See enum Error for details)"
      },
      "_setPriceOracle(address)": {
        "details": "Admin function to set a new price oracle",
        "return": "uint 0=success, otherwise a failure (see ErrorReporter.sol for details)"
      },
      "_supportMarket(address)": {
        "details": "Admin function to set isListed and add support for the market",
        "params": {
          "cToken": "The address of the market (token) to list"
        },
        "return": "uint 0=success, otherwise a failure. (See enum Error for details)"
      },
      "borrowAllowed(address,address,uint256)": {
        "params": {
          "borrowAmount": "The amount of underlying the account would borrow",
          "borrower": "The account which would borrow the asset",
          "cToken": "The market to verify the borrow against"
        },
        "return": "0 if the borrow is allowed, otherwise a semi-opaque error code (See ErrorReporter.sol)"
      },
      "borrowVerify(address,address,uint256)": {
        "params": {
          "borrowAmount": "The amount of the underlying asset requested to borrow",
          "borrower": "The address borrowing the underlying",
          "cToken": "Asset whose underlying is being borrowed"
        }
      },
      "checkMembership(address,address)": {
        "params": {
          "account": "The address of the account to check",
          "cToken": "The cToken to check"
        },
        "return": "True if the account is in the asset, otherwise false."
      },
      "claimComp(address)": {
        "params": {
          "holder": "The address to claim COMP for"
        }
      },
      "claimComp(address,address[])": {
        "params": {
          "cTokens": "The list of markets to claim COMP in",
          "holder": "The address to claim COMP for"
        }
      },
      "claimComp(address[],address[],bool,bool)": {
        "params": {
          "borrowers": "Whether or not to claim COMP earned by borrowing",
          "cTokens": "The list of markets to claim COMP in",
          "holders": "The addresses to claim COMP for",
          "suppliers": "Whether or not to claim COMP earned by supplying"
        }
      },
      "enterMarkets(address[])": {
        "params": {
          "cTokens": "The list of addresses of the cToken markets to be enabled"
        },
        "return": "Success indicator for whether each corresponding market was entered"
      },
      "exitMarket(address)": {
        "details": "Sender must not have an outstanding borrow balance in the asset, or be providing necessary collateral for an outstanding borrow.",
        "params": {
          "cTokenAddress": "The address of the asset to be removed"
        },
        "return": "Whether or not the account successfully exited the market"
      },
      "getAccountLiquidity(address)": {
        "return": "(possible error code (semi-opaque), account liquidity in excess of collateral requirements,         account shortfall below collateral requirements)"
      },
      "getAllMarkets()": {
        "details": "The automatic getter may be used to access an individual market.",
        "return": "The list of market addresses"
      },
      "getAssetsIn(address)": {
        "params": {
          "account": "The address of the account to pull assets for"
        },
        "return": "A dynamic list with the assets the account has entered"
      },
      "getHypotheticalAccountLiquidity(address,address,uint256,uint256)": {
        "params": {
          "account": "The account to determine liquidity for",
          "borrowAmount": "The amount of underlying to hypothetically borrow",
          "cTokenModify": "The market to hypothetically redeem/borrow in",
          "redeemTokens": "The number of tokens to hypothetically redeem"
        },
        "return": "(possible error code (semi-opaque), hypothetical account liquidity in excess of collateral requirements,         hypothetical account shortfall below collateral requirements)"
      },
      "liquidateBorrowAllowed(address,address,address,address,uint256)": {
        "params": {
          "borrower": "The address of the borrower",
          "cTokenBorrowed": "Asset which was borrowed by the borrower",
          "cTokenCollateral": "Asset which was used as collateral and will be seized",
          "liquidator": "The address repaying the borrow and seizing the collateral",
          "repayAmount": "The amount of underlying being repaid"
        }
      },
      "liquidateBorrowVerify(address,address,address,address,uint256,uint256)": {
        "params": {
          "actualRepayAmount": "The amount of underlying being repaid",
          "borrower": "The address of the borrower",
          "cTokenBorrowed": "Asset which was borrowed by the borrower",
          "cTokenCollateral": "Asset which was used as collateral and will be seized",
          "liquidator": "The address repaying the borrow and seizing the collateral"
        }
      },
      "liquidateCalculateSeizeTokens(address,address,uint256)": {
        "details": "Used in liquidation (called in cToken.liquidateBorrowFresh)",
        "params": {
          "actualRepayAmount": "The amount of cTokenBorrowed underlying to convert into cTokenCollateral tokens",
          "cTokenBorrowed": "The address of the borrowed cToken",
          "cTokenCollateral": "The address of the collateral cToken"
        },
        "return": "(errorCode, number of cTokenCollateral tokens to be seized in a liquidation)"
      },
      "mintAllowed(address,address,uint256)": {
        "params": {
          "cToken": "The market to verify the mint against",
          "mintAmount": "The amount of underlying being supplied to the market in exchange for tokens",
          "minter": "The account which would get the minted tokens"
        },
        "return": "0 if the mint is allowed, otherwise a semi-opaque error code (See ErrorReporter.sol)"
      },
      "mintVerify(address,address,uint256,uint256)": {
        "params": {
          "actualMintAmount": "The amount of the underlying asset being minted",
          "cToken": "Asset being minted",
          "mintTokens": "The number of tokens being minted",
          "minter": "The address minting the tokens"
        }
      },
      "redeemAllowed(address,address,uint256)": {
        "params": {
          "cToken": "The market to verify the redeem against",
          "redeemTokens": "The number of cTokens to exchange for the underlying asset in the market",
          "redeemer": "The account which would redeem the tokens"
        },
        "return": "0 if the redeem is allowed, otherwise a semi-opaque error code (See ErrorReporter.sol)"
      },
      "redeemVerify(address,address,uint256,uint256)": {
        "params": {
          "cToken": "Asset being redeemed",
          "redeemAmount": "The amount of the underlying asset being redeemed",
          "redeemTokens": "The number of tokens being redeemed",
          "redeemer": "The address redeeming the tokens"
        }
      },
      "repayBorrowAllowed(address,address,address,uint256)": {
        "params": {
          "borrower": "The account which would borrowed the asset",
          "cToken": "The market to verify the repay against",
          "payer": "The account which would repay the asset",
          "repayAmount": "The amount of the underlying asset the account would repay"
        },
        "return": "0 if the repay is allowed, otherwise a semi-opaque error code (See ErrorReporter.sol)"
      },
      "repayBorrowVerify(address,address,address,uint256,uint256)": {
        "params": {
          "actualRepayAmount": "The amount of underlying being repaid",
          "borrower": "The address of the borrower",
          "cToken": "Asset being repaid",
          "payer": "The address repaying the borrow"
        }
      },
      "seizeAllowed(address,address,address,address,uint256)": {
        "params": {
          "borrower": "The address of the borrower",
          "cTokenBorrowed": "Asset which was borrowed by the borrower",
          "cTokenCollateral": "Asset which was used as collateral and will be seized",
          "liquidator": "The address repaying the borrow and seizing the collateral",
          "seizeTokens": "The number of collateral tokens to seize"
        }
      },
      "seizeVerify(address,address,address,address,uint256)": {
        "params": {
          "borrower": "The address of the borrower",
          "cTokenBorrowed": "Asset which was borrowed by the borrower",
          "cTokenCollateral": "Asset which was used as collateral and will be seized",
          "liquidator": "The address repaying the borrow and seizing the collateral",
          "seizeTokens": "The number of collateral tokens to seize"
        }
      },
      "transferAllowed(address,address,address,uint256)": {
        "params": {
          "cToken": "The market to verify the transfer against",
          "dst": "The account which receives the tokens",
          "src": "The account which sources the tokens",
          "transferTokens": "The number of cTokens to transfer"
        },
        "return": "0 if the transfer is allowed, otherwise a semi-opaque error code (See ErrorReporter.sol)"
      },
      "transferVerify(address,address,address,uint256)": {
        "params": {
          "cToken": "Asset being transferred",
          "dst": "The account which receives the tokens",
          "src": "The account which sources the tokens",
          "transferTokens": "The number of cTokens to transfer"
        }
      }
    }
  },
  "userdoc": {
    "methods": {
      "_addCompMarkets(address[])": {
        "notice": "Add markets to compMarkets, allowing them to earn COMP in the flywheel"
      },
      "_dropCompMarket(address)": {
        "notice": "Remove a market from compMarkets, preventing it from earning COMP in the flywheel"
      },
      "_setCloseFactor(uint256)": {
        "notice": "Sets the closeFactor used when liquidating borrows"
      },
      "_setCollateralFactor(address,uint256)": {
        "notice": "Sets the collateralFactor for a market"
      },
      "_setCompRate(uint256)": {
        "notice": "Set the amount of COMP distributed per block"
      },
      "_setCompSpeeds(address[],uint256[])": {
        "notice": "Sets new governance token distribution speed"
      },
      "_setLiquidationIncentive(uint256)": {
        "notice": "Sets liquidationIncentive"
      },
      "_setMaxAssets(uint256)": {
        "notice": "Sets maxAssets which controls how many markets can be entered"
      },
      "_setPauseGuardian(address)": {
        "notice": "Admin function to change the Pause Guardian"
      },
      "_setPriceOracle(address)": {
        "notice": "Sets a new price oracle for the comptroller"
      },
      "_supportMarket(address)": {
        "notice": "Add the market to the markets mapping and set it as listed"
      },
      "borrowAllowed(address,address,uint256)": {
        "notice": "Checks if the account should be allowed to borrow the underlying asset of the given market"
      },
      "borrowVerify(address,address,uint256)": {
        "notice": "Validates borrow and reverts on rejection. May emit logs."
      },
      "checkMembership(address,address)": {
        "notice": "Returns whether the given account is entered in the given asset"
      },
      "claimComp(address)": {
        "notice": "Claim all the comp accrued by holder in all markets"
      },
      "claimComp(address,address[])": {
        "notice": "Claim all the comp accrued by holder in the specified markets"
      },
      "claimComp(address[],address[],bool,bool)": {
        "notice": "Claim all comp accrued by the holders"
      },
      "enterMarkets(address[])": {
        "notice": "Add assets to be included in account liquidity calculation"
      },
      "exitMarket(address)": {
        "notice": "Removes asset from sender's account liquidity calculation"
      },
      "getAccountLiquidity(address)": {
        "notice": "Determine the current account liquidity wrt collateral requirements"
      },
      "getAllMarkets()": {
        "notice": "Return all of the markets"
      },
      "getAssetsIn(address)": {
        "notice": "Returns the assets an account has entered"
      },
      "getHypotheticalAccountLiquidity(address,address,uint256,uint256)": {
        "notice": "Determine what the account liquidity would be if the given amounts were redeemed/borrowed"
      },
      "liquidateBorrowAllowed(address,address,address,address,uint256)": {
        "notice": "Checks if the liquidation should be allowed to occur"
      },
      "liquidateBorrowVerify(address,address,address,address,uint256,uint256)": {
        "notice": "Validates liquidateBorrow and reverts on rejection. May emit logs."
      },
      "liquidateCalculateSeizeTokens(address,address,uint256)": {
        "notice": "Calculate number of tokens of collateral asset to seize given an underlying amount"
      },
      "mintAllowed(address,address,uint256)": {
        "notice": "Checks if the account should be allowed to mint tokens in the given market"
      },
      "mintVerify(address,address,uint256,uint256)": {
        "notice": "Validates mint and reverts on rejection. May emit logs."
      },
      "redeemAllowed(address,address,uint256)": {
        "notice": "Checks if the account should be allowed to redeem tokens in the given market"
      },
      "redeemVerify(address,address,uint256,uint256)": {
        "notice": "Validates redeem and reverts on rejection. May emit logs."
      },
      "repayBorrowAllowed(address,address,address,uint256)": {
        "notice": "Checks if the account should be allowed to repay a borrow in the given market"
      },
      "repayBorrowVerify(address,address,address,uint256,uint256)": {
        "notice": "Validates repayBorrow and reverts on rejection. May emit logs."
      },
      "seizeAllowed(address,address,address,address,uint256)": {
        "notice": "Checks if the seizing of assets should be allowed to occur"
      },
      "seizeVerify(address,address,address,address,uint256)": {
        "notice": "Validates seize and reverts on rejection. May emit logs."
      },
      "transferAllowed(address,address,address,uint256)": {
        "notice": "Checks if the account should be allowed to transfer tokens in the given market"
      },
      "transferVerify(address,address,address,uint256)": {
        "notice": "Validates transfer and reverts on rejection. May emit logs."
      }
    }
  }
}