{
  "contractName": "Qstroller",
  "abi": [
    {
      "anonymous": false,
      "inputs": [
        {
          "indexed": false,
          "internalType": "string",
          "name": "action",
          "type": "string"
        },
        {
          "indexed": false,
          "internalType": "bool",
          "name": "pauseState",
          "type": "bool"
        }
      ],
      "name": "ActionPaused",
      "type": "event"
    },
    {
      "anonymous": false,
      "inputs": [
        {
          "indexed": false,
          "internalType": "contract CToken",
          "name": "cToken",
          "type": "address"
        },
        {
          "indexed": false,
          "internalType": "string",
          "name": "action",
          "type": "string"
        },
        {
          "indexed": false,
          "internalType": "bool",
          "name": "pauseState",
          "type": "bool"
        }
      ],
      "name": "ActionPaused",
      "type": "event"
    },
    {
      "anonymous": false,
      "inputs": [
        {
          "indexed": true,
          "internalType": "contract CToken",
          "name": "cToken",
          "type": "address"
        },
        {
          "indexed": false,
          "internalType": "uint256",
          "name": "newSpeed",
          "type": "uint256"
        }
      ],
      "name": "CompSpeedUpdated",
      "type": "event"
    },
    {
      "anonymous": false,
      "inputs": [
        {
          "indexed": true,
          "internalType": "contract CToken",
          "name": "cToken",
          "type": "address"
        },
        {
          "indexed": true,
          "internalType": "address",
          "name": "borrower",
          "type": "address"
        },
        {
          "indexed": false,
          "internalType": "uint256",
          "name": "compDelta",
          "type": "uint256"
        },
        {
          "indexed": false,
          "internalType": "uint256",
          "name": "compBorrowIndex",
          "type": "uint256"
        }
      ],
      "name": "DistributedBorrowerComp",
      "type": "event"
    },
    {
      "anonymous": false,
      "inputs": [
        {
          "indexed": true,
          "internalType": "contract CToken",
          "name": "cToken",
          "type": "address"
        },
        {
          "indexed": true,
          "internalType": "address",
          "name": "supplier",
          "type": "address"
        },
        {
          "indexed": false,
          "internalType": "uint256",
          "name": "compDelta",
          "type": "uint256"
        },
        {
          "indexed": false,
          "internalType": "uint256",
          "name": "compSupplyIndex",
          "type": "uint256"
        }
      ],
      "name": "DistributedSupplierComp",
      "type": "event"
    },
    {
      "anonymous": false,
      "inputs": [
        {
          "indexed": false,
          "internalType": "uint256",
          "name": "error",
          "type": "uint256"
        },
        {
          "indexed": false,
          "internalType": "uint256",
          "name": "info",
          "type": "uint256"
        },
        {
          "indexed": false,
          "internalType": "uint256",
          "name": "detail",
          "type": "uint256"
        }
      ],
      "name": "Failure",
      "type": "event"
    },
    {
      "anonymous": false,
      "inputs": [
        {
          "indexed": false,
          "internalType": "contract CToken",
          "name": "cToken",
          "type": "address"
        },
        {
          "indexed": false,
          "internalType": "bool",
          "name": "isComped",
          "type": "bool"
        }
      ],
      "name": "MarketComped",
      "type": "event"
    },
    {
      "anonymous": false,
      "inputs": [
        {
          "indexed": false,
          "internalType": "contract CToken",
          "name": "cToken",
          "type": "address"
        },
        {
          "indexed": false,
          "internalType": "address",
          "name": "account",
          "type": "address"
        }
      ],
      "name": "MarketEntered",
      "type": "event"
    },
    {
      "anonymous": false,
      "inputs": [
        {
          "indexed": false,
          "internalType": "contract CToken",
          "name": "cToken",
          "type": "address"
        },
        {
          "indexed": false,
          "internalType": "address",
          "name": "account",
          "type": "address"
        }
      ],
      "name": "MarketExited",
      "type": "event"
    },
    {
      "anonymous": false,
      "inputs": [
        {
          "indexed": false,
          "internalType": "contract CToken",
          "name": "cToken",
          "type": "address"
        }
      ],
      "name": "MarketListed",
      "type": "event"
    },
    {
      "anonymous": false,
      "inputs": [
        {
          "indexed": false,
          "internalType": "uint256",
          "name": "oldCloseFactorMantissa",
          "type": "uint256"
        },
        {
          "indexed": false,
          "internalType": "uint256",
          "name": "newCloseFactorMantissa",
          "type": "uint256"
        }
      ],
      "name": "NewCloseFactor",
      "type": "event"
    },
    {
      "anonymous": false,
      "inputs": [
        {
          "indexed": false,
          "internalType": "contract CToken",
          "name": "cToken",
          "type": "address"
        },
        {
          "indexed": false,
          "internalType": "uint256",
          "name": "oldCollateralFactorMantissa",
          "type": "uint256"
        },
        {
          "indexed": false,
          "internalType": "uint256",
          "name": "newCollateralFactorMantissa",
          "type": "uint256"
        }
      ],
      "name": "NewCollateralFactor",
      "type": "event"
    },
    {
      "anonymous": false,
      "inputs": [
        {
          "indexed": false,
          "internalType": "uint256",
          "name": "oldCompRate",
          "type": "uint256"
        },
        {
          "indexed": false,
          "internalType": "uint256",
          "name": "newCompRate",
          "type": "uint256"
        }
      ],
      "name": "NewCompRate",
      "type": "event"
    },
    {
      "anonymous": false,
      "inputs": [
        {
          "indexed": false,
          "internalType": "uint256",
          "name": "oldLiquidationIncentiveMantissa",
          "type": "uint256"
        },
        {
          "indexed": false,
          "internalType": "uint256",
          "name": "newLiquidationIncentiveMantissa",
          "type": "uint256"
        }
      ],
      "name": "NewLiquidationIncentive",
      "type": "event"
    },
    {
      "anonymous": false,
      "inputs": [
        {
          "indexed": false,
          "internalType": "uint256",
          "name": "oldMaxAssets",
          "type": "uint256"
        },
        {
          "indexed": false,
          "internalType": "uint256",
          "name": "newMaxAssets",
          "type": "uint256"
        }
      ],
      "name": "NewMaxAssets",
      "type": "event"
    },
    {
      "anonymous": false,
      "inputs": [
        {
          "indexed": false,
          "internalType": "address",
          "name": "oldPauseGuardian",
          "type": "address"
        },
        {
          "indexed": false,
          "internalType": "address",
          "name": "newPauseGuardian",
          "type": "address"
        }
      ],
      "name": "NewPauseGuardian",
      "type": "event"
    },
    {
      "anonymous": false,
      "inputs": [
        {
          "indexed": false,
          "internalType": "contract PriceOracle",
          "name": "oldPriceOracle",
          "type": "address"
        },
        {
          "indexed": false,
          "internalType": "contract PriceOracle",
          "name": "newPriceOracle",
          "type": "address"
        }
      ],
      "name": "NewPriceOracle",
      "type": "event"
    },
    {
      "constant": false,
      "inputs": [
        {
          "internalType": "contract Unitroller",
          "name": "unitroller",
          "type": "address"
        }
      ],
      "name": "_become",
      "outputs": [],
      "payable": false,
      "stateMutability": "nonpayable",
      "type": "function"
    },
    {
      "constant": true,
      "inputs": [],
      "name": "_borrowGuardianPaused",
      "outputs": [
        {
          "internalType": "bool",
          "name": "",
          "type": "bool"
        }
      ],
      "payable": false,
      "stateMutability": "view",
      "type": "function"
    },
    {
      "constant": true,
      "inputs": [],
      "name": "_mintGuardianPaused",
      "outputs": [
        {
          "internalType": "bool",
          "name": "",
          "type": "bool"
        }
      ],
      "payable": false,
      "stateMutability": "view",
      "type": "function"
    },
    {
      "constant": false,
      "inputs": [
        {
          "internalType": "contract CToken",
          "name": "cToken",
          "type": "address"
        },
        {
          "internalType": "bool",
          "name": "state",
          "type": "bool"
        }
      ],
      "name": "_setBorrowPaused",
      "outputs": [
        {
          "internalType": "bool",
          "name": "",
          "type": "bool"
        }
      ],
      "payable": false,
      "stateMutability": "nonpayable",
      "type": "function"
    },
    {
      "constant": false,
      "inputs": [
        {
          "internalType": "uint256",
          "name": "newCloseFactorMantissa",
          "type": "uint256"
        }
      ],
      "name": "_setCloseFactor",
      "outputs": [
        {
          "internalType": "uint256",
          "name": "",
          "type": "uint256"
        }
      ],
      "payable": false,
      "stateMutability": "nonpayable",
      "type": "function"
    },
    {
      "constant": false,
      "inputs": [
        {
          "internalType": "contract CToken",
          "name": "cToken",
          "type": "address"
        },
        {
          "internalType": "uint256",
          "name": "newCollateralFactorMantissa",
          "type": "uint256"
        }
      ],
      "name": "_setCollateralFactor",
      "outputs": [
        {
          "internalType": "uint256",
          "name": "",
          "type": "uint256"
        }
      ],
      "payable": false,
      "stateMutability": "nonpayable",
      "type": "function"
    },
    {
      "constant": false,
      "inputs": [
        {
          "internalType": "uint256",
          "name": "newLiquidationIncentiveMantissa",
          "type": "uint256"
        }
      ],
      "name": "_setLiquidationIncentive",
      "outputs": [
        {
          "internalType": "uint256",
          "name": "",
          "type": "uint256"
        }
      ],
      "payable": false,
      "stateMutability": "nonpayable",
      "type": "function"
    },
    {
      "constant": false,
      "inputs": [
        {
          "internalType": "uint256",
          "name": "newMaxAssets",
          "type": "uint256"
        }
      ],
      "name": "_setMaxAssets",
      "outputs": [
        {
          "internalType": "uint256",
          "name": "",
          "type": "uint256"
        }
      ],
      "payable": false,
      "stateMutability": "nonpayable",
      "type": "function"
    },
    {
      "constant": false,
      "inputs": [
        {
          "internalType": "contract CToken",
          "name": "cToken",
          "type": "address"
        },
        {
          "internalType": "bool",
          "name": "state",
          "type": "bool"
        }
      ],
      "name": "_setMintPaused",
      "outputs": [
        {
          "internalType": "bool",
          "name": "",
          "type": "bool"
        }
      ],
      "payable": false,
      "stateMutability": "nonpayable",
      "type": "function"
    },
    {
      "constant": false,
      "inputs": [
        {
          "internalType": "address",
          "name": "newPauseGuardian",
          "type": "address"
        }
      ],
      "name": "_setPauseGuardian",
      "outputs": [
        {
          "internalType": "uint256",
          "name": "",
          "type": "uint256"
        }
      ],
      "payable": false,
      "stateMutability": "nonpayable",
      "type": "function"
    },
    {
      "constant": false,
      "inputs": [
        {
          "internalType": "contract PriceOracle",
          "name": "newOracle",
          "type": "address"
        }
      ],
      "name": "_setPriceOracle",
      "outputs": [
        {
          "internalType": "uint256",
          "name": "",
          "type": "uint256"
        }
      ],
      "payable": false,
      "stateMutability": "nonpayable",
      "type": "function"
    },
    {
      "constant": false,
      "inputs": [
        {
          "internalType": "bool",
          "name": "state",
          "type": "bool"
        }
      ],
      "name": "_setSeizePaused",
      "outputs": [
        {
          "internalType": "bool",
          "name": "",
          "type": "bool"
        }
      ],
      "payable": false,
      "stateMutability": "nonpayable",
      "type": "function"
    },
    {
      "constant": false,
      "inputs": [
        {
          "internalType": "bool",
          "name": "state",
          "type": "bool"
        }
      ],
      "name": "_setTransferPaused",
      "outputs": [
        {
          "internalType": "bool",
          "name": "",
          "type": "bool"
        }
      ],
      "payable": false,
      "stateMutability": "nonpayable",
      "type": "function"
    },
    {
      "constant": false,
      "inputs": [
        {
          "internalType": "contract CToken",
          "name": "cToken",
          "type": "address"
        }
      ],
      "name": "_supportMarket",
      "outputs": [
        {
          "internalType": "uint256",
          "name": "",
          "type": "uint256"
        }
      ],
      "payable": false,
      "stateMutability": "nonpayable",
      "type": "function"
    },
    {
      "constant": true,
      "inputs": [
        {
          "internalType": "address",
          "name": "",
          "type": "address"
        },
        {
          "internalType": "uint256",
          "name": "",
          "type": "uint256"
        }
      ],
      "name": "accountAssets",
      "outputs": [
        {
          "internalType": "contract CToken",
          "name": "",
          "type": "address"
        }
      ],
      "payable": false,
      "stateMutability": "view",
      "type": "function"
    },
    {
      "constant": true,
      "inputs": [],
      "name": "admin",
      "outputs": [
        {
          "internalType": "address",
          "name": "",
          "type": "address"
        }
      ],
      "payable": false,
      "stateMutability": "view",
      "type": "function"
    },
    {
      "constant": true,
      "inputs": [
        {
          "internalType": "uint256",
          "name": "",
          "type": "uint256"
        }
      ],
      "name": "allMarkets",
      "outputs": [
        {
          "internalType": "contract CToken",
          "name": "",
          "type": "address"
        }
      ],
      "payable": false,
      "stateMutability": "view",
      "type": "function"
    },
    {
      "constant": false,
      "inputs": [
        {
          "internalType": "address",
          "name": "cToken",
          "type": "address"
        },
        {
          "internalType": "address",
          "name": "borrower",
          "type": "address"
        },
        {
          "internalType": "uint256",
          "name": "borrowAmount",
          "type": "uint256"
        }
      ],
      "name": "borrowAllowed",
      "outputs": [
        {
          "internalType": "uint256",
          "name": "",
          "type": "uint256"
        }
      ],
      "payable": false,
      "stateMutability": "nonpayable",
      "type": "function"
    },
    {
      "constant": true,
      "inputs": [
        {
          "internalType": "address",
          "name": "",
          "type": "address"
        }
      ],
      "name": "borrowGuardianPaused",
      "outputs": [
        {
          "internalType": "bool",
          "name": "",
          "type": "bool"
        }
      ],
      "payable": false,
      "stateMutability": "view",
      "type": "function"
    },
    {
      "constant": false,
      "inputs": [
        {
          "internalType": "address",
          "name": "cToken",
          "type": "address"
        },
        {
          "internalType": "address",
          "name": "borrower",
          "type": "address"
        },
        {
          "internalType": "uint256",
          "name": "borrowAmount",
          "type": "uint256"
        }
      ],
      "name": "borrowVerify",
      "outputs": [],
      "payable": false,
      "stateMutability": "nonpayable",
      "type": "function"
    },
    {
      "constant": true,
      "inputs": [
        {
          "internalType": "address",
          "name": "account",
          "type": "address"
        },
        {
          "internalType": "contract CToken",
          "name": "cToken",
          "type": "address"
        }
      ],
      "name": "checkMembership",
      "outputs": [
        {
          "internalType": "bool",
          "name": "",
          "type": "bool"
        }
      ],
      "payable": false,
      "stateMutability": "view",
      "type": "function"
    },
    {
      "constant": false,
      "inputs": [
        {
          "internalType": "address",
          "name": "holder",
          "type": "address"
        },
        {
          "internalType": "contract CToken[]",
          "name": "cTokens",
          "type": "address[]"
        }
      ],
      "name": "claimComp",
      "outputs": [],
      "payable": false,
      "stateMutability": "nonpayable",
      "type": "function"
    },
    {
      "constant": false,
      "inputs": [
        {
          "internalType": "address[]",
          "name": "holders",
          "type": "address[]"
        },
        {
          "internalType": "contract CToken[]",
          "name": "cTokens",
          "type": "address[]"
        },
        {
          "internalType": "bool",
          "name": "borrowers",
          "type": "bool"
        },
        {
          "internalType": "bool",
          "name": "suppliers",
          "type": "bool"
        }
      ],
      "name": "claimComp",
      "outputs": [],
      "payable": false,
      "stateMutability": "nonpayable",
      "type": "function"
    },
    {
      "constant": false,
      "inputs": [
        {
          "internalType": "address",
          "name": "holder",
          "type": "address"
        }
      ],
      "name": "claimComp",
      "outputs": [],
      "payable": false,
      "stateMutability": "nonpayable",
      "type": "function"
    },
    {
      "constant": true,
      "inputs": [],
      "name": "closeFactorMantissa",
      "outputs": [
        {
          "internalType": "uint256",
          "name": "",
          "type": "uint256"
        }
      ],
      "payable": false,
      "stateMutability": "view",
      "type": "function"
    },
    {
      "constant": true,
      "inputs": [
        {
          "internalType": "address",
          "name": "",
          "type": "address"
        }
      ],
      "name": "compAccrued",
      "outputs": [
        {
          "internalType": "uint256",
          "name": "",
          "type": "uint256"
        }
      ],
      "payable": false,
      "stateMutability": "view",
      "type": "function"
    },
    {
      "constant": true,
      "inputs": [
        {
          "internalType": "address",
          "name": "",
          "type": "address"
        }
      ],
      "name": "compBorrowState",
      "outputs": [
        {
          "internalType": "uint224",
          "name": "index",
          "type": "uint224"
        },
        {
          "internalType": "uint32",
          "name": "block",
          "type": "uint32"
        }
      ],
      "payable": false,
      "stateMutability": "view",
      "type": "function"
    },
    {
      "constant": true,
      "inputs": [
        {
          "internalType": "address",
          "name": "",
          "type": "address"
        },
        {
          "internalType": "address",
          "name": "",
          "type": "address"
        }
      ],
      "name": "compBorrowerIndex",
      "outputs": [
        {
          "internalType": "uint256",
          "name": "",
          "type": "uint256"
        }
      ],
      "payable": false,
      "stateMutability": "view",
      "type": "function"
    },
    {
      "constant": true,
      "inputs": [],
      "name": "compClaimThreshold",
      "outputs": [
        {
          "internalType": "uint256",
          "name": "",
          "type": "uint256"
        }
      ],
      "payable": false,
      "stateMutability": "view",
      "type": "function"
    },
    {
      "constant": true,
      "inputs": [],
      "name": "compInitialIndex",
      "outputs": [
        {
          "internalType": "uint224",
          "name": "",
          "type": "uint224"
        }
      ],
      "payable": false,
      "stateMutability": "view",
      "type": "function"
    },
    {
      "constant": true,
      "inputs": [],
      "name": "compRate",
      "outputs": [
        {
          "internalType": "uint256",
          "name": "",
          "type": "uint256"
        }
      ],
      "payable": false,
      "stateMutability": "view",
      "type": "function"
    },
    {
      "constant": true,
      "inputs": [
        {
          "internalType": "address",
          "name": "",
          "type": "address"
        }
      ],
      "name": "compSpeeds",
      "outputs": [
        {
          "internalType": "uint256",
          "name": "",
          "type": "uint256"
        }
      ],
      "payable": false,
      "stateMutability": "view",
      "type": "function"
    },
    {
      "constant": true,
      "inputs": [
        {
          "internalType": "address",
          "name": "",
          "type": "address"
        },
        {
          "internalType": "address",
          "name": "",
          "type": "address"
        }
      ],
      "name": "compSupplierIndex",
      "outputs": [
        {
          "internalType": "uint256",
          "name": "",
          "type": "uint256"
        }
      ],
      "payable": false,
      "stateMutability": "view",
      "type": "function"
    },
    {
      "constant": true,
      "inputs": [
        {
          "internalType": "address",
          "name": "",
          "type": "address"
        }
      ],
      "name": "compSupplyState",
      "outputs": [
        {
          "internalType": "uint224",
          "name": "index",
          "type": "uint224"
        },
        {
          "internalType": "uint32",
          "name": "block",
          "type": "uint32"
        }
      ],
      "payable": false,
      "stateMutability": "view",
      "type": "function"
    },
    {
      "constant": true,
      "inputs": [],
      "name": "comptrollerImplementation",
      "outputs": [
        {
          "internalType": "address",
          "name": "",
          "type": "address"
        }
      ],
      "payable": false,
      "stateMutability": "view",
      "type": "function"
    },
    {
      "constant": false,
      "inputs": [
        {
          "internalType": "address[]",
          "name": "cTokens",
          "type": "address[]"
        }
      ],
      "name": "enterMarkets",
      "outputs": [
        {
          "internalType": "uint256[]",
          "name": "",
          "type": "uint256[]"
        }
      ],
      "payable": false,
      "stateMutability": "nonpayable",
      "type": "function"
    },
    {
      "constant": false,
      "inputs": [
        {
          "internalType": "address",
          "name": "cTokenAddress",
          "type": "address"
        }
      ],
      "name": "exitMarket",
      "outputs": [
        {
          "internalType": "uint256",
          "name": "",
          "type": "uint256"
        }
      ],
      "payable": false,
      "stateMutability": "nonpayable",
      "type": "function"
    },
    {
      "constant": true,
      "inputs": [
        {
          "internalType": "address",
          "name": "account",
          "type": "address"
        }
      ],
      "name": "getAccountLiquidity",
      "outputs": [
        {
          "internalType": "uint256",
          "name": "",
          "type": "uint256"
        },
        {
          "internalType": "uint256",
          "name": "",
          "type": "uint256"
        },
        {
          "internalType": "uint256",
          "name": "",
          "type": "uint256"
        }
      ],
      "payable": false,
      "stateMutability": "view",
      "type": "function"
    },
    {
      "constant": true,
      "inputs": [],
      "name": "getAllMarkets",
      "outputs": [
        {
          "internalType": "contract CToken[]",
          "name": "",
          "type": "address[]"
        }
      ],
      "payable": false,
      "stateMutability": "view",
      "type": "function"
    },
    {
      "constant": true,
      "inputs": [
        {
          "internalType": "address",
          "name": "account",
          "type": "address"
        }
      ],
      "name": "getAssetsIn",
      "outputs": [
        {
          "internalType": "contract CToken[]",
          "name": "",
          "type": "address[]"
        }
      ],
      "payable": false,
      "stateMutability": "view",
      "type": "function"
    },
    {
      "constant": true,
      "inputs": [],
      "name": "getBlockNumber",
      "outputs": [
        {
          "internalType": "uint256",
          "name": "",
          "type": "uint256"
        }
      ],
      "payable": false,
      "stateMutability": "view",
      "type": "function"
    },
    {
      "constant": true,
      "inputs": [
        {
          "internalType": "address",
          "name": "account",
          "type": "address"
        },
        {
          "internalType": "address",
          "name": "cTokenModify",
          "type": "address"
        },
        {
          "internalType": "uint256",
          "name": "redeemTokens",
          "type": "uint256"
        },
        {
          "internalType": "uint256",
          "name": "borrowAmount",
          "type": "uint256"
        }
      ],
      "name": "getHypotheticalAccountLiquidity",
      "outputs": [
        {
          "internalType": "uint256",
          "name": "",
          "type": "uint256"
        },
        {
          "internalType": "uint256",
          "name": "",
          "type": "uint256"
        },
        {
          "internalType": "uint256",
          "name": "",
          "type": "uint256"
        }
      ],
      "payable": false,
      "stateMutability": "view",
      "type": "function"
    },
    {
      "constant": true,
      "inputs": [],
      "name": "isComptroller",
      "outputs": [
        {
          "internalType": "bool",
          "name": "",
          "type": "bool"
        }
      ],
      "payable": false,
      "stateMutability": "view",
      "type": "function"
    },
    {
      "constant": false,
      "inputs": [
        {
          "internalType": "address",
          "name": "cTokenBorrowed",
          "type": "address"
        },
        {
          "internalType": "address",
          "name": "cTokenCollateral",
          "type": "address"
        },
        {
          "internalType": "address",
          "name": "liquidator",
          "type": "address"
        },
        {
          "internalType": "address",
          "name": "borrower",
          "type": "address"
        },
        {
          "internalType": "uint256",
          "name": "repayAmount",
          "type": "uint256"
        }
      ],
      "name": "liquidateBorrowAllowed",
      "outputs": [
        {
          "internalType": "uint256",
          "name": "",
          "type": "uint256"
        }
      ],
      "payable": false,
      "stateMutability": "nonpayable",
      "type": "function"
    },
    {
      "constant": false,
      "inputs": [
        {
          "internalType": "address",
          "name": "cTokenBorrowed",
          "type": "address"
        },
        {
          "internalType": "address",
          "name": "cTokenCollateral",
          "type": "address"
        },
        {
          "internalType": "address",
          "name": "liquidator",
          "type": "address"
        },
        {
          "internalType": "address",
          "name": "borrower",
          "type": "address"
        },
        {
          "internalType": "uint256",
          "name": "actualRepayAmount",
          "type": "uint256"
        },
        {
          "internalType": "uint256",
          "name": "seizeTokens",
          "type": "uint256"
        }
      ],
      "name": "liquidateBorrowVerify",
      "outputs": [],
      "payable": false,
      "stateMutability": "nonpayable",
      "type": "function"
    },
    {
      "constant": true,
      "inputs": [
        {
          "internalType": "address",
          "name": "cTokenBorrowed",
          "type": "address"
        },
        {
          "internalType": "address",
          "name": "cTokenCollateral",
          "type": "address"
        },
        {
          "internalType": "uint256",
          "name": "actualRepayAmount",
          "type": "uint256"
        }
      ],
      "name": "liquidateCalculateSeizeTokens",
      "outputs": [
        {
          "internalType": "uint256",
          "name": "",
          "type": "uint256"
        },
        {
          "internalType": "uint256",
          "name": "",
          "type": "uint256"
        }
      ],
      "payable": false,
      "stateMutability": "view",
      "type": "function"
    },
    {
      "constant": true,
      "inputs": [],
      "name": "liquidationIncentiveMantissa",
      "outputs": [
        {
          "internalType": "uint256",
          "name": "",
          "type": "uint256"
        }
      ],
      "payable": false,
      "stateMutability": "view",
      "type": "function"
    },
    {
      "constant": true,
      "inputs": [
        {
          "internalType": "address",
          "name": "",
          "type": "address"
        }
      ],
      "name": "markets",
      "outputs": [
        {
          "internalType": "bool",
          "name": "isListed",
          "type": "bool"
        },
        {
          "internalType": "uint256",
          "name": "collateralFactorMantissa",
          "type": "uint256"
        },
        {
          "internalType": "bool",
          "name": "isComped",
          "type": "bool"
        }
      ],
      "payable": false,
      "stateMutability": "view",
      "type": "function"
    },
    {
      "constant": true,
      "inputs": [],
      "name": "maxAssets",
      "outputs": [
        {
          "internalType": "uint256",
          "name": "",
          "type": "uint256"
        }
      ],
      "payable": false,
      "stateMutability": "view",
      "type": "function"
    },
    {
      "constant": true,
      "inputs": [
        {
          "internalType": "address",
          "name": "",
          "type": "address"
        }
      ],
      "name": "mintGuardianPaused",
      "outputs": [
        {
          "internalType": "bool",
          "name": "",
          "type": "bool"
        }
      ],
      "payable": false,
      "stateMutability": "view",
      "type": "function"
    },
    {
      "constant": false,
      "inputs": [
        {
          "internalType": "address",
          "name": "cToken",
          "type": "address"
        },
        {
          "internalType": "address",
          "name": "minter",
          "type": "address"
        },
        {
          "internalType": "uint256",
          "name": "actualMintAmount",
          "type": "uint256"
        },
        {
          "internalType": "uint256",
          "name": "mintTokens",
          "type": "uint256"
        }
      ],
      "name": "mintVerify",
      "outputs": [],
      "payable": false,
      "stateMutability": "nonpayable",
      "type": "function"
    },
    {
      "constant": true,
      "inputs": [],
      "name": "oracle",
      "outputs": [
        {
          "internalType": "contract PriceOracle",
          "name": "",
          "type": "address"
        }
      ],
      "payable": false,
      "stateMutability": "view",
      "type": "function"
    },
    {
      "constant": true,
      "inputs": [],
      "name": "pauseGuardian",
      "outputs": [
        {
          "internalType": "address",
          "name": "",
          "type": "address"
        }
      ],
      "payable": false,
      "stateMutability": "view",
      "type": "function"
    },
    {
      "constant": true,
      "inputs": [],
      "name": "pendingAdmin",
      "outputs": [
        {
          "internalType": "address",
          "name": "",
          "type": "address"
        }
      ],
      "payable": false,
      "stateMutability": "view",
      "type": "function"
    },
    {
      "constant": true,
      "inputs": [],
      "name": "pendingComptrollerImplementation",
      "outputs": [
        {
          "internalType": "address",
          "name": "",
          "type": "address"
        }
      ],
      "payable": false,
      "stateMutability": "view",
      "type": "function"
    },
    {
      "constant": true,
      "inputs": [],
      "name": "qsConfig",
      "outputs": [
        {
          "internalType": "contract QsConfig",
          "name": "",
          "type": "address"
        }
      ],
      "payable": false,
      "stateMutability": "view",
      "type": "function"
    },
    {
      "constant": false,
      "inputs": [
        {
          "internalType": "address",
          "name": "cToken",
          "type": "address"
        },
        {
          "internalType": "address",
          "name": "redeemer",
          "type": "address"
        },
        {
          "internalType": "uint256",
          "name": "redeemTokens",
          "type": "uint256"
        }
      ],
      "name": "redeemAllowed",
      "outputs": [
        {
          "internalType": "uint256",
          "name": "",
          "type": "uint256"
        }
      ],
      "payable": false,
      "stateMutability": "nonpayable",
      "type": "function"
    },
    {
      "constant": false,
      "inputs": [
        {
          "internalType": "address",
          "name": "cToken",
          "type": "address"
        },
        {
          "internalType": "address",
          "name": "redeemer",
          "type": "address"
        },
        {
          "internalType": "uint256",
          "name": "redeemAmount",
          "type": "uint256"
        },
        {
          "internalType": "uint256",
          "name": "redeemTokens",
          "type": "uint256"
        }
      ],
      "name": "redeemVerify",
      "outputs": [],
      "payable": false,
      "stateMutability": "nonpayable",
      "type": "function"
    },
    {
      "constant": false,
      "inputs": [
        {
          "internalType": "address",
          "name": "cToken",
          "type": "address"
        },
        {
          "internalType": "address",
          "name": "payer",
          "type": "address"
        },
        {
          "internalType": "address",
          "name": "borrower",
          "type": "address"
        },
        {
          "internalType": "uint256",
          "name": "repayAmount",
          "type": "uint256"
        }
      ],
      "name": "repayBorrowAllowed",
      "outputs": [
        {
          "internalType": "uint256",
          "name": "",
          "type": "uint256"
        }
      ],
      "payable": false,
      "stateMutability": "nonpayable",
      "type": "function"
    },
    {
      "constant": false,
      "inputs": [
        {
          "internalType": "address",
          "name": "cToken",
          "type": "address"
        },
        {
          "internalType": "address",
          "name": "payer",
          "type": "address"
        },
        {
          "internalType": "address",
          "name": "borrower",
          "type": "address"
        },
        {
          "internalType": "uint256",
          "name": "actualRepayAmount",
          "type": "uint256"
        },
        {
          "internalType": "uint256",
          "name": "borrowerIndex",
          "type": "uint256"
        }
      ],
      "name": "repayBorrowVerify",
      "outputs": [],
      "payable": false,
      "stateMutability": "nonpayable",
      "type": "function"
    },
    {
      "constant": false,
      "inputs": [
        {
          "internalType": "address",
          "name": "cTokenCollateral",
          "type": "address"
        },
        {
          "internalType": "address",
          "name": "cTokenBorrowed",
          "type": "address"
        },
        {
          "internalType": "address",
          "name": "liquidator",
          "type": "address"
        },
        {
          "internalType": "address",
          "name": "borrower",
          "type": "address"
        },
        {
          "internalType": "uint256",
          "name": "seizeTokens",
          "type": "uint256"
        }
      ],
      "name": "seizeAllowed",
      "outputs": [
        {
          "internalType": "uint256",
          "name": "",
          "type": "uint256"
        }
      ],
      "payable": false,
      "stateMutability": "nonpayable",
      "type": "function"
    },
    {
      "constant": true,
      "inputs": [],
      "name": "seizeGuardianPaused",
      "outputs": [
        {
          "internalType": "bool",
          "name": "",
          "type": "bool"
        }
      ],
      "payable": false,
      "stateMutability": "view",
      "type": "function"
    },
    {
      "constant": false,
      "inputs": [
        {
          "internalType": "address",
          "name": "cTokenCollateral",
          "type": "address"
        },
        {
          "internalType": "address",
          "name": "cTokenBorrowed",
          "type": "address"
        },
        {
          "internalType": "address",
          "name": "liquidator",
          "type": "address"
        },
        {
          "internalType": "address",
          "name": "borrower",
          "type": "address"
        },
        {
          "internalType": "uint256",
          "name": "seizeTokens",
          "type": "uint256"
        }
      ],
      "name": "seizeVerify",
      "outputs": [],
      "payable": false,
      "stateMutability": "nonpayable",
      "type": "function"
    },
    {
      "constant": false,
      "inputs": [
        {
          "internalType": "address",
          "name": "cToken",
          "type": "address"
        },
        {
          "internalType": "address",
          "name": "src",
          "type": "address"
        },
        {
          "internalType": "address",
          "name": "dst",
          "type": "address"
        },
        {
          "internalType": "uint256",
          "name": "transferTokens",
          "type": "uint256"
        }
      ],
      "name": "transferAllowed",
      "outputs": [
        {
          "internalType": "uint256",
          "name": "",
          "type": "uint256"
        }
      ],
      "payable": false,
      "stateMutability": "nonpayable",
      "type": "function"
    },
    {
      "constant": true,
      "inputs": [],
      "name": "transferGuardianPaused",
      "outputs": [
        {
          "internalType": "bool",
          "name": "",
          "type": "bool"
        }
      ],
      "payable": false,
      "stateMutability": "view",
      "type": "function"
    },
    {
      "constant": false,
      "inputs": [
        {
          "internalType": "address",
          "name": "cToken",
          "type": "address"
        },
        {
          "internalType": "address",
          "name": "src",
          "type": "address"
        },
        {
          "internalType": "address",
          "name": "dst",
          "type": "address"
        },
        {
          "internalType": "uint256",
          "name": "transferTokens",
          "type": "uint256"
        }
      ],
      "name": "transferVerify",
      "outputs": [],
      "payable": false,
      "stateMutability": "nonpayable",
      "type": "function"
    },
    {
      "constant": false,
      "inputs": [
        {
          "internalType": "contract QsConfig",
          "name": "_qsConfig",
          "type": "address"
        }
      ],
      "name": "_setQsConfig",
      "outputs": [],
      "payable": false,
      "stateMutability": "nonpayable",
      "type": "function"
    },
    {
      "constant": false,
      "inputs": [
        {
          "internalType": "address[]",
          "name": "_allMarkets",
          "type": "address[]"
        },
        {
          "internalType": "uint256[]",
          "name": "_compSpeeds",
          "type": "uint256[]"
        }
      ],
      "name": "_setCompSpeeds",
      "outputs": [],
      "payable": false,
      "stateMutability": "nonpayable",
      "type": "function"
    },
    {
      "constant": true,
      "inputs": [],
      "name": "getCompAddress",
      "outputs": [
        {
          "internalType": "address",
          "name": "",
          "type": "address"
        }
      ],
      "payable": false,
      "stateMutability": "view",
      "type": "function"
    },
    {
      "constant": true,
      "inputs": [
        {
          "internalType": "uint256",
          "name": "_seizeTokenAmount",
          "type": "uint256"
        }
      ],
      "name": "calculateSeizeTokenAllocation",
      "outputs": [
        {
          "internalType": "uint256",
          "name": "liquidatorAmount",
          "type": "uint256"
        },
        {
          "internalType": "uint256",
          "name": "safetyVaultAmount",
          "type": "uint256"
        }
      ],
      "payable": false,
      "stateMutability": "view",
      "type": "function"
    },
    {
      "constant": false,
      "inputs": [
        {
          "internalType": "address",
          "name": "cToken",
          "type": "address"
        },
        {
          "internalType": "address",
          "name": "minter",
          "type": "address"
        },
        {
          "internalType": "uint256",
          "name": "mintAmount",
          "type": "uint256"
        }
      ],
      "name": "mintAllowed",
      "outputs": [
        {
          "internalType": "uint256",
          "name": "",
          "type": "uint256"
        }
      ],
      "payable": false,
      "stateMutability": "nonpayable",
      "type": "function"
    }
  ],
  "bytecode": "0x6080604052600080546001600160a01b03191633179055615765806100256000396000f3fe608060405234801561001057600080fd5b506004361061035c5760003560e01c80637dc0d1d0116101cb578063bb82aa5e11610100578063bb82aa5e14610e1c578063bdcdc25814610e24578063c299823814610e60578063c488847b14610f01578063ca0af04314610f37578063cc7ebdc414610f65578063d02f735114610f8b578063d9226ced14610fd1578063da3d454c14610fee578063dce1544914611024578063dcfbc0c714611050578063e4028eee14611058578063e6653f3d14611084578063e87554461461108c578063e9af029214611094578063eabe7d91146110ba578063ede4edd0146110f0578063f851a440146111165761035c565b80637dc0d1d014610abc5780637e60c7a014610ac45780638730657714610be757806387f7630314610c1d5780638c57804e14610c255780638e8f294b14610c4b5780638ebf636414610c93578063929fe9a114610cb257806393168a5b14610ce057806394b2294b14610d065780639d1b5a0a14610d0e578063a76b3fda14610d16578063a7f0e23114610d3c578063aa90075414610d60578063abfceffc14610d68578063ac0b0bb714610dde578063b0772d0b14610de6578063b21be7fd14610dee5761035c565b80634e79238f116102a15780634e79238f146106705780634ef4c3e1146106ca5780634fd42e171461070057806351dff9891461071d57806352d84d1e1461075957806355ee1fe1146107765780635c7786051461079c5780635ec88c79146107d25780635f5af1aa146107f85780635fc7e71e1461081e5780636810dfa6146108645780636995d7d0146109905780636a56947e146109985780636b79c38d146109d45780636d154ea514610a225780636d35bf9114610a48578063731f0c2b14610a8e578063747026c914610ab45761035c565b80627e3dd21461036157806318c882a51461037d5780631c3db2e0146103ab5780631d504dc61461045e5780631d7b33d7146104845780631ededc91146104bc57806324008a62146104fe57806324a3d6221461053a578063267822471461055e5780632d70db7814610566578063317b0b77146105855780633bcf7ec1146105a25780633c94786f146105d057806341c728b9146105d857806342cbb15c1461061457806347ef3b3b1461061c5780634ada90af14610668575b600080fd5b61036961111e565b604080519115158252519081900360200190f35b6103696004803603604081101561039357600080fd5b506001600160a01b0381351690602001351515611123565b61045c600480360360408110156103c157600080fd5b6001600160a01b038235169190810190604081016020820135600160201b8111156103eb57600080fd5b8201836020820111156103fd57600080fd5b803590602001918460208302840111600160201b8311171561041e57600080fd5b9190808060200260200160405190810160405280939291908181526020018383602002808284376000920191909152509295506112b8945050505050565b005b61045c6004803603602081101561047457600080fd5b50356001600160a01b031661131a565b6104aa6004803603602081101561049a57600080fd5b50356001600160a01b0316611479565b60408051918252519081900360200190f35b61045c600480360360a08110156104d257600080fd5b506001600160a01b0381358116916020810135821691604082013516906060810135906080013561148b565b6104aa6004803603608081101561051457600080fd5b506001600160a01b03813581169160208101358216916040820135169060600135611492565b61054261155b565b604080516001600160a01b039092168252519081900360200190f35b61054261156a565b6103696004803603602081101561057c57600080fd5b50351515611579565b6104aa6004803603602081101561059b57600080fd5b50356116a8565b610369600480360360408110156105b857600080fd5b506001600160a01b03813516906020013515156117b9565b610369611949565b61045c600480360360808110156105ee57600080fd5b506001600160a01b03813581169160208101359091169060408101359060600135611959565b6104aa61195f565b61045c600480360360c081101561063257600080fd5b506001600160a01b0381358116916020810135821691604082013581169160608101359091169060808101359060a00135611964565b6104aa61196c565b6106ac6004803603608081101561068657600080fd5b506001600160a01b03813581169160208101359091169060408101359060600135611972565b60408051938452602084019290925282820152519081900360600190f35b6104aa600480360360608110156106e057600080fd5b506001600160a01b038135811691602081013590911690604001356119ac565b6104aa6004803603602081101561071657600080fd5b5035611aa5565b61045c6004803603608081101561073357600080fd5b506001600160a01b03813581169160208101359091169060408101359060600135611b99565b6105426004803603602081101561076f57600080fd5b5035611bed565b6104aa6004803603602081101561078c57600080fd5b50356001600160a01b0316611c14565b61045c600480360360608110156107b257600080fd5b506001600160a01b03813581169160208101359091169060400135611c9b565b6106ac600480360360208110156107e857600080fd5b50356001600160a01b0316611ca0565b6104aa6004803603602081101561080e57600080fd5b50356001600160a01b0316611cd5565b6104aa600480360360a081101561083457600080fd5b506001600160a01b0381358116916020810135821691604082013581169160608101359091169060800135611d59565b61045c6004803603608081101561087a57600080fd5b810190602081018135600160201b81111561089457600080fd5b8201836020820111156108a657600080fd5b803590602001918460208302840111600160201b831117156108c757600080fd5b9190808060200260200160405190810160405280939291908181526020018383602002808284376000920191909152509295949360208101935035915050600160201b81111561091657600080fd5b82018360208201111561092857600080fd5b803590602001918460208302840111600160201b8311171561094957600080fd5b919080806020026020016040519081016040528093929190818152602001838360200280828437600092019190915250929550505050803515159150602001351515611ee0565b610542612089565b61045c600480360360808110156109ae57600080fd5b506001600160a01b03813581169160208101358216916040820135169060600135611959565b6109fa600480360360208110156109ea57600080fd5b50356001600160a01b0316612098565b604080516001600160e01b03909316835263ffffffff90911660208301528051918290030190f35b61036960048036036020811015610a3857600080fd5b50356001600160a01b03166120c2565b61045c600480360360a0811015610a5e57600080fd5b506001600160a01b038135811691602081013582169160408201358116916060810135909116906080013561148b565b61036960048036036020811015610aa457600080fd5b50356001600160a01b03166120d7565b6104aa6120ec565b6105426120f7565b61045c60048036036040811015610ada57600080fd5b810190602081018135600160201b811115610af457600080fd5b820183602082011115610b0657600080fd5b803590602001918460208302840111600160201b83111715610b2757600080fd5b9190808060200260200160405190810160405280939291908181526020018383602002808284376000920191909152509295949360208101935035915050600160201b811115610b7657600080fd5b820183602082011115610b8857600080fd5b803590602001918460208302840111600160201b83111715610ba957600080fd5b919080806020026020016040519081016040528093929190818152602001838360200280828437600092019190915250929550612106945050505050565b610c0460048036036020811015610bfd57600080fd5b5035612231565b6040805192835260208301919091528051918290030190f35b6103696122c4565b6109fa60048036036020811015610c3b57600080fd5b50356001600160a01b03166122d4565b610c7160048036036020811015610c6157600080fd5b50356001600160a01b03166122fe565b6040805193151584526020840192909252151582820152519081900360600190f35b61036960048036036020811015610ca957600080fd5b50351515612324565b61036960048036036040811015610cc857600080fd5b506001600160a01b0381358116916020013516612452565b61045c60048036036020811015610cf657600080fd5b50356001600160a01b0316612485565b6104aa6124be565b6105426124c4565b6104aa60048036036020811015610d2c57600080fd5b50356001600160a01b031661253a565b610d44612697565b604080516001600160e01b039092168252519081900360200190f35b6104aa6126a9565b610d8e60048036036020811015610d7e57600080fd5b50356001600160a01b03166126af565b60408051602080825283518183015283519192839290830191858101910280838360005b83811015610dca578181015183820152602001610db2565b505050509050019250505060405180910390f35b610369612738565b610d8e612748565b6104aa60048036036040811015610e0457600080fd5b506001600160a01b03813581169160200135166127aa565b6105426127c7565b6104aa60048036036080811015610e3a57600080fd5b506001600160a01b038135811691602081013582169160408201351690606001356127d6565b610d8e60048036036020811015610e7657600080fd5b810190602081018135600160201b811115610e9057600080fd5b820183602082011115610ea257600080fd5b803590602001918460208302840111600160201b83111715610ec357600080fd5b91908080602002602001604051908101604052809392919081815260200183836020028082843760009201919091525092955061286a945050505050565b610c0460048036036060811015610f1757600080fd5b506001600160a01b03813581169160208101359091169060400135612901565b6104aa60048036036040811015610f4d57600080fd5b506001600160a01b0381358116916020013516612b76565b6104aa60048036036020811015610f7b57600080fd5b50356001600160a01b0316612b93565b6104aa600480360360a0811015610fa157600080fd5b506001600160a01b0381358116916020810135821691604082013581169160608101359091169060800135612ba5565b6104aa60048036036020811015610fe757600080fd5b5035612d5d565b6104aa6004803603606081101561100457600080fd5b506001600160a01b03813581169160208101359091169060400135612dc6565b6105426004803603604081101561103a57600080fd5b506001600160a01b0381351690602001356130b3565b6105426130e8565b6104aa6004803603604081101561106e57600080fd5b506001600160a01b0381351690602001356130f7565b6103696132a7565b6104aa6132b7565b61045c600480360360208110156110aa57600080fd5b50356001600160a01b03166132bd565b6104aa600480360360608110156110d057600080fd5b506001600160a01b03813581169160208101359091169060400135613321565b6104aa6004803603602081101561110657600080fd5b50356001600160a01b031661335e565b610542613671565b600181565b6001600160a01b03821660009081526009602052604081205460ff1661117a5760405162461bcd60e51b81526004018080602001828103825260288152602001806156766028913960400191505060405180910390fd5b600a546001600160a01b031633148061119d57506000546001600160a01b031633145b6111d85760405162461bcd60e51b81526004018080602001828103825260278152602001806156be6027913960400191505060405180910390fd5b6000546001600160a01b03163314806111f357506001821515145b611232576040805162461bcd60e51b8152602060048201526016602482015260008051602061569e833981519152604482015290519081900360640190fd5b6001600160a01b0383166000818152600c6020908152604091829020805486151560ff199091168117909155825193845283830152606090830181905260069083015265426f72726f7760d01b6080830152517f71aec636243f9709bb0007ae15e9afb8150ab01716d75fd7573be5cc096e03b09181900360a00190a150805b92915050565b6040805160018082528183019092526060916020808301908038833901905050905082816000815181106112e857fe5b60200260200101906001600160a01b031690816001600160a01b0316815250506113158183600180611ee0565b505050565b806001600160a01b031663f851a4406040518163ffffffff1660e01b815260040160206040518083038186803b15801561135357600080fd5b505afa158015611367573d6000803e3d6000fd5b505050506040513d602081101561137d57600080fd5b50516001600160a01b031633146113c55760405162461bcd60e51b815260040180806020018281038252602781526020018061570a6027913960400191505060405180910390fd5b806001600160a01b031663c1e803346040518163ffffffff1660e01b8152600401602060405180830381600087803b15801561140057600080fd5b505af1158015611414573d6000803e3d6000fd5b505050506040513d602081101561142a57600080fd5b505115611476576040805162461bcd60e51b815260206004820152601560248201527418da185b99d9481b9bdd08185d5d1a1bdc9a5e9959605a1b604482015290519081900360640190fd5b50565b600f6020526000908152604090205481565b5050505050565b6001600160a01b03841660009081526009602052604081205460ff166114ba57506009611553565b6114c26155b6565b6040518060200160405280876001600160a01b031663aa5af0fd6040518163ffffffff1660e01b815260040160206040518083038186803b15801561150657600080fd5b505afa15801561151a573d6000803e3d6000fd5b505050506040513d602081101561153057600080fd5b5051905290506115408682613680565b61154d8685836000613930565b60009150505b949350505050565b600a546001600160a01b031681565b6001546001600160a01b031681565b600a546000906001600160a01b031633148061159f57506000546001600160a01b031633145b6115da5760405162461bcd60e51b81526004018080602001828103825260278152602001806156be6027913960400191505060405180910390fd5b6000546001600160a01b03163314806115f557506001821515145b611634576040805162461bcd60e51b8152602060048201526016602482015260008051602061569e833981519152604482015290519081900360640190fd5b600a8054831515600160b81b810260ff60b81b1990921691909117909155604080516020810192909252808252600582820152645365697a6560d81b6060830152517fef159d9a32b2472e32b098f954f3ce62d232939f1c207070b584df1814de2de09181900360800190a150805b919050565b600080546001600160a01b031633146116ce576116c760016004613b1b565b90506116a3565b6116d66155b6565b5060408051602081019091528281526116ed6155b6565b50604080516020810190915266b1a2bc2ec50000815261170d8282613b81565b156117265761171d600580613b1b565b925050506116a3565b61172e6155b6565b506040805160208101909152670c7d713b49da0000815261174f8184613b89565b156117695761175f600580613b1b565b93505050506116a3565b6005805490869055604080518281526020810188905281517f3b9670cf975d26958e754b57098eaa2ac914d8d2a31b83257997b9f346110fd9929181900390910190a160005b9695505050505050565b6001600160a01b03821660009081526009602052604081205460ff166118105760405162461bcd60e51b81526004018080602001828103825260288152602001806156766028913960400191505060405180910390fd5b600a546001600160a01b031633148061183357506000546001600160a01b031633145b61186e5760405162461bcd60e51b81526004018080602001828103825260278152602001806156be6027913960400191505060405180910390fd5b6000546001600160a01b031633148061188957506001821515145b6118c8576040805162461bcd60e51b8152602060048201526016602482015260008051602061569e833981519152604482015290519081900360640190fd5b6001600160a01b0383166000818152600b6020908152604091829020805486151560ff199091168117909155825193845283830152606090830181905260049083015263135a5b9d60e21b6080830152517f71aec636243f9709bb0007ae15e9afb8150ab01716d75fd7573be5cc096e03b09181900360a00190a150919050565b600a54600160a01b900460ff1681565b50505050565b435b90565b505050505050565b60065481565b6000806000806000806119878a8a8a8a613b90565b92509250925082601181111561199957fe5b95509093509150505b9450945094915050565b6015546040805163fbac395160e01b81526001600160a01b0385811660048301529151600093929092169163fbac395191602480820192602092909190829003018186803b1580156119fd57600080fd5b505afa158015611a11573d6000803e3d6000fd5b505050506040513d6020811015611a2757600080fd5b505115611a3357600080fd5b6001600160a01b0384166000908152600b602052604090205460ff1615611a5957600080fd5b6001600160a01b03841660009081526009602052604090205460ff16611a835760095b9050611a9e565b611a8c84613fab565b611a988484600061425e565b60005b90505b9392505050565b600080546001600160a01b03163314611ac4576116c76001600b613b1b565b611acc6155b6565b506040805160208101909152828152611ae36155b6565b506040805160208101909152670de0b6b3a76400008152611b048282613b89565b15611b155761171d6007600c613b1b565b611b1d6155b6565b5060408051602081019091526714d1120d7b1600008152611b3e8184613b89565b15611b4f5761175f6007600c613b1b565b6006805490869055604080518281526020810188905281517faeba5a6c40a8ac138134bff1aaa65debf25971188a58804bad717f82f0ec1316929181900390910190a160006117af565b80158015611ba75750600082115b15611959576040805162461bcd60e51b815260206004820152601160248201527072656465656d546f6b656e73207a65726f60781b604482015290519081900360640190fd5b600d8181548110611bfa57fe5b6000918252602090912001546001600160a01b0316905081565b600080546001600160a01b03163314611c33576116c760016010613b1b565b600480546001600160a01b038481166001600160a01b0319831681179093556040805191909216808252602082019390935281517fd52b2b9b7e9ee655fcb95d2e5b9e0c9f69e7ef2b8e9d2d0ea78402d576d22e22929181900390910190a160009392505050565b611315565b600080600080600080611cb7876000806000613b90565b925092509250826011811115611cc957fe5b97919650945092505050565b600080546001600160a01b03163314611cf4576116c760016013613b1b565b600a80546001600160a01b038481166001600160a01b0319831617928390556040805192821680845293909116602083015280517f0613b6ee6a04f0d09f390e4d9318894b9f6ac7fd83897cd8d18896ba579c401e9281900390910190a16000611a9e565b6001600160a01b03851660009081526009602052604081205460ff161580611d9a57506001600160a01b03851660009081526009602052604090205460ff16155b15611da95760095b9050611ed7565b600080611db585614455565b91935090915060009050826011811115611dcb57fe5b14611de557816011811115611ddc57fe5b92505050611ed7565b80611df1576003611ddc565b6000886001600160a01b03166395dd9193876040518263ffffffff1660e01b815260040180826001600160a01b03166001600160a01b0316815260200191505060206040518083038186803b158015611e4957600080fd5b505afa158015611e5d573d6000803e3d6000fd5b505050506040513d6020811015611e7357600080fd5b5051604080516020810190915260055481529091506000908190611e979084614475565b90925090506000826003811115611eaa57fe5b14611ebe57600b5b95505050505050611ed7565b80871115611ecd576011611eb2565b6000955050505050505b95945050505050565b60005b835181101561148b576000848281518110611efa57fe5b6020908102919091018101516001600160a01b0381166000908152600990925260409091205490915060ff16611f6f576040805162461bcd60e51b81526020600482015260156024820152741b585c9ad95d081b5d5cdd081899481b1a5cdd1959605a1b604482015290519081900360640190fd5b6001841515141561203757611f826155b6565b6040518060200160405280836001600160a01b031663aa5af0fd6040518163ffffffff1660e01b815260040160206040518083038186803b158015611fc657600080fd5b505afa158015611fda573d6000803e3d6000fd5b505050506040513d6020811015611ff057600080fd5b5051905290506120008282613680565b60005b87518110156120345761202c8389838151811061201c57fe5b6020026020010151846001613930565b600101612003565b50505b600183151514156120805761204b81613fab565b60005b865181101561207e576120768288838151811061206757fe5b6020026020010151600161425e565b60010161204e565b505b50600101611ee3565b6015546001600160a01b031681565b6010602052600090815260409020546001600160e01b03811690600160e01b900463ffffffff1682565b600c6020526000908152604090205460ff1681565b600b6020526000908152604090205460ff1681565b66038d7ea4c6800081565b6004546001600160a01b031681565b6000546001600160a01b0316331461211d57600080fd5b805182511461212b57600080fd5b6000805b835181101561222957600084828151811061214657fe5b6020908102919091018101516001600160a01b03811660009081526009909252604090912060038101549192509060ff1661218457612184826144c9565b84838151811061219057fe5b6020026020010151600f6000846001600160a01b03166001600160a01b0316815260200190815260200160002081905550600060808685815181106121d157fe5b6020026020010151901c905060008685815181106121eb57fe5b60200260200101516001600160801b03169050600061220a83836147ec565b905061221687826147ec565b9650506001909401935061212f92505050565b50600e555050565b60155460065460408051630655a3bd60e11b8152600481018590526024810192909252805160009384936001600160a01b0390911692630cab477a92604480840193829003018186803b15801561228757600080fd5b505afa15801561229b573d6000803e3d6000fd5b505050506040513d60408110156122b157600080fd5b5080516020909101519092509050915091565b600a54600160b01b900460ff1681565b6011602052600090815260409020546001600160e01b03811690600160e01b900463ffffffff1682565b60096020526000908152604090208054600182015460039092015460ff91821692911683565b600a546000906001600160a01b031633148061234a57506000546001600160a01b031633145b6123855760405162461bcd60e51b81526004018080602001828103825260278152602001806156be6027913960400191505060405180910390fd5b6000546001600160a01b03163314806123a057506001821515145b6123df576040805162461bcd60e51b8152602060048201526016602482015260008051602061569e833981519152604482015290519081900360640190fd5b600a8054831515600160b01b810260ff60b01b1990921691909117909155604080516020810192909252808252600882820152672a3930b739b332b960c11b6060830152517fef159d9a32b2472e32b098f954f3ce62d232939f1c207070b584df1814de2de09181900360800190a15090565b6001600160a01b038082166000908152600960209081526040808320938616835260029093019052205460ff1692915050565b6000546001600160a01b0316331461249c57600080fd5b601580546001600160a01b0319166001600160a01b0392909216919091179055565b60075481565b60155460408051636605dfa760e01b815290516000926001600160a01b031691636605dfa7916004808301926020929190829003018186803b15801561250957600080fd5b505afa15801561251d573d6000803e3d6000fd5b505050506040513d602081101561253357600080fd5b5051905090565b600080546001600160a01b03163314612559576116c760016012613b1b565b6001600160a01b03821660009081526009602052604090205460ff1615612586576116c7600a6011613b1b565b816001600160a01b031663fe9c44ae6040518163ffffffff1660e01b815260040160206040518083038186803b1580156125bf57600080fd5b505afa1580156125d3573d6000803e3d6000fd5b505050506040513d60208110156125e957600080fd5b5050604080516060810182526001808252600060208381018281528486018381526001600160a01b03891684526009909252949091209251835490151560ff1991821617845593519183019190915551600390910180549115159190921617905561265382614822565b604080516001600160a01b038416815290517fcf583bb0c569eb967f806b11601c4cb93c10310485c67add5f8362c2f212321f9181900360200190a1600092915050565b6a0c097ce7bc90715b34b9f160241b81565b600e5481565b60608060086000846001600160a01b03166001600160a01b0316815260200190815260200160002080548060200260200160405190810160405280929190818152602001828054801561272b57602002820191906000526020600020905b81546001600160a01b0316815260019091019060200180831161270d575b5093979650505050505050565b600a54600160b81b900460ff1681565b6060600d8054806020026020016040519081016040528092919081815260200182805480156127a057602002820191906000526020600020905b81546001600160a01b03168152600190910190602001808311612782575b5050505050905090565b601260209081526000928352604080842090915290825290205481565b6002546001600160a01b031681565b600a54600090600160b01b900460ff161561282d576040805162461bcd60e51b81526020600482015260126024820152711d1c985b9cd9995c881a5cc81c185d5cd95960721b604482015290519081900360640190fd5b600061283a868685614900565b90508015612849579050611553565b61285286613fab565b61285e8686600061425e565b61154d8685600061425e565b606060008251905060608160405190808252806020026020018201604052801561289e578160200160208202803883390190505b50905060005b828110156128f95760008582815181106128ba57fe5b602002602001015190506128ce81336149a3565b60118111156128d957fe5b8383815181106128e557fe5b6020908102919091010152506001016128a4565b509392505050565b600480546040805163fc57d4df60e01b81526001600160a01b038781169482019490945290516000938493849391169163fc57d4df91602480820192602092909190829003018186803b15801561295757600080fd5b505afa15801561296b573d6000803e3d6000fd5b505050506040513d602081101561298157600080fd5b5051600480546040805163fc57d4df60e01b81526001600160a01b038a8116948201949094529051939450600093929091169163fc57d4df91602480820192602092909190829003018186803b1580156129da57600080fd5b505afa1580156129ee573d6000803e3d6000fd5b505050506040513d6020811015612a0457600080fd5b50519050811580612a13575080155b15612a2857600d935060009250612b6e915050565b6000866001600160a01b031663182df0f56040518163ffffffff1660e01b815260040160206040518083038186803b158015612a6357600080fd5b505afa158015612a77573d6000803e3d6000fd5b505050506040513d6020811015612a8d57600080fd5b505190506000612a9b6155b6565b612aa36155b6565b612aab6155b6565b6000612ab960065489614ac4565b945090506000816003811115612acb57fe5b14612ae757600b5b995060009850612b6e975050505050505050565b612af18787614ac4565b935090506000816003811115612b0357fe5b14612b0f57600b612ad3565b612b198484614aff565b925090506000816003811115612b2b57fe5b14612b3757600b612ad3565b612b41828c614475565b955090506000816003811115612b5357fe5b14612b5f57600b612ad3565b60009950939750505050505050505b935093915050565b601360209081526000928352604080842090915290825290205481565b60146020526000908152604090205481565b600a54600090600160b81b900460ff1615612bf9576040805162461bcd60e51b815260206004820152600f60248201526e1cd95a5e99481a5cc81c185d5cd959608a1b604482015290519081900360640190fd5b6001600160a01b03861660009081526009602052604090205460ff161580612c3a57506001600160a01b03851660009081526009602052604090205460ff16155b15612c46576009611da2565b846001600160a01b0316635fe3b5676040518163ffffffff1660e01b815260040160206040518083038186803b158015612c7f57600080fd5b505afa158015612c93573d6000803e3d6000fd5b505050506040513d6020811015612ca957600080fd5b505160408051635fe3b56760e01b815290516001600160a01b0392831692891691635fe3b567916004808301926020929190829003018186803b158015612cef57600080fd5b505afa158015612d03573d6000803e3d6000fd5b505050506040513d6020811015612d1957600080fd5b50516001600160a01b031614612d30576002611da2565b612d3986613fab565b612d458684600061425e565b612d518685600061425e565b60009695505050505050565b600080546001600160a01b03163314612d7c576116c76001600d613b1b565b6007805490839055604080518281526020810185905281517f7093cf1eb653f749c3ff531d6df7f92764536a7fa0d13530cd26e070780c32ea929181900390910190a16000611a9e565b6001600160a01b0383166000908152600c602052604081205460ff1615612e27576040805162461bcd60e51b815260206004820152601060248201526f189bdc9c9bddc81a5cc81c185d5cd95960821b604482015290519081900360640190fd5b6001600160a01b03841660009081526009602052604090205460ff16612e4e576009611a7c565b6001600160a01b038085166000908152600960209081526040808320938716835260029093019052205460ff16612f3e57336001600160a01b03851614612ed4576040805162461bcd60e51b815260206004820152601560248201527439b2b73232b91036bab9ba1031329031aa37b5b2b760591b604482015290519081900360640190fd5b6000612ee033856149a3565b90506000816011811115612ef057fe5b14612f0957806011811115612f0157fe5b915050611a9e565b6001600160a01b038086166000908152600960209081526040808320938816835260029093019052205460ff16612f3c57fe5b505b600480546040805163fc57d4df60e01b81526001600160a01b03888116948201949094529051929091169163fc57d4df91602480820192602092909190829003018186803b158015612f8f57600080fd5b505afa158015612fa3573d6000803e3d6000fd5b505050506040513d6020811015612fb957600080fd5b5051612fc657600d611a7c565b600080612fd68587600087613b90565b91935090915060009050826011811115612fec57fe5b1461300657816011811115612ffd57fe5b92505050611a9e565b8015613013576004612ffd565b61301b6155b6565b6040518060200160405280886001600160a01b031663aa5af0fd6040518163ffffffff1660e01b815260040160206040518083038186803b15801561305f57600080fd5b505afa158015613073573d6000803e3d6000fd5b505050506040513d602081101561308957600080fd5b5051905290506130998782613680565b6130a68787836000613930565b6000979650505050505050565b600860205281600052604060002081815481106130cc57fe5b6000918252602090912001546001600160a01b03169150829050565b6003546001600160a01b031681565b600080546001600160a01b0316331461311d5761311660016006613b1b565b90506112b2565b6001600160a01b0383166000908152600960205260409020805460ff166131525761314a60096007613b1b565b9150506112b2565b61315a6155b6565b5060408051602081019091528381526131716155b6565b506040805160208101909152670c7d713b49da000081526131928183613b89565b156131ad576131a360066008613b1b565b93505050506112b2565b84158015906132365750600480546040805163fc57d4df60e01b81526001600160a01b038a8116948201949094529051929091169163fc57d4df91602480820192602092909190829003018186803b15801561320857600080fd5b505afa15801561321c573d6000803e3d6000fd5b505050506040513d602081101561323257600080fd5b5051155b15613247576131a3600d6009613b1b565b60018301805490869055604080516001600160a01b03891681526020810183905280820188905290517f70483e6592cd5182d45ac970e05bc62cdcc90e9d8ef2c2dbe686cf383bcd7fc59181900360600190a16000979650505050505050565b600a54600160a81b900460ff1681565b60055481565b61147681600d80548060200260200160405190810160405280929190818152602001828054801561331757602002820191906000526020600020905b81546001600160a01b031681526001909101906020018083116132f9575b50505050506112b8565b60008061332f858585614900565b9050801561333e579050611a9e565b61334785613fab565b6133538585600061425e565b600095945050505050565b6000808290506000806000836001600160a01b031663c37f68e2336040518263ffffffff1660e01b815260040180826001600160a01b03166001600160a01b0316815260200191505060806040518083038186803b1580156133bf57600080fd5b505afa1580156133d3573d6000803e3d6000fd5b505050506040513d60808110156133e957600080fd5b50805160208201516040909201519094509092509050821561343c5760405162461bcd60e51b81526004018080602001828103825260258152602001806156e56025913960400191505060405180910390fd5b80156134595761344e600c6002613b1b565b9450505050506116a3565b6000613466873385614900565b905080156134875761347b600e600383614b17565b955050505050506116a3565b6001600160a01b0385166000908152600960209081526040808320338452600281019092529091205460ff166134c657600096505050505050506116a3565b3360009081526002820160209081526040808320805460ff19169055600882529182902080548351818402810184019094528084526060939283018282801561353857602002820191906000526020600020905b81546001600160a01b0316815260019091019060200180831161351a575b5050835193945083925060009150505b8281101561358d57896001600160a01b031684828151811061356657fe5b60200260200101516001600160a01b031614156135855780915061358d565b600101613548565b5081811061359757fe5b3360009081526008602052604090208054819060001981019081106135b857fe5b9060005260206000200160009054906101000a90046001600160a01b03168183815481106135e257fe5b600091825260209091200180546001600160a01b0319166001600160a01b0392909216919091179055805461361b8260001983016155c9565b50604080516001600160a01b038c16815233602082015281517fe699a64c18b07ac5b7301aa273f36a2287239eb9501d81950672794afba29a0d929181900390910190a160009c9b505050505050505050505050565b6000546001600160a01b031681565b6001600160a01b0382166000908152601160209081526040808320600f90925282205490916001600160801b03909116906136b961195f565b83549091506000906136d9908390600160e01b900463ffffffff16614b7d565b90506000811180156136eb5750600083115b156138b5576000613760876001600160a01b03166347bd37186040518163ffffffff1660e01b815260040160206040518083038186803b15801561372e57600080fd5b505afa158015613742573d6000803e3d6000fd5b505050506040513d602081101561375857600080fd5b505187614bb7565b9050600061376e8386614bd5565b90506137786155b6565b60008311613795576040518060200160405280600081525061379f565b61379f8284614c11565b90506137a96155b6565b604080516020810190915288546001600160e01b031681526137cb9083614c4e565b9050604051806040016040528061380d83600001516040518060400160405280600f81526020016e696e646578203e203232346269747360881b815250614c73565b6001600160e01b031681526020016138518860405180604001604052806014815260200173626c6f636b4e756d626572203e2033326269747360601b815250614d0d565b63ffffffff9081169091526001600160a01b038c166000908152601160209081526040909120835181549490920151909216600160e01b026001600160e01b039182166001600160e01b031990941693909317169190911790555061196492505050565b6000811180156138ce575083546001600160e01b031615155b15611964576139098260405180604001604052806014815260200173626c6f636b4e756d626572203e2033326269747360601b815250614d0d565b845463ffffffff91909116600160e01b026001600160e01b03909116178455505050505050565b6001600160a01b03841660009081526011602052604090206139506155b6565b50604080516020810190915281546001600160e01b031681526139716155b6565b5060408051602080820183526001600160a01b03808a16600090815260138352848120918a1680825282845294812080548552865195909152915291909155805115613b12576139bf6155b6565b6139c98383614d62565b90506000613a58896001600160a01b03166395dd91938a6040518263ffffffff1660e01b815260040180826001600160a01b03166001600160a01b0316815260200191505060206040518083038186803b158015613a2657600080fd5b505afa158015613a3a573d6000803e3d6000fd5b505050506040513d6020811015613a5057600080fd5b505188614bb7565b90506000613a668284614d87565b6001600160a01b038a1660009081526014602052604081205491925090613a8d90836147ec565b9050613aae8a828a613aa65766038d7ea4c68000613aa9565b60005b614db5565b6001600160a01b03808c1660008181526014602090815260409182902094909455895181518781529485015280519193928f16927f1fc3ecc087d8d2d15e23d0032af5a47059c3892d003d8e139fdcb6bb327c99a6929081900390910190a3505050505b50505050505050565b60007f45b96fe442630264581b197e84bbada861235052c5a1aadfff9ea4e40a969aa0836011811115613b4a57fe5b836013811115613b5657fe5b604080519283526020830191909152600082820152519081900360600190a1826011811115611a9e57fe5b519051111590565b5190511090565b6000806000613b9d6155ed565b6001600160a01b038816600090815260086020908152604080832080548251818502810185019093528083528493606093929190830182828015613c0a57602002820191906000526020600020905b81546001600160a01b03168152600190910190602001808311613bec575b50939450600093505050505b8151811015613f66576000828281518110613c2d57fe5b60200260200101519050806001600160a01b031663c37f68e28e6040518263ffffffff1660e01b815260040180826001600160a01b03166001600160a01b0316815260200191505060806040518083038186803b158015613c8d57600080fd5b505afa158015613ca1573d6000803e3d6000fd5b505050506040513d6080811015613cb757600080fd5b508051602082015160408084015160609485015160808c0152938a01939093529188019190915294508415613cfd5750600f9750600096508695506119a2945050505050565b60408051602080820183526001600160a01b0380851660008181526009845285902060010154845260c08b01939093528351808301855260808b0151815260e08b015260048054855163fc57d4df60e01b815291820194909452935192169263fc57d4df9260248083019392829003018186803b158015613d7d57600080fd5b505afa158015613d91573d6000803e3d6000fd5b505050506040513d6020811015613da757600080fd5b505160a08701819052613dcb5750600d9750600096508695506119a2945050505050565b604080516020810190915260a08701518152610100870181905260c087015160e0880151613df8926150ae565b61012088015293506000846003811115613e0e57fe5b14613e2a5750600b9750600096508695506119a2945050505050565b613e4286610120015187604001518860000151615106565b875293506000846003811115613e5457fe5b14613e705750600b9750600096508695506119a2945050505050565b613e8886610100015187606001518860200151615106565b602088015293506000846003811115613e9d57fe5b14613eb95750600b9750600096508695506119a2945050505050565b8b6001600160a01b0316816001600160a01b03161415613f5d57613ee78661012001518c8860200151615106565b602088015293506000846003811115613efc57fe5b14613f185750600b9750600096508695506119a2945050505050565b613f2c8661010001518b8860200151615106565b602088015293506000846003811115613f4157fe5b14613f5d5750600b9750600096508695506119a2945050505050565b50600101613c16565b50602084015184511115613f8d5750505060208101519051600094500391508290506119a2565b50508151602090920151600095508594509190910391506119a29050565b6001600160a01b0381166000908152601060209081526040808320600f90925290912054608081901c15613fe357608081901c613fe5565b805b90506000613ff161195f565b8354909150600090614011908390600160e01b900463ffffffff16614b7d565b90506000811180156140235750600083115b156141e4576000856001600160a01b03166318160ddd6040518163ffffffff1660e01b815260040160206040518083038186803b15801561406357600080fd5b505afa158015614077573d6000803e3d6000fd5b505050506040513d602081101561408d57600080fd5b50519050600061409d8386614bd5565b90506140a76155b6565b600083116140c457604051806020016040528060008152506140ce565b6140ce8284614c11565b90506140d86155b6565b604080516020810190915288546001600160e01b031681526140fa9083614c4e565b9050604051806040016040528061413c83600001516040518060400160405280600f81526020016e696e646578203e203232346269747360881b815250614c73565b6001600160e01b031681526020016141808860405180604001604052806014815260200173626c6f636b4e756d626572203e2033326269747360601b815250614d0d565b63ffffffff9081169091526001600160a01b038b166000908152601060209081526040909120835181549490920151909216600160e01b026001600160e01b039182166001600160e01b031990941693909317169190911790555061148b92505050565b6000811180156141fd575083546001600160e01b031615155b1561148b576142388260405180604001604052806014815260200173626c6f636b4e756d626572203e2033326269747360601b815250614d0d565b845463ffffffff91909116600160e01b026001600160e01b039091161784555050505050565b6001600160a01b038316600090815260106020526040902061427e6155b6565b50604080516020810190915281546001600160e01b0316815261429f6155b6565b5060408051602080820183526001600160a01b038089166000908152601283528481209189168082528284529481208054855286519590915291529190915580511580156142ed5750815115155b15614304576a0c097ce7bc90715b34b9f160241b81525b61430c6155b6565b6143168383614d62565b90506000876001600160a01b03166370a08231886040518263ffffffff1660e01b815260040180826001600160a01b03166001600160a01b0316815260200191505060206040518083038186803b15801561437057600080fd5b505afa158015614384573d6000803e3d6000fd5b505050506040513d602081101561439a57600080fd5b5051905060006143aa8284614d87565b6001600160a01b038916600090815260146020526040812054919250906143d190836147ec565b90506143ea89828a613aa65766038d7ea4c68000613aa9565b6001600160a01b03808b1660008181526014602090815260409182902094909455895181518781529485015280519193928e16927f2caecd17d02f56fa897705dcc740da2d237c373f70686f4e0d9bd3bf0400ea7a929081900390910190a350505050505050505050565b6000806000614468846000806000613b90565b9250925092509193909250565b60008060006144826155b6565b61448c8686615153565b9092509050600082600381111561449f57fe5b146144b057509150600090506144c2565b60006144bb826151bb565b9350935050505b9250929050565b6001600160a01b0381166000908152600960205260409020805460ff161515600114614538576040805162461bcd60e51b815260206004820152601960248201527818dbdb5c081b585c9ad95d081a5cc81b9bdd081b1a5cdd1959603a1b604482015290519081900360640190fd5b600381015460ff161561458e576040805162461bcd60e51b815260206004820152601960248201527818dbdb5c081b585c9ad95d08185b1c9958591e481859191959603a1b604482015290519081900360640190fd5b60038101805460ff19166001908117909155604080516001600160a01b0385168152602081019290925280517f93c1f3e36ed71139f466a4ce8c9751790e2e33f5afb2df0dcfb3aeabe55d5aa29281900390910190a16001600160a01b0382166000908152601060205260409020546001600160e01b031615801561463657506001600160a01b038216600090815260106020526040902054600160e01b900463ffffffff16155b156147035760405180604001604052806a0c097ce7bc90715b34b9f160241b6001600160e01b031681526020016146a861466e61195f565b6040518060400160405280601c81526020017b626c6f636b206e756d6265722065786365656473203332206269747360201b815250614d0d565b63ffffffff9081169091526001600160a01b0384166000908152601060209081526040909120835181549490920151909216600160e01b026001600160e01b039182166001600160e01b031990941693909317169190911790555b6001600160a01b0382166000908152601160205260409020546001600160e01b031615801561475557506001600160a01b038216600090815260116020526040902054600160e01b900463ffffffff16155b156147e85760405180604001604052806a0c097ce7bc90715b34b9f160241b6001600160e01b0316815260200161478d61466e61195f565b63ffffffff9081169091526001600160a01b0384166000908152601160209081526040909120835181549490920151909216600160e01b026001600160e01b039182166001600160e01b031990941693909317169190911790555b5050565b6000611a9e8383604051806040016040528060118152602001706164646974696f6e206f766572666c6f7760781b8152506151ca565b60005b600d548110156148ad57816001600160a01b0316600d828154811061484657fe5b6000918252602090912001546001600160a01b031614156148a5576040805162461bcd60e51b81526020600482015260146024820152731b585c9ad95d08185b1c9958591e48185919195960621b604482015290519081900360640190fd5b600101614825565b50600d80546001810182556000919091527fd7b6990105719101dabeb77144f2a3385c8033acd3af97e9423a695e81ad1eb50180546001600160a01b0319166001600160a01b0392909216919091179055565b6001600160a01b03831660009081526009602052604081205460ff16614927576009611a7c565b6001600160a01b038085166000908152600960209081526040808320938716835260029093019052205460ff1661495f576000611a7c565b60008061496f8587866000613b90565b9193509091506000905082601181111561498557fe5b1461499657816011811115612ffd57fe5b8015612d51576004612ffd565b6001600160a01b0382166000908152600960205260408120805460ff166149ce5760099150506112b2565b6001600160a01b038316600090815260028201602052604090205460ff16151560011415614a005760009150506112b2565b6007546001600160a01b03841660009081526008602052604090205410614a2b5760109150506112b2565b6001600160a01b0380841660008181526002840160209081526040808320805460ff19166001908117909155600883528184208054918201815584529282902090920180549489166001600160a01b031990951685179055815193845283019190915280517f3ab23ab0d51cccc0c3085aec51f99228625aa1a922b3a8ca89a26b0f2027a1a59281900390910190a15060009392505050565b6000614ace6155b6565b614af4604051806020016040528086815250604051806020016040528086815250615228565b915091509250929050565b6000614b096155b6565b83518351614af49190615311565b60007f45b96fe442630264581b197e84bbada861235052c5a1aadfff9ea4e40a969aa0846011811115614b4657fe5b846013811115614b5257fe5b604080519283526020830191909152818101859052519081900360600190a1836011811115611a9b57fe5b6000611a9e8383604051806040016040528060158152602001747375627472616374696f6e20756e646572666c6f7760581b8152506153c1565b6000611a9e614bce84670de0b6b3a7640000614bd5565b835161541b565b6000611a9e8383604051806040016040528060178152602001766d756c7469706c69636174696f6e206f766572666c6f7760481b81525061544e565b614c196155b6565b6040518060200160405280614c45614c3f866a0c097ce7bc90715b34b9f160241b614bd5565b8561541b565b90529392505050565b614c566155b6565b6040518060200160405280614c45856000015185600001516147ec565b600081600160e01b8410614d055760405162461bcd60e51b81526004018080602001828103825283818151815260200191508051906020019080838360005b83811015614cca578181015183820152602001614cb2565b50505050905090810190601f168015614cf75780820380516001836020036101000a031916815260200191505b509250505060405180910390fd5b509192915050565b600081600160201b8410614d055760405162461bcd60e51b8152602060048201818152835160248401528351909283926044909101919085019080838360008315614cca578181015183820152602001614cb2565b614d6a6155b6565b6040518060200160405280614c4585600001518560000151614b7d565b60006a0c097ce7bc90715b34b9f160241b614da6848460000151614bd5565b81614dad57fe5b049392505050565b600080614dc06124c4565b9050828410158015614dd25750600084115b8015614de657506001600160a01b03811615155b156150a557604080516370a0823160e01b8152306004820152905182916000916001600160a01b038416916370a08231916024808301926020929190829003018186803b158015614e3657600080fd5b505afa158015614e4a573d6000803e3d6000fd5b505050506040513d6020811015614e6057600080fd5b505190508086116150a257601554604080516392b8de3960e01b81526001600160a01b038a81166004830152602482018a9052825160009485949216926392b8de39926044808301939192829003018186803b158015614ebf57600080fd5b505afa158015614ed3573d6000803e3d6000fd5b505050506040513d6040811015614ee957600080fd5b50805160209091015190925090508115614f8a57836001600160a01b031663a9059cbb8a846040518363ffffffff1660e01b815260040180836001600160a01b03166001600160a01b0316815260200182815260200192505050602060405180830381600087803b158015614f5d57600080fd5b505af1158015614f71573d6000803e3d6000fd5b505050506040513d6020811015614f8757600080fd5b50505b801561509457836001600160a01b031663a9059cbb601560009054906101000a90046001600160a01b03166001600160a01b031663ee9e81996040518163ffffffff1660e01b815260040160206040518083038186803b158015614fed57600080fd5b505afa158015615001573d6000803e3d6000fd5b505050506040513d602081101561501757600080fd5b5051604080516001600160e01b031960e085901b1681526001600160a01b039092166004830152602482018590525160448083019260209291908290030181600087803b15801561506757600080fd5b505af115801561507b573d6000803e3d6000fd5b505050506040513d602081101561509157600080fd5b50505b600095505050505050611a9e565b50505b50919392505050565b60006150b86155b6565b60006150c26155b6565b6150cc8787615228565b909250905060008260038111156150df57fe5b146150ee579092509050612b6e565b6150f88186615228565b935093505050935093915050565b60008060006151136155b6565b61511d8787615153565b9092509050600082600381111561513057fe5b146151415750915060009050612b6e565b6150f861514d826151bb565b866154c4565b600061515d6155b6565b60008061516e8660000151866154ea565b9092509050600082600381111561518157fe5b146151a0575060408051602081019091526000815290925090506144c2565b60408051602081019091529081526000969095509350505050565b51670de0b6b3a7640000900490565b6000838301828582101561521f5760405162461bcd60e51b8152602060048201818152835160248401528351909283926044909101919085019080838360008315614cca578181015183820152602001614cb2565b50949350505050565b60006152326155b6565b600080615247866000015186600001516154ea565b9092509050600082600381111561525a57fe5b14615279575060408051602081019091526000815290925090506144c2565b60008061528e6706f05b59d3b20000846154c4565b909250905060008260038111156152a157fe5b146152c3575060408051602081019091526000815290945092506144c2915050565b6000806152d883670de0b6b3a7640000615529565b909250905060008260038111156152eb57fe5b146152f257fe5b604080516020810190915290815260009a909950975050505050505050565b600061531b6155b6565b60008061533086670de0b6b3a76400006154ea565b9092509050600082600381111561534357fe5b14615362575060408051602081019091526000815290925090506144c2565b60008061536f8388615529565b9092509050600082600381111561538257fe5b146153a4575060408051602081019091526000815290945092506144c2915050565b604080516020810190915290815260009890975095505050505050565b600081848411156154135760405162461bcd60e51b8152602060048201818152835160248401528351909283926044909101919085019080838360008315614cca578181015183820152602001614cb2565b505050900390565b6000611a9e83836040518060400160405280600e81526020016d646976696465206279207a65726f60901b815250615554565b600083158061545b575082155b1561546857506000611a9e565b8383028385828161547557fe5b0414839061521f5760405162461bcd60e51b8152602060048201818152835160248401528351909283926044909101919085019080838360008315614cca578181015183820152602001614cb2565b6000808383018481106154dc576000925090506144c2565b5060029150600090506144c2565b600080836154fd575060009050806144c2565b8383028385828161550a57fe5b041461551e575060029150600090506144c2565b6000925090506144c2565b6000808261553d57506001905060006144c2565b600083858161554857fe5b04915091509250929050565b600081836155a35760405162461bcd60e51b8152602060048201818152835160248401528351909283926044909101919085019080838360008315614cca578181015183820152602001614cb2565b508284816155ad57fe5b04949350505050565b6040518060200160405280600081525090565b81548183558181111561131557600083815260209020611315918101908301615657565b60405180610140016040528060008152602001600081526020016000815260200160008152602001600081526020016000815260200161562b6155b6565b81526020016156386155b6565b81526020016156456155b6565b81526020016156526155b6565b905290565b61196191905b80821115615671576000815560010161565d565b509056fe63616e6e6f742070617573652061206d61726b65742074686174206973206e6f74206c69737465646f6e6c792061646d696e2063616e20756e7061757365000000000000000000006f6e6c7920706175736520677561726469616e20616e642061646d696e2063616e207061757365657869744d61726b65743a206765744163636f756e74536e617073686f74206661696c65646f6e6c7920756e6974726f6c6c65722061646d696e2063616e206368616e676520627261696e73a265627a7a723158203f4a2e1c8b44666d216055b5da86926070f1026dde57281ac50d6b636b96791764736f6c63430005100032",
  "source": "pragma solidity ^0.5.16;\n\nimport \"./compound/Comptroller.sol\";\nimport \"./compound/EIP20Interface.sol\";\nimport \"./QsConfig.sol\";\n\ncontract Qstroller is Comptroller {\n    QsConfig public qsConfig;\n\n    function _setQsConfig(QsConfig _qsConfig) public {\n        require(msg.sender == admin);\n\n        qsConfig = _qsConfig;\n    }\n\n    /**\n     * @notice Sets new governance token distribution speed\n     * @dev Admin function to set new token distribution speed\n     */\n    function _setCompSpeeds(address[] memory _allMarkets, uint[] memory _compSpeeds) public {\n        // Check caller is admin\n        require(msg.sender == admin);\n        \n        require(_allMarkets.length == _compSpeeds.length);\n\n        uint _compRate = 0;\n        for (uint i = 0; i < _allMarkets.length; i++) {\n            address cToken = _allMarkets[i];\n            Market storage market = markets[cToken];\n            if (market.isComped == false) {\n                _addCompMarketInternal(cToken);\n            }\n            compSpeeds[cToken] = _compSpeeds[i];\n            uint supplySpeed = _compSpeeds[i] >> 128;\n            uint borrowSpeed = uint128(_compSpeeds[i]);\n            uint compSpeed = add_(supplySpeed, borrowSpeed);\n            _compRate = add_(_compRate, compSpeed);\n        }\n        compRate = _compRate;\n    }\n\n    function getCompAddress() public view returns (address) {\n        return qsConfig.compToken();\n    }\n    \n    function calculateSeizeTokenAllocation(uint _seizeTokenAmount) public view returns(uint liquidatorAmount, uint safetyVaultAmount) {\n        return qsConfig.calculateSeizeTokenAllocation(_seizeTokenAmount, liquidationIncentiveMantissa);\n    }\n    \n    function transferComp(address user, uint userAccrued, uint threshold) internal returns (uint) {\n        address compAddress = getCompAddress();\n        if (userAccrued >= threshold && userAccrued > 0 && compAddress != address(0x0)) {\n            EIP20Interface comp = EIP20Interface(compAddress);\n            uint compRemaining = comp.balanceOf(address(this));\n            if (userAccrued <= compRemaining) {\n                (uint userAmount, uint governanceAmount) = qsConfig.getCompAllocation(user, userAccrued);\n                if (userAmount > 0) comp.transfer(user, userAmount);\n                if (governanceAmount > 0) comp.transfer(qsConfig.safetyVault(), governanceAmount);\n                return 0;\n            }\n        }\n        return userAccrued;\n    }\n\n    /**\n     * @notice Checks if the account should be allowed to mint tokens in the given market\n     * @param cToken The market to verify the mint against\n     * @param minter The account which would get the minted tokens\n     * @param mintAmount The amount of underlying being supplied to the market in exchange for tokens\n     * @return 0 if the mint is allowed, otherwise a semi-opaque error code (See ErrorReporter.sol)\n     */\n    function mintAllowed(address cToken, address minter, uint mintAmount) external returns (uint) {\n        require(!qsConfig.isBlocked(minter));\n        // Pausing is a very serious situation - we revert to sound the alarms\n        require(!mintGuardianPaused[cToken]);\n\n        // Shh - currently unused\n        minter;\n        mintAmount;\n\n        if (!markets[cToken].isListed) {\n            return uint(Error.MARKET_NOT_LISTED);\n        }\n\n        // Keep the flywheel moving\n        updateCompSupplyIndex(cToken);\n        distributeSupplierComp(cToken, minter, false);\n        return uint(Error.NO_ERROR);\n    }\n\n    /**\n  * @notice Accrue COMP to the market by updating the supply index\n  * @param cToken The market whose supply index to update\n  */\n    function updateCompSupplyIndex(address cToken) internal {\n        CompMarketState storage supplyState = compSupplyState[cToken];\n        uint supplySpeed = compSpeeds[cToken];\n        // use first 128 bit as supplySpeed\n        supplySpeed = supplySpeed >> 128 == 0 ? supplySpeed : supplySpeed >> 128;\n        uint blockNumber = getBlockNumber();\n        uint deltaBlocks = sub_(blockNumber, uint(supplyState.block));\n        if (deltaBlocks > 0 && supplySpeed > 0) {\n            uint supplyTokens = CToken(cToken).totalSupply();\n            uint compAccrued = mul_(deltaBlocks, supplySpeed);\n            Double memory ratio = supplyTokens > 0 ? fraction(compAccrued, supplyTokens) : Double({mantissa: 0});\n            Double memory index = add_(Double({mantissa: supplyState.index}), ratio);\n            compSupplyState[cToken] = CompMarketState({\n            index: safe224(index.mantissa, \"index > 224bits\"),\n            block: safe32(blockNumber, \"blockNumber > 32bits\")\n            });\n        } else if (deltaBlocks > 0 && supplyState.index > 0) {\n            supplyState.block = safe32(blockNumber, \"blockNumber > 32bits\");\n        }\n    }\n\n    /**\n     * @notice Accrue COMP to the market by updating the borrow index\n     * @param cToken The market whose borrow index to update\n     */\n    function updateCompBorrowIndex(address cToken, Exp memory marketBorrowIndex) internal {\n        CompMarketState storage borrowState = compBorrowState[cToken];\n        // use last 128 bit as borrowSpeed\n        uint borrowSpeed = uint128(compSpeeds[cToken]);\n        uint blockNumber = getBlockNumber();\n        uint deltaBlocks = sub_(blockNumber, uint(borrowState.block));\n        if (deltaBlocks > 0 && borrowSpeed > 0) {\n            uint borrowAmount = div_(CToken(cToken).totalBorrows(), marketBorrowIndex);\n            uint compAccrued = mul_(deltaBlocks, borrowSpeed);\n            Double memory ratio = borrowAmount > 0 ? fraction(compAccrued, borrowAmount) : Double({mantissa: 0});\n            Double memory index = add_(Double({mantissa: borrowState.index}), ratio);\n            compBorrowState[cToken] = CompMarketState({\n            index: safe224(index.mantissa, \"index > 224bits\"),\n            block: safe32(blockNumber, \"blockNumber > 32bits\")\n            });\n        } else if (deltaBlocks > 0 && borrowState.index > 0) {\n            borrowState.block = safe32(blockNumber, \"blockNumber > 32bits\");\n        }\n    }\n}",
  "sourcePath": "/Users/songsjun/Workspace/Quicksilver/quicksilver-protocol-new/contracts/Qstroller.sol",
  "compiler": {
    "name": "solc",
    "version": "0.5.16+commit.9c3226ce.Emscripten.clang"
  },
  "schemaVersion": "3.2.5",
  "updatedAt": "2021-06-29T12:56:55.507Z",
  "devdoc": {
    "methods": {
      "_setCloseFactor(uint256)": {
        "details": "Admin function to set closeFactor",
        "params": {
          "newCloseFactorMantissa": "New close factor, scaled by 1e18"
        },
        "return": "uint 0=success, otherwise a failure. (See ErrorReporter for details)"
      },
      "_setCollateralFactor(address,uint256)": {
        "details": "Admin function to set per-market collateralFactor",
        "params": {
          "cToken": "The market to set the factor on",
          "newCollateralFactorMantissa": "The new collateral factor, scaled by 1e18"
        },
        "return": "uint 0=success, otherwise a failure. (See ErrorReporter for details)"
      },
      "_setCompSpeeds(address[],uint256[])": {
        "details": "Admin function to set new token distribution speed"
      },
      "_setLiquidationIncentive(uint256)": {
        "details": "Admin function to set liquidationIncentive",
        "params": {
          "newLiquidationIncentiveMantissa": "New liquidationIncentive scaled by 1e18"
        },
        "return": "uint 0=success, otherwise a failure. (See ErrorReporter for details)"
      },
      "_setMaxAssets(uint256)": {
        "details": "Admin function to set maxAssets",
        "params": {
          "newMaxAssets": "New max assets"
        },
        "return": "uint 0=success, otherwise a failure. (See ErrorReporter for details)"
      },
      "_setPauseGuardian(address)": {
        "params": {
          "newPauseGuardian": "The address of the new Pause Guardian"
        },
        "return": "uint 0=success, otherwise a failure. (See enum Error for details)"
      },
      "_setPriceOracle(address)": {
        "details": "Admin function to set a new price oracle",
        "return": "uint 0=success, otherwise a failure (see ErrorReporter.sol for details)"
      },
      "_supportMarket(address)": {
        "details": "Admin function to set isListed and add support for the market",
        "params": {
          "cToken": "The address of the market (token) to list"
        },
        "return": "uint 0=success, otherwise a failure. (See enum Error for details)"
      },
      "borrowAllowed(address,address,uint256)": {
        "params": {
          "borrowAmount": "The amount of underlying the account would borrow",
          "borrower": "The account which would borrow the asset",
          "cToken": "The market to verify the borrow against"
        },
        "return": "0 if the borrow is allowed, otherwise a semi-opaque error code (See ErrorReporter.sol)"
      },
      "borrowVerify(address,address,uint256)": {
        "params": {
          "borrowAmount": "The amount of the underlying asset requested to borrow",
          "borrower": "The address borrowing the underlying",
          "cToken": "Asset whose underlying is being borrowed"
        }
      },
      "checkMembership(address,address)": {
        "params": {
          "account": "The address of the account to check",
          "cToken": "The cToken to check"
        },
        "return": "True if the account is in the asset, otherwise false."
      },
      "claimComp(address)": {
        "params": {
          "holder": "The address to claim COMP for"
        }
      },
      "claimComp(address,address[])": {
        "params": {
          "cTokens": "The list of markets to claim COMP in",
          "holder": "The address to claim COMP for"
        }
      },
      "claimComp(address[],address[],bool,bool)": {
        "params": {
          "borrowers": "Whether or not to claim COMP earned by borrowing",
          "cTokens": "The list of markets to claim COMP in",
          "holders": "The addresses to claim COMP for",
          "suppliers": "Whether or not to claim COMP earned by supplying"
        }
      },
      "enterMarkets(address[])": {
        "params": {
          "cTokens": "The list of addresses of the cToken markets to be enabled"
        },
        "return": "Success indicator for whether each corresponding market was entered"
      },
      "exitMarket(address)": {
        "details": "Sender must not have an outstanding borrow balance in the asset, or be providing necessary collateral for an outstanding borrow.",
        "params": {
          "cTokenAddress": "The address of the asset to be removed"
        },
        "return": "Whether or not the account successfully exited the market"
      },
      "getAccountLiquidity(address)": {
        "return": "(possible error code (semi-opaque), account liquidity in excess of collateral requirements,         account shortfall below collateral requirements)"
      },
      "getAllMarkets()": {
        "details": "The automatic getter may be used to access an individual market.",
        "return": "The list of market addresses"
      },
      "getAssetsIn(address)": {
        "params": {
          "account": "The address of the account to pull assets for"
        },
        "return": "A dynamic list with the assets the account has entered"
      },
      "getHypotheticalAccountLiquidity(address,address,uint256,uint256)": {
        "params": {
          "account": "The account to determine liquidity for",
          "borrowAmount": "The amount of underlying to hypothetically borrow",
          "cTokenModify": "The market to hypothetically redeem/borrow in",
          "redeemTokens": "The number of tokens to hypothetically redeem"
        },
        "return": "(possible error code (semi-opaque), hypothetical account liquidity in excess of collateral requirements,         hypothetical account shortfall below collateral requirements)"
      },
      "liquidateBorrowAllowed(address,address,address,address,uint256)": {
        "params": {
          "borrower": "The address of the borrower",
          "cTokenBorrowed": "Asset which was borrowed by the borrower",
          "cTokenCollateral": "Asset which was used as collateral and will be seized",
          "liquidator": "The address repaying the borrow and seizing the collateral",
          "repayAmount": "The amount of underlying being repaid"
        }
      },
      "liquidateBorrowVerify(address,address,address,address,uint256,uint256)": {
        "params": {
          "actualRepayAmount": "The amount of underlying being repaid",
          "borrower": "The address of the borrower",
          "cTokenBorrowed": "Asset which was borrowed by the borrower",
          "cTokenCollateral": "Asset which was used as collateral and will be seized",
          "liquidator": "The address repaying the borrow and seizing the collateral"
        }
      },
      "liquidateCalculateSeizeTokens(address,address,uint256)": {
        "details": "Used in liquidation (called in cToken.liquidateBorrowFresh)",
        "params": {
          "actualRepayAmount": "The amount of cTokenBorrowed underlying to convert into cTokenCollateral tokens",
          "cTokenBorrowed": "The address of the borrowed cToken",
          "cTokenCollateral": "The address of the collateral cToken"
        },
        "return": "(errorCode, number of cTokenCollateral tokens to be seized in a liquidation)"
      },
      "mintAllowed(address,address,uint256)": {
        "params": {
          "cToken": "The market to verify the mint against",
          "mintAmount": "The amount of underlying being supplied to the market in exchange for tokens",
          "minter": "The account which would get the minted tokens"
        },
        "return": "0 if the mint is allowed, otherwise a semi-opaque error code (See ErrorReporter.sol)"
      },
      "mintVerify(address,address,uint256,uint256)": {
        "params": {
          "actualMintAmount": "The amount of the underlying asset being minted",
          "cToken": "Asset being minted",
          "mintTokens": "The number of tokens being minted",
          "minter": "The address minting the tokens"
        }
      },
      "redeemAllowed(address,address,uint256)": {
        "params": {
          "cToken": "The market to verify the redeem against",
          "redeemTokens": "The number of cTokens to exchange for the underlying asset in the market",
          "redeemer": "The account which would redeem the tokens"
        },
        "return": "0 if the redeem is allowed, otherwise a semi-opaque error code (See ErrorReporter.sol)"
      },
      "redeemVerify(address,address,uint256,uint256)": {
        "params": {
          "cToken": "Asset being redeemed",
          "redeemAmount": "The amount of the underlying asset being redeemed",
          "redeemTokens": "The number of tokens being redeemed",
          "redeemer": "The address redeeming the tokens"
        }
      },
      "repayBorrowAllowed(address,address,address,uint256)": {
        "params": {
          "borrower": "The account which would borrowed the asset",
          "cToken": "The market to verify the repay against",
          "payer": "The account which would repay the asset",
          "repayAmount": "The amount of the underlying asset the account would repay"
        },
        "return": "0 if the repay is allowed, otherwise a semi-opaque error code (See ErrorReporter.sol)"
      },
      "repayBorrowVerify(address,address,address,uint256,uint256)": {
        "params": {
          "actualRepayAmount": "The amount of underlying being repaid",
          "borrower": "The address of the borrower",
          "cToken": "Asset being repaid",
          "payer": "The address repaying the borrow"
        }
      },
      "seizeAllowed(address,address,address,address,uint256)": {
        "params": {
          "borrower": "The address of the borrower",
          "cTokenBorrowed": "Asset which was borrowed by the borrower",
          "cTokenCollateral": "Asset which was used as collateral and will be seized",
          "liquidator": "The address repaying the borrow and seizing the collateral",
          "seizeTokens": "The number of collateral tokens to seize"
        }
      },
      "seizeVerify(address,address,address,address,uint256)": {
        "params": {
          "borrower": "The address of the borrower",
          "cTokenBorrowed": "Asset which was borrowed by the borrower",
          "cTokenCollateral": "Asset which was used as collateral and will be seized",
          "liquidator": "The address repaying the borrow and seizing the collateral",
          "seizeTokens": "The number of collateral tokens to seize"
        }
      },
      "transferAllowed(address,address,address,uint256)": {
        "params": {
          "cToken": "The market to verify the transfer against",
          "dst": "The account which receives the tokens",
          "src": "The account which sources the tokens",
          "transferTokens": "The number of cTokens to transfer"
        },
        "return": "0 if the transfer is allowed, otherwise a semi-opaque error code (See ErrorReporter.sol)"
      },
      "transferVerify(address,address,address,uint256)": {
        "params": {
          "cToken": "Asset being transferred",
          "dst": "The account which receives the tokens",
          "src": "The account which sources the tokens",
          "transferTokens": "The number of cTokens to transfer"
        }
      }
    }
  },
  "userdoc": {
    "methods": {
      "_setCloseFactor(uint256)": {
        "notice": "Sets the closeFactor used when liquidating borrows"
      },
      "_setCollateralFactor(address,uint256)": {
        "notice": "Sets the collateralFactor for a market"
      },
      "_setCompSpeeds(address[],uint256[])": {
        "notice": "Sets new governance token distribution speed"
      },
      "_setLiquidationIncentive(uint256)": {
        "notice": "Sets liquidationIncentive"
      },
      "_setMaxAssets(uint256)": {
        "notice": "Sets maxAssets which controls how many markets can be entered"
      },
      "_setPauseGuardian(address)": {
        "notice": "Admin function to change the Pause Guardian"
      },
      "_setPriceOracle(address)": {
        "notice": "Sets a new price oracle for the comptroller"
      },
      "_supportMarket(address)": {
        "notice": "Add the market to the markets mapping and set it as listed"
      },
      "borrowAllowed(address,address,uint256)": {
        "notice": "Checks if the account should be allowed to borrow the underlying asset of the given market"
      },
      "borrowVerify(address,address,uint256)": {
        "notice": "Validates borrow and reverts on rejection. May emit logs."
      },
      "checkMembership(address,address)": {
        "notice": "Returns whether the given account is entered in the given asset"
      },
      "claimComp(address)": {
        "notice": "Claim all the comp accrued by holder in all markets"
      },
      "claimComp(address,address[])": {
        "notice": "Claim all the comp accrued by holder in the specified markets"
      },
      "claimComp(address[],address[],bool,bool)": {
        "notice": "Claim all comp accrued by the holders"
      },
      "enterMarkets(address[])": {
        "notice": "Add assets to be included in account liquidity calculation"
      },
      "exitMarket(address)": {
        "notice": "Removes asset from sender's account liquidity calculation"
      },
      "getAccountLiquidity(address)": {
        "notice": "Determine the current account liquidity wrt collateral requirements"
      },
      "getAllMarkets()": {
        "notice": "Return all of the markets"
      },
      "getAssetsIn(address)": {
        "notice": "Returns the assets an account has entered"
      },
      "getHypotheticalAccountLiquidity(address,address,uint256,uint256)": {
        "notice": "Determine what the account liquidity would be if the given amounts were redeemed/borrowed"
      },
      "liquidateBorrowAllowed(address,address,address,address,uint256)": {
        "notice": "Checks if the liquidation should be allowed to occur"
      },
      "liquidateBorrowVerify(address,address,address,address,uint256,uint256)": {
        "notice": "Validates liquidateBorrow and reverts on rejection. May emit logs."
      },
      "liquidateCalculateSeizeTokens(address,address,uint256)": {
        "notice": "Calculate number of tokens of collateral asset to seize given an underlying amount"
      },
      "mintAllowed(address,address,uint256)": {
        "notice": "Checks if the account should be allowed to mint tokens in the given market"
      },
      "mintVerify(address,address,uint256,uint256)": {
        "notice": "Validates mint and reverts on rejection. May emit logs."
      },
      "redeemAllowed(address,address,uint256)": {
        "notice": "Checks if the account should be allowed to redeem tokens in the given market"
      },
      "redeemVerify(address,address,uint256,uint256)": {
        "notice": "Validates redeem and reverts on rejection. May emit logs."
      },
      "repayBorrowAllowed(address,address,address,uint256)": {
        "notice": "Checks if the account should be allowed to repay a borrow in the given market"
      },
      "repayBorrowVerify(address,address,address,uint256,uint256)": {
        "notice": "Validates repayBorrow and reverts on rejection. May emit logs."
      },
      "seizeAllowed(address,address,address,address,uint256)": {
        "notice": "Checks if the seizing of assets should be allowed to occur"
      },
      "seizeVerify(address,address,address,address,uint256)": {
        "notice": "Validates seize and reverts on rejection. May emit logs."
      },
      "transferAllowed(address,address,address,uint256)": {
        "notice": "Checks if the account should be allowed to transfer tokens in the given market"
      },
      "transferVerify(address,address,address,uint256)": {
        "notice": "Validates transfer and reverts on rejection. May emit logs."
      }
    }
  }
}