{
  "contractName": "Reservoir",
  "abi": [
    {
      "inputs": [
        {
          "internalType": "uint256",
          "name": "dripRate_",
          "type": "uint256"
        },
        {
          "internalType": "contract EIP20Interface",
          "name": "token_",
          "type": "address"
        },
        {
          "internalType": "address",
          "name": "target_",
          "type": "address"
        }
      ],
      "payable": false,
      "stateMutability": "nonpayable",
      "type": "constructor"
    },
    {
      "constant": true,
      "inputs": [],
      "name": "dripRate",
      "outputs": [
        {
          "internalType": "uint256",
          "name": "",
          "type": "uint256"
        }
      ],
      "payable": false,
      "stateMutability": "view",
      "type": "function"
    },
    {
      "constant": true,
      "inputs": [],
      "name": "dripStart",
      "outputs": [
        {
          "internalType": "uint256",
          "name": "",
          "type": "uint256"
        }
      ],
      "payable": false,
      "stateMutability": "view",
      "type": "function"
    },
    {
      "constant": true,
      "inputs": [],
      "name": "dripped",
      "outputs": [
        {
          "internalType": "uint256",
          "name": "",
          "type": "uint256"
        }
      ],
      "payable": false,
      "stateMutability": "view",
      "type": "function"
    },
    {
      "constant": true,
      "inputs": [],
      "name": "target",
      "outputs": [
        {
          "internalType": "address",
          "name": "",
          "type": "address"
        }
      ],
      "payable": false,
      "stateMutability": "view",
      "type": "function"
    },
    {
      "constant": true,
      "inputs": [],
      "name": "token",
      "outputs": [
        {
          "internalType": "contract EIP20Interface",
          "name": "",
          "type": "address"
        }
      ],
      "payable": false,
      "stateMutability": "view",
      "type": "function"
    },
    {
      "constant": false,
      "inputs": [],
      "name": "drip",
      "outputs": [
        {
          "internalType": "uint256",
          "name": "",
          "type": "uint256"
        }
      ],
      "payable": false,
      "stateMutability": "nonpayable",
      "type": "function"
    }
  ],
  "bytecode": "0x608060405234801561001057600080fd5b5060405161052c38038061052c8339818101604052606081101561003357600080fd5b5080516020820151604090920151436000908155600192909255600280546001600160a01b039485166001600160a01b031991821617909155600380549490921693169290921790915560045561049d8061008f6000396000f3fe608060405234801561001057600080fd5b50600436106100625760003560e01c806388a91a8a1461006757806395f632b3146100815780639f678cca14610089578063d326159214610091578063d4b8399214610099578063fc0c546a146100bd575b600080fd5b61006f6100c5565b60408051918252519081900360200190f35b61006f6100cb565b61006f6100d1565b61006f6102c9565b6100a16102cf565b604080516001600160a01b039092168252519081900360200190f35b6100a16102de565b60005481565b60045481565b600254604080516370a0823160e01b815230600482015290516000926001600160a01b031691839183916370a08231916024808301926020929190829003018186803b15801561012057600080fd5b505afa158015610134573d6000803e3d6000fd5b505050506040513d602081101561014a57600080fd5b50516001546000805460045460035460408051808201909152601281527164726970546f74616c206f766572666c6f7760701b60208201529596509394919390926001600160a01b03909116914391906101a9908790878503906102ed565b905060006101e382866040518060400160405280601381526020017264656c74614472697020756e646572666c6f7760681b8152506103a0565b905060006101f189836103fa565b9050600061022487836040518060400160405280600c81526020016b1d185d5d1bdb1bd9da58d85b60a21b815250610413565b9050806004819055508a6001600160a01b031663a9059cbb87846040518363ffffffff1660e01b815260040180836001600160a01b03166001600160a01b0316815260200182815260200192505050602060405180830381600087803b15801561028d57600080fd5b505af11580156102a1573d6000803e3d6000fd5b505050506040513d60208110156102b757600080fd5b50919b50505050505050505050505090565b60015481565b6003546001600160a01b031681565b6002546001600160a01b031681565b6000836102fc57506000610399565b8383028385828161030957fe5b041483906103955760405162461bcd60e51b81526004018080602001828103825283818151815260200191508051906020019080838360005b8381101561035a578181015183820152602001610342565b50505050905090810190601f1680156103875780820380516001836020036101000a031916815260200191505b509250505060405180910390fd5b5090505b9392505050565b600081848411156103f25760405162461bcd60e51b815260206004820181815283516024840152835190928392604490910191908501908083836000831561035a578181015183820152602001610342565b505050900390565b600081831161040a57508161040d565b50805b92915050565b600083830182858210156103955760405162461bcd60e51b815260206004820181815283516024840152835190928392604490910191908501908083836000831561035a57818101518382015260200161034256fea265627a7a723158200454e5f3cb63441ff38b2f17596e23da35fdb64bdb1525a71853ce861a7f75c364736f6c63430005100032",
  "source": "pragma solidity ^0.5.16;\n\n/**\n * @title Reservoir Contract\n * @notice Distributes a token to a different contract at a fixed rate.\n * @dev This contract must be poked via the `drip()` function every so often.\n * @author Compound\n */\ncontract Reservoir {\n\n  /// @notice The block number when the Reservoir started (immutable)\n  uint public dripStart;\n\n  /// @notice Tokens per block that to drip to target (immutable)\n  uint public dripRate;\n\n  /// @notice Reference to token to drip (immutable)\n  EIP20Interface public token;\n\n  /// @notice Target to receive dripped tokens (immutable)\n  address public target;\n\n  /// @notice Amount that has already been dripped\n  uint public dripped;\n\n  /**\n    * @notice Constructs a Reservoir\n    * @param dripRate_ Numer of tokens per block to drip\n    * @param token_ The token to drip\n    * @param target_ The recipient of dripped tokens\n    */\n  constructor(uint dripRate_, EIP20Interface token_, address target_) public {\n    dripStart = block.number;\n    dripRate = dripRate_;\n    token = token_;\n    target = target_;\n    dripped = 0;\n  }\n\n  /**\n    * @notice Drips the maximum amount of tokens to match the drip rate since inception\n    * @dev Note: this will only drip up to the amount of tokens available.\n    * @return The amount of tokens dripped in this call\n    */\n  function drip() public returns (uint) {\n    // First, read storage into memory\n    EIP20Interface token_ = token;\n    uint reservoirBalance_ = token_.balanceOf(address(this)); // TODO: Verify this is a static call\n    uint dripRate_ = dripRate;\n    uint dripStart_ = dripStart;\n    uint dripped_ = dripped;\n    address target_ = target;\n    uint blockNumber_ = block.number;\n\n    // Next, calculate intermediate values\n    uint dripTotal_ = mul(dripRate_, blockNumber_ - dripStart_, \"dripTotal overflow\");\n    uint deltaDrip_ = sub(dripTotal_, dripped_, \"deltaDrip underflow\");\n    uint toDrip_ = min(reservoirBalance_, deltaDrip_);\n    uint drippedNext_ = add(dripped_, toDrip_, \"tautological\");\n\n    // Finally, write new `dripped` value and transfer tokens to target\n    dripped = drippedNext_;\n    token_.transfer(target_, toDrip_);\n\n    return toDrip_;\n  }\n\n  /* Internal helper functions for safe math */\n\n  function add(uint a, uint b, string memory errorMessage) internal pure returns (uint) {\n    uint c = a + b;\n    require(c >= a, errorMessage);\n    return c;\n  }\n\n  function sub(uint a, uint b, string memory errorMessage) internal pure returns (uint) {\n    require(b <= a, errorMessage);\n    uint c = a - b;\n    return c;\n  }\n\n  function mul(uint a, uint b, string memory errorMessage) internal pure returns (uint) {\n    if (a == 0) {\n      return 0;\n    }\n    uint c = a * b;\n    require(c / a == b, errorMessage);\n    return c;\n  }\n\n  function min(uint a, uint b) internal pure returns (uint) {\n    if (a <= b) {\n      return a;\n    } else {\n      return b;\n    }\n  }\n}\n\nimport \"./EIP20Interface.sol\";\n",
  "sourcePath": "/Users/songsjun/Workspace/Quicksilver/quicksilver-protocol-new/contracts/compound/Reservoir.sol",
  "compiler": {
    "name": "solc",
    "version": "0.5.16+commit.9c3226ce.Emscripten.clang"
  },
  "schemaVersion": "3.2.5",
  "updatedAt": "2021-06-29T12:05:50.287Z",
  "devdoc": {
    "author": "Compound",
    "details": "This contract must be poked via the `drip()` function every so often.",
    "methods": {
      "constructor": {
        "params": {
          "dripRate_": "Numer of tokens per block to drip",
          "target_": "The recipient of dripped tokens",
          "token_": "The token to drip"
        }
      },
      "drip()": {
        "details": "Note: this will only drip up to the amount of tokens available.",
        "return": "The amount of tokens dripped in this call"
      }
    },
    "title": "Reservoir Contract"
  },
  "userdoc": {
    "methods": {
      "constructor": "Constructs a Reservoir",
      "drip()": {
        "notice": "Drips the maximum amount of tokens to match the drip rate since inception"
      }
    },
    "notice": "Distributes a token to a different contract at a fixed rate."
  }
}